:020000040800F2
:1000000000500020DD510008154300081943000886
:100010002D4300082F430008314300080000000072
:100020000000000000000000000000003343000852
:10003000354300080000000037430008394300083A
:1000400025520008255200082552000825520008B4
:1000500025520008255200082552000825520008A4
:10006000255200082552000825520008E5430008E3
:100070002552000825520008F543000825520008C3
:100080002552000825520008255200082552000874
:100090002552000825520008255200082552000864
:1000A0002552000825520008255200082552000854
:1000B0002552000805440008255200082552000872
:1000C0002552000825520008255200082552000834
:1000D0002552000841440008255200082552000816
:1000E0002552000825520008255200080000000093
:1000F0000000000000000000000000000000000000
:0C01000000000000000000005FF808F1A3
:1001100010B5054C237833B9044B13B10448AFF341
:1001200000800123237010BDFC01002000000000AE
:10013000C095000808B5034B1BB103490348AFF352
:10014000008008BD0000000000020020C0950008EB
:10015000034613F8012B002AFBD1181A0138704707
:1001600081F0004102E000BF83F0004330B54FEA68
:1001700041044FEA430594EA050F08BF90EA020FD5
:100180001FBF54EA000C55EA020C7FEA645C7FEA68
:10019000655C00F0E2804FEA5454D4EB5555B8BF8B
:1001A0006D420CDD2C4480EA020281EA030382EAFC
:1001B000000083EA010180EA020281EA0303362D8E
:1001C00088BF30BD11F0004F4FEA01314FF4801C61
:1001D0004CEA113102D0404261EB410113F0004F73
:1001E0004FEA03334CEA133302D0524263EB43032A
:1001F00094EA050F00F0A780A4F10104D5F1200EC8
:100200000DDB02FA0EFC22FA05F2801841F1000122
:1002100003FA0EF2801843FA05F359410EE0A5F1F6
:1002200020050EF1200E012A03FA0EFC28BF4CF027
:10023000020C43FA05F3C01851EBE37101F00045DD
:1002400007D54FF0000EDCF1000C7EEB00006EEBEA
:100250000101B1F5801F1BD3B1F5001F0CD3490874
:100260005FEA30004FEA3C0C04F101044FEA4452CB
:1002700012F5800F80F09A80BCF1004F08BF5FEA52
:10028000500C50F1000041EB045141EA050130BD32
:100290005FEA4C0C404141EB010111F4801FA4F1D5
:1002A0000104E9D191F0000F04BF01460020B1FA2A
:1002B00081F308BF2033A3F10B03B3F120020CDA62
:1002C0000C3208DD02F1140CC2F10C0201FA0CF040
:1002D00021FA02F10CE002F11402D8BFC2F1200CA5
:1002E00001FA02F120FA0CFCDCBF41EA0C0190405B
:1002F000E41AA2BF01EB0451294330BD6FEA0404A4
:100300001F3C1CDA0C340EDC04F11404C4F120028E
:1003100020FA04F001FA02F340EA030021FA04F3A0
:1003200045EA030130BDC4F10C04C4F1200220FAF7
:1003300002F001FA04F340EA0300294630BD21FA35
:1003400004F0294630BD94F0000F83F4801306BFFB
:1003500081F480110134013D4EE77FEA645C18BFEF
:100360007FEA655C29D094EA050F08BF90EA020F86
:1003700005D054EA000C04BF1946104630BD91EA7E
:10038000030F1EBF0021002030BD5FEA545C05D181
:100390004000494128BF41F0004130BD14F58004C0
:1003A0003CBF01F5801130BD01F0004545F0FE4134
:1003B00041F470014FF0000030BD7FEA645C1ABF69
:1003C000194610467FEA655C1CBF0B46024650EAA0
:1003D000013406BF52EA033591EA030F41F40021CC
:1003E00030BD00BF90F0000F04BF0021704730B552
:1003F0004FF4806404F132044FF000054FF0000127
:1004000050E700BF90F0000F04BF0021704730B5E7
:100410004FF4806404F1320410F0004548BF4042BC
:100420004FF000013EE700BF42004FEAE2014FEA11
:1004300031014FEA02701FBF12F07F4393F07F4FEC
:1004400081F06051704732F07F4208BF704793F0EF
:100450007F4F04BF41F40021704730B54FF4607402
:1004600001F0004521F000411CE700BF50EA010205
:1004700008BF704730B54FF000050AE050EA0102AE
:1004800008BF704730B511F0004502D5404261EB1E
:1004900041014FF4806404F132045FEA915C3FF45F
:1004A000D8AE4FF003025FEADC0C18BF03325FEAFC
:1004B000DC0C18BF033202EBDC02C2F1200300FAAD
:1004C00003FC20FA02F001FA03FE40EA0E0021FAD2
:1004D00002F11444BDE600BF70B54FF0FF0C4CF4C0
:1004E000E06C1CEA11541DBF1CEA135594EA0C0F72
:1004F00095EA0C0F00F0DEF82C4481EA030621EAAD
:100500004C5123EA4C5350EA013518BF52EA0335E7
:1005100041F4801143F4801338D0A0FB02CE4FF099
:100520000005E1FB02E506F00042E0FB03E54FF0C9
:100530000006E1FB03569CF0000F18BF4EF0010EC1
:10054000A4F1FF04B6F5007F64F5407404D25FEABD
:100550004E0E6D4146EB060642EAC62141EA555170
:100560004FEAC52040EA5E504FEACE2EB4F1FD0CB2
:1005700088BFBCF5E06F1ED8BEF1004F08BF5FEA30
:10058000500E50F1000041EB045170BD06F00046E2
:1005900046EA010140EA020081EA0301B4EB5C048F
:1005A000C2BFD4EB0C0541EA045170BD41F4801187
:1005B0004FF0000E013C00F3AB8014F1360FDEBFAC
:1005C000002001F0004170BDC4F10004203C35DA88
:1005D0000C341BDC04F11404C4F1200500FA05F30B
:1005E00020FA04F001FA05F240EA020001F00042AC
:1005F00021F0004110EBD37021FA04F642EB060122
:100600005EEA430E08BF20EAD37070BDC4F10C044B
:10061000C4F1200500FA04F320FA05F001FA04F20F
:1006200040EA020001F0004110EBD37041F10001FB
:100630005EEA430E08BF20EAD37070BDC4F1200506
:1006400000FA05F24EEA020E20FA04F301FA05F26E
:1006500043EA020321FA04F001F0004121FA04F216
:1006600020EA020000EBD3705EEA430E08BF20EAE6
:10067000D37070BD94F0000F0FD101F00046400020
:1006800041EB010111F4801F08BF013CF7D041EAA2
:10069000060195F0000F18BF704703F000465200A6
:1006A00043EB030313F4801F08BF013DF7D043EA77
:1006B0000603704794EA0C0F0CEA135518BF95EA2D
:1006C0000C0F0CD050EA410618BF52EA4306D1D1B4
:1006D00081EA030101F000414FF0000070BD50EAD3
:1006E000410606BF1046194652EA430619D094EA5D
:1006F0000C0F02D150EA013613D195EA0C0F05D147
:1007000052EA03361CBF104619460AD181EA03019A
:1007100001F0004141F0FE4141F470014FF0000052
:1007200070BD41F0FE4141F4780170BD70B54FF0ED
:10073000FF0C4CF4E06C1CEA11541DBF1CEA13556D
:1007400094EA0C0F95EA0C0F00F0A7F8A4EB05044F
:1007500081EA030E52EA03354FEA013100F0888046
:100760004FEA03334FF0805545EA131343EA12630F
:100770004FEA022245EA111545EA10654FEA0026C4
:100780000EF000419D4208BF964244F1FD0404F57D
:10079000407402D25B084FEA3202B61A65EB0305D9
:1007A0005B084FEA32024FF480104FF4002CB6EB96
:1007B000020E75EB030E22BFB61A754640EA0C0016
:1007C0005B084FEA3202B6EB020E75EB030E22BF56
:1007D000B61A754640EA5C005B084FEA3202B6EB97
:1007E000020E75EB030E22BFB61A754640EA9C0056
:1007F0005B084FEA3202B6EB020E75EB030E22BF26
:10080000B61A754640EADC0055EA060E18D04FEAE3
:10081000051545EA16754FEA06164FEAC30343EA83
:1008200052734FEAC2025FEA1C1CC0D111F4801F50
:100830000BD141EA00014FF000004FF0004CB6E749
:1008400011F4801F04BF01430020B4F1FD0C88BFE8
:10085000BCF5E06F3FF6AFAEB5EB030C04BFB6EBF3
:10086000020C5FEA500C50F1000041EB045170BDE6
:100870000EF0004E4EEA113114EB5C04C2BFD4EB13
:100880000C0541EA045170BD41F480114FF0000E97
:10089000013C90E645EA060E8DE60CEA135594EA13
:1008A0000C0F08BF95EA0C0F3FF43BAF94EA0C0F16
:1008B0000AD150EA01347FF434AF95EA0C0F7FF48B
:1008C00025AF104619462CE795EA0C0F06D152EADF
:1008D00003353FF4FDAE1046194622E750EA4106C3
:1008E00018BF52EA43067FF4C5AE50EA41047FF4D4
:1008F0000DAF52EA43057FF4EBAE12E74FF0FF3C39
:1009000006E000BF4FF0010C02E000BF4FF0010C09
:100910004DF804CD4FEA410C7FEA6C5C4FEA430C82
:1009200018BF7FEA6C5C1BD001B050EA410C0CBFD1
:1009300052EA430C91EA030F02BF90EA020F002033
:10094000704710F1000F91EA030F58BF994208BF9A
:1009500090422CBFD8176FEAE37040F00100704757
:100960004FEA410C7FEA6C5C02D150EA013C07D1AE
:100970004FEA430C7FEA6C5CD6D152EA033CD3D0F9
:100980005DF8040B704700BF8446104662468C46F3
:100990001946634600E000BF01B5FFF7B7FF002826
:1009A00048BF10F1000F01BD4DF808EDFFF7F4FF4F
:1009B0000CBF012000205DF808FB00BF4DF808EDDA
:1009C000FFF7EAFF34BF012000205DF808FB00BFFD
:1009D0004DF808EDFFF7E0FF94BF012000205DF81F
:1009E00008FB00BF4DF808EDFFF7CEFF94BF0120D4
:1009F00000205DF808FB00BF4DF808EDFFF7C4FFCD
:100A000034BF012000205DF808FB00BF4FEA410C15
:100A10007FEA6C5C02D150EA013C0AD14FEA430CF8
:100A20007FEA6C5C02D152EA033C02D14FF0000035
:100A300070474FF0010070474FEA410212F5001273
:100A400015D211D56FF47873B3EB625212D94FEA15
:100A5000C12343F0004343EA505311F0004F23FAFF
:100A600002F018BF404270474FF00000704750EA54
:100A7000013005D111F0004008BF6FF00040704711
:100A80004FF00000704700BF80F0004002E000BF60
:100A900081F0004142001FBF5FEA410392EA030F69
:100AA0007FEA226C7FEA236C6AD04FEA1262D2EBB3
:100AB0001363C1BFD218414048404140B8BF5B42B8
:100AC000192B88BF704710F0004F40F4000020F051
:100AD0007F4018BF404211F0004F41F4000121F067
:100AE0007F4118BF494292EA030F3FD0A2F10102B1
:100AF00041FA03FC10EB0C00C3F1200301FA03F1EF
:100B000000F0004302D5494260EB4000B0F5000F11
:100B100013D3B0F1807F06D340084FEA310102F1D0
:100B20000102FE2A51D2B1F1004F40EBC25008BF82
:100B300020F0010040EA03007047490040EB00004C
:100B400010F4000FA2F10102EDD1B0FA80FCACF17B
:100B5000080CB2EB0C0200FA0CF0AABF00EBC2507A
:100B600052421843BCBFD0401843704792F0000F68
:100B700081F4000106BF80F400000132013BB5E7BB
:100B80004FEA41037FEA226C18BF7FEA236C21D031
:100B900092EA030F04D092F0000F08BF0846704796
:100BA00090EA010F1CBF0020704712F07F4F04D164
:100BB000400028BF40F00040704712F100723CBF77
:100BC00000F50000704700F0004343F0FE4040F4A1
:100BD000000070477FEA226216BF08467FEA23635F
:100BE0000146420206BF5FEA412390EA010F40F44A
:100BF000800070474FF0000304E000BF10F0004396
:100C000048BF40425FEA000C08BF704743F096437C
:100C100001464FF000001CE050EA010208BF704797
:100C20004FF000030AE000BF50EA010208BF70471E
:100C300011F0004302D5404261EB41015FEA010C33
:100C400002BF84460146002043F0B64308BFA3F12B
:100C50008053A3F50003BCFA8CF2083AA3EBC2530D
:100C600010DB01FA02FC634400FA02FCC2F120022C
:100C7000BCF1004F20FA02F243EB020008BF20F063
:100C80000100704702F1200201FA02FCC2F12002C9
:100C900050EA4C0021FA02F243EB020008BF20EABE
:100CA000DC7070474FF0FF0C1CEAD0521EBF1CEAEC
:100CB000D15392EA0C0F93EA0C0F6FD01A4480EADA
:100CC000010C400218BF5FEA41211ED04FF00063C3
:100CD00043EA501043EA5111A0FB01310CF00040EF
:100CE000B1F5000F3EBF490041EAD3715B0040EA15
:100CF000010062F17F02FD2A1DD8B3F1004F40EBE5
:100D0000C25008BF20F00100704790F0000F0CF0B7
:100D1000004C08BF49024CEA502040EA51207F3A7B
:100D2000C2BFD2F1FF0340EAC250704740F4000056
:100D30004FF00003013A5DDC12F1190FDCBF00F047
:100D400000407047C2F10002410021FA02F1C2F1F5
:100D5000200200FA02FC5FEA310040F1000053EA91
:100D60004C0308BF20EADC70704792F0000F00F0DF
:100D7000004C02BF400010F4000F013AF9D040EAE5
:100D80000C0093F0000F01F0004C02BF490011F479
:100D9000000F013BF9D041EA0C018FE70CEAD15377
:100DA00092EA0C0F18BF93EA0C0F0AD030F0004CF7
:100DB00018BF31F0004CD8D180EA010000F00040AB
:100DC000704790F0000F17BF90F0004F084691F069
:100DD000000F91F0004F14D092EA0C0F01D14202A3
:100DE0000FD193EA0C0F03D14B0218BF084608D16C
:100DF00080EA010000F0004040F0FE4040F40000B6
:100E0000704740F0FE4040F4400070474FF0FF0C48
:100E10001CEAD0521EBF1CEAD15392EA0C0F93EA8F
:100E20000C0F69D0A2EB030280EA010C49024FEAE1
:100E3000402037D04FF0805343EA111143EA10139A
:100E40000CF000408B4238BF5B0042F17D024FF452
:100E5000000C8B4224BF5B1A40EA0C00B3EB510F2D
:100E600024BFA3EB510340EA5C00B3EB910F24BF16
:100E7000A3EB910340EA9C00B3EBD10F24BFA3EB9B
:100E8000D10340EADC001B0118BF5FEA1C1CE0D163
:100E9000FD2A3FF650AF8B4240EBC25008BF20F016
:100EA000010070470CF0004C4CEA50207F32C2BF6A
:100EB000D2F1FF0340EAC250704740F400004FF007
:100EC0000003013A37E792F0000F00F0004C02BF38
:100ED000400010F4000F013AF9D040EA0C0093F002
:100EE000000F01F0004C02BF490011F4000F013B5C
:100EF000F9D041EA0C0195E70CEAD15392EA0C0FC4
:100F000008D142027FF47DAF93EA0C0F7FF470AFFB
:100F1000084676E793EA0C0F04D14B023FF44CAF3E
:100F200008466EE730F0004C18BF31F0004CCAD1D3
:100F300030F000427FF45CAF31F000437FF43CAF0F
:100F40005FE700BF4FF0FF3C06E000BF4FF0010C31
:100F500002E000BF4FF0010C4DF804CD4FEA400213
:100F60004FEA41037FEA226C18BF7FEA236C11D05D
:100F700001B052EA530C18BF90EA010F58BFB2EB10
:100F8000030088BFC81738BF6FEAE17018BF40F090
:100F9000010070477FEA226C02D15FEA402C05D144
:100FA0007FEA236CE4D15FEA412CE1D05DF8040BC9
:100FB000704700BF844608466146FFE70FB5FFF75C
:100FC000C9FF002848BF10F1000F0FBD4DF808ED14
:100FD000FFF7F4FF0CBF012000205DF808FB00BF05
:100FE0004DF808EDFFF7EAFF34BF012000205DF85F
:100FF00008FB00BF4DF808EDFFF7E0FF94BF0120AC
:1010000000205DF808FB00BF4DF808EDFFF7D2FFA8
:1010100094BF012000205DF808FB00BF4DF808EDEB
:10102000FFF7C8FF34BF012000205DF808FB00BFB8
:1010300042000ED2B2F1FE4F0BD34FF09E03B3EB42
:10104000126209D44FEA002343F0004323FA02F06E
:1010500070474FF00000704712F1610F01D142025A
:1010600002D14FF0FF3070474FF00000704700BFD3
:101070004FEA4102B2F1E04324BFB3F5001CDCF1BA
:10108000FE5C0DD901F0004C4FEAC0024CEA5070F2
:10109000B2F1004F40EB830008BF20F00100704721
:1010A00011F0804F21D113F13872BCBF01F0004024
:1010B000704741F480114FEA5252C2F11802C2F156
:1010C000200C10FA0CF320FA02F018BF40F00100D7
:1010D0004FEAC1234FEAD32303FA0CFC40EA0C0089
:1010E00023FA02F34FEA4303CCE77FEA625307D1C6
:1010F00050EA01331EBF4FF0FE4040F440007047FD
:1011000001F0004040F0FE4040F40000704700BF96
:101110004FEA40024FEA41037FEA226C02D15FEAC4
:10112000402C08D17FEA236C02D15FEA412C02D126
:101130004FF0000070474FF0010070474FEA400247
:10114000B2F1FE4F0FD34FF09E03B3EB12620DD9F5
:101150004FEA002343F0004310F0004F23FA02F05F
:1011600018BF404270474FF00000704712F1610F06
:1011700001D1420205D110F0004008BF6FF00040DD
:1011800070474FF0000070477047000010B50446EC
:101190000E4B18784FF47A73B3FBF0F30C4A1068D7
:1011A000B0FBF3F000F016FC68B90F2C01D9012058
:1011B0000AE0002221464FF0FF3000F0C9FB054B4A
:1011C0001C60002000E0012010BD00BF00000020D6
:1011D000240000200400002008B5074A136843F0EB
:1011E00010031360032000F0A1FB0F20FFF7CEFFD8
:1011F000FFF7CAFF002008BD00200240034A116823
:10120000034B1B780B441360704700BFF81E00208F
:1012100000000020014B1868704700BFF81E002036
:1012200038B50446FFF7F6FF0546B4F1FF3F02D09C
:10123000044B1B781C44FFF7EDFF401BA042FAD380
:1012400038BD00BF0000002008B5436A9A6A12F05A
:10125000500F03D01B6A1B6B984708BD9A6A42F473
:1012600000729A621A68926802F46022B2F5602FE6
:1012700003D0184603F0FAF8EFE71A7B002AF8D1FA
:101280009A6A22F480729A629A6A12F4805FF0D1AC
:101290009A6A42F001029A62EBE708B5406A03F0ED
:1012A000D7F808BD704708B5406A836A43F0400329
:1012B0008362C36A43F00403C362FFF7F3FF08BD10
:1012C00030B482B00023019390F82430012B00F059
:1012D0008B800246012380F824304B68062B29D8E6
:1012E0000568686B03EB8303053B1F249C4020EAE1
:1012F00004000C6804FA03F303436B630B68092BC7
:1013000038D91568E86803EB43031E3B07249C406B
:1013100020EA04008C6804FA03F30343EB600B68D3
:10132000103B012B34D90020002382F8243002B076
:1013300030BC70470C2B0ED80568286B03EB830379
:10134000233B1F249C4020EA04000C6804FA03F3AA
:1013500003432B63D2E70568E86A03EB8303413B51
:101360001F249C4020EA04000C6804FA03F30343A2
:10137000EB62C3E71568286903EB430307249C402D
:1013800020EA04008C6804FA03F303432B61C6E7E8
:1013900013681648834205D0936A43F02003936292
:1013A0000120C1E7986810F4000F1BD1986840F441
:1013B000000098600B68102B01D00020B4E70C4BA4
:1013C0001B680C49A1FB03139B0C03EB830359001F
:1013D000019102E0019B013B0193019B002BF9D19C
:1013E0000020A1E700209FE70220A0E700240140A1
:1013F0002400002083DE1B4330B583B0002301931B
:1014000003689A6812F0010F33D19A6842F0010222
:101410009A60194B1B68194AA2FB03239B0C01938A
:1014200002E0019B013B0193019B002BF9D1044693
:10143000FFF7F0FE054623689B6813F0010F16D1F5
:10144000FFF7E8FE401B0228F5D923689B6813F0DC
:10145000010FF0D1A36A43F01003A362E36A43F0E3
:101460000103E362002384F82430012002E000201D
:1014700000E0002003B030BD2400002083DE1B43C9
:1014800090F82430012B6AD010B50446012380F86F
:101490002430FFF7B1FF024600285BD1A36A23F492
:1014A000407323F0010343F48073A36223682D4942
:1014B0008B4227D0A16A21F48011A162596811F4EE
:1014C000806F05D0A16A21F4405141F48051A1629E
:1014D000A16A11F4805F2BD0E16A21F00601E1627C
:1014E000002184F824106FF00201196023689968C4
:1014F00001F46021B1F5602F1DD0996841F480118D
:1015000099602AE0A1F58061496811F4702FD1D06B
:10151000A16A41F48011A1621349496811F4806FF6
:10152000D6D0A16A21F4405141F48051A162CFE7A5
:101530000021E162D4E70B498B4204D0996841F461
:10154000A001996009E0A1F58061496811F4702F4C
:10155000D3D1F3E7002384F82430104610BD0222D3
:1015600010467047002801400024014038B5036848
:101570009A6812F0010F01D1002038BD04469A6824
:1015800022F001029A60FFF745FE054623689B683A
:1015900013F0010F13D0FFF73DFE401B0228F5D9D1
:1015A00023689B6813F0010FF0D0A36A43F0100387
:1015B000A362E36A43F00103E3620120DDE7002058
:1015C000DBE7000000287FD038B50446836A002B93
:1015D00033D02046FFF7CAFFA36A13F010036DD182
:1015E00000286BD1A26A22F4885222F0020242F053
:1015F0000202A2626268E1690A43257B42EA45026F
:10160000A168B1F5807F21D001291CD0217D01295D
:101610001FD02568696821F469410B436B6021681C
:101620008D682A4B2B4013438B60A368B3F5807FF2
:1016300020D0012B1ED000211FE0C36280F824308F
:1016400002F022FFC5E74FF48073DFE74FF48073A9
:10165000DCE735B9A169013943EA413343F400635A
:10166000D7E7A16A41F02001A162E16A41F00101DE
:10167000E162CEE72369013B19052568EB6A23F493
:1016800070030B43EB6223689968114B0B409A423D
:101690000BD0A36A23F0120343F01003A362E36AA2
:1016A00043F00103E36201200DE00023E362A36A3B
:1016B00023F0030343F00103A36204E0A36A43F0B1
:1016C0001003A362012038BD01207047FDF7E1FF40
:1016D000FE0E1FFF70B582B00023019390F82430F6
:1016E000012B72D00446012380F82430FFF73EFF1F
:1016F0002046FFF781FE054628B1002384F82430F8
:10170000284602B070BDA36A23F4885323F0020375
:1017100043F00203A3622E4B1E68022000F0AEFFCE
:10172000B6FBF0F04000019002E0019B013B019309
:10173000019B002BF9D12268936843F00803936062
:10174000FFF768FD064623689A6812F0080F14D068
:10175000FFF760FD801B0A28F5D923689B6813F00A
:10176000080FF0D0A36A23F0120343F01003A36222
:10177000002384F824300125C2E79A6842F004026D
:101780009A60FFF747FD064623689B6813F0040F35
:1017900014D0FFF73FFD801B0A28F5D923689B680A
:1017A00013F0040FF0D0A36A23F0120343F01003E8
:1017B000A362002384F824300125A1E7A36A23F063
:1017C000030343F00103A36297E7022598E700BFF4
:1017D00024000020F0B58DB004460E461746302296
:1017E0000021684603F005FF94F82430012B65D0F2
:1017F000012384F82430324B00939B6803F4602368
:10180000B3F5602F0AD0A36A43F02003A36200233C
:1018100084F82430012528460DB0F0BD2046FFF79E
:10182000EBFD054600283BD0002D43D1A26A254B95
:10183000134043F48073A36223685B6813F4806FE2
:1018400005D0A36A23F4405343F48053A3620023DA
:1018500084F82430E362236A1B4A9A62236A1B4A93
:10186000DA62236A1A4A1A6323686FF002021A6066
:101870002268936843F48073936021683B46324644
:101880004C31206A00F008F92268936803F4602361
:10189000B3F5602F09D0936843F480139360BAE7DF
:1018A0006846FFF7A9FD0546BEE7936843F4A00329
:1018B0009360B0E7002384F82430ACE70225AAE760
:1018C00000280140FEFCEFFF491200089B120008AF
:1018D000A7120008034690F82420012A20D00122F4
:1018E00080F824200268906810F0010F07D10D489D
:1018F000806810F0010F02D10B48824208D09A6A2A
:1019000042F020029A620120002283F824207047CE
:10191000506820F470200968014351600020F3E70B
:10192000022070470028014000240140074AD36884
:1019300023F4E0631B041B0C000200F4E060184376
:1019400040F0BF6040F40030D060704700ED00E030
:1019500030B4174BDB68C3F30223C3F10704042C34
:1019600028BF04241D1D062D18D9033B4FF0FF3559
:1019700005FA04F421EA0401994005FA03F322EA86
:101980000303194300280BDB0901C9B200F16040D1
:1019900000F5614080F8001330BC70470023E5E794
:1019A00000F00F000901C9B2024B1954F4E700BF5F
:1019B00000ED00E014ED00E0002807DB00F01F025E
:1019C000400901239340024A42F82030704700BF8B
:1019D00000E100E00138B0F1807F0AD2064B586088
:1019E000064AF02182F823100020986007221A602E
:1019F00070470120704700BF10E000E000ED00E0FC
:101A000070B4066CC56B0124B4406C6004686360FC
:101A10004368102B05D0036899600368DA6070BCD6
:101A2000704703689A600368D960F8E760B310B440
:101A300002460168154B0B441548A0FB03031B0924
:101A40009B001364134BD363022382F82130086890
:101A500020F47F5020F03000536894682343D4680A
:101A60002343146923435469234394692343D4696A
:101A7000234303430B6000209063012382F821304D
:101A800082F8200010BC704701207047F8FFFDBFAE
:101A9000CDCCCCCC0000024038B590F82040012CD1
:101AA00033D0012480F8204090F82140E4B2012C8A
:101AB00004D0002380F82030022038BD04460220E4
:101AC00084F821000020A0632568286820F0010028
:101AD00028602046FFF794FFE36A5BB12268136831
:101AE00043F00E0313602268136843F00103136090
:101AF0000020E2E72268136823F0040313602268E1
:101B0000136843F00A031360EDE70220D5E790F86D
:101B10002130DBB2022B06D004238363002380F83C
:101B20002030012070470268136823F00E03136011
:101B30000268136823F001031360036CC16B012278
:101B400002FA03F34B6080F82120002380F8203054
:101B50001846704708B590F82130DBB2022B03D04D
:101B600004238363012008BD0268136823F00E0379
:101B700013600268136823F0010313600368194AB5
:101B8000934214D0143293421FD0143293421ED089
:101B9000143293421ED0143293421ED01432934218
:101BA00002D04FF0807203E04FF4801200E0012277
:101BB0000D4B5A60012380F82130002380F820303B
:101BC000436B6BB198470020CDE71022F0E74FF44C
:101BD0008072EDE74FF48052EAE74FF48032E7E796
:101BE0000020C0E7080002400000024038B5C36B87
:101BF0001A6804682568016C04238B40134235D0B1
:101C000015F0040F32D0236813F0200F03D123689E
:101C100023F0040323600368434A934214D0143230
:101C2000934218D01432934217D01432934217D0F3
:101C30001432934217D01432934202D04FF0806294
:101C400003E04FF4800200E00422384B5A60C36A7C
:101C500003B1984738BD4022F7E74FF48062F4E7BC
:101C60004FF48042F1E74FF48022EEE702238B40ED
:101C700013423CD015F0020F39D0236813F0200F27
:101C800006D1236823F00A032360012380F8213062
:101C90000368254A934214D0143293421CD0143264
:101CA00093421BD0143293421BD0143293421BD068
:101CB0001432934202D04FF0007203E04FF400124E
:101CC00000E00222194B5A60002380F82030836A1A
:101CD000002BBFD09847BDE72022F3E74FF40072F6
:101CE000F0E74FF40052EDE74FF40032EAE7082343
:101CF00003FA01F11142ADD015F0080FAAD0236804
:101D000023F00E032360026CC16B012303FA02F27D
:101D10004A60836380F82130002380F82030036B11
:101D2000002B97D0984795E708000240000002403A
:101D3000F0B482B000263246A2E0002D5AD0012D28
:101D400000D1CE68FF2B69D88446FF2B69D8950057
:101D5000DCF800400F27AF4024EA070406FA05F537
:101D60002C43CCF800404C6814F0805F00F0878072
:101D70005F4CA56945F00105A561A46904F0010463
:101D80000194019C9508AF1C5A4C54F8274002F06E
:101D90000307BF004FF00F0C0CFA07FC24EA0C0CF1
:101DA000554CA04243D004F58064A04200F08180ED
:101DB00004F58064A0427ED004F58064A04234D053
:101DC000042435E04D4FBD4214D00BD94C4FBD42D9
:101DD00010D007F58037BD420CD0A7F58017BD4263
:101DE000B0D107E0A7F58017BD4203D007F58037D3
:101DF000BD42A7D18D687DB1012D08D04461082670
:101E0000A0E7CE6808369DE7CE680C369AE70461F5
:101E1000082697E7002695E7042693E700F1040CCF
:101E200093E7A2F10805AD0092E7032400E0002447
:101E3000BC4044EA0C0402352E4F47F825404C685C
:101E400014F4801F39D02F4DAC681C43AC604C6833
:101E500014F4001F37D02B4DEC681C43EC604C6829
:101E600014F4003F35D0274D6C681C436C604C68FF
:101E700014F4803F33D0234D2C6823432B60013270
:101E80000B6833FA02F430D00124944023409C4282
:101E9000F5D14D68122DB7D094D8022DB1D07FF670
:101EA0004CAF032DB6D0112D7FF44CAFCE68043665
:101EB00048E70124BCE70224BAE7124DAC6824EAE3
:101EC0000304AC60C3E70F4DEC6824EA0304EC6044
:101ED000C5E70C4D6C6824EA03046C60C7E7094D44
:101EE0002C6824EA03032B60C9E702B0F0BC7047FA
:101EF00000100240000001400008014000002110D5
:101F000000003110000401408368194201D1002013
:101F100070470120704712B90904016170470161DF
:101F20007047000082B0084B1B68084AA2FB0323DD
:101F30005B0A00FB03F0019000BF019B5A1E019257
:101F4000002BF9D102B0704724000020D34D62105D
:101F5000002800F0F58170B582B00446036813F0E4
:101F6000010F2CD0AB4B5B6803F00C03042B1DD08E
:101F7000A84B5B6803F00C03082B12D06368B3F521
:101F8000803F41D0002B55D103F1804303F504334A
:101F90001A6822F480321A601A6822F480221A60C9
:101FA00037E09C4B5B6813F4803FE7D0994B1B688C
:101FB00013F4003F03D06368002B00F0C381236853
:101FC00013F0020F76D0934B5B6813F00C0F5FD0C9
:101FD000904B5B6803F00C03082B54D02369002B53
:101FE00000F08A808C4B01221A60FFF713F9054636
:101FF000884B1B6813F0020F75D1FFF70BF9401BDC
:102000000228F5D90320A0E1824A136843F4803303
:102010001360636843B3FFF7FDF805467D4B1B680B
:1020200013F4003FCBD1FFF7F5F8401B6428F5D936
:1020300003208AE1B3F5A02F09D0764B1A6822F469
:1020400080321A601A6822F480221A60E1E703F1F4
:102050008043A3F53C331A6842F480221A601A6860
:1020600042F480321A60D4E7FFF7D4F80546694B92
:102070001B6813F4003FA2D0FFF7CCF8401B642884
:10208000F5D9032061E1634B5B6813F4803FA5D170
:10209000604B1B6813F0020F04D02369012B01D0A1
:1020A000012052E15B4A136823F0F803616943EAB7
:1020B000C1031360236813F0080F32D0A369002B0B
:1020C0005BD0564B01221A60FFF7A4F80546514B2E
:1020D0005B6A13F0020F21D1FFF79CF8401B022826
:1020E000F5D9032031E14B4A136823F0F803616905
:1020F00043EAC1031360DDE7474B00221A60FFF794
:1021000089F80546434B1B6813F0020FD2D0FFF746
:1021100081F8401B0228F5D9032016E10120FFF7C2
:1021200001FF236813F0040F00F09880394BDB693E
:1021300013F0805F33D1374BDA6942F08052DA61B5
:10214000DB6903F080530193019B0125344B1B682D
:1021500013F4807F25D0E368012B36D0002B4CD1BF
:1021600003F1804303F504331A6A22F001021A6274
:102170001A6A22F004021A622CE0284B00221A602C
:10218000FFF748F80546234B5B6A13F0020FC8D0EF
:10219000FFF740F8401B0228F5D90320D5E00025C1
:1021A000D4E71F4A136843F480731360FFF732F8D3
:1021B00006461B4B1B6813F4807FCCD1FFF72AF82F
:1021C000801B6428F5D90320BFE0124A136A43F04C
:1021D00001031362E3687BB3FFF71CF806460D4B5F
:1021E0001B6A13F0020F38D1FFF714F8801B41F27D
:1021F00088339842F3D90320A7E0052B12D0054B72
:102200001A6A22F001021A621A6A22F004021A62A1
:10221000E0E700BF0010024000004242800442425A
:10222000007000404C4B1A6A42F004021A621A6AAB
:1022300042F001021A62CDE7FEF7ECFF0646464B7C
:102240001B6A13F0020F08D0FEF7E4FF801B41F277
:1022500088339842F3D9032077E0E5B9E369002B8E
:1022600072D03D4A526802F00C02082A56D0022B66
:1022700017D03A4B00221A60FEF7CCFF0446364BCB
:102280001B6813F0007F47D0FEF7C4FF001B022835
:10229000F5D9032059E0304AD36923F08053D36144
:1022A000DCE72E4B00221A60FEF7B4FF05462A4BEE
:1022B0001B6813F0007F06D0FEF7ACFF401B02281E
:1022C000F5D9032041E0236AB3F5803F1AD02249B3
:1022D0004B6823F47413226A606A024313434B6011
:1022E0001E4B01221A60FEF795FF04461A4B1B682D
:1022F00013F0007F0ED1FEF78DFF001B0228F5D9E9
:10230000032022E0144A536823F40033A1680B43EE
:102310005360DCE7002018E0002016E0012B16D007
:102320000D4B5B6803F48031226A914201D0012099
:102330000BE003F47013626A93420AD0012004E0B8
:1023400001207047012000E0002002B070BD012094
:10235000FBE70020F9E700BF0010024060004242A6
:102360000F4B5B6803F00C02082A16D1C3F38342BB
:102370000C498A5C13F4803F03D10B4800FB02F048
:102380007047074B5B68C3F340430849CB5C084880
:1023900000FB02F0B0FBF3F070470548704700BF48
:1023A00000100240D895000800093D00E89500089B
:1023B00000127A00002800F0A38070B50446524B4A
:1023C0001B6803F007038B420CD24F4A136823F0BB
:1023D00007030B431360136803F007038B4201D01C
:1023E000012070BD236813F0020F17D013F0040F03
:1023F00004D0464A536843F4E0635360236813F003
:10240000080F04D0414A536843F4605353603F4A75
:10241000536823F0F003A068034353600D4623681C
:1024200013F0010F31D06368012B20D0022B25D08F
:10243000364A126812F0020F64D034494A6822F01A
:10244000030213434B60FEF7E5FE06462F4B5B6825
:1024500003F00C036268B3EB820F16D0FEF7DAFECE
:10246000801B41F288339842F0D90320B9E7274A0C
:10247000126812F4003FE0D10120B2E7234A12684B
:1024800012F0007FD9D10120ABE71F4B1B6803F08E
:102490000703AB420CD91C4A136823F007032B43F4
:1024A0001360136803F00703AB4201D0012098E7E3
:1024B000236813F0040F06D0144A536823F4E06332
:1024C000E1680B435360236813F0080F07D00F4AED
:1024D000536823F46053216943EAC1035360FFF753
:1024E0003FFF0A4B5B68C3F30313094AD35CD84030
:1024F000084B1860084B1868FEF748FE002070E78C
:102500000120704701206CE70020024000100240CB
:10251000D0AB00082400002004000020014B186804
:10252000704700BF2400002008B5FFF7F7FF044BF9
:102530005B68C3F30223034AD35CD84008BD00BFE5
:1025400000100240E0AB000808B5FFF7E7FF044BBE
:102550005B68C3F3C223034AD35CD84008BD00BF05
:1025600000100240E0AB000870B582B0044603687A
:1025700013F0010F34D03E4BDB6913F0805F48D17C
:102580003B4BDA6942F08052DA61DB6903F0805339
:102590000193019B0125374B1B6813F4807F3AD0D0
:1025A000334B1B6A13F4407311D0626802F440721B
:1025B0009A420CD02E4A136A23F440702E49012609
:1025C0000E6000260E60106213F0010F37D1284A0A
:1025D000136A23F4407361680B431362002D3FD1EB
:1025E000236813F0020F06D0214A536823F44043B6
:1025F000A1680B435360236813F0100F35D01C4AB9
:10260000536823F48003E1680B435360002002B059
:1026100070BD0025BFE7174A136843F48073136049
:10262000FEF7F8FD0646134B1B6813F4807FB7D105
:10263000FEF7F0FD801B6428F5D90320E7E7FEF7DD
:10264000E9FD06460A4B1B6A13F0020FBFD1FEF7E5
:10265000E1FD801B41F288339842F3D90320D6E78D
:10266000D36923F08053D361BAE70020CFE700BFDE
:1026700000100240007000404004424208B50228A9
:102680004DD0102803D0012828D0002051E02D4B38
:102690005A681B6813F0807F4CD0C2F383432A49E9
:1026A000C85C12F4803F15D0264B5B68C3F34043EF
:1026B000264AD25C264BB3FBF2F300FB03F0214B1E
:1026C0005B6813F4800F34D14000224BA3FB003031
:1026D00040082EE0204B03FB00F0F0E7194B1B6A8B
:1026E00040F202321A40B2F5817F25D003F44073E4
:1026F000B3F5007F04D0B3F5407F09D0002018E087
:10270000104A526A12F0020FF5D049F6404010E02C
:102710000C4B1B6813F4003F11D1002009E0FFF7B8
:1027200013FF084B5B68C3F3813301335B00B0FBDD
:10273000F3F008BD0020FCE74FF40040F9E74FF24A
:102740002440F6E700100240EC950008FC950008D4
:1027500000127A00ABAAAAAA00093D0010B4036ACD
:10276000046A24F001040462846924F0F00444EA59
:10277000021223F00A030B438261036210BC70470C
:1027800010B4036A046A24F010040462846924F417
:10279000704444EA023223F0A00343EA0113826149
:1027A000036210BC7047836823F07003194341F043
:1027B000070181607047000090F83D30DBB2012BCB
:1027C00001D001207047022380F83D300268D368B1
:1027D00043F00103D3600368104A934210D0B3F171
:1027E000804F0DD0A2F59432934209D002F5806259
:1027F000934205D01A6842F001021A600020704727
:102800009A6802F00702062A05D01A6842F001020F
:102810001A60002070470020704700BF002C014064
:102820007047704770477047704770B5054603683A
:10283000DE681C6914F0020F10D016F0020F0DD0E4
:102840006FF002021A610123037703689B6913F09A
:10285000030F5ED0FFF7E6FF00232B7714F0040F81
:1028600012D016F0040F0FD02B686FF004021A611B
:1028700002232B772B689B6913F4407F4FD02846A7
:10288000FFF7D0FF00232B7714F0080F12D016F0BB
:10289000080F0FD02B686FF008021A6104232B7702
:1028A0002B68DB6913F0030F40D02846FFF7BAFF0F
:1028B00000232B7714F0100F12D016F0100F0FD04A
:1028C0002B686FF010021A6108232B772B68DB69E5
:1028D00013F4407F31D02846FFF7A4FF00232B7765
:1028E00014F0010F02D016F0010F2DD114F0800F5B
:1028F00002D016F0800F2FD114F0400F02D016F046
:10290000400F31D114F0200F02D016F0200F33D138
:1029100070BDFFF786FF2846FFF785FF9CE7284636
:10292000FFF77FFF2846FFF77EFFABE72846FFF75C
:1029300078FF2846FFF777FFBAE72846FFF771FFD1
:102940002846FFF770FFC9E72B686FF001021A6194
:102950002846FFF765FFC9E72B686FF080021A6110
:10296000284600F038F9C7E72B686FF040021A617B
:102970002846FFF759FFC5E72B686FF020021A6160
:10298000284600F027F9C3E703681F4A90420AD09F
:10299000B0F1804F07D0A2F59432904203D002F5F7
:1029A0008062904203D123F070034A681343164AB1
:1029B00090420AD0B0F1804F07D0A2F594329042F5
:1029C00003D002F58062904203D123F44073CA68B9
:1029D000134323F080034A69134303608B68C36287
:1029E0000B688362084B98420AD001234361036954
:1029F00013F0010F03D0036923F001030361704753
:102A00000B690363F1E700BF002C014038B310B538
:102A1000044690F83D30EBB1022384F83D30211D8F
:102A20002068FFF7B1FF012384F8463084F83E3078
:102A300084F83F3084F8403084F8413084F84230E4
:102A400084F8433084F8443084F8453084F83D30CD
:102A5000002010BD80F83C3001F080FDDCE7012053
:102A6000704710B4846824F47F4442EA03230B4384
:102A70002343836010BC704790F83C30012B73D027
:102A800010B50446012380F83C30022380F83D3025
:102A90000268936823F47F4323F0770393600B6805
:102AA000402B56D011D9702B3BD01FD8502B45D07E
:102AB000602B19D1CA6849680068FFF761FE602180
:102AC0002068FFF770FE002024E0102B04D009D905
:102AD000202B01D0302B07D119462068FFF763FE69
:102AE000002017E0002BF7D0012013E0B3F5805F42
:102AF0000FD0B3F5005FF7D1CB684A6889680068EA
:102B0000FFF7AFFF2268936843F48043936000208F
:102B100000E00020012384F83D30002384F83C309D
:102B200010BDCB684A6889680068FFF79AFF226881
:102B3000936843F0770393600020EBE7CA68496825
:102B40000068FFF70BFE50212068FFF72CFE0020E5
:102B5000E0E7CA6849680068FFF700FE4021206886
:102B6000FFF721FE0020D5E70220704790F83C30A7
:102B7000012B2BD030B4012380F83C30022380F8A5
:102B80003D3003685C689D6824F070040A68224345
:102B90005A6003680E4A93420AD0B3F1804F07D0BF
:102BA000A2F59432934203D002F58062934204D19D
:102BB00025F080054A6815439D60012380F83D306B
:102BC000002380F83C30184630BC70470220704724
:102BD000002C014070477047026802F10C0353E873
:102BE000003F23F0C0030C3242E800310029F3D14A
:102BF000202380F841307047026802F10C0353E84B
:102C0000003F23F490730C3242E800310029F3D1E5
:102C1000026802F1140353E8003F23F00103143269
:102C200042E800310029F3D1036B012B05D02023AA
:102C300080F84230002303637047026802F10C03FE
:102C400053E8003F23F010030C3242E80031002922
:102C5000F3D1ECE790F84130DBB2212B27D1836828
:102C6000B3F5805F16D0036A5A1C02621A780368B3
:102C70005A60C38C013B9BB2C384D3B90268D3684A
:102C800023F08003D3600268D36843F04003D3602D
:102C9000002070470369002BE5D1036A1B88026896
:102CA000C3F308035360036A02330362E1E70220BF
:102CB000704700207047000038B504460268136969
:102CC00023F44053C1680B431361836802691343C3
:102CD00042691A430168CB6823F4B05323F00C0314
:102CE0001343CB600268536923F4407381690B433B
:102CF00053610268124B9A421FD0FFF715FC00EB9C
:102D0000800000EB800063689B00B0FBF3F00D4D8A
:102D1000A5FB00325109642202FB11021301323378
:102D2000A5FB03235B0903F0F00202EB011203F0A1
:102D30000F03216813448B6038BDFFF705FCDEE705
:102D4000003801401F85EB5160B310B5044690F880
:102D5000413013B3242384F841302268D36823F42C
:102D60000053D3602046FFF7A7FF2268136923F4BE
:102D7000904313612268536923F02A035361226848
:102D8000D36843F40053D36000206064202384F8A8
:102D9000413084F84230606310BD80F8403001F06B
:102DA000FDFBD7E70120704738B590F84150EDB2F0
:102DB000202D30D1002930D00AB901202CE0134653
:102DC00004460162A284E28400224264212084F845
:102DD0004100A06B124D8562A06B124DC562A06BC5
:102DE000114D0563A06B426322680432A06BFEF7AD
:102DF00053FE23686FF040021A60226802F1140348
:102E000053E8003F43F08003143242E800310029C8
:102E1000F3D1002000E0022038BD0120FCE700BF14
:102E20002F2E0008972E0008A52E0008704708B521
:102E3000416A03681B6813F0200F1AD10023CB846A
:102E40000A6802F1140353E8003F23F080031432B0
:102E500042E800300028F3D10A6802F10C0353E87D
:102E6000003F43F040030C3242E800300028F3D129
:102E700008BD0846FFF7DAFFFAE708B50168CB6836
:102E800023F04003CB60202380F84130FFF7CEFFD2
:102E9000002008BD704708B5406AFFF7FBFF08BD7A
:102EA0007047704710B5446A23685A6994F84130F6
:102EB000DBB2212B10D023685A6902F0400294F84B
:102EC0004230DBB2222B11D0636C43F010036364F9
:102ED0002046FFF7E6FF10BD02F08002002AEAD08C
:102EE0000023E3842046FFF777FEE4E7002AEBD0D7
:102EF0000023E3852046FFF77FFEE5E708B5406A3B
:102F00000023C385C384FFF7CCFF08BD704790F84A
:102F10004230DBB2222B69D18368B3F5805F4ED09B
:102F2000826AB3F5805F04D0002B55D10369002B72
:102F300052D103685B681370836A01338362C38D67
:102F4000013B9BB2C385002B52D100B583B0026810
:102F5000D36823F02003D3600268D36823F480731E
:102F6000D3600268536923F001035361202380F882
:102F7000423000234363036B012B33D100230363EF
:102F8000026802F10C0353E8003F23F010030C32F7
:102F900042E800310029F3D103681A6812F0100FDB
:102FA00006D0002201921A6801925B680193019B8E
:102FB000818DFFF7ABFF002003B05DF804FB0269D1
:102FC000002AADD1826A03685B68C3F308031380EB
:102FD000836A02338362B2E703685B6803F07F03AE
:102FE0001370A9E7FFF75CFF0020E5E702207047B8
:102FF0000020704730B583B0044602681368D0687B
:10300000516913F00F0505D113F0200F02D010F015
:10301000200F5ED1002D72D011F0010102D110F409
:10302000907F6CD013F0010F06D010F4807F03D096
:10303000626C42F00102626413F0040F04D019B113
:10304000626C42F00202626413F0020F04D019B104
:10305000626C42F00402626413F0080F07D010F0B3
:10306000200F00D119B1626C42F008026264626CF8
:10307000002A55D013F0200F02D010F0200F2CD1D1
:1030800023685B6903F04003626C12F0080F00D103
:103090007BB32046FFF7B0FD23685B6913F0400F58
:1030A00023D0226802F1140353E8003F23F04003C9
:1030B000143242E800310029F3D1E36B8BB16A4A44
:1030C0005A63E06BFEF746FD50B3E06B436B9847E5
:1030D00026E02046FFF71BFF22E02046FFF717FF00
:1030E000CEE72046FFF7DDFE1AE02046FFF7D9FEC7
:1030F00016E02046FFF7D5FE0023636410E0216B45
:1031000001290FD013F0800F03D010F0800F40F092
:10311000A28013F0400F03D010F0400F40F09F80CA
:1031200003B030BD13F0100FECD010F0100FE9D049
:10313000002301931368019353680193019B536922
:1031400013F0400F4ED0E26B13685B689BB2002B0C
:10315000E6D0A18D9942E3D9E3859369202B37D03E
:10316000226802F10C0353E8003F23F480730C3211
:1031700042E800310029F3D1226802F1140353E838
:10318000003F23F00103143242E800310029F3D15B
:10319000226802F1140353E8003F23F04003143285
:1031A00042E800310029F3D1202384F84230002383
:1031B0002363226802F10C0353E8003F23F010035D
:1031C0000C3242E800310029F3D1E06BFEF79FFC9E
:1031D00002236363A18DE38DC91A89B22046FFF7EC
:1031E00095FE9DE7A18DE38DC91A89B2E38D9BB24F
:1031F000002B95D0002993D0226802F10C0353E8EC
:10320000003F23F490730C3242E800300028F3D1E1
:10321000226802F1140353E8003F23F00103143243
:1032200042E800300028F3D1202384F84230002304
:103230002363226802F10C0353E8003F23F01003DC
:103240000C3242E800300028F3D1022363632046A9
:10325000FFF75CFE64E72046FFF7FCFC60E72046D2
:10326000FFF70BFE5CE700BFFD2E000890F8413031
:1032700090F8420018437047104B1B78EBB90021BF
:1032800012E041F2210080EA43039BB20132072A97
:1032900005D813F4004FF4D15B009BB2F6E7084A5F
:1032A00022F81130013189B2FF2903D80B029BB2F9
:1032B0000022ECE7014B01221A707047180200202F
:1032C000FC1E002070B505460E4614460A4B1B78BE
:1032D0006BB9FFF7D1FF0AE0337883EA152307497A
:1032E00031F9130080EA052085B201361446621ECA
:1032F000002CF1DC284670BD18020020FC1E0020C6
:103300000D4BDA6822F08072DA60DA6842F080727F
:10331000DA600A4B1A6822F001021A601A6842F059
:1033200001021A6000225A6000BF00BF00BF586847
:10333000B0FA80F040097047F0ED00E0001000E0C6
:1033400008B50449FDF7AEFC4FF06651FDF7AAFC45
:1033500008BD00BF3333534010B502281BD00328EB
:1033600025D001280BD0184C002280212046FEF7E2
:10337000D2FD012240212046FEF7CDFD10BD124CAA
:10338000012280212046FEF7C6FD01224021204671
:10339000FEF7C1FDF2E70C4C002280212046FEF72B
:1033A000BAFD002240212046FEF7B5FDE6E7064CB7
:1033B000012280212046FEF7AEFD0022402120465A
:1033C000FEF7A9FDDAE700BF0008014038B5044662
:1033D0001B49FDF705FEA0B94FF07E512046FDF7D1
:1033E0001DFE08B14FF07E54164B1C601649204656
:1033F000FDF758FC4FF07C51FDF754FC05460024C6
:103400001BE00F4CF0E72046FDF7F4FB0F49FDF7FA
:1034100049FC04F0F9FE4FF07E51FDF73BFB2946D5
:10342000FDF740FC4FF07C51FDF734FB04F0A8FEA3
:10343000FDF7FEFD064B185501343F2CE3D938BD8E
:10344000000080BF2000002000007F43DB0FC93D4B
:10345000E819002008B50848FEF712F84FF480720A
:1034600006490748FEF7B6F9064B12221A600648CD
:10347000FFF7A2F908BD00BFC4160020FC20002001
:1034800094160020281A00207C1700202DE9F04F08
:1034900085B00546029193469A46DDF83890184665
:1034A000FDF7A8FB01464FF08040FDF7AFFC03900D
:1034B00000273AE00136009B01930090564512D256
:1034C00055F824800099D9F80400FDF7EBFB01467C
:1034D0004046FDF7DFFA0199FDF7DAFA0134A3451A
:1034E000E8D80024E6E7009C2146D9F80C00FDF757
:1034F000D9FB0199FDF7CCFA064604F10040D9F852
:103500000810FDF7CFFB8046029B03EBC704314652
:10351000039E3046FDF7C6FB029B43F83700414649
:103520003046FDF7BFFB606001375F4505D23C4682
:103530000026002301930093C0E705B0BDE8F08F9B
:10354000F8B504460E460C493046FDF7ABFB07467E
:1035500004F0DAFD0546384604F056FE07462660BC
:1035600029462846FDF796FA6060E560A7600023CB
:1035700023616361F8BD00BFDB0FC94038B5054664
:10358000046838492046FDF72BFD002831D1364923
:103590002046FDF725FD002833D134492046FDF7AC
:1035A0001FFD002835D132492046FDF719FD0028BE
:1035B00037D14FF07E512046FDF712FD002838D15B
:1035C0002C492046FDF70CFD002848D12A49204609
:1035D000FDF706FD002834D128492046FDF700FDFF
:1035E000002835D021492046FDF75CFB28600220E9
:1035F00036E023492046FDF755FB28606FF00400B4
:103600002EE020492046FDF74DFB28606FF00300B7
:1036100026E01A492046FDF745FB28606FF00200BE
:103620001EE015492046FDF73DFB28606FF00100C4
:1036300016E010492046FDF735FB28604FF0FF30BB
:103640000EE00B492046FDF72DFB2860012007E026
:1036500005492046FDF726FB2860032000E00020F6
:1036600038BD00BFCCBC8C2B5F708930BD37863530
:103670006F12833A00007A4400247449286B6E4E1E
:10368000A95F6358A5D46853F0B4C00800252DE0A5
:10369000191901261A4F7E541A4F7E540133834262
:1036A00023D2032AFAD801A151F822F0913600085A
:1036B000BD360008CD360008DB3600081919104E5B
:1036C000012777540F4EFF277754E7E71919FF2694
:1036D0000B4F7E540B4F7E54E0E71919084EFF271D
:1036E0007754084E01277754D8E70135072D05D8C0
:1036F00005F0030200FB05F40023D0E7F0BC70479F
:1037000054180020D418002010B50446642808D0AE
:10371000B0F5FA7F09D04FF07E50FFF757FE44B95D
:1037200010BD0C48FFF752FEF9E70B48FFF74EFEBD
:10373000F5E7A401FEF7F2FE084A53680133B0FB37
:10374000F3F303EB5403B3FBF4F4013C1368DC62C2
:10375000D460E5E7B81E053F52B81E3F7C17002035
:103760002DE9F04781468A4690460C4600263746AA
:103770001AE059F824501F4B1857FDF73FFA294615
:10378000FDF790FA01463846FDF784F907461A4BD3
:103790001857FDF733FA2946FDF784FA01463046FB
:1037A000FDF778F9064601344445E2D3A8EB0A0058
:1037B000FDF720FA01461148FDF728FB04460146B3
:1037C0003846FDF76FFA054621463046FDF76AFA9E
:1037D000044600212846FDF7F9FB10B10848BDE872
:1037E000F0872946204604F04DFD0649FDF75AFAB8
:1037F000F5E700BF54180020D4180020DB0FC93FA4
:103800000000C07FE12E65422DE9F04385B04FF006
:10381000000939E02146039804F034FD2F49FDF7F3
:1038200041FA2F49FDF736F92E4904F02DFD47E006
:103830002D4B03EBC40393E8030004AB03E903003F
:10384000029D29462846FDF72DFA074603990846AA
:10385000FDF728FA01463846FDF71CF901463046C7
:10386000FDF718F9064648F8245001347F2CDFD9BB
:103870004FF070513046FDF715FA04F063FD1B4B15
:1038800043F8290009F10109B9F1070F1ED8184BB7
:1038900003EB4928144C174B009340238022214608
:1038A0004046FFF7F3FD94E8030004AB03E903008F
:1038B000029C00212046FDF789FB0028AAD00E4873
:1038C0000E4B43F8290000240026CFE70C4A13686A
:1038D0000133136005B0BDE8F08300BFE12E6542FF
:1038E000000087430000B443FC2400200C18002093
:1038F000200200207C1600200000C07F301800202D
:103900001C0200202DE9F04782B080468A4691468D
:103910000025009501950124002722E008F001060A
:1039200004EB86061E4B53F826102846FDF7B2F826
:1039300005461C491C4B53F82600FDF7B3F9064613
:1039400004F0E2FB01460098FDF7A4F80090304631
:1039500004F05AFC01460198FDF79CF801900137EC
:103960000234032CDAD93846FDF744F901462846DB
:10397000FDF74CFACAF80000009C00212046FDF734
:1039800025FB28B10948C9F8000002B0BDE8F0875E
:103990002146019804F076FC0549FDF783F9F2E72A
:1039A0000C18002035FA8E3C301800200000C07F33
:1039B000E12E65422DE9F04784B000230393029382
:1039C00001930093FFF720FF02AA03A90020FFF74D
:1039D00099FF6A4601A90120FFF794FF012470496D
:1039E000704B1868FDF706FB00B90024A1466E4B2A
:1039F0001C60A400A21C012769496A4B53F82200ED
:103A0000FDF7F8FA00B90027BA46684B1F60654E0B
:103A100056F82400FFF794FC8046654D6860631CEF
:103A200056F82300FFF78CFCA860BF00BB1C56F8BB
:103A30002300FFF785FC0446E860FB1C56F82300D2
:103A4000FFF77EFC286121464046FDF7DFF9B9F11A
:103A5000000F02D05749FDF7D9F9BAF1000F40F035
:103A60009B805549FDF71EF9514CE063534E0021F0
:103A70003180534D802205EB4720FFF771FE8046D1
:103A80004A4F3868800002308022B6F9001005EBFA
:103A90004020FFF765FE01464046FCF7F9FF6061F4
:103AA0003868800002308022B6F9001005EB402013
:103AB000FFF756FE80463868800003308022B6F952
:103AC000001005EB4020FFF74BFE01464046FCF797
:103AD000DFFF20F000403B49FCF7DAFF0146A06120
:103AE000606920F0004021F00041FCF7D1FF20F098
:103AF0000045E561344B1888FDF780F83349FDF740
:103B0000D1F8804632492846FDF7CCF80746E56BE8
:103B100004F0FAFA20F000412846FDF7C3F8064603
:103B2000384604F071FB20F000412846FDF7BAF852
:103B300007464146FDF76AF9814639464046FDF79A
:103B4000B1F801464FF07E50FDF760F980463146EE
:103B50002846FDF7A7F83946FDF758F9C4F8249030
:103B6000C4F82080A5622664606404F12000FFF799
:103B700005FDE06204F12400FFF700FD206304F17D
:103B80002800FFF7FBFC606304F14000FFF7F6FC40
:103B9000A06304B0BDE8F0870E49FDF783F863E742
:103BA000000048420C1800207C1A00202416002037
:103BB0002C1A00200000CA4277BE5F3F5018002038
:103BC00020020020000034435C190020DB0FC940B4
:103BD00035FA8E3C1A6FCD422DE9F047474B1D68F0
:103BE000032D1ED80446464B53F825604FEA46087D
:103BF00015B9444B1B68B3B1434B1B685B08B3EB6F
:103C0000560F19D00A273F4BD3F800C0BC452ED21F
:103C10000CF101033B4A13603C4A12683A44934258
:103C200027D2BDE8F0873046FFF796FB012220211E
:103C30003748FEF770F9DFE70427E4E704EB830E6B
:103C400034F92310A1F50060324A52F833100144D0
:103C500042F83310BEF90210A1F5006002EBC30276
:103C600051680144516001337F2BE7D9D0E700232D
:103C7000FAE70135224B53F82500FFF76DFB214B86
:103C80001868C01BFCF7B6FF01464FF07E50FDF7E9
:103C9000BDF88146204B03EB482A08F1010803EBED
:103CA0004828002414E01B4F57F83400FCF7A6FF07
:103CB0004946FCF7F7FF4AF8240007EBC407786889
:103CC000FCF79CFF4946FCF7EDFF48F8240001345F
:103CD0007F2CE8D94FF4806200210E4801F089FC66
:103CE000084B00221A60084B1E60044B1D60032D18
:103CF00097D920210648FEF70EF992E7781A00209E
:103D0000C0AB0008201600201C0000201800002076
:103D100000080140201200202002002038B50C4687
:103D20001546042802D0022837D038BD274920463E
:103D3000FDF756F998B926492046FDF751F9C0B963
:103D400024492046FDF74CF9E8B12046FCF76CFB0E
:103D500002460B462049284602F070F9E5E7204666
:103D6000FCF762FB02460B461C49284602F066F946
:103D7000DBE72046FCF758FB02460B46184928466D
:103D800002F05CF9D1E72046FCF74EFB02460B46F9
:103D90001449284602F052F9C7E70C492046FDF7BE
:103DA0001FF948B92046FCF73FFB02460B460E4977
:103DB000284602F043F9B8E72046FCF735FB0246F7
:103DC0000B460A49284602F039F9AEE700002041C7
:103DD0000000C84200007A44A0AB000890AB000885
:103DE00098AB0008A8AB0008B8AB0008B0AB00085F
:103DF00008B501F019FA01F0D1F8012001F098F8A6
:103E000001F0A6F84FF49670FDF70AFA002001F0D1
:103E10008FF801F09DF808BD38B50021084601F083
:103E2000D7F91C4C012394E806001B4801F0B8F9AF
:103E300000215A2001F0CCF9184D0022184B1949E5
:103E4000284602F0FBF8012394E80600284601F01A
:103E5000A7F90E21102001F0BBF9134A012306CA6D
:103E6000124801F09DF92621052001F0B1F9012346
:103E700094E806000E4801F093F93421052001F082
:103E8000A7F9012394E806000A4801F089F901F036
:103E90005FF838BD10000020C8AA000828160020CE
:103EA0000000D03FD0AA000808000020D8AA0008CF
:103EB000E4AA0008F4AA000870B50546B84B1B68D0
:103EC00003B188B3002001F033F80021012001F094
:103ED0007FF9B44C012394E80600B34801F060F97F
:103EE00000213B2001F074F9012394E80600AF485B
:103EF00001F056F900215C2001F06AF9AC4E002275
:103F0000AC4BAD49304602F099F8012394E8060025
:103F1000304601F045F9A94B1B68013B012B00F22B
:103F2000DA809F4B00221A60A54B1B68032B02D836
:103F3000002D00F089810021242001F049F9A14BD6
:103F40001888FCF75BFEA049FCF7ACFEFCF76CFAA6
:103F5000974C02460B469D49204602F06FF8914A65
:103F6000012306CA204601F01BF9944B1B68012B64
:103F700000F04481022B00F07F81924BD3F8023095
:103F8000012B00F0E080002B00F0D480022B00F029
:103F9000E38000261021012001F01AF98C4A012348
:103FA00006CA834801F0FCF8864BD3F80230012B97
:103FB00000F0E280002B00F0D880022B00F0E380BC
:103FC00014214F2001F004F9764D794C012395E836
:103FD0000600204601F0E4F81021162001F0F8F860
:103FE000224631460420FFF799FE794A012306CA8A
:103FF000204601F0D5F81421682001F0E9F8754E4B
:104000002246F1690420FFF789FE012395E80600A6
:10401000204601F0C5F82821142001F0D9F8746871
:1040200000212046FCF7F0FF002800F0B380204676
:10403000FCF7FAF902460B465D4C6749204601F051
:10404000FDFF584A012306CA204601F0A9F828219D
:104050004B2001F0BDF85F4BDC6800212046FCF7E7
:10406000D3FF002800F099802046FCF7DDF90246D6
:104070000B464F4C5849204601F0E0FF494A0123C6
:1040800006CA204601F08CF84E4BD3F80230012BC3
:1040900000F2C7803521142001F09AF84D4E2246D7
:1040A000316C0420FFF73AFE3E4D012395E80600EF
:1040B000204601F075F835214B2001F089F82246A1
:1040C000716C0420FFF72AFE012395E806002046C4
:1040D00001F066F8A5E02821012001F079F801231C
:1040E00094E806003D4801F05BF828213E2001F0ED
:1040F0006FF8012394E80600394801F051F8314B7C
:10410000D3F80230012B3FF60CAF3521012001F02E
:104110005FF8012394E80600324801F041F83521A8
:104120003E2001F055F8012394E806002E4801F0E6
:1041300037F8F6E61E4A2D4B1B6813801B0C937054
:10414000244B5E6A26E71A4A294B1B6813801B0C16
:104150009370204B1E6A1DE7154A264B1B6813807F
:104160001B0C93701B4B9E6A14E71A4B1A6B224967
:104170000F4801F063FF23E7164BDA6A1E490C482B
:1041800001F05CFF1CE7134B5A6B1B49084801F018
:1041900055FF15E7002200234EE70022002368E7C1
:1041A000781600201000002010AB000814AB0008A7
:1041B000281600200000D03FD0AA00082C180020AC
:1041C000781A00205C1900206F12833A28AB00088F
:1041D000080000202C1A002090AB000818AB000843
:1041E0001CAB000820AB000824AB000830AB000873
:1041F00034AB000838AB00083CAB0008294B1A6808
:10420000294CC2F109022949204601F017FF10216B
:10421000012000F0DDFF264A012306CA204600F0F7
:10422000BFFF3521742000F0D3FF224B9B79002B78
:1042300036D021491C4C204601F000FF1C4A0123C6
:1042400006CA204600F0ACFF2821742000F0C0FF11
:10425000154C1A4B1A681A49204601F0EFFE144A11
:10426000012306CA204600F09BFF00F071FE154AAC
:1042700013680133136070BD0A4B1A680A4CC2F10F
:1042800009021149204601F0D9FE1021012000F059
:104290009FFF074A012306CA204600F081FFC0E7BE
:1042A0000A49C7E7801A00202816002040AB000802
:1042B000100000205C19002008AB00082C1A002018
:1042C00068AB00087816002054AB00080CAB00085F
:1042D00070B50D461446FCF79DFF064600E030BF62
:1042E000A2B229460548FEF75FFD022804D1FCF77B
:1042F00091FF801B6328F2D9204670BDC4170020AF
:1043000008B572B6012220210148FDF704FEFEE740
:1043100000080140FEE7000008B572B60122202126
:104320000148FDF7F8FDFEE700080140FEE7FEE763
:10433000FEE770477047704770B5FCF75FFFFCF70A
:1043400069FF0646002410E06B1E1BB222E000232A
:1043500025E00AB1002B36DD32B1B21A04EB84033A
:1043600099001F4B0B441A610134022C37D804EB1F
:10437000840293001A4AD0580028F5D01946184BE9
:104380000B44B3F906509988FDF7BEFD0028DBD138
:104390006B1C1BB2002BDADB322BA8BF3223A1002F
:1043A0002144880001460E4A0244D3809268002AC4
:1043B000CFD1312BCDDD0D460949294400200873AA
:1043C00008618E60C5E7B01AA10021448D00044B3E
:1043D0002B4418610121197300219960BCE770BD5D
:1043E0003C16002008B50248FDF700FC08BD00BFE0
:1043F000F416002008B50248FDF7F8FB08BD00BF21
:104400003817002008B50A48FEF70FFA094B1B6859
:10441000094AD25C0948C16821F0FF010A43C26021
:1044200001333F2B00D90023024A136008BD00BFAF
:104430007C170020281A0020E8190020000C0140F9
:1044400008B50248FEF7D6FD08BD00BFC41700201E
:1044500008B50268034B9A4200D008BD0248FFF736
:10446000BBFBFAE700240140FC20002008B50268ED
:10447000034B9A4200D008BD0248FFF7ADFBFAE7B4
:1044800000240140FC22002070B588B004460023BF
:10449000049305930693079302682B4B9A4205D029
:1044A00022682A4B9A4242D008B070BD03F56C4393
:1044B0009A6942F400729A619A6902F40072019258
:1044C000019A9A6942F004029A619B6903F004031D
:1044D0000293029B0323059308AD012345F8103D89
:1044E0001B4E29463046FDF723FC02230493294640
:1044F0003046FDF71DFC1748174B0360002343604F
:1045000083608023C3604FF4007303614FF4006342
:104510004361202383614FF44053C361FDF786FA62
:1045200018B90C4B23625C62BAE7FFF7E9FE03F5AA
:1045300068439A6942F480629A619B6903F48063DC
:104540000393039BB0E700BF002401400028014013
:1045500000080140F41600200800024002680E4BDB
:104560009A4200D0704700B583B003F50333DA698F
:1045700042F00202DA61DB6903F002030193019B5E
:10458000002211461D20FDF7E3F91D20FDF714FA66
:1045900003B05DF804FB00BF00040040F0B587B035
:1045A000002302930393049305930268274B9A42D6
:1045B00001D007B0F0BD044603F558439A6942F4B0
:1045C00080429A619A6902F480420092009A9A6944
:1045D00042F004029A619B6903F004030193019B7A
:1045E00002230393059306AE4FF4007346F8103D83
:1045F000174F31463846FDF79BFB002503950123F5
:1046000004934FF48063029331463846FDF790FBE4
:104610001048114B03601023436085608023C36002
:10462000056145618561C561FDF700FA58B9094B1F
:10463000A3635C6200220A212520FDF789F9252069
:10464000FDF7BAF9B5E7FFF75BFE00BF00380140A0
:1046500000080140381700204400024000B595B022
:1046600000230C930D930F931093059306930793D8
:1046700008930993019302930393049301220A92EE
:104680004FF480330B930E920222119212934FF447
:10469000E01313930AA8FDF75BFCC8B90F23059339
:1046A00002210691002307934FF480620892099338
:1046B00005A8FDF77FFE68B9022301934FF400437C
:1046C000039301A8FDF750FF30B915B05DF804FB66
:1046D000FFF716FEFFF714FEFFF712FE08B50A48B3
:1046E0000A4B03604FF46123436000238360C3607F
:1046F00003610C2242618361C361FEF725FB00B9AF
:1047000008BDFFF7FDFD00BFC417002000380140C1
:1047100070B584B000230193029303932C482D4A73
:1047200002608360037303754FF40022C26143602B
:1047300001230361FCF746FF00283BD104A94FF495
:10474000C02341F8103D2248FDF7C4F8002833D1BA
:1047500000230193012302930623039301A91C481C
:10476000FCF7AEFD50BB1C4E34461C4B44F8043BDA
:104770001B4D0FCD0FC495E8070084E80700012307
:1047800033734FF46023F3613046FCF71BFFB8B975
:1047900004A9012341F80C3D0F48FCF791FD88B9AD
:1047A0000B48FCF797FF78B90B48FCF793FF68B903
:1047B00004B070BDFFF7A4FDFFF7A2FDFFF7A0FD59
:1047C000FFF79EFDFFF79CFDFFF79AFDFFF798FDB1
:1047D0009416002000240140C41600200028014047
:1047E0009816002000B583B00E4B5A6942F00102C2
:1047F0005A615B6903F001030193019B00220121CF
:104800000B20FDF7A5F80B20FDF7D6F800220A21B2
:104810000E20FDF79DF80E20FDF7CEF803B05DF8F1
:1048200004FB00BF0010024010B586B000230293C5
:10483000039304930593009301931A4C1A4A226040
:10484000A36023618022A2616360FDF767FE636855
:104850000133B0FBF3F303F5FA431448A0FB032341
:104860001B0B013BE3602046FEF7D0F898B906A980
:104870004FF4805341F8103D0A48FEF7FDF860B947
:10488000202300930023019369460648FEF76EF942
:1048900028B906B010BDFFF733FDFFF731FDFFF774
:1048A0002FFD00BF7C17002000040040D34D621094
:1048B0002DE9F04F87B000250295039504950595E5
:1048C000554B9A6942F004029A619A6902F0040217
:1048D0000092009A9A6942F008029A619B6903F07B
:1048E00008030193019B012220214C48FDF713FB93
:1048F0002A4680214948FDF70EFB01224021474806
:10490000FDF709FB2A4604214448FDF704FB2A462B
:104910004FF480714148FDF7FEFA414CE36823F003
:10492000FF03E3600127039704954FF0020BCDF8D6
:1049300014B04FF02009CDF8089002A93748FDF7D0
:10494000F7F94FF04008CDF8088002A93348FDF789
:10495000EFF98026029602A93048FDF7E9F94FF0F9
:10496000040ACDF808A002A92C48FDF7E1F94FF49C
:104970008073029302A92948FDF7DAF90395049799
:104980004FF40053029302A92046FDF7D1F94FF4EA
:104990008043029302A92046FDF7CAF94FF4004371
:1049A000029302A92046FDF7C3F903970495032358
:1049B0000593029702A92046FDF7BAF9CDF808B091
:1049C00002A92046FDF7B4F9CDF808A002A92046B7
:1049D000FDF7AEF9082302930DEB03012046FDF726
:1049E000A7F91023029302A92046FDF7A1F9CDF8FB
:1049F000089002A92046FDF79BF9CDF8088002A98E
:104A00002046FDF795F9029602A92046FDF790F998
:104A100007B0BDE8F08F00BF001002400008014061
:104A2000000C014008B5354B1B7B8BB1334B00228A
:104A30001A739A601B69B3F5487F23D2304A937981
:104A4000C3F1010303F0010393710120FFF734FA6E
:104A50002A4B93F82030002B31D0284B002283F8CA
:104A60002020DA615B6AB3F5487F14D2244B1B889F
:104A7000642B19D0B3F57A7F3CD0214B4FF47A7276
:104A80001A8015E0642200211E4800F0B2FD1E4B82
:104A900001221A60D9E7642200211A4800F0A9FD1A
:104AA000194B02221A6007E0154B4FF4FA721A8074
:104AB000134B1888FEF728FE0120FFF7FDF90F4B76
:104AC00093F83430ABB10D4B002283F834201A63D5
:104AD0009B6BB3F5487F09D2094BD3F80230013301
:104AE000022B00D91346064AC2F802300120FFF714
:104AF000E3F908BD024B64221A80D9E73C16002076
:104B00005C190020801A00202C180020F8B5AB4A50
:104B1000516AC1F3C061AA4B1970516AC1F3806137
:104B20005970516AC1F300719970516AC1F34071B3
:104B3000D970516AC1F380711971516AC90F5971E5
:104B4000526AC2F340029A7101269E4B1E609E4C2F
:104B500023680021586801F0BBF923680021986898
:104B600001F0B6F923680021D86801F0B1F9974B3C
:104B7000974A1A604FF4005199805A614FF480416E
:104B800019839A624FF400429A85924C4FF47A75D9
:104B90002580022363800023A380A671FEF7B0FB6B
:104BA000FCF71AFBFFF75AFDFFF782FEFFF71AFE2C
:104BB000FFF794FDFFF738FEFFF7AAFD4FF07251A3
:104BC0008548FEF7BDFC854B1A68854B53F82200DB
:104BD000844B1860FEF7C0FB2088FEF795FD80200F
:104BE000FEF752FDFFF704F9FFF716F900227E4B9E
:104BF0007E4801F055F9FEF72DFC2846FCF710FB26
:104C000011E0FEF7D7FE0020FFF756F9714B9B79B4
:104C10001BBB774B1B68012B51D0022B00F0CB80C4
:104C20006E4B00221A60BFF34F8F30BFFFF7FAFEC2
:104C30006C4A1468694B1868694951F82010116072
:104C40001B68032BDDD8A142EDD06A4B1B68002BFB
:104C5000E9D00020FFF730F9E5E76748FEF706FBEB
:104C60002028D6D1654C6FF0690323701923637037
:104C70006222A270E370A51D4FF48056324660494F
:104C8000284600F0ABFC324629460020FEF71AFB0E
:104C9000A08041F2060221465748FEF785F8B8E7A2
:104CA000584D05EB8405584B53F824106868FBF702
:104CB000F1FE68600134072CF2D900251CE00024C5
:104CC000F9E75249524B53F82500FBF7EBFF064634
:104CD00003F01AFA2B1D4B4C04EBC3040146606829
:104CE000FBF7D8FE6060304603F08EFA0146A068FC
:104CF000FBF7D0FEA0600135072DE2D9414B1E68BD
:104D000001361E60092E8BD900240FE0A5003D4B13
:104D10002B445F683046FBF76DFF01463846FCF7D1
:104D200075F82C4B2B44C3F807000134072CEDD940
:104D3000002412E0231D334A02EBC303294698687E
:104D400003F0A0FA3349FBF7ADFF04F10802214B51
:104D500003EB8203C3F807000134072C0CD8231D92
:104D6000284A02EBC3035D6800212846FCF72EF9B0
:104D70000028DFD02848E8E70124164B83F8474095
:104D8000642200211F4800F034FC194B00221A60F5
:104D90002046FFF791F843E71A4D05EB84051A4BBF
:104DA00053F824106868FBF775FE68600134072C1F
:104DB000F2D900254DE00024F9E700BF00100240C1
:104DC00054190020E0044242280000203C16002034
:104DD000000C01405C1900207C160020781A00208D
:104DE000C0AB00082C1A00200000D03F6CAB0008BC
:104DF0002C18002078160020C4170020FC28002062
:104E000020020020801A00200C18002035FA8E3C69
:104E100030180020E12E65420000C07F3549364B36
:104E200053F82500FBF73EFF064603F06DF92B1DF6
:104E3000324C04EBC30401466068FBF72BFE606054
:104E4000304603F0E1F90146A068FBF723FEA060BD
:104E50000135072DE2D9294B1D6801351D60092D4B
:104E60007FF6DEAE002410E0244B03EB84035E6883
:104E70002846FBF7BFFE01463046FBF7C7FF04F1AB
:104E800012021F4B43F822000134072CECD90024F6
:104E900010E0231D194A02EBC3032946986803F06A
:104EA000F1F91849FBF7FEFE04F11A02144B43F81E
:104EB00022000134072C0CD8231D104A02EBC30337
:104EC0005D6800212846FCF781F80028E1D00E48F3
:104ED000EAE701240A4B83F888406422002107484E
:104EE00000F087FB094B00221A602046FEF7E4FF22
:104EF00096E600BF35FA8E3C30180020801A00205C
:104F00005C190020E12E65420000C07F2C180020B3
:104F100010B582B000248DF804408DF805000222FF
:104F200001A9782000F0C7FA204602B010BD0000A9
:104F3000002303E0FF21054AD1540133B3F5806F0C
:104F400003D20028F6D10021F5E77047EC1A0020C3
:104F500010B5A2B040238DF80430002418E0A4F16D
:104F60005000C0B2FFF7D4FF0020FFF7D1FF1020A0
:104F7000FFF7CEFF8022084901EBC4110DF10500B7
:104F800000F02CFB812201A9782000F094FA013472
:104F9000072CE4DD22B010BDEC1A002010B564200F
:104FA000FCF73EF9AE20FFF7B3FF04462020FFF7E1
:104FB000AFFF04441020FFF7ABFF0444B020FFF71D
:104FC000A7FF0444C820FFF7A3FF04440020FFF715
:104FD0009FFF04441020FFF79BFF04444020FFF78D
:104FE00097FF04448120FFF793FF0444FF20FFF75D
:104FF0008FFF0444A120FFF78BFF0444A620FFF796
:1050000087FF0444A820FFF783FF04443F20FFF7F5
:105010007FFF0444A420FFF77BFF0444D320FFF765
:1050200077FF04440020FFF773FF0444D520FFF707
:105030006FFF0444F020FFF76BFF0444D920FFF713
:1050400067FF04442220FFF763FF0444DA20FFF7E0
:105050005FFF04441220FFF75BFF0444DB20FFF7EF
:1050600057FF04442020FFF753FF04448D20FFF72F
:105070004FFF04441420FFF74BFF0444AF20FFF719
:1050800047FFE04201D0012010BD0020FFF750FF94
:10509000FFF75EFF034B00201880588001225A71F1
:1050A000F2E700BFE41A002010F0800F15D13F296D
:1050B00013D8104B1B7913B1B2FA82F25209012AAC
:1050C0000CD0CB0800EBC31001F0070101238B408B
:1050D000094A115C21EA030111547047CB0800EB27
:1050E000C31001F0070101238B40034A115C1943EF
:1050F00011547047E41A0020EC1A00202DE9F04FFB
:1051000083B002AC04E90600244A12889DF80060CE
:1051100032447F2A3CDC214A52889DF801A0D346C4
:1051200052443F2A38DC9846814600251FE01B4B3D
:105130001888598829442044B8FA88F25209C9B21B
:10514000C0B2FFF7B1FF0134A6420FD907FA04F34A
:1051500013F4004FEBD0114B188859882944204490
:105160004246C9B2C0B2FFF79FFFECE70135AA453E
:1051700008D9A9F1200303FB0B53019A32F81370ED
:105180000024E1E7054B1A8816441E80484600E0DB
:10519000002003B0BDE8F08F0020FAE7E41A0020F9
:1051A00070B582B0054602A800E906001E462C78BC
:1051B0005CB1334602AA12E906002046FFF79EFFC3
:1051C0002C78A04201D10135F1E7204602B070BD34
:1051D000014B188059807047E41A002000F0D2F982
:1051E0000B480C490C4A002302E0D458C450043345
:1051F000C4188C42F9D3094A094C002301E013601A
:105200000432A242FBD300F0C5F9FFF77FFC7047E0
:1052100000000020FC010020B8B20008FC010020C2
:1052200008390020FEE7000010B584B00023009389
:105230000193029303930F4C012208212046FCF7AF
:105240006AFE012210212046FCF765FE112301931E
:105250000123029303930823009369462046FCF739
:1052600067FD1023009369462046FCF761FD04B0FA
:1052700010BD00BF0008014038B5214C01221021AB
:105280002046FCF748FE012208212046FCF743FE99
:1052900064241C4B5D68FDF741F9A4FB0034980FB2
:1052A00040EA8404174B5B685B1BA342FAD30022DD
:1052B00008211348FCF72FFE6424124B5D68FDF7AC
:1052C0002DF9A4FB0034980F40EA84040D4B5B6871
:1052D0005B1BA342FAD3002210210948FCF71BFEF6
:1052E0006424084B5D68FDF719F9A4FB0034980F9E
:1052F00040EA8404034B5B685B1BA342FAD338BDCE
:1053000000080140001000E038B5002208211D48C7
:10531000FCF701FE64241C4B5D68FDF7FFF8A4FB5D
:105320000034980F40EA8404174B5B685B1BA34270
:10533000FAD3012210211348FCF7EDFD6424124B2F
:105340005D68FDF7EBF8A4FB0034980F40EA840495
:105350000D4B5B685B1BA342FAD30122082109486D
:10536000FCF7D9FD6424084B5D68FDF7D7F8A4FB72
:105370000034980F40EA8404034B5B685B1BA34234
:10538000FAD338BD00080140001000E038B568BB12
:10539000002208211848FCF7BEFD6424174B5D6805
:1053A000FDF7BCF8A4FB0034980F40EA8404134BCB
:1053B0005B685B1BA342FAD3012210210E48FCF765
:1053C000AAFD64240D4B5D68FDF7A8F8A4FB00342A
:1053D000980F40EA8404094B5B685B1BA342FAD335
:1053E000002210210448FCF796FD38BD0122082157
:1053F0000148FCF790FDD0E700080140001000E0F4
:1054000038B5012208211B48FCF785FD64241A4B9E
:105410005D68FDF783F8A4FB0034980F40EA84042C
:10542000154B5B685B1BA342FAD301221021114884
:10543000FCF771FD6424104B5D68FDF76FF8A4FB69
:105440000034980F40EA84040B4B5B685B1BA3425B
:10545000FAD3084C08212046FCF756FD012814BF5A
:1054600000250125002210212046FCF754FD284686
:1054700038BD00BF00080140001000E070B50446D0
:10548000164609B9002509E0FFF7F6FEFAE704F031
:105490008000FFF77BFF6400E4B20135072DF6D9E9
:1054A000FFF7AEFF04461EB9B4FA84F0400970BDA0
:1054B000FFF72AFFF8E729B370B50E460AB90020B6
:1054C00070BD154600220121FFF7D8FFB0B10024BE
:1054D00006E000221146305DFFF7D0FF70B10134C5
:1054E000A5420BD96B1EA342F3D801220021305DE7
:1054F000FFF7C4FF0028F2D00120E1E7FFF704FF27
:105500000020DDE70020704770B50D4616460024E8
:1055100004E0AFF30080287001340135B442F8DBB9
:10552000304670BD4FF0FF3070474FF400534B6072
:1055300000207047012070470020704710B50346D7
:105540000C4A0D490D48006840B10C4800680344FE
:10555000521A934206D8094A136010BD0748084CF6
:105560000460F2E700F010F80C2303604FF0FF3006
:10557000F3E700BF0050002000040000EC1E0020F4
:105580000839002070470000014B1868704700BFC1
:105590002800002070B500250C4E0D4CA41BA41053
:1055A000A54209D104F00CF800250A4E0A4CA41BB0
:1055B000A410A54205D170BD56F825309847013595
:1055C000EEE756F8253098470135F2E7B0B200080B
:1055D000B0B20008B0B20008B4B2000810B5431E63
:1055E0000A44914200D110BD11F8014B03F8014F5C
:1055F000F7E703460244934200D1704703F8011BCA
:10560000F9E7002B2DE9F0471E46BBBF03F100432D
:105610001E4600232D2388B0149FDDE9121A27F0BF
:105620002007462F1446109D0B7004D0452F00D143
:105630000135022300E0032307AA049206AACDE95C
:1056400002A2CDE900352246334600F0A5FD472FE2
:10565000804602D1119BDB0726D5462F08EB0509B2
:1056600011D198F80030302B0AD1002200232046B7
:105670003146FBF799F918B9C5F10105CAF8005090
:10568000DAF8003099440022002320463146FBF727
:105690008BF938B93022079B4B4505D2591C07912D
:1056A0001A70F8E7CDF81C904046079B159AA3EBBB
:1056B0000803136008B0BDE8F087F7B50029B4BF50
:1056C0002D232B230446B8BF4942092904F8022B95
:1056D000437021DD0DF107031F460A2691FBF6F505
:1056E00006FB1511092D01F1300103F8011C03F12E
:1056F000FF32294609DC3031023B02F8011CBB4273
:10570000224604D3101A03B0F0BD1346E6E713F89F
:10571000012B04F8012BF2E7302319448370021D9A
:10572000C170EFE72DE9F04F91B00C461A9F9346F8
:105730001E46054601F05EFC036818460993FAF719
:1057400007FD00230E933B680A90073323F00703FD
:1057500003F1080294F81880D4F800A03A60D3E965
:105760000023C4E91223D4E9127929F000430B93F2
:105770004FF0FF32A64B38460B99FBF747F968BB51
:105780004FF0FF32A24B38460B99FBF721F928BBAB
:105790000022002338464946FBF710F910B12D23AB
:1057A00084F843309B4F9C4BB8F1470F98BF1F467E
:1057B00003234FF0000923612AF0040323600096BD
:1057C0005B460FAA2146284600F0E2F9013040F07E
:1057D00090804FF0FF3011B0BDE8F08F3A464B4655
:1057E00038464946FBF712F910B18C4F8C4BDBE77A
:1057F00063684AF48062591C0DA80EA940D10623A3
:1058000063604FF0000C0DF13303CDE901236368B1
:105810002260CDE9030800933A464B46CDE9051CCA
:105820002846FFF7EEFE08F0DF03472B074609D1B5
:105830000D9BD81C02DB6268934247DDA8F1020889
:105840005FFA88F8B8F1650F0D9924D801394246FE
:1058500004F150000D91FFF730FF0E9A81461318A6
:10586000012A236102DC2268D10701D501332361BB
:105870009DF83330002BA2D02D2384F843309EE7CF
:10588000B8F1670F00F06E81B8F1470FB9D1002B66
:10589000B7D10123B4E7B8F1660F19D100296368C5
:1058A0000CDD216113B92268D20702D501330B4404
:1058B00023610D9B4FF00009A365D9E713B9226856
:1058C000D00701D50233F3E70123F1E74FF0670872
:1058D000DDE90D32934205DB22682361D107E8D56B
:1058E0000133E5E7002BCCBF0123C3F102031344CE
:1058F000DEE723685A0507D423693A465946284605
:10590000B047013029D164E7B8F1650F40F2D78084
:10591000D4E9120100220023FBF746F888B30123E3
:10592000404A59462846B04701303FF452AFDDE9BE
:105930000D239A4202DB2368D8070ED5DDE909233F
:1059400059462846B04701303FF443AF002704F1E1
:105950001A080E9B013BBB4209DC23689F0700F13C
:10596000FD80E0680F9B9842B8BF184633E70123DB
:10597000424659462846B04701303FF42AAF013726
:10598000E7E70D9B002B2BDC0123264A59462846CE
:10599000B04701303FF41DAF0D9B23B90E9B13B9E7
:1059A0002368D907D9D5DDE9092359462846B047E8
:1059B00001303FF40EAF4FF0000804F11A090D9BBF
:1059C0005B42434501DC0E9B97E701234A4659465B
:1059D0002846B04701303FF4FCAE08F10108EEE77D
:1059E0000E9AA36D9A42A8BF1A46002A904607DD78
:1059F000134659463A462846B04701303FF4E9AECF
:105A000004F11A034FF0000A28EAE8780B9315E036
:105A1000FFFFEF7FF0AB0008ECAB0008F8AB00082D
:105A2000F4AB0008FCAB000801230B9A594628464A
:105A3000B04701303FF4CDAE0AF1010AD4F85890D6
:105A4000A9EB08035345EFDCDDE90D239A424F44EF
:105A500014DB2368DA0711D40E9B0D99A3EB09021E
:105A6000A3EB01099145A8BF9146B9F1000F0DDCE8
:105A7000002729EAE97904F11A0818E0DDE9092389
:105A800059462846B0470130E6D1A2E64B463A4691
:105A900059462846B0470130EAD19AE601234246EA
:105AA00059462846B04701303FF493AE0137DDE94F
:105AB0000D239B1AA3EB0903BB42EFDC4DE70E9AC3
:105AC000012A01DCDB0738D501233A46594628462E
:105AD000B04701303FF47DAEDDE909235946284641
