:020000040800F2
:1000000000500020A5530008554100085F4100083A
:10001000674100086F4100087741000800000000B8
:100020000000000000000000000000007F41000808
:10003000814100080000000083410008854100085C
:10004000ED530008ED530008ED530008ED53000890
:10005000ED530008ED530008ED530008ED53000880
:10006000ED530008ED530008ED530008B5420008B9
:10007000ED530008ED53000805430008ED53000858
:10008000ED530008ED530008ED530008ED53000850
:10009000ED530008ED530008ED530008ED53000840
:1000A000ED530008ED530008ED530008ED53000830
:1000B000ED530008ED530008ED530008ED53000820
:1000C000ED530008ED530008ED530008ED53000810
:1000D000ED5300083D430008ED530008ED530008C0
:1000E000ED530008ED530008ED5300080000000038
:1000F0000000000000000000000000000000000000
:0C01000000000000000000005FF808F1A3
:1001100010B5054C237833B9044B13B10448AFF341
:1001200000800123237010BD0002002000000000A9
:100130002897000808B5034B1BB103490348AFF3E8
:10014000008008BD0000000004020020289700087D
:1001500081F0004102E000BF83F0004330B54FEA78
:1001600041044FEA430594EA050F08BF90EA020FE5
:100170001FBF54EA000C55EA020C7FEA645C7FEA78
:10018000655C00F0E2804FEA5454D4EB5555B8BF9B
:100190006D420CDD2C4480EA020281EA030382EA0C
:1001A000000083EA010180EA020281EA0303362D9E
:1001B00088BF30BD11F0004F4FEA01314FF4801C71
:1001C0004CEA113102D0404261EB410113F0004F83
:1001D0004FEA03334CEA133302D0524263EB43033A
:1001E00094EA050F00F0A780A4F10104D5F1200ED8
:1001F0000DDB02FA0EFC22FA05F2801841F1000133
:1002000003FA0EF2801843FA05F359410EE0A5F106
:1002100020050EF1200E012A03FA0EFC28BF4CF037
:10022000020C43FA05F3C01851EBE37101F00045ED
:1002300007D54FF0000EDCF1000C7EEB00006EEBFA
:100240000101B1F5801F1BD3B1F5001F0CD3490884
:100250005FEA30004FEA3C0C04F101044FEA4452DB
:1002600012F5800F80F09A80BCF1004F08BF5FEA62
:10027000500C50F1000041EB045141EA050130BD42
:100280005FEA4C0C404141EB010111F4801FA4F1E5
:100290000104E9D191F0000F04BF01460020B1FA3A
:1002A00081F308BF2033A3F10B03B3F120020CDA72
:1002B0000C3208DD02F1140CC2F10C0201FA0CF050
:1002C00021FA02F10CE002F11402D8BFC2F1200CB5
:1002D00001FA02F120FA0CFCDCBF41EA0C0190406B
:1002E000E41AA2BF01EB0451294330BD6FEA0404B4
:1002F0001F3C1CDA0C340EDC04F11404C4F120029F
:1003000020FA04F001FA02F340EA030021FA04F3B0
:1003100045EA030130BDC4F10C04C4F1200220FA07
:1003200002F001FA04F340EA0300294630BD21FA45
:1003300004F0294630BD94F0000F83F4801306BF0B
:1003400081F480110134013D4EE77FEA645C18BFFF
:100350007FEA655C29D094EA050F08BF90EA020F96
:1003600005D054EA000C04BF1946104630BD91EA8E
:10037000030F1EBF0021002030BD5FEA545C05D191
:100380004000494128BF41F0004130BD14F58004D0
:100390003CBF01F5801130BD01F0004545F0FE4144
:1003A00041F470014FF0000030BD7FEA645C1ABF79
:1003B000194610467FEA655C1CBF0B46024650EAB0
:1003C000013406BF52EA033591EA030F41F40021DC
:1003D00030BD00BF90F0000F04BF0021704730B562
:1003E0004FF4806404F132044FF000054FF0000137
:1003F00050E700BF90F0000F04BF0021704730B5F8
:100400004FF4806404F1320410F0004548BF4042CC
:100410004FF000013EE700BF42004FEAE2014FEA21
:1004200031014FEA02701FBF12F07F4393F07F4FFC
:1004300081F06051704732F07F4208BF704793F0FF
:100440007F4F04BF41F40021704730B54FF4607412
:1004500001F0004521F000411CE700BF50EA010215
:1004600008BF704730B54FF000050AE050EA0102BE
:1004700008BF704730B511F0004502D5404261EB2E
:1004800041014FF4806404F132045FEA915C3FF46F
:10049000D8AE4FF003025FEADC0C18BF03325FEA0C
:1004A000DC0C18BF033202EBDC02C2F1200300FABD
:1004B00003FC20FA02F001FA03FE40EA0E0021FAE2
:1004C00002F11444BDE600BF80F0004002E000BF2E
:1004D00081F0004142001FBF5FEA410392EA030F2F
:1004E0007FEA226C7FEA236C6AD04FEA1262D2EB79
:1004F0001363C1BFD218414048404140B8BF5B427E
:10050000192B88BF704710F0004F40F4000020F016
:100510007F4018BF404211F0004F41F4000121F02C
:100520007F4118BF494292EA030F3FD0A2F1010276
:1005300041FA03FC10EB0C00C3F1200301FA03F1B4
:1005400000F0004302D5494260EB4000B0F5000FD7
:1005500013D3B0F1807F06D340084FEA310102F196
:100560000102FE2A51D2B1F1004F40EBC25008BF48
:1005700020F0010040EA03007047490040EB000012
:1005800010F4000FA2F10102EDD1B0FA80FCACF141
:10059000080CB2EB0C0200FA0CF0AABF00EBC25040
:1005A00052421843BCBFD0401843704792F0000F2E
:1005B00081F4000106BF80F400000132013BB5E781
:1005C0004FEA41037FEA226C18BF7FEA236C21D0F7
:1005D00092EA030F04D092F0000F08BF084670475C
:1005E00090EA010F1CBF0020704712F07F4F04D12A
:1005F000400028BF40F00040704712F100723CBF3D
:1006000000F50000704700F0004343F0FE4040F466
:10061000000070477FEA226216BF08467FEA236324
:100620000146420206BF5FEA412390EA010F40F40F
:10063000800070474FF0000304E000BF10F000435B
:1006400048BF40425FEA000C08BF704743F0964342
:1006500001464FF000001CE050EA010208BF70475D
:100660004FF000030AE000BF50EA010208BF7047E4
:1006700011F0004302D5404261EB41015FEA010CF9
:1006800002BF84460146002043F0B64308BFA3F1F1
:100690008053A3F50003BCFA8CF2083AA3EBC253D3
:1006A00010DB01FA02FC634400FA02FCC2F12002F2
:1006B000BCF1004F20FA02F243EB020008BF20F029
:1006C0000100704702F1200201FA02FCC2F120028F
:1006D00050EA4C0021FA02F243EB020008BF20EA84
:1006E000DC7070474FF0FF0C1CEAD0521EBF1CEAB2
:1006F000D15392EA0C0F93EA0C0F6FD01A4480EAA0
:10070000010C400218BF5FEA41211ED04FF0006388
:1007100043EA501043EA5111A0FB01310CF00040B4
:10072000B1F5000F3EBF490041EAD3715B0040EADA
:10073000010062F17F02FD2A1DD8B3F1004F40EBAA
:10074000C25008BF20F00100704790F0000F0CF07D
:10075000004C08BF49024CEA502040EA51207F3A41
:10076000C2BFD2F1FF0340EAC250704740F400001C
:100770004FF00003013A5DDC12F1190FDCBF00F00D
:1007800000407047C2F10002410021FA02F1C2F1BB
:10079000200200FA02FC5FEA310040F1000053EA57
:1007A0004C0308BF20EADC70704792F0000F00F0A5
:1007B000004C02BF400010F4000F013AF9D040EAAB
:1007C0000C0093F0000F01F0004C02BF490011F43F
:1007D000000F013BF9D041EA0C018FE70CEAD1533D
:1007E00092EA0C0F18BF93EA0C0F0AD030F0004CBD
:1007F00018BF31F0004CD8D180EA010000F0004071
:10080000704790F0000F17BF90F0004F084691F02E
:10081000000F91F0004F14D092EA0C0F01D1420268
:100820000FD193EA0C0F03D14B0218BF084608D131
:1008300080EA010000F0004040F0FE4040F400007B
:10084000704740F0FE4040F4400070474FF0FF0C0E
:100850001CEAD0521EBF1CEAD15392EA0C0F93EA55
:100860000C0F69D0A2EB030280EA010C49024FEAA7
:10087000402037D04FF0805343EA111143EA101360
:100880000CF000408B4238BF5B0042F17D024FF418
:10089000000C8B4224BF5B1A40EA0C00B3EB510FF3
:1008A00024BFA3EB510340EA5C00B3EB910F24BFDC
:1008B000A3EB910340EA9C00B3EBD10F24BFA3EB61
:1008C000D10340EADC001B0118BF5FEA1C1CE0D129
:1008D000FD2A3FF650AF8B4240EBC25008BF20F0DC
:1008E000010070470CF0004C4CEA50207F32C2BF30
:1008F000D2F1FF0340EAC250704740F400004FF0CD
:100900000003013A37E792F0000F00F0004C02BFFD
:10091000400010F4000F013AF9D040EA0C0093F0C7
:10092000000F01F0004C02BF490011F4000F013B21
:10093000F9D041EA0C0195E70CEAD15392EA0C0F89
:1009400008D142027FF47DAF93EA0C0F7FF470AFC1
:10095000084676E793EA0C0F04D14B023FF44CAF04
:1009600008466EE730F0004C18BF31F0004CCAD199
:1009700030F000427FF45CAF31F000437FF43CAFD5
:100980005FE700BF4FF0FF3C06E000BF4FF0010CF7
:1009900002E000BF4FF0010C4DF804CD4FEA4002D9
:1009A0004FEA41037FEA226C18BF7FEA236C11D023
:1009B00001B052EA530C18BF90EA010F58BFB2EBD6
:1009C000030088BFC81738BF6FEAE17018BF40F056
:1009D000010070477FEA226C02D15FEA402C05D10A
:1009E0007FEA236CE4D15FEA412CE1D05DF8040B8F
:1009F000704700BF844608466146FFE70FB5FFF722
:100A0000C9FF002848BF10F1000F0FBD4DF808EDD9
:100A1000FFF7F4FF0CBF012000205DF808FB00BFCA
:100A20004DF808EDFFF7EAFF34BF012000205DF824
:100A300008FB00BF4DF808EDFFF7E0FF94BF012071
:100A400000205DF808FB00BF4DF808EDFFF7D2FF6E
:100A500094BF012000205DF808FB00BF4DF808EDB1
:100A6000FFF7C8FF34BF012000205DF808FB00BF7E
:100A70004FEA4002B2F1FE4F0FD34FF09E03B3EBAB
:100A800012620DD94FEA002343F0004310F0004FEB
:100A900023FA02F018BF404270474FF00000704741
:100AA00012F1610F01D1420205D110F0004008BFE0
:100AB0006FF0004070474FF00000704742000ED2C8
:100AC000B2F1FE4F0BD34FF09E03B3EB126209D489
:100AD0004FEA002343F0004323FA02F070474FF03F
:100AE0000000704712F1610F01D1420202D14FF0B4
:100AF000FF3070474FF00000704700BF034613F807
:100B0000012B002AFBD1181A0138704770B54FF03D
:100B1000FF0C4CF4E06C1CEA11541DBF1CEA135589
:100B200094EA0C0F95EA0C0F00F0DEF82C4481EAF1
:100B3000030621EA4C5123EA4C5350EA013518BF11
:100B400052EA033541F4801143F4801338D0A0FBFE
:100B500002CE4FF00005E1FB02E506F00042E0FBAB
:100B600003E54FF00006E1FB03569CF0000F18BFB1
:100B70004EF0010EA4F1FF04B6F5007F64F5407459
:100B800004D25FEA4E0E6D4146EB060642EAC621EC
:100B900041EA55514FEAC52040EA5E504FEACE2E59
:100BA000B4F1FD0C88BFBCF5E06F1ED8BEF1004F5C
:100BB00008BF5FEA500E50F1000041EB045170BDD8
:100BC00006F0004646EA010140EA020081EA03011C
:100BD000B4EB5C04C2BFD4EB0C0541EA045170BD18
:100BE00041F480114FF0000E013C00F3AB8014F192
:100BF000360FDEBF002001F0004170BDC4F10004DB
:100C0000203C35DA0C341BDC04F11404C4F120055B
:100C100000FA05F320FA04F001FA05F240EA0200B6
:100C200001F0004221F0004110EBD37021FA04F6EC
:100C300042EB06015EEA430E08BF20EAD37070BDA6
:100C4000C4F10C04C4F1200500FA04F320FA05F005
:100C500001FA04F240EA020001F0004110EBD37007
:100C600041F100015EEA430E08BF20EAD37070BD77
:100C7000C4F1200500FA05F24EEA020E20FA04F350
:100C800001FA05F243EA020321FA04F001F00041FF
:100C900021FA04F220EA020000EBD3705EEA430E70
:100CA00008BF20EAD37070BD94F0000F0FD101F09F
:100CB0000046400041EB010111F4801F08BF013CD8
:100CC000F7D041EA060195F0000F18BF704703F016
:100CD0000046520043EB030313F4801F08BF013D9D
:100CE000F7D043EA0603704794EA0C0F0CEA135559
:100CF00018BF95EA0C0F0CD050EA410618BF52EA13
:100D00004306D1D181EA030101F000414FF0000018
:100D100070BD50EA410606BF1046194652EA430626
:100D200019D094EA0C0F02D150EA013613D195EA9A
:100D30000C0F05D152EA03361CBF104619460AD1E2
:100D400081EA030101F0004141F0FE4141F47001EC
:100D50004FF0000070BD41F0FE4141F4780170BDDC
:100D600070B54FF0FF0C4CF4E06C1CEA11541DBF41
:100D70001CEA135594EA0C0F95EA0C0F00F0A7F843
:100D8000A4EB050481EA030E52EA03354FEA013170
:100D900000F088804FEA03334FF0805545EA131383
:100DA00043EA12634FEA022245EA111545EA10654B
:100DB0004FEA00260EF000419D4208BF964244F1E2
:100DC000FD0404F5407402D25B084FEA3202B61A01
:100DD00065EB03055B084FEA32024FF480104FF4D5
:100DE000002CB6EB020E75EB030E22BFB61A754649
:100DF00040EA0C005B084FEA3202B6EB020E75EBDC
:100E0000030E22BFB61A754640EA5C005B084FEA43
:100E10003202B6EB020E75EB030E22BFB61A754610
:100E200040EA9C005B084FEA3202B6EB020E75EB1B
:100E3000030E22BFB61A754640EADC0055EA060EDC
:100E400018D04FEA051545EA16754FEA06164FEA1F
:100E5000C30343EA52734FEAC2025FEA1C1CC0D1CB
:100E600011F4801F0BD141EA00014FF000004FF058
:100E7000004CB6E711F4801F04BF01430020B4F119
:100E8000FD0C88BFBCF5E06F3FF6AFAEB5EB030CD1
:100E900004BFB6EB020C5FEA500C50F1000041EBCE
:100EA000045170BD0EF0004E4EEA113114EB5C049B
:100EB000C2BFD4EB0C0541EA045170BD41F480116E
:100EC0004FF0000E013C90E645EA060E8DE60CEA76
:100ED000135594EA0C0F08BF95EA0C0F3FF43BAF93
:100EE00094EA0C0F0AD150EA01347FF434AF95EA4A
:100EF0000C0F7FF425AF104619462CE795EA0C0F2E
:100F000006D152EA03353FF4FDAE1046194622E7FA
:100F100050EA410618BF52EA43067FF4C5AE50EAD4
:100F200041047FF40DAF52EA43057FF4EBAE12E7C4
:100F30004FF0FF3C06E000BF4FF0010C02E000BFA5
:100F40004FF0010C4DF804CD4FEA410C7FEA6C5C88
:100F50004FEA430C18BF7FEA6C5C1BD001B050EA2B
:100F6000410C0CBF52EA430C91EA030F02BF90EA16
:100F7000020F0020704710F1000F91EA030F58BFD5
:100F8000994208BF90422CBFD8176FEAE37040F037
:100F9000010070474FEA410C7FEA6C5C02D150EAD5
:100FA000013C07D14FEA430C7FEA6C5CD6D152EA90
:100FB000033CD3D05DF8040B704700BF8446104655
:100FC00062468C461946634600E000BF01B5FFF754
:100FD000B7FF002848BF10F1000F01BD4DF808ED24
:100FE000FFF7F4FF0CBF012000205DF808FB00BFF5
:100FF0004DF808EDFFF7EAFF34BF012000205DF84F
:1010000008FB00BF4DF808EDFFF7E0FF94BF01209B
:1010100000205DF808FB00BF4DF808EDFFF7CEFF9C
:1010200094BF012000205DF808FB00BF4DF808EDDB
:10103000FFF7C4FF34BF012000205DF808FB00BFAC
:101040004FEA410C7FEA6C5C02D150EA013C0AD1C4
:101050004FEA430C7FEA6C5C02D152EA033C02D1B6
:101060004FF0000070474FF0010070474FEA410217
:1010700012F5001215D211D56FF47873B3EB6252EA
:1010800012D94FEAC12343F0004343EA505311F011
:10109000004F23FA02F018BF404270474FF00000A3
:1010A000704750EA013005D111F0004008BF6FF0E1
:1010B000004070474FF00000704700BF4FEA410208
:1010C000B2F1E04324BFB3F5001CDCF1FE5C0DD9A6
:1010D00001F0004C4FEAC0024CEA5070B2F1004FF0
:1010E00040EB830008BF20F00100704711F0804FF3
:1010F00021D113F13872BCBF01F00040704741F4B8
:1011000080114FEA5252C2F11802C2F1200C10FABB
:101110000CF320FA02F018BF40F001004FEAC1239F
:101120004FEAD32303FA0CFC40EA0C0023FA02F343
:101130004FEA4303CCE77FEA625307D150EA013319
:101140001EBF4FF0FE4040F44000704701F00040E9
:1011500040F0FE4040F40000704700BF4FEA4002FC
:101160004FEA41037FEA226C02D15FEA402C08D1AA
:101170007FEA236C02D15FEA412C02D14FF00000DC
:1011800070474FF00100704710B504460E4B1878B9
:101190004FF47A73B3FBF0F30C4A1068B0FBF3F032
:1011A00000F09EF868B90F2C01D901200AE0002256
:1011B00021464FF0FF3000F05FF8054B1C60002027
:1011C00000E0012010BD00BF00000020280000202A
:1011D0000400002008B5074A136843F010031360A9
:1011E000032000F037F80F20FFF7CEFF02F0F0FAEF
:1011F000002008BD00200240034A1168034B1B7801
:101200000B441360704700BF8039002000000020AD
:10121000014B1868704700BF8039002038B504467C
:10122000FFF7F6FF0546B4F1FF3F02D0044B1B78F1
:101230001C44FFF7EDFF401BA042FAD338BD00BFAE
:1012400000000020024A136823F002031360704775
:1012500010E000E0074AD36823F4E0631B041B0C92
:10126000000200F4E060184340F0BF6040F400303A
:10127000D060704700ED00E030B4174BDB68C3F37B
:101280000223C3F10704042C28BF04241D1D062DCE
:1012900018D9033B4FF0FF3505FA04F421EA0401A5
:1012A000994005FA03F322EA0303194300280BDBF4
:1012B0000901C9B200F1604000F5614080F80013F7
:1012C00030BC70470023E5E700F00F000901C9B208
:1012D000024B1954F4E700BF00ED00E014ED00E00C
:1012E0000138B0F1807F0AD2064B5860064AF021DF
:1012F00082F823100020986007221A6070470120AE
:10130000704700BF10E000E000ED00E0044B002259
:10131000DA61044A136943F00103136101807047E5
:1013200088390020002002401A4BDB6813F0100FB0
:1013300027D0194AD36943F00203D3611023154A19
:10134000D26812F0040F06D01349CA6942F00102B4
:10135000CA6143F004030F4AD26912F0010F09D0A9
:101360000D49CA6942F00402CA610A49CA6922F0F9
:101370000102CA6140F20112934204D0054AD360CF
:1013800070470023DBE7034AD36923F00103D361ED
:10139000704700BF00200240883900200A4B1B69BB
:1013A00013F0800F0DD0084B084A5A6002F18832C2
:1013B0005A601B6913F0800F01D001207047002094
:1013C00070470020704700BF00200240230167459E
:1013D000034A136943F0800313610020704700BF84
:1013E0000020024038B50446FFF712FF0546174BB0
:1013F000DB6813F0010F0AD0B4F1FF3FF7D00CB354
:10140000FFF706FF401BA042F1D9032019E00F4B64
:10141000DB6813F0200F02D00C4B2022DA600B4B5C
:10142000DB6813F0100F09D1084BDB6913F0010FD3
:1014300004D1064BDB6813F0040F05D0FFF774FFEF
:10144000012038BD0320FCE70020FAE7002002401D
:101450002DE9F843234C247E012C41D01E469046B2
:101460000F4604461F4B01221A764CF25030FFF70C
:10147000B9FF034670BB012C29D0022C24D04FF0B9
:10148000040900244C4525D22101C1F12002A1F11B
:10149000200328FA01F106FA02F2114326FA03F3B7
:1014A000194389B207EB4400FFF730FF4CF250308C
:1014B000FFF798FF0C4B1D6925F001051D610346E0
:1014C00040B90134E4B2DDE74FF00209D9E74FF04B
:1014D0000109D6E7034A002111761846BDE8F883D2
:1014E0000223FAE78839002000200240064B002240
:1014F000DA61064B1A6942F004021A611A6942F075
:1015000040021A61704700BF883900200020024065
:10151000064B0022DA61064B1A6942F002021A6198
:1015200058611A6942F040021A61704788390020F8
:1015300000200240264B1B7E012B46D070B50E4684
:101540000446234B01221A760368022B20D04CF26A
:101550005030FFF747FF90BB4FF0FF333360A56873
:101560000122E168A36803EB8123AB4228D9284616
:10157000FFF7CEFF4CF25030FFF734FF154A1369E6
:1015800023F0020313610246B8B905F58065E8E768
:101590004CF25030FFF726FF08B1012210E0012085
:1015A000FFF7A4FF4CF25030FFF71CFF0246094939
:1015B0000B6923F004030B6102E0356000E00122B7
:1015C000034B00211976104670BD02221046704769
:1015D00088390020002002400C4B9A6803F5806394
:1015E0009B68134313F0010F0ED10B682BB94368AE
:1015F00023F47023436000207047426822F4702275
:1016000013434360002070470120704700240140CD
:10161000836813F0010F0DD1436823F480734A6887
:1016200013434360836823F400630A6813438360B1
:1016300000207047012070474B68826812F0010F4C
:1016400023D110B4DBB1426822F468428C68234392
:1016500013434360836823F4602323F481730A688F
:10166000CC6822430C692243134383604B68C26AEF
:1016700022F470021343C362002010BC704742681A
:1016800022F4684213434360E4E701207047F0B559
:101690000E68C6F30F2696FAA6F5B5FA85F540E072
:1016A000A5F108024FF00113934043F0806344E03A
:1016B0000C69C7681A0A27EA020792FAA2F2B2FA7C
:1016C00082F204FA02F23A43C26039E08C6893FA7B
:1016D000A3F7B7FA87F7BF004FF0030E0EFA07F72C
:1016E00022EA070293FAA3F7B7FA87F7BF00BC40D4
:1016F000224340F80C20CC6893FAA3F7B7FA87F797
:10170000BF004FF0040E0EFA07F722EA070293FA21
:10171000A3F3B3FA83F39B009C40224340F80C20D0
:10172000013536FA05F32BD00123AB403342F7D015
:10173000072DB5D840F20113AB404A68082AB7D04C
:101740004F684FEA136C50F80C4093FAA3F2B2FAC8
:1017500082F292004FF00F0E0EFA02F224EA020417
:1017600093FAA3F2B2FA82F2920007FA02F222434B
:1017700040F80C204C68012CA8D0092CD0D1A5E74A
:101780000020F0BD034B5B68C3F30313024AD35C34
:10179000D84070470010024028B10008034B5B6836
:1017A000C3F30223024AD35CD840704700100240C2
:1017B00038B10008034B5B68C3F3C223024AD35C11
:1017C000D84070470010024038B100080B4B5B68EE
:1017D00003F480337BB1094B5868C0F340400130BB
:1017E000074BB3FBF0F0054B5B68C3F38343023355
:1017F00000FB03F070470348F5E700BF001002400C
:1018000000127A0000093D0008B5054B5B6803F043
:101810000C03082B02D1FFF7D9FF08BD0148FCE7F4
:101820000010024000127A0010B50446FFF7ECFFEA
:101830002060FFF7A7FF6060FFF7B0FFA06060685F
:10184000FFF7B8FFE06010BD03681A4A90420AD063
:10185000B0F1804F07D0A2F59432904203D002F548
:101860008062904203D123F070034A681343114A07
:1018700090420AD0B0F1804F07D0A2F59432904246
:1018800003D002F58062904203D123F44073CA680A
:10189000134303608B68C3620B888362054B9842D5
:1018A00005D0436943F001034361002070470B6991
:1018B0000363F6E7002C0140C36813F4005F01D016
:1018C0000120704730B585B00D460446C36823F447
:1018D000B05323F00C034A68C9680A4329690A43D4
:1018E0001343C360AB68026922F44052134303619F
:1018F0006B69426922F44072134343616846FFF703
:1019000093FF1C4B9C4208D01B4B9C422AD01B4B84
:101910009C4229D0012005B030BD039B33B32A6817
:1019200032B303EB830303EB83039200B3FBF2F3C5
:10193000134DA5FB03204009020191B2642202FB72
:10194000103213013233A5FB0323C3F34F1303F00B
:10195000F0020A4492B203F00F0313449BB2A36057
:101960000020D8E7029BD9E7029BD7E70120D2E706
:101970000120D0E70038014000440040004800400A
:101980001F85EB51054BA3FB003080090138044B48
:10199000586000229A6005221A607047D34D621089
:1019A00010E000E082B0094B1B680193019BB0F18D
:1019B000FF3F00D0013030B1044B1B6813F4803F6F
:1019C000F9D00138F7E702B0704700BF10E000E03F
:1019D000014B1860704700BF28000020104B1B7897
:1019E000EBB9002112E041F2210080EA43039BB2EF
:1019F0000132072A05D813F4004FF4D15B009BB2E3
:101A0000F6E7084A22F81130013189B2FF2903D8DC
:101A10000B029BB20022ECE7014B01221A707047C7
:101A20001C020020A839002070B505460E46144659
:101A30000A4B1B786BB9FFF7D1FF0AE0337883EAD2
:101A40001523074931F9130080EA052085B20136D4
:101A50001446621E002CF1DC284670BD1C020020DA
:101A6000A83900200D4BDA6822F08072DA60DA685B
:101A700042F08072DA600A4B1A6822F001021A60A2
:101A80001A6842F001021A6000225A6000BF00BFCB
:101A900000BF5868B0FA80F040097047F0ED00E0F0
:101AA000001000E008B509680068FEF711FDFEF7B8
:101AB000DFFF08BD012800D070474FF6FF73994241
:101AC000FAD10E4B00225A629A62DA621A635A63A2
:101AD0009A63DA631A645A649A64DA641A655A6516
:101AE0009A65DA651A667F22054B002AE4DB00213D
:101AF000196059600833013AF7E700BF941C0020D1
:101B0000A424002072B6BFF34F8F084B20221A6125
:101B1000BFF34F8F0649CA6802F4E062054B1343D6
:101B2000CB60BFF34F8F00BFFDE700BF000801404F
:101B300000ED00E00400FA0572B6BFF34F8F40B924
:101B40004FF4967005E0134B20225A61124B5968EE
:101B500098B9104B20221A610A220F4B59680F4B7B
:101B60001B68A3FB023423FA02F242EA84520A4BB6
:101B70005B685B1A9342FAD3E5E7084B1B68A3FB4B
:101B800000349A0A42EA8452034B5B685B1A934220
:101B9000FAD3DEE700080140001000E02800002032
:101BA000024600B9C822074B1968074B1B6813F09F
:101BB000010F06D0034B1B685B1A934201D230BF62
:101BC000F3E770474C240020440002400246E8B18D
:101BD000F9B1144BDB6813F4005F1DD0124B1B6886
:101BE00013F0010F1BD1114B4FF480505860443358
:101BF000DA600F4A9A605A68120C12041143596055
:101C00001A6842F001021A60002070474FF0FF305E
:101C100070474FF0FF3070476FF0010070476FF072
:101C200002007047003801404400024000000240BA
:101C30000438014038B5144649B10D46002A06DD86
:101C40006420FFF7ADFF21462846FFF7BFFF20467F
:101C500038BD000008B50449FEF744FD4FF0665159
:101C6000FEF740FD08BD00BF3333534002280FD0BC
:101C7000032813D0012805D00B4B80225A61402243
:101C80001A617047084B80221A6140221A6170471E
:101C9000054B80225A6140225A617047024B8022D4
:101CA0001A6140225A6170470008014000B587B0B0
:101CB00000230593019302930C4B03930423049395
:101CC000FFF76CFB78B905A901A8FFF733FC28B929
:101CD000FFF77EFB002007B05DF804FBFFF778FB01
:101CE0006FF00100F7E74FF0FF30F4E700F0000875
:101CF000F8B50027124C04F5A076124B9E421DD871
:101D0000114D4FF4A0722146284605F086F82A6846
:101D10000E4B9A4204D00434EDE727463446EAE7F6
:101D20002946B5F83E510020A1F83E014FF4A072BB
:101D3000FFF77AFE8542F0D00434DCE73846F8BD80
:101D400000F0000800000108200200206219961926
:101D500008B5FFF7CDFF38B101464FF4A072044833
:101D600005F05BF8002008BD4FF0FF30FBE700BF37
:101D70008C22002070B586B0002002900390494B61
:101D80000493042305930190474C484B2360A4F827
:101D90003E014FF4A0722146FFF746FEA4F83E0133
:101DA000FFF7FCFA002879D1FFF7A2FF0446E0B163
:101DB0004FF4A0723C4905F021F8054668B104F5DE
:101DC000A07604F520743A4B9C420FD901A902A8D1
:101DD000FFF7B0FB20B9334E08E0FFF7F9FA42E015
:101DE000FFF7F6FA6FF001053DE02E4E3346002274
:101DF000B2F5A07F14D2981C1B889BB24FF6FF71DE
:101E00008B4220D006F5A072134606F520762849AD
:101E10008E4215D901A902A8FFF78CFBB0B9214E5B
:101E20000024214BB4F5A07F20D29D1C1A880023EA
:101E300031190120FFF70CFB68B902342B46F1E79A
:101E400016460022D4E702320346D1E7FFF7C0FA74
:101E50006FF0020507E001A902A8FFF76BFBFFF78F
:101E6000B7FA6FF00305284606B070BD4FF4A072B4
:101E70000D49304604F0C2FF054630B9FFF7A8FA15
:101E80000C4B4FF0FF321A60EDE701A902A8FFF7F3
:101E900051FBFFF79DFA6FF00405E4E74FF0FF35C3
:101EA000E1E700BF00F000088C22002062199619BB
:101EB00000000108240000202DE9F04789469046E3
:101EC0000D46002634469DB1071DD0F800A02146DE
:101ED000D8F80400FEF706FC01465046FEF7FAFA71
:101EE0003146FEF7F5FA013D264604463846EAE754
:101EF0002146D8F80C00FEF7F5FB3146FEF7E8FA6C
:101F0000064604F10040D8F80810FEF7EBFB054642
:101F10004846FEF78FFB01464FF08040FEF796FCE7
:101F2000044601463046FEF7DDFBC8F810002146A6
:101F30002846FEF7D7FBC8F81400BDE8F08700007C
:101F40002DE9F04F85B00546029193469A46DDF89B
:101F500038901846FEF76EFB01464FF08040FEF7C2
:101F600075FC039000274AE00136009B0193009026
:101F7000564512D255F824800099D9F80400FEF78E
:101F8000B1FB01464046FEF7A5FA0199FEF7A0FA1B
:101F90000134A345E8D80024E6E7009C2146D9F89F
:101FA0000C00FEF79FFB0199FEF792FA064604F13A
:101FB0000040D9F80810FEF795FB8046029B03EB22
:101FC000C7043146039E3046FEF78CFB029B43F864
:101FD000370041463046FEF785FB60600023022B48
:101FE0000CD803EB4302D1000E4A0A44D26882B9EE
:101FF0000C4A0A44127D8AB90133F0E701375F4584
:1020000005D23C460026002301930093B0E7002050
:1020100001E04FF0FF3005B0BDE8F08F4FF0FF302A
:10202000F9E700BF4C1C0020F8B504460E460C49E9
:102030003046FEF757FB074603F076FB0546384669
:1020400003F0F2FB0746266029462846FEF742FACF
:102050006060E560A760002323616361F8BD00BF95
:10206000DB0FC94070B50546046800212046FEF725
:10207000D7FC00283BD1012624F0004448492046E3
:10208000FEF7CEFC002835D146492046FEF7C8FCB5
:1020900000283DD144492046FEF7C2FC002845D126
:1020A0004FF07E512046FEF7BBFC00284CD13F4943
:1020B0002046FEF7B5FC002870D13D492046FEF7CA
:1020C000AFFC00284ED13B492046FEF7A9FC002872
:1020D00056D133492046FEF705FB04463046FEF74D
:1020E000ADFA2146FEF7FEFA286047200FE04FF0D8
:1020F000FF36C1E730492046FEF7F4FA0446304681
:10210000FEF79CFA2146FEF7EDFA2860702070BDBC
:1021100028492046FEF7E6FA04463046FEF78EFAD6
:102120002146FEF7DFFA28606E20F0E720492046BE
:10213000FEF7D8FA04463046FEF780FA2146FEF74D
:10214000D1FA28607520E2E718492046FEF7CAFA5E
:1021500004463046FEF772FA2146FEF7C3FA2860BD
:102160006D20D4E710492046FEF7BCFA04463046FD
:10217000FEF764FA2146FEF7B5FA28606B20C6E741
:1021800008492046FEF7AEFA04463046FEF756FAF6
:102190002146FEF7A7FA28604D20B8E72020B6E7D1
:1021A0005F708930BD3786356F12833A00007A44FC
:1021B00000247449286B6E4EA5D4685338B5642842
:1021C00032D0264B4FF47A721A80254B4FF07E5254
:1021D0001A602449224B1868FEF784FA4FF07C51AC
:1021E000FEF780FA054600243F2C24D82046FEF74F
:1021F00021FA1D49FEF776FA03F016FB4FF07E51E7
:10220000FEF768F92946FEF76DFA4FF07C51FEF7AC
:1022100061F903F0C5FAFEF751FC60F0FF00134BC3
:1022200023F814000134DFE70C4B64221A800C4BB6
:102230000F4A1A60CDE7094B1A886AB192010D4B1B
:102240005B680D48816A0131B3FBF1F303EB520384
:10225000B3FBF2F3013BC36238BD00BF180000209E
:102260001C00002000007F43DB0FC93DCC23002071
:102270006666663F641D0020000400402DE9F041C1
:1022800084B004AC04E90300694681E80C00029EB6
:10229000009C21463046FEF725FA8046039D019FAB
:1022A00039462846FEF71EFA01464046FEF712F967
:1022B000804639463046FEF715FA0646294620463E
:1022C000FEF710FA01463046FEF702F904460021F7
:1022D0004046FEF79BFB18B1054804B0BDE8F0810D
:1022E0004146204603F0DEFA0249FEF7FBF9F4E727
:1022F0000000C07FE12E654270B584B00C461249E3
:10230000FEF7F0F9054610492046FEF7EBF90446C2
:10231000284603F009FA0646284603F085FA009697
:102320000190204603F000FA0546204603F07CFAAF
:102330000295039004AB13E90C00694603C9FFF74B
:102340009DFF04B070BD00BF35FA8E3C2DE9F0430F
:1023500085B04FF000089BE0644B9B78002B34D095
:10236000634B03EB4829634B009380231A46624971
:102370004846FFF7E5FD0028C0F2B580002400269E
:102380007F2C69D85C4B03EBC40393E8030004ABD8
:1023900003E90300029D29462846FEF7A3F90746F4
:1023A00003990846FEF79EF901463846FEF792F873
:1023B00001463046FEF78EF8064649F824500134AF
:1023C000DEE74A4BDB78002BCAD1494E06EB4826A4
:1023D000002400257F2C15D856F824100846FEF757
:1023E00081F901462846FEF775F805460134F1E704
:1023F0003E4B9B78002BE8D1B2E73C4BDB78002BBF
:10240000AED0E2E74FF070512846FEF76BF903F0CB
:10241000A9FA3A4B43F82800364C22468021304630
:10242000FFF74AFD246900212046FEF7EFFA20B1AC
:102430003348344B43F8280028E021462D4B586997
:1024400003F030FA3049FEF74DF93049FEF742F813
:102450002F4903F029FAECE74FF070513046FEF7B0
:1024600041F903F07FFA254B43F82800214C22461E
:1024700080214846FFF720FD246900212046FEF711
:10248000C5FAE8B11E481F4B43F8280008F10108BF
:10249000B8F1070F23D84FEA58031E4A1278002AD2
:1024A0007FF45EAF032B3FF65BAF01A252F823F03F
:1024B00059230008C3230008F1230008FB23000868
:1024C00021460C4B586903F0EDF90F49FEF70AF964
:1024D0000E49FDF7FFFF0E4903F0E6F9D3E70020B0
:1024E00005B0BDE8F0834FF0FF30F9E72418002075
:1024F00024080020081D0020A4240020201D002006
:102500000000C07F441D0020E12E6542000087438B
:102510000000B443401D00202DE9F04383B0814604
:1025200088460026009601960024274622E0314B7B
:102530009B78F3B1651C304B53F825103046FDF7FE
:10254000C9FF06462D492E4B53F82500FEF7CAF861
:10255000054603F0E9F801460098FDF7BBFF00903F
:10256000284603F061F901460198FDF7B3FF019099
:1025700001370234072C20D8224B1B78002BD9D1ED
:102580006308032BD6D801A252F823F02F250008A8
:102590009D250008A7250008B1250008154BDB780C
:1025A000002BC7D1E5E7134B9B78002BC2D0E0E7A7
:1025B000104BDB78002BBDD0DBE73846FEF73AF84E
:1025C00001463046FEF742F9C9F80000009C0021A0
:1025D0002046FEF71BFA28B10B48C8F8000003B0EC
:1025E000BDE8F0832146019803F05CF90749FEF746
:1025F00079F8F2E728180020201D002035FA8E3CDB
:10260000441D0020401D00200000C07FE12E6542D7
:102610002DE9F04385B0444B1E68002E59D1434B41
:102620001B68002B55DB354617E0414B0422032184
:102630000DEB020005F000F939460298FDF74AFF5C
:102640003C4B43F82500394A136801331360022BD1
:1026500002DD134600221A600135072D61D8DFF82C
:10266000CC80D8F80020DFF8D89059F82510324BEC
:1026700005EB4504224443F8221001AF03EB840329
:1026800093E8070087E80700294B04220321384616
:1026900005F0D2F8029B49F82530264B53F82570F7
:1026A000D8F800301C44254B43F824703446022CE3
:1026B000BBD805EB45032344204A52F82310384683
:1026C000FFF71AFE04AB03EB840343F80C0C013450
:1026D000EDE70021154B196000E0013107290DD805
:1026E000174B53F821400023022BF6D801EB41028F
:1026F0001A44114840F822400133F5E7002100E078
:10270000013107290DD80B4B53F821400023022B30
:10271000F6D801EB41021A44084840F82240013340
:10272000F5E705B0BDE8F083041D00200800002097
:10273000A51A0008441D002060030020C0030020EB
:10274000201D0020A64B1B6803B170472DE9F04FF8
:1027500087B0FFF7FBFD0028C0F23E8105A904A861
:10276000FFF7DAFE049A9F4B5A60DA605A61DA6129
:10277000059A9D4B5A60DA605A61DA619B4B1B786F
:10278000002B00F047819A4BD3F800904FEA89055F
:10279000944B53F825806F1C53F827A0954A146872
:1027A000A200901C033253F822B0934A16683146B7
:1027B00053F82000FDF796FF019031465846FDF78B
:1027C00091FF02908D4B19684FF07E50FEF73EF856
:1027D0000390B9F1000F00F020818146002C00F039
:1027E0001F81DDF80CB049464046FDF77BFF80466F
:1027F000834C606049465046FDF774FFA06059461F
:102800000198FDF76FFF8146E06059460298FDF799
:1028100069FF206149464046FEF718F8804660612E
:10282000724B1B7853BB774B93F86C3033B3764BBA
:102830001B88B3F1640218BF0122724913019C186E
:10284000A0000844C46A416C3046FDF74BFF039971
:10285000FDF748FF01462046FDF7F8FF0446014614
:102860004046FDF73FFF064641462046FDF730FE55
:1028700001463046FDF7EAFF614B58615A4E56F863
:10288000271056F82500FFF737FD5D4CA061594B26
:102890001B689B009A1C033356F8231056F822003D
:1028A000FFF72AFD0146E061A069FFF725FD054617
:1028B00020624E4B1B78002B40F08E80524B1888C4
:1028C000FDF7BCFE5149FDF70DFF0746504928466C
:1028D000FDF708FF044602F027FF0546204602F0F8
:1028E000A3FF0646464B5C6925F000412046FDF7F4
:1028F000F9FE054626F000412046FDF7F3FE0646A8
:1029000000212846FEF782F8002865D100213046D4
:10291000FEF77CF800285FD100213846FEF776F8F4
:10292000002859D139463046FDF790FF8346394695
:102930003046FDF7D7FE01464FF07E50FDF786FF8B
:10294000824631462846FDF781FF814629463046BA
:10295000FDF77CFF029029462846FDF7C3FE80461E
:1029600031463046FDF7BEFE01464046FDF7B2FD5A
:1029700001902946FDF76AFF804631460198FDF730
:1029800065FF01903946FDF761FF0646019938461B
:10299000FDF7A8FE01464FF07E50FDF757FF0746B2
:1029A00001994046FDF752FF039041460198FDF71B
:1029B0004DFF134BC3F828B0C3F824A0DC621D639D
:1029C000C3F83490029A9A631E64DF635C64C3F8B0
:1029D0004880039ADA64186507B0BDE8F08F00BF3D
:1029E000F81C0020201D0020441D0020401D002058
:1029F000B03800202C1C0020140000200C00002007
:102A0000502400208C22002018000020DB0FC94039
:102A100035FA8E3CFFF7FCFDB5E64FF07E59DDE65A
:102A20004FF07E5BDFE600BF2DE9F04F95B0BB4B6A
:102A30001E78002E40F0CD80B94B1F68032F00F2A6
:102A4000C8800446B74B53F827804FEA480917B9A6
:102A5000B54B1B68B3B1B44BD3F800A0BAF1090F62
:102A600070D9B8F1010F1AD0B8F1030F14D00125B5
:102A7000B8F1010F7DD94122002103A804F0F1F93A
:102A8000002218E04046FFF7F1F8A84B00221A6038
:102A9000A74B20221A61DEE74FF0FF35E8E74FF041
:102AA000FF35E5E714A901EB531313F8441C01317A
:102AB00003F8441C01327F2A1DD804EB820134F94B
:102AC0002230A3F5006303FB05F31BB2B1F802C08B
:102AD000ACF5006C0FFA8CFC964951F832001844A2
:102AE00041F8320001EBC201486860444860002BA5
:102AF000D8DADB43D6E7324633462C2110E03346A2
:102B0000824202D3141AE4B200E03446082B03D800
:102B1000082C02D9012600E00126013113460246A5
:102B2000402909D846B914A8084410F8440C934227
:102B3000E5D8D31ADBB2E3E77C4B13F80820164341
:102B400003F808607C4B1B78002B3AD17B4B1B6849
:102B5000002B41D1754B13F80830002B3ED1B8F152
:102B6000010F26D9764BDB7A13F0040F38D180227F
:102B700028E000237F2B17D804EB830634F92310B9
:102B8000A1F500616B4A52F8330001FB050142F8E0
:102B90003310B6F90210A1F5006002EBC3025168D0
:102BA000014451600133E5E7604B002203F808203F
:102BB000C8E708F10203634AD35C002BD2D101229B
:102BC00000E080220AF1010357490B600A32934268
:102BD00008D215B0BDE8F08F0822F3E70122F1E733
:102BE0001022EFE77B1C1A4601934E4B53F822004C
:102BF000FFF73CF8544C04EB492509F1010904EBBB
:102C00004924494B18680A38FDF714FD01464FF076
:102C10007E50FDF71BFE824600267F2E16D8454FBC
:102C200057F83600FDF70AFD5146FDF75BFD45F804
:102C3000260007EBC609D9F80400FDF7FFFC514652
:102C4000FDF750FD44F826000136E6E73F4B1B68D0
:102C5000032B0ED8DFF8F890344B13F808A0BAF124
:102C6000000F09D0344B1B78002B4CD000260020DD
:102C700004E0DFF8E090EFE7002600207F2E05D883
:102C800055F82610FDF726FC0136F7E74FF0705196
:102C9000FDF728FD0646BAF1000F18D149464FF05E
:102CA0007E50FDF715FC08F10203254A02EB830B69
:102CB000DBF80410FDF716FD074631464846FDF7E0
:102CC00011FD01463846FDF705FCCBF804001B4B0F
:102CD000D3F800B0BBF1000F15D1BAF1000F05D148
:102CE00008F10202164B03EB82035E68BBF17F0F13
:102CF00009D8314655F82B00FDF7EAFB45F82B00C3
:102D00000BF1010BF2E7002500207F2D24D854F8A9
:102D10002510FDF7DFFB0135F7E700BF10000020AD
:102D2000AC380020D8AE0008200800202818002069
:102D30000008014020040020401D0020F81C002055
:102D40008C2200202418002024080020001D0020D0
:102D50006666663F9A99993E4FF07051FDF7C2FC46
:102D6000064649464FF07E50FDF7B2FB08F10605D6
:102D70002A4B03EB85056968FDF7B4FC82463146B2
:102D80004846FDF7AFFC01465046FDF7A3FB06465B
:102D90006860234B1D6855B97F2D08D8314654F81B
:102DA0002500FDF795FB44F825000135F4E74FF4C5
:102DB000806200211B4804F054F81B4B00221A606B
:102DC0001A4BC3F800801A4B019A1A60032A7FF647
:102DD00000AF04221749184804F010F8D8B10122B6
:102DE000164B1A60134B1A6813490A6000211960C8
:102DF0000B4B1B685BB912F47F0F08BF0121104B0E
:102E00001960130E0CBF012200220E4B1A600E4BEC
:102E100020225A61DDE60022E2E700BF8C2200207A
:102E2000F81C0020200400202008002020000020A2
:102E3000AC3800202818002024180020041D002091
:102E4000B03800202C1C002000080140F0B583B0F1
:102E50000C4616461F4621F0004502281ED00328C6
:102E600038D042492846FDF7DBFD00285DD14049B6
:102E70002846FDF7D5FD002862D13E492846FDF7DA
:102E8000CFFD002867D12046FDF7C6FACDE9000145
:102E9000394A3946304604F0BDFE0EE03349284633
:102EA000FDF7BEFD58B12046FDF7B6FACDE90001A9
:102EB000324A3946304604F0ADFE03B0F0BD20463C
:102EC000FDF7AAFACDE900012B4A3946304604F055
:102ED000A1FEF2E725492846FDF7A2FD78B924496D
:102EE0002846FDF79DFDA8B12046FDF795FACDE9EE
:102EF0000001224A3946304604F08CFEDDE72046C8
:102F0000FDF78AFACDE900011D4A3946304604F042
:102F100081FED2E72046FDF77FFACDE90001164A8F
:102F20003946304604F076FEC7E72046FDF774FACE
:102F3000CDE90001134A3946304604F06BFEBCE788
:102F40002046FDF769FACDE900010D4A39463046C1
:102F500004F060FEB1E72046FDF75EFACDE900011E
:102F6000064A3946304604F055FEA6E700002041E7
:102F70000000C84200007A4484AC00087CAC000821
:102F80008CAC000894AC00082DE9F84F81468846C7
:102F900093461F46DDF828A0002611E0012202F02A
:102FA00047F96400A4B20135BD4208D205EB09001F
:102FB00006EB080114F4004FF0D10022EFE70136D0
:102FC000564507D23BF81640C7F110039C40A4B207
:102FD0000025E9E7BDE8F88F08B502F009FA02F02C
:102FE0008DF8012002F056F802F062F84FF4FA7002
:102FF000FEF7D8FC08BD000030B583B0002002F019
:1030000049F80021084602F08FF9254C012221469B
:10301000244802F077F9244D1FA3D3E90023234964
:10302000284604F02BFE2846FDF768FD237800FBB8
:1030300003F0C0F17F00002180B202F075F9012297
:103040002146284602F05EF90E21102002F06CF9AC
:1030500001221749174802F055F9012500951F2351
:1030600003227F21002002F089F92621052002F0A9
:103070005BF92A462146104802F044F93421052024
:1030800002F052F92A4621460C4802F03BF902F0C0
:103090000FF803B030BD00BFE17A14AE47E1DA3F6C
:1030A00010AC00089CAC0008301C0020A4AC000848
:1030B00008AC0008ACAC0008B8AC0008C8AC00080C
:1030C000F0B585B0C24BDC7A002001F0E3FFC14BC4
:1030D0001B78012B00F0DC8204F00204022B00F0CC
:1030E00027830021084602F01FF9002C00F03A81E6
:1030F000B9480122B94902F005F90021232002F064
:1031000013F9B74B1B88B3F57A7F80F02D81B54A50
:103110001A21B54804F07EFD0122B049B24802F000
:10312000F1F8B24B1B68002B40F02881A84BDB7AEA
:1031300013F0040F40F0318100230393A44B9B7ADA
:10314000012B00F06981002B00F03681022B00F08A
:103150006E811021002002F0E7F80122A449A24864
:1031600002F0D0F800210A2002F0ECF803A8FEF7E4
:1031700079FF0546964B9B7A012B00F08881002B46
:1031800000F06081022B00F0968101229849964858
:1031900002F0B8F80021062002F0D4F88C4B9B7A9C
:1031A000012B00F0C881002B00F0B381022B00F04E
:1031B000D481904B1B68002B00F0EE8148228A4B93
:1031C0001A708D4B1B68002B00F0E8814823864D58
:1031D0006B700023AB70814E30784000C0F17F00EF
:1031E000152180B202F0A0F801223146284602F0F3
:1031F00089F8824B5D6800212846FDF725FC0028F0
:1032000000F0CE812846FEF725FD04AB43F8040DFF
:103210001846FEF727FF06462821002002F084F812
:10322000714D1A232A4603990420FFF70FFE284602
:10323000FDF764FC0346202E01D02E5401335A1CA6
:1032400069485621C154002383540122634902F086
:1032500059F86A4BDD6800212846FDF7F5FB002888
:1032600000F0A0812846FEF7F5FC04AB43F8040DFE
:103270001846FEF7F7FE064628213E2002F054F8D5
:10328000594D1A232A4603990420FFF7DFFD2846EB
:10329000FDF734FC0346202E01D02E5401335A1C76
:1032A00051484121C1540023835401224B4902F06B
:1032B00029F8474B9B7A012B40F27681022B40F094
:1032C0000D82002C00F0C8814C4B1B6C04A840F808
:1032D000043DFEF7C7FE06463521002002F024F823
:1032E000414D1A232A4603990420FFF7AFFD2846D3
:1032F000FDF704FC0346202E01D02E5401335A1C46
:1033000039484821C154002383540122334901F034
:10331000F9FF002C00F0A381384B1B6D04A840F886
:10332000043DFEF79FFE064635213E2001F0FCFFDE
:103330002A4D01222946324801F0E4FF2A4C1A2383
:10334000224603990320FFF781FD2046FDF7D6FBB7
:10335000431C26540022E25401222946204601F053
:10336000D1FFBBE12748C4E6274AA2FB03239B0900
:10337000264A1A211C4804F04DFCCDE6174D28784A
:103380008000C0F17F00002180B201F0CDFF01225A
:1033900029461F4801F0B6FFCEE6104D2878800080
:1033A000C0F17F00002180B201F0BEFF012229465A
:1033B000184801F0A7FFBFE634B1104B1B6C039314
:1033C000094B4C221A80C4E60C4B9B6AF7E700BFFE
:1033D0008C220020401D002018AC000810AC000812
:1033E0001800002028AC0008301C0020F81C002029
:1033F00008AC0008B03800202C1C0020502400200D
:103400004CAC00081CAC0008D34D621030AC000876
:1034100038AC000840AC000834B1924BDB6B03932E
:10342000914B43221A8094E68E4B5B6AF7E734B1E6
:103430008C4B5B6C03938C4B52221A8089E6894B30
:10344000DB6AF7E770280AD06E2819D075280CD0EF
:103450001A23854A03990420FFF7F8FC95E683496F
:103460000398FDF73FF9039075250398FCF7D4FF07
:10347000CDE900017E4A1A217B4804F0CBFB84E6AB
:103480007C490398FDF72EF903907525EDE7702828
:1034900006D01A23744A03990420FFF7D7FC74E678
:1034A0000398FCF7B9FFCDE90001714A1A216E4873
:1034B00004F0B0FB69E670280CD06E281BD075288C
:1034C00020D06D280CD01A23674A03990420FFF7F7
:1034D000BDFC5AE668490398FDF704F903906D2591
:1034E0000398FCF799FFCDE90001614A1A215E4873
:1034F00004F090FB49E65D490398FDF7F3F803906B
:103500006D25EDE75B490398FDF7ECF803906D2519
:10351000E6E7202D0DD0544B1D7001235A1C524854
:103520004821C154002383540122544901F0EAFE8A
:103530003FE60023F2E7202D0DD04B4B1D700123F9
:103540005A1C49484621C1540023835401224B4947
:1035500001F0D8FE2DE60023F2E7202D17D04248D7
:103560000570002343700122444901F0CBFE0DF1A8
:103570000A0102A801F0DEFEBDF808001223009344
:103580000B233F4A0D210230FFF7FEFC11E600211C
:10359000042001F0D7FEEAE74C2210E64C2316E6A1
:1035A00000252FE600255DE6002C4FD02D4B9B6CAF
:1035B00004A840F8043DFEF755FD074635210020DC
:1035C00001F0B2FE2F4E012231462F4801F09AFE43
:1035D0003521142001F0A8FE234D1A232A46039911
:1035E0000320FFF733FC2846FDF788FA431C2F54CD
:1035F0000022EA5401223146284601F083FE44B3FA
:10360000184B1B6D04A840F8043DFEF72BFD064641
:1036100035213E2001F088FE1A4D012229461B4823
:1036200001F070FE104C1A23224603990320FFF785
:103630000DFC2046FDF762FA431C26540022E2549A
:1036400001222946204601F05DFE47E0054B1B6B39
:10365000AEE7044B9B6BD5E7024B9B6A36E6014B0A
:103660009B6B5BE650240020301C0020BD37863564
:103670007CAC00086F12833A5F70893008AC000898
:10368000B4AE000810AC000848AC00084CAC000810
:10369000414B1B68414CC3F10203414A1A212046A9
:1036A00004F0B8FA0521002001F03EFE01223D4958
:1036B000204601F027FE3C4B1B88B3F57A7F2DD2C4
:1036C0003A4A1A21204604F0A5FA2321002001F0ED
:1036D0002BFE01223349314801F014FE344B187897
:1036E000C0F17F00352180B201F01EFE314BDB7A44
:1036F00013F0010F4DD1304A284C1A21204604F016
:1037000089FA01222A49204601F0FCFD01F0D0FC93
:103710002A4A13680133136005B0F0BD284AA2FBA2
:1037200003239B09274A1A211C4804F073FACCE7AB
:10373000194B1B68194CC3F10203234A1A21204676
:1037400004F068FA0521002001F0EEFD0122154980
:10375000204601F0D7FD144B1B88B3F57A7F0ED2BB
:10376000124A1A21204604F055FA2321002001F0C4
:10377000DBFD01220B49094801F0C4FDAEE7104A08
:10378000A2FB03239B090F4A1A21044804F042FAC2
:10379000EBE70E4AB0E700BF941C0020301C00206D
:1037A00050AC000808AC0008180000205CAC000811
:1037B00010AC00088C22002024AC0008FC1C002067
:1037C000D34D621064AC00086CAC000820AC00085B
:1037D0007047000008B53F4A136823F0070343F021
:1037E000020313603B4B1B6803F00703022BF9D164
:1037F000394A136843F480331360374B1B6813F462
:10380000003FFAD0344A536A43F001035362324B0B
:103810005B6A13F0020FFAD02F4A536823F47C132B
:1038200043F4E8135360136843F0807313602A4B2A
:103830001B6813F0007FFAD0274B5A6822F0F00281
:103840005A605A6822F4E06242F480625A605A6810
:1038500022F460525A605A6822F0030242F00202D7
:103860005A601D4B5B6803F00C03082BF9D11B4811
:10387000FEF7AEF8184A536823F4404343F400437C
:103880005360FDF7DFFC164B1868FEF77BF8154B0D
:10389000DA68C2F30222C2F10703042B28BF042313
:1038A0001946131D062B13D9033A4FF0FF338B40F3
:1038B000DB4303F00F0393401B01DBB2094A82F89C
:1038C0002330A2F54F62136843F00203136008BD72
:1038D0000022EAE7002002400010024000A24A0451
:1038E0002800002000ED00E02DE9F04F8DB000230E
:1038F0000A930B93099304930593069307930893F4
:10390000AB4A136823F001031360AA4B9A6942F093
:1039100004029A619A6902F004020392039A9A6976
:1039200042F400729A619A6902F400720292029A59
:10393000A14C216840F2011595FAA5F2B2FA82F283
:1039400092000F2000FA02F221EA020295FAA5F590
:1039500040F2022595FAA5F1B1FA81F1890000FA49
:1039600001F122EA010295FAA5F5226093498A68DD
:1039700022F001028A6001F580618A6822F001026A
:103980008A605A6942F001025A615B6903F00103DF
:103990000193019B8A4B1A6822F001021A601A688F
:1039A00022F4804222F010021A601A6822F4405277
:1039B00042F400521A601A6842F020021A601A6833
:1039C00022F040021A601A6842F080021A601A68F7
:1039D00022F4407242F400721A601A6822F44062C3
:1039E00042F400621A60774A9A60774ADA605A684D
:1039F000120C120442F480725A60744A0121516020
:103A00001A6842F008021A601A6842F004021A604A
:103A10001A6842F002021A606D4BDA68C2F30222A1
:103A2000C2F10703042B28BF04231946131D062BDC
:103A300001D9033A00E000224FF0FF338B40DB4313
:103A400003F0030393401B01DBB2624A82F80B339D
:103A50004FF40063136000240A940B94574E0AA994
:103A60003046FDF7D5FD0CA94FF4803341F80C3DED
:103A70003046FDF7B1FD4FF40023049305940694FE
:103A800007944FF48073089304A93046FDF7D4FDE2
:103A900051494FF4407999FAA9F3B3FA83F34FF4FB
:103AA000007A2AFA03F351F8232022F01F0241F88A
:103AB000232020394FF0007B9BFAABF3B3FA83F35A
:103AC0002BFA03F351F823204FF0F87595FAA5F07F
:103AD00022F0070295FAA5F042F0060241F82320F1
:103AE000344B9A6942F480629A619B6903F4806363
:103AF0000093009B0A940B94384F0AA93846FDF7AF
:103B000087FD4FF460230493059406944FF0020858
:103B1000CDF81C80089404A93846FDF78DFD304A85
:103B200099FAA9F9B9FA89F92AFA09F952F8293062
:103B300023F01F0343F0010342F8293029489BFA80
:103B4000ABF3B3FA83F32BFA03F350F8232095FA7F
:103B5000A5F1B1FA81F14FF4401424FA01F14FF0CC
:103B6000070C0CFA01F122EA010295FAA5F5B5FA63
:103B700085F524FA05F5062404FA05F5154340F801
:103B80002350B36843F00103B360BB6843F0010303
:103B9000BB604046FDF706FF134B1A68B36843F05D
:103BA0000403B360BB6843F00403BB6024E000BFC0
:103BB00000040040001002400008014000240140C1
:103BC000080002404C2401402C1800200000024054
:103BD00000ED00E000E100E02C240140002801405D
:103BE0002C2801400C2801404C2400201C4B1B6851
:103BF0009B1A632B0AD830BF1A4B9B6813F0040F33
:103C0000F4D1194B9B6813F0040FEFD10220FDF79C
:103C1000C9FE154A936823F001039360114B99681C
:103C200021F0010199601148016841F00101016032
:103C30006FF0020111601960916841F0010191601B
:103C4000996841F001019960916841F4A001916087
:103C50009A6842F480129A600DB0BDE8F08F00BF00
:103C60004C240020002401400028014008000240AC
:103C700010B586B000230193029303930493059338
:103C800003F1804303F50433DA6942F00202DA619A
:103C9000DB6903F002030093009B174B1B889A011A
:103CA000164B5B6803EB5203B3FBF2F3013B039348
:103CB000134C01A92046FDF7C7FD236843F080039C
:103CC0002360A36823F4804323F00703A3606368A1
:103CD00023F0700343F020036360A36823F08003A4
:103CE000A360E36843F48073E360236843F0010357
:103CF000236006B010BD00BF18000020641D002026
:103D00000004004030B591B0002309930A930B934F
:103D10000C930D930E930F93079308936C4CA36928
:103D200043F48043A361A36903F480430393039B9B
:103D3000A36943F00403A361A36903F0040302939E
:103D4000029B644B04930923059302230693624D5F
:103D500004A92846FDF79BFC604B049308230593B8
:103D60000123089304A92846FDF791FC636943F0F9
:103D700001036361636903F001030193019B584BE5
:103D80001A6822F001021A601A6822F4804222F0B6
:103D9000100242F010021A601A6822F440521A60AF
:103DA0001A6822F020021A601A6822F040021A6093
:103DB0001A6842F080021A601A6822F440721A608F
:103DC0001A6822F440621A60464A4FF480515160EA
:103DD0001A6842F008021A601A6842F002021A6079
:103DE000414BDA68C2F30222C2F10703042B28BF59
:103DF00004231946131D062B66D9033A4FF0FF33EF
:103E00008B40DB4303F0010393401B01DBB2374AD5
:103E100082F80E334FF4804313604FF4612309930B
:103E200000230A930B930C930C220D920E930F9385
:103E30002F4C09A92046FDF73FFD236923F4904349
:103E40002361636923F02A0363612A4A52E8003F31
:103E500043F0800342E800310029F6D1244B1A6870
:103E60000092009A5A680092009A6FF020021A603D
:103E7000214A52E8003F43F0200342E80031002984
:103E8000F6D1194BDA68C2F30222C2F10703042B00
:103E900028BF04231946131D062B17D9033A4FF0E8
:103EA000FF338B40DB4303F0010393401B01DBB284
:103EB0000E4A82F82533202353600D4AD36843F419
:103EC0000053D36011B030BD002297E70022E6E72F
:103ED0000010024002000204000801400400040433
:103EE000440002400000024000ED00E000E100E07C
:103EF00000380140143801400C3801402DE9F041F0
:103F00008CB04FF00008CDF82880CDF82C804F4BB6
:103F10009A6942F004029A619A6902F004020692D8
:103F2000069A9A6942F008029A619A6902F00802B8
:103F30000592059A9A6942F010029A619A6902F014
:103F400010020492049A9A6942F020029A619B69D5
:103F500003F020030393039B3D4E042373614FF44E
:103F600080737361202373614023736180237361C5
:103F7000384CFF23636101270897022309930CAD96
:103F800040F2044345F8143D29463046FDF77FFBD7
:103F9000314B079329463046FDF779FB42F2200367
:103FA000079329463046FDF772FB44F2400307931E
:103FB00029463046FDF76BFB48F2800307932946FC
:103FC0003046FDF764FB089703230993CDF828805A
:103FD0004FF6FF73079329462046FDF758FB082349
:103FE00008930B971D4B079329462046FDF74FFB7F
:103FF0001B4B079329462046FDF749FB194B0793B6
:1040000029462046FDF743FB4FF49033A3614FF45C
:104010000052A261A361A3690293029B4FF4A033F3
:10402000A3614FF48042A261A361A3690193019B44
:104030004FF4C033A3614FF40042A261A361A369AE
:104040000093009B0CB0BDE8F08100BF001002405F
:1040500000080140000C0140010001042000200480
:10406000400040048000800482B0214B5A6942F035
:1040700001025A615B6903F001030193019B1D4B2F
:104080001A6822F001021A601A6822F4804222F0B3
:10409000100242F010021A601A6842F440521A608C
:1040A0001A6842F020021A601A6822F040021A6070
:1040B0001A6842F080021A601A6822F4407242F4D0
:1040C00080721A601A6822F4406242F480621A60B8
:1040D000094ADA60094A9A605A68120C120442F0DE
:1040E00040025A601A6842F001021A6002B070473A
:1040F0000010024030000240CC2300200C0C014094
:1041000082B0124BD3F8043407E0104AC2F80434EA
:104110000021C2F80814D2F800240D4A126812F0E7
:10412000200F0AD00A4A5268D2B20849CA54013351
:10413000B3F5806FE9D30023E7E7054B1A680192D6
:10414000019A5B680193019B02B070477C1D0020BF
:104150000038014008B54FF49670FDF7EDFC08B546
:104160006420FDF7E9FC08B56420FDF7E5FC08B51F
:104170006420FDF7E1FC08B56420FDF7DDFC704725
:104180007047704738B5FDF737F8464B1A6801326B
:104190001A601C68002322E0013A12B237E00022C4
:1041A00058001844C500404929440A81C96849B9E2
:1041B0001D2A07DD3C4A2A44002111751161517501
:1041C000D4600BE009B1002A27DD002940D0611A34
:1041D00003EB4302D000344A024411610133022B45
:1041E00049D803EB4301CA002F4988580028F5D06D
:1041F0005A001A44D50029440A894D688168C94388
:1042000001EA152189B20029C6D0013212B2002A72
:10421000C5DB1E2AC4DD1E22C2E703EB4302D00029
:10422000214A0244527D3AB11F4A024400211161E1
:104230001175D1605175D1E7611A58001844C50055
:10424000194A2A441161012111750021D160C5E785
:1042500003EB4302D100144A0A44527D002ABDD028
:1042600059001944C800104A024400211161117517
:10427000D1605175B2E70D4B1B68002B03DD0B4A73
:104280001368013B13600A4BD3F80824D3F80834B1
:1042900001339A4205D2064AD2F808340133C2F8F3
:1042A000083438BD4C2400204C1C00202400002081
:1042B0007C1D002008B5104B1B6813F0080F02D0BE
:1042C0000D4B08225A600C4B1B6813F0040F05D1EC
:1042D000094B1B6813F0020F07D108BD0748FEF712
:1042E000A3FB054B04225A60F2E70548FEF79CFB4E
:1042F000014B02225A60F0E7000002402C18002017
:104300002C1A00200B4B1B6813F4004F04D1094BEF
:104310001B6813F4005F0BD0074A136823F00103F6
:104320001360044B4FF400425A604FF400525A603D
:10433000704700BF000002404400024008B5FFF78C
:10434000DFFE08BD38B5814BDB68ABB17F4B5B6AE4
:1043500093B17E4BDB6B7BB97C4B1B69B3F5487F1C
:10436000C0F08880794B9B6AB3F5487FC0F08280AB
:10437000FDF79CFCFDF7C6FB754B1B78002B4FD15E
:10438000724BDB6833B1714B5B6A1BB96F4BDB6BF4
:10439000002B51D06D4B1B7D002B68D16B4BDB6824
:1043A00033B96A4B5B6A1BB1684BDB6B002B6DD07A
:1043B000664B93F82C30002B40F08780634BDB6812
:1043C0003BB9624B5B6A23B9604BDB6B002B40F05F
:1043D00094805E4B93F84430002B4BD05B4B93F8AA
:1043E0004530002B46D1594B012283F84520594BCB
:1043F00000221A60584AD37A83F00403D37213F070
:10440000040F06D1937A0133022B00D90023524ABC
:104410009372524B41F288321A60FEF751FE29E046
:104420000023022B26D803EB4302D100474A0A445B
:10443000012151750B44F4E7444B1B69B3F5FA7F36
:1044400018D3424B5B7DABB90125404B5D75002114
:10445000404B196064242246414802F002FD3C4B67
:104460001D702046FDF7AAFEFEF72AFE02E0374B3C
:104470005B7D03B138BD354B01225A75354A13684F
:1044800083F001031360FEF71BFEF3E72F4B9B6ADB
:10449000B3F5FA7FEED32D4B93F82D30002BE9D1F5
:1044A0002A4B012283F82D2000212A4B1960642415
:1044B00022462B4802F0D5FC254B02221A702046DA
:1044C000FDF77CFEFEF7FCFDD4E7204B93F82D3082
:1044D000002BCFD11D4B012283F82D201D4B002234
:1044E0001A601D4AD37A83F00203D3721B4B41F248
:1044F00088321A60FEF7E4FDBCE7144B1B6CB3F581
:10450000FA7FB7D3114B93F84530002BB2D10F4B44
:10451000012283F845200F4B00221A600E4B1B89A5
:10452000B3F57A7F0ED00C4B4FF47A721A810A4B96
:104530001889FDF743FE094B41F288321A60FEF7F5
:10454000BFFD97E7044B64221A81F0E74C1C002062
:10455000401D0020F81C00208C2200202400002098
:10456000941C0020104BDB7A13F0010F00D1704730
:1045700070B50E4D2C460E4B44F8063B4FF480565A
:1045800032460C49204602F048FC324621460020C3
:10459000FDF74AFAA8806420FDF702FB41F206010C
:1045A0002846FDF713FB70BD8C220020A4280020B4
:1045B0009619621924080020002800F04481F0B503
:1045C00089B00C460546002900F08D804CB12B784F
:1045D000202B06D8013C2246691C284602F028FC04
:1045E000F4E7002C7FD00026B44207D9A85D20282C
:1045F00004D903F0B8FBA8550136F5E7B44201D958
:104600000023AB550024274600E0013404EB4402AC
:1046100093008F4AD15871B13246284603F091FB7E
:104620000028F2D137B904EB44039A00884B1344B5
:104630001F7AEAE707466420FDF7B2FA013F0B2F25
:1046400000F2FB80DFE807F00606333B5166768612
:1046500098A7B6BF00252C4600E0013404EB4402C5
:1046600093007B4AD05828B1FCF748FAA842F4D905
:104670000546F2E77749002002F0B2FA002404EB85
:1046800044029300724AD6586EB30A20FDF788FAA6
:1046900004EB44039A006E4B13445B68009333466B
:1046A0002A466D49002002F09BFA0134E7E76B4986
:1046B000002002F095FAFDF7F9FAFDF723FA6849B0
:1046C000002002F08DFA0021664B19606424224616
:1046D000654802F0C6FB654B01221A702046FDF7C3
:1046E0006DFDFEF7EDFC09B0F0BD6149002002F060
:1046F00077FA00215B4B1960642422465A4802F085
:10470000B0FB5A4B02221A702046FDF757FDFEF708
:10471000D7FCE8E7574AD37A23F00103D372564B0C
:1047200041F288321A605549002002F059FAFEF72A
:10473000C7FCD8E74F4AD37A43F00103D3724E4BFC
:1047400041F288321A604E49002002F049FAFEF721
:10475000B7FCC8E7434A136883F00103136033B121
:104760004849002002F03CFAFEF7AAFCBBE74649A4
:10477000002002F035FAF7E73A4B00221A603D4A72
:10478000D37A23F00203D3723B4B41F288321A6092
:10479000FEF796FCA7E7334B00221A60354AD37A1E
:1047A00043F00203D372344B41F288321A60FEF7B1
:1047B00087FC98E73549002002F012FA6420FDF7E3
:1047C000F1F8FDF79FF9324B1B78002B27D0314AC7
:1047D0002F4B5B782BB330492D4B9B781BB32F4865
:1047E0002B4BDB780BB32E4C294B1B79FBB12D4D9A
:1047F000274B5B79EBB12C4E254B9B79DBB92B4BCF
:1048000006930596049503940290019100920EA3DD
:10481000D3E900232649002002F0E2F963E7254AA4
:10482000D6E72549D8E72548DAE7254CDCE7254DCA
:10483000DEE7254EE0E7254BE2E72A462449002043
:1048400002F0CEF94FE77047E17A14AE47E1DA3F64
:10485000E8AE000878AD0008A4AD0008B4AD0008CB
:10486000CCAD0008F81C0020941C0020401D002046
:10487000E8AD00088C2200202400002008AE0008CB
:1048800020AE000834AE000844AE000854AE000864
:10489000741D002020AD000828AD000830AD0008D0
:1048A00038AD000848AD000858AD000870AD0008EC
:1048B00064AE000824AD00082CAD000834AD00083B
:1048C00040AD000850AD000860AD000868AD0008BC
:1048D00094AE000870B54A4BD3F8082440F6B733BD
:1048E0009A420ED9464BD3F80424D3F800349A42A6
:1048F0000FD0434BD3F80424C3F800240022C3F89C
:104900000C253F4BD3F80044D3F80434A3421ED106
:1049100070BD3B4BD3F80C35002BF2D0E9E7C4F562
:1049200080651FE0364BD3F80C2503F20C4313448B
:104930008B4250D9324B0022C3F8082403F20C43B7
:10494000C91A914251DC2E4B0022C3F80C252C4B86
:10495000D3F80434A342DBD0294BD3F80454AC423F
:10496000DDD82D1B002DD3D0254BD3F80C35C3F546
:104970008073AB4204D2224BD3F80C55C5F5807539
:104980001F4ED6F80C0500F5816030442A463119D7
:10499000043002F042FAD6F80C352B44C6F80C3538
:1049A0002C44B4F5806F00D300241549C1F80044AD
:1049B00001F20C41124BD3F80C2503F20C431344C3
:1049C0008B42AFD90B780D2BACD00A2BAAD0002B81
:1049D000A8D00131EEE70A4BD3F80C35FE2BB6D93F
:1049E000074B0022C3F80C25B1E7A3F20C40431893
:1049F00083F80C2400F20C40FFF7DEFDA3E700BFB4
:104A00007C1D00202DE9F041A54B1B78012B04D023
:104A1000022B00F0A380BDE8F0810024072C0BD806
:104A2000A04D05EB8405A04B53F824106868FBF7F4
:104A300051FD68600134F1E70025072D1BD89B4923
:104A40009B4B53F82500FBF74DFE064600F06CFE2D
:104A50002B1D944C04EBC30401466068FBF73AFD40
:104A60006060304600F0E0FE0146A068FBF732FDD2
:104A7000A0600135E1E78F4B41F288321A60894B23
:104A80001F6801371F60022FC5DD8B4B1D88B5F1F4
:104A9000640418BF01240026072E15D8814B03EBB0
:104AA0008603D3F804803846FBF7C8FD014640462C
:104AB000FBF7CCFE2301234433440A337F4A02EB45
:104AC000830358600136E7E7002613E0331D754A7B
:104AD00002EBC3033946986800F0E4FE7849FBF71F
:104AE00001FE2301234433441233744A02EB83034F
:104AF00058600136072E0CD8331D6A4A02EBC303F7
:104B00005F6800213846FBF781FF0028DED06D4842
:104B1000E7E723011C44A200684B1344012283F8F9
:104B20006C20642D10D06420FDF73AF8664900200F
:104B300002F056F8614B1889FDF740FB584B0022F4
:104B40001A70FEF7BDFA66E764220021554802F0AC
:104B500088F94FF47A70FDF731FBF2E70024072C57
:104B60000BD8504D05EB84054F4B53F82410686863
:104B7000FBF7B0FC68600134F1E70025072D1BD876
:104B80004A494B4B53F82500FBF7ACFD064600F0B5
:104B9000CBFD2B1D434C04EBC30401466068FBF7BF
:104BA00099FC6060304600F03FFE0146A068FBF7CC
:104BB00091FCA0600135E1E73E4B41F288321A607A
:104BC000384B1F6801371F60022F7FF724AF3A4B25
:104BD0001D88B5F1640418BF01240026072E15D8DE
:104BE000304B03EB8603D3F804803846FBF726FDF1
:104BF00001464046FBF72AFE2301234433442C336D
:104C00002E4A02EB830358600136E7E7002613E0E3
:104C1000331D244A02EBC3033946986800F042FE74
:104C20002749FBF75FFD2301234433443433234AF0
:104C300002EB830358600136072E0CD8331D194A46
:104C400002EBC3035F6800213846FBF7DFFE002854
:104C5000DED01C48E7E723011C44A200174B134495
:104C6000012283F8F420642D10D06420FCF798FF13
:104C70001649002001F0B4FF104B1889FDF79EFA89
:104C8000074B00221A70FEF71BFAC4E664220021CB
:104C9000044802F0E6F84FF47A70FDF78FFAF2E775
:104CA000401D0020941C0020201D002035FA8E3C61
:104CB000441D002024000020180000208C22002029
:104CC000E12E65420000C07FDCAC0008FCAC0008AF
:104CD00070B58AB09E4A936943F00103936193696A
:104CE00003F001030993099BD36943F08053D36117
:104CF000D36903F080530893089B96494B6823F0CF
:104D0000E06343F000734B60934B596841F480714A
:104D10005960596841F400715960596841F48061E3
:104D20005960596841F400615960596841F48051F3
:104D30005960596841F400515960596841F4004183
:104D40005960596841F480315960596841F4804193
:104D500059608248C16821F4E0610904090C804B64
:104D60000B43C360536AC3F3C0637E4C2370536A22
:104D7000C3F380636370536AC3F30073A370536A11
:104D8000C3F34073E370536AC3F380732371536AB0
:104D9000DB0F6371936803F00103A371536A43F05F
:104DA00080735362704D2B680021586802F07CFEBE
:104DB0002B680021986802F077FE2B680021D868E4
:104DC00002F072FE2868002302221946806802F071
:104DD00073FE2868002302221946C06802F06CFEA8
:104DE000624B634A1A60634959609A6101F120116C
:104DF000D9611A63604A5A63604D614B6B604FF42E
:104E00007A732B810123AB72EB7A43F00103EB72CF
:104E1000FCF728FEFCF7DEF9FEF7DCFC5948FCF74E
:104E200003FDFFF76BF8FEF76DFF4FF07251564828
:104E3000FDF7FAF8FCF78CFF69684FF07E50FBF73E
:104E400005FD524B1860524B1A68524B53F8220022
:104E5000514B1860FCF70AFF2889FDF7AFF9FEF700
:104E6000BBF8FEF7C9F82378002B2AD04B4B3D4AFC
:104E70005278002A27D04A4A3A49897829B34949C1
:104E80003848C07818B34848364C24790CB3474C9E
:104E9000344D6D79FDB1464D324EB679EEB1454E89
:104EA000069605950494039002910192009326A31F
:104EB000D3E900234049002001F092FE3F4B1868DF
:104EC0001FE03F4BD3E73F4AD6E73F49D8E73F488B
:104ED000DAE73F4CDCE73F4DDEE73F4EE0E70133EA
:104EE000022B0AD803EB4301CC0020492144098955
:104EF00009B20029F3DD1046F1E7121AB2F57A7F04
:104F000004D230BF2D4B1A680023E9E70022022AA1
:104F10000CD853001344D900144B0B44002159758D
:104F20001981D960197519610132F0E74FF47A706F
:104F3000FCF738FD294B00221A70FFF795F8FEF7B1
:104F4000D3FCFEF795FE4EE0E17A14AE47E1DA3F7E
:104F50000010024000000140002004E000ED00E0ED
:104F60000003FA05741D0020300000204C1C0020B6
:104F7000000C014020002004800080048C220020CE
:104F800000007A44641D0020081D00201400002049
:104F9000AC380020D8AE00085024002020AD000816
:104FA00028AD000830AD000838AD000848AD000855
:104FB00058AD000868AD000878AF00084C24002008
:104FC00024AD00082CAD000834AD000840AD000849
:104FD00050AD000860AD000870AD00081000002062
:104FE0001B4B1B6803B3BFF34F8F30BFFFF7AAF90A
:104FF000FFF770FC174B1968174A52F82110174A2F
:1050000011601B68032BEBD9FDF79CFBFFF7FAFC43
:10501000FEF756F8FFF7A6FA114A1368013313603A
:105020000C4B00221A60DBE76420FCF7B9FD0D4948
:10503000002001F0D5FDFCF79DFE002804DB044BA9
:105040004FF0FF321A60CEE7FCF794FEF7E700BF9F
:1050500024000020AC380020D8AE000850240020E6
:10506000001D0020B0AF000808B54FF6FF71012009
:10507000FCF720FD08BD10B582B000248DF8044077
:105080008DF80500022201A9782000F0E5FA2046FB
:1050900002B010BD08B530B1FF214FF48062034863
:1050A00001F0DFFE08BD0021F7E700BFB03B0020A4
:1050B00010B5A2B040238DF80430002418E0A4F10C
:1050C0005000C0B2FFF7D7FF0020FFF7D4FF102039
:1050D000FFF7D1FF8022084901EBC4110DF1050053
:1050E00001F09BFE812201A9782000F0B5FA01347D
:1050F000072CE4DD22B010BDB03B002010B500232A
:105100000CE0DA08D201474921F8132003F0070127
:1051100001228A404449CA5401339BB23F2BF0D943
:105120006420FCF77BF8AE20FFF7A5FF04462020A3
:10513000FFF7A1FF04441020FFF79DFF0444B020B7
:10514000FFF799FF0444C820FFF795FF04440020AF
:10515000FFF791FF04441020FFF78DFF0444402027
:10516000FFF789FF04448120FFF785FF0444FF20F7
:10517000FFF781FF0444A120FFF77DFF0444A62030
:10518000FFF779FF0444A820FFF775FF04443F2090
:10519000FFF771FF0444A420FFF76DFF0444D32000
:1051A000FFF769FF04440020FFF765FF0444D520A2
:1051B000FFF761FF0444F020FFF75DFF0444D920AE
:1051C000FFF759FF04442220FFF755FF0444DA207B
:1051D000FFF751FF04441220FFF74DFF0444DB208A
:1051E000FFF749FF04442020FFF745FF04448D20CA
:1051F000FFF741FF04441420FFF73DFF0444AF20B4
:10520000FFF739FFE04201D0012010BD0020FFF779
:1052100041FFFFF74DFF054B002018805880012209
:105220005A71F2E7B438002034390020A83B00203E
:105230007F2814D83F2912D80C4B1B7913B1B2FA2E
:1052400082F252090A4B33F811301844094B595C69
:10525000012A05D0084A135C23EA0103135470475E
:10526000054A135C0B431354704700BFA83B002052
:10527000B438002034390020B03B00202DE9F84339
:105280001F4B1B880C7823447F2B33DC1C4B5B8823
:105290004C7823443F2B30DC90460D468146002657
:1052A00015E04246FFF7C4FF01342B78A3420DD925
:1052B000134B188820445988314407FA04F313F437
:1052C000004FEED1B8FA88F25209EBE701366A785E
:1052D000B24208D96968A9F1200302FB036331F8DF
:1052E00013700024E1E72B78054A11880B441380E2
:1052F000484600E00020BDE8F8830020FBE700BF3F
:10530000A83B002070B504460E46154623784BB1E5
:105310002A4631461846FFF7B1FF2378984201D15B
:105320000134F3E7184670BD014B1880598070476F
:10533000A83B0020024B1A8802805B880B807047D4
:10534000A83B00200C4B1B881844002810DD802847
:10535000A8BF802080B2084B18805B8819440029C0
:1053600008DD4029A8BF402189B2034B598070470E
:105370000020F0E70021F8E7A83B00202DE9F041EC
:1053800004460D4690461F469DF8186005E03246DB
:1053900039462046FFF74CFF4444AC42F7D9BDE8FC
:1053A000F081000000F0BEF90B480C490C4A0023C4
:1053B00002E0D458C4500433C4188C42F9D3094ACB
:1053C000094C002301E013600432A242FBD301F038
:1053D000F1FCFFF77DFC7047000000200002002078
:1053E00014B8000800020020B43F0020FEE70000CF
:1053F000F0B587B0104C08232361102323610126E8
:1054000002960327039704230493059606AD40F6FE
:10541000080345F8143D29462046FCF738F9029662
:1054200003970023049341F2100301932946204679
:10543000FCF72DF907B0F0BD00080140174B102212
:105440001A610821196100BF00BF00BF00BF00BF83
:1054500000BF00BF00BF00BF00BF00BF00BF00BF54
:1054600000BF00BF00BF596100BF00BF00BF00BF49
:1054700000BF00BF00BF00BF00BF00BF00BF00BF34
:1054800000BF00BF00BF00BF5A6100BF00BF00BF28
:1054900000BF00BF00BF00BF00BF70470008014051
:1054A000174B08225A6100BF00BF00BF00BF00BFFA
:1054B00000BF00BF00BF00BF00BF00BF00BF00BFF4
:1054C00000BF00BF00BF1021196100BF00BF00BFB7
:1054D00000BF00BF00BF00BF00BF00BF00BF00BFD4
:1054E00000BF00BF00BF00BF00BF1A6100BF00BF08
:1054F00000BF00BF00BF00BF00BF00BF704700BFBC
:1055000000080140002837D11D4B08225A6100BF16
:1055100000BF00BF00BF00BF00BF00BF00BF184BEF
:1055200010221A6100BF00BF00BF00BF00BF00BF54
:1055300000BF00BF00BF00BF00BF00BF00BF00BF73
:1055400000BF00BF00BF00BF00BF00BF00BF00BF63
:1055500000BF00BF00BF00BF00BF00BF00BF00BF53
:1055600000BF00BF00BF00BF00BF00BF00BF00BF43
:1055700000BF00BF5A617047014B08221A61C6E79D
:10558000000801401A4B08221A6100BF00BF00BF8B
:1055900000BF00BF00BF00BF00BF00BF00BF00BF13
:1055A00000BF00BF00BF00BF00BF10221A6100BFD4
:1055B00000BF00BF00BF00BF00BF00BF00BF00BFF3
:1055C00000BF00BF00BF00BF00BF00BF00BF00BFE3
:1055D00000BF00BF00BF00BF00BF00BF00BF986892
:1055E000C043C00880F001005A6100F0010070471C
:1055F0000008014038B50446154639BB04F0800068
:10560000FFF780FF04F04000FFF77CFF04F020006C
:10561000FFF778FF04F01000FFF774FF04F00800B4
:10562000FFF770FF04F00400FFF76CFF04F00200C6
:10563000FFF768FF04F00100FFF764FFFFF7A2FF28
:10564000044635B9B4FA84F0400938BDFFF7F6FED8
:10565000D4E7FFF725FFF5E729B370B50E460AB981
:10566000002070BD154600220121FFF7C3FFB0B135
:10567000002406E000221146305DFFF7BBFF70B149
:105680000134A5420BD96B1EA342F3D8012200219D
:10569000305DFFF7AFFF0028F2D00120E1E7FFF710
:1056A000FFFE0020DDE70020704770B50D4616466E
:1056B000002404E0AFF30080287001340135B442C7
:1056C000F8DB304670BD4FF0FF3070474FF40053A9
:1056D0004B600020704700207047000010B5034663
:1056E0000C4A0D490D48006840B10C48006803445D
:1056F000521A934206D8094A136010BD0748084C55
:105700000460F2E701F086FA0C2303604FF0FF30EB
:10571000F3E700BF005000200004000074390020AF
:10572000B43F00207047000000B51C4A20F0004341
:10573000934283B018DDB3F1FF4F05DB0146FAF762
:10574000C7FE03B05DF804FB694600F075FA00F08F
:105750000302012A0ED0022A18D092B10122019927
:10576000009801F055F8ECE7002100F02BFC03B0A5
:105770005DF804FB0199009801F04AF800F100403F
:10578000DFE70199009800F01DFCDAE70199009825
:1057900000F018FC00F10040D3E700BFD80F493FEC
:1057A0002DE9F04120F00047FC0D7F3C162C05460A
:1057B00018DC002C804620DB184F2741384214D0DB
:1057C0001749FAF787FE0021FBF748F968B1002D69
:1057D00004DA4FF4000343FA04F4A04428EA070073
:1057E000BDE8F081B7F1FF4F02D22846BDE8F08155
:1057F0000146FAF76FFEBDE8F0810949FAF76AFE43
:105800000021FBF72BF90028EFD0002D01DB002051
:10581000ECE7002FE9D00348E8E700BFFFFF7F0077
:10582000CAF24971000080BF00B51D4A20F0004354
:10583000934283B019DDB3F1FF4F05DB0146FAF760
:1058400047FE03B05DF804FB694600F0F5F900F08F
:105850000300012810D0022819D090B101990098B6
:1058600000F0B0FB00F10040EBE70022002100F067
:10587000CFFF03B05DF804FB0199009800F0A2FB94
:10588000DFE701220199009800F0C2FFD9E7012269
:105890000199009800F0BCFF00F10040D1E700BF83
:1058A000D80F493F00F0AEB82DE9F0438BB0054664
:1058B0000C4600F037F9294B074693F90060731C3A
:1058C00038D021462046FBF749FC002832D1294632
:1058D0002846FBF743FC804660BB00212046FBF7CF
:1058E00095F838B301221E4B2846CDF82080CDE92B
:1058F0000023FAF791FD804689462046CDE90289CA
:10590000FAF78AFDCDE90401C6B100220023104652
:105910001946FBF725FA022ECDE9060110D101F058
:1059200079F921230360089B93B9DDE90601FBF7B0
:10593000C5FB074638460BB0BDE8F083CDE90689C4
:10594000684600F0DBFF0028E9D0089B002BECD074
:1059500001F060F9089B0360E7E700BF2C0000201E
:1059600040B10008F0B58BB0044600F0D7FA234BE5
:10597000064693F900506B1C0AD021462046FBF7DF
:10598000EDFB074620B900212046FBF749F810B986
:1059900030460BB0F0BD0122194B2046CDE9002363
:1059A0000897FAF739FD0022CDE90401CDE902019B
:1059B0000023ADB110461946FBF7D2F9022DCDE90F
:1059C00006010FD101F026F921230360089B7BB962
:1059D000DDE90601FBF772FB064630460BB0F0BD71
:1059E000CDE90623684600F089FF0028EED1E9E7FB
:1059F00001F010F9089B0360EAE700BF2C000020CB
:105A000048B10008F8B521F00044B4F1FF4F0A4650
:105A1000034614DC20F00045B5F1FF4F07460EDCCD
:105A2000B1F17E5F31D08E1706F0020646EAD076DD
:105A300055B9022E3AD0032E00D13148F8BD19468F
:105A40001046FAF747FDF8BDDCB1B4F1FF4F20D0A6
:105A5000B5F1FF4F15D02C1BE4153C2C28DC002998
:105A600028DA3C3426DA0020012E34D0022E2AD047
:105A7000002EE3D02349FAF72DFD2349FAF728FD3C
:105A8000F8BD002F10DB2148F8BDBDE8F84000F05C
:105A900037BFB5F1FF4F21D0022E07D0032ECCD057
:105AA000012E23D00020F8BD1948F8BD1648F8BDD6
:105AB0001648D9E711461846FAF7C8FE01F02EF845
:105AC00000F01EFFD0E70F49FAF704FD01460E482B
:105AD000FAF7FEFCF8BD00F10040F8BD022E0CD034
