:020000040800F2
:100000000050002071600008454E0008494E00086D
:10001000AD4E0008114F0008754F000800000000A9
:10002000000000000000000000000000D94F0008A0
:10003000DB4F000800000000DD4F0008E14F000822
:10004000B9600008B9600008B9600008B96000082C
:10005000B9600008B9600008B9600008B96000081C
:10006000B9600008B9600008B9600008A150000834
:10007000B9600008B9600008B1500008B960000814
:10008000B9600008B9600008B9600008B9600008EC
:10009000B9600008B9600008B9600008B9600008DC
:1000A000B9600008B9600008B9600008B9600008CC
:1000B000B9600008C1500008B9600008B9600008C4
:1000C000B9600008B9600008B9600008B9600008AC
:1000D000B9600008FD500008B9600008B960000868
:1000E000B9600008B9600008B960000800000000AD
:1000F0000000000000000000000000000000000000
:0C01000000000000000000005FF808F1A3
:1001100010B5054C237833B9044B13B10448AFF341
:1001200000800123237010BDF801002000000000B2
:10013000C8A3000808B5034B1BB103490348AFF33C
:10014000008008BD00000000FC010020C8A30008DA
:1001500081F0004102E000BF83F0004330B54FEA78
:1001600041044FEA430594EA050F08BF90EA020FE5
:100170001FBF54EA000C55EA020C7FEA645C7FEA78
:10018000655C00F0E2804FEA5454D4EB5555B8BF9B
:100190006D420CDD2C4480EA020281EA030382EA0C
:1001A000000083EA010180EA020281EA0303362D9E
:1001B00088BF30BD11F0004F4FEA01314FF4801C71
:1001C0004CEA113102D0404261EB410113F0004F83
:1001D0004FEA03334CEA133302D0524263EB43033A
:1001E00094EA050F00F0A780A4F10104D5F1200ED8
:1001F0000DDB02FA0EFC22FA05F2801841F1000133
:1002000003FA0EF2801843FA05F359410EE0A5F106
:1002100020050EF1200E012A03FA0EFC28BF4CF037
:10022000020C43FA05F3C01851EBE37101F00045ED
:1002300007D54FF0000EDCF1000C7EEB00006EEBFA
:100240000101B1F5801F1BD3B1F5001F0CD3490884
:100250005FEA30004FEA3C0C04F101044FEA4452DB
:1002600012F5800F80F09A80BCF1004F08BF5FEA62
:10027000500C50F1000041EB045141EA050130BD42
:100280005FEA4C0C404141EB010111F4801FA4F1E5
:100290000104E9D191F0000F04BF01460020B1FA3A
:1002A00081F308BF2033A3F10B03B3F120020CDA72
:1002B0000C3208DD02F1140CC2F10C0201FA0CF050
:1002C00021FA02F10CE002F11402D8BFC2F1200CB5
:1002D00001FA02F120FA0CFCDCBF41EA0C0190406B
:1002E000E41AA2BF01EB0451294330BD6FEA0404B4
:1002F0001F3C1CDA0C340EDC04F11404C4F120029F
:1003000020FA04F001FA02F340EA030021FA04F3B0
:1003100045EA030130BDC4F10C04C4F1200220FA07
:1003200002F001FA04F340EA0300294630BD21FA45
:1003300004F0294630BD94F0000F83F4801306BF0B
:1003400081F480110134013D4EE77FEA645C18BFFF
:100350007FEA655C29D094EA050F08BF90EA020F96
:1003600005D054EA000C04BF1946104630BD91EA8E
:10037000030F1EBF0021002030BD5FEA545C05D191
:100380004000494128BF41F0004130BD14F58004D0
:100390003CBF01F5801130BD01F0004545F0FE4144
:1003A00041F470014FF0000030BD7FEA645C1ABF79
:1003B000194610467FEA655C1CBF0B46024650EAB0
:1003C000013406BF52EA033591EA030F41F40021DC
:1003D00030BD00BF90F0000F04BF0021704730B562
:1003E0004FF4806404F132044FF000054FF0000137
:1003F00050E700BF90F0000F04BF0021704730B5F8
:100400004FF4806404F1320410F0004548BF4042CC
:100410004FF000013EE700BF42004FEAE2014FEA21
:1004200031014FEA02701FBF12F07F4393F07F4FFC
:1004300081F06051704732F07F4208BF704793F0FF
:100440007F4F04BF41F40021704730B54FF4607412
:1004500001F0004521F000411CE700BF50EA010215
:1004600008BF704730B54FF000050AE050EA0102BE
:1004700008BF704730B511F0004502D5404261EB2E
:1004800041014FF4806404F132045FEA915C3FF46F
:10049000D8AE4FF003025FEADC0C18BF03325FEA0C
:1004A000DC0C18BF033202EBDC02C2F1200300FABD
:1004B00003FC20FA02F001FA03FE40EA0E0021FAE2
:1004C00002F11444BDE600BF80F0004002E000BF2E
:1004D00081F0004142001FBF5FEA410392EA030F2F
:1004E0007FEA226C7FEA236C6AD04FEA1262D2EB79
:1004F0001363C1BFD218414048404140B8BF5B427E
:10050000192B88BF704710F0004F40F4000020F016
:100510007F4018BF404211F0004F41F4000121F02C
:100520007F4118BF494292EA030F3FD0A2F1010276
:1005300041FA03FC10EB0C00C3F1200301FA03F1B4
:1005400000F0004302D5494260EB4000B0F5000FD7
:1005500013D3B0F1807F06D340084FEA310102F196
:100560000102FE2A51D2B1F1004F40EBC25008BF48
:1005700020F0010040EA03007047490040EB000012
:1005800010F4000FA2F10102EDD1B0FA80FCACF141
:10059000080CB2EB0C0200FA0CF0AABF00EBC25040
:1005A00052421843BCBFD0401843704792F0000F2E
:1005B00081F4000106BF80F400000132013BB5E781
:1005C0004FEA41037FEA226C18BF7FEA236C21D0F7
:1005D00092EA030F04D092F0000F08BF084670475C
:1005E00090EA010F1CBF0020704712F07F4F04D12A
:1005F000400028BF40F00040704712F100723CBF3D
:1006000000F50000704700F0004343F0FE4040F466
:10061000000070477FEA226216BF08467FEA236324
:100620000146420206BF5FEA412390EA010F40F40F
:10063000800070474FF0000304E000BF10F000435B
:1006400048BF40425FEA000C08BF704743F0964342
:1006500001464FF000001CE050EA010208BF70475D
:100660004FF000030AE000BF50EA010208BF7047E4
:1006700011F0004302D5404261EB41015FEA010CF9
:1006800002BF84460146002043F0B64308BFA3F1F1
:100690008053A3F50003BCFA8CF2083AA3EBC253D3
:1006A00010DB01FA02FC634400FA02FCC2F12002F2
:1006B000BCF1004F20FA02F243EB020008BF20F029
:1006C0000100704702F1200201FA02FCC2F120028F
:1006D00050EA4C0021FA02F243EB020008BF20EA84
:1006E000DC7070474FF0FF0C1CEAD0521EBF1CEAB2
:1006F000D15392EA0C0F93EA0C0F6FD01A4480EAA0
:10070000010C400218BF5FEA41211ED04FF0006388
:1007100043EA501043EA5111A0FB01310CF00040B4
:10072000B1F5000F3EBF490041EAD3715B0040EADA
:10073000010062F17F02FD2A1DD8B3F1004F40EBAA
:10074000C25008BF20F00100704790F0000F0CF07D
:10075000004C08BF49024CEA502040EA51207F3A41
:10076000C2BFD2F1FF0340EAC250704740F400001C
:100770004FF00003013A5DDC12F1190FDCBF00F00D
:1007800000407047C2F10002410021FA02F1C2F1BB
:10079000200200FA02FC5FEA310040F1000053EA57
:1007A0004C0308BF20EADC70704792F0000F00F0A5
:1007B000004C02BF400010F4000F013AF9D040EAAB
:1007C0000C0093F0000F01F0004C02BF490011F43F
:1007D000000F013BF9D041EA0C018FE70CEAD1533D
:1007E00092EA0C0F18BF93EA0C0F0AD030F0004CBD
:1007F00018BF31F0004CD8D180EA010000F0004071
:10080000704790F0000F17BF90F0004F084691F02E
:10081000000F91F0004F14D092EA0C0F01D1420268
:100820000FD193EA0C0F03D14B0218BF084608D131
:1008300080EA010000F0004040F0FE4040F400007B
:10084000704740F0FE4040F4400070474FF0FF0C0E
:100850001CEAD0521EBF1CEAD15392EA0C0F93EA55
:100860000C0F69D0A2EB030280EA010C49024FEAA7
:10087000402037D04FF0805343EA111143EA101360
:100880000CF000408B4238BF5B0042F17D024FF418
:10089000000C8B4224BF5B1A40EA0C00B3EB510FF3
:1008A00024BFA3EB510340EA5C00B3EB910F24BFDC
:1008B000A3EB910340EA9C00B3EBD10F24BFA3EB61
:1008C000D10340EADC001B0118BF5FEA1C1CE0D129
:1008D000FD2A3FF650AF8B4240EBC25008BF20F0DC
:1008E000010070470CF0004C4CEA50207F32C2BF30
:1008F000D2F1FF0340EAC250704740F400004FF0CD
:100900000003013A37E792F0000F00F0004C02BFFD
:10091000400010F4000F013AF9D040EA0C0093F0C7
:10092000000F01F0004C02BF490011F4000F013B21
:10093000F9D041EA0C0195E70CEAD15392EA0C0F89
:1009400008D142027FF47DAF93EA0C0F7FF470AFC1
:10095000084676E793EA0C0F04D14B023FF44CAF04
:1009600008466EE730F0004C18BF31F0004CCAD199
:1009700030F000427FF45CAF31F000437FF43CAFD5
:100980005FE700BF4FF0FF3C06E000BF4FF0010CF7
:1009900002E000BF4FF0010C4DF804CD4FEA4002D9
:1009A0004FEA41037FEA226C18BF7FEA236C11D023
:1009B00001B052EA530C18BF90EA010F58BFB2EBD6
:1009C000030088BFC81738BF6FEAE17018BF40F056
:1009D000010070477FEA226C02D15FEA402C05D10A
:1009E0007FEA236CE4D15FEA412CE1D05DF8040B8F
:1009F000704700BF844608466146FFE70FB5FFF722
:100A0000C9FF002848BF10F1000F0FBD4DF808EDD9
:100A1000FFF7F4FF0CBF012000205DF808FB00BFCA
:100A20004DF808EDFFF7EAFF34BF012000205DF824
:100A300008FB00BF4DF808EDFFF7E0FF94BF012071
:100A400000205DF808FB00BF4DF808EDFFF7D2FF6E
:100A500094BF012000205DF808FB00BF4DF808EDB1
:100A6000FFF7C8FF34BF012000205DF808FB00BF7E
:100A700042000ED2B2F1FE4F0BD34FF09E03B3EB08
:100A8000126209D44FEA002343F0004323FA02F034
:100A900070474FF00000704712F1610F01D1420220
:100AA00002D14FF0FF3070474FF00000704700BF99
:100AB000034613F8012B002AFBD1181A013870479E
:100AC00070B54FF0FF0C4CF4E06C1CEA11541DBFE4
:100AD0001CEA135594EA0C0F95EA0C0F00F0DEF8AF
:100AE0002C4481EA030621EA4C5123EA4C5350EA94
:100AF000013518BF52EA033541F4801143F48013E5
:100B000038D0A0FB02CE4FF00005E1FB02E506F075
:100B10000042E0FB03E54FF00006E1FB03569CF0CA
:100B2000000F18BF4EF0010EA4F1FF04B6F5007FD0
:100B300064F5407404D25FEA4E0E6D4146EB060642
:100B400042EAC62141EA55514FEAC52040EA5E50CB
:100B50004FEACE2EB4F1FD0C88BFBCF5E06F1ED875
:100B6000BEF1004F08BF5FEA500E50F1000041EBAC
:100B7000045170BD06F0004646EA010140EA020059
:100B800081EA0301B4EB5C04C2BFD4EB0C0541EA7B
:100B9000045170BD41F480114FF0000E013C00F390
:100BA000AB8014F1360FDEBF002001F0004170BDB4
:100BB000C4F10004203C35DA0C341BDC04F11404CD
:100BC000C4F1200500FA05F320FA04F001FA05F259
:100BD00040EA020001F0004221F0004110EBD37026
:100BE00021FA04F642EB06015EEA430E08BF20EA52
:100BF000D37070BDC4F10C04C4F1200500FA04F3F5
:100C000020FA05F001FA04F240EA020001F0004186
:100C100010EBD37041F100015EEA430E08BF20EAF9
:100C2000D37070BDC4F1200500FA05F24EEA020E41
:100C300020FA04F301FA05F243EA020321FA04F070
:100C400001F0004121FA04F220EA020000EBD37027
:100C50005EEA430E08BF20EAD37070BD94F0000F27
:100C60000FD101F00046400041EB010111F4801F5B
:100C700008BF013CF7D041EA060195F0000F18BF0C
:100C8000704703F00046520043EB030313F4801F48
:100C900008BF013DF7D043EA0603704794EA0C0F02
:100CA0000CEA135518BF95EA0C0F0CD050EA410618
:100CB00018BF52EA4306D1D181EA030101F0004195
:100CC0004FF0000070BD50EA410606BF10461946BD
:100CD00052EA430619D094EA0C0F02D150EA0136C9
:100CE00013D195EA0C0F05D152EA03361CBF10460A
:100CF00019460AD181EA030101F0004141F0FE41A9
:100D000041F470014FF0000070BD41F0FE4141F42C
:100D1000780170BD70B54FF0FF0C4CF4E06C1CEA2C
:100D200011541DBF1CEA135594EA0C0F95EA0C0FE1
:100D300000F0A7F8A4EB050481EA030E52EA03359C
:100D40004FEA013100F088804FEA03334FF08055BD
:100D500045EA131343EA12634FEA022245EA1115EA
:100D600045EA10654FEA00260EF000419D4208BF9B
:100D7000964244F1FD0404F5407402D25B084FEA48
:100D80003202B61A65EB03055B084FEA32024FF4F4
:100D900080104FF4002CB6EB020E75EB030E22BF51
:100DA000B61A754640EA0C005B084FEA3202B6EB11
:100DB000020E75EB030E22BFB61A754640EA5C00C0
:100DC0005B084FEA3202B6EB020E75EB030E22BF50
:100DD000B61A754640EA9C005B084FEA3202B6EB51
:100DE000020E75EB030E22BFB61A754640EADC0010
:100DF00055EA060E18D04FEA051545EA16754FEA72
:100E000006164FEAC30343EA52734FEAC2025FEA8F
:100E10001C1CC0D111F4801F0BD141EA00014FF01E
:100E200000004FF0004CB6E711F4801F04BF0143EF
:100E30000020B4F1FD0C88BFBCF5E06F3FF6AFAE0B
:100E4000B5EB030C04BFB6EB020C5FEA500C50F19B
:100E5000000041EB045170BD0EF0004E4EEA11311E
:100E600014EB5C04C2BFD4EB0C0541EA045170BD25
:100E700041F480114FF0000E013C90E645EA060E69
:100E80008DE60CEA135594EA0C0F08BF95EA0C0F97
:100E90003FF43BAF94EA0C0F0AD150EA01347FF4DF
:100EA00034AF95EA0C0F7FF425AF104619462CE7B6
:100EB00095EA0C0F06D152EA03353FF4FDAE104619
:100EC000194622E750EA410618BF52EA43067FF46A
:100ED000C5AE50EA41047FF40DAF52EA43057FF4FA
:100EE000EBAE12E74FF0FF3C06E000BF4FF0010C05
:100EF00002E000BF4FF0010C4DF804CD4FEA410C69
:100F00007FEA6C5C4FEA430C18BF7FEA6C5C1BD035
:100F100001B050EA410C0CBF52EA430C91EA030FB6
:100F200002BF90EA020F0020704710F1000F91EA13
:100F3000030F58BF994208BF90422CBFD8176FEAE1
:100F4000E37040F0010070474FEA410C7FEA6C5CAF
:100F500002D150EA013C07D14FEA430C7FEA6C5CB6
:100F6000D6D152EA033CD3D05DF8040B704700BFE2
:100F70008446104662468C461946634600E000BF30
:100F800001B5FFF7B7FF002848BF10F1000F01BD02
:100F90004DF808EDFFF7F4FF0CBF012000205DF8CD
:100FA00008FB00BF4DF808EDFFF7EAFF34BF012052
:100FB00000205DF808FB00BF4DF808EDFFF7E0FFEB
:100FC00094BF012000205DF808FB00BF4DF808ED3C
:100FD000FFF7CEFF94BF012000205DF808FB00BFA3
:100FE0004DF808EDFFF7C4FF34BF012000205DF885
:100FF00008FB00BF4FEA410C7FEA6C5C02D150EA6B
:10100000013C0AD14FEA430C7FEA6C5C02D152EA00
:10101000033C02D14FF0000070474FF001007047D1
:101020004FEA410212F5001215D211D56FF4787310
:10103000B3EB625212D94FEAC12343F0004343EAB3
:10104000505311F0004F23FA02F018BF404270478E
:101050004FF00000704750EA013005D111F0004018
:1010600008BF6FF0004070474FF00000704700BFAE
:101070004FEA4102B2F1E04324BFB3F5001CDCF1BA
:10108000FE5C0DD901F0004C4FEAC0024CEA5070F2
:10109000B2F1004F40EB830008BF20F00100704721
:1010A00011F0804F21D113F13872BCBF01F0004024
:1010B000704741F480114FEA5252C2F11802C2F156
:1010C000200C10FA0CF320FA02F018BF40F00100D7
:1010D0004FEAC1234FEAD32303FA0CFC40EA0C0089
:1010E00023FA02F34FEA4303CCE77FEA625307D1C6
:1010F00050EA01331EBF4FF0FE4040F440007047FD
:1011000001F0004040F0FE4040F40000704700BF96
:101110004FEA40024FEA41037FEA226C02D15FEAC4
:10112000402C08D17FEA236C02D15FEA412C02D126
:101130004FF0000070474FF0010070474FEA400247
:10114000B2F1FE4F0FD34FF09E03B3EB12620DD9F5
:101150004FEA002343F0004310F0004F23FA02F05F
:1011600018BF404270474FF00000704712F1610F06
:1011700001D1420205D110F0004008BF6FF00040DD
:1011800070474FF00000704710B504460E4B1878BA
:101190004FF47A73B3FBF0F30C4A1068B0FBF3F032
:1011A00000F028FC68B90F2C01D901200AE00022C8
:1011B00021464FF0FF3000F0C9FB054B1C600020BA
:1011C00000E0012010BD00BF000000202000002032
:1011D0000400002008B5074A136843F010031360A9
:1011E000032000F0A1FB0F20FFF7CEFF03F0AAFFC2
:1011F000002008BD00200240034A1168034B1B7801
:101200000B441360704700BFAC3400200000002086
:10121000014B1868704700BFAC34002038B5044655
:10122000FFF7F6FF0546B4F1FF3F02D0044B1B78F1
:101230001C44FFF7EDFF401BA042FAD338BD00BFAE
:101240000000002008B5436A9A6A12F0500F03D0DC
:101250001B6A1B6B984708BD9A6A42F400729A6237
:101260001A68926802F46022B2F5602F03D0184623
:1012700003F05AFFEFE71A7B002AF8D19A6A22F4AA
:1012800080729A629A6A12F4805FF0D19A6A42F090
:1012900001029A62EBE708B5406A03F037FF08BD28
:1012A000704708B5406A836A43F040038362C36AAB
:1012B00043F00403C362FFF7F3FF08BD30B482B00C
:1012C0000023019390F82430012B00F08B8002461C
:1012D000012380F824304B68062B29D80568686BF9
:1012E00003EB8303053B1F249C4020EA04000C68A9
:1012F00004FA03F303436B630B68092B38D91568B1
:10130000E86803EB43031E3B07249C4020EA0400EB
:101310008C6804FA03F30343EB600B68103B012B6A
:1013200034D90020002382F8243002B030BC70474A
:101330000C2B0ED80568286B03EB8303233B1F247B
:101340009C4020EA04000C6804FA03F303432B6377
:10135000D2E70568E86A03EB8303413B1F249C4006
:1013600020EA04000C6804FA03F30343EB62C3E7CA
:101370001568286903EB430307249C4020EA040016
:101380008C6804FA03F303432B61C6E7136816481D
:10139000834205D0936A43F0200393620120C1E7A2
:1013A000986810F4000F1BD1986840F40000986012
:1013B0000B68102B01D00020B4E70C4B1B680C49C4
:1013C000A1FB03139B0C03EB83035900019102E083
:1013D000019B013B0193019B002BF9D10020A1E768
:1013E00000209FE70220A0E7002401402000002009
:1013F00083DE1B4330B583B00023019303689A68F2
:1014000012F0010F33D19A6842F001029A60194B31
:101410001B68194AA2FB03239B0C019302E0019B6A
:10142000013B0193019B002BF9D10446FFF7F0FE2D
:10143000054623689B6813F0010F16D1FFF7E8FEFD
:10144000401B0228F5D923689B6813F0010FF0D1E7
:10145000A36A43F01003A362E36A43F00103E3626B
:10146000002384F82430012002E0002000E0002066
:1014700003B030BD2000002083DE1B4390F82430F1
:10148000012B6AD010B50446012380F82430FFF701
:10149000B1FF024600285BD1A36A23F4407323F016
:1014A000010343F48073A36223682D498B4227D044
:1014B000A16A21F48011A162596811F4806F05D0EE
:1014C000A16A21F4405141F48051A162A16A11F452
:1014D000805F2BD0E16A21F00601E162002184F8EF
:1014E00024106FF0020119602368996801F46021EB
:1014F000B1F5602F1DD0996841F4801199602AE000
:10150000A1F58061496811F4702FD1D0A16A41F42E
:101510008011A1621349496811F4806FD6D0A16A85
:1015200021F4405141F48051A162CFE70021E162F2
:10153000D4E70B498B4204D0996841F4A00199602B
:1015400009E0A1F58061496811F4702FD3D1F3E768
:10155000002384F82430104610BD02221046704744
:10156000002801400024014038B503689A6812F051
:10157000010F01D1002038BD04469A6822F0010213
:101580009A60FFF745FE054623689B6813F0010F3C
:1015900013D0FFF73DFE401B0228F5D923689B6856
:1015A00013F0010FF0D0A36A43F01003A362E36AC3
:1015B00043F00103E3620120DDE70020DBE70000E8
:1015C00000287FD038B50446836A002B33D02046EC
:1015D000FFF7CAFFA36A13F010036DD100286BD187
:1015E000A26A22F4885222F0020242F00202A262AF
:1015F0006268E1690A43257B42EA4502A168B1F5C8
:10160000807F21D001291CD0217D01291FD0256890
:10161000696821F469410B436B6021688D682A4B2E
:101620002B4013438B60A368B3F5807F20D0012B40
:101630001ED000211FE0C36280F8243003F0A4FD17
:10164000C5E74FF48073DFE74FF48073DCE735B90B
:10165000A169013943EA413343F40063D7E7A16A42
:1016600041F02001A162E16A41F00101E162CEE7AF
:101670002369013B19052568EB6A23F470030B43CA
:10168000EB6223689968114B0B409A420BD0A36A16
:1016900023F0120343F01003A362E36A43F0010353
:1016A000E36201200DE00023E362A36A23F0030359
:1016B00043F00103A36204E0A36A43F01003A362B2
:1016C000012038BD01207047FDF7E1FFFE0E1FFF2E
:1016D00070B582B00023019390F82430012B72D0B2
:1016E0000446012380F82430FFF73EFF2046FFF731
:1016F00081FE054628B1002384F82430284602B034
:1017000070BDA36A23F4885323F0020343F002035D
:10171000A3622E4B1E68022001F020F9B6FBF0F008
:101720004000019002E0019B013B0193019B002BD3
:10173000F9D12268936843F008039360FFF768FDCE
:10174000064623689A6812F0080F14D0FFF760FD70
:10175000801B0A28F5D923689B6813F0080FF0D086
:10176000A36A23F0120343F01003A362002384F85A
:1017700024300125C2E79A6842F004029A60FFF71C
:1017800047FD064623689B6813F0040F14D0FFF74B
:101790003FFD801B0A28F5D923689B6813F0040FCE
:1017A000F0D0A36A23F0120343F01003A3620023D6
:1017B00084F824300125A1E7A36A23F0030343F052
:1017C0000103A36297E7022598E700BF20000020ED
:1017D000F0B58DB004460E4617463022002168460B
:1017E00006F032F894F82430012B65D0012384F8F8
:1017F0002430324B00939B6803F46023B3F5602FD1
:101800000AD0A36A43F02003A362002384F82430A3
:10181000012528460DB0F0BD2046FFF7EBFD05463B
:1018200000283BD0002D43D1A26A254B134043F43E
:101830008073A36223685B6813F4806F05D0A36A8A
:1018400023F4405343F48053A362002384F82430EC
:10185000E362236A1B4A9A62236A1B4ADA62236A9A
:101860001A4A1A6323686FF002021A6022689368AA
:1018700043F48073936021683B4632464C31206AC2
:1018800000F01AF92268936803F46023B3F5602F1F
:1018900009D0936843F480139360BAE76846FFF772
:1018A000A9FD0546BEE7936843F4A0039360B0E743
:1018B000002384F82430ACE70225AAE70028014081
:1018C000FEFCEFFF4512000897120008A312000863
:1018D000034690F82420012A20D0012280F82420F9
:1018E0000268906810F0010F07D10D48806810F071
:1018F000010F02D10B48824208D09A6A42F02002BE
:101900009A620120002283F824207047506820F456
:1019100070200968014351600020F3E702207047FE
:101920000028014000240140074AD36823F4E06303
:101930001B041B0C000200F4E060184340F0BF6081
:1019400040F40030D060704700ED00E030B4174B39
:10195000DB68C3F30223C3F10704042C28BF04246B
:101960001D1D062D18D9033B4FF0FF3505FA04F471
:1019700021EA0401994005FA03F322EA030319431B
:1019800000280BDB0901C9B200F1604000F561409D
:1019900080F8001330BC70470023E5E700F00F002B
:1019A0000901C9B2024B1954F4E700BF00ED00E091
:1019B00014ED00E0002807DB00F01F0240090123BE
:1019C0009340024A42F82030704700BF00E100E037
:1019D000BFF34F8F0549CA6802F4E062044B13431A
:1019E000CB60BFF34F8F00BFFDE700BF00ED00E00D
:1019F0000400FA050138B0F1807F0AD2064B586026
:101A0000064AF02182F823100020986007221A600D
:101A100070470120704700BF10E000E000ED00E0DB
:101A200070B4066CC56B0124B4406C6004686360DC
:101A30004368102B05D0036899600368DA6070BCB6
:101A4000704703689A600368D960F8E760B310B420
:101A500002460168154B0B441548A0FB03031B0904
:101A60009B001364134BD363022382F82130086870
:101A700020F47F5020F03000536894682343D468EA
:101A80002343146923435469234394692343D4694A
:101A9000234303430B6000209063012382F821302D
:101AA00082F8200010BC704701207047F8FFFDBF8E
:101AB000CDCCCCCC0000024038B590F82040012CB1
:101AC00033D0012480F8204090F82140E4B2012C6A
:101AD00004D0002380F82030022038BD04460220C4
:101AE00084F821000020A0632568286820F0010008
:101AF00028602046FFF794FFE36A5BB12268136811
:101B000043F00E0313602268136843F0010313606F
:101B10000020E2E72268136823F0040313602268C0
:101B2000136843F00A031360EDE70220D5E790F84D
:101B30002130DBB2022B06D004238363002380F81C
:101B40002030012070470268136823F00E031360F1
:101B50000268136823F001031360036CC16B012258
:101B600002FA03F34B6080F82120002380F8203034
:101B70001846704708B590F82130DBB2022B03D02D
:101B800004238363012008BD0268136823F00E0359
:101B900013600268136823F0010313600368194A95
:101BA000934214D0143293421FD0143293421ED069
:101BB000143293421ED0143293421ED014329342F8
:101BC00002D04FF0807203E04FF4801200E0012257
:101BD0000D4B5A60012380F82130002380F820301B
:101BE000436B6BB198470020CDE71022F0E74FF42C
:101BF0008072EDE74FF48052EAE74FF48032E7E776
:101C00000020C0E7080002400000024038B5C36B66
:101C10001A6804682568016C04238B40134235D090
:101C200015F0040F32D0236813F0200F03D123687E
:101C300023F0040323600368434A934214D0143210
:101C4000934218D01432934217D01432934217D0D3
:101C50001432934217D01432934202D04FF0806274
:101C600003E04FF4800200E00422384B5A60C36A5C
:101C700003B1984738BD4022F7E74FF48062F4E79C
:101C80004FF48042F1E74FF48022EEE702238B40CD
:101C900013423CD015F0020F39D0236813F0200F07
:101CA00006D1236823F00A032360012380F8213042
:101CB0000368254A934214D0143293421CD0143244
:101CC00093421BD0143293421BD0143293421BD048
:101CD0001432934202D04FF0007203E04FF400122E
:101CE00000E00222194B5A60002380F82030836AFA
:101CF000002BBFD09847BDE72022F3E74FF40072D6
:101D0000F0E74FF40052EDE74FF40032EAE7082322
:101D100003FA01F11142ADD015F0080FAAD02368E3
:101D200023F00E032360026CC16B012303FA02F25D
:101D30004A60836380F82130002380F82030036BF1
:101D4000002B97D0984795E708000240000002401A
:101D5000044B0022DA61044A136943F00103136162
:101D600001807047B0340020002002401A4BDB682D
:101D700013F0100F27D0194AD36943F00203D3613F
:101D80001023154AD26812F0040F06D01349CA690D
:101D900042F00102CA6143F004030F4AD26912F013
:101DA000010F09D00D49CA6942F00402CA610A490B
:101DB000CA6922F00102CA6140F20112934204D0C2
:101DC000054AD36070470023DBE7034AD36923F059
:101DD0000103D361704700BF00200240B0340020EF
:101DE0000A4B1B6913F0800F0DD0084B084A5A604C
:101DF00002F188325A601B6913F0800F01D0012074
:101E00007047002070470020704700BF002002404C
:101E100023016745034A136943F0800313610020DF
:101E2000704700BF0020024038B50446FFF7F0F9C4
:101E30000546174BDB6813F0010F0AD0B4F1FF3FE2
:101E4000F7D00CB3FFF7E4F9401BA042F1D903200F
:101E500019E00F4BDB6813F0200F02D00C4B20224F
:101E6000DA600B4BDB6813F0100F09D1084BDB690C
:101E700013F0010F04D1064BDB6813F0040F05D0FB
:101E8000FFF774FF012038BD0320FCE70020FAE7CC
:101E9000002002402DE9F843224C247E012C3FD043
:101EA0001E4690460F4604461E4B01221A765020CD
:101EB000FFF7BAFF034668BB012C28D0022C23D0C1
:101EC0004FF0040900244C4524D22101C1F1200225
:101ED000A1F1200328FA01F106FA02F2114326FAD1
:101EE00003F3194389B207EB4400FFF731FF502099
:101EF000FFF79AFF0C4B1D6925F001051D61034694
:101F000040B90134E4B2DEE74FF00209DAE74FF0FE
:101F10000109D7E7034A002111761846BDE8F88386
:101F20000223FAE7B034002000200240064B0022D2
:101F3000DA61064B1A6942F004021A611A6942F02A
:101F400040021A61704700BFB034002000200240F8
:101F5000064B0022DA61064B1A6942F002021A614E
:101F600058611A6942F040021A617047B03400208B
:101F700000200240244B1B7E012B42D070B50E4640
:101F80000446214B01221A760368022B1ED05020F2
:101F9000FFF74AFF78BB4FF0FF333360A56801229B
:101FA000E168A36803EB8123AB4225D92846FFF7FC
:101FB000CFFF5020FFF738FF144A136923F00203C4
:101FC00013610246A8B905F58065E9E75020FFF7DF
:101FD0002BFF08B101220FE00120FFF7A7FF5020DF
:101FE000FFF722FF024609490B6923F004030B6146
:101FF00002E0356000E00122034B00211976104613
:1020000070BD022210467047B0340020002002400C
:10201000F0B482B000263246A2E0002D5AD0012D45
:1020200000D1CE68FF2B69D88446FF2B69D8950074
:10203000DCF800400F27AF4024EA070406FA05F554
:102040002C43CCF800404C6814F0805F00F087808F
:102050005F4CA56945F00105A561A46904F0010480
:102060000194019C9508AF1C5A4C54F8274002F08B
:102070000307BF004FF00F0C0CFA07FC24EA0C0C0E
:10208000554CA04243D004F58064A04200F081800A
:1020900004F58064A0427ED004F58064A04234D070
:1020A000042435E04D4FBD4214D00BD94C4FBD42F6
:1020B00010D007F58037BD420CD0A7F58017BD4280
:1020C000B0D107E0A7F58017BD4203D007F58037F0
:1020D000BD42A7D18D687DB1012D08D0446108268D
:1020E000A0E7CE6808369DE7CE680C369AE7046113
:1020F000082697E7002695E7042693E700F1040CED
:1021000093E7A2F10805AD0092E7032400E0002464
:10211000BC4044EA0C0402352E4F47F825404C6879
:1021200014F4801F39D02F4DAC681C43AC604C6850
:1021300014F4001F37D02B4DEC681C43EC604C6846
:1021400014F4003F35D0274D6C681C436C604C681C
:1021500014F4803F33D0234D2C6823432B6001328D
:102160000B6833FA02F430D00124944023409C429F
:10217000F5D14D68122DB7D094D8022DB1D07FF68D
:102180004CAF032DB6D0112D7FF44CAFCE68043682
:1021900048E70124BCE70224BAE7124DAC6824EA00
:1021A0000304AC60C3E70F4DEC6824EA0304EC6061
:1021B000C5E70C4D6C6824EA03046C60C7E7094D61
:1021C0002C6824EA03032B60C9E702B0F0BC704717
:1021D00000100240000001400008014000002110F2
:1021E00000003110000401408368194201D1002031
:1021F00070470120704712B90904016170470161FD
:102200007047000082B0084B1B68084AA2FB0323FA
:102210005B0A00FB03F0019000BF019B5A1E019274
:10222000002BF9D102B0704720000020D34D62107E
:10223000002800F0F58170B582B00446036813F001
:10224000010F2CD0AB4B5B6803F00C03042B1DD0AB
:10225000A84B5B6803F00C03082B12D06368B3F53E
:10226000803F41D0002B55D103F1804303F5043367
:102270001A6822F480321A601A6822F480221A60E6
:1022800037E09C4B5B6813F4803FE7D0994B1B68A9
:1022900013F4003F03D06368002B00F0C381236870
:1022A00013F0020F76D0934B5B6813F00C0F5FD0E6
:1022B000904B5B6803F00C03082B54D02369002B70
:1022C00000F08A808C4B01221A60FEF7A1FF0546C0
:1022D000884B1B6813F0020F75D1FEF799FF401B66
:1022E0000228F5D90320A0E1824A136843F4803321
:1022F0001360636843B3FEF78BFF05467D4B1B6895
:1023000013F4003FCBD1FEF783FF401B6428F5D9BF
:1023100003208AE1B3F5A02F09D0764B1A6822F486
:1023200080321A601A6822F480221A60E1E703F111
:102330008043A3F53C331A6842F480221A601A687D
:1023400042F480321A60D4E7FEF762FF0546694B1B
:102350001B6813F4003FA2D0FEF75AFF401B64280D
:10236000F5D9032061E1634B5B6813F4803FA5D18D
:10237000604B1B6813F0020F04D02369012B01D0BE
:10238000012052E15B4A136823F0F803616943EAD4
:10239000C1031360236813F0080F32D0A369002B28
:1023A0005BD0564B01221A60FEF732FF0546514BB7
:1023B0005B6A13F0020F21D1FEF72AFF401B0228AF
:1023C000F5D9032031E14B4A136823F0F803616922
:1023D00043EAC1031360DDE7474B00221A60FEF7B2
:1023E00017FF0546434B1B6813F0020FD2D0FEF7D0
:1023F0000FFF401B0228F5D9032016E10120FFF74B
:1024000001FF236813F0040F00F09880394BDB695B
:1024100013F0805F33D1374BDA6942F08052DA61D2
:10242000DB6903F080530193019B0125344B1B684A
:1024300013F4807F25D0E368012B36D0002B4CD1DC
:1024400003F1804303F504331A6A22F001021A6291
:102450001A6A22F004021A622CE0284B00221A6049
:10246000FEF7D6FE0546234B5B6A13F0020FC8D079
:10247000FEF7CEFE401B0228F5D90320D5E000254B
:10248000D4E71F4A136843F480731360FEF7C0FE5D
:1024900006461B4B1B6813F4807FCCD1FEF7B8FEB9
:1024A000801B6428F5D90320BFE0124A136A43F069
:1024B00001031362E3687BB3FEF7AAFE06460D4BE9
:1024C0001B6A13F0020F38D1FEF7A2FE801B41F207
:1024D00088339842F3D90320A7E0052B12D0054B8F
:1024E0001A6A22F001021A621A6A22F004021A62BF
:1024F000E0E700BF00100240000042428004424278
:10250000007000404C4B1A6A42F004021A621A6AC8
:1025100042F001021A62CDE7FEF77AFE0646464B0C
:102520001B6A13F0020F08D0FEF772FE801B41F207
:1025300088339842F3D9032077E0E5B9E369002BAB
:1025400072D03D4A526802F00C02082A56D0022B83
:1025500017D03A4B00221A60FEF75AFE0446364B5B
:102560001B6813F0007F47D0FEF752FE001B0228C5
:10257000F5D9032059E0304AD36923F08053D36161
:10258000DCE72E4B00221A60FEF742FE05462A4B7E
:102590001B6813F0007F06D0FEF73AFE401B0228AE
:1025A000F5D9032041E0236AB3F5803F1AD02249D0
:1025B0004B6823F47413226A606A024313434B602E
:1025C0001E4B01221A60FEF723FE04461A4B1B68BD
:1025D00013F0007F0ED1FEF71BFE001B0228F5D979
:1025E000032022E0144A536823F40033A1680B430C
:1025F0005360DCE7002018E0002016E0012B16D025
:102600000D4B5B6803F48031226A914201D00120B6
:102610000BE003F47013626A93420AD0012004E0D5
:1026200001207047012000E0002002B070BD0120B1
:10263000FBE70020F9E700BF0010024060004242C3
:102640000F4B5B6803F00C02082A16D1C3F38342D8
:102650000C498A5C13F4803F03D10B4800FB02F065
:102660007047074B5B68C3F340430849CB5C08489D
:1026700000FB02F0B0FBF3F070470548704700BF65
:1026800000100240E0A3000800093D00F0A300088C
:1026900000127A00002800F0A38070B50446524B67
:1026A0001B6803F007038B420CD24F4A136823F0D8
:1026B00007030B431360136803F007038B4201D039
:1026C000012070BD236813F0020F17D013F0040F20
:1026D00004D0464A536843F4E0635360236813F020
:1026E000080F04D0414A536843F4605353603F4A93
:1026F000536823F0F003A068034353600D4623683A
:1027000013F0010F31D06368012B20D0022B25D0AC
:10271000364A126812F0020F64D034494A6822F037
:10272000030213434B60FEF773FD06462F4B5B68B5
:1027300003F00C036268B3EB820F16D0FEF768FD5E
:10274000801B41F288339842F0D90320B9E7274A29
:10275000126812F4003FE0D10120B2E7234A126868
:1027600012F0007FD9D10120ABE71F4B1B6803F0AB
:102770000703AB420CD91C4A136823F007032B4311
:102780001360136803F00703AB4201D0012098E700
:10279000236813F0040F06D0144A536823F4E0634F
:1027A000E1680B435360236813F0080F07D00F4A0A
:1027B000536823F46053216943EAC1035360FFF770
:1027C0003FFF0A4B5B68C3F30313094AD35CD8404D
:1027D000084B1860084B1868FEF7D6FC002070E71D
:1027E0000120704701206CE70020024000100240E9
:1027F00044BA00082000002004000020014B1868A3
:10280000704700BF2000002008B5FFF7F7FF044B1A
:102810005B68C3F30223034AD35CD84008BD00BF02
:102820000010024054BA000808B5FFF7E7FF044B58
:102830005B68C3F3C223034AD35CD84008BD00BF22
:102840000010024054BA000870B582B00446036814
:1028500013F0010F34D03E4BDB6913F0805F48D199
:102860003B4BDA6942F08052DA61DB6903F0805356
:102870000193019B0125374B1B6813F4807F3AD0ED
:10288000334B1B6A13F4407311D0626802F4407238
:102890009A420CD02E4A136A23F440702E49012626
:1028A0000E6000260E60106213F0010F37D1284A27
:1028B000136A23F4407361680B431362002D3FD108
:1028C000236813F0020F06D0214A536823F44043D3
:1028D000A1680B435360236813F0100F35D01C4AD6
:1028E000536823F48003E1680B435360002002B077
:1028F00070BD0025BFE7174A136843F48073136067
:10290000FEF786FC0646134B1B6813F4807FB7D195
:10291000FEF77EFC801B6428F5D90320E7E7FEF76D
:1029200077FC06460A4B1B6A13F0020FBFD1FEF775
:102930006FFC801B41F288339842F3D90320D6E71D
:10294000D36923F08053D361BAE70020CFE700BFFB
:1029500000100240007000404004424208B50228C6
:102960004DD0102803D0012828D0002051E02D4B55
:102970005A681B6813F0807F4CD0C2F383432A4906
:10298000C85C12F4803F15D0264B5B68C3F340430C
:10299000264AD25C264BB3FBF2F300FB03F0214B3B
:1029A0005B6813F4800F34D14000224BA3FB00304E
:1029B00040082EE0204B03FB00F0F0E7194B1B6AA8
:1029C00040F202321A40B2F5817F25D003F4407301
:1029D000B3F5007F04D0B3F5407F09D0002018E0A4
:1029E000104A526A12F0020FF5D049F6404010E04A
:1029F0000C4B1B6813F4003F11D1002009E0FFF7D6
:102A000013FF084B5B68C3F3813301335B00B0FBFA
:102A1000F3F008BD0020FCE74FF40040F9E74FF267
:102A20002440F6E700100240F4A3000804A40008C4
:102A300000127A00ABAAAAAA00093D0010B4036AEA
:102A4000046A24F001040462846924F0F00444EA76
:102A5000021223F00A030B438261036210BC704729
:102A600010B4036A046A24F010040462846924F434
:102A7000704444EA023223F0A00343EA0113826166
:102A8000036210BC7047836823F07003194341F060
:102A9000070181607047000090F83D30DBB2012BE8
:102AA00001D001207047022380F83D300268D368CE
:102AB00043F00103D3600368104A934210D0B3F18E
:102AC000804F0DD0A2F59432934209D002F5806276
:102AD000934205D01A6842F001021A600020704744
:102AE0009A6802F00702062A05D01A6842F001022D
:102AF0001A60002070470020704700BF002C014082
:102B00007047704770477047704770B50546036857
:102B1000DE681C6914F0020F10D016F0020F0DD001
:102B20006FF002021A610123037703689B6913F0B7
:102B3000030F5ED0FFF7E6FF00232B7714F0040F9E
:102B400012D016F0040F0FD02B686FF004021A6138
:102B500002232B772B689B6913F4407F4FD02846C4
:102B6000FFF7D0FF00232B7714F0080F12D016F0D8
:102B7000080F0FD02B686FF008021A6104232B771F
:102B80002B68DB6913F0030F40D02846FFF7BAFF2C
:102B900000232B7714F0100F12D016F0100F0FD067
:102BA0002B686FF010021A6108232B772B68DB6902
:102BB00013F4407F31D02846FFF7A4FF00232B7782
:102BC00014F0010F02D016F0010F2DD114F0800F78
:102BD00002D016F0800F2FD114F0400F02D016F063
:102BE000400F31D114F0200F02D016F0200F33D156
:102BF00070BDFFF786FF2846FFF785FF9CE7284654
:102C0000FFF77FFF2846FFF77EFFABE72846FFF779
:102C100078FF2846FFF777FFBAE72846FFF771FFEE
:102C20002846FFF770FFC9E72B686FF001021A61B1
:102C30002846FFF765FFC9E72B686FF080021A612D
:102C4000284600F038F9C7E72B686FF040021A6198
:102C50002846FFF759FFC5E72B686FF020021A617D
:102C6000284600F027F9C3E703681F4A90420AD0BC
:102C7000B0F1804F07D0A2F59432904203D002F514
:102C80008062904203D123F070034A681343164ACE
:102C900090420AD0B0F1804F07D0A2F59432904212
:102CA00003D002F58062904203D123F44073CA68D6
:102CB000134323F080034A69134303608B68C362A4
:102CC0000B688362084B98420AD001234361036971
:102CD00013F0010F03D0036923F001030361704770
:102CE0000B690363F1E700BF002C014038B310B556
:102CF000044690F83D30EBB1022384F83D30211DAD
:102D00002068FFF7B1FF012384F8463084F83E3095
:102D100084F83F3084F8403084F8413084F8423001
:102D200084F8433084F8443084F8453084F83D30EA
:102D3000002010BD80F83C3002F08EFADCE7012064
:102D4000704710B4846824F47F4442EA03230B43A1
:102D50002343836010BC704790F83C30012B73D044
:102D600010B50446012380F83C30022380F83D3042
:102D70000268936823F47F4323F0770393600B6822
:102D8000402B56D011D9702B3BD01FD8502B45D09B
:102D9000602B19D1CA6849680068FFF761FE60219D
:102DA0002068FFF770FE002024E0102B04D009D922
:102DB000202B01D0302B07D119462068FFF763FE86
:102DC000002017E0002BF7D0012013E0B3F5805F5F
:102DD0000FD0B3F5005FF7D1CB684A688968006807
:102DE000FFF7AFFF2268936843F4804393600020AD
:102DF00000E00020012384F83D30002384F83C30BB
:102E000010BDCB684A6889680068FFF79AFF22689E
:102E1000936843F0770393600020EBE7CA68496842
:102E20000068FFF70BFE50212068FFF72CFE002002
:102E3000E0E7CA6849680068FFF700FE40212068A3
:102E4000FFF721FE0020D5E70220704790F83C30C4
:102E5000012B2BD030B4012380F83C30022380F8C2
:102E60003D3003685C689D6824F070040A68224362
:102E70005A6003680E4A93420AD0B3F1804F07D0DC
:102E8000A2F59432934203D002F58062934204D1BA
:102E900025F080054A6815439D60012380F83D3088
:102EA000002380F83C30184630BC70470220704741
:102EB000002C014070477047026802F10C0353E890
:102EC000003F23F0C0030C3242E800310029F3D167
:102ED000202380F841307047026802F10C0353E868
:102EE000003F23F490730C3242E800310029F3D103
:102EF000026802F1140353E8003F23F00103143287
:102F000042E800310029F3D1036B012B05D02023C7
:102F100080F84230002303637047026802F10C031B
:102F200053E8003F23F010030C3242E8003100293F
:102F3000F3D1ECE790F84130DBB2212B27D1836845
:102F4000B3F5805F16D0036A5A1C02621A780368D0
:102F50005A60C38C013B9BB2C384D3B90268D36867
:102F600023F08003D3600268D36843F04003D3604A
:102F7000002070470369002BE5D1036A1B880268B3
:102F8000C3F308035360036A02330362E1E70220DC
:102F9000704700207047000038B504460268136986
:102FA00023F44053C1680B431361836802691343E0
:102FB00042691A430168CB6823F4B05323F00C0331
:102FC0001343CB600268536923F4407381690B4358
:102FD00053610268124B9A421FD0FFF715FC00EBB9
:102FE000800000EB800063689B00B0FBF3F00D4DA8
:102FF000A5FB00325109642202FB11021301323396
:10300000A5FB03235B0903F0F00202EB011203F0BE
:103010000F03216813448B6038BDFFF705FCDEE722
:10302000003801401F85EB5160B310B5044690F89D
:10303000413013B3242384F841302268D36823F449
:103040000053D3602046FFF7A7FF2268136923F4DB
:10305000904313612268536923F02A035361226865
:10306000D36843F40053D36000206064202384F8C5
:10307000413084F84230606310BD80F8403002F087
:103080000BF9D7E70120704738B590F84150EDB201
:10309000202D30D1002930D00AB901202CE0134670
:1030A00004460162A284E28400224264212084F862
:1030B0004100A06B124D8562A06B124DC562A06BE2
:1030C000114D0563A06B426322680432A06BFEF7CA
:1030D000F3FC23686FF040021A60226802F11403C7
:1030E00053E8003F43F08003143242E800310029E6
:1030F000F3D1002000E0022038BD0120FCE700BF32
:103100000F3100087731000885310008704708B595
:10311000416A03681B6813F0200F1AD10023CB8487
:103120000A6802F1140353E8003F23F080031432CD
:1031300042E800300028F3D10A6802F10C0353E89A
:10314000003F43F040030C3242E800300028F3D146
:1031500008BD0846FFF7DAFFFAE708B50168CB6853
:1031600023F04003CB60202380F84130FFF7CEFFEF
:10317000002008BD704708B5406AFFF7FBFF08BD97
:103180007047704710B5446A23685A6994F8413013
:10319000DBB2212B10D023685A6902F0400294F868
:1031A0004230DBB2222B11D0636C43F01003636416
:1031B0002046FFF7E6FF10BD02F08002002AEAD0A9
:1031C0000023E3842046FFF777FEE4E7002AEBD0F4
:1031D0000023E3852046FFF77FFEE5E708B5406A58
:1031E0000023C385C384FFF7CCFF08BD704790F868
:1031F0004230DBB2222B69D18368B3F5805F4ED0B9
:10320000826AB3F5805F04D0002B55D10369002B8F
:1032100052D103685B681370836A01338362C38D84
:10322000013B9BB2C385002B52D100B583B002682D
:10323000D36823F02003D3600268D36823F480733B
:10324000D3600268536923F001035361202380F89F
:10325000423000234363036B012B33D1002303630C
:10326000026802F10C0353E8003F23F010030C3214
:1032700042E800310029F3D103681A6812F0100FF8
:1032800006D0002201921A6801925B680193019BAB
:10329000818DFFF7ABFF002003B05DF804FB0269EE
:1032A000002AADD1826A03685B68C3F30803138008
:1032B000836A02338362B2E703685B6803F07F03CB
:1032C0001370A9E7FFF75CFF0020E5E702207047D5
:1032D0000020704730B583B0044602681368D06898
:1032E000516913F00F0505D113F0200F02D010F033
:1032F000200F5ED1002D72D011F0010102D110F427
:10330000907F6CD013F0010F06D010F4807F03D0B3
:10331000626C42F00102626413F0040F04D019B130
:10332000626C42F00202626413F0020F04D019B121
:10333000626C42F00402626413F0080F07D010F0D0
:10334000200F00D119B1626C42F008026264626C15
:10335000002A55D013F0200F02D010F0200F2CD1EE
:1033600023685B6903F04003626C12F0080F00D120
:103370007BB32046FFF7B0FD23685B6913F0400F75
:1033800023D0226802F1140353E8003F23F04003E6
:10339000143242E800310029F3D1E36B8BB16A4A61
:1033A0005A63E06BFEF7E6FB50B3E06B436B984764
:1033B00026E02046FFF71BFF22E02046FFF717FF1D
:1033C000CEE72046FFF7DDFE1AE02046FFF7D9FEE4
:1033D00016E02046FFF7D5FE0023636410E0216B62
:1033E00001290FD013F0800F03D010F0800F40F0B0
:1033F000A28013F0400F03D010F0400F40F09F80E8
:1034000003B030BD13F0100FECD010F0100FE9D066
:10341000002301931368019353680193019B53693F
:1034200013F0400F4ED0E26B13685B689BB2002B29
:10343000E6D0A18D9942E3D9E3859369202B37D05B
:10344000226802F10C0353E8003F23F480730C322E
:1034500042E800310029F3D1226802F1140353E855
:10346000003F23F00103143242E800310029F3D178
:10347000226802F1140353E8003F23F040031432A2
:1034800042E800310029F3D1202384F842300023A0
:103490002363226802F10C0353E8003F23F010037A
:1034A0000C3242E800310029F3D1E06BFEF73FFB1C
:1034B00002236363A18DE38DC91A89B22046FFF709
:1034C00095FE9DE7A18DE38DC91A89B2E38D9BB26C
:1034D000002B95D0002993D0226802F10C0353E809
:1034E000003F23F490730C3242E800300028F3D1FF
:1034F000226802F1140353E8003F23F00103143261
:1035000042E800300028F3D1202384F84230002321
:103510002363226802F10C0353E8003F23F01003F9
:103520000C3242E800300028F3D1022363632046C6
:10353000FFF75CFE64E72046FFF7FCFC60E72046EF
:10354000FFF70BFE5CE700BFDD31000890F841306B
:1035500090F8420018437047104B1B78EBB90021DC
:1035600012E041F2210080EA43039BB20132072AB4
:1035700005D813F4004FF4D15B009BB2F6E7084A7C
:1035800022F81130013189B2FF2903D80B029BB216
:103590000022ECE7014B01221A7070471402002050
:1035A000D034002070B505460E4614460A4B1B78F1
:1035B0006BB9FFF7D1FF0AE0337883EA1523074997
:1035C00031F9130080EA052085B201361446621EE7
:1035D000002CF1DC284670BD14020020D0340020FD
:1035E0000D4BDA6822F08072DA60DA6842F080729D
:1035F000DA600A4B1A6822F001021A601A6842F077
:1036000001021A6000225A6000BF00BF00BF586864
:10361000B0FA80F040097047F0ED00E0001000E0E3
:10362000012800D070474FF6FF739942FAD1134B2F
:1036300000229A62DA621A635A639A63DA631A643E
:103640005A649A64DA641A655A659A65DA651A6684
:103650005A6607220A4B002A05DB002119605960CF
:103660000833013AF7E77F22064B002ADADB002114
:10367000196059600833013AF7E700BFDC1B0020EE
:103680003C170020D01F002008B50449FDF72AF898
:103690004FF06651FDF726F808BD00BF33335340A5
:1036A00010B502281BD0032825D001280BD0184CB8
:1036B000002280212046FEF79EFD01224021204667
:1036C000FEF799FD10BD124C012280212046FEF725
:1036D00092FD012240212046FEF78DFDF2E70C4CC1
:1036E000002280212046FEF786FD00224021204650
:1036F000FEF781FDE6E7064C012280212046FEF719
:103700007AFD002240212046FEF775FDDAE700BF72
:103710000008014008B572B6012220210248FEF7D8
:103720006AFDFEF755F9FEE70008014008B50648B6
:10373000FDF7A4FE4FF4807204490548FEF748F8EF
:103740000448FFF7A9F908BD901C0020801700204D
:10375000601C0020481D002000B587B000230593A1
:10376000019302930C4B039304230493FEF738FB5D
:1037700078B905A901A8FEF7FDFB28B9FEF74AFBB9
:10378000002007B05DF804FBFEF744FB6FF001007A
:10379000F7E74FF0FF30F4E700F00008F8B5002736
:1037A000124C04F58E76124B9E421DD8114D4FF4EB
:1037B0008E722146284604F03CF82A680E4B9A4245
:1037C00004D00434EDE727463446EAE72946B5F845
:1037D0001A510020A1F81A014FF48E72FFF7E2FE91
:1037E0008542F0D00434DCE73846F8BD00F000082C
:1037F00000000108180200206219961908B5FFF7A9
:10380000CDFF38B101464FF48E72044804F011F830
:10381000002008BD4FF0FF30FBE700BF1C1E00205A
:1038200070B586B0002002900390494B04930423A6
:1038300005930190474C484B2360A4F81A014FF4BC
:103840008E722146FFF7AEFEA4F81A01FEF7C8FA01
:10385000002879D1FFF7A2FF0446E0B14FF48E7241
:103860003C4903F0D7FF054668B104F58E7604F5B0
:103870000E743A4B9C420FD901A902A8FEF77AFBBD
:1038800020B9334E08E0FEF7C5FA42E0FEF7C2FA6F
:103890006FF001053DE02E4E33460022B2F58E7FDB
:1038A00014D2981C1B889BB24FF6FF718B4220D01C
:1038B00006F58E72134606F50E7628498E4215D906
:1038C00001A902A8FEF756FBB0B9214E0024214BF6
:1038D000B4F58E7F20D29D1C1A8800233119012057
:1038E000FEF7D8FA68B902342B46F1E716460022F3
:1038F000D4E702320346D1E7FEF78CFA6FF00205F7
:1039000007E001A902A8FEF735FBFEF783FA6FF086
:103910000305284606B070BD4FF48E720D4930463F
:1039200003F078FF054630B9FEF774FA0C4B4FF000
:10393000FF321A60EDE701A902A8FEF71BFBFEF7B4
:1039400069FA6FF00405E4E74FF0FF35E1E700BFE7
:1039500000F000081C1E00206219961900000108E2
:103960001C0000202DE9F047894690460D460026B0
:1039700034469DB1071DD0F800A02146D8F80400B8
:10398000FCF7B0FE01465046FCF7A4FD3146FCF7BB
:103990009FFD013D264604463846EAE72146D8F811
:1039A0000C00FCF79FFE3146FCF792FD064604F141
:1039B0000040D8F80810FCF795FE05464846FCF78D
:1039C00039FE01464FF08040FCF740FF04460146B7
:1039D0003046FCF787FEC8F8100021462846FCF761
:1039E00081FEC8F81400BDE8F0872DE9F04F85B0DE
:1039F0000546029193469A46DDF838901846FCF742
:103A000019FE01464FF08040FCF720FF039000278D
:103A10003AE00136009B01930090564512D255F8CA
:103A200024800099D9F80400FCF75CFE014640466A
:103A3000FCF750FD0199FCF74BFD0134A345E8D894
:103A40000024E6E7009C2146D9F80C00FCF74AFE6A
:103A50000199FCF73DFD064604F10040D9F8081035
:103A6000FCF740FE8046029B03EBC7043146039EF1
:103A70003046FCF737FE029B43F83700414630469C
:103A8000FCF730FE606001375F4505D23C460026FA
:103A9000002301930093C0E705B0BDE8F08F00005C
:103AA000F8B504460E460C493046FCF71BFE0746A7
:103AB00002F02AFC0546384602F0A6FC07462660BE
:103AC00029462846FCF706FD6060E560A7600023F4
:103AD00023616361F8BD00BFDB0FC94038B50546FF
:103AE000046800212046FCF791FF002868D1364980
:103AF0002046FCF795FF002831D134492046FCF7D9
:103B00008FFF002832D132492046FCF789FF002878
:103B100033D130492046FCF783FF002834D14FF0E1
:103B20007E512046FCF77CFF002834D12A492046EC
:103B3000FCF776FF002845D128492046FCF770FFA6
:103B400000282FD126492046FCF76AFF002830D1F3
:103B50001E492046FCF7C6FD2860472031E0214978
:103B60002046FCF7BFFD286066202AE01E4920465B
:103B7000FCF7B8FD2860702023E019492046FCF7C7
:103B8000B1FD286070201CE014492046FCF7AAFD16
:103B90002860752015E010492046FCF7A3FD286039
:103BA0006D200EE00B492046FCF79CFD28606B2041
:103BB00007E007492046FCF795FD28604D2000E00E
:103BC000202038BD2020FCE7CCBC8C2B5F708930D6
:103BD000BD3786356F12833A00007A440024744959
:103BE000286B6E4EA95F6358A5D4685338B5642816
:103BF00032D0B0F5967F36D0294B4FF47A721A80C6
:103C0000284B4FF07E521A602749264B1868FCF764
:103C100069FD4FF07C51FCF765FD054600243F2C03
:103C200029D82046FCF706FD2049FCF75BFD02F091
:103C3000EBFB4FF07E51FCF74DFC2946FCF752FDA3
:103C40004FF07C51FCF746FC02F09AFBFCF710FFAA
:103C5000174B18550134E2E7114B64221A80114BBF
:103C6000144A1A60D0E70E4B4FF496721A800D4B2F
:103C7000114A1A60C8E70A4B1C8804B938BDA40170
:103C8000FEF7BCFD0D4A53680133B0FBF3F303EBC1
:103C90005403B3FBF4F3013B1168CB62D360EDE74F
:103CA000100000201400002000007F43DB0FC93DFE
:103CB000381F0020B81E053FE17A143F481D002040
:103CC0002DE9F0410D462149FCF70CFD044602F0B8
:103CD0001BFB0646204602F097FB04461B4928467C
:103CE000FCF700FD074602F00FFB0546384602F0E0
:103CF0008BFB074629463046FCF7F4FC80463946E4
:103D00002046FCF7EFFC01464046FCF7E3FB80460B
:103D100039463046FCF7E6FC064629462046FCF7C5
:103D2000E1FC01463046FCF7D3FB04460021404647
:103D3000FCF76CFE10B10648BDE8F0814146204614
:103D400002F0A0FB0349FCF7CDFCF5E735FA8E3C09
:103D50000000C07FE12E65422DE9F04784B0804B22
:103D60001B68042B03D94FF07C580027DFE0DFF8F5
:103D70002082FAE77B4A9278002A44D07A4B03EB00
:103D800047297A4C224680214846FFF7EBFD2469FB
:103D900000212046FCF73AFE002800F0AE8074486F
:103DA000744B43F82700714B009380231A467249E5
:103DB0004846FFF71AFE002400267F2C00F2AC8054
:103DC0006D4B03EBC40393E8030004AB03E903006A
:103DD000029D29462846FCF785FC82460399084641
:103DE000FCF780FC01465046FCF774FB0146304668
:103DF000FCF770FB064649F824500134DDE7594AC8
:103E0000D278002ABAD1584E06EB4726012B19D991
:103E1000002400257F2C46D856F824100846FCF7CD
:103E200061FC01462846FCF755FB05460134F1E7E5
:103E30004C4A9278002AE6D1A0E74A4AD278002A72
:103E40009CD0E0E7002400207F2C05D856F82410F1
:103E5000FCF740FB0134F7E74FF07051FCF742FCF0
:103E6000814641464FF07E50FCF732FB434C54F8FC
:103E70003710FCF737FC054649464046FCF732FC54
:103E800001462846FCF726FB054644F83700002487
:103E90007F2CBDD8294656F82400FCF719FB46F8BC
:103EA00024000134F4E74FF070512846FCF71AFC67
:103EB00002F048FB324B43F827002C4C224680216D
:103EC0003046FFF74FFD246900212046FCF79EFD98
:103ED00020B12748274B43F8270027E02146234BF2
:103EE000586902F0CFFA2749FCF7FCFB2649FCF79A
:103EF000F1FA264902F0C8FAECE721461B4B586953
:103F000002F0C0FA1F49FCF7EDFB1F49FCF7E2FA8B
:103F10001E4902F0B9FA43E74FF070513046FCF702
:103F2000E1FB02F00FFB164B43F827000137072F88
:103F30000ED87B08032B3FF621AF01A252F823F0E5
:103F4000753D0008FF3D0008313E00083B3E00087B
:103F5000034A13680133136004B0BDE8F08700BF63
:103F60007C1700203817002038070020481C00204C
:103F70000000C07FFC1D0020D01F00203C17002047
:103F8000D81D0020E12E6542000087430000B443A5
:103F90006666663F2DE9F04383B081468846002679
:103FA000009601960024274622E02F4B9B78F3B120
:103FB000651C2E4B53F825103046FCF78BFA06464D
:103FC0002B492C4B53F82500FCF78CFB054602F0DF
:103FD0009BF901460098FCF77DFA0090284602F014
:103FE00013FA01460198FCF775FA01900137023483
:103FF000072C1CD86308032BDAD801A252F823F04F
:10400000AB3F0008114000081B4000082540000895
:10401000154BDB78002BCBD1E9E7134B9B78002BBA
:10402000C6D0E4E7104BDB78002BC1D0DFE7384681
:10403000FCF700FB01463046FCF708FCC9F800001D
:10404000009C00212046FCF7E1FC28B10A48C8F892
:10405000000003B0BDE8F0832146019802F012FA97
:104060000649FCF73FFBF2E738170020D81D002077
:1040700035FA8E3CFC1D00200000C07FE12E654219
:10408000864BDB7913F0040F00D070472DE9F04F19
:1040900087B0FFF761FE05A904A8FFF77BFF049B2B
:1040A0007F4C6360E3606361E361059A7D4B5A6016
:1040B000DA605A61DA617C4B9E78B6FA86F6760948
:1040C0007A4A1660DD78B5FA85F56D09784B1D6082
:1040D0004FEA860854F82800FFF7D6FA834608F11D
:1040E000010954F82900FFF7CFFA8246AF00BB1C44
:1040F00054F82300FFF7C8FA6E49FCF7F3FA009072
:10410000033754F82700FFF7BFFA6A49FCF7EAFAC9
:104110000190694B19684FF07E50FCF797FB0446FD
:10412000002E00F0B88006460DB94FF07E5431469F
:104130005846FCF7D7FA0746604D6860314650464E
:10414000FCF7D0FAA86021460098FCF7CBFA0646A7
:10415000E86021460198FCF7C5FA286131463846E7
:10416000FCF774FB68614F4C54F8291054F8280090
:10417000FFF7A6FDA8614E4B1B689B009A1C0333FA
:1041800054F8231054F82200FFF79AFD0146E86125
:10419000A869FFF795FD04462862494B1888FCF78B
:1041A0004DFA4849FCF79EFA804647492046FCF7FD
:1041B00099FA064602F0A8F80446304602F024F9BF
:1041C00006466F6924F000413846FCF78BFA044636
:1041D00026F000413846FCF785FA06464146FCF7D2
:1041E00035FB824641463046FCF77CFA01464FF0EB
:1041F0007E50FCF72BFB009031462046FCF726FB57
:10420000019021463046FCF721FB029021462046D2
:10421000FCF768FA814631463046FCF763FA0146FE
:104220004846FCF757F983462146FCF70FFB8146C9
:1042300031465846FCF70AFB06464146FCF706FBAA
:10424000834631464046FCF74DFA01464FF07E501A
:10425000FCF7FCFA8046039631464846FCF7F6FA2E
:10426000064649460398FCF7F1FAC5F828A0009BDA
:104270006B62EF622C63019B6B63029BAB63C5F8BF
:1042800040B0C5F83C806F64C5F84890EE6428657E
:1042900007B0BDE8F08F4FF07E5645E71C1E0020AA
:1042A000D81D0020FC1D002038170020DC33002022
:1042B000801B00206F12833A0C0000207C1F00201E
:1042C00010000020DB0FC94035FA8E3C2DE9F04785
:1042D00092B0794B1E68032E00F2A4800446774BFF
:1042E00053F826804FEA48091EB9754B1B68002B0E
:1042F0003BD0734B1F68092F6BD918F0010F40D0CA
:104300004FF0FF35B8F1010F6AD94222002101A810
:1043100003F09AFA00227F2A35D804EB820134F99F
:104320002230A3F5006303FB05F31BB2B1F802C012
:10433000ACF5006C0FFA8CFC624951F8320018445D
:1043400041F8320001EBC201486860444860002B2C
:10435000B8BF5B42C3F3541312A90B4413F8441CB7
:10436000013103F8441C0132D5E74046FFF798F9C4
:10437000554B00221A60012220215448FDF73BFFD3
:10438000B7E70125BEE7302100231A461D460EE09F
:104390002C469A4202D3D31ADBB200E02B460A2CF9
:1043A00002D90A2B00D901250131134602464129C1
:1043B00009D845B912A8084410F8440C8242E7D342
:1043C000141AE4B2E5E7404B13F80820154303F84C
:1043D00008503D4B13F80830EBB93D4B1B681BE010
:1043E00000237F2BF5D804EB830C34F92310A1F5BF
:1043F0000061344A52F8330001FB050142F83310E2
:10440000BCF90210A1F5006002EBC302516801443F
:1044100051600133E5E700230137294A17600A3369
:104420009F4202D212B0BDE8F0870136234B53F809
:104430002600FFF735F9224B18680A38FCF7FAF81E
:1044400001464FF07E50FCF701FA0746214B03EB83
:10445000492A09F1010903EB492900247F2C15D8C9
:10446000184D55F83400FCF7E9F83946FCF73AF9ED
:104470004AF8240005EBC4056868FCF7DFF8394604
:10448000FCF730F949F824000134E7E74FF4806283
:1044900000210C4803F0D8F9094B00221A600E4B9A
:1044A000C3F80080044B1E60032EBBD920210748AF
:1044B000FDF7A1FEB6E700BFD833002010BA000810
:1044C0003407002034030020381700200008014082
:1044D000080000203807002018000020F0B583B045
:1044E0000D4616461F4621F00044022830D003280E
:1044F0004AD06D492046FCF793FA002840F0978097
:104500004FF07E512046FCF78BFA002840F09D804A
:1045100066492046FCF784FA002840F0A4806449EC
:104520002046FCF77DFA002840F0A880614920462B
:10453000FCF776FA002840F0AC802846FBF76CFFC9
:10454000CDE900015C4A3946304603F0A3FE0EE097
:1045500056492046FCF764FA58B12846FBF75CFF41
:10456000CDE90001554A3946304603F093FE03B0C9
:10457000F0BD2846FBF750FFCDE90001504A39460F
:10458000304603F087FEF2E747492046FCF748FA39
:10459000D8B94FF07E512046FCF742FA18BB434988
:1045A0002046FCF73DFA60BB41492046FCF738FA4B
:1045B000002831D02846FBF72FFFCDE90001414A02
:1045C0003946304603F066FED1E73F492846FCF7FE
:1045D00089F8FBF721FFCDE900013C4A3946304616
:1045E00003F058FEC3E733492846FCF77BF8FBF796
:1045F00013FFCDE90001364A3946304603F04AFE42
:10460000B5E72846FBF708FFCDE90001314A3946F6
:10461000304603F03FFEAAE72846FBF7FDFECDE952
:1046200000012D4A3946304603F034FE9FE7264903
:104630002846FCF757F8FBF7EFFECDE90001274AC3
:104640003946304603F026FE91E71A492846FCF722
:1046500049F8FBF7E1FECDE90001214A3946304631
:1046600003F018FE83E72846FBF7D6FECDE90001EC
:104670001C4A3946304603F00DFE78E72846FBF722
:10468000CBFECDE90001184A3946304603F002FE60
:104690006DE72846FBF7C0FECDE90001134A394615
:1046A000304603F0F7FD62E76F12833A00002041C5
:1046B0000000C84200007A44A4B9000844B90008C8
:1046C0004CB900086CB900080024744954B90008BA
:1046D0005CB9000864B9000874B900087CB9000826
:1046E00084B900088CB9000894B900089CB9000886
:1046F0002DE9F84F8146884693461F46DDF828A0ED
:10470000002611E0012201F0EFFB6400A4B20135A4
:10471000BD4208D205EB090006EB080114F4004F76
:10472000F0D10022EFE70136564507D23BF816409C
:10473000C7F110039C40A4B20025E9E7BDE8F88F5B
:1047400008B501F0BBFC01F035FB012001F0FEFAD9
:1047500001F00AFB4FF49670FCF760FD002001F0B9
:10476000F5FA01F001FB08BD30B583B00021084621
:1047700001F040FC244C012394E80600234801F09A
:1047800021FC00215A2001F035FC214D1CA3D3E966
:1047900000232049284603F0B1FD012394E80600D8
:1047A000284601F00FFC0E21102001F023FC1A4ACC
:1047B000012306CA194801F005FC012500951F23B5
:1047C000032276210A2001F03FFC2621052001F07A
:1047D00011FC2B4694E80600114801F0F3FB34214C
:1047E000052001F007FC2B4694E806000D4801F077
:1047F000E9FB01F0B9FA03B030BD00BFAFF30080B0
:10480000333333333333D33FD8B80008ACB900085F
:10481000841B0020B4B90008D0B80008BCB9000857
:10482000C8B90008D8B90008F0B585B0002001F07B
:104830008DFABD4BDC79BD4B1B68012B00F0538218
:1048400004F00204022B00F09C820021084601F0D3
:10485000D1FB002C00F03381B548B64A012306CACB
:1048600001F0B0FB0021232001F0C4FBB24B1B88F8
:10487000B3F57A7F80F02581B04A1A21B04803F061
:1048800009FDAC4A012306CAAD4801F09BFBA64BCB
:10489000DB7913F0040F40F01E81012300930C23F9
:1048A00003228021002001F0CFFB002303939E4BC5
:1048B0009B79012B00F02581002B00F01781022B42
:1048C00000F02A811221002001F094FB9D4D9C4EA6
:1048D000012395E80600304601F074FB00210A2010
:1048E00001F096FB03A8FFF7F9F807461A233246B2
:1048F00003990420FFF7F2FD012395E806003046F6
:1049000001F060FB884B9B79012B00F04781002B65
:1049100000F02D81022B00F058818B4B1B68002B7F
:1049200000F077814822864B1A70884B1B68002B59
:1049300000F071814823824D6B700023AB7017210A
:10494000712001F057FB7B4A012306CA284601F07B
:1049500039FB7F4B5D6800212846FCF775F800287D
:1049600000F05B8104A840F8045DFFF7B7F8064645
:104970002821002001F03EFB714D1A232A4603999D
:104980000420FFF7ABFD2846FCF792F80346202EE3
:1049900001D02E5401335A1C69485621C1540023BA
:1049A0008354644A012306CA01F00CFB684B1D695D
:1049B00000212846FCF748F8002800F0308104A8C0
:1049C00040F8045DFFF78AF8064628213E2001F0F2
:1049D00011FB5B4D1A232A4603990420FFF77EFD45
:1049E0002846FCF765F80346202E01D02E540133EB
:1049F0005A1C53484121C154002383544D4A01237A
:104A000006CA01F0DFFA484B9B79012B40F209817D
:104A1000022B40F08F81002C00F05F814C4B1B6C0F
:104A200004A840F8043DFFF759F806463521002058
:104A300001F0E0FA424D1A232A4603990420FFF7B9
:104A40004DFD2846FCF734F80346202E01D02E54A5
:104A500001335A1C3A484821C15400238354354A33
:104A6000012306CA01F0AEFA002C00F03981384B60
:104A70001B6D04A840F8043DFFF730F806463521C9
:104A80003E2001F0B7FA2B4D012395E8060031488E
:104A900001F098FA2A4C1A23224603990320FFF7C3
:104AA0001DFD2046FCF704F8431C26540022E25466
:104AB000012395E80600204601F084FA3AE12648F1
:104AC000CBE6264AA2FB03239B09254A1A211C4850
:104AD00003F0E0FBD5E60021632001F08BFA154AD4
:104AE000012306CA1F4801F06DFAD6E634B1184B0F
:104AF0001B6C0393124B4C221A80E3E6144B9B6A07
:104B0000F7E734B1124BDB6B03930D4B43221A8052
:104B1000D8E60F4B5B6AF7E734B30D4B5B6C03933E
:104B2000074B52221A80CDE61C1E0020F81D0020E3
:104B3000E0B80008D8B8000810000020F0B800085D
:104B4000841B0020D0B80008DC330020801B00202C
:104B50007C1F00200CB90008E4B80008D34D621097
:104B6000F8B8000800B90008A04BDB6AD7E70021BD
:104B7000062001F04DFA202F0ED09D4B1F7001230F
:104B80005A1C9B484821C15400238354994A01234D
:104B900006CA01F017FAC0E60023F1E7002106205B
:104BA00001F036FA202F0ED0914B1F7001235A1CB2
:104BB0008F484621C154002383548E4A012306CADC
:104BC00001F000FAA9E60023F1E7202F1CD0002114
:104BD000062001F01DFA8648077000234370854ABD
:104BE000012306CA01F0EEF90DF10A0102A801F055
:104BF00007FABDF80800122300930B237E4A0F2109
:104C00000230FFF775FD88E60021042001F000FA6C
:104C1000EAE74C2287E64C238DE60025A2E6002534
:104C2000CDE6002C53D0714B9B6C04A840F8043D9A
:104C3000FEF754FF07463521002001F0DBF96F4EE7
:104C4000012396E806006E4801F0BCF935211420D6
:104C500001F0D0F9664D1A232A4603990320FFF785
:104C60003DFC2846FBF724FF431C2F540022EA5446
:104C7000012396E80600284601F0A4F954B35B4BE3
:104C80001B6D04A840F8043DFEF728FF06463521B9
:104C90003E2001F0AFF9594D012395E8060059482F
:104CA00001F090F9524C1A23224603990320FFF792
:104CB00015FC2046FBF7FCFE431C26540022E25460
:104CC000012395E80600204601F07CF932E0474BCD
:104CD0001B6BAAE7454B9B6BD3E7444B9B6A9FE654
:104CE000424B9B6BC5E6484C6368414DC3F10903D9
:104CF000464A1A21284603F0CDFA1221002001F07D
:104D000079F93E4A012306CA284601F05BF9238857
:104D1000B3F57A7F2BD23E4A1A21284603F0BAFA1D
:104D20002021002001F066F9344A012306CA3048E8
:104D300001F048F93521782001F05CF9354BDB7939
:104D400013F0010F4FD1344A294C1A21204603F0A9
:104D5000A1FA2A4A012306CA204601F033F901F0DC
:104D600003F82E4A13680133136005B0F0BD2C4AD6
:104D7000A2FB03239B092B4A1A211D4803F08AFA40
:104D8000CEE7214C63681A4DC3F10903264A1A2164
:104D9000284603F07FFA1221002001F02BF9174A70
:104DA000012306CA284601F00DF92388B3F57A7F5E
:104DB0000FD2174A1A21284603F06CFA202100204E
:104DC00001F018F90D4A012306CA094801F0FAF862
:104DD000B0E7134AA2FB03239B09124A1A21044895
:104DE00003F058FAEAE7114AAEE700BF7C1F002043
:104DF000841B0020D0B80008ECB90008D8B800081F
:104E000008B900080CB90008DC1B002010B9000824
:104E100020B900081C1E0020ECB80008441C00202B
:104E2000D34D621028B9000830B90008E8B800086E
:104E300008B572B6012220210148FDF7DCF9FEE732
:104E400000080140FEE7000008B572B601222021EB
:104E50001348FDF7D0F9134C134B5D68FDF7CEFCFA
:104E6000A4FB0034180D40EA04340F4B5B685B1B55
:104E7000A342FAD3002220210948FDF7BCF9094CCE
:104E8000094B5D68FDF7BAFCA4FB0034180D40EA3D
:104E90000434054B5B685B1BA342FAD3D6E700BF23
:104EA0000008014070110100001000E008B572B662
:104EB000012220211348FDF79EF9134C134B5D6826
:104EC000FDF79CFCA4FB0034180D40EA04340F4BA2
:104ED0005B685B1BA342FAD3002220210948FDF73F
:104EE0008AF9094C094B5D68FDF788FCA4FB003486
:104EF000180D40EA0434054B5B685B1BA342FAD3F0
:104F0000D6E700BF00080140A0860100001000E0C5
:104F100008B572B6012220211348FDF76CF9134C35
:104F2000134B5D68FDF76AFCA4FB0034180D40EAE2
:104F300004340F4B5B685B1BA342FAD30022202191
:104F40000948FDF758F9094C094B5D68FDF756FC17
:104F5000A4FB0034180D40EA0434054B5B685B1B6E
:104F6000A342FAD3D6E700BF00080140A0860100A3
:104F7000001000E008B572B6012220211348FDF7A9
:104F80003AF9134C134B5D68FDF738FCA4FB003471
:104F9000180D40EA04340F4B5B685B1BA342FAD345
:104FA000002220210948FDF726F9094C094B5D68CC
:104FB000FDF724FCA4FB0034180D40EA0434054B33
:104FC0005B685B1BA342FAD3D6E700BF0008014031
:104FD000A0860100001000E0704770477047000095
:104FE00070B5FCF709F9FCF713F90546002421E038
:104FF000731E1BB234E00023A10021448800014647
:10500000254A0244D380926842B91D2B06DD0E4624
:10501000214931440020087308618D600AB1002BDA
:1050200024DD32B1AA1A04EB840399001A4B0B4415
:105030001A610134022C25D804EB84029300164A2D
:10504000D0580028F5D0A300234499000A44B2F9AF
:1050500006609188FDF7C8F80028C9D1731C1BB2FF
:10506000002BC8DB1E2BC7DD1E23C5E7A81AA10035
:1050700021448E00084B334418610121197300212B
:105080009960CEE7054B1B68002B03DD034A1368CC
:10509000013B136070BD00BFA01B00201C0000205E
:1050A00008B50248FCF7B2FD08BD00BFC01C0020D7
:1050B00008B50248FCF7AAFD08BD00BF041D00208A
:1050C00008B50A48FDF721FD094B1B68094AD25C67
:1050D0000948C16821F0FF010A43C26001333F2B38
:1050E00000D90023024A136008BD00BF481D0020FC
:1050F000781F0020381F0020000C014008B502482E
:10510000FEF7E8F808BD00BF901D002008B5026852
:10511000034B9A4200D008BD0248FFF7D7F8FAE7E0
:10512000002401408017002008B50268034B9A4212
:1051300000D008BD0248FFF7C9F8FAE70024014093
:105140008019002082B00E4B9A6942F001029A61E8
:105150009A6902F001020092009ADA6942F08052E4
:10516000DA61DB6903F080530193019B054A5368C0
:1051700023F0E06343F00073536002B0704700BF58
:10518000001002400000014070B588B00023049375
:105190000593069307930368294A934204D0294A4A
:1051A000934242D008B070BD0446274B9A6942F43E
:1051B00000729A619A6902F400720192019A9A69E6
:1051C00042F004029A619B6903F004030293029B7C
:1051D0000323059308AD012345F8103D1B4E2946D6
:1051E0003046FCF715FF0223049329463046FCF7AE
:1051F0000FFF1748174B0360002343608360802331
:10520000C3604FF4007303614FF4006343612023D4
:1052100083614FF40053C361FCF718FC18B90C4BC1
:1052200023625C62BEE7FFF703FE074B9A6942F414
:1052300080629A619B6903F480630393039BB1E7E7
:1052400000240140002801400010024000080140F5
:10525000C01C00200800024002680E4B9A4200D099
:10526000704700B583B003F50333DA6942F00202F8
:10527000DA61DB6903F002030193019B002211460E
:105280001D20FCF763FB1D20FCF794FB03B05DF8C9
:1052900004FB00BF00040040F0B587B00023029378
:1052A0000393049305930268274B9A4201D007B0F9
:1052B000F0BD044603F558439A6942F480429A616E
:1052C0009A6902F480420092009A9A6942F00402BC
:1052D0009A619B6903F004030193019B02230393EA
:1052E000059306AE4FF4007346F8103D174F314654
:1052F0003846FCF78DFE00250395012304934FF4F7
:105300008063029331463846FCF782FE1048114B09
:1053100003601023436085608023C360056145619D
:105320008561C561FCF792FB58B9094BA3635C62C8
:1053300000220A212520FCF709FB2520FCF73AFB77
:10534000B5E7FFF775FD00BF0038014000080140D8
:10535000041D00204400024000B595B000230C93CA
:105360000D930F9310930593069307930893099356
:10537000019302930393049301220A924FF4803322
:105380000B930E920222119212934FF4E013139397
:105390000AA8FCF74DFFC8B90F2305930221069117
:1053A000002307934FF480620892099305A8FDF744
:1053B00071F968B9022301934FF40043039301A8E4
:1053C000FDF742FA30B915B05DF804FBFFF730FD88
:1053D000FFF72EFDFFF72CFD08B50A480A4B0360C6
:1053E0004FF46123436000238360C36003610C2298
:1053F00042618361C361FDF717FE00B908BDFFF785
:1054000017FD00BF901D00200038014070B584B02A
:1054100000230193029303932C482D4A026083607A
:10542000037303754FF40022C261436001230361DB
:10543000FCF7C6F800283BD104A94FF4C02341F87B
:10544000103D2248FCF744FA002833D10623039389
:10545000002301930123029301A91C48FBF72EFFAF
:1054600050BB1C4E34461C4B44F8043B1B4D0FCD27
:105470000FC495E8070084E80700012333734FF455
:105480006023F3613046FCF79BF8B8B90123019320
:10549000029301A90F48FBF711FF88B90B48FCF7ED
:1054A00017F978B90B48FCF713F968B904B070BD67
:1054B000FFF7BEFCFFF7BCFCFFF7BAFCFFF7B8FC38
:1054C000FFF7B6FCFFF7B4FCFFF7B2FC601C00204E
:1054D00000240140901C002000280140641C002092
:1054E00000B583B00E4B5A6942F001025A615B6904
:1054F00003F001030193019B002201210B20FCF723
:1055000025FA0B20FCF756FA00220A210E20FCF7A0
:105510001DFA0E20FCF74EFA03B05DF804FB00BF45
:105520000010024010B586B0002302930393049349
:105530000593009301931A4C1A4A2260A3602361D9
:105540008022A2616360FDF759F963680133B0FB03
:10555000F3F303F5FA431448A0FB03231B0B013BB1
:10556000E3602046FDF7C2FB98B906A94FF48053CB
:1055700041F8103D0A48FDF7EFFB60B92023009386
:105580000023019369460648FDF760FC28B906B080
:1055900010BDFFF74DFCFFF74BFCFFF749FC00BFC8
:1055A000481D002000040040D34D62102DE9F04F4B
:1055B00087B000250295039504950595554B9A698A
:1055C00042F004029A619A6902F004020092009A81
:1055D0009A6942F008029A619B6903F008030193FB
:1055E000019B012220214C48FCF705FE2A46802120
:1055F0004948FCF700FE012240214748FCF7FBFD2B
:105600002A4604214448FCF7F6FD2A464FF48071EF
:105610004148FCF7F0FD414CE36823F0FF03E360F1
:105620000127039704954FF0020BCDF814B04FF00B
:105630002009CDF8089002A93748FCF7E9FC4FF0A3
:105640004008CDF8088002A93348FCF7E1FC802629
:10565000029602A93048FCF7DBFC4FF0040ACDF8B3
:1056600008A002A92C48FCF7D3FC4FF480730293E6
:1056700002A92948FCF7CCFC039504974FF400538A
:10568000029302A92046FCF7C3FC4FF48043029327
:1056900002A92046FCF7BCFC4FF40043029302A988
:1056A0002046FCF7B5FC0397049503230593029766
:1056B00002A92046FCF7ACFCCDF808B002A92046B0
:1056C000FCF7A6FCCDF808A002A92046FCF7A0FC38
:1056D000082302930DEB03012046FCF799FC1023ED
:1056E000029302A92046FCF793FCCDF8089002A98A
:1056F0002046FCF78DFCCDF8088002A92046FCF777
:1057000087FC029602A92046FCF782FC07B0BDE8A0
:10571000F08F00BF0010024000080140000C014063
:1057200010B54D4B9B68ABB14B4BDB6993B14A4B0A
:105730001B6B7BB9484B1B69B3F5487FC0F08A806F
:10574000454B5B6AB3F5487FC0F08480FEF704F8F0
:10575000FDF7E0FF404B1B7B002B2ED13E4B93F817
:105760002030A3B13C4B5B6AB3F5487F42D23B4A41
:10577000D37983F00203D371394B41F288321A6036
:10578000354B002283F82020DA61FFF74DF8324BC9
:1057900093F83430002B5DD02F4B9B6BB3F5487FD3
:1057A00045D32E4B9B88642B30D0B3F57A7F3AD00B
:1057B0002A4B4FF47A729A802CE0274B1B69B3F581
:1057C000487F0BD2254AD37983F00403D371224B4F
:1057D00000221A739A60FFF727F8BFE7214C662270
:1057E0000021A01C02F030F8642323801E4B01220C
:1057F0001A60ECE71B4C66220021A01C02F024F882
:1058000064232380184B02221A60B9E7134B4FF42C
:1058100096729A80114B9888FEF7E8F9104B41F286
:1058200088321A600FE00D4B64229A80F2E70B4B2E
:105830009B790133022B00D90023084A9371084B4E
:1058400041F288321A60044B002283F834201A6334
:10585000FEF7EAFF10BD00BFA01B00201C1E0020A9
:105860001C000020DC1B0020F81D0020124BDB79FF
:1058700013F0010F00D1704770B51048FDF766FEB8
:10588000202800D070BD0E4D2C460E4B44F8063B30
:105890004FF4805632460C49204601F0CAFF32468A
:1058A00021460020FDF77EFEA88041F2060229462F
:1058B0000248FDF7E9FBE5E71C1E0020901D0020D3
:1058C000D023002096196219380700202DE9F041F5
:1058D0009C4B1B68012B04D0022B00F09A80BDE882
:1058E000F0810024072C0CD8974DA61C974B53F839
:1058F000241055F82600FAF7EDFD45F8260001348E
:10590000F0E70025072D1DD89149924B53F825004B
:10591000FAF7E8FE074600F0F7FC8B4C6E1D0146D7
:1059200054F83600FAF7D6FD44F83600384600F051
:105930006BFD04EBC60401466068FAF7CBFD6060BE
:105940000135DFE7844B41F288321A607E4B5F6895
:1059500001375F60092FC2DD1D88B5F1640418BFEF
:1059600001240026072E13D8B21C774B53F822804F
:105970003846FAF763FE01464046FAF767FF23010F
:10598000234433440233754A42F823000136E9E7E1
:10599000002612E0731D6C4A02EBC30339465868B7
:1059A00000F070FD6E49FAF79DFE23012344334455
:1059B0000A336A4A42F823000136072E0BD8731DBA
:1059C000614A52F8337000213846FBF71FF800286F
:1059D000E0D06448E9E723011C44A2005F4B134474
:1059E000012283F84820642D09D05C4B9888FEF78B
:1059F000FDF8544B00221A60FEF716FF6FE7524C79
:105A000066220021A01C01F01FFF4FF47A7323804F
:105A1000F2E70024072C0CD84B4DA61C4B4B53F837
:105A2000241055F82600FAF755FD45F826000134F4
:105A3000F0E70025072D1DD84549464B53F82500B2
:105A4000FAF750FE074600F05FFC3F4C6E1D014622
:105A500054F83600FAF73EFD44F83600384600F0B8
:105A6000D3FC04EBC60401466068FAF733FD6060BE
:105A70000135DFE7384B41F288321A60324B5F68FC
:105A800001375F60092F7FF72AAF1D88B5F16404E5
:105A900018BF01240026072E13D8B21C2A4B53F836
:105AA00022803846FAF7CAFD01464046FAF7CEFE94
:105AB0002301234433442433284A42F82300013687
:105AC000E9E7002612E0731D1F4A02EBC3033946C3
:105AD000586800F0D7FC2249FAF704FE230123445A
