:020000040800F2
:1000000000500020755C0008714A0008754A00081D
:10001000D94A00083D4B0008A14B00080000000031
:10002000000000000000000000000000054C000877
:10003000074C000800000000094C00080D4C0008A7
:10004000BD5C0008BD5C0008BD5C0008BD5C00082C
:10005000BD5C0008BD5C0008BD5C0008BD5C00081C
:10006000BD5C0008BD5C0008BD5C0008CD4C00080C
:10007000BD5C0008BD5C0008DD4C0008BD5C0008EC
:10008000BD5C0008BD5C0008BD5C0008BD5C0008EC
:10009000BD5C0008BD5C0008BD5C0008BD5C0008DC
:1000A000BD5C0008BD5C0008BD5C0008BD5C0008CC
:1000B000BD5C0008ED4C0008BD5C0008BD5C00089C
:1000C000BD5C0008BD5C0008BD5C0008BD5C0008AC
:1000D000BD5C0008294D0008BD5C0008BD5C00083F
:1000E000BD5C0008BD5C0008BD5C000800000000AD
:1000F0000000000000000000000000000000000000
:0C01000000000000000000005FF808F1A3
:1001100010B5054C237833B9044B13B10448AFF341
:1001200000800123237010BD0802002000000000A1
:10013000E0A0000808B5034B1BB103490348AFF327
:10014000008008BD000000000C020020E0A00008B4
:10015000034613F8012B002AFBD1181A0138704707
:1001600081F0004102E000BF83F0004330B54FEA68
:1001700041044FEA430594EA050F08BF90EA020FD5
:100180001FBF54EA000C55EA020C7FEA645C7FEA68
:10019000655C00F0E2804FEA5454D4EB5555B8BF8B
:1001A0006D420CDD2C4480EA020281EA030382EAFC
:1001B000000083EA010180EA020281EA0303362D8E
:1001C00088BF30BD11F0004F4FEA01314FF4801C61
:1001D0004CEA113102D0404261EB410113F0004F73
:1001E0004FEA03334CEA133302D0524263EB43032A
:1001F00094EA050F00F0A780A4F10104D5F1200EC8
:100200000DDB02FA0EFC22FA05F2801841F1000122
:1002100003FA0EF2801843FA05F359410EE0A5F1F6
:1002200020050EF1200E012A03FA0EFC28BF4CF027
:10023000020C43FA05F3C01851EBE37101F00045DD
:1002400007D54FF0000EDCF1000C7EEB00006EEBEA
:100250000101B1F5801F1BD3B1F5001F0CD3490874
:100260005FEA30004FEA3C0C04F101044FEA4452CB
:1002700012F5800F80F09A80BCF1004F08BF5FEA52
:10028000500C50F1000041EB045141EA050130BD32
:100290005FEA4C0C404141EB010111F4801FA4F1D5
:1002A0000104E9D191F0000F04BF01460020B1FA2A
:1002B00081F308BF2033A3F10B03B3F120020CDA62
:1002C0000C3208DD02F1140CC2F10C0201FA0CF040
:1002D00021FA02F10CE002F11402D8BFC2F1200CA5
:1002E00001FA02F120FA0CFCDCBF41EA0C0190405B
:1002F000E41AA2BF01EB0451294330BD6FEA0404A4
:100300001F3C1CDA0C340EDC04F11404C4F120028E
:1003100020FA04F001FA02F340EA030021FA04F3A0
:1003200045EA030130BDC4F10C04C4F1200220FAF7
:1003300002F001FA04F340EA0300294630BD21FA35
:1003400004F0294630BD94F0000F83F4801306BFFB
:1003500081F480110134013D4EE77FEA645C18BFEF
:100360007FEA655C29D094EA050F08BF90EA020F86
:1003700005D054EA000C04BF1946104630BD91EA7E
:10038000030F1EBF0021002030BD5FEA545C05D181
:100390004000494128BF41F0004130BD14F58004C0
:1003A0003CBF01F5801130BD01F0004545F0FE4134
:1003B00041F470014FF0000030BD7FEA645C1ABF69
:1003C000194610467FEA655C1CBF0B46024650EAA0
:1003D000013406BF52EA033591EA030F41F40021CC
:1003E00030BD00BF90F0000F04BF0021704730B552
:1003F0004FF4806404F132044FF000054FF0000127
:1004000050E700BF90F0000F04BF0021704730B5E7
:100410004FF4806404F1320410F0004548BF4042BC
:100420004FF000013EE700BF42004FEAE2014FEA11
:1004300031014FEA02701FBF12F07F4393F07F4FEC
:1004400081F06051704732F07F4208BF704793F0EF
:100450007F4F04BF41F40021704730B54FF4607402
:1004600001F0004521F000411CE700BF50EA010205
:1004700008BF704730B54FF000050AE050EA0102AE
:1004800008BF704730B511F0004502D5404261EB1E
:1004900041014FF4806404F132045FEA915C3FF45F
:1004A000D8AE4FF003025FEADC0C18BF03325FEAFC
:1004B000DC0C18BF033202EBDC02C2F1200300FAAD
:1004C00003FC20FA02F001FA03FE40EA0E0021FAD2
:1004D00002F11444BDE600BF70B54FF0FF0C4CF4C0
:1004E000E06C1CEA11541DBF1CEA135594EA0C0F72
:1004F00095EA0C0F00F0DEF82C4481EA030621EAAD
:100500004C5123EA4C5350EA013518BF52EA0335E7
:1005100041F4801143F4801338D0A0FB02CE4FF099
:100520000005E1FB02E506F00042E0FB03E54FF0C9
:100530000006E1FB03569CF0000F18BF4EF0010EC1
:10054000A4F1FF04B6F5007F64F5407404D25FEABD
:100550004E0E6D4146EB060642EAC62141EA555170
:100560004FEAC52040EA5E504FEACE2EB4F1FD0CB2
:1005700088BFBCF5E06F1ED8BEF1004F08BF5FEA30
:10058000500E50F1000041EB045170BD06F00046E2
:1005900046EA010140EA020081EA0301B4EB5C048F
:1005A000C2BFD4EB0C0541EA045170BD41F4801187
:1005B0004FF0000E013C00F3AB8014F1360FDEBFAC
:1005C000002001F0004170BDC4F10004203C35DA88
:1005D0000C341BDC04F11404C4F1200500FA05F30B
:1005E00020FA04F001FA05F240EA020001F00042AC
:1005F00021F0004110EBD37021FA04F642EB060122
:100600005EEA430E08BF20EAD37070BDC4F10C044B
:10061000C4F1200500FA04F320FA05F001FA04F20F
:1006200040EA020001F0004110EBD37041F10001FB
:100630005EEA430E08BF20EAD37070BDC4F1200506
:1006400000FA05F24EEA020E20FA04F301FA05F26E
:1006500043EA020321FA04F001F0004121FA04F216
:1006600020EA020000EBD3705EEA430E08BF20EAE6
:10067000D37070BD94F0000F0FD101F00046400020
:1006800041EB010111F4801F08BF013CF7D041EAA2
:10069000060195F0000F18BF704703F000465200A6
:1006A00043EB030313F4801F08BF013DF7D043EA77
:1006B0000603704794EA0C0F0CEA135518BF95EA2D
:1006C0000C0F0CD050EA410618BF52EA4306D1D1B4
:1006D00081EA030101F000414FF0000070BD50EAD3
:1006E000410606BF1046194652EA430619D094EA5D
:1006F0000C0F02D150EA013613D195EA0C0F05D147
:1007000052EA03361CBF104619460AD181EA03019A
:1007100001F0004141F0FE4141F470014FF0000052
:1007200070BD41F0FE4141F4780170BD70B54FF0ED
:10073000FF0C4CF4E06C1CEA11541DBF1CEA13556D
:1007400094EA0C0F95EA0C0F00F0A7F8A4EB05044F
:1007500081EA030E52EA03354FEA013100F0888046
:100760004FEA03334FF0805545EA131343EA12630F
:100770004FEA022245EA111545EA10654FEA0026C4
:100780000EF000419D4208BF964244F1FD0404F57D
:10079000407402D25B084FEA3202B61A65EB0305D9
:1007A0005B084FEA32024FF480104FF4002CB6EB96
:1007B000020E75EB030E22BFB61A754640EA0C0016
:1007C0005B084FEA3202B6EB020E75EB030E22BF56
:1007D000B61A754640EA5C005B084FEA3202B6EB97
:1007E000020E75EB030E22BFB61A754640EA9C0056
:1007F0005B084FEA3202B6EB020E75EB030E22BF26
:10080000B61A754640EADC0055EA060E18D04FEAE3
:10081000051545EA16754FEA06164FEAC30343EA83
:1008200052734FEAC2025FEA1C1CC0D111F4801F50
:100830000BD141EA00014FF000004FF0004CB6E749
:1008400011F4801F04BF01430020B4F1FD0C88BFE8
:10085000BCF5E06F3FF6AFAEB5EB030C04BFB6EBF3
:10086000020C5FEA500C50F1000041EB045170BDE6
:100870000EF0004E4EEA113114EB5C04C2BFD4EB13
:100880000C0541EA045170BD41F480114FF0000E97
:10089000013C90E645EA060E8DE60CEA135594EA13
:1008A0000C0F08BF95EA0C0F3FF43BAF94EA0C0F16
:1008B0000AD150EA01347FF434AF95EA0C0F7FF48B
:1008C00025AF104619462CE795EA0C0F06D152EADF
:1008D00003353FF4FDAE1046194622E750EA4106C3
:1008E00018BF52EA43067FF4C5AE50EA41047FF4D4
:1008F0000DAF52EA43057FF4EBAE12E74FF0FF3C39
:1009000006E000BF4FF0010C02E000BF4FF0010C09
:100910004DF804CD4FEA410C7FEA6C5C4FEA430C82
:1009200018BF7FEA6C5C1BD001B050EA410C0CBFD1
:1009300052EA430C91EA030F02BF90EA020F002033
:10094000704710F1000F91EA030F58BF994208BF9A
:1009500090422CBFD8176FEAE37040F00100704757
:100960004FEA410C7FEA6C5C02D150EA013C07D1AE
:100970004FEA430C7FEA6C5CD6D152EA033CD3D0F9
:100980005DF8040B704700BF8446104662468C46F3
:100990001946634600E000BF01B5FFF7B7FF002826
:1009A00048BF10F1000F01BD4DF808EDFFF7F4FF4F
:1009B0000CBF012000205DF808FB00BF4DF808EDDA
:1009C000FFF7EAFF34BF012000205DF808FB00BFFD
:1009D0004DF808EDFFF7E0FF94BF012000205DF81F
:1009E00008FB00BF4DF808EDFFF7CEFF94BF0120D4
:1009F00000205DF808FB00BF4DF808EDFFF7C4FFCD
:100A000034BF012000205DF808FB00BF4FEA410C15
:100A10007FEA6C5C02D150EA013C0AD14FEA430CF8
:100A20007FEA6C5C02D152EA033C02D14FF0000035
:100A300070474FF0010070474FEA410212F5001273
:100A400015D211D56FF47873B3EB625212D94FEA15
:100A5000C12343F0004343EA505311F0004F23FAFF
:100A600002F018BF404270474FF00000704750EA54
:100A7000013005D111F0004008BF6FF00040704711
:100A80004FF00000704700BF80F0004002E000BF60
:100A900081F0004142001FBF5FEA410392EA030F69
:100AA0007FEA226C7FEA236C6AD04FEA1262D2EBB3
:100AB0001363C1BFD218414048404140B8BF5B42B8
:100AC000192B88BF704710F0004F40F4000020F051
:100AD0007F4018BF404211F0004F41F4000121F067
:100AE0007F4118BF494292EA030F3FD0A2F10102B1
:100AF00041FA03FC10EB0C00C3F1200301FA03F1EF
:100B000000F0004302D5494260EB4000B0F5000F11
:100B100013D3B0F1807F06D340084FEA310102F1D0
:100B20000102FE2A51D2B1F1004F40EBC25008BF82
:100B300020F0010040EA03007047490040EB00004C
:100B400010F4000FA2F10102EDD1B0FA80FCACF17B
:100B5000080CB2EB0C0200FA0CF0AABF00EBC2507A
:100B600052421843BCBFD0401843704792F0000F68
:100B700081F4000106BF80F400000132013BB5E7BB
:100B80004FEA41037FEA226C18BF7FEA236C21D031
:100B900092EA030F04D092F0000F08BF0846704796
:100BA00090EA010F1CBF0020704712F07F4F04D164
:100BB000400028BF40F00040704712F100723CBF77
:100BC00000F50000704700F0004343F0FE4040F4A1
:100BD000000070477FEA226216BF08467FEA23635F
:100BE0000146420206BF5FEA412390EA010F40F44A
:100BF000800070474FF0000304E000BF10F0004396
:100C000048BF40425FEA000C08BF704743F096437C
:100C100001464FF000001CE050EA010208BF704797
:100C20004FF000030AE000BF50EA010208BF70471E
:100C300011F0004302D5404261EB41015FEA010C33
:100C400002BF84460146002043F0B64308BFA3F12B
:100C50008053A3F50003BCFA8CF2083AA3EBC2530D
:100C600010DB01FA02FC634400FA02FCC2F120022C
:100C7000BCF1004F20FA02F243EB020008BF20F063
:100C80000100704702F1200201FA02FCC2F12002C9
:100C900050EA4C0021FA02F243EB020008BF20EABE
:100CA000DC7070474FF0FF0C1CEAD0521EBF1CEAEC
:100CB000D15392EA0C0F93EA0C0F6FD01A4480EADA
:100CC000010C400218BF5FEA41211ED04FF00063C3
:100CD00043EA501043EA5111A0FB01310CF00040EF
:100CE000B1F5000F3EBF490041EAD3715B0040EA15
:100CF000010062F17F02FD2A1DD8B3F1004F40EBE5
:100D0000C25008BF20F00100704790F0000F0CF0B7
:100D1000004C08BF49024CEA502040EA51207F3A7B
:100D2000C2BFD2F1FF0340EAC250704740F4000056
:100D30004FF00003013A5DDC12F1190FDCBF00F047
:100D400000407047C2F10002410021FA02F1C2F1F5
:100D5000200200FA02FC5FEA310040F1000053EA91
:100D60004C0308BF20EADC70704792F0000F00F0DF
:100D7000004C02BF400010F4000F013AF9D040EAE5
:100D80000C0093F0000F01F0004C02BF490011F479
:100D9000000F013BF9D041EA0C018FE70CEAD15377
:100DA00092EA0C0F18BF93EA0C0F0AD030F0004CF7
:100DB00018BF31F0004CD8D180EA010000F00040AB
:100DC000704790F0000F17BF90F0004F084691F069
:100DD000000F91F0004F14D092EA0C0F01D14202A3
:100DE0000FD193EA0C0F03D14B0218BF084608D16C
:100DF00080EA010000F0004040F0FE4040F40000B6
:100E0000704740F0FE4040F4400070474FF0FF0C48
:100E10001CEAD0521EBF1CEAD15392EA0C0F93EA8F
:100E20000C0F69D0A2EB030280EA010C49024FEAE1
:100E3000402037D04FF0805343EA111143EA10139A
:100E40000CF000408B4238BF5B0042F17D024FF452
:100E5000000C8B4224BF5B1A40EA0C00B3EB510F2D
:100E600024BFA3EB510340EA5C00B3EB910F24BF16
:100E7000A3EB910340EA9C00B3EBD10F24BFA3EB9B
:100E8000D10340EADC001B0118BF5FEA1C1CE0D163
:100E9000FD2A3FF650AF8B4240EBC25008BF20F016
:100EA000010070470CF0004C4CEA50207F32C2BF6A
:100EB000D2F1FF0340EAC250704740F400004FF007
:100EC0000003013A37E792F0000F00F0004C02BF38
:100ED000400010F4000F013AF9D040EA0C0093F002
:100EE000000F01F0004C02BF490011F4000F013B5C
:100EF000F9D041EA0C0195E70CEAD15392EA0C0FC4
:100F000008D142027FF47DAF93EA0C0F7FF470AFFB
:100F1000084676E793EA0C0F04D14B023FF44CAF3E
:100F200008466EE730F0004C18BF31F0004CCAD1D3
:100F300030F000427FF45CAF31F000437FF43CAF0F
:100F40005FE700BF4FF0FF3C06E000BF4FF0010C31
:100F500002E000BF4FF0010C4DF804CD4FEA400213
:100F60004FEA41037FEA226C18BF7FEA236C11D05D
:100F700001B052EA530C18BF90EA010F58BFB2EB10
:100F8000030088BFC81738BF6FEAE17018BF40F090
:100F9000010070477FEA226C02D15FEA402C05D144
:100FA0007FEA236CE4D15FEA412CE1D05DF8040BC9
:100FB000704700BF844608466146FFE70FB5FFF75C
:100FC000C9FF002848BF10F1000F0FBD4DF808ED14
:100FD000FFF7F4FF0CBF012000205DF808FB00BF05
:100FE0004DF808EDFFF7EAFF34BF012000205DF85F
:100FF00008FB00BF4DF808EDFFF7E0FF94BF0120AC
:1010000000205DF808FB00BF4DF808EDFFF7D2FFA8
:1010100094BF012000205DF808FB00BF4DF808EDEB
:10102000FFF7C8FF34BF012000205DF808FB00BFB8
:1010300042000ED2B2F1FE4F0BD34FF09E03B3EB42
:10104000126209D44FEA002343F0004323FA02F06E
:1010500070474FF00000704712F1610F01D142025A
:1010600002D14FF0FF3070474FF00000704700BFD3
:101070004FEA4102B2F1E04324BFB3F5001CDCF1BA
:10108000FE5C0DD901F0004C4FEAC0024CEA5070F2
:10109000B2F1004F40EB830008BF20F00100704721
:1010A00011F0804F21D113F13872BCBF01F0004024
:1010B000704741F480114FEA5252C2F11802C2F156
:1010C000200C10FA0CF320FA02F018BF40F00100D7
:1010D0004FEAC1234FEAD32303FA0CFC40EA0C0089
:1010E00023FA02F34FEA4303CCE77FEA625307D1C6
:1010F00050EA01331EBF4FF0FE4040F440007047FD
:1011000001F0004040F0FE4040F40000704700BF96
:101110004FEA40024FEA41037FEA226C02D15FEAC4
:10112000402C08D17FEA236C02D15FEA412C02D126
:101130004FF0000070474FF0010070474FEA400247
:10114000B2F1FE4F0FD34FF09E03B3EB12620DD9F5
:101150004FEA002343F0004310F0004F23FA02F05F
:1011600018BF404270474FF00000704712F1610F06
:1011700001D1420205D110F0004008BF6FF00040DD
:1011800070474FF00000704710B504460E4B1878BA
:101190004FF47A73B3FBF0F30C4A1068B0FBF3F032
:1011A00000F028FC68B90F2C01D901200AE00022C8
:1011B00021464FF0FF3000F0C9FB054B1C600020BA
:1011C00000E0012010BD00BF000000203000002022
:1011D0000400002008B5074A136843F010031360A9
:1011E000032000F0A1FB0F20FFF7CEFF03F0C0FDAE
:1011F000002008BD00200240034A1168034B1B7801
:101200000B441360704700BFB81F0020000000208F
:10121000014B1868704700BFB81F002038B504465E
:10122000FFF7F6FF0546B4F1FF3F02D0044B1B78F1
:101230001C44FFF7EDFF401BA042FAD338BD00BFAE
:101240000000002008B5436A9A6A12F0500F03D0DC
:101250001B6A1B6B984708BD9A6A42F400729A6237
:101260001A68926802F46022B2F5602F03D0184623
:1012700003F070FDEFE71A7B002AF8D19A6A22F496
:1012800080729A629A6A12F4805FF0D19A6A42F090
:1012900001029A62EBE708B5406A03F04DFD08BD14
:1012A000704708B5406A836A43F040038362C36AAB
:1012B00043F00403C362FFF7F3FF08BD30B482B00C
:1012C0000023019390F82430012B00F08B8002461C
:1012D000012380F824304B68062B29D80568686BF9
:1012E00003EB8303053B1F249C4020EA04000C68A9
:1012F00004FA03F303436B630B68092B38D91568B1
:10130000E86803EB43031E3B07249C4020EA0400EB
:101310008C6804FA03F30343EB600B68103B012B6A
:1013200034D90020002382F8243002B030BC70474A
:101330000C2B0ED80568286B03EB8303233B1F247B
:101340009C4020EA04000C6804FA03F303432B6377
:10135000D2E70568E86A03EB8303413B1F249C4006
:1013600020EA04000C6804FA03F30343EB62C3E7CA
:101370001568286903EB430307249C4020EA040016
:101380008C6804FA03F303432B61C6E7136816481D
:10139000834205D0936A43F0200393620120C1E7A2
:1013A000986810F4000F1BD1986840F40000986012
:1013B0000B68102B01D00020B4E70C4B1B680C49C4
:1013C000A1FB03139B0C03EB83035900019102E083
:1013D000019B013B0193019B002BF9D10020A1E768
:1013E00000209FE70220A0E70024014030000020F9
:1013F00083DE1B4330B583B00023019303689A68F2
:1014000012F0010F33D19A6842F001029A60194B31
:101410001B68194AA2FB03239B0C019302E0019B6A
:10142000013B0193019B002BF9D10446FFF7F0FE2D
:10143000054623689B6813F0010F16D1FFF7E8FEFD
:10144000401B0228F5D923689B6813F0010FF0D1E7
:10145000A36A43F01003A362E36A43F00103E3626B
:10146000002384F82430012002E0002000E0002066
:1014700003B030BD3000002083DE1B4390F82430E1
:10148000012B6AD010B50446012380F82430FFF701
:10149000B1FF024600285BD1A36A23F4407323F016
:1014A000010343F48073A36223682D498B4227D044
:1014B000A16A21F48011A162596811F4806F05D0EE
:1014C000A16A21F4405141F48051A162A16A11F452
:1014D000805F2BD0E16A21F00601E162002184F8EF
:1014E00024106FF0020119602368996801F46021EB
:1014F000B1F5602F1DD0996841F4801199602AE000
:10150000A1F58061496811F4702FD1D0A16A41F42E
:101510008011A1621349496811F4806FD6D0A16A85
:1015200021F4405141F48051A162CFE70021E162F2
:10153000D4E70B498B4204D0996841F4A00199602B
:1015400009E0A1F58061496811F4702FD3D1F3E768
:10155000002384F82430104610BD02221046704744
:10156000002801400024014038B503689A6812F051
:10157000010F01D1002038BD04469A6822F0010213
:101580009A60FFF745FE054623689B6813F0010F3C
:1015900013D0FFF73DFE401B0228F5D923689B6856
:1015A00013F0010FF0D0A36A43F01003A362E36AC3
:1015B00043F00103E3620120DDE70020DBE70000E8
:1015C00000287FD038B50446836A002B33D02046EC
:1015D000FFF7CAFFA36A13F010036DD100286BD187
:1015E000A26A22F4885222F0020242F00202A262AF
:1015F0006268E1690A43257B42EA4502A168B1F5C8
:10160000807F21D001291CD0217D01291FD0256890
:10161000696821F469410B436B6021688D682A4B2E
:101620002B4013438B60A368B3F5807F20D0012B40
:101630001ED000211FE0C36280F8243003F0BAFB03
:10164000C5E74FF48073DFE74FF48073DCE735B90B
:10165000A169013943EA413343F40063D7E7A16A42
:1016600041F02001A162E16A41F00101E162CEE7AF
:101670002369013B19052568EB6A23F470030B43CA
:10168000EB6223689968114B0B409A420BD0A36A16
:1016900023F0120343F01003A362E36A43F0010353
:1016A000E36201200DE00023E362A36A23F0030359
:1016B00043F00103A36204E0A36A43F01003A362B2
:1016C000012038BD01207047FDF7E1FFFE0E1FFF2E
:1016D00070B582B00023019390F82430012B72D0B2
:1016E0000446012380F82430FFF73EFF2046FFF731
:1016F00081FE054628B1002384F82430284602B034
:1017000070BDA36A23F4885323F0020343F002035D
:10171000A3622E4B1E68022001F020F9B6FBF0F008
:101720004000019002E0019B013B0193019B002BD3
:10173000F9D12268936843F008039360FFF768FDCE
:10174000064623689A6812F0080F14D0FFF760FD70
:10175000801B0A28F5D923689B6813F0080FF0D086
:10176000A36A23F0120343F01003A362002384F85A
:1017700024300125C2E79A6842F004029A60FFF71C
:1017800047FD064623689B6813F0040F14D0FFF74B
:101790003FFD801B0A28F5D923689B6813F0040FCE
:1017A000F0D0A36A23F0120343F01003A3620023D6
:1017B00084F824300125A1E7A36A23F0030343F052
:1017C0000103A36297E7022598E700BF30000020DD
:1017D000F0B58DB004460E4617463022002168460B
:1017E00004F062FC94F82430012B65D0012384F8C6
:1017F0002430324B00939B6803F46023B3F5602FD1
:101800000AD0A36A43F02003A362002384F82430A3
:10181000012528460DB0F0BD2046FFF7EBFD05463B
:1018200000283BD0002D43D1A26A254B134043F43E
:101830008073A36223685B6813F4806F05D0A36A8A
:1018400023F4405343F48053A362002384F82430EC
:10185000E362236A1B4A9A62236A1B4ADA62236A9A
:101860001A4A1A6323686FF002021A6022689368AA
:1018700043F48073936021683B4632464C31206AC2
:1018800000F01AF92268936803F46023B3F5602F1F
:1018900009D0936843F480139360BAE76846FFF772
:1018A000A9FD0546BEE7936843F4A0039360B0E743
:1018B000002384F82430ACE70225AAE70028014081
:1018C000FEFCEFFF4512000897120008A312000863
:1018D000034690F82420012A20D0012280F82420F9
:1018E0000268906810F0010F07D10D48806810F071
:1018F000010F02D10B48824208D09A6A42F02002BE
:101900009A620120002283F824207047506820F456
:1019100070200968014351600020F3E702207047FE
:101920000028014000240140074AD36823F4E06303
:101930001B041B0C000200F4E060184340F0BF6081
:1019400040F40030D060704700ED00E030B4174B39
:10195000DB68C3F30223C3F10704042C28BF04246B
:101960001D1D062D18D9033B4FF0FF3505FA04F471
:1019700021EA0401994005FA03F322EA030319431B
:1019800000280BDB0901C9B200F1604000F561409D
:1019900080F8001330BC70470023E5E700F00F002B
:1019A0000901C9B2024B1954F4E700BF00ED00E091
:1019B00014ED00E0002807DB00F01F0240090123BE
:1019C0009340024A42F82030704700BF00E100E037
:1019D000BFF34F8F0549CA6802F4E062044B13431A
:1019E000CB60BFF34F8F00BFFDE700BF00ED00E00D
:1019F0000400FA050138B0F1807F0AD2064B586026
:101A0000064AF02182F823100020986007221A600D
:101A100070470120704700BF10E000E000ED00E0DB
:101A200070B4066CC56B0124B4406C6004686360DC
:101A30004368102B05D0036899600368DA6070BCB6
:101A4000704703689A600368D960F8E760B310B420
:101A500002460168154B0B441548A0FB03031B0904
:101A60009B001364134BD363022382F82130086870
:101A700020F47F5020F03000536894682343D468EA
:101A80002343146923435469234394692343D4694A
:101A9000234303430B6000209063012382F821302D
:101AA00082F8200010BC704701207047F8FFFDBF8E
:101AB000CDCCCCCC0000024038B590F82040012CB1
:101AC00033D0012480F8204090F82140E4B2012C6A
:101AD00004D0002380F82030022038BD04460220C4
:101AE00084F821000020A0632568286820F0010008
:101AF00028602046FFF794FFE36A5BB12268136811
:101B000043F00E0313602268136843F0010313606F
:101B10000020E2E72268136823F0040313602268C0
:101B2000136843F00A031360EDE70220D5E790F84D
:101B30002130DBB2022B06D004238363002380F81C
:101B40002030012070470268136823F00E031360F1
:101B50000268136823F001031360036CC16B012258
:101B600002FA03F34B6080F82120002380F8203034
:101B70001846704708B590F82130DBB2022B03D02D
:101B800004238363012008BD0268136823F00E0359
:101B900013600268136823F0010313600368194A95
:101BA000934214D0143293421FD0143293421ED069
:101BB000143293421ED0143293421ED014329342F8
:101BC00002D04FF0807203E04FF4801200E0012257
:101BD0000D4B5A60012380F82130002380F820301B
:101BE000436B6BB198470020CDE71022F0E74FF42C
:101BF0008072EDE74FF48052EAE74FF48032E7E776
:101C00000020C0E7080002400000024038B5C36B66
:101C10001A6804682568016C04238B40134235D090
:101C200015F0040F32D0236813F0200F03D123687E
:101C300023F0040323600368434A934214D0143210
:101C4000934218D01432934217D01432934217D0D3
:101C50001432934217D01432934202D04FF0806274
:101C600003E04FF4800200E00422384B5A60C36A5C
:101C700003B1984738BD4022F7E74FF48062F4E79C
:101C80004FF48042F1E74FF48022EEE702238B40CD
:101C900013423CD015F0020F39D0236813F0200F07
:101CA00006D1236823F00A032360012380F8213042
:101CB0000368254A934214D0143293421CD0143244
:101CC00093421BD0143293421BD0143293421BD048
:101CD0001432934202D04FF0007203E04FF400122E
:101CE00000E00222194B5A60002380F82030836AFA
:101CF000002BBFD09847BDE72022F3E74FF40072D6
:101D0000F0E74FF40052EDE74FF40032EAE7082322
:101D100003FA01F11142ADD015F0080FAAD02368E3
:101D200023F00E032360026CC16B012303FA02F25D
:101D30004A60836380F82130002380F82030036BF1
:101D4000002B97D0984795E708000240000002401A
:101D5000044B0022DA61044A136943F00103136162
:101D600001807047C01F0020002002401A4BDB6832
:101D700013F0100F27D0194AD36943F00203D3613F
:101D80001023154AD26812F0040F06D01349CA690D
:101D900042F00102CA6143F004030F4AD26912F013
:101DA000010F09D00D49CA6942F00402CA610A490B
:101DB000CA6922F00102CA6140F20112934204D0C2
:101DC000054AD36070470023DBE7034AD36923F059
:101DD0000103D361704700BF00200240C01F0020F4
:101DE0000A4B1B6913F0800F0DD0084B084A5A604C
:101DF00002F188325A601B6913F0800F01D0012074
:101E00007047002070470020704700BF002002404C
:101E100023016745034A136943F0800313610020DF
:101E2000704700BF0020024038B50446FFF7F0F9C4
:101E30000546174BDB6813F0010F0AD0B4F1FF3FE2
:101E4000F7D00CB3FFF7E4F9401BA042F1D903200F
:101E500019E00F4BDB6813F0200F02D00C4B20224F
:101E6000DA600B4BDB6813F0100F09D1084BDB690C
:101E700013F0010F04D1064BDB6813F0040F05D0FB
:101E8000FFF774FF012038BD0320FCE70020FAE7CC
:101E9000002002402DE9F843224C247E012C3FD043
:101EA0001E4690460F4604461E4B01221A765020CD
:101EB000FFF7BAFF034668BB012C28D0022C23D0C1
:101EC0004FF0040900244C4524D22101C1F1200225
:101ED000A1F1200328FA01F106FA02F2114326FAD1
:101EE00003F3194389B207EB4400FFF731FF502099
:101EF000FFF79AFF0C4B1D6925F001051D61034694
:101F000040B90134E4B2DEE74FF00209DAE74FF0FE
:101F10000109D7E7034A002111761846BDE8F88386
:101F20000223FAE7C01F002000200240064B0022D7
:101F3000DA61064B1A6942F004021A611A6942F02A
:101F400040021A61704700BFC01F002000200240FD
:101F5000064B0022DA61064B1A6942F002021A614E
:101F600058611A6942F040021A617047C01F002090
:101F700000200240244B1B7E012B42D070B50E4640
:101F80000446214B01221A760368022B1ED05020F2
:101F9000FFF74AFF78BB4FF0FF333360A56801229B
:101FA000E168A36803EB8123AB4225D92846FFF7FC
:101FB000CFFF5020FFF738FF144A136923F00203C4
:101FC00013610246A8B905F58065E9E75020FFF7DF
:101FD0002BFF08B101220FE00120FFF7A7FF5020DF
:101FE000FFF722FF024609490B6923F004030B6146
:101FF00002E0356000E00122034B00211976104613
:1020000070BD022210467047C01F00200020024011
:10201000F0B482B000263246A2E0002D5AD0012D45
:1020200000D1CE68FF2B69D88446FF2B69D8950074
:10203000DCF800400F27AF4024EA070406FA05F554
:102040002C43CCF800404C6814F0805F00F087808F
:102050005F4CA56945F00105A561A46904F0010480
:102060000194019C9508AF1C5A4C54F8274002F08B
:102070000307BF004FF00F0C0CFA07FC24EA0C0C0E
:10208000554CA04243D004F58064A04200F081800A
:1020900004F58064A0427ED004F58064A04234D070
:1020A000042435E04D4FBD4214D00BD94C4FBD42F6
:1020B00010D007F58037BD420CD0A7F58017BD4280
:1020C000B0D107E0A7F58017BD4203D007F58037F0
:1020D000BD42A7D18D687DB1012D08D0446108268D
:1020E000A0E7CE6808369DE7CE680C369AE7046113
:1020F000082697E7002695E7042693E700F1040CED
:1021000093E7A2F10805AD0092E7032400E0002464
:10211000BC4044EA0C0402352E4F47F825404C6879
:1021200014F4801F39D02F4DAC681C43AC604C6850
:1021300014F4001F37D02B4DEC681C43EC604C6846
:1021400014F4003F35D0274D6C681C436C604C681C
:1021500014F4803F33D0234D2C6823432B6001328D
:102160000B6833FA02F430D00124944023409C429F
:10217000F5D14D68122DB7D094D8022DB1D07FF68D
:102180004CAF032DB6D0112D7FF44CAFCE68043682
:1021900048E70124BCE70224BAE7124DAC6824EA00
:1021A0000304AC60C3E70F4DEC6824EA0304EC6061
:1021B000C5E70C4D6C6824EA03046C60C7E7094D61
:1021C0002C6824EA03032B60C9E702B0F0BC704717
:1021D00000100240000001400008014000002110F2
:1021E00000003110000401408368194201D1002031
:1021F00070470120704712B90904016170470161FD
:102200007047000082B0084B1B68084AA2FB0323FA
:102210005B0A00FB03F0019000BF019B5A1E019274
:10222000002BF9D102B0704730000020D34D62106E
:10223000002800F0F58170B582B00446036813F001
:10224000010F2CD0AB4B5B6803F00C03042B1DD0AB
:10225000A84B5B6803F00C03082B12D06368B3F53E
:10226000803F41D0002B55D103F1804303F5043367
:102270001A6822F480321A601A6822F480221A60E6
:1022800037E09C4B5B6813F4803FE7D0994B1B68A9
:1022900013F4003F03D06368002B00F0C381236870
:1022A00013F0020F76D0934B5B6813F00C0F5FD0E6
:1022B000904B5B6803F00C03082B54D02369002B70
:1022C00000F08A808C4B01221A60FEF7A1FF0546C0
:1022D000884B1B6813F0020F75D1FEF799FF401B66
:1022E0000228F5D90320A0E1824A136843F4803321
:1022F0001360636843B3FEF78BFF05467D4B1B6895
:1023000013F4003FCBD1FEF783FF401B6428F5D9BF
:1023100003208AE1B3F5A02F09D0764B1A6822F486
:1023200080321A601A6822F480221A60E1E703F111
:102330008043A3F53C331A6842F480221A601A687D
:1023400042F480321A60D4E7FEF762FF0546694B1B
:102350001B6813F4003FA2D0FEF75AFF401B64280D
:10236000F5D9032061E1634B5B6813F4803FA5D18D
:10237000604B1B6813F0020F04D02369012B01D0BE
:10238000012052E15B4A136823F0F803616943EAD4
:10239000C1031360236813F0080F32D0A369002B28
:1023A0005BD0564B01221A60FEF732FF0546514BB7
:1023B0005B6A13F0020F21D1FEF72AFF401B0228AF
:1023C000F5D9032031E14B4A136823F0F803616922
:1023D00043EAC1031360DDE7474B00221A60FEF7B2
:1023E00017FF0546434B1B6813F0020FD2D0FEF7D0
:1023F0000FFF401B0228F5D9032016E10120FFF74B
:1024000001FF236813F0040F00F09880394BDB695B
:1024100013F0805F33D1374BDA6942F08052DA61D2
:10242000DB6903F080530193019B0125344B1B684A
:1024300013F4807F25D0E368012B36D0002B4CD1DC
:1024400003F1804303F504331A6A22F001021A6291
:102450001A6A22F004021A622CE0284B00221A6049
:10246000FEF7D6FE0546234B5B6A13F0020FC8D079
:10247000FEF7CEFE401B0228F5D90320D5E000254B
:10248000D4E71F4A136843F480731360FEF7C0FE5D
:1024900006461B4B1B6813F4807FCCD1FEF7B8FEB9
:1024A000801B6428F5D90320BFE0124A136A43F069
:1024B00001031362E3687BB3FEF7AAFE06460D4BE9
:1024C0001B6A13F0020F38D1FEF7A2FE801B41F207
:1024D00088339842F3D90320A7E0052B12D0054B8F
:1024E0001A6A22F001021A621A6A22F004021A62BF
:1024F000E0E700BF00100240000042428004424278
:10250000007000404C4B1A6A42F004021A621A6AC8
:1025100042F001021A62CDE7FEF77AFE0646464B0C
:102520001B6A13F0020F08D0FEF772FE801B41F207
:1025300088339842F3D9032077E0E5B9E369002BAB
:1025400072D03D4A526802F00C02082A56D0022B83
:1025500017D03A4B00221A60FEF75AFE0446364B5B
:102560001B6813F0007F47D0FEF752FE001B0228C5
:10257000F5D9032059E0304AD36923F08053D36161
:10258000DCE72E4B00221A60FEF742FE05462A4B7E
:102590001B6813F0007F06D0FEF73AFE401B0228AE
:1025A000F5D9032041E0236AB3F5803F1AD02249D0
:1025B0004B6823F47413226A606A024313434B602E
:1025C0001E4B01221A60FEF723FE04461A4B1B68BD
:1025D00013F0007F0ED1FEF71BFE001B0228F5D979
:1025E000032022E0144A536823F40033A1680B430C
:1025F0005360DCE7002018E0002016E0012B16D025
:102600000D4B5B6803F48031226A914201D00120B6
:102610000BE003F47013626A93420AD0012004E0D5
:1026200001207047012000E0002002B070BD0120B1
:10263000FBE70020F9E700BF0010024060004242C3
:102640000F4B5B6803F00C02082A16D1C3F38342D8
:102650000C498A5C13F4803F03D10B4800FB02F065
:102660007047074B5B68C3F340430849CB5C08489D
:1026700000FB02F0B0FBF3F070470548704700BF65
:1026800000100240F8A0000800093D0008A1000861
:1026900000127A00002800F0A38070B50446524B67
:1026A0001B6803F007038B420CD24F4A136823F0D8
:1026B00007030B431360136803F007038B4201D039
:1026C000012070BD236813F0020F17D013F0040F20
:1026D00004D0464A536843F4E0635360236813F020
:1026E000080F04D0414A536843F4605353603F4A93
:1026F000536823F0F003A068034353600D4623683A
:1027000013F0010F31D06368012B20D0022B25D0AC
:10271000364A126812F0020F64D034494A6822F037
:10272000030213434B60FEF773FD06462F4B5B68B5
:1027300003F00C036268B3EB820F16D0FEF768FD5E
:10274000801B41F288339842F0D90320B9E7274A29
:10275000126812F4003FE0D10120B2E7234A126868
:1027600012F0007FD9D10120ABE71F4B1B6803F0AB
:102770000703AB420CD91C4A136823F007032B4311
:102780001360136803F00703AB4201D0012098E700
:10279000236813F0040F06D0144A536823F4E0634F
:1027A000E1680B435360236813F0080F07D00F4A0A
:1027B000536823F46053216943EAC1035360FFF770
:1027C0003FFF0A4B5B68C3F30313094AD35CD8404D
:1027D000084B1860084B1868FEF7D6FC002070E71D
:1027E0000120704701206CE70020024000100240E9
:1027F00034B700083000002004000020014B1868A6
:10280000704700BF3000002008B5FFF7F7FF044B0A
:102810005B68C3F30223034AD35CD84008BD00BF02
:102820000010024044B7000808B5FFF7E7FF044B6B
:102830005B68C3F3C223034AD35CD84008BD00BF22
:102840000010024044B7000870B582B00446036827
:1028500013F0010F34D03E4BDB6913F0805F48D199
:102860003B4BDA6942F08052DA61DB6903F0805356
:102870000193019B0125374B1B6813F4807F3AD0ED
:10288000334B1B6A13F4407311D0626802F4407238
:102890009A420CD02E4A136A23F440702E49012626
:1028A0000E6000260E60106213F0010F37D1284A27
:1028B000136A23F4407361680B431362002D3FD108
:1028C000236813F0020F06D0214A536823F44043D3
:1028D000A1680B435360236813F0100F35D01C4AD6
:1028E000536823F48003E1680B435360002002B077
:1028F00070BD0025BFE7174A136843F48073136067
:10290000FEF786FC0646134B1B6813F4807FB7D195
:10291000FEF77EFC801B6428F5D90320E7E7FEF76D
:1029200077FC06460A4B1B6A13F0020FBFD1FEF775
:102930006FFC801B41F288339842F3D90320D6E71D
:10294000D36923F08053D361BAE70020CFE700BFFB
:1029500000100240007000404004424208B50228C6
:102960004DD0102803D0012828D0002051E02D4B55
:102970005A681B6813F0807F4CD0C2F383432A4906
:10298000C85C12F4803F15D0264B5B68C3F340430C
:10299000264AD25C264BB3FBF2F300FB03F0214B3B
:1029A0005B6813F4800F34D14000224BA3FB00304E
:1029B00040082EE0204B03FB00F0F0E7194B1B6AA8
:1029C00040F202321A40B2F5817F25D003F4407301
:1029D000B3F5007F04D0B3F5407F09D0002018E0A4
:1029E000104A526A12F0020FF5D049F6404010E04A
:1029F0000C4B1B6813F4003F11D1002009E0FFF7D6
:102A000013FF084B5B68C3F3813301335B00B0FBFA
:102A1000F3F008BD0020FCE74FF40040F9E74FF267
:102A20002440F6E7001002400CA100081CA1000899
:102A300000127A00ABAAAAAA00093D0010B4036AEA
:102A4000046A24F001040462846924F0F00444EA76
:102A5000021223F00A030B438261036210BC704729
:102A600010B4036A046A24F010040462846924F434
:102A7000704444EA023223F0A00343EA0113826166
:102A8000036210BC7047836823F07003194341F060
:102A9000070181607047000090F83D30DBB2012BE8
:102AA00001D001207047022380F83D300268D368CE
:102AB00043F00103D3600368104A934210D0B3F18E
:102AC000804F0DD0A2F59432934209D002F5806276
:102AD000934205D01A6842F001021A600020704744
:102AE0009A6802F00702062A05D01A6842F001022D
:102AF0001A60002070470020704700BF002C014082
:102B00007047704770477047704770B50546036857
:102B1000DE681C6914F0020F10D016F0020F0DD001
:102B20006FF002021A610123037703689B6913F0B7
:102B3000030F5ED0FFF7E6FF00232B7714F0040F9E
:102B400012D016F0040F0FD02B686FF004021A6138
:102B500002232B772B689B6913F4407F4FD02846C4
:102B6000FFF7D0FF00232B7714F0080F12D016F0D8
:102B7000080F0FD02B686FF008021A6104232B771F
:102B80002B68DB6913F0030F40D02846FFF7BAFF2C
:102B900000232B7714F0100F12D016F0100F0FD067
:102BA0002B686FF010021A6108232B772B68DB6902
:102BB00013F4407F31D02846FFF7A4FF00232B7782
:102BC00014F0010F02D016F0010F2DD114F0800F78
:102BD00002D016F0800F2FD114F0400F02D016F063
:102BE000400F31D114F0200F02D016F0200F33D156
:102BF00070BDFFF786FF2846FFF785FF9CE7284654
:102C0000FFF77FFF2846FFF77EFFABE72846FFF779
:102C100078FF2846FFF777FFBAE72846FFF771FFEE
:102C20002846FFF770FFC9E72B686FF001021A61B1
:102C30002846FFF765FFC9E72B686FF080021A612D
:102C4000284600F038F9C7E72B686FF040021A6198
:102C50002846FFF759FFC5E72B686FF020021A617D
:102C6000284600F027F9C3E703681F4A90420AD0BC
:102C7000B0F1804F07D0A2F59432904203D002F514
:102C80008062904203D123F070034A681343164ACE
:102C900090420AD0B0F1804F07D0A2F59432904212
:102CA00003D002F58062904203D123F44073CA68D6
:102CB000134323F080034A69134303608B68C362A4
:102CC0000B688362084B98420AD001234361036971
:102CD00013F0010F03D0036923F001030361704770
:102CE0000B690363F1E700BF002C014038B310B556
:102CF000044690F83D30EBB1022384F83D30211DAD
:102D00002068FFF7B1FF012384F8463084F83E3095
:102D100084F83F3084F8403084F8413084F8423001
:102D200084F8433084F8443084F8453084F83D30EA
:102D3000002010BD80F83C3002F0A4F8DCE7012050
:102D4000704710B4846824F47F4442EA03230B43A1
:102D50002343836010BC704790F83C30012B73D044
:102D600010B50446012380F83C30022380F83D3042
:102D70000268936823F47F4323F0770393600B6822
:102D8000402B56D011D9702B3BD01FD8502B45D09B
:102D9000602B19D1CA6849680068FFF761FE60219D
:102DA0002068FFF770FE002024E0102B04D009D922
:102DB000202B01D0302B07D119462068FFF763FE86
:102DC000002017E0002BF7D0012013E0B3F5805F5F
:102DD0000FD0B3F5005FF7D1CB684A688968006807
:102DE000FFF7AFFF2268936843F4804393600020AD
:102DF00000E00020012384F83D30002384F83C30BB
:102E000010BDCB684A6889680068FFF79AFF22689E
:102E1000936843F0770393600020EBE7CA68496842
:102E20000068FFF70BFE50212068FFF72CFE002002
:102E3000E0E7CA6849680068FFF700FE40212068A3
:102E4000FFF721FE0020D5E70220704790F83C30C4
:102E5000012B2BD030B4012380F83C30022380F8C2
:102E60003D3003685C689D6824F070040A68224362
:102E70005A6003680E4A93420AD0B3F1804F07D0DC
:102E8000A2F59432934203D002F58062934204D1BA
:102E900025F080054A6815439D60012380F83D3088
:102EA000002380F83C30184630BC70470220704741
:102EB000002C014070477047026802F10C0353E890
:102EC000003F23F0C0030C3242E800310029F3D167
:102ED000202380F841307047026802F10C0353E868
:102EE000003F23F490730C3242E800310029F3D103
:102EF000026802F1140353E8003F23F00103143287
:102F000042E800310029F3D1036B012B05D02023C7
:102F100080F84230002303637047026802F10C031B
:102F200053E8003F23F010030C3242E8003100293F
:102F3000F3D1ECE790F84130DBB2212B27D1836845
:102F4000B3F5805F16D0036A5A1C02621A780368D0
:102F50005A60C38C013B9BB2C384D3B90268D36867
:102F600023F08003D3600268D36843F04003D3604A
:102F7000002070470369002BE5D1036A1B880268B3
:102F8000C3F308035360036A02330362E1E70220DC
:102F9000704700207047000038B504460268136986
:102FA00023F44053C1680B431361836802691343E0
:102FB00042691A430168CB6823F4B05323F00C0331
:102FC0001343CB600268536923F4407381690B4358
:102FD00053610268124B9A421FD0FFF715FC00EBB9
:102FE000800000EB800063689B00B0FBF3F00D4DA8
:102FF000A5FB00325109642202FB11021301323396
:10300000A5FB03235B0903F0F00202EB011203F0BE
:103010000F03216813448B6038BDFFF705FCDEE722
:10302000003801401F85EB5160B310B5044690F89D
:10303000413013B3242384F841302268D36823F449
:103040000053D3602046FFF7A7FF2268136923F4DB
:10305000904313612268536923F02A035361226865
:10306000D36843F40053D36000206064202384F8C5
:10307000413084F84230606310BD80F8403001F088
:1030800021FFD7E70120704738B590F84150EDB2E5
:10309000202D30D1002930D00AB901202CE0134670
:1030A00004460162A284E28400224264212084F862
:1030B0004100A06B124D8562A06B124DC562A06BE2
:1030C000114D0563A06B426322680432A06BFEF7CA
:1030D000F3FC23686FF040021A60226802F11403C7
:1030E00053E8003F43F08003143242E800310029E6
:1030F000F3D1002000E0022038BD0120FCE700BF32
:103100000F3100087731000885310008704708B595
:10311000416A03681B6813F0200F1AD10023CB8487
:103120000A6802F1140353E8003F23F080031432CD
:1031300042E800300028F3D10A6802F10C0353E89A
:10314000003F43F040030C3242E800300028F3D146
:1031500008BD0846FFF7DAFFFAE708B50168CB6853
:1031600023F04003CB60202380F84130FFF7CEFFEF
:10317000002008BD704708B5406AFFF7FBFF08BD97
:103180007047704710B5446A23685A6994F8413013
:10319000DBB2212B10D023685A6902F0400294F868
:1031A0004230DBB2222B11D0636C43F01003636416
:1031B0002046FFF7E6FF10BD02F08002002AEAD0A9
:1031C0000023E3842046FFF777FEE4E7002AEBD0F4
:1031D0000023E3852046FFF77FFEE5E708B5406A58
:1031E0000023C385C384FFF7CCFF08BD704790F868
:1031F0004230DBB2222B69D18368B3F5805F4ED0B9
:10320000826AB3F5805F04D0002B55D10369002B8F
:1032100052D103685B681370836A01338362C38D84
:10322000013B9BB2C385002B52D100B583B002682D
:10323000D36823F02003D3600268D36823F480733B
:10324000D3600268536923F001035361202380F89F
:10325000423000234363036B012B33D1002303630C
:10326000026802F10C0353E8003F23F010030C3214
:1032700042E800310029F3D103681A6812F0100FF8
:1032800006D0002201921A6801925B680193019BAB
:10329000818DFFF7ABFF002003B05DF804FB0269EE
:1032A000002AADD1826A03685B68C3F30803138008
:1032B000836A02338362B2E703685B6803F07F03CB
:1032C0001370A9E7FFF75CFF0020E5E702207047D5
:1032D0000020704730B583B0044602681368D06898
:1032E000516913F00F0505D113F0200F02D010F033
:1032F000200F5ED1002D72D011F0010102D110F427
:10330000907F6CD013F0010F06D010F4807F03D0B3
:10331000626C42F00102626413F0040F04D019B130
:10332000626C42F00202626413F0020F04D019B121
:10333000626C42F00402626413F0080F07D010F0D0
:10334000200F00D119B1626C42F008026264626C15
:10335000002A55D013F0200F02D010F0200F2CD1EE
:1033600023685B6903F04003626C12F0080F00D120
:103370007BB32046FFF7B0FD23685B6913F0400F75
:1033800023D0226802F1140353E8003F23F04003E6
:10339000143242E800310029F3D1E36B8BB16A4A61
:1033A0005A63E06BFEF7E6FB50B3E06B436B984764
:1033B00026E02046FFF71BFF22E02046FFF717FF1D
:1033C000CEE72046FFF7DDFE1AE02046FFF7D9FEE4
:1033D00016E02046FFF7D5FE0023636410E0216B62
:1033E00001290FD013F0800F03D010F0800F40F0B0
:1033F000A28013F0400F03D010F0400F40F09F80E8
:1034000003B030BD13F0100FECD010F0100FE9D066
:10341000002301931368019353680193019B53693F
:1034200013F0400F4ED0E26B13685B689BB2002B29
:10343000E6D0A18D9942E3D9E3859369202B37D05B
:10344000226802F10C0353E8003F23F480730C322E
:1034500042E800310029F3D1226802F1140353E855
:10346000003F23F00103143242E800310029F3D178
:10347000226802F1140353E8003F23F040031432A2
:1034800042E800310029F3D1202384F842300023A0
:103490002363226802F10C0353E8003F23F010037A
:1034A0000C3242E800310029F3D1E06BFEF73FFB1C
:1034B00002236363A18DE38DC91A89B22046FFF709
:1034C00095FE9DE7A18DE38DC91A89B2E38D9BB26C
:1034D000002B95D0002993D0226802F10C0353E809
:1034E000003F23F490730C3242E800300028F3D1FF
:1034F000226802F1140353E8003F23F00103143261
:1035000042E800300028F3D1202384F84230002321
:103510002363226802F10C0353E8003F23F01003F9
:103520000C3242E800300028F3D1022363632046C6
:10353000FFF75CFE64E72046FFF7FCFC60E72046EF
:10354000FFF70BFE5CE700BFDD31000890F841306B
:1035500090F8420018437047104B1B78EBB90021DC
:1035600012E041F2210080EA43039BB20132072AB4
:1035700005D813F4004FF4D15B009BB2F6E7084A7C
:1035800022F81130013189B2FF2903D80B029BB216
:103590000022ECE7014B01221A7070472402002040
:1035A000E01F002070B505460E4614460A4B1B78F6
:1035B0006BB9FFF7D1FF0AE0337883EA1523074997
:1035C00031F9130080EA052085B201361446621EE7
:1035D000002CF1DC284670BD24020020E01F0020F2
:1035E0000D4BDA6822F08072DA60DA6842F080729D
:1035F000DA600A4B1A6822F001021A601A6842F077
:1036000001021A6000225A6000BF00BF00BF586864
:10361000B0FA80F040097047F0ED00E0001000E0E3
:1036200008B50449FDF73EFB4FF06651FDF73AFB44
:1036300008BD00BF3333534010B502281BD0032808
:1036400025D001280BD0184C002280212046FEF7FF
:10365000D2FD012240212046FEF7CDFD10BD124CC7
:10366000012280212046FEF7C6FD0122402120468E
:10367000FEF7C1FDF2E70C4C002280212046FEF748
:10368000BAFD002240212046FEF7B5FDE6E7064CD4
:10369000012280212046FEF7AEFD00224021204677
:1036A000FEF7A9FDDAE700BF0008014008B572B6D1
:1036B000012220210248FEF79EFDFEF789F9FEE770
:1036C0000008014008B50648FDF7D8FE4FF48072A7
:1036D00004490548FEF77CF80448FFF7DDF908BD0A
:1036E00048170020E8350020181700200018002097
:1036F00000B587B000230593019302930C4B03930D
:1037000004230493FEF76CFB78B905A901A8FEF722
:1037100031FC28B9FEF77EFB002007B05DF804FB02
:10372000FEF778FB6FF00100F7E74FF0FF30F4E7AA
:1037300000F00008F8B50027124C04F58E76124B05
:103740009E421DD8114D4FF48E722146284602F03C
:10375000A0FC2A680E4B9A4201D00434EDE72946BA
:10376000B5F81A510020A1F81A014FF48E72FFF734
:1037700019FF854201D00434DFE727463446DCE7F1
:103780003846F8BD00F0000800000108801A00204B
:103790006219961908B5FFF7CDFF38B101464FF40D
:1037A0008E72044802F075FC002008BD4FF0FF3017
:1037B000FBE700BFDC18002070B586B00020029047
:1037C0000390494B0493042305930190474C484BC5
:1037D0002360A4F81A014FF48E722146FFF7E2FE2F
:1037E000A4F81A01FEF7FCFA002879D1FFF7A2FF2E
:1037F0000446E0B14FF48E723C4902F03BFC0546B2
:1038000068B104F58E7604F50E743A4B9C420FD9DC
:1038100001A902A8FEF7AEFB20B9334E08E0FEF77F
:10382000F9FA42E0FEF7F6FA6FF001053DE02E4EA0
:1038300033460022B2F58E7F14D2981C1B889BB2AF
:103840004FF6FF718B421DD006F58E72134606F5BA
:103850000E7628498E421DD901A902A8FEF78AFBDF
:1038600098B9214E0024214BB4F58E7F20D29D1CA7
:103870001A88002331190120FEF70CFB68B90234C5
:103880002B46F1E702320346D4E7FEF7C3FA6FF0A6
:1038900002050AE016460022CCE701A902A8FEF7BD
:1038A00069FBFEF7B7FA6FF00305284606B070BD56
:1038B0004FF48E720D49304602F0DCFB054630B9FC
:1038C000FEF7A8FA0C4B4FF0FF321A60EDE701A9A2
:1038D00002A8FEF74FFBFEF79DFA6FF00405E4E740
:1038E0004FF0FF35E1E700BF00F00008DC180020D2
:1038F00062199619000001082C0000202DE9F047FC
:10390000894690460D460026344612E0071DD0F841
:1039100000A02146D8F80400FDF7C4F9014650463E
:10392000FDF7B8F83146FDF7B3F8013D26460446E9
:103930003846002DEAD12146D8F80C00FDF7B2F93F
:103940003146FDF7A5F8064604F10040D8F8081006
:10395000FDF7A8F905464846FDF74CF901464FF03A
:103960008040FDF753FA044601463046FDF79AF9C8
:10397000C8F8100021462846FDF794F9C8F814004D
:10398000BDE8F0872DE9F04F85B0054602919346DA
:103990009A46DDF838901846FDF72CF901464FF0AD
:1039A0008040FDF733FA039000273AE00136009B90
:1039B00001930090564512D255F824800099D9F809
:1039C0000400FDF76FF901464046FDF763F80199E1
:1039D000FDF75EF80134A345E8D80024E6E7009C33
:1039E0002146D9F80C00FDF75DF90199FDF750F873
:1039F000064604F10040D9F80810FDF753F9804657
:103A0000029B03EBC7043146039E3046FDF74AF99B
:103A1000029B43F8370041463046FDF743F96060AA
:103A200001375F4505D23C460026002301930093F1
:103A3000C0E705B0BDE8F08FF8B504460E460C4966
:103A40003046FDF72FF9074605F0EEF805463846F3
:103A500005F06AF90746266029462846FDF71AF858
:103A60006060E560A760002323616361F8BD00BF6B
:103A7000DB0FC94038B50546046800212046FDF734
:103A8000A5FA002868D136492046FDF7A9FA002892
:103A900031D134492046FDF7A3FA002832D132490A
:103AA0002046FDF79DFA002833D130492046FDF726
:103AB00097FA002834D14FF07E512046FDF790FA56
:103AC000002834D12A492046FDF78AFA002845D13A
:103AD00028492046FDF784FA00282FD126492046A0
:103AE000FDF77EFA002830D11E492046FDF7DAF8AE
:103AF0002860472031E021492046FDF7D3F82860AF
:103B000066202AE01E492046FDF7CCF82860702088
:103B100023E019492046FDF7C5F8286070201CE015
:103B200014492046FDF7BEF82860752015E01049BD
:103B30002046FDF7B7F828606D200EE00B492046BF
:103B4000FDF7B0F828606B2007E007492046FDF735
:103B5000A9F828604D2000E0202038BD2020FCE797
:103B6000CCBC8C2B5F708930BD3786356F12833AA1
:103B700000007A4400247449286B6E4EA95F635894
:103B8000A5D4685338B5642816D0B0F5967F1AD0FE
:103B9000294B4FF47A721A80284B4FF07E521A60EC
:103BA0002749264B1868FDF77DF84FF07C51FDF74B
:103BB00079F80546002428E01F4B64221A801F4B29
:103BC000204A1A60ECE71C4B4FF496721A801B4B8C
:103BD0001D4A1A60E4E72046FDF70CF81B49FDF783
:103BE00061F805F0A1F84FF07E51FCF753FF29462C
:103BF000FDF758F84FF07C51FCF74CFF05F050F8FA
:103C0000FDF716FA124B185501343F2CE3D90A4B35
:103C10001C8804B938BDA401FEF7F0FD0D4A5368B5
:103C20000133B0FBF3F303EB5403B3FBF4F3013BB9
:103C30001168CB62D360EDE7200000202400002053
:103C400000007F43B81E053FE17A143FDB0FC93DFA
:103C5000F8190020001800202DE9F0410D462149F7
:103C6000FDF720F8044604F0DFFF0646204605F085
:103C70005BF804461B492846FDF714F8074604F094
:103C8000D3FF0546384605F04FF80746294630462B
:103C9000FDF708F8804639462046FDF703F801464F
:103CA0004046FCF7F7FE804639463046FCF7FAFFFF
:103CB000064629462046FCF7F5FF01463046FCF74C
:103CC000E7FE044600214046FDF780F910B10648A2
:103CD000BDE8F0814146204605F064F80349FCF751
:103CE000E1FFF5E735FA8E3C0000C07FE12E65422A
:103CF0002DE9F04385B04FF000093AE02146314B01
:103D0000586905F04FF83049FCF7CCFF2F49FCF714
:103D1000C1FE2F4905F048F83FE02E4B03EBC403EA
:103D200093E8030004AB03E90300029D29462846FB
:103D3000FCF7B8FF074603990846FCF7B3FF0146B6
:103D40003846FCF7A7FE01463046FCF7A3FE0646C0
:103D500048F8245001347F2CDFD94FF070513046A1
:103D6000FCF7A0FF05F07EF81B4B43F8290009F192
:103D70000109B9F1070F1ED8184B03EB4928114C64
:103D8000224680214046FFF7B9FD246900212046E4
:103D9000FDF71CF90028B1D01148124B43F8290057
:103DA000084B009380231A460A494046FFF7EAFD74
:103DB00000240026CFE70C4A13680133136005B0D6
:103DC000BDE8F08300170020E12E65420000874324
:103DD0000000B443E02100209018002034060020A9
:103DE0000000C07FB4180020341600202DE9F043F5
:103DF00083B0814688460025009501950124002660
:103E00001EE01F4B53F824102846FCF743FE0546DE
:103E10001C491D4B53F82400FCF744FF074604F0EF
:103E200003FF01460098FCF735FE0090384604F089
:103E30007BFF01460198FCF72DFE0190013602340C
:103E4000072CDED93046FCF7D5FE01462846FCF7A4
:103E5000DDFFC9F80000009C00212046FDF7B6F800
:103E600028B10A48C8F8000003B0BDE8F083214635
:103E7000019804F097FF0649FCF714FFF2E700BF32
:103E80009018002035FA8E3CB41800200000C07F46
:103E9000E12E65422DE9F04F85B0FFF729FF03A918
:103EA00002A8FFF7A3FF029A7E4B5A60DA605A61BC
:103EB000DA61039A7C4B5A60DA605A61DA617B4BB3
:103EC0009888FCF79BFE01247949FDF793F800B927
:103ED0000024A046774B1C60744BD888FCF78EFEFC
:103EE00001247349FDF786F800B90024A346724BFC
:103EF0001C604FEA88066B4D55F82600FFF790FBD3
:103F00008246771C55F82700FFF78AFB8146A400FC
:103F1000A31C55F82300FFF783FB6849FCF7C2FE9A
:103F20000090033455F82400FFF77AFB6349FCF74F
:103F3000B9FE0190624B19684FF07E50FCF766FFA6
:103F40000446B8F1000F00F0A9800546BBF1000F50
:103F500001D14FF07E5429465046FCF7A3FE82461D
:103F6000DFF86C81C8F8040029464846FCF79AFE41
:103F7000C8F8080021460098FCF794FE0546C8F8EA
:103F80000C0021460198FCF78DFEC8F81000294668
:103F90005046FCF73BFFC8F81400434C54F8271078
:103FA00054F82600FFF758FEC8F81800424B1B686B
:103FB0009B009A1C033354F8231054F82200FFF797
:103FC0004BFE0146C8F81C00D8F81800FFF744FE65
:103FD0000446C8F820003B4B1888FCF70FFE3A490E
:103FE000FCF760FE054639492046FCF75BFE0646B5
:103FF00004F01AFE0446304604F096FE0746D8F850
:10400000146024F000413046FCF74CFE044627F0D3
:1040100000413046FCF746FE82462946FCF7F6FE94
:10402000814651462846FCF73DFE01464FF07E5042
:10403000FCF7ECFE0746CDF800A051462046FCF701
:10404000E5FE834649462846FCF72CFE2146FCF750
:10405000DDFE824639462846FCF724FE2146FCF761
:1040600021FE01464FF07E50FCF7D0FE054621466A
:104070000098FCF7CBFEC8F82890C8F82470C8F860
:104080002C60C8F83040C8F834B0C8F838A0C8F878
:104090003C50C8F8400005B0BDE8F08F4FF07E55A9
:1040A00054E700BF90180020B41800202802002018
:1040B0000000C844A01B0020381600206F12833A6D
:1040C0001C00002020000020DB0FC94035FA8E3C88
:1040D0003C1A00202DE9F047514B1D68032D58D89C
:1040E0000446504B53F82560770015B94E4B1B68BA
:1040F0007BB14D4BD3F80080B8F1090F40D916F0D1
:10410000010F13D04FF0FF3E484B33F816C000228A
:1041100031E03046FFF790FA444B00221A605A60B3
:10412000012220214248FEF766F8E2E74FF0010E37
:10413000EAE704EB820134F92230A3F5006303FBC4
:104140000EF31BB2B1F80290A9F500690FFA89F9D4
:10415000384951F83200184441F8320001EBC201ED
:10416000486848444860002BB8BF5B429BB29C45FE
:1041700038BF9C4601327F2ADBD92C4B23F816C06E
:1041800008F10103284A13602B4A12680A3293424D
:1041900001D2BDE8F0870135224B53F82500FFF727
:1041A0004BFA214B18680A38FCF724FD01464FF002
:1041B0007E50FCF72BFE8046204B03EB472901374E
:1041C00003EB472A002414E01A4F57F83400FCF799
:1041D00015FD4146FCF766FD49F8240007EBC407CE
:1041E0007868FCF70BFD4146FCF75CFD4AF82400BB
:1041F00001347F2CE8D94FF4806200210D4801F092
:1042000053FF094B00221A600D4B1E60044B1D60CA
:10421000032DBED920210648FDF7EDFFB9E700BF09
:104220009C1B002024B70008300600202802002034
:104230000008014030020020180000203406002051
:104240002800002070B582B00C4615461E46022894
:104250001ED0032838D042492046FCF7C1FE002872
:104260005DD140492046FCF7BBFE002862D13E49A3
:104270002046FCF7B5FE002867D12046FCF7D4F8AD
:10428000CDE90001394A3146284602F033FC0EE000
:1042900033492046FCF7A4FE58B12046FCF7C4F889
:1042A000CDE90001324A3146284602F023FC02B033
:1042B00070BD2046FCF7B8F8CDE900012D4A314623
:1042C000284602F017FCF2E725492046FCF788FE55
:1042D00078B924492046FCF783FEA8B12046FCF7B4
:1042E000A3F8CDE90001244A3146284602F002FC39
:1042F000DDE72046FCF798F8CDE900011F4A31467A
:10430000284602F0F7FBD2E72046FCF78DF8CDE90E
:1043100000011B4A3146284602F0ECFBC7E7204665
:10432000FCF782F8CDE90001164A3146284602F032
:10433000E1FBBCE72046FCF777F8CDE90001124A23
:104340003146284602F0D6FBB1E72046FCF76CF870
:10435000CDE900010D4A3146284602F0CBFBA6E725
:10436000000020410000C84200007A441CB7000849
:10437000DCB60008E4B60008F4B60008ECB60008A5
:10438000FCB6000804B700080CB7000814B7000812
:104390002DE9F84F8146884693461F46DDF828A050
:1043A00000260EE008EB060109EB0500E20BC9B29E
:1043B000C0B201F0A9FB6400A4B20135BD42F1D343
:1043C0000136564507D23BF81640C7F110039C4012
:1043D000A4B20025F2E7BDE8F88F08B501F070FC43
:1043E00001F00CFB012001F0D3FA01F0E1FA4FF4E7
:1043F0009670FCF713FF002001F0CAFA01F0D8FA1A
:1044000008BD000038B50021084601F011FC1C4C25
:10441000012394E806001B4801F0F2FB00215A201A
:1044200001F006FC184D0022184B1949284602F0ED
:1044300095FB012394E80600284601F0E1FB0E21DC
:10444000102001F0F5FB134A012306CA124801F0BF
:10445000D7FB2621052001F0EBFB012394E80600A1
:104460000E4801F0CDFB3421052001F0E1FB0123D2
:1044700094E806000A4801F0C3FB01F099FA38BD40
:1044800010000020E8B500083C1600200000D03FD6
:10449000F0B5000808000020F8B5000804B60008D0
:1044A00014B600082DE9F04186B00446BA4B1B68EB
:1044B00003B1A8B1002001F06BFA0021012001F046
:1044C000B7FBB64A012306CAB54801F099FBB54BC4
:1044D0001B68013B012B00F21681AF4B00221A60D2
:1044E000B14B1B68032B02D8002C00F03682002150
:1044F000242001F09DFBAD4B1B88B3F57A7F80F043
:104500000B81AB4A1A21AB4802F0F4FAA34A01230B
:1045100006CAA84801F074FBA24B1B68012B00F0EF
:10452000E181022B00F02C8200230493A24B9B79A3
:10453000012B00F00581002B00F0F880022B00F029
:10454000098104A8FFF796FA06461221012001F01E
:104550006FFB9A4C974D012394E80600284601F022
:104560004FFB1A232A4604990420FFF76BFE012310
:1045700094E80600284601F043FB05A90DF10F0061
:1045800001F05CFB9DF80F0005309DF81410C0B2DF
:1045900001F04EFB884B9B79012B00F0F180002B42
:1045A00000F0E280022B00F01981854B5C6800214D
:1045B0002046FCF729FD002800F0288106A840F8D5
:1045C000044DFFF757FA06462821012001F030FB81
:1045D000784C1A23224605990420FFF733FE6F4DCD
:1045E000012395E80600204601F00AFB26705623B9
:1045F00063700023A370012395E80600204601F0B4
:10460000FFFA6F4B1C6900212046FCF7FDFC0028D7
:1046100000F0FE8006A840F8044DFFF72BFA06468E
:1046200028213E2001F004FB624C1A232246059902
:104630000420FFF707FE594D012395E806002046A8
:1046400001F0DEFA2670412363700023A37001237A
:1046500095E80600204601F0D3FA574B9B79012BD1
:1046600040F2D880022B40F06481DFF85481D8F802
:10467000283006AE46F8043D3046FFF7FBF9074602
:104680003521012001F0D4FA4A4C1A23224605991B
:104690000420FFF7D7FD414D012395E80600204691
:1046A00001F0AEFA2770482363700027A77001233A
:1046B00095E80600204601F0A3FAD8F840300593AB
:1046C0003046FFF7D7F9064635213E2001F0B0FA13
:1046D000012395E806003B4801F092FA1A2322468E
:1046E00005990320FFF7AEFD012395E8060020465B
:1046F00001F086FA26706770012395E806002046CF
:1047000001F07EFA15E1012300930C23032280219E
:10471000002001F09BFAE0E62B4AA2FB03239B0951
:104720002A4A1A21234802F0E5F9EFE6244B9B6A56
:104730000493204A264B1B6813801B0C937000E7E0
:104740001F4B5B6A04931B4A224B1B6813801B0C94
:104750009370F6E61A4BDB6A0493164A1E4B1B68ED
:1047600013801B0C9370ECE61248067048234370CC
:1047700000238370114A012306CA01F041FA14E7AD
:104780000C48067046234370002383700B4A0123B4
:1047900006CA01F035FA08E7FC16002010000020D8
:1047A0002CB60008B01800209C1B00202000002020
:1047B00030B600083C160020DC180020080000205D
:1047C0003C1A002050B60008D34D621038B60008DD
:1047D00040B6000844B6000848B600088248067093
:1047E00000234370814A012306CA01F009FA05A992
:1047F0000DF10F0001F022FA9DF80F001223009333
:104800000B237B4A0F21FFF7C3FDCEE60024D5E63C
:104810000024FFE6774B1B6B06A840F8043DFFF72A
:1048200029F906463521012001F002FA724C0123D4
:1048300094E80600714801F0E3F93521142001F0F5
:10484000F7F9694D1A232A4605990320FFF7FAFC68
:10485000012394E80600284601F0D2F92E700023C7
:104860006B70012394E80600284601F0C9F9002383
:104870000593634B9B79012B2CD03BB3022B2DD09E
:1048800005A8FFF7F7F8064635213E2001F0D0F9DC
:10489000594C012394E806005A4801F0B1F9524DF1
:1048A0001A232A4605990320FFF7CCFC012394E83C
:1048B0000600284601F0A4F92E7000236B70012336
:1048C00094E80600284601F09BF932E0494B9B6BC7
:1048D0000593D5E7474BDB6B0593D1E7454B1B6C45
:1048E0000593CDE7484C63683F4DC3F10903474A40
:1048F0001A21284602F0FEF81221012001F098F951
:104900003D4A012306CA284601F07AF92388B3F507
:104910007A7F2BD23E4A1A21284602F0EBF820215A
:10492000012001F085F9344A012306CA2E4801F01E
:1049300067F93521782001F07BF9314BDB79002BC9
:1049400050D0344A284C1A21204602F0D3F82A4A83
:10495000012306CA204601F053F901F029F82E4A36
:1049600013680133136006B0BDE8F0812B4AA2FB47
:1049700003239B092A4A1A211B4802F0BBF8CEE701
:10498000214C6368184DC3F10903264A1A212846B1
:1049900002F0B0F81221012001F04AF9164A012371
:1049A00006CA284601F02CF92388B3F57A7F0FD286
:1049B000174A1A21284602F09DF82021012001F013
:1049C00037F90D4A012306CA074801F019F9B0E783
:1049D000124AA2FB03239B09114A1A21024802F042
:1049E00089F8EAE7104AADE73C16002008000020ED
:1049F000B8B600083C1A0020100000204CB6000891
:104A0000DC18002050B600089416002054B60008A8
:104A100068B6000828B60008FC160020D34D6210C6
:104A200074B6000880B6000864B6000870B50D467C
:104A30001446FCF7EDFB064600E030BFA2B2294663
:104A40000548FEF721FB022804D1FCF7E1FB801B9F
:104A50006328F2D9204670BD4818002008B572B608
:104A6000012220210148FDF7C6FBFEE700080140B6
:104A7000FEE7000008B572B6012220211348FDF7B9
:104A8000BAFB134C134B5D68FDF7B8FEA4FB003472
:104A9000180D40EA04340F4B5B685B1BA342FAD34A
:104AA000002220210948FDF7A6FB094C094B5D684F
:104AB000FDF7A4FEA4FB0034180D40EA0434054BB6
:104AC0005B685B1BA342FAD3D6E700BF0008014036
:104AD00070110100001000E008B572B6012220211B
:104AE0001348FDF788FB134C134B5D68FDF786FEFA
:104AF000A4FB0034180D40EA04340F4B5B685B1BC9
:104B0000A342FAD3002220210948FDF774FB094C87
:104B1000094B5D68FDF772FEA4FB0034180D40EAF6
:104B20000434054B5B685B1BA342FAD3D6E700BF96
:104B300000080140A0860100001000E008B572B630
:104B4000012220211348FDF756FB134C134B5D68DF
:104B5000FDF754FEA4FB0034180D40EA04340F4B5B
:104B60005B685B1BA342FAD3002220210948FDF7B2
:104B700042FB094C094B5D68FDF740FEA4FB003485
:104B8000180D40EA0434054B5B685B1BA342FAD363
:104B9000D6E700BF00080140A0860100001000E039
:104BA00008B572B6012220211348FDF724FB134CEF
:104BB000134B5D68FDF722FEA4FB0034180D40EA9C
:104BC00004340F4B5B685B1BA342FAD30022202105
:104BD0000948FDF710FB094C094B5D68FDF70EFE17
:104BE000A4FB0034180D40EA0434054B5B685B1BE2
:104BF000A342FAD3D6E700BF00080140A086010017
:104C0000001000E0704770477047000070B5FCF777
:104C1000F3FAFCF7FDFA0646002410E06B1E1BB207
:104C200022E0002325E00AB1002B36DD32B1B21AB2
:104C300004EB84039900234B0B441A610134022CCA
:104C400037D804EB840293001E4AD0580028F5D0D0
:104C500019461C4B0B44B3F906509988FDF7C4FA6A
:104C60000028DBD16B1C1BB2002BDADB1E2BA8BF8C
:104C70001E23A100214488000146124A0244D38029
:104C80009268002ACFD11D2BCDDD0D460D49294458
:104C90000020087308618E60C5E7B01AA1002144A6
:104CA0008D00084B2B441861012119730021996074
:104CB000BCE7054B1B68002B03DD034A1368013B6F
:104CC000136070BD581600202C00002008B5024863
:104CD000FCF79CFF08BD00BF7817002008B502480C
:104CE000FCF794FF08BD00BFBC17002008B50A48B8
:104CF000FDF70BFF094B1B68094AD25C0948C168E4
:104D000021F0FF010A43C26001333F2B00D9002389
:104D1000024A136008BD00BF00180020381A0020A6
:104D2000F8190020000C014008B50248FEF7D2FA3D
:104D300008BD00BF4818002008B50268034B9A421E
:104D400000D008BD0248FFF7C5F9FAE7002401408A
:104D5000E835002008B50268034B9A4200D008BD30
:104D60000248FFF7B7F9FAE700240140E8370020CE
:104D700082B00E4B9A6942F001029A619A6902F080
:104D800001020092009ADA6942F08052DA61DB692E
:104D900003F080530193019B054A536823F0E063BD
:104DA00043F00073536002B0704700BF0010024030
:104DB0000000014070B588B000230493059306936A
:104DC00007930368294A934204D0294A934242D068
:104DD00008B070BD0446274B9A6942F400729A618C
:104DE0009A6902F400720192019A9A6942F00402EF
:104DF0009A619B6903F004030293029B03230593CA
:104E000008AD012345F8103D1B4E29463046FDF7FD
:104E1000FFF80223049329463046FDF7F9F81748B6
:104E2000174B03600023436083608023C3604FF40B
:104E3000007303614FF400634361202383614FF4E7
:104E40000053C361FCF702FE18B90C4B23625C628D
:104E5000BEE7FFF703FE074B9A6942F480629A614E
:104E60009B6903F480630393039BB1E70024014033
:104E7000002801400010024000080140781700207F
:104E80000800024002680E4B9A4200D0704700B5FD
:104E900083B003F50333DA6942F00202DA61DB69B9
:104EA00003F002030193019B002211461D20FCF731
:104EB0004DFD1D20FCF77EFD03B05DF804FB00BF37
:104EC00000040040F0B587B00023029303930493DD
:104ED00005930268274B9A4201D007B0F0BD044603
:104EE00003F558439A6942F480429A619A6902F440
:104EF00080420092009A9A6942F004029A619B698A
:104F000003F004030193019B02230393059306AE70
:104F10004FF4007346F8103D174F31463846FDF701
:104F200077F800250395012304934FF480630293DF
:104F300031463846FDF76CF81048114B03601023DA
:104F4000436085608023C360056145618561C561FB
:104F5000FCF77CFD58B9094BA3635C6200220A216F
:104F60002520FCF7F3FC2520FCF724FDB5E7FFF72F
:104F700075FD00BF0038014000080140BC1700204B
:104F80004400024000B595B000230C930D930F939D
:104F90001093059306930793089309930193029343
:104FA0000393049301220A924FF480330B930E92E1
:104FB0000222119212934FF4E01313930AA8FDF703
:104FC00037F9C8B90F2305930221069100230793EF
:104FD0004FF480620892099305A8FDF75BFB68B95E
:104FE000022301934FF40043039301A8FDF72CFC27
:104FF00030B915B05DF804FBFFF730FDFFF72EFD6B
:10500000FFF72CFD08B50A480A4B03604FF46123F3
:10501000436000238360C36003610C2242618361AB
:10502000C361FEF701F800B908BDFFF717FD00BF27
:10503000481800200038014070B584B00023019367
:10504000029303932C482D4A026083600373037517
:105050004FF40022C261436001230361FCF7B0FA00
:1050600000283BD104A94FF4C02341F8103D224849
:10507000FCF72EFC002833D1062303930023019371
:105080000123029301A91C48FCF718F950BB1C4EE0
:1050900034461C4B44F8043B1B4D0FCD0FC495E820
:1050A000070084E80700012333734FF46023F361A2
:1050B0003046FCF785FAB8B901230193029301A9A0
:1050C0000F48FCF7FBF888B90B48FCF701FB78B9EF
:1050D0000B48FCF7FDFA68B904B070BDFFF7BEFCE1
:1050E000FFF7BCFCFFF7BAFCFFF7B8FCFFF7B6FC14
:1050F000FFF7B4FCFFF7B2FC1817002000240140B2
:1051000048170020002801401C17002000B583B07C
:105110000E4B5A6942F001025A615B6903F00103C8
:105120000193019B002201210B20FCF70FFC0B20B7
:10513000FCF740FC00220A210E20FCF707FC0E20A1
:10514000FCF738FC03B05DF804FB00BF0010024020
:1051500010B586B000230293039304930593009344
:1051600001931A4C1A4A2260A36023618022A26133
:105170006360FDF743FB63680133B0FBF3F303F5B2
:10518000FA431448A0FB03231B0B013BE3602046BA
:10519000FDF7ACFD98B906A94FF4805341F8103DD6
:1051A0000A48FDF7D9FD60B920230093002301933D
:1051B00069460648FDF74AFE28B906B010BDFFF75C
:1051C0004DFCFFF74BFCFFF749FC00BF0018002027
:1051D00000040040D34D62102DE9F04F87B0002548
:1051E0000295039504950595554B9A6942F0040282
:1051F0009A619A6902F004020092009A9A6942F058
:1052000008029A619B6903F008030193019B012244
:1052100020214C48FCF7EFFF2A4680214948FCF743
:10522000EAFF012240214748FCF7E5FF2A46042116
:105230004448FCF7E0FF2A464FF480714148FCF7F0
:10524000DAFF414CE36823F0FF03E3600127039793
:1052500004954FF0020BCDF814B04FF02009CDF8B3
:10526000089002A93748FCF7D3FE4FF04008CDF86C
:10527000088002A93348FCF7CBFE8026029602A9DB
:105280003048FCF7C5FE4FF0040ACDF808A002A98B
:105290002C48FCF7BDFE4FF48073029302A9294805
:1052A000FCF7B6FE039504974FF40053029302A94E
:1052B0002046FCF7ADFE4FF48043029302A920463E
:1052C000FCF7A6FE4FF40043029302A92046FCF728
:1052D0009FFE0397049503230593029702A9204696
:1052E000FCF796FECDF808B002A92046FCF790FE28
:1052F000CDF808A002A92046FCF78AFE08230293F5
:105300000DEB03012046FCF783FE1023029302A954
:105310002046FCF77DFECDF8089002A92046FCF758
:1053200077FECDF8088002A92046FCF771FE0296B0
:1053300002A92046FCF76CFE07B0BDE8F08F00BF65
:105340000010024000080140000C014010B5474B1E
:105350009B689BB1454BDB6983B1444B1B6B6BB9BD
:10536000424B1B69B3F5487F7AD3404B5B6AB3F578
:10537000487F75D3FEF7BCF9FEF798F93B4B1B7BD2
:105380008BB13A4B00221A739A601B69B3F5487FC0
:1053900023D2374AD379C3F1010303F00103D37158
:1053A0000120FFF77FF8314B93F82030002B3BD0E2
:1053B0002E4B002283F82020DA615B6AB3F5487F28
:1053C00017D22B4B9B88642B1FD0B3F57A7F48D024
:1053D000274B4FF47A729A801BE0264C66220021FC
:1053E000A01C00F061FE64232380234B01221A607D
:1053F000D6E7204C66220021A01C00F055FE642355
:1054000023801D4B02221A600BE0194B4FF4967259
:105410009A80174B9888FEF7B5FB184B41F28832FB
:105420001A600120FFF73EF8104B93F83430BBB1FF
:105430000E4B002283F834201A639B6BB3F5487F30
:105440000BD20B4B9B790133022B00D91346084A30
:1054500093710A4B41F288321A600120FFF722F85B
:1054600010BD034B64229A80D3E700BF581600207A
:10547000DC18002094160020B01800202C0000201A
:10548000144BDB7903B9704770B51348FEF75EF82B
:10549000202800D070BD114C6FF0690323701923D0
:1054A00063706222A270E370A51D4FF480563246ED
:1054B0000B49284600F0EDFD324629460020FEF754
:1054C00071F8A08041F2060221460348FDF7DCFD99
:1054D000E0E700BFDC18002048180020E02500208D
:1054E000340600202DE9F0419D4B1B68012B14D0A0
:1054F000022B00F0AB80BDE8F0819A4DA61C9A4BC0
:1055000053F8241055F82600FBF7C4FA45F8260096
:105510000134072CF1D900251EE00024F9E7934956
:10552000934B53F82500FBF7BDFB074603F07CFBCC
:105530008C4C6E1D014654F83600FBF7ABFA44F86C
:105540003600384603F0F0FB04EBC6040146606801
:10555000FBF7A0FA60600135072DE0D9854B41F2D9
:1055600088321A607F4B5F6801375F60092FC2DDA8
:105570001D88B5F1640418BF0124002612E0B21C96
:10558000784B53F822803846FBF738FB01464046FB
:10559000FBF73CFC2301234433440233764A42F8B0
:1055A00023000136072EEAD9002612E0731D6D4A4A
:1055B00002EBC3033946586803F0F4FB6F49FBF76D
:1055C00071FB2301234433440A336B4A42F823001E
:1055D0000136072E0BD8731D624A52F83370002132
:1055E0003846FBF7F3FC0028E0D06548E9E72301E3
:1055F0001C44A200604B1344012283F84820642D10
:105600000AD05D4B9888FEF7BDFA554B00221A6010
:105610000120FEF747FF6EE7524C66220021A01CD6
:1056200000F042FD4FF47A732380F1E74D4DA61C44
:105630004D4B53F8241055F82600FBF72BFA45F88C
:1056400026000134072CF1D900251EE00024F9E7DB
:105650004649474B53F82500FBF724FB074603F068
:10566000E3FA404C6E1D014654F83600FBF712FA7F
:1056700044F83600384603F057FB04EBC6040146F5
:105680006068FBF707FA60600135072DE0D9394BF8
:1056900041F288321A60334B5F6801375F60092F2F
:1056A0007FF729AF1D88B5F1640418BF01240026D7
:1056B00012E0B21C2B4B53F822803846FBF79EFABF
:1056C00001464046FBF7A2FB230123443344243325
:1056D000294A42F823000136072EEAD9002612E0B3
:1056E000731D204A02EBC3033946586803F05AFB86
:1056F0002249FBF7D7FA2301234433442C331E4AB3
:1057000042F823000136072E0BD8731D154A52F8B4
:10571000337000213846FBF759FC0028E0D01848C8
:10572000E9E723011C44A200134B1344012283F830
:10573000D020642D0AD0104B9888FEF723FA084B2E
:1057400000221A600120FEF7ADFED4E6054C662269
:105750000021A01C00F0A8FC4FF47A732380F1E72D
:10576000B0180020941600209018002035FA8E3CC6
:10577000B41800202C000020DC180020E12E654227
:105780000000C07F38B56B4A516AC1F3C0616A4BF3
:105790001970516AC1F380615970516AC1F3007187
:1057A0009970516AC1F34071D970516AC1F3807127
:1057B0001971516AC90F5971526AC2F340029A7144
:1057C00001255E4B1D605E4C23680021586801F086
:1057D000DBF823680021986801F0D6F823680021DF
:1057E000D86801F0D1F8574B574A1A604FF400516E
:1057F00099805A614FF4804119839A624FF40042B4
:105800009A85524C4FF47A73A3800223A371E571F9
:10581000FDF7E6FEFBF7DEFCFFF7B4FBFFF7DCFC71
:10582000FFF774FCFFF7EEFBFFF792FCFFF704FCB9
:105830004FF072514648FEF7FFF8FDF7ABFF454BBE
:105840001A68454B53F82200444B1860FDF7F4FEEC
:10585000A088FEF797F9FEF7C0FDFEF7D3FD002202
:105860003F4B404801F078F8FBF7D2FC044611E0CA
:105870000133022B0AD803EB83029100314A0A4418
:10588000B2F90620002AF3DD0446F1E7001BB0F56B
:10589000FA7F04D230BFFBF7BBFC0023E9E700220C
:1058A000022A0BD8930013449900264B0B44002185
:1058B000D9809960197319610132F1E7FDF702FF90
:1058C0004FF47A70FBF7AAFC0EE0FEF7E3FA002033
:1058D000FEF7E8FDFFF7D4FDFFF704FE1D4B0022A5
:1058E0001A60214B1B68CBB1BFF34F8F30BFFFF75E
:1058F0002DFD1A4A1468174B1868174951F82010E3
:1059000011601B68032BE0D8A142EAD0174B1B683B
:10591000002BE6D00020FEF7C5FDE2E7FDF74CFFC7
:10592000002804DB104B4FF0FF321A60DCE7FDF774
:1059300043FFF7E700100240D4180020E004424281
:105940003400002058160020000C0140DC18002014
:10595000001700209C1B002024B700083C1A0020E0
:105960000000D03F94B600082C000020FC16002058
:1059700010B582B000248DF804408DF80500022295
:1059800001A9782000F0E3FA204602B010BD000023
:10599000002303E0FF21054AD1540133B3F5806FA2
:1059A00003D20028F6D10021F5E77047AC1B002098
:1059B00010B5A2B040238DF80430002418E0A4F103
:1059C0005000C0B2FFF7D4FF0020FFF7D1FF102036
:1059D000FFF7CEFF8022084901EBC4110DF105004D
:1059E00000F057FB812201A9782000F0B0FA0134C1
:1059F000072CE4DD22B010BDAC1B002010B56420E4
:105A0000FBF70CFCAE20FFF7B3FF04462020FFF7A6
:105A1000AFFF04441020FFF7ABFF0444B020FFF7B2
:105A2000A7FF0444C820FFF7A3FF04440020FFF7AA
:105A30009FFF04441020FFF79BFF04444020FFF722
:105A400097FF04448120FFF793FF0444FF20FFF7F2
:105A50008FFF0444A120FFF78BFF0444A620FFF72B
:105A600087FF0444A820FFF783FF04443F20FFF78B
:105A70007FFF0444A420FFF77BFF0444D320FFF7FB
:105A800077FF04440020FFF773FF0444D520FFF79D
:105A90006FFF0444F020FFF76BFF0444D920FFF7A9
:105AA00067FF04442220FFF763FF0444DA20FFF776
:105AB0005FFF04441220FFF75BFF0444DB20FFF785
:105AC00057FF04442020FFF753FF04448D20FFF7C5
:105AD0004FFF04441420FFF74BFF0444AF20FFF7AF
