:020000040800F2
:10000000005000205D5C000859430008634300086D
:100010006B430008714300087743000800000000AC
:100020000000000000000000000000007D43000808
:100030007F4300080000000081430008854300085A
:10004000055D0008055D0008055D0008055D000808
:10005000055D0008055D0008055D0008055D0008F8
:10006000055D0008055D0008154500087D44000891
:10007000055D0008055D0008B5440008055D000841
:10008000055D0008055D0008055D0008055D0008C8
:10009000055D0008055D0008055D0008055D0008B8
:1000A000055D0008055D0008055D0008055D0008A8
:1000B000055D0008055D0008055D0008055D000898
:1000C000055D0008055D0008055D0008055D000888
:1000D000055D0008CD440008055D0008055D0008C9
:1000E000055D0008055D0008055D000800000000D2
:1000F0000000000000000000000000000000000000
:0C01000000000000000000005FF808F1A3
:1001100010B5054C237833B9044B13B10448AFF341
:1001200000800123237010BDF801002000000000B2
:10013000B0A7000808B5034B1BB103490348AFF350
:10014000008008BD00000000FC010020B0A70008EE
:1001500081F0004102E000BF83F0004330B54FEA78
:1001600041044FEA430594EA050F08BF90EA020FE5
:100170001FBF54EA000C55EA020C7FEA645C7FEA78
:10018000655C00F0E2804FEA5454D4EB5555B8BF9B
:100190006D420CDD2C4480EA020281EA030382EA0C
:1001A000000083EA010180EA020281EA0303362D9E
:1001B00088BF30BD11F0004F4FEA01314FF4801C71
:1001C0004CEA113102D0404261EB410113F0004F83
:1001D0004FEA03334CEA133302D0524263EB43033A
:1001E00094EA050F00F0A780A4F10104D5F1200ED8
:1001F0000DDB02FA0EFC22FA05F2801841F1000133
:1002000003FA0EF2801843FA05F359410EE0A5F106
:1002100020050EF1200E012A03FA0EFC28BF4CF037
:10022000020C43FA05F3C01851EBE37101F00045ED
:1002300007D54FF0000EDCF1000C7EEB00006EEBFA
:100240000101B1F5801F1BD3B1F5001F0CD3490884
:100250005FEA30004FEA3C0C04F101044FEA4452DB
:1002600012F5800F80F09A80BCF1004F08BF5FEA62
:10027000500C50F1000041EB045141EA050130BD42
:100280005FEA4C0C404141EB0101013C28BFB1F554
:10029000801FE9D291F0000F04BF01460020B1FA9F
:1002A00081F308BF2033A3F10B03B3F120020CDA72
:1002B0000C3208DD02F1140CC2F10C0201FA0CF050
:1002C00021FA02F10CE002F11402D8BFC2F1200CB5
:1002D00001FA02F120FA0CFCDCBF41EA0C0190406B
:1002E000E41AA2BF01EB0451294330BD6FEA0404B4
:1002F0001F3C1CDA0C340EDC04F11404C4F120029F
:1003000020FA04F001FA02F340EA030021FA04F3B0
:1003100045EA030130BDC4F10C04C4F1200220FA07
:1003200002F001FA04F340EA0300294630BD21FA45
:1003300004F0294630BD94F0000F83F4801306BF0B
:1003400081F480110134013D4EE77FEA645C18BFFF
:100350007FEA655C29D094EA050F08BF90EA020F96
:1003600005D054EA000C04BF1946104630BD91EA8E
:10037000030F1EBF0021002030BD5FEA545C05D191
:100380004000494128BF41F0004130BD14F58004D0
:100390003CBF01F5801130BD01F0004545F0FE4144
:1003A00041F470014FF0000030BD7FEA645C1ABF79
:1003B000194610467FEA655C1CBF0B46024650EAB0
:1003C000013406BF52EA033591EA030F41F40021DC
:1003D00030BD00BF90F0000F04BF0021704730B562
:1003E0004FF4806404F132044FF000054FF0000137
:1003F00050E700BF90F0000F04BF0021704730B5F8
:100400004FF4806404F1320410F0004548BF4042CC
:100410004FF000013EE700BF42004FEAE2014FEA21
:1004200031014FEA02701FBF12F07F4393F07F4FFC
:1004300081F06051704732F07F4208BF704793F0FF
:100440007F4F04BF41F40021704730B54FF4607412
:1004500001F0004521F000411CE700BF50EA010215
:1004600008BF704730B54FF000050AE050EA0102BE
:1004700008BF704730B511F0004502D5404261EB2E
:1004800041014FF4806404F132045FEA915C3FF46F
:10049000D8AE4FF003025FEADC0C18BF03325FEA0C
:1004A000DC0C18BF033202EBDC02C2F1200300FABD
:1004B00003FC20FA02F001FA03FE40EA0E0021FAE2
:1004C00002F11444BDE600BF80F0004002E000BF2E
:1004D00081F0004142001FBF5FEA410392EA030F2F
:1004E0007FEA226C7FEA236C6AD04FEA1262D2EB79
:1004F0001363C1BFD218414048404140B8BF5B427E
:10050000192B88BF704710F0004F40F4000020F016
:100510007F4018BF404211F0004F41F4000121F02C
:100520007F4118BF494292EA030F3FD0A2F1010276
:1005300041FA03FC10EB0C00C3F1200301FA03F1B4
:1005400000F0004302D5494260EB4000B0F5000FD7
:1005500013D3B0F1807F06D340084FEA310102F196
:100560000102FE2A51D2B1F1004F40EBC25008BF48
:1005700020F0010040EA03007047490040EB000012
:10058000013A28BFB0F5000FEDD2B0FA80FCACF113
:10059000080CB2EB0C0200FA0CF0AABF00EBC25040
:1005A00052421843BCBFD0401843704792F0000F2E
:1005B00081F4000106BF80F400000132013BB5E781
:1005C0004FEA41037FEA226C18BF7FEA236C21D0F7
:1005D00092EA030F04D092F0000F08BF084670475C
:1005E00090EA010F1CBF0020704712F07F4F04D12A
:1005F000400028BF40F00040704712F100723CBF3D
:1006000000F50000704700F0004343F0FE4040F466
:10061000000070477FEA226216BF08467FEA236324
:100620000146420206BF5FEA412390EA010F40F40F
:10063000800070474FF0000304E000BF10F000435B
:1006400048BF40425FEA000C08BF704743F0964342
:1006500001464FF000001CE050EA010208BF70475D
:100660004FF000030AE000BF50EA010208BF7047E4
:1006700011F0004302D5404261EB41015FEA010CF9
:1006800002BF84460146002043F0B64308BFA3F1F1
:100690008053A3F50003BCFA8CF2083AA3EBC253D3
:1006A00010DB01FA02FC634400FA02FCC2F12002F2
:1006B000BCF1004F20FA02F243EB020008BF20F029
:1006C0000100704702F1200201FA02FCC2F120028F
:1006D00050EA4C0021FA02F243EB020008BF20EA84
:1006E000DC7070474FF0FF0C1CEAD0521EBF1CEAB2
:1006F000D15392EA0C0F93EA0C0F6FD01A4480EAA0
:10070000010C400218BF5FEA41211ED04FF0006388
:1007100043EA501043EA5111A0FB01310CF00040B4
:10072000B1F5000F3EBF490041EAD3715B0040EADA
:10073000010062F17F02FD2A1DD8B3F1004F40EBAA
:10074000C25008BF20F00100704790F0000F0CF07D
:10075000004C08BF49024CEA502040EA51207F3A41
:10076000C2BFD2F1FF0340EAC250704740F400001C
:100770004FF00003013A5DDC12F1190FDCBF00F00D
:1007800000407047C2F10002410021FA02F1C2F1BB
:10079000200200FA02FC5FEA310040F1000053EA57
:1007A0004C0308BF20EADC70704792F0000F00F0A5
:1007B000004C02BF400010F4000F013AF9D040EAAB
:1007C0000C0093F0000F01F0004C02BF490011F43F
:1007D000000F013BF9D041EA0C018FE70CEAD1533D
:1007E00092EA0C0F18BF93EA0C0F0AD030F0004CBD
:1007F00018BF31F0004CD8D180EA010000F0004071
:10080000704790F0000F17BF90F0004F084691F02E
:10081000000F91F0004F14D092EA0C0F01D1420268
:100820000FD193EA0C0F03D14B0218BF084608D131
:1008300080EA010000F0004040F0FE4040F400007B
:10084000704740F0FE4040F4400070474FF0FF0C0E
:100850001CEAD0521EBF1CEAD15392EA0C0F93EA55
:100860000C0F69D0A2EB030280EA010C49024FEAA7
:10087000402037D04FF0805343EA111143EA101360
:100880000CF000408B4238BF5B0042F17D024FF418
:10089000000C8B4224BF5B1A40EA0C00B3EB510FF3
:1008A00024BFA3EB510340EA5C00B3EB910F24BFDC
:1008B000A3EB910340EA9C00B3EBD10F24BFA3EB61
:1008C000D10340EADC001B0118BF5FEA1C1CE0D129
:1008D000FD2A3FF650AF8B4240EBC25008BF20F0DC
:1008E000010070470CF0004C4CEA50207F32C2BF30
:1008F000D2F1FF0340EAC250704740F400004FF0CD
:100900000003013A37E792F0000F00F0004C02BFFD
:10091000400010F4000F013AF9D040EA0C0093F0C7
:10092000000F01F0004C02BF490011F4000F013B21
:10093000F9D041EA0C0195E70CEAD15392EA0C0F89
:1009400008D142027FF47DAF93EA0C0F7FF470AFC1
:10095000084676E793EA0C0F04D14B023FF44CAF04
:1009600008466EE730F0004C18BF31F0004CCAD199
:1009700030F000427FF45CAF31F000437FF43CAFD5
:100980005FE700BF4FF0FF3C06E000BF4FF0010CF7
:1009900002E000BF4FF0010C4DF804CD4FEA4002D9
:1009A0004FEA41037FEA226C18BF7FEA236C11D023
:1009B00001B052EA530C18BF90EA010F58BFB2EBD6
:1009C000030088BFC81738BF6FEAE17018BF40F056
:1009D000010070477FEA226C02D15FEA402C05D10A
:1009E0007FEA236CE4D15FEA412CE1D05DF8040B8F
:1009F000704700BF844608466146FFE70FB5FFF722
:100A0000C9FF002848BF10F1000F0FBD4DF808EDD9
:100A1000FFF7F4FF0CBF012000205DF808FB00BFCA
:100A20004DF808EDFFF7EAFF34BF012000205DF824
:100A300008FB00BF4DF808EDFFF7E0FF94BF012071
:100A400000205DF808FB00BF4DF808EDFFF7D2FF6E
:100A500094BF012000205DF808FB00BF4DF808EDB1
:100A6000FFF7C8FF34BF012000205DF808FB00BF7E
:100A70004FEA4002B2F1FE4F0FD34FF09E03B3EBAB
:100A800012620DD94FEA002343F0004310F0004FEB
:100A900023FA02F018BF404270474FF00000704741
:100AA00012F1610F01D1420205D110F0004008BFE0
:100AB0006FF0004070474FF00000704742000ED2C8
:100AC000B2F1FE4F0BD34FF09E03B3EB126209D489
:100AD0004FEA002343F0004323FA02F070474FF03F
:100AE0000000704712F1610F01D1420202D14FF0B4
:100AF000FF3070474FF00000704700BF4FEA4002E0
:100B00004FEA41037FEA226C02D15FEA402C08D110
:100B10007FEA236C02D15FEA412C02D14FF0000042
:100B200070474FF001007047034613F8012B002A6D
:100B3000FBD1181A0138704770B54FF0FF0C4CF418
:100B4000E06C1CEA11541DBF1CEA135594EA0C0F0B
:100B500095EA0C0F00F0DEF82C4481EA030621EA46
:100B60004C5123EA4C5350EA013518BF52EA033581
:100B700041F4801143F4801338D0A0FB02CE4FF033
:100B80000005E1FB02E506F00042E0FB03E54FF063
:100B90000006E1FB03569CF0000F18BF4EF0010E5B
:100BA000A4F1FF04B6F5007F64F5407404D25FEA57
:100BB0004E0E6D4146EB060642EAC62141EA55510A
:100BC0004FEAC52040EA5E504FEACE2EB4F1FD0C4C
:100BD00088BFBCF5E06F1ED8BEF1004F08BF5FEACA
:100BE000500E50F1000041EB045170BD06F000467C
:100BF00046EA010140EA020081EA0301B4EB5C0429
:100C0000C2BFD4EB0C0541EA045170BD41F4801120
:100C10004FF0000E013C00F3AB8014F1360FDEBF45
:100C2000002001F0004170BDC4F10004203C35DA21
:100C30000C341BDC04F11404C4F1200500FA05F3A4
:100C400020FA04F001FA05F240EA020001F0004245
:100C500021F0004110EBD37021FA04F642EB0601BB
:100C60005EEA430E08BF20EAD37070BDC4F10C04E5
:100C7000C4F1200500FA04F320FA05F001FA04F2A9
:100C800040EA020001F0004110EBD37041F1000195
:100C90005EEA430E08BF20EAD37070BDC4F12005A0
:100CA00000FA05F24EEA020E20FA04F301FA05F208
:100CB00043EA020321FA04F001F0004121FA04F2B0
:100CC00020EA020000EBD3705EEA430E08BF20EA80
:100CD000D37070BD94F0000F0FD101F000464000BA
:100CE00041EB010111F4801F08BF013CF7D041EA3C
:100CF000060195F0000F18BF704703F00046520040
:100D000043EB030313F4801F08BF013DF7D043EA10
:100D10000603704794EA0C0F0CEA135518BF95EAC6
:100D20000C0F0CD050EA410618BF52EA4306D1D14D
:100D300081EA030101F000414FF0000070BD50EA6C
:100D4000410606BF1046194652EA430619D094EAF6
:100D50000C0F02D150EA013613D195EA0C0F05D1E0
:100D600052EA03361CBF104619460AD181EA030134
:100D700001F0004141F0FE4141F470014FF00000EC
:100D800070BD41F0FE4141F4780170BD70B54FF087
:100D9000FF0C4CF4E06C1CEA11541DBF1CEA135507
:100DA00094EA0C0F95EA0C0F00F0A7F8A4EB0504E9
:100DB00081EA030E52EA03354FEA013100F08880E0
:100DC0004FEA03334FF0805545EA131343EA1263A9
:100DD0004FEA022245EA111545EA10654FEA00265E
:100DE0000EF000419D4208BF964244F1FD0404F517
:100DF000407402D25B084FEA3202B61A65EB030573
:100E00005B084FEA32024FF480104FF4002CB6EB2F
:100E1000020E75EB030E22BFB61A754640EA0C00AF
:100E20005B084FEA3202B6EB020E75EB030E22BFEF
:100E3000B61A754640EA5C005B084FEA3202B6EB30
:100E4000020E75EB030E22BFB61A754640EA9C00EF
:100E50005B084FEA3202B6EB020E75EB030E22BFBF
:100E6000B61A754640EADC0055EA060E18D04FEA7D
:100E7000051545EA16754FEA06164FEAC30343EA1D
:100E800052734FEAC2025FEA1C1CC0D111F4801FEA
:100E90000BD141EA00014FF000004FF0004CB6E7E3
:100EA00011F4801F04BF01430020B4F1FD0C88BF82
:100EB000BCF5E06F3FF6AFAEB5EB030C04BFB6EB8D
:100EC000020C5FEA500C50F1000041EB045170BD80
:100ED0000EF0004E4EEA113114EB5C04C2BFD4EBAD
:100EE0000C0541EA045170BD41F480114FF0000E31
:100EF000013C90E645EA060E8DE60CEA135594EAAD
:100F00000C0F08BF95EA0C0F3FF43BAF94EA0C0FAF
:100F10000AD150EA01347FF434AF95EA0C0F7FF424
:100F200025AF104619462CE795EA0C0F06D152EA78
:100F300003353FF4FDAE1046194622E750EA41065C
:100F400018BF52EA43067FF4C5AE50EA41047FF46D
:100F50000DAF52EA43057FF4EBAE12E74FF0FF3CD2
:100F600006E000BF4FF0010C02E000BF4FF0010CA3
:100F70004DF804CD4FEA410C7FEA6C5C4FEA430C1C
:100F800018BF7FEA6C5C1BD001B050EA410C0CBF6B
:100F900052EA430C91EA030F02BF90EA020F0020CD
:100FA000704710F1000F91EA030F58BF994208BF34
:100FB00090422CBFD8176FEAE37040F001007047F1
:100FC0004FEA410C7FEA6C5C02D150EA013C07D148
:100FD0004FEA430C7FEA6C5CD6D152EA033CD3D093
:100FE0005DF8040B704700BF8446104662468C468D
:100FF0001946634600E000BF01B5FFF7B7FF0028C0
:1010000048BF10F1000F01BD4DF808EDFFF7F4FFE8
:101010000CBF012000205DF808FB00BF4DF808ED73
:10102000FFF7EAFF34BF012000205DF808FB00BF96
:101030004DF808EDFFF7E0FF94BF012000205DF8B8
:1010400008FB00BF4DF808EDFFF7CEFF94BF01206D
:1010500000205DF808FB00BF4DF808EDFFF7C4FF66
:1010600034BF012000205DF808FB00BF4FEA410CAF
:101070007FEA6C5C02D150EA013C0AD14FEA430C92
:101080007FEA6C5C02D152EA033C02D14FF00000CF
:1010900070474FF0010070474FEA410212F500120D
:1010A00015D211D56FF47873B3EB625212D94FEAAF
:1010B000C12343F0004343EA505311F0004F23FA99
:1010C00002F018BF404270474FF00000704750EAEE
:1010D000013005D111F0004008BF6FF000407047AB
:1010E0004FF00000704700BF38B50E4B054618782A
:1010F0004FF47A73B3FBF0F30B4A1068B0FBF3F0D4
:1011000000F098F8044658B90F2D09D80246294630
:101110004FF0FF3000F05CF82046044B1D6038BDF6
:101120000120FCE700000020240000200400002033
:10113000074A08B51368032043F01003136000F05A
:1011400035F80F20FFF7D0FF02F0FCFC002008BDAF
:1011500000200240034A044B11681B780B441360C3
:10116000704700BF1402002000000020014B1868E7
:10117000704700BF1402002038B50446FFF7F6FFA1
:101180000546631C1EBF044B1B78E418FFF7EEFFF7
:10119000431BA342FAD338BD000000204FF0E022E9
:1011A000136923F00203136170470000074903022B
:1011B000CA6803F4E06322F4E0621204120C1343E1
:1011C00043F0BF6343F40033CB60704700ED00E0B1
:1011D000164B30B5DC68C4F30224C4F10703251DA7
:1011E000042B28BF0423062D4FF0FF3598BF0024A1
:1011F00005FA03F388BF033C21EA0303A34005FA81
:1012000004F422EA0402002843EA0203ACBF00F11E
:101210006040074A4FEA0313DBB2ABBF00F5614001
:1012200000F00F0080F80033135430BD00ED00E0F3
:1012300014ED00E00138B0F1807F0BD24FF0E023D5
:10124000F021054A586182F8231000200722986196
:101250001A6170470120704700ED00E0114AD36821
:1012600013F0100305D01049CB6943F00203CB61A2
:101270001023D268500706D50B4943F00403CA690E
:1012800042F00102CA61074AD169C90708D5064878
:10129000C16941F00401C161D16921F00101D1614D
:1012A000D36070470020024018020020064B1869E6
:1012B00010F0800007D0054A5A6002F188325A6067
:1012C0001869C0F3C0107047002002402301674531
:1012D000034A0020136943F080031361704700BF85
:1012E0000020024070B50546FFF740FF0646114C4E
:1012F000E368D80712D4E368990644BF2023E3606B
:10130000E368DA0606D4E369DB0703D4E06810F08B
:10131000040007D0FFF7A2FF012003E06B1CE7D019
:101320000DB9032070BDFFF721FF801BA842DFD954
:10133000F7E700BF002002402DE9F84FDFF890905A
:101340001E4699F818300446012B0F4690463DD0B2
:1013500001234CF2503089F81830FFF7C3FF80BBEF
:10136000012C03D0022C0CBF022404240025AB4620
:10137000DFF860A02801C0F12002A0F1200306FAE6
:1013800002F228FA00F0C9F81CB0104326FA03F361
:101390001843DAF8103080B243F00103CAF8103075
:1013A00027F815004CF25030FFF79CFFDAF81030A8
:1013B00023F00103CAF8103018B90135EBB29C4292
:1013C000D8D8002389F81830BDE8F88F0220FBE751
:1013D00018020020002002400022064BDA61064B72
:1013E0001A6942F002021A6158611A6942F0400219
:1013F0001A61704718020020002002402DE9F041D8
:10140000264F05463B7E8846012B44D001243C767E
:1014100003684CF25030022B1AD1FFF763FF20B162
:10142000012000233B76BDE8F0811D4CF861236963
:101430004CF2503043F004032361236943F040032E
:101440002361FFF74FFF236923F004032361E8E7DB
:10145000FFF748FF0028E3D14FF0FF33C8F8003012
:101460002046AE680E4CD5E9023203EB8223B3422C
:10147000D7D93046FFF7B0FF4CF25030FFF732FFBC
:10148000236923F00203236110B1C8F80060C8E7A4
:1014900006F58066E7E70220C5E700BF18020020D6
:1014A0000020024003460C4A0C48926880681043B2
:1014B00010F001020DD1086830B1596821F4702193
:1014C00008435860104670475A6822F470225A60E8
:1014D00070470120704700BF0024014000280140F0
:1014E0000246806810B510F001000CD153684C68BA
:1014F00023F48073234353609368096823F40063E3
:101500000B43936010BD0120FCE7836810B5DB0737
:101510001BD443684A6823F4684312B18C681343B0
:101520002343436083680C6823F4602323F48173AE
:101530002343CC68096923430B438360C36A23F4C4
:1015400070031343C362002010BD0120FCE72DE9A6
:10155000F04F0D680446C5F30F2595FAA5F2032751
:10156000B2FA82F24FF0040C4FF0011E40F2011863
:1015700035FA02F001D1BDE8F08F012393402B42F0
:1015800066D0072A88BFA2F10803D1F804A08ABF59
:101590000EFA03F308FA02F343F08063BAF1080F7E
:1015A0000CD1E668180A90FAA0F9B9FA89F926EA86
:1015B0000006086900FA09F00643E6604FEA13697D
:1015C00093FAA3F6B6FA86F693FAA3FB0F20BBFABA
:1015D0008BFBB60000FA06F654F809004FEA8B0BB5
:1015E00020EA06060AFA0BFB46EA0B0644F80960F5
:1015F000486820F0080001282AD193FAA3F0B0FA35
:1016000080F093FAA3FBBBFA8BFB800007FA00F093
:1016100026EA000688684FEA8B0B00FA0BFB46EAC5
:101620000B0644F8096093FAA3FABAFA8AFA93FA15
:10163000A3F3B3FA83F34FEA8A0A0CFA0AFA26EA0A
:101640000A0ACE689B009E404AEA060644F80960F2
:1016500001328DE7034B044A5B68C3F30313D35C89
:10166000D84070470010024030CE0008034B044AB7
:101670005B68C3F30223D35CD8407047001002407C
:1016800040CE0008034B044A5B68C3F3C223D35C1B
:10169000D84070470010024040CE0008094A536805
:1016A000DB0341BF5068084BC0F34040013048BFE6
:1016B000B3FBF0F0536858BF0448C3F383430233CD
:1016C000584370470010024000127A0000093D00A4
:1016D000044B5B6803F00C03082B01D1FFF7DEBF5E
:1016E000014870470010024000127A0008B5014618
:1016F000FFF7EEFF0860FFF7ADFF4860FFF7B6FFAA
:1017000088604868FFF7BEFFC86008BD1A4A0368D2
:1017100090420AD0B0F1804F07D0A2F594329042A7
:1017200003D002F58062904215D14A6823F070031D
:101730001343114A90420AD0B0F1804F07D0A2F56E
:101740009432904203D002F58062904203D1CA687D
:1017500023F44073134303608B68C3620B88836276
:10176000054B984204BF0B690363436943F00103CF
:1017700043610020704700BF002C014030B5C368B2
:1017800004469B040D4685B002D5012005B030BD4E
:101790004B68C968C2680B43296922F4B0520B43F5
:1017A00022F00C021343C3600369AA6823F4405378
:1017B0001343036143696A6923F44073134343612C
:1017C0006846FFF793FF134B9C4219D1039B002BF4
:1017D000DBD02A68002AD8D019214B439200B3FBF2
:1017E000F2F36422B3FBF2F102FB11331B0132333B
:1017F000B3FBF2F303EB01139BB20020A360C5E738
:10180000054B9C4201D1029BE1E7044B9C42BCD1B9
:10181000F9E700BF003801400044004000480040A4
:101820004FF47A73B0FBF3F000224FF0E02301385D
:1018300058619A6105221A6170474FF0E0231B69D5
:1018400082B00193019B4FF0E023411C18BF01308F
:1018500008B902B070471A69D20348BF00F1FF30DF
:10186000F6E70000014B1860704700BF240000201D
:1018700030B50E480278BAB941F221050C4C082166
:1018800013029BB213F4004F4FEA430318BF6B409F
:1018900001399BB2F6D1013292B2B2F5807F24F8C1
:1018A000023BECD10123037030BD00BF380400209F
:1018B0003802002070B50D4B04461B780D461646C5
:1018C0000BB9FFF7D5FF29462046094A2E44731A63
:1018D000002B00DC70BD11F8013B83EA102332F8C5
:1018E000133083EA002080B2F1E700BF3804002003
:1018F00038020020104BD3F8FC2022F08072C3F88D
:10190000FC20D3F8FC2042F08072C3F8FC20A3F541
:101910005D431A6822F001021A601A6842F001025F
:101920001A6000225A6000BF00BF00BF5868B0FABA
:1019300080F04009704700BF00ED00E082B00A4926
:1019400001904868019B6BB1084A019B1268A3FB98
:1019500002329B0A43EA825301934B68019A1B1A95
:101960009342FAD302B07047001000E02400002038
:10197000054B82B09A6902439A619B6918400190B5
:10198000019B02B0704700BF0010024008B5096813
:101990000068FEF79DFDFFF76BF808BD064B82B0AF
:1019A0005A6942F001025A615B6903F00103019335
:1019B000019B02B0704700BF001002404FF0007260
:1019C00070B592FAA2F3B3FA83F30C30DA4050F810
:1019D00022404FF0F87301F0F87193FAA3F5B5FACD
:1019E00085F593FAA3F3B3FA83F3072621FA05F5F5
:1019F000D940062306FA05F524EA050403FA01F1A5
:101A0000214340F8221070BD00F00700C0F107022A
:101A1000031D042A28BF0422062B4FF0FF3398BF72
:101A2000002003FA02F388BF033821EA030101FA18
:101A300000F0704772B6BFF34F8F2022074B1A6138
:101A4000BFF34F8F0649074BCA6802F4E0621343A5
:101A5000CB60BFF34F8F00BFFDE700BF0008014020
:101A600000ED00E00400FA05044608B572B6BFF3C5
:101A70004F8F68B1192838BF19242026064D0A2037
:101A80002E61FFF75BFF20466E61FFF757FFF6E719
:101A90004FF49674F1E700BF0008014038B50D46D9
:101AA000044628B1FFF740F8002325542044437032
:101AB000204638BD70B5044678B1FFF735F860B1FF
:101AC000214600230D4611F8012B2D2A14D0303A5F
:101AD000092A27D901339842F4D170BD002DFCD0DA
:101AE0009842FAD9E25C202A04D02D22234403F83C
:101AF000012CF2E70133F3E79842EED920222A7055
:101B0000012501332026E2180138111B8842E5D94E
:101B100011783029E2D1517830390929DED802F81C
:101B2000016BF2E79842D8D90025EBE770B504467F
:101B300038B32E2106F00AFB18B32046FEF7F4FF57
:101B4000F8B1451EEDB1635D303B092B01D9013D74
:101B5000F8E72B46691CE25C302A01D1013BFAD13F
:101B6000E25C2E2A08BF03F1FF335E1CB14208D9A4
:101B7000421C521B2144A0191A44BDE8704005F0D4
:101B8000E3BB70BD002808BFC820074A10B5116824
:101B9000064C636CDB0705D513685B1A834201D2E0
:101BA00030BFF6E710BD00BF342600200000024021
:101BB00010B50446C8B1C1B1104BDB689B0417D502
:101BC0000F4A506C10F0010015D10E4B1465D36410
:101BD000936C1B0C1B040B4393644FF480535360B2
:101BE000536C43F00103536410BD4FF0FF30FBE72B
:101BF0006FF00100F8E76FF00200F5E700380140F0
:101C0000000002400438014010B514460846114651
:101C1000FFF7CEFF0020FFF7B5FF204610BD000004
:101C200008B51948FFF762FD1849194B0A68C2F355
:101C30000B021A600A68120C5A60164A126812786F
:101C40009A60154AB2F8E0178902D960D2F8E8170D
:101C50001961D2F8EC175961D2F8F0279A610F4A4E
:101C60001168090ED9611168C1F303511962116835
:101C7000C1F30B115962116801F00F0199621268EA
:101C8000C2F30342DA6208BD501F0020002004E0C6
:101C9000581E00200800002000F0FF1F00ED00E0AB
:101CA00002284FF08002084B08D003280AD04021B8
:101CB000012814BF5A611A61196170475A614022A4
:101CC0005A6170471A61FAE700080140002310B515
:101CD00086B0CDE90133039304230C4ACDE90423F4
:101CE000FFF7E4FA78B901A902A8FFF787FB0446D9
:101CF00028B1FFF7EDFA6FF0010006B010BDFFF755
:101D0000E7FA2046F9E74FF0FF30F6E700F0000869
:101D10002DE9F0470026144CDFF85080144DDFF811
:101D2000549004F58C7747451BD84FF48C722146AC
:101D30000F4805F0FBFA2B684B450DD100204FF4FE
:101D40008C722946B5F816A185F8160185F8170199
:101D5000FFF7B0FD824501D0271D344626463C469C
:101D6000DFE73046BDE8F08700F00008000001081A
:101D7000390400206219961908B5FFF7C9FF01461A
:101D800030B14FF48C72044805F0D0FA002008BD41
:101D90004FF0FF30FBE700BF78240020042370B52C
:101DA0004B4A86B0CDE9042362234A4E6FF06902A4
:101DB000002033701923B27031464FF48C72CDE994
:101DC000020001907370F37086F8160186F817010F
:101DD000FFF770FDA6F81601FFF768FA002873D127
:101DE000FFF796FF0446002845D04FF48C72314629
:101DF00005F08CFA054620B9FFF76AFA284606B0C6
:101E000070BD354B04F50C729A422AD804F58C74D7
:101E1000224600234FF6FF702F4D118889B2814270
:101E20002DD10233B3F58C7F27D300250023012069
:101E3000725B6119FFF780FAB0BB0235B5F58C7F94
:101E4000F4D12A462046234905F060FA0546A0B39E
:101E500001A902A8FFF7D2FA6FF00405FFF738FADC
:101E6000CCE701A902A8FFF7C9FA20B1FFF730FAC1
:101E70006FF00105C2E7164CCAE70232CDE704F560
:101E80000C73AB4204D804F58C7422460023C4E7DB
:101E900001A902A8FFF7B2FA20B1FFF719FA6FF013
:101EA0000205ABE70A4CC0E701A902A8FFF7A6FAB2
:101EB0006FF00305FFF70CFAA0E7FFF709FA4FF000
:101EC000FF32064B1A6099E74FF0FF3596E700BFE7
:101ED00000F0000878240020000001082000002005
:101EE0002DE9F0474FF000080546894617461E4683
:101EF00092464446BAF1000F0FD020467168FEF7B3
:101F0000F1FB59F8041BFEF7E5FA4146FEF7E0FA4B
:101F1000A0460AF1FF3A0446ECE73846FEF78AFB92
:101F200001464FF08040FEF791FC0746F1682046DD
:101F3000FEF7D8FB4146FEF7CBFA3946FEF7D2FB57
:101F4000B168804604F10040FEF7CCFB3946FEF74D
:101F5000C9FBC5F8008068602846BDE8F08700002E
:101F60002DE9F04F85B0029018469A46CDE900124F
:101F7000FEF760FB01464FF08040FEF767FC00254E
:101F800007464FF0000B009B04330393019B9D42D7
:101F900042D02E465446D846D946ACB10E9B484650
:101FA0005968FEF79FFB029B013C53F82610FEF791
:101FB00091FA4146FEF78CFA019B0136C846B342BE
:101FC00098BF00268146E8E70E9B09F1004099681A
:101FD000FEF788FB3946FEF785FB0E9B0646D9685F
:101FE0004846FEF77FFB4146FEF772FA3946FEF798
:101FF00079FB009B43F83500039B43F835601822BA
:10200000094B02FB0433DA6852B91B7D43B9013432
:10201000032CF4D10135B9E7002005B0BDE8F08FFD
:102020004FF0FF30F9E700BF841D0020F8B50E46E1
:1020300004460A493046FEF755FB074604F000F80F
:102040000546384604F074F82946074626602846B7
:10205000FEF740FAE5606060A760F8BDDB0FC9409D
:10206000F8B5046805460F4620460021FEF7D8FC67
:1020700024F0004400287049204614BF4FF0FF367A
:102080000126FEF7CDFC98B16621384606F05EF8D1
:1020900070B16A492046FEF725FB04463046FEF73C
:1020A000CDFA01462046FEF71DFB28606620F8BDEC
:1020B00020466349FEF7B4FC98B17021384606F01B
:1020C00045F870B15F492046FEF70CFB04463046E8
:1020D000FEF7B4FA01462046FEF704FB28607020A4
:1020E000E5E720465849FEF79BFC98B16E2138463B
:1020F00006F02CF870B155492046FEF7F3FA044675
:102100003046FEF79BFA01462046FEF7EBFA2860C0
:102110006E20CCE720464E49FEF782FC98B175212F
:10212000384606F013F870B14A492046FEF7DAFA4D
:1021300004463046FEF782FA01462046FEF7D2FA00
:1021400028607520B3E74FF07E512046FEF768FC0B
:1021500098B16D21384605F0F9FF70B13E4920462F
:10216000FEF7C0FA04463046FEF768FA01462046FC
:10217000FEF7B8FA28606D2099E720463649FEF749
:102180004FFC002856D120463249FEF749FC98B151
:102190006B21384605F0DAFF70B12D492046FEF775
:1021A000A1FA04463046FEF749FA01462046FEF7FA
:1021B00099FA28606B207AE720462449FEF730FC24
:1021C00098B14D21384605F0C1FF70B11E49204637
:1021D000FEF788FA04463046FEF730FA01462046FC
:1021E000FEF780FA28604D2061E720461549FEF78A
:1021F00017FC30B14721384605F0A8FF08B1104957
:10220000E5E720460D49FEF70BFC98B1542138460E
:1022100005F09CFF70B108492046FEF763FA0446BA
:102220003046FEF70BFA01462046FEF75BFA2860BF
:1022300054203CE720203AE7CCBC8C2BA95F6358A4
:102240005F708930A5D46853BD378635286B6E4ED4
:102250006F12833A0024744900007A4442F21073EA
:10226000984228BF1846642838BF64202DE9F047FB
:102270002D4E80B23080FEF7DDF92C49FEF7E6FAEC
:1022800003F092FF03F090FF03F08EFF284904460D
:10229000FEF7C6FB002842D14FF07E512046FEF7E4
:1022A000DDFB00283DD120462249FEF71BFA002421
:1022B00005464FF07E584FF07C57DFF87CA0DFF8E2
:1022C0007C902046FEF7B6F94946FEF70BFA03F07C
:1022D0002FFF4146FEF7FEF82946FEF703FA39467E
:1022E000FEF7F8F803F0E4FEFEF7E8FB013460F0D7
:1022F000FF03402C2AF8023BE3D132886AB1104830
:10230000104B816A5B680131B3FBF1F3940103EB7D
:102310004213B3FBF4F3013BC362BDE8F087044C06
:10232000C1E74FF07E54BEE71E00002000007A4453
:10233000CDCC4C3F0000FF4290250020DB0FC93D73
:1023400000040040501F002038B501230024094D2F
:102350002B70094B1C70094B9889FFF77FFF084BC6
:102360002C701C60074B1C70074B1C70074B1C60CB
:1023700038BD00BF100000204C1F00207824002032
:1023800054090020DB3A0020D42A00203C1E002003
:1023900038B501250B4C682200210B48257004F04C
:1023A000EDFF0A4B64201D70FFF758FF0023084A19
:1023B00023701360074A1370074A1370074A1360AB
:1023C00038BD00BF10000020CC1D00204C1F002095
:1023D00054090020DB3A0020D42A00203C1E0020B3
:1023E000012310B50B4C682200210B48237004F028
:1023F000C5FF0222094B64201A70FFF72FFF00234C
:10240000074A23701360074A1370074A1370074A7C
:10241000136010BD10000020CC1D00204C1F0020B8
:1024200054090020DB3A0020D42A00203C1E002062
:102430002DE9FF4104AC04E90300694681E80C0082
:10244000029D009E29463046FEF74CF9039FDDF8B9
:102450000480044641463846FEF744F901462046CA
:10246000FEF738F800210446FEF7D0FAA8B9414635
:102470002846FEF737F9394605463046FEF732F969
:1024800001462846FEF724F8214603F08BFE044956
:10249000FEF728F904B0BDE8F0810248FAE700BF72
:1024A000E02E65420000C07F7FB50C461249FEF762
:1024B00019F9114905462046FEF714F90446284645
:1024C00003F0BEFD0646284603F032FE019020468A
:1024D000009603F0B5FD0546204603F029FE02955F
:1024E000039004AB13E90C00DDE9000104B0BDE882
:1024F0007040FFF79DBF00BF35FA8E3C01232DE9E8
:10250000F04F002600274FF0705B464A464D474C7F
:1025100089B01370464B72081B784BB9022A454BA1
:1025200018D0032A51D0012A14BF9B78DB78A3B1BD
:10253000414B20460093802340491A46FFF710FD87
:10254000002844DA00234FF0FF30364A137009B0F8
:10255000BDE8F08F9B78002BEAD0B846A4F10409BF
:1025600004F5FE7A59F8041F0846FEF7BBF8014649
:102570004046FDF7AFFFD1458046F3D15946FEF7FF
:10258000B1F803F011FE21466860802206A82A4BAC
:10259000FFF7A6FCDDF8188039464046FEF736FA0C
:1025A00000283DD14146079803F0FCFD2449FEF781
:1025B00099F80136082E686204F5007405F10405E7
:1025C000A8D10020174B1870C1E7DB78C3E7B946E4
:1025D00004F5FE72DFF86480231F0392D8F800A090
:1025E000D8F804205146504605930492FEF77AF835
:1025F000049A029011461046FEF774F801460298BC
:10260000FDF768FF01464846FDF764FF059B039A06
:1026100043F804AF9342814608F10808DED1ADE7E4
:102620000848C6E7D42A0020382600205809002090
:102630004C1F002058190020441E0020D4260020E2
:10264000E02E65420000C07F2DE9F04F00240027F6
:1026500025462646B946314B87B01B78CDE90201A5
:1026600001932F4BDFF8BC809A78DFF8BCB0DB78A1
:10267000019949BB7908022948D0032949D0012989
:1026800020D00ABB0237082F08F10808F0D14846CD
:10269000FDF7D0FF01463046FEF7D8F8029B002137
:1026A00018602846FEF7B2F9002835D129462046A1
:1026B00003F078FD1D49FEF715F8039B186007B07D
:1026C000BDE8F08F002BDDD03046D8F80810CDE9FA
:1026D0000432FDF7FFFE59460646D8F82800FEF7FB
:1026E00001F8824603F0ACFC01462846FDF7F2FEF5
:1026F0000546504603F01CFD01462046FDF7EAFE64
:10270000DDE90432044609F10109BBE7002ADBD008
:10271000B8E7002BD8D0B5E70548CEE74C1F00201E
:102720005C1900203826002035FA8E3CE02E6542E8
:102730000000C07F2DE9F04F394B3A4C1D7887B02F
:10274000002D52D12368002B4FDBA146DFF8D88043
:10275000DFF8D8B0236805EB4506D8F800203344ED
:1027600004EB83035A6003AF09F1040393E8070005
:102770005B4687E8070004220321384605F040FB4A
:10278000049B09F1640248F8043B2368D8F81CA0B4
:102790001E4404EB8606C6F864A03B46002652F8A9
:1027A000041B504601930092FFF77EFE0136019B09
:1027B000032E009A43F8040BF1D15B460422314604
:1027C000384605F01DFB51460498FDF783FE0135A0
:1027D000082DC8F81C0009F10C09BBD1236801338E
:1027E000022B00DD0023236017E000230D4A236045
:1027F00011460D4C54F8040B0133082B48608860D7
:1028000041F80C0FF6D10A4850F8041B013B516601
:102810009166D16602F10C02F6D107B0BDE8F08FE7
:10282000401E0020881E00203C2600208D19000834
:102830005C2600200A4610B50146D0B1CAB10D4B46
:102840001B78B3B90C4C23789BB90C4B1B78032B2A
:102850000FD820200A4B18610A4804F067FD0123B5
:102860002370094B1A68D20642BF1A6942F010025F
:102870001A6110BD10000020D42A0020DB3A00208D
:1028800000080140D426002000040140304BF0B580
:102890001B688B4224D3012823D0032824D001288D
:1028A00053D8012600212B4B2B4AB2F900400131AD
:1028B000A4F500651C68802906FB05441C60B2F97C
:1028C000024003F10803A4F5006553F8044C02F13B
:1028D00004022C4443F8044CE7D100221F4B1A5445
:1028E000F0BD4FF0FF36DDE74FF0FF374FF0000C43
:1028F0006546194C1749B4F900300E68A3F500631A
:1029000003FB07F213B262881E440E60A2F5006258
:102910004E6812B232444A60DA439342B8BF13465B
:10292000634538BF63460135802D1FFA83FC04F1EF
:10293000040401F10801DED1084A135CBCF5FA6F0A
:1029400028BF43F001031354CAE70127CEE700BFB5
:102950005409002054050020D42600205C190020D2
:102960002DE9F74F5E4CDFF87C91460004EB8025A3
:102970008046D9F80000731C401A04EB4324FDF78D
:1029800059FE01464FF07E50FDF760FF0027834659
:10299000DFF854A1DAF80000FDF750FE5946FDF7C4
:1029A000A1FE45F82700DAF80400FDF747FE594676
:1029B000FDF798FE44F827000137802F0AF1080A36
:1029C000E8D14A4B1B68032B494B88BF494F93F80A
:1029D00000A0494B98BF494F13F80830002B3BD15A
:1029E000A5F1040843464FF0000B05F5FE7553F8BA
:1029F000041F58460193FDF76DFD019B83469D42E0
:102A0000F5D139464FF07E50FDF762FD3C4B53F84F
:102A10002610FDF767FE4FF0705101905846FDF704
:102A200061FE3946FDF75EFE019A01461046FDF74C
:102A300051FD334B834643F82600324B1B6813B1DC
:102A4000BAF1000F08D058F8040F5946FDF740FDC1
:102A50004545C8F80000F6D1251FAB464FF00008E9
:102A600004F5FE7440465BF8041FFDF733FD5C453A
:102A70008046F7D1DFF888B039464FF07E50FDF739
:102A800027FD5BF82610FDF72DFE4FF070510190E9
:102A90004046FDF727FE3946FDF724FE019B01461F
:102AA0001846FDF717FD174B07461B684BF8260025
:102AB00013B1BAF1000F07D055F8040F3946FDF7EE
:102AC00007FDA5422860F7D14FF480620021064837
:102AD00004F054FC0023C9F8003003B0BDE8F08FC7
:102AE0005809002054090020540500203C1E0020F5
:102AF0004C1F00209A99993E5C1900206666663F3B
:102B000060190020341E00202DE9F04F8C4B87B057
:102B10001B68002B40F0DD818A4B1B78002B40F0B6
:102B2000D881FFF7EBFC0028C0F2D38105A904A8E7
:102B3000FFF78AFD844C049BDFF810A2A360236199
:102B4000A3612362059BA3622363A36323649AF8B2
:102B500000300BB9FFF7EEFD7D4B1B789A00009219
:102B6000039304EB0312009B5268013304EB8301CF
:102B70000193784BD1F804B0774993F800900E6830
:102B800004EB0911C96830460292FDF7ABFD4FEA2C
:102B9000890504EB8505296980463046FDF7A2FDCD
:102BA0006E49074609684FF07E50FDF74FFEDDE99C
:102BB00002230546002B40F08F814FF07E51B9F182
:102BC000000F40F08B814FF07E5910460391FDF7C6
:102BD00089FD0399606402905846FDF783FD4946DC
:102BE000A0644046FDF77EFD49468046E0643846D5
:102BF000FDF778FD029B414620651846FDF726FE4D
:102C00009AF8003080466065002B4FD1544BDFF8B6
:102C100054B11B889BF81190B3F5967F94BF4FF089
:102C2000000A4FF0010A19F00203029300F05881E4
:102C30000BEB8A12D16A30465769FDF753FD2946DE
:102C4000FDF750FD01463846FDF700FE074619F036
:102C5000040F00F047810BEB8A1B2846DBF8A41019
:102C6000FDF740FDDBF89C1005463046FDF73AFDC8
:102C700001462846FDF7EAFD09F00609B9F1060FFD
:102C800040F032814146FDF723FC39460546404677
:102C9000FDF71EFC01462846FDF7D8FD3946FDF735
:102CA00021FD6065636D23F000436365019B04EBC8
:102CB0008302009B516A04EB8303586AFFF7F4FB1D
:102CC000244BA0651B7804EB0312116BD06AFFF74D
:102CD000EBFB0146E065A06DFFF7E6FB224980466D
:102CE0002066FDF7FFFC064603F0AAF9D4F854B0BD
:102CF0005946FDF7F7FC00210546FDF787FE002841
:102D000040F0E780304603F013FA594620F00040C7
:102D1000FDF7E8FC00210646FDF778FE002840F0AC
:102D2000D8800F4B1888FDF789FC1049FDF7DAFCB5
:102D300000218146FDF76AFE002840F0CA8017E0B6
:102D4000341E002010000020382600204C1F0020D8
:102D5000DC3A0020801D0020140000200C00002020
:102D60001E0000207824002035FA8E3CDB0FC9407D
:102D700049463046FDF76AFD314600904846FDF76A
:102D8000B1FC01464FF07E50FDF760FD29460190F1
:102D90002846FDF7A7FC314607463046FDF7A2FC62
:102DA00001463846FDF796FB29468246FDF74EFD63
:102DB000314607465046FDF749FD49468246FDF734
:102DC00045FD514602904846FDF78CFC01464FF008
:102DD0007E50FDF73BFD009B8146A366019B31467B
:102DE00028466366E5662567FDF730FD294660677E
:102DF0003046FDF72BFD029B5146A0673846C4F8CC
:102E00008430E667C4F88090C4F88870C4F88C7089
:102E1000FDF71CFD3946C4F890005046FDF716FD3D
:102E2000464BC4F894001B78C4F898A0002B50D1EE
:102E3000434EB27B032A0BD1404642490393FDF730
:102E4000EFFDDFF804A1002860D0039B8AF8003072
:102E5000F37B022B09D13D4928F00040FDF7E0FD4E
:102E600000285CD000223A4B1A703A490098FDF7CE
:102E7000F5FD08B1374B0093009B00210198A36634
:102E8000FDF7CEFD08B100230193019B284632498E
:102E90006366FDF7E3FD00B12F4D2E490298E5660C
:102EA000FDF7DCFD08B12B4B0293029B0021484645
:102EB000C4F88430FDF7B4FD08B14FF0000938467E
:102EC0002549C4F88090FDF7C9FD00B1224FC4F830
:102ED000887007B0BDE8F08F014670E6A94674E639
:102EE0000027B4E60020C7E6029B002B3FF4DAAED1
:102EF00039464046FDF7F6FB414605463846FDF7A4
:102F0000E7FA01462846FDF7A1FCCAE64046134908
:102F1000FDF7A4FD08B1012398E7022396E7584680
:102F20000C49FDF787FD00289CD158460C49FDF758
:102F30008BFD002899D00122054B95E74C1F0020FE
:102F400078240020000020C01C0000200000A040C9
:102F50001026002000007A4420BCBE4C0000204017
:102F600000401C462DE9F84F4A4B1B785BB9DFF84F
:102F700028A19AF8002032B1484E3278032AD4B200
:102F800003D98AF80030BDE8F88F454FDFF8149177
:102F900017F804806CB9D9F8003053B94046FEF7F1
:102FA0007FFE4FF4806221463F4804F0E7F93F4B33
:102FB0001C600A21DFF8F8B04046BBF800504D43D2
:102FC000CD40012D38BF01252946FFF75FFC0023C6
:102FD000384A8AF800301278BBF80030D901DB0893
:102FE000002A50D1344A1268002A3BD08B0B012BA7
:102FF00038BF01232021314A2B445161D9F80020E8
:1030000001329A42C9F80020BDD30134385DFEF781
:1030100047FE29464046FFF7A3FCE3B2042C337079
:10302000B1D1224D264E29462246304604F06EF993
:10303000003818BF01200022224B18702B682A602C
:1030400013F47F0F14BF114601211F4A33601B0E7A
:1030500011700CBF012200221C4B1A70BDE8F84F02
:10306000FFF752BD114A12F808208AB9B8F1010FD2
:1030700003D8134A4244927852B1154A527CD2077F
:10308000B5D54B0BB3E7094A12F80820002AAED099
:103090000123AFE710000020D42A0020DB3A0020F3
:1030A00058CD000854090020540500205C19002068
:1030B0001E0000204C1F0020341E0020000801408C
:1030C00058190020401E0020DC3A0020801D0020FE
:1030D000782400202DE9F3478146084621F0004876
:1030E00014461D46FDF798F9B9F1030F06460F4641
:1030F00040469DF828A037491BD0B9F1050F45D0AF
:10310000B9F1020F27D1FDF78BFCCDE9006770B153
:10311000314A2946204604F0C5FFBAF1000F02D01B
:103120002046FEF7C7FC204602B0BDE8F0872B4AD8
:10313000EFE7FDF775FC18B1CDE90067284AE8E72D
:1031400040462849FDF76CFCCDE9006708B1264AE6
:10315000DFE7264ADDE7FDF763FC18B1CDE900673C
:10316000234AD6E740461F49FDF75AFC18B1CDE97E
:103170000067204ACDE740461F49FDF751FCCDE9E5
:10318000006708B11D4AC4E71D4AC2E7FDF748FCC5
:1031900018B1CDE900671B4ABBE740461149FDF76E
:1031A0003FFC18B1CDE90067174AB2E74046124923
:1031B000FDF736FC18B1CDE90067144AA9E740468F
:1031C0001349FDF72DFCCDE9006708B1114AA0E7CE
:1031D000114A9EE70000204181C7000888C7000807
:1031E0008FC700080000C84296C700089DC70008A6
:1031F000A4C70008ABC7000800007A44B2C70008A3
:10320000B9C70008C0C70008C7C70008CEC7000874
:1032100000401C46D5C70008DCC7000808B502F00E
:1032200073FD02F01DFC012002F0E8FB02F0F2FB4E
:10323000BDE808404FF44870FEF7FFBA38B50020EB
:1032400002F0DCFB0021284C084602F0C1FC2146BC
:103250000122264802F0AEFC254D264B28469A68EE
:10326000254904F053FF0021042002F0BFFC214651
:103270000122284602F09EFC204A2149284604F0FB
:1032800045FF2846FDF750FC237800215843C0F144
:10329000800080B202F09CFC01222146284602F008
:1032A00089FC0F210D2002F093FC012215491648DC
:1032B00002F080FC2321002002F08AFC012221463A
:1032C000124802F077FC61780020C1F13F0189B219
:1032D00002F07EFC214601220D4802F06BFCBDE8A5
:1032E000384002F097BB00BFA0C40008E3C7000845
:1032F0001126002078240020E8C70008ECC7000849
:10330000F1C7000890C40008F5C70008FFC700080F
:103310000AC8000838B50C4C0C4B0D4D1B680D4A03
:103320002021204604F0BEFE28781C21C0F1800038
:1033300080B202F04DFC29462046012202F03AFC00
:10334000BDE8384002F066BB112600203826002078
:10335000A0C4000818C800082DE9F04FAB4BDFF8F7
:10336000B0921E7889B006EBC6030020039302F0EA
:1033700045FB99F80010A74FA74D002940F0C882DF
:10338000FB7BDFF89882012B00F08180022B75D047
:10339000A349A44A002B08BF11469F4804F0E3FE4E
:1033A0000021084602F014FC012298499A4802F0D4
:1033B00001FC0021304602F019FC9B4B4FF0010943
:1033C0001888FDF737F99949079007A8FEF748FED6
:1033D00004462023904A07990420CDF80090FFF777
:1033E00079FE8D48FEF7A2FB214600248A48FEF7AD
:1033F00055FB86494A46884802F0DCFB7B7C8648C0
:1034000013F0020F14BF4F212D212C70FEF746FB45
:103410007B7C814813F0040F14BF53212D21FEF74C
:103420003DFBA6EBC6008030214680B202F0D0FB07
:103430004A467649784802F0BDFBC6F1200080007C
:10344000214680B202F0C4FB794B7A4C1B681FFA0C
:1034500086FA03B34A466D497748DFF8E0B102F0D7
:10346000A9FB9BF8003098F8002003B3012B35D05E
:10347000012A0CBFD4F88820E26E1DE098F80030D5
:103480003BB16F496F4A012B18BF114685E76E4962
:1034900083E76E4981E7CDF800905F4A216E2023D3
:1034A0000420FFF717FE4A4658495B48D5E7012A32
:1034B0000CBFD4F88420A26E079200212022564827
:1034C000039303F05BFF039B73B1012B1CD0604996
:1034D00007A8FEF7C5FD81466D280BE0012A0CBF49
:1034E000D4F88020626EE7E75A4907A8FEF7B8FDD6
:1034F0008146752811D001230093474A202307995C
:103500000420FFF7E7FD12E0534907A80393FEF7F5
:10351000A7FD70288146039BEED10798FCF77CFF3E
:103520004E4ACDE9000120213B4804F0BBFD1021AB
:10353000002002F04DFB01224949374802F03AFBD6
:103540000121062002F052FB9BF800300BB3012B47
:1035500000F09080B9F1200F08D049462E48FEF7C0
:103560009DFA01223F492C4802F024FB0021032050
:1035700002F03CFB06A905A802F030FB12233A4AF0
:103580000093BDF818100D23BDF8140002F042FBA3
:103590000FE0B9F1200F03D049461F48FEF77EFA2D
:1035A00048211D48FEF77AFA01222E491A4802F0F6
:1035B00001FB00232B702D4B17481B78002B14BFE9
:1035C00048214C21FEF76AFA294B13481B78002B3F
:1035D00014BF48214C21FEF761FACAEB8A30CAEBCE
:1035E00080008030242180B202F0F2FA01220749E3
:1035F000094802F0DFFABB7B032B00F2DD80DFE835
:1036000013F04200D500D700D90000BFA0C40008C5
:103610004C1F0020782400201126002010260020B6
:10362000BCC40008A8C400081E00002043C800084D
:10363000341E00203826002034C800081C0000205A
:10364000B4C40008B8C40008ACC40008B0C4000882
:1036500042C8000841C800083FC8000839C800082F
:1036600098C4000890C4000834CD0008DC3A00205B
:10367000801D0020B9F1200F03D049469A48FEF77B
:103680000DFA46218DE74C232B707B7C964813F076
:10369000010F14BF46212021FEF700FA9248FDF7E2
:1036A00043FA00FB0AF0C0F18000242180B202F04E
:1036B0008FFA01228D498C4802F07CFA9BF8003089
:1036C000012B7BD898F800308949012B0CBFD4F826
:1036D0008C30236F07A80793FEF7C2FC4FF0010B55
:1036E0008246824B002093F80190C9F13F091FFAEE
:1036F00089F9494602F06CFA01227C497D4802F0C2
:1037000059FA2023784A07990320CDF800B0FFF733
:10371000E1FC7548FEF70AFA5146734826FA0BFA9F
:10372000FEF7BCF90021504602F060FA5A466F4994
:103730006D4802F03FFA98F800306F495B450CBFC6
:10374000D4F89430A36F07A80793FEF789FC4FF0D5
:1037500001080446494606EBC60002F039FA012288
:103760006249664802F026FA20235F4A079903203F
:10377000CDF80080FFF7AEFC5B48FEF7D7F9214695
:103780005948FEF78BF90021504602F02FFA01222A
:103790005649554802F00EFA3B7C032B00F2A581F6
:1037A000DFE813F07D019D019F01A10143236BE739
:1037B000522369E7412367E73F2365E7D4F8609028
:1037C0004F4929F00040FDF72BF938B37B7C13F00B
:1037D000010F14BF102204224A4B1B681A4223D146
:1037E00098F800304849012B0CBFD4F88030636E44
:1037F00007A80793FEF734FC0123814600930420B9
:103800002023394A0799FFF765FCB9F1200F03D04F
:1038100049463548FEF742F9462122E00021484654
:10382000FDF7FEF80028DBD098F800303749012B6F
:103830000CBFD4F88430A36E07A80793FEF710FCE2
:1038400001238146009304202023274A0799FFF78C
:1038500041FCB9F1200F03D049462348FEF71EF979
:1038600048212148FEF71AF91F48FEF75FF91F4B60
:10387000002093F80190C9F13F091FFA89F94946E0
:1038800002F0A6F901221949174802F093F998F8B5
:1038900000301949012B0CBFD4F89430A36F07A84E
:1038A0000793FEF7DDFB4FF001080446494606EB9F
:1038B000C60002F08DF901220C49104802F07AF995
:1038C0002023094A07990320CDF80080FFF702FC66
:1038D0000548FEF72BF921460348FEF7DFF80021E3
:1038E00026FA08F051E700BF11260020A0C4000806
:1038F00042C8000847C8000843C800084BC8000871
:10390000000020403C1E00203FC8000841C80008BD
:103910004B1E012B3FF640AF784B79485B68794AE4
:10392000C3F10303012908BF02462021284604F001
:10393000B9FB0021744C084602F04AF97349012290
:10394000284602F037F9D4F8448000214046FDF7BC
:103950007BF808B94FF00008E46C00212046CDF850
:103960001480FDF771F800B9002499F8003006942E
:10397000012B40F0848040466549FDF751F800284E
:1039800040F0B58020466349FDF768F8002840F014
:10399000AE80614B1888FCF74DFE6049079007A880
:1039A000FEF75EFB0123044607995D4A009304205D
:1039B0002023FFF78FFB5A48FEF7B8F821465848F6
:1039C000FEF76CF8514C00206178083102F000F9E4
:1039D00001222146524802F0EDF8524905A8FEF7AF
:1039E0003FFB514B80465C780020C4F13F04A4B2F9
:1039F000214602F0EDF801224B494C4802F0DAF87A
:103A0000012303200093464A20230599FFF762FB18
:103A1000B8F1200F03D041464148FEF73FF8404837
:103A2000FEF784F80021042002F0E0F801223E496C
:103A30003B4802F0BFF83E4906A8FEF711FB2146BD
:103A4000804606EBC60002F0C3F801223649394829
:103A500002F0B0F8012303200093314A2023069995
:103A6000FFF738FBB8F1200F03D041462C48FEF792
:103A700015F82B48FEF75AF80021042085E6404649
:103A80002D49FCF7EBFF38B94FF07E512046FCF78B
:103A9000C7FF00283FF47DAFFEF7A2FC29E02023FA
:103AA0002B7000231E486B70FDF73EF81E4B7043D1
:103AB0005978C0F18100C1F13F0189B280B202F0B2
:103AC00087F801221849164802F074F801F0A2FFA5
:103AD0001A4A13680133136009B0BDE8F08F41231F
:103AE000DEE74223DCE74423DAE74523D8E7FEF7A5
:103AF0004FFC13490A4804F036FB63E7CC1D002055
:103B00001BC8000827C800083826002090C40008F9
:103B10000000614417B751381E00002043C8000858
:103B20001126002042C80008A0C4000859C8000897
:103B300041C800085BC80008CDCCCC3E381E002030
:103B40004DC8000870470000314A10B5136823F0D3
:103B5000070343F002031360136803F00703022B0B
:103B6000FAD12C4C236843F48033236023689903F3
:103B7000FCD5636A43F001036362636A9A07FCD56C
:103B8000636823F47C1343F4E8136360236843F011
:103B90008073236023689B01FCD5636823F0F003E6
:103BA0006360636823F4E06343F480636360636885
:103BB00023F460536360636823F0030343F002035C
:103BC0006360636803F00C03082BFAD11248FDF719
:103BD00049FE636823F4404343F400436360FDF708
:103BE000DDFA0E4B0E4C1868FDF71AFEE068042152
:103BF000C0F30220FDF708FF4FF0E0220001C0B241
:103C000084F82300136943F00203136110BD00BF61
:103C1000002002400010024000A24A0424000020BC
:103C200000ED00E008B5134B05211A6822F01002E0
:103C30001A60DA6822F01002DA609A6822F0100244
:103C40009A605A6822F010025A6010225A611A686B
:103C500042F010021A60084BD868C0F30220FDF74A
:103C6000D3FE4FF48062054B0001C0B283F80A0313
:103C70001A6008BD0004014000ED00E000E100E032
:103C80002DE9F041964A86B01368042023F0010321
:103C90001360FDF76DFE4FF40070FDF769FE40F212
:103CA000011393FAA3F2B2FA82F293FAA3F340F269
:103CB000022191FAA1F3B3FA83F391FAA1F10F2152
:103CC00088489B00920001FA02F201FA03F31343C1
:103CD000D0F80028844C22EA0303C0F80038A36817
:103CE000824D23F00103A360AB68032123F001039D
:103CF000AB60FDF753FE7E4B00269A684FF4407789
:103D000022F001029A609A6822F4804222F01002A6
:103D10009A609A6822F4405242F400529A609A687B
:103D200042F020029A609A6822F040029A609A68F3
:103D300042F080029A609A6822F4407242F4007263
:103D40009A609A6822F4406242F400629A60694A7A
:103D50001A61694A5A61DA68120C120442F48072DC
:103D6000DA6001225A609A6842F008029A609A6802
:103D700042F004029A609A6842F002029A605F4B35
:103D8000D868C0F30220FDF73FFE4FF400625C4BA1
:103D90000001C0B283F80B0301A91A602046CDE9E7
:103DA0000166FDF79DFB4FF4803301A92046019386
:103DB000FDF778FB4FF4002301934FF48073204606
:103DC00001A9CDE9026604960593FDF79EFB97FADB
:103DD000A7F34FF40078B3FA83F34A4928FA03F3C0
:103DE00051F82320204622F01F0241F823204FF0F3
:103DF0000071FDF7E3FD4FF48060FDF7B9FD01A907
:103E00002846CDE90166FDF76BFB1022314602A87A
:103E100003F0B4FA02264FF46023284601A9019367
:103E20000496FDF772FB97FAA7F7B7FA87F7364AB9
:103E300028FA07F752F82730344923F01F0343F0DC
:103E4000010342F827302846FDF7B8FDA368304645
:103E500043F00103A360AB6843F00103AB60FDF7DF
:103E6000ECFC2B4A1168A36843F00403A360AB6821
:103E700043F00403AB60A368580702D4AB685B0748
:103E800005D513685B1A632B01D830BFF3E7022016
:103E9000FDF7D3FC154A1648936823F0010393609D
:103EA000114B996821F001019960816841F001018D
:103EB00081606FF0020111601960916841F00101A9
:103EC0009160996841F001019960916841F4A00105
:103ED00091609A6842F480129A6006B0BDE8F08161
:103EE000000400400000014000240140002801407F
:103EF000000002404C2401408019002000ED00E049
:103F000000E100E02C2401402C2801400100300297
:103F10003426002030B53B4C87B0FDF73FFD236BC6
:103F2000142223F001032363236B002123F4804335
:103F300023F0100343F010032363236B01A843F421
:103F400040532363236B304D43F020032363236BE3
:103F500023F040032363236B43F080032363236B2D
:103F600023F4407343F480732363236B23F440638F
:103F700043F480632363254BE363254BA363636BA7
:103F80001B0C1B0443F04003636303F0F7F9214B60
:103F90002846DA6942F00202DA61DB6903F00203C3
:103FA0000093009B1C4B1A881C4B91015B6803EB30
:103FB0004213B3FBF1F301A9013B0393FDF7A6FB09
:103FC0002B6843F080032B60AB6823F4804323F01D
:103FD0000703AB606B6823F0700343F020036B6052
:103FE000AB6823F08003AB60EB6843F48073EB6055
:103FF000236B43F0010323632B6843F001032B6021
:1040000007B030BD000002400004004090250020B1
:104010000C0C0140001002401E000020501F002028
:1040200030B54FF4804089B0FDF7A2FC0420FDF7C5
:104030009FFC0024092302254D4A01A94D48CDE9E2
:104040000123CDE904440395FDF781FA08234A4989
:104050004848CDE90113012301A90593FDF777FA3B
:10406000FDF79CFC454B29465A6C22F001025A642C
:104070005A6C22F4804222F0100242F010025A647C
:104080005A6C22F440525A645A6C22F020025A644C
:104090005A6C22F040025A645A6C42F080025A6410
:1040A0005A6C22F440725A645A6C22F440625A6488
:1040B0004FF480525A605A6C42F008025A645A6CAB
:1040C0002A435A642E4BD868C0F30220FDF79CFCAB
:1040D0004FF480422B4B0001C0B283F80E032146FF
:1040E0001A6002A8182203F049F9274B274C9B6855
:1040F000204601930C2301A90593FDF73FFB23699B
:10410000234A23F490432361636923F02A03636104
:1041100052E8003F43F0800342E800310029F7D124
:1041200023681C4A0193019B63680193019B6FF014
:104130002003236052E8003F43F0200342E80031AF
:104140000029F7D10E4B0121D868C0F30220FDF7FA
:104150005BFC20220B4B0001C0B283F825035A60A0
:104160000A4AD36843F40053D36009B030BD00BF9E
:1041700002000204000801400400040400000240A0
:1041800000ED00E000E100E078240020003801406C
:10419000143801400C3801402DE9F04188B0142258
:1041A000002103A803F0EAF80420FDF7E1FB082052
:1041B000FDF7DEFB1020FDF7DBFB2020FDF7D8FB31
:1041C00004274FF48073434D434C6F616B61202390
:1041D0006B6140236B6180236B61FF230126636168
:1041E00002234FF00008CDE9046340F2044303A921
:1041F00028460393CDE90686FDF7A9F9374B03A9B5
:1042000028460393FDF7A3F942F2200303A92846A9
:104210000393FDF79CF944F2400303A92846039356
:10422000FDF795F948F2800303A928460393FDF7AB
:104230008EF9032305934FF6FF7303A920460393DA
:10424000FDF785F941F2100303A928460393CDF841
:104250001880FDF77CF940F6080303A9284603936C
:104260000697FDF774F9082304931D4B03A9204614
:1042700003930796FDF76BF91A4B03A920460393A6
:10428000FDF765F9184B204603A90393FDF75FF985
:104290004FF490334FF40052A361A261A361A3696C
:1042A0004FF480420293029B4FF4A033A361A261BA
:1042B000A361A3694FF400420193019B4FF4C03303
:1042C000A361A261A361A3690093009B08B0BDE84C
:1042D000F08100BF00080140000C01400100010412
:1042E00020002004400040048000800410B54FF4FA
:1042F0007A74084B084A1B6811685B0863438B4259
:1043000000D928B1002313604AF6AA22034B1A6091
:1043100010BD00BF18000020541E002000300040D7
:104320004CF6CC420A4B1A211A6045F255521A60DB
:10433000084A116006225A6040F6FF729A60DA68F5
:1043400012F00302FBD101201A60FFF7CFBF00BFBC
:1043500000300040180000204FF4967008B5FDF7BB
:1043600083FB642008B5FDF77FFB08B5FFF7F9FF75
:1043700008B5FFF7F6FF08B5FFF7F3FF7047704782
:10438000704700002DE9F041FCF7E4FE0020364CB8
:104390004FF0180C27464FF0010E0546334B1A68B4
:1043A00001321A601E682368E3B19B686268DB43D0
:1043B00003EA12239BB2002B34D10CFB00739968E3
:1043C00001391E290A46A8BF1E220CFB007322EAEF
:1043D000E2729A60DA6852BB1D293DDD1A751A61D6
:1043E0005A75DE600130032804F11804DBD1204B3C
:1043F0001A68002AC2BF1A6802F1FF321A601D4B08
:10440000D3F80814D3F80824013291423EBFD3F800
:1044100008240132C3F80824174A136801331360D3
:10442000BDE8F0810CFB007399680131C9E70029F0
:104430000FDC597D01F0FF0821B11D611D75DD60A4
:104440005D75CFE7B21A1A6183F814E0C3F80C80E7
:10445000C8E7B21A1A61C5E7597D0029C2D01A61AE
:104460001A75DA605A75BDE7841D002034260020D5
:1044700020000020681F0020541E002010B50A4CA8
:1044800023685A0704D54FF400710848FEF7D2F9A3
:1044900023689B0704D54FF400710548FEF7CAF95D
:1044A0000122014B5A6010BD00000240801900201B
:1044B000801B0020044B5A6C22F001025A644FF416
:1044C00080525A60704700BF0000024013B50024BC
:1044D0000E4A0F49D2F80034086880060ED54868A5
:1044E000C0B2D0540133B3F5806F28BF0023C2F8A7
:1044F0000034C2F80844D2F80404EDE70B680193D5
:10450000019B4B680193019B02B010BD681F002006
:104510000038014008B5FEF725FD1022014B5A6115
:1045200008BD00BF00040140F8B51827134E144D14
:10453000346830BF0022336807FB0251C86868B98D
:10454000097D002918BF1C460132032AF4D11B1B28
:10455000C72B05D80020FFF7C9FEEAE71C46F3E7A2
:1045600000231820194600FB03520133032B517519
:104570009160D16011751161F5D1F8BD342600202C
:10458000841D002038B56C4BDA6842B15A6A32B1EA
:10459000DA6B22B91A69B2F5487F0CD238BDDA68F5
:1045A0008AB1664A1278EAB101225A7583F82D2041
:1045B00083F84520F2E79B6AB3F5487FEED3FDF719
:1045C00085FBFDF737FA5A6A002AEAD0DA6B002A2F
:1045D000E7D09A6AB2F5487FE0D31B6CB3F5487F09
:1045E000DCD3EEE7DA681AB15A6A0AB9DA6B62B15B
:1045F0001A7DEAB15A7D002AD0D101225A75504A5B
:10460000136883F0010313600EE01A69B2F5FA7FB4
:10461000C4D35A7D02F0FF04002ABFD101225A758B
:10462000FDF7B6FE464B1C60BDE83840FEF794BE71
:10463000DA681AB95A6A0AB1DA6BF2B193F82C2027
:104640005AB393F82D1001F0FF020029A6D10121E1
:1046500083F82D103B49CB7B0133DBB2032B28BF02
:104660000023CB7338490B7041F28831374B1A70F5
:10467000374B1960324B1A60D6E79A6AB2F5FA7F67
:104680008CD393F82D2002F0FF04002A86D101225A
:1046900083F82D20FDF7A4FEC4E7DA681AB95A6A38
:1046A0000AB9DA6B2ABB93F84420002A3FF476AFAC
:1046B00093F84520002A7FF471AF012283F845204A
:1046C000204A537C83F001035374DB0708D4937BA7
:1046D0000133DBB2042B28BF002393731D4A1370F0
:1046E000002341F28831194A1370194A1160144AA3
:1046F00089E71A6CB2F5FA7FFFF450AF93F84520C2
:1047000002F0FF04002A7FF449AF01220F4D83F825
:1047100045202A700A220B4B98895043B0F57A7FC6
:1047200088BF64209881FDF799FD41F28832084BDB
:104730002C701A6076E700BF841D00204C1F0020FB
:10474000341E0020782400201026002010000020B5
:10475000200000201C000020F0B51C491C4B8A786A
:104760001C481D4C002A08BF1846CA781B4B1C4D1C
:10477000002A08BF1C460A791A4B1B4E002A08BFA4
:104780001D464A79194B0F7891F801C0002A08BFDD
:104790001E468A79164B174987B0002A08BF19466A
:1047A000154A164BCDE90361BCF1000F08BF134653
:1047B0001349144A0090002F08BF0A46CDE901456D
:1047C0001149124803F042FA07B0F0BD601F002003
:1047D00071C800086DC8000875C800087AC80008CC
:1047E0007FC8000884C8000889C800088EC800086F
:1047F0009AC8000893C8000869C8000865C800087E
:1048000061C800085DC80008ECC70008A1C800081E
:104810002DE9F843194B5C6C14F001042BD10A20EC
:1048200003F02CFA164EDFF85C90DFF85C80174F2F
:1048300001342146484603F009FA002556F82500C0
:10484000FBF7EAFD803502460B46404603F0FEF9D1
:10485000B5F5607FF2D1D6F8000EFBF7DDFD02461C
:104860000B46384603F0F2F9802C06F10406DFD13E
:104870000020BDE8F8834FF0FF30FAE70000024067
:1048800058090020EBC80008EFC80008F6C8000867
:1048900038B5134B5C6C14F001041ED16FF0690342
:1048A000104D62222B7019230F49AA70A81D4FF4D6
:1048B00080526B70EB7002F039FD4FF48052A91DED
:1048C00020462C716C71FCF7F5FF41F20601A880BF
:1048D0002846FDF76DF9204638BD4FF0FF30FBE765
:1048E00000000240D52A0020580900202DE9F04F91
:1048F000424BB3B05F6C17F0010740F0C081404DF0
:10490000404B6C6C002120461F70FCF79DF800287E
:104910006FD020463C49FBF7E5FE3C49249024A893
:10492000FDF79EFBEC6C149000212046FCF78CF800
:10493000002860D020463449FBF7D4FE3449269045
:1049400026A8FDF78DFB6B6D3049159028A84FF018
:10495000010B2893FDF784FB00240DF1B009082317
:104960004A462499CDF800B080460DF1B80A0520DA
:10497000CDE92C44CDE92E44CDE9304430AEFEF7EC
:10498000A9FB082352462699CDF800B00520FEF772
:10499000A1FB289932460823CDF800B00520FEF788
:1049A00099FB1C4BDFF870B01B8823A8ADF88C3046
:1049B0009BF811308DF88E4013F0020F14BF4F2179
:1049C0002D21FDF76BF89BF8113023A813F0040F8D
:1049D00014BF53212D21FDF761F8104B2A941B7849
:1049E000032B00F22D81DFE813F01B0025012701C6
:1049F0002901002091E70020A0E700BF000002404D
:104A000038260020D52A00206740533A42C80008C3
:104A100040C80008C8A70008782400201C00002017
:104A20004C238DF8A830974B1B78012B00F00A819E
:104A3000022B00F00981002B40F0088173238DF8D0
:104A4000A9309BF8113013F0010F2AAB14BF462197
:104A500020211846FDF722F88B48FCF765F8CDE9D0
:104A60000868894BC0F5805B1C18286EFBF7D4FCE6
:104A7000159BCDE90601CDE904A3149B834ACDE93A
:104A8000029312882AAB0BF1060B01920093594650
:104A900020467F4A23AB03F005FB7E4E7E4B002F62
:104AA00040F0D8809A6E1D92002F40F0D6805A6E4A
:104AB0001E92002F40F0D480DA6E1F92002F40F03B
:104AC000D2801A6F2092002F40F0D0805A6F21922E
:104AD000002F40F0CE809A6F2292002F40F0CC80C1
:104AE000DB6F6E491DA82393FDF7BAFA6C49149049
:104AF0001EA8FDF7B5FA314615901FA8FDF7B0FACC
:104B00003146169020A8FDF7ABFA3146179021A840
:104B1000FDF7A6FA6349189022A8FDF7A1FA3146DD
:104B2000199023A8FDF79CFA0125002408231D995C
:104B30001A9024AA0DF1980B05200095CDE9244484
:104B4000CDE92644CDE92844CDE92A44CDE92C44D9
:104B5000CDE92E44CDE93044FEF7BCFA08235A468D
:104B60001E9905200095FEF7B5FA0DF1A808082357
:104B70001F9928AA05200095FEF7ACFA0DF1B0099F
:104B800008234246209905200095FEF7A3FA0DF16F
:104B9000B80A08234A46219905200095FEF79AFA9B
:104BA00008235246229905200095FEF793FA082320
:104BB000239930AA05200095FEF78CFAA7420CBF76
:104BC0007323702330481B93FBF7AEFF30AA129279
:104BD000199A1A9BCDE90FA2189A1393CDE90C925A
:104BE000179A1B9BCDE90982169ADFF89CC00792A1
:104BF00028AACDE90532159AC0F58051CDE903B256
:104C0000149A0293019224AA00920631264A604423
:104C100011930E930B93089303F044FAC7B11A480B
:104C2000FBF782FF01461848FCF7C2FF204633B06D
:104C3000BDE8F08F4323F4E65223F2E64123F0E689
:104C40003F23EEE67023FAE66123F8E63F23F6E61B
:104C50002F4623E7D3F8842025E7D3F8802027E7E1
:104C6000D3F8882029E7D3F88C202BE7D3F89020BD
:104C70002DE7D3F894202FE7D3F8983031E74FF0A1
:104C8000FF30D4E710260020D52A00201E00002087
:104C9000FDC8000842C80008382600205AC900088C
:104CA00058C9000843C800085DC90008074B1B7CB1
:104CB000022B05D0032B05D0012B05D1FFF7A8BD92
:104CC000FFF7E6BDFFF712BE704700BF7824002053
:104CD0002DE9F04F0F46064685B050B349B3044660
:104CE0000D1814F8010B092819D003F0DFFAC0B22F
:104CF000AC4204F8010CF4D1741C3378202B10D989
:104D00000022F31913F8011C3846202907F1FF3758
:104D100000F22A8203F8012D002FF3D109E02020B0
:104D2000E6E7013F3A462146304602F00DFB002FF0
:104D3000E3D105B0BDE8F08F0746002D18BF5446FB
:104D40007B1E34440F2B00F20C82DFE813F01000BE
:104D5000100033002C0073008800A901E201E70174
:104D60009200DC0028010A020A02FE01020200256C
:104D70009D4C206840B1237A0C342BB1FBF7D4FE54
:104D8000854238BF0546F4E7984802F0F9FF984C91
:104D900058F80C2B002ACCD02946204658F8083C5D
:104DA00002F054FFF4E7934802F0EAFFFCF78EFFAD
:104DB000FCF740FE002D37D000230A2203A920462D
:104DC000039303F069FA054602F076FA0368002BB4
:104DD00007DC039B9C4204D0874BA5F5E1329A4245
:104DE00004D92146854802F031FFA2E7844B9A6836
:104DF000954219D019209D60824B6422DB684343A1
:104E0000A800B3FBF0F0B0FBF2F102FB11031B01B1
:104E10003233B3FBF2F37C4A03EB01139BB2936092
:104E200041F28832794B1A60754B7948996802F0E3
:104E30000DFF0FE0774B1C782CB1774805B0BDE82B
:104E4000F04F02F09DBF754802F09AFFFDF7A0FAFF
:104E5000734B1C6005B0BDE8F04FFEF77DBA6D4B9B
:104E60001C78002CE9D16F4802F08AFFFDF7B8FAF0
:104E7000EEE745B300230A2203A92046039303F07B
:104E80000BFA054602F018FA0368002B08DC039BB6
:104E90009C4205D042F2AC63A5F164029A4202D969
:104EA000214661489FE7564BAAB2998991420AD0A0
:104EB0009A81584B1B7813B92846FDF7CFF941F278
:104EC0008832524B1A604E4B9B89B3F57A7F0AD2D7
:104ED0002021564A564803F0E5F85548FCF726FECF
:104EE00053495448A3E71846FBF7A8FB5249FBF780
:104EF000F9FBFBF791FA514ACDE9000120214C481A
:104F000003F0D0F8E9E79DB12A4620464C4903F06A
:104F100032F9E0B902223A4B9A73394B9A7B494BEA
:104F20001A7041F28832394B1A6000223C4B1A60E9
:104F3000334A4548937B032B89BF0123434A93732C
:104F4000404A92BF52F82310414913706FE72A4636
:104F500020463F4903F00FF928B12A4620463D4933
:104F600003F009F910B90022254BD5E72A4620465F
:104F7000394903F000F910B90122214BCCE72A4648
:104F80002046364903F0F7F810B903221C4BC3E75B
:104F90002146334805B0BDE8F04F02F057BE9DB141
:104FA0002A4620462F4903F0E6F8002862D1144B28
:104FB000D873134BDA7B2C4B1A7041F28832134BA7
:104FC0001A600022164B1A600D4A2848D37B022B28
:104FD00089BF0023264AD373234A92BF52F8231075
:104FE0002049137023E700BF5CCD0008BBC900084F
:104FF000F6C9000801CA0008004E0C0018CA0008D3
:1050000078240020501F002000380140200000209C
:1050100035CA00084C1F002044CA00084ACA0008CC
:10502000341E002065CA000883CA0008A1CA00080F
:1050300011260020B1CA00086F12833AA7CA0008DF
:10504000D7C400081C000020EECA000808CD0008E4
:10505000C0C40008CCCA0008CBC40008E2C40008E1
:10506000D1CA0008E7C400081026002018CB0008A9
:1050700018CD00082A462046524903F07CF818B99A
:105080000122514BDA7394E72A4620464F4903F038
:1050900072F810B902224C4BF4E721464C4879E7EC
:1050A0005DB12A4620464B4903F065F890B9464B5E
:1050B000187441F28832484B1A60434B47481A7CB7
:1050C000032A8BBF0022464B424953F8221088BF67
:1050D0001A74ACE62A462046424903F04CF818B947
:1050E0000122394B1A74E4E72A4620463E4903F070
:1050F00042F810B90222344BF4E72A4620463B49D5
:1051000003F039F810B903222F4BEBE7214638485A
:1051100040E705B0BDE8F04FFFF7E8BB354B1B7823
:10512000002B7FF48AAE344C3448236883F00103AB
:10513000236002F08BFD2068314A324B002814BFF7
:105140001046184602F01CFE84E62F4802F018FEB6
:105150002EE60A2002F092FD05B0BDE8F04FFFF701
:10516000FBBA3146294815E700233254F25C1C464D
:10517000202A03F1010302D99842F7D81C460025E2
:10518000DFF88C8004F1010A82453555C14698BF8D
:105190003D1B0027D9F8001000293FF4CEAD99F847
:1051A00008B0BBF1000F3FF4C8AD2246304602F014
:1051B000E2FF18B9002F7FF4BFAD5F4609F10C097B
:1051C000E8E700BFEEC4000878240020E2C400082D
:1051D000FCCA00081FC60008200000203ECB0008C3
:1051E00024CD0008FDC4000803C500080AC5000856
:1051F00025CB00084C1F0020341E00204DCB00089A
:10520000B2C90008B7C9000857CB000865CB000831
:105210005CCD00083A4B2DE9F0475B6C394C13F03C
:10522000010F04D00023C4F80834BDE8F08740F62D
:10523000B733D4F80094D4F80464D4F808249A421C
:105240000BD9B14503D1D4F80C35002BEDD0002398
:10525000C4F80494C4F80C35E7E7B145E5D042F250
:105260000147D4F80C5504F20C48B1450ED3A9EB14
:105270000602C5F5807A924528BF9246BAF1000F22
:1052800008D1C4F80494C4F80CA5CEE7D6F5806222
:10529000EFD1CAE705F20C405246A119204456440A
:1052A00002F044F8184AB6F5806F28BF0026104671
:1052B0005544C4F80C5502EB050CC4F8046462456F
:1052C000114614D212F8013B0D2BF8D827FA03F33C
:1052D000DB4313F00103F2D1091AC4F8083408D0F3
:1052E0006218404682F80C34FFF7F2FC01E0FE2D14
:1052F00002D90025C4F80C55B145B6D195E700BFD9
:1053000000000240681F0020742300202DE9F74FA1
:10531000AA4F00217E6C3046FBF796FB00B90026B1
:10532000FD6C00212846FBF78FFB00B90025A44B3C
:105330001C78012C07D0022C00F0A58003B0BDE83A
:10534000F04FFEF709B830469E49FBF769FB00288D
:10535000F4D128469C49FBF781FB0028EED1DFF809
:105360006C924D46296857F82400FBF7B3F80134D6
:10537000092C45F8040BF5D1954D00262C462F46F7
:10538000DFF850A2DFF850B259465AF8040BFBF789
:10539000A9F9804600F054FE0146A06AFBF79AF88E
:1053A000A062404600F0C4FE0146E06AFBF792F8B6
:1053B0000136082EE06204F10804E5D141F288329A
:1053C000864B1A607B6803F1010BBBF1030FC7F832
:1053D00004B0B3DD00233C68814E4FEA041859F84D
:1053E000042B584608EB030A00930192FBF726F9B9
:1053F000019A01461046FBF729FA009B0AF1040ABC
:10540000013306EB8A0A082BCAF80400E7D14FF0F3
:10541000000A4FF00009DFF8CCB1AA6A49461046ED
:105420000092FBF7F3FA009A08BB1146E86A00F015
:10543000B9FE5946FBF756F908EB0A020AF1010AD0
:1054400006EB8202BAF1080F506305F10805E4D1BA
:105450000134012C0DD864220021634801F08EFF35
:10546000624B3C6033F81400FCF7F8FE66E76048D6
:10547000E2E7737C5F4843F00203737402F080FC40
:10548000FCF762FF5AE730465B49FBF7E7FA002872
:105490007FF454AF4FF07E512846FBF7C1FA002845
:1054A0007FF44CAFDFF824A101245546296857F852
:1054B0002400FBF70FF80134092C45F8040BF5D153
:1054C000434D4FF000082C462F46DFF80891DFF8D7
:1054D00008B1594659F8040BFBF704F9064600F0E9
:1054E000AFFD0146A06AFAF7F5FFA062304600F072
:1054F0001FFE0146E06AFAF7EDFF08F10108B8F176
:10550000080FE06204F10804E3D141F28832334B22
:105510001A607B6803F1010BBBF1030FC7F804B0FD
:105520007FF70CAF00233C682D4E4FEA04185AF861
:10553000042B584608EB030900930192FBF77EF811
:10554000019A01461046FBF781F9009B09F12409F5
:10555000013306EB8909082BC9F80400E7D14FF0A5
:10556000000A4FF00009DFF87CB0AA6A49461046ED
:105570000092FBF74BFA009AE8B91146E86A00F08E
:1055800011FE5946FBF7AEF808EB0A020AF1010AD0
:1055900006EB8202BAF1080FC2F8B40005F1080563
:1055A000E3D10134012C7FF656AF737C134843F0EE
:1055B0000403737462E70E48E6E700BF3826002054
:1055C0004C1F00200000614417B75138D41D002043
:1055D000CC1D00205C26002035FA8E3C20000020E7
:1055E00078240020E02E6542D01D002010CE000857
:1055F0000000C07F83CB0008CDCCCC3EA0CB000800
:105600002DE9F04F012091B0FCF7B2F9A74AA84963
:10561000D369A84843F08053D361D369A64D03F002
:1056200080530F930F9B4B68A44C23F0E06343F02F
:1056300000734B60A24BDFF88C925968A24E41F484
:10564000807159605968DFF8848241F400715960B3
:1056500059689F4F41F480615960596841F4006175
:105660005960596841F480515960596841F40051BA
:105670005960596841F400415960596841F48031DA
:105680005960596841F480415960C168914B21F4D7
:10569000E0610904090C0B43C360516A8E4BC1F3EE
:1056A000C0611970516AC1F380615970516AC1F3C8
:1056B00000719970516AC1F34071D970516AC1F398
:1056C00080711971516AC90F5971916801F0010116
:1056D0009971536A43F080735362804B804AAB6187
:1056E000C5E9003202F12012EA616FF03D026272F8
:1056F0000122A2726FF01702227303226273A27357
:1057000002222B63774BE2736B63774B4FF0FF32D0
:10571000636000232372E3722374744B1A60FCF7F6
:10572000E9F8FBF705FDFEF70FFAFEF7F9FD48462D
:10573000FBF7DCFFFEF730FDFCF71EFBA368B3F5BB
:10574000612F28BF4FF46123B3F5E13F38BF4FF419
:10575000E133A360FEF764FC337818F80300386087
:10576000FCF79EFA61684FF07E50FBF76FF8604BD4
:10577000A27B18605F4B4FF072511A70E27B5E4B58
:105780005E481A70FCF752FCA089FCF767FD5C4884
:1057900002F05CFAFEF7E0FFFCF742FA59495A487A
:1057A000CB6A14240C938B6A0B934B6A0A930B6A93
:1057B0000993CB6908938B6907934B6906930B692F
:1057C0000593D9F80C20514BB2FBF3F20492D9F8AF
:1057D0000820B2FBF3F20392D9F80420B2FBF3F2F3
:1057E0000292D9F80020B2FBF3F30193CB68009347
:1057F000D1E90123096802F029FAFDF70FFDFEF750
:1058000093FEFDF71BFDFEF70DFAFEF739FAFEF7E2
:1058100081FBEB68002B40F087802B7D03F0FF09B4
:10582000002B40F081806420FCF707F84846FEF723
:105830005DFD013CEDD1FEF777FE0022344B354D86
:10584000DFF8D490354C1A70BFF34F8F30BFFEF79E
:1058500099FEFFF7DFFC2B68DB0601D4FDF782FB26
:105860003378317818F8033003293A683B6040F206
:105870009280FFF74BFDFFF719FA2368013323608D
:1058800000233370DFF898A0DAF8003053B9FCF742
:1058900085FA002806DB4FF0FF332248CAF80030B3
:1058A00002F06EFA0020FEF721FDCDE70010024065
:1058B0000000014000ED00E0841D0020782400205D
:1058C000002004E0501F0020DB3A002058CD0008E3
:1058D000382600200003FA05601F0020000C01405C
:1058E000200020048000800400007A44881E0020EC
:1058F000140000201C00002010260020441E002060
:10590000C0CB0008581E0020CCCB000840420F003E
:1059100010000020000401404C1F00203C1E00200D
:1059200020000020F7CC0008DFF880A0FEF7FCFD87
:10593000DFF87C90DAF800B043F69722DAF800300E
:10594000A3EB0B0393423FF676AF30BF0023182141
:1059500001FB0352D068E0B9147D003C18BF01245C
:105960000133032B12D1002C7FF465AF20230520D7
:10597000C9F81030FBF761FF20235020C9F814301C
:10598000FBF75BFF2046FEF7B1FCD5E7002CDFD02C
:1059900051E70124E4E793423FF474AF99F80030F3
:1059A000002B3FF46FAFFDF7B5FC6BE7342600200A
:1059B000000801400022094B9A62DA621A635A63B6
:1059C0009A63DA631A645A649A64DA641A655A65E7
:1059D0009A65DA651A665A66704700BFCC1D0020CA
:1059E00013B500248DF80500022201A978208DF856
:1059F000044000F0B2FA204602B010BD00284FF477
:105A0000806214BFFF210021014801F0B7BC00BF34
:105A1000E43A0020402330B5B024A3B00F4D8DF8F8
:105A200004302046FFF7DCFF0020FFF7D9FF1020ED
:105A3000FFF7D6FF0134294680220DF1050001F061
:105A400075FCE4B28122782001A900F086FAB82C16
:105A500005F18005E5D123B030BD00BFE43A002058
:105A6000002370B50125144C144815496371C3F324
:105A7000CC02D20120F8022B03F00702013305FA11
:105A800002F2402B01F8012BF1D16420FBF774FBEB
:105A900000250C4E16F8010B0135FFF7A1FF1C2D58
:105AA000F8D10020FFF7AAFFFFF7B4FF0020012381
:105AB00020806080637170BDDE3A0020E43E0020EB
:105AC000643F002014CE000810B50D4B5C79ACB1DA
:105AD0007F2813D83F2911D81B7913B1B2FA82F26B
