:020000040800F2
:1000000000500020515B00083D44000847440008B0
:100010004F440008574400085F44000800000000F7
:10002000000000000000000000000000674400081D
:1000300069440008000000006B4400086D4400089B
:10004000995B0008995B0008995B0008995B0008C0
:10005000995B0008995B0008995B0008995B0008B0
:10006000995B0008995B0008995B000895450008BA
:10007000995B0008995B0008ED450008995B000852
:10008000995B0008995B0008995B0008995B000880
:10009000995B0008995B0008995B0008995B000870
:1000A000995B0008995B0008995B0008995B000860
:1000B000995B0008995B0008995B0008995B000850
:1000C000995B0008995B0008995B0008995B000840
:1000D000995B00081D460008995B0008995B0008C1
:1000E000995B0008995B0008995B0008000000001C
:1000F0000000000000000000000000000000000000
:0C01000000000000000000005FF808F1A3
:1001100010B5054C237833B9044B13B10448AFF341
:1001200000800123237010BDF801002000000000B2
:10013000E8A7000808B5034B1BB103490348AFF318
:10014000008008BD00000000FC010020E8A70008B6
:1001500081F0004102E000BF83F0004330B54FEA78
:1001600041044FEA430594EA050F08BF90EA020FE5
:100170001FBF54EA000C55EA020C7FEA645C7FEA78
:10018000655C00F0E2804FEA5454D4EB5555B8BF9B
:100190006D420CDD2C4480EA020281EA030382EA0C
:1001A000000083EA010180EA020281EA0303362D9E
:1001B00088BF30BD11F0004F4FEA01314FF4801C71
:1001C0004CEA113102D0404261EB410113F0004F83
:1001D0004FEA03334CEA133302D0524263EB43033A
:1001E00094EA050F00F0A780A4F10104D5F1200ED8
:1001F0000DDB02FA0EFC22FA05F2801841F1000133
:1002000003FA0EF2801843FA05F359410EE0A5F106
:1002100020050EF1200E012A03FA0EFC28BF4CF037
:10022000020C43FA05F3C01851EBE37101F00045ED
:1002300007D54FF0000EDCF1000C7EEB00006EEBFA
:100240000101B1F5801F1BD3B1F5001F0CD3490884
:100250005FEA30004FEA3C0C04F101044FEA4452DB
:1002600012F5800F80F09A80BCF1004F08BF5FEA62
:10027000500C50F1000041EB045141EA050130BD42
:100280005FEA4C0C404141EB0101013C28BFB1F554
:10029000801FE9D291F0000F04BF01460020B1FA9F
:1002A00081F308BF2033A3F10B03B3F120020CDA72
:1002B0000C3208DD02F1140CC2F10C0201FA0CF050
:1002C00021FA02F10CE002F11402D8BFC2F1200CB5
:1002D00001FA02F120FA0CFCDCBF41EA0C0190406B
:1002E000E41AA2BF01EB0451294330BD6FEA0404B4
:1002F0001F3C1CDA0C340EDC04F11404C4F120029F
:1003000020FA04F001FA02F340EA030021FA04F3B0
:1003100045EA030130BDC4F10C04C4F1200220FA07
:1003200002F001FA04F340EA0300294630BD21FA45
:1003300004F0294630BD94F0000F83F4801306BF0B
:1003400081F480110134013D4EE77FEA645C18BFFF
:100350007FEA655C29D094EA050F08BF90EA020F96
:1003600005D054EA000C04BF1946104630BD91EA8E
:10037000030F1EBF0021002030BD5FEA545C05D191
:100380004000494128BF41F0004130BD14F58004D0
:100390003CBF01F5801130BD01F0004545F0FE4144
:1003A00041F470014FF0000030BD7FEA645C1ABF79
:1003B000194610467FEA655C1CBF0B46024650EAB0
:1003C000013406BF52EA033591EA030F41F40021DC
:1003D00030BD00BF90F0000F04BF0021704730B562
:1003E0004FF4806404F132044FF000054FF0000137
:1003F00050E700BF90F0000F04BF0021704730B5F8
:100400004FF4806404F1320410F0004548BF4042CC
:100410004FF000013EE700BF42004FEAE2014FEA21
:1004200031014FEA02701FBF12F07F4393F07F4FFC
:1004300081F06051704732F07F4208BF704793F0FF
:100440007F4F04BF41F40021704730B54FF4607412
:1004500001F0004521F000411CE700BF50EA010215
:1004600008BF704730B54FF000050AE050EA0102BE
:1004700008BF704730B511F0004502D5404261EB2E
:1004800041014FF4806404F132045FEA915C3FF46F
:10049000D8AE4FF003025FEADC0C18BF03325FEA0C
:1004A000DC0C18BF033202EBDC02C2F1200300FABD
:1004B00003FC20FA02F001FA03FE40EA0E0021FAE2
:1004C00002F11444BDE600BF80F0004002E000BF2E
:1004D00081F0004142001FBF5FEA410392EA030F2F
:1004E0007FEA226C7FEA236C6AD04FEA1262D2EB79
:1004F0001363C1BFD218414048404140B8BF5B427E
:10050000192B88BF704710F0004F40F4000020F016
:100510007F4018BF404211F0004F41F4000121F02C
:100520007F4118BF494292EA030F3FD0A2F1010276
:1005300041FA03FC10EB0C00C3F1200301FA03F1B4
:1005400000F0004302D5494260EB4000B0F5000FD7
:1005500013D3B0F1807F06D340084FEA310102F196
:100560000102FE2A51D2B1F1004F40EBC25008BF48
:1005700020F0010040EA03007047490040EB000012
:10058000013A28BFB0F5000FEDD2B0FA80FCACF113
:10059000080CB2EB0C0200FA0CF0AABF00EBC25040
:1005A00052421843BCBFD0401843704792F0000F2E
:1005B00081F4000106BF80F400000132013BB5E781
:1005C0004FEA41037FEA226C18BF7FEA236C21D0F7
:1005D00092EA030F04D092F0000F08BF084670475C
:1005E00090EA010F1CBF0020704712F07F4F04D12A
:1005F000400028BF40F00040704712F100723CBF3D
:1006000000F50000704700F0004343F0FE4040F466
:10061000000070477FEA226216BF08467FEA236324
:100620000146420206BF5FEA412390EA010F40F40F
:10063000800070474FF0000304E000BF10F000435B
:1006400048BF40425FEA000C08BF704743F0964342
:1006500001464FF000001CE050EA010208BF70475D
:100660004FF000030AE000BF50EA010208BF7047E4
:1006700011F0004302D5404261EB41015FEA010CF9
:1006800002BF84460146002043F0B64308BFA3F1F1
:100690008053A3F50003BCFA8CF2083AA3EBC253D3
:1006A00010DB01FA02FC634400FA02FCC2F12002F2
:1006B000BCF1004F20FA02F243EB020008BF20F029
:1006C0000100704702F1200201FA02FCC2F120028F
:1006D00050EA4C0021FA02F243EB020008BF20EA84
:1006E000DC7070474FF0FF0C1CEAD0521EBF1CEAB2
:1006F000D15392EA0C0F93EA0C0F6FD01A4480EAA0
:10070000010C400218BF5FEA41211ED04FF0006388
:1007100043EA501043EA5111A0FB01310CF00040B4
:10072000B1F5000F3EBF490041EAD3715B0040EADA
:10073000010062F17F02FD2A1DD8B3F1004F40EBAA
:10074000C25008BF20F00100704790F0000F0CF07D
:10075000004C08BF49024CEA502040EA51207F3A41
:10076000C2BFD2F1FF0340EAC250704740F400001C
:100770004FF00003013A5DDC12F1190FDCBF00F00D
:1007800000407047C2F10002410021FA02F1C2F1BB
:10079000200200FA02FC5FEA310040F1000053EA57
:1007A0004C0308BF20EADC70704792F0000F00F0A5
:1007B000004C02BF400010F4000F013AF9D040EAAB
:1007C0000C0093F0000F01F0004C02BF490011F43F
:1007D000000F013BF9D041EA0C018FE70CEAD1533D
:1007E00092EA0C0F18BF93EA0C0F0AD030F0004CBD
:1007F00018BF31F0004CD8D180EA010000F0004071
:10080000704790F0000F17BF90F0004F084691F02E
:10081000000F91F0004F14D092EA0C0F01D1420268
:100820000FD193EA0C0F03D14B0218BF084608D131
:1008300080EA010000F0004040F0FE4040F400007B
:10084000704740F0FE4040F4400070474FF0FF0C0E
:100850001CEAD0521EBF1CEAD15392EA0C0F93EA55
:100860000C0F69D0A2EB030280EA010C49024FEAA7
:10087000402037D04FF0805343EA111143EA101360
:100880000CF000408B4238BF5B0042F17D024FF418
:10089000000C8B4224BF5B1A40EA0C00B3EB510FF3
:1008A00024BFA3EB510340EA5C00B3EB910F24BFDC
:1008B000A3EB910340EA9C00B3EBD10F24BFA3EB61
:1008C000D10340EADC001B0118BF5FEA1C1CE0D129
:1008D000FD2A3FF650AF8B4240EBC25008BF20F0DC
:1008E000010070470CF0004C4CEA50207F32C2BF30
:1008F000D2F1FF0340EAC250704740F400004FF0CD
:100900000003013A37E792F0000F00F0004C02BFFD
:10091000400010F4000F013AF9D040EA0C0093F0C7
:10092000000F01F0004C02BF490011F4000F013B21
:10093000F9D041EA0C0195E70CEAD15392EA0C0F89
:1009400008D142027FF47DAF93EA0C0F7FF470AFC1
:10095000084676E793EA0C0F04D14B023FF44CAF04
:1009600008466EE730F0004C18BF31F0004CCAD199
:1009700030F000427FF45CAF31F000437FF43CAFD5
:100980005FE700BF4FF0FF3C06E000BF4FF0010CF7
:1009900002E000BF4FF0010C4DF804CD4FEA4002D9
:1009A0004FEA41037FEA226C18BF7FEA236C11D023
:1009B00001B052EA530C18BF90EA010F58BFB2EBD6
:1009C000030088BFC81738BF6FEAE17018BF40F056
:1009D000010070477FEA226C02D15FEA402C05D10A
:1009E0007FEA236CE4D15FEA412CE1D05DF8040B8F
:1009F000704700BF844608466146FFE70FB5FFF722
:100A0000C9FF002848BF10F1000F0FBD4DF808EDD9
:100A1000FFF7F4FF0CBF012000205DF808FB00BFCA
:100A20004DF808EDFFF7EAFF34BF012000205DF824
:100A300008FB00BF4DF808EDFFF7E0FF94BF012071
:100A400000205DF808FB00BF4DF808EDFFF7D2FF6E
:100A500094BF012000205DF808FB00BF4DF808EDB1
:100A6000FFF7C8FF34BF012000205DF808FB00BF7E
:100A70004FEA4002B2F1FE4F0FD34FF09E03B3EBAB
:100A800012620DD94FEA002343F0004310F0004FEB
:100A900023FA02F018BF404270474FF00000704741
:100AA00012F1610F01D1420205D110F0004008BFE0
:100AB0006FF0004070474FF00000704742000ED2C8
:100AC000B2F1FE4F0BD34FF09E03B3EB126209D489
:100AD0004FEA002343F0004323FA02F070474FF03F
:100AE0000000704712F1610F01D1420202D14FF0B4
:100AF000FF3070474FF00000704700BF034613F807
:100B0000012B002AFBD1181A0138704770B54FF03D
:100B1000FF0C4CF4E06C1CEA11541DBF1CEA135589
:100B200094EA0C0F95EA0C0F00F0DEF82C4481EAF1
:100B3000030621EA4C5123EA4C5350EA013518BF11
:100B400052EA033541F4801143F4801338D0A0FBFE
:100B500002CE4FF00005E1FB02E506F00042E0FBAB
:100B600003E54FF00006E1FB03569CF0000F18BFB1
:100B70004EF0010EA4F1FF04B6F5007F64F5407459
:100B800004D25FEA4E0E6D4146EB060642EAC621EC
:100B900041EA55514FEAC52040EA5E504FEACE2E59
:100BA000B4F1FD0C88BFBCF5E06F1ED8BEF1004F5C
:100BB00008BF5FEA500E50F1000041EB045170BDD8
:100BC00006F0004646EA010140EA020081EA03011C
:100BD000B4EB5C04C2BFD4EB0C0541EA045170BD18
:100BE00041F480114FF0000E013C00F3AB8014F192
:100BF000360FDEBF002001F0004170BDC4F10004DB
:100C0000203C35DA0C341BDC04F11404C4F120055B
:100C100000FA05F320FA04F001FA05F240EA0200B6
:100C200001F0004221F0004110EBD37021FA04F6EC
:100C300042EB06015EEA430E08BF20EAD37070BDA6
:100C4000C4F10C04C4F1200500FA04F320FA05F005
:100C500001FA04F240EA020001F0004110EBD37007
:100C600041F100015EEA430E08BF20EAD37070BD77
:100C7000C4F1200500FA05F24EEA020E20FA04F350
:100C800001FA05F243EA020321FA04F001F00041FF
:100C900021FA04F220EA020000EBD3705EEA430E70
:100CA00008BF20EAD37070BD94F0000F0FD101F09F
:100CB0000046400041EB010111F4801F08BF013CD8
:100CC000F7D041EA060195F0000F18BF704703F016
:100CD0000046520043EB030313F4801F08BF013D9D
:100CE000F7D043EA0603704794EA0C0F0CEA135559
:100CF00018BF95EA0C0F0CD050EA410618BF52EA13
:100D00004306D1D181EA030101F000414FF0000018
:100D100070BD50EA410606BF1046194652EA430626
:100D200019D094EA0C0F02D150EA013613D195EA9A
:100D30000C0F05D152EA03361CBF104619460AD1E2
:100D400081EA030101F0004141F0FE4141F47001EC
:100D50004FF0000070BD41F0FE4141F4780170BDDC
:100D600070B54FF0FF0C4CF4E06C1CEA11541DBF41
:100D70001CEA135594EA0C0F95EA0C0F00F0A7F843
:100D8000A4EB050481EA030E52EA03354FEA013170
:100D900000F088804FEA03334FF0805545EA131383
:100DA00043EA12634FEA022245EA111545EA10654B
:100DB0004FEA00260EF000419D4208BF964244F1E2
:100DC000FD0404F5407402D25B084FEA3202B61A01
:100DD00065EB03055B084FEA32024FF480104FF4D5
:100DE000002CB6EB020E75EB030E22BFB61A754649
:100DF00040EA0C005B084FEA3202B6EB020E75EBDC
:100E0000030E22BFB61A754640EA5C005B084FEA43
:100E10003202B6EB020E75EB030E22BFB61A754610
:100E200040EA9C005B084FEA3202B6EB020E75EB1B
:100E3000030E22BFB61A754640EADC0055EA060EDC
:100E400018D04FEA051545EA16754FEA06164FEA1F
:100E5000C30343EA52734FEAC2025FEA1C1CC0D1CB
:100E600011F4801F0BD141EA00014FF000004FF058
:100E7000004CB6E711F4801F04BF01430020B4F119
:100E8000FD0C88BFBCF5E06F3FF6AFAEB5EB030CD1
:100E900004BFB6EB020C5FEA500C50F1000041EBCE
:100EA000045170BD0EF0004E4EEA113114EB5C049B
:100EB000C2BFD4EB0C0541EA045170BD41F480116E
:100EC0004FF0000E013C90E645EA060E8DE60CEA76
:100ED000135594EA0C0F08BF95EA0C0F3FF43BAF93
:100EE00094EA0C0F0AD150EA01347FF434AF95EA4A
:100EF0000C0F7FF425AF104619462CE795EA0C0F2E
:100F000006D152EA03353FF4FDAE1046194622E7FA
:100F100050EA410618BF52EA43067FF4C5AE50EAD4
:100F200041047FF40DAF52EA43057FF4EBAE12E7C4
:100F30004FF0FF3C06E000BF4FF0010C02E000BFA5
:100F40004FF0010C4DF804CD4FEA410C7FEA6C5C88
:100F50004FEA430C18BF7FEA6C5C1BD001B050EA2B
:100F6000410C0CBF52EA430C91EA030F02BF90EA16
:100F7000020F0020704710F1000F91EA030F58BFD5
:100F8000994208BF90422CBFD8176FEAE37040F037
:100F9000010070474FEA410C7FEA6C5C02D150EAD5
:100FA000013C07D14FEA430C7FEA6C5CD6D152EA90
:100FB000033CD3D05DF8040B704700BF8446104655
:100FC00062468C461946634600E000BF01B5FFF754
:100FD000B7FF002848BF10F1000F01BD4DF808ED24
:100FE000FFF7F4FF0CBF012000205DF808FB00BFF5
:100FF0004DF808EDFFF7EAFF34BF012000205DF84F
:1010000008FB00BF4DF808EDFFF7E0FF94BF01209B
:1010100000205DF808FB00BF4DF808EDFFF7CEFF9C
:1010200094BF012000205DF808FB00BF4DF808EDDB
:10103000FFF7C4FF34BF012000205DF808FB00BFAC
:101040004FEA410C7FEA6C5C02D150EA013C0AD1C4
:101050004FEA430C7FEA6C5C02D152EA033C02D1B6
:101060004FF0000070474FF0010070474FEA410217
:1010700012F5001215D211D56FF47873B3EB6252EA
:1010800012D94FEAC12343F0004343EA505311F011
:10109000004F23FA02F018BF404270474FF00000A3
:1010A000704750EA013005D111F0004008BF6FF0E1
:1010B000004070474FF00000704700BF4FEA400209
:1010C0004FEA41037FEA226C02D15FEA402C08D14B
:1010D0007FEA236C02D15FEA412C02D14FF000007D
:1010E00070474FF00100704710B504460E4B18785A
:1010F0004FF47A73B3FBF0F30C4A1068B0FBF3F0D3
:1011000000F0A2F868B90F2C01D901200AE00022F2
:1011100021464FF0FF3000F05FF8054B1C600020C7
:1011200000E0012010BD00BF0000002020000020D2
:101130000400002008B5074A136843F01003136049
:10114000032000F037F80F20FFF7CEFF02F0D8FCA5
:10115000002008BD00200240034A1168034B1B78A1
:101160000B441360704700BF1402002000000020F1
:10117000014B1868704700BF1402002038B50446C0
:10118000FFF7F6FF0546B4F1FF3F02D0044B1B7892
:101190001C44FFF7EDFF401BA042FAD338BD00BF4F
:1011A000000000204FF0E022136923F002031361D6
:1011B00070470000074AD36823F4E0631B041B0C4C
:1011C000000200F4E060034343F0BF6343F40033E4
:1011D000D360704700ED00E000B5194BDB68C3F346
:1011E0000223C3F1070CBCF1040F28BF4FF0040C1D
:1011F00003F1040EBEF1060F18D9033B4FF0FF3E7A
:101200000EFA0CFC21EA0C0199400EFA03F322EAD3
:101210000303194300280BDB0901C9B200F1604048
:1012200000F5614080F800135DF804FB0023E5E75A
:1012300000F00F000901C9B2024B1954F4E700BFD6
:1012400000ED00E014ED00E00138B0F1807F0BD23A
:101250004FF0E0235861054AF02182F82310002066
:10126000986107221A6170470120704700ED00E085
:10127000044B0022DA61044A136943F0010313614D
:10128000018070471802002000200240194BDB68E3
:1012900013F0100305D0184AD36943F00203D36159
:1012A0001023144AD26812F0040F06D01249CA69FA
:1012B00042F00102CA6143F004030E4AD26912F0FF
:1012C000010F09D00C49CA6942F00402CA610949F8
:1012D000CA6922F00102CA6140F20112934202D0AF
:1012E000044AD3607047034AD36923F00103D361F2
:1012F000704700BF00200240180200200A4B1B6903
:1013000013F0800F0BD0084B084A5A6002F1883264
:101310005A601B6913F0800F03D100207047002032
:1013200070470120704700BF00200240230167453D
:10133000034A136943F0800313610020704700BF24
:101340000020024038B50446FFF712FF0546164B51
:10135000DB6813F0010F0AD0B4F1FF3FF7D024B1DE
:10136000FFF706FF401BA042F1D903201BE00E4B04
:10137000DB6813F0200F02D00B4B2022DA600A4BFF
:10138000DB6813F0100F0BD1074BDB6913F0010F73
:1013900006D1054BDB6813F0040F01D1002002E0F9
:1013A000FFF774FF012038BD002002402DE9F8430B
:1013B0001E46244B1B7E012B41D004460F4690460F
:1013C000204B01221A764CF25030FFF7BBFF034648
:1013D00078BB012C08D0022C03D04FF004091C4626
:1013E00007E04FF00209FAE74FF00109F7E701348F
:1013F000E4B24C451DD22101C1F12002A1F120032C
:1014000028FA01F106FA02F2114326FA03F319430E
:1014100089B207EB4400FFF72BFF4CF25030FFF787
:1014200091FF094B1D6925F001051D610346002848
:10143000DDD0044A002111761846BDE8F883022366
:10144000FAE700BF1802002000200240064B0022ED
:10145000DA61064B1A6942F004021A611A6942F015
:1014600040021A61704700BF1802002000200240AD
:10147000064B0022DA61064B1A6942F002021A6139
:1014800058611A6942F040021A6170471802002040
:1014900000200240264B1B7E012B46D070B505462E
:1014A0000E46234B01221A760368022B20D04CF201
:1014B0005030FFF747FF90BB4FF0FF333360AC680D
:1014C0000121EA68AB6803EB8223A34228D92046B6
:1014D000FFF7CEFF4CF25030FFF734FF154A136987
:1014E00023F0020313610146B8B904F58064E8E70C
:1014F0004CF25030FFF726FF08B1012110E0012027
:10150000FFF7A4FF4CF25030FFF71CFF0146094AD9
:10151000136923F00403136102E0346000E0012149
:10152000034B00221A76084670BD02210846704718
:1015300018020020002002400C4B9A6803F58063DB
:101540009B68134313F0010F0ED10B6833B142684F
:1015500022F470221343436000207047436823F451
:101560007023436000207047012070470024014031
:10157000836813F0010F0DD1436823F480734A6828
:1015800013434360836823F400630A681343836052
:1015900000207047012070474B68826812F0010FED
:1015A00023D110B4DBB1426822F468428C68234333
:1015B00013434360836823F4602323F481730A6830
:1015C000CC6822430C692243134383604B68C26A90
:1015D00022F470021343C362002010BC70474268BB
:1015E00022F4684213434360E4E7012070470B682C
:1015F000C3F30F2C9CFAACF2B2FA82F276E0A2F1BD
:1016000008044FF00113A34043F080634C68082C9A
:101610002CD01D0E93FAA3F4B4FA84F4A4004FF076
:101620000F0E0EFA04F4465926EA040493FAA3FEB8
:10163000BEFA8EFE4FEA8E0E4E6806FA0EFE44EAA1
:101640000E0444514C68012C1ED0092C1CD00132D0
:101650003CFA02F347D00123934013EA0C0FF6D073
:10166000072ACCD840F201139340CFE70D69C66832
:101670001C0A26EA132694FAA4F4B4FA84F405FAB0
:1016800004F43443C460C4E74FEA136E50F80E40CC
:1016900093FAA3F5B5FA85F5AD00032606FA05F52C
:1016A00024EA050493FAA3F5B5FA85F5AD008E6832
:1016B00006FA05F5254340F80E50CC6893FAA3F6D8
:1016C000B6FA86F6B600042707FA06F625EA0605F6
:1016D00093FAA3F3B3FA83F39B0004FA03F32B43C7
:1016E00040F80E30B3E70020F0BD01323CFA02F3BF
:1016F00006D00123934013EA0C0FF6D0F0B5AFE704
:1017000000207047034B5B68C3F30313024AD35CAA
:10171000D840704700100240F4C90008034B5B68D2
:10172000C3F30223024AD35CD84070470010024042
:1017300004CA0008034B5B68C3F3C223024AD35CAC
:10174000D84070470010024004CA00080B4B5B6889
:1017500003F4803343B90A48084B5B68C3F38343FF
:10176000023303FB00F07047044B5868C0F340405D
:10177000431C0448B0FBF3F0EEE700BF001002404A
:1017800000093D0000127A0008B5054B5B6803F0C4
:101790000C03082B01D0034808BDFFF7D7FFFBE778
:1017A0000010024000127A0010B50446FFF7ECFF6B
:1017B0002060FFF7A7FF6060FFF7B0FFA0606068E0
:1017C000FFF7B8FFE06010BD03681A4A90420AD0E4
:1017D000B0F1804F07D0A2F59432904203D002F5C9
:1017E0008062904203D123F070034A681343114A88
:1017F00090420AD0B0F1804F07D0A2F594329042C7
:1018000003D002F58062904203D123F44073CA688A
:10181000134303608B68C3620B888362054B984255
:1018200005D0436943F001034361002070470B6911
:101830000363F6E7002C0140C36813F4005F01D096
:101840000120704730B585B004460D46C36823F4C7
:10185000B05323F00C034A68C9680A4329690A4354
:101860001343C360AB68026922F44052134303611F
:101870006B69426922F44072134343616846FFF783
:1018800093FF1C4B9C4208D01B4B9C420BD01B4B24
:101890009C420AD0012005B030BD039B43B32A68A7
:1018A0002AB90120F7E7029BF8E7029BF6E703EB72
:1018B000830303EB83039200B3FBF2F31048A0FB16
:1018C000032149090A0192B2642505FB11331B016A
:1018D0003233A0FB0313C3F34F1303F0F0010A44A8
:1018E00092B203F00F0313449BB2A3600020D2E72F
:1018F0000120D0E70038014000440040004800408B
:101900001F85EB51064BA3FB00239B09013B4FF0C6
:10191000E02253610023936105231361704700BFE8
:10192000D34D621082B04FF0E0231B690193019BFD
:10193000B0F1FF3F00D0013038B14FF0E0231B6918
:1019400013F4803FF8D00138F6E702B0704700008A
:10195000014B1860704700BF20000020104B1B781F
:10196000EBB9002112E041F2210080EA43039BB26F
:101970000132072A05D813F4004FF4D15B009BB263
:10198000F6E7084A22F81130013189B2FF2903D85D
:101990000B029BB20022ECE7014B01221A70704748
:1019A000380400203802002070B506460C46154663
:1019B0000B4B1B787BB9FFF7D1FF0CE0214611F8E8
:1019C000013B83EA1623074830F9130080EA06201A
:1019D00086B20C4615466A1E002DEFDC304670BDFF
:1019E0003804002038020020104BD3F8FC2022F0ED
:1019F0008072C3F8FC20D3F8FC2042F08072C3F858
:101A0000FC20A3F55D431A6822F001021A601A68EF
:101A100042F001021A6000225A6000BF00BF00BFFE
:101A20005868B0FA80F04009704700BF00ED00E050
:101A300082B001900A4B5968019B73B1019A094B1E
:101A40001B68A3FB02329B0A43EA82530193044BB7
:101A50005B685B1A019A9342F9D302B0704700BFEA
:101A6000001000E02000002008B509680068FEF7BB
:101A70002FFDFEF7FDFF08BD012800D070474FF68F
:101A8000FF739942FAD1094B00225A629A62DA62D4
:101A90001A635A639A63DA631A645A649A64DA645A
:101AA0001A655A659A65DA651A66E7E79C1E002092
:101AB00072B6BFF34F8F084B20221A61BFF34F8FCE
:101AC0000649CA6802F4E062054B1343CB60BFF3DA
:101AD0004F8F00BFFDE700BF0008014000ED00E0B0
:101AE0000400FA0508B572B6BFF34F8F70B119281C
:101AF00038BF19200646074C202525610A20FFF72C
:101B000097FF65613046FFF793FFF4E74FF4967651
:101B1000F1E700BF0008014068B310B504462E216C
:101B200006F017FEE0B12046FEF7E8FF8446B8B1A4
:101B3000421E32B1A35C303BDBB2092B01D9013A22
:101B4000F7E76AB1511C134623B1E05C302801D19C
:101B5000013BF9E7E05C2E2803D0581C814202D8F3
:101B600010BD013BF9E79A1A624401322144204436
:101B700005F0BDFDF4E77047024600B9C822074BE7
:101B8000196800E030BF064B5B6C13F0010F04D006
:101B9000024B1B685B1A9342F4D37047382600202F
:101BA000000002400246E0B1F1B1144BDB6813F4CF
:101BB000005F1CD0124B5B6C13F0010F1AD1104B5D
:101BC0004FF4805058601A650E4ADA649A6C120C11
:101BD0001204114399645A6C42F001025A640020C5
:101BE00070474FF0FF3070474FF0FF3070476FF095
:101BF000010070476FF00200704700BF00380140DD
:101C0000000002400438014010B508461446114651
:101C1000FFF7C8FF0020FFF7AFFF204610BD000010
:101C200002280FD0032813D0012805D00B4B8022A7
:101C30005A6140221A617047084B80221A61402283
:101C40001A617047054B80225A6140225A617047E1
:101C5000024B80221A6140225A61704700080140FD
:101C600000B587B000230593019302930393049377
:101C70000C4B039304230493FFF740FB78B905A9A9
:101C800001A8FFF707FC28B9FFF752FB002007B0B7
:101C90005DF804FBFFF74CFB6FF00100F7E74FF036
:101CA000FF30F4E700F00008F8B50027124C0FE011
:101CB000274634460CE02946B5F846510020A1F8E5
:101CC00046014FF4A472FFF76FFE8542F0D0043452
:101CD00004F5A476094B9E420CD8094D4FF4A4722A
:101CE0002146284605F0F5FC2A68064B9A42E2D0C8
:101CF0000434EDE73846F8BD00F0000800000108A4
:101D00003C0400206219961908B5FFF7CDFF38B1E1
:101D100001464FF4A472044805F0DBFC002008BD26
:101D20004FF0FF30FBE700BF4C24002070B586B0B9
:101D300000200290039004900590484B04930423E4
:101D400005930190464C474B2360A4F846014FF49D
:101D5000A4722146FFF728FEA4F84601FFF7CEFA49
:101D6000002877D1FFF7A0FF0446E0B14FF4A4723A
:101D70003B4905F09EFC054668B104F5A47604F5E0
:101D80002474394B9C420FD901A902A8FFF782FBAA
:101D900020B9324E08E0FFF7CBFA40E0FFF7C8FA6F
:101DA0006FF001053BE02D4E33460021B1F5A47FD5
:101DB00014D233F8022B92B24FF6FF7082421FD03A
:101DC00006F5A472134606F5247627498E4214D9E7
:101DD00001A902A8FFF75EFBA0B9204E0025204C08
:101DE000B5F5A47F1ED234F8022B0023711901200F
:101DF000FFF7DCFA58B90235F2E716460021D5E7BD
:101E00000231D3E7FFF794FA6FF0020507E001A96A
:101E100002A8FFF73FFBFFF78BFA6FF00305284698
:101E200006B070BD4FF4A4720D49304605F041FC78
:101E3000054630B9FFF77CFA0C4B4FF0FF321A60C1
:101E4000EDE701A902A8FFF725FBFFF771FA6FF094
:101E50000405E4E74FF0FF35E1E700BF00F00008BC
:101E60004C24002062199619000001081C00002073
:101E70002DE9F84F80460C4691461F4616464FF016
:101E8000000A55460FE054F804BB29467868FEF76F
:101E900029FC01465846FEF71DFB5146FEF718FB8C
:101EA000013EAA460546002EEDD12946F868FEF708
:101EB00019FC5146FEF70CFB064605F10040B968D7
:101EC000FEF710FC07464846FEF7B4FB01464FF00C
:101ED0008040FEF7BBFC044601463046FEF702FC9C
:101EE000054621463846FEF7FDFBC8F80050C8F805
:101EF00004004046BDE8F88F2DE9F04F85B0009012
:101F0000039193469A46DDF838901846FEF792FB07
:101F100001464FF08040FEF799FC029000230193A8
:101F20004EE001362F460546564513D2009B53F826
:101F300024802946D9F80400FEF7D4FB0146404628
:101F4000FEF7C8FA3946FEF7C3FA0134A345E8D8CC
:101F50000024E6E72946D9F80C00FEF7C3FB394612
:101F6000FEF7B6FA064605F10040D9F80810FEF76C
:101F7000B9FB0446039FDDF8048007EBC805314632
:101F8000029E3046FEF7AEFB47F838002146304649
:101F9000FEF7A8FB68600023022B0ED803EB430278
:101FA000104901EBC202D268A2B903EB430201EB74
:101FB000C202127D9AB90133EEE7019B013301930E
:101FC000019B5B4504D21C46002600273D46ABE73B
:101FD000002001E04FF0FF3005B0BDE8F08F4FF07A
:101FE000FF30F9E7541E0020F8B504460E460A49B2
:101FF0003046FEF777FB074603F084FF0546384678
:1020000003F0F8FF0746266029462846FEF762FAE5
:102010006060E560A760F8BDDB0FC940F8B5054614
:102020000E46046800212046FEF7FAFCD0B90127CD
:1020300024F0004474492046FEF7F2FCA8B1662162
:10204000304606F086FB80B170492046FEF74AFB19
:1020500004463846FEF7F2FA2146FEF743FB2860B5
:102060006620F8BD4FF0FF37E2E769492046FEF7EA
:10207000D7FC90B17021304606F06BFB68B1654922
:102080002046FEF72FFB04463846FEF7D7FA2146D6
:10209000FEF728FB28607020E3E75F492046FEF743
:1020A000BFFC90B16E21304606F053FB68B15B492E
:1020B0002046FEF717FB04463846FEF7BFFA2146D6
:1020C000FEF710FB28606E20CBE755492046FEF74F
:1020D000A7FC90B17521304606F03BFB68B1514931
:1020E0002046FEF7FFFA04463846FEF7A7FA2146D7
:1020F000FEF7F8FA28607520B3E74FF07E512046CE
:10210000FEF78EFCE8B948492046FEF789FC002816
:1021100073D144492046FEF783FC30B36B2130462F
:1021200006F017FB08B33E492046FEF7DBFA0446EB
:102130003846FEF783FA2146FEF7D4FA28606B2072
:102140008FE76D21304606F004FB0028DBD03649CE
:102150002046FEF7C7FA04463846FEF76FFA2146D6
:10216000FEF7C0FA28606D207BE72C492046FEF779
:1021700057FC90B14D21304606F0EBFA68B1264984
:102180002046FEF7AFFA04463846FEF757FA2146D6
:10219000FEF7A8FA28604D2063E71E492046FEF7A7
:1021A0003FFC90B14721304606F0D3FA68B1184998
:1021B0002046FEF797FA04463846FEF73FFA2146D6
:1021C000FEF790FA28604D204BE710492046FEF7B5
:1021D00027FCA0B15421304606F0BBFA88B10A4969
:1021E0002046FEF77FFA04463846FEF727FA2146D6
:1021F000FEF778FA2860542033E7202031E72020CA
:102200002FE720202DE700BFCCBC8C2BA95F6358A3
:102210005F708930A5D46853BD378635286B6E4E04
:102220006F12833A0024744900007A4438B5632859
:1022300020D942F21073984228BF184680B22B4B27
:102240001880FEF7F7F92A49FEF700FB03F02CFF90
:1022500003F02AFF03F028FF04462649FEF7E0FBBF
:1022600050B94FF07E512046FEF7F8FB28B14FF0F1
:102270007E5402E06420E2E71E4C1F492046FEF730
:1022800031FA054600241CE02046FEF7D3F91B492D
:10229000FEF728FA03F0AEFE4FF07E51FEF71AF972
:1022A0002946FEF71FFA4FF07C51FEF713F903F0B1
:1022B00061FEFEF703FC60F0FF00114B23F81400F1
:1022C00001343F2CE0D9094B1A886AB194010D4BB7
:1022D0005B680D48816A0131B3FBF1F303EB4213F4
:1022E000B3FBF4F3013BC36238BD00BF1A0000200A
:1022F00000007A44CDCC4C3F0000FF42DB0FC93DCB
:1023000094250020241F0020000400402DE9F04106
:1023100086B002AC84E80300694681E80C00029DA7
:10232000009E31462846FEF7DDF90446039FDDF89E
:10233000048041463846FEF7D5F901462046FEF7AF
:10234000C9F8044641462846FEF7CCF90546394609
:102350003046FEF7C7F901462846FEF7B9F80546AC
:102360000494059000212046FEF750FB18B1064862
:1023700006B0BDE8F0812146284603F075FE03490A
:10238000FEF7B0F9F4E700BF0000C07FE12E654220
:1023900070B584B00C461249FEF7A4F90546104901
:1023A0002046FEF79FF90446284603F0ABFD06469B
:1023B000284603F01FFE00960190204603F0A2FD80
:1023C0000546204603F016FE0295039004AB13E980
:1023D0000C00694603C9FFF799FF04B070BD00BF48
:1023E00035FA8E3C2DE9F04385B06C4B01221A6022
:1023F0004FF00009A2E06A4B9B78A3B1694B03EB55
:102400004928694B009380231A4668494046FFF7E4
:1024100073FD0028C0F2BE80002400256CE0604BF4
:10242000DB78002BEAD15F4E06EB4926002400251D
:102430007F2C15D856F824000146FEF753F90146C3
:102440002846FEF747F805460134F1E7544B9B78E0
:10245000002BE8D1D2E7524BDB78002BCED0E2E75D
:102460004FF070512846FEF73DF903F01DFE504B2A
:1024700003EB890358604C4B8022314602A8FFF7DA
:10248000F7FC029C00212046FEF7C0FA38B149490A
:1024900009F10802464B03EB820359604CE02146E8
:1024A000039803F0E1FD4449FEF71CF94349FEF7A8
:1024B00011F8434903F0DAFD0146E9E73B4B03EB32
:1024C000C40393E8030004AB03E90300029E314612
:1024D0003046FEF707F9074603980146FEF702F972
:1024E00001463846FDF7F6FF01462846FDF7F2FFA4
:1024F000054648F8246001347F2CDFD94FF0705135
:102500002846FEF7EFF803F0CFFD294B03EB8903D4
:102510005860254B8022414602A8FFF7A9FC029C87
:1025200000212046FEF772FA00B3224809F10803A1
:102530001F4A02EB8303586009F10109B9F1070F43
:1025400022D84FEA59031F4A1278002A7FF456AF67
:10255000032B3FF653AF01A252F823F0F7230008F4
:102560001F2400084D240008572400082146039822
:1025700003F07AFD1049FEF7B5F81049FDF7AAFF00
:102580000F4903F073FDD1E70020044B186005B03C
:10259000BDE8F0834FF0FF30F9E700BFD82A0020F4
:1025A000481A0020480A0020101F0020D8260020CA
:1025B0003C2600200000C07FE12E654200008743DA
:1025C0000000B443201F00202DE9F04383B0814672
:1025D00088460025009501950024274625E0334BC9
:1025E0009B780BB3631C324E06EB83035968284675
:1025F000FDF770FF054604F1090306EB83062D493C
:102600007068FEF76FF8064603F07CFC0146009800
:10261000FDF760FF0090304603F0ECFC01460198A6
:10262000FDF758FF019001370234072C21D8224BC7
:102630001B78002BD6D16308032BD3D801A252F804
:1026400023F000BFDF250008552600085F2600089C
:1026500069260008154BDB78002BC3D1E4E7134B48
:102660009B78002BBED0DFE7104BDB78002BB9D076
:10267000DAE73846FDF7DEFF01462846FEF7E6F8C2
:10268000C9F80000009C00212046FEF7BFF928B1E0
:102690000A48C8F8000003B0BDE8F083214601985D
:1026A00003F0E2FC0649FEF71DF8F2E74C1A0020A1
:1026B0003C26002035FA8E3C201F00200000C07F01
:1026C000E12E65422DE9F04184B04A4B1B78002B86
:1026D00060D1494B1B68002B5CDB00252BE005EB30
:1026E00045032344454A52F823103046FFF750FE75
:1026F00004AB03EB840343F80C0C0134022CEED939
:102700003F4B042203210DEB020005F029FE314668
:102710000298FDF7DFFE05F108033A4A02EB830356
:102720005860354A136801331360022B02DD1346EB
:1027300000221A600135072D58D82F4F3B68314EC3
:1027400006EB8508D8F804102F4A05EB450423440E
:1027500042F8231002EB840C01AB52F82400DCF8A1
:102760000410DCF8082007C3254B042203210DEBDD
:10277000020005F0F5FD029BC8F8043005F10803DE
:1027800006EB830676683B681C441C4B43F82460C8
:102790000024B3E70021184B196009E001EB410266
:1027A0001A44194840F822400133022BF6D901316E
:1027B000072905D8134B03EB81035C680023F4E77A
:1027C000002109E001EB41021A440C4840F8224084
:1027D0000133022BF6D90131072907D801F108038B
:1027E000084A02EB83035C680023F2E704B0BDE80B
:1027F000F08100BF0C1F002008000020E40500202D
:10280000691A00083C26002084050020D0B108B5D4
:10281000034651B10C4A12783AB90C4A126822B9EF
:102820000B4A1278D2B2032A00D908BD094A2020E7
:1028300010610A461946084804F04BFF034B012279
:102840001A60F2E7704700BF10000020D82A00206D
:10285000E23A002000080140D8260020344B1B68D3
:102860008B4263D330B501280CD0032807D04FF03A
:10287000010E012809D94FF0000C64462BE04FF0FF
:10288000FF3EF6E74FF0FF3EF3E7002317E0294A4B
:1028900002EB830532F92310A1F50064264A52F8B1
:1028A00033100EFB041142F83310B5F90210A1F5F4
:1028B000006402EBC30251682144516001337F2B55
:1028C000E5D91E4B00221A542DE0A34238BF2346FF
:1028D0009CB20CF1010CBCF17F0F1CD8154B03EB23
:1028E0008C0133F92C20A2F5006202FB0EF213B228
:1028F0004988A1F5006109B20F4A52F83C501D44C5
:1029000042F83C5002EBCC02556829445160002B40
:10291000DBDADB43D9E7B4F5FA6F05D30123074AC5
:10292000115C0B43135430BD0023F8E7704700BF20
:10293000440A0020D8260020440600204C1A00201B
:102940002DE9F84F074643005D4E06EB8028013322
:1029500006EB43265B4B1868401AFDF76BFE0146F9
:102960004FF07E50FDF772FF8146002414E0564D73
:1029700055F83400FDF762FE4946FDF7B3FE48F80E
:10298000240005EBC4056868FDF758FE4946FDF7CD
:10299000A9FE46F8240001347F2CE8D94B4B1B6874
:1029A000032B0DD84A4D4B4B13F80790B9F1000F8C
:1029B00008D0494B1B78002B43D00024002003E0B3
:1029C000464DF0E7002400207F2C05D858F824104D
:1029D000FDF780FD0134F7E74FF07051FDF782FEFF
:1029E0008246B9F1000F15D129464FF07E50FDF710
:1029F0006FFD3B1D3A4C04EB83046168FDF772FEEA
:102A0000834651462846FDF76DFE01465846FDF7C0
:102A100061FD6060334B1C689CB9B9F1000F05D1B2
:102A20003A1D2F4B03EB8203D3F804A07F2C08D868
:102A3000514658F82400FDF74BFD48F824000134B6
:102A4000F4E70024002004E056F82410FDF742FDCE
:102A500001347F2CF8D94FF07051FDF743FE8046CA
:102A600029464FF07E50FDF733FD08371C4B03EB32
:102A700087077968FDF736FE044641462846FDF78C
:102A800031FE01462046FDF725FD05467860154BD1
:102A90001C6854B97F2C08D8294656F82400FDF745
:102AA00017FD46F824000134F4E74FF4806200215A
:102AB000054804F036FE034B00221A60BDE8F88F8B
:102AC000480A0020440A002044060020081F002075
:102AD0006666663F4C1A0020201F00209A99993E96
:102AE0004C240020001F0020F8B5434B1B68002B2E
:102AF00061D0424B1C78E4B2032C59D8404B1E5D88
:102B00001CB9404B1B68002B56D03F4B1D8805EB72
:102B100085056D0A00D1012529463046FFF79EFE46
:102B2000354B00221A60384B1B88DB08374A127875
:102B300022B9374A1268002A45D01B01002B57D012
:102B4000344A202151612F490A6801320A602B441E
:102B50009A4230D3671C2A4BD85DFFF761F82946AB
:102B60003046FFF7EDFEFCB2244B1C70032F22D938
:102B700004222949294804F09CFD00283AD001226A
:102B8000274B1A70244A136824490B6000211160F6
:102B90001F4A12687AB913F47F0F08BF0121214A36
:102BA00011701B0E0CBF012200221F4B1A7002E095
:102BB000114B00221A60F8BD3046FFF731F8164B72
:102BC00000221A60A1E7144A925D7AB9012E06D953
:102BD000164A527C12F0010FB0D0DB00AEE7B21CF7
:102BE0000E498A5C002AF3D10123A9E70123A7E754
:102BF0000123A5E70022C3E7D82A0020E23A0020FB
:102C000048C90008440A00201A000020201F0020A4
:102C1000001F0020000801404C1A0020481A002024
:102C20000C1F0020E33A0020501E00204C240020FE
:102C3000744B1B6803B170472DE9F04F87B0FFF765
:102C4000D1FB0028C0F2018205A904A8FFF7BCFC53
:102C5000049A6D4B9A601A619A611A62059A9A6297
:102C60001A639A631A64694B1B78002B00F0BB80CF
:102C7000674B1E78B700644C04EB0613D3F804903E
:102C8000C4F844907D1C04EB8503D3F80480C4F899
:102C90004880604B93F800A04FEA8A039A1C04EB2B
:102CA00082025068E064033304EB8303D3F804B07A
:102CB000C4F850B0584B1B6800931946FDF712FD3D
:102CC0000190E06400995846FDF70CFD83462065AD
:102CD000524B19684FF07E50FDF7B8FD0290002E60
:102CE00000F084800346BAF1000F00F08280029C5D
:102CF0009A4619464846FDF7F5FC8146424E7064F7
:102D000051464046FDF7EEFCB06421460198FDF7C0
:102D1000E9FC8046F06421465846FDF7E3FC306547
:102D200041464846FDF792FD04467065374B1B78D7
:102D3000002B40F090803A4B1E88B6F5967F94BFEA
:102D400000260126374B93F87480B8F1000F53D05A
:102D500006EB0613334A02EB8303D3F83490D96CA5
:102D60000098FDF7BFFC0299FDF7BCFC0146484600
:102D7000FDF76CFD81462B4B93F8FCA0BAF1000FD8
:102D80003DD09B463301019306EB06130BEB830307
:102D90000299D3F8CC00FDF7A5FC0290019B1E44DC
:102DA0000BEB860BDBF8C4100098FDF79BFC01468B
:102DB0000298FDF74BFDB8F1000F35D0BAF1000FC6
:102DC00032D02146FDF784FB064649462046FDF7F2
:102DD0007FFB01463046FDF739FD4946FDF782FC91
:102DE000094B586532E0FFF76DFC41E74FF07E5329
:102DF00079E74FF07E547BE74FF00009BBE70020F6
:102E0000D9E700BF001F00203C260020201F002023
:102E1000E33A0020501E0020140000200C00002087
:102E20001A0000204C240020B8F1000F0ED04946B3
:102E30002046FDF757FC064621464846FDF748FB6D
:102E400001463046FDF702FD8D4B58658C4A536DA7
:102E500023F0004353658A4C083504EB850507F1E0
:102E6000080304EB830369685868FFF791FAA065CB
:102E7000844B1B789B0003F10B0204EB82020A33A4
:102E800004EB830351685868FFF782FA0146E06556
:102E9000A06DFFF77DFA054620667B4B1B78002B63
:102EA00040F0D380794B1888FDF7C8FB7849FDF7CF
:102EB00019FC064677492846FDF714FC054603F041
:102EC00021F80446284603F095F805466C4B5F6DE3
:102ED00021463846FDF706FC044625F000413846F9
:102EE000FDF700FC054600212046FDF78FFD002878
:102EF00040F0AB8000212846FDF788FD002840F017
:102F0000A48000213046FDF781FD002840F09D801F
:102F100031462846FDF79AFC834629463046FDF7A0
:102F2000E1FB01464FF07E50FDF790FC00902946F2
:102F30002046FDF78BFC019021462846FDF786FCD4
:102F4000029021462046FDF7CDFB804629462846C3
:102F5000FDF7C8FB01464046FDF7BCFA8146214615
:102F6000FDF774FC804629464846FDF76FFC814614
:102F70003146FDF76BFC824649463046FDF7B2FB11
:102F800001464FF07E50FDF761FC0646494640463B
:102F9000FDF75CFC039041464846FDF757FC384B73
:102FA000C3F868B0009A5A66DC661C67019A5A67D3
:102FB000029A9A67DD67C3F884A0C3F88060C3F8FB
:102FC0008880C3F88C80039AC3F89020C3F89400DB
:102FD000C3F89890304BDB7B022B39D02F495846F1
:102FE000FDF73CFD08B1DFF8B4B0254BC3F868B07D
:102FF00000210098FDF714FD00283CD1204B009AD9
:103000005A6627492046FDF729FD00B1244C1C4B88
:10301000DC6622495046FDF721FD08B1DFF87CA0AF
:10302000174BC3F884A000213046FDF7F9FC28BBFC
:10303000134BC3F880601A494046FDF70FFD08B1F5
:10304000DFF85C800E4BC3F8888007B0BDE8F08FD6
:1030500012493846FDF7EEFC18B1124B00221A70E7
:10306000BCE711493846FDF7EFFC0028B6D00D4B00
:1030700001221A70B2E700230093BFE70026D7E7CA
:103080003C260020501E0020201F00201A00002097
:10309000DB0FC94035FA8E3C4C24002000007A44F6
:1030A00020BCBE4C1426002000401C46F0B583B066
:1030B0000C4617461E4621F0004502281ED0032864
:1030C00038D042492846FDF7ABFC00285DD1404985
:1030D0002846FDF7A5FC002862D13E492846FDF7A9
:1030E0009FFC002867D02046FDF796F9CDE9000146
:1030F000394A3146384605F095FA0EE033492846FC
:10310000FDF78EFC58B12046FDF786F9CDE90001A8
:10311000314A3146384605F085FA03B0F0BD204605
:10312000FDF77AF9CDE900012C4A3146384605F021
:1031300079FAF2E725492846FDF772FC78B9244967
:103140002846FDF76DFCA8B12046FDF765F9CDE9ED
:103150000001214A3146384605F064FADDE7204691
:10316000FDF75AF9CDE900011D4A3146384605F010
:1031700059FAD2E72046FDF74FF9CDE90001174A89
:103180003146384605F04EFAC7E72046FDF744F9C8
:10319000CDE90001134A3146384605F043FABCE751
:1031A0002046FDF739F9CDE900010D4A3146384690
:1031B00005F038FAB1E72046FDF72EF9CDE9000118
:1031C000064A3146384605F02DFAA6E700002041B0
:1031D0000000C84200007A4440C5000848C5000805
:1031E00050C5000858C5000808B502F0D7FC02F029
:1031F00021FB012002F0EAFA02F0F6FA4FF4FA702D
:10320000FEF790FB08BD000070B582B0002002F010
:10321000DDFA0021084602F035FC2A4D012229463C
:10322000294802F021FC294E294B9A682949304649
:1032300005F02CFA2C78002104EB840002F022FC2B
:1032400001222946304602F00FFC234A234930462A
:1032500005F01CFA3046FDF751FC04FB00F0C0F10C
:103260007F00002180B202F00DFC01222946304689
:1032700002F0FAFB0E21102002F004FC0122184992
:10328000184802F0F1FB012400941F2303227F2140
:10329000002002F021FC2621052002F0F3FB22464B
:1032A0002946114802F0E0FB3421052002F0EAFB38
:1032B000224629460D4802F0D7FB02F095FA02B0EB
:1032C00070BD00BF64C2000860C500081826002059
:1032D0004C24002068C500086CC5000874C50008AF
:1032E00054C2000878C5000884C5000894C50008C9
:1032F0002DE9F04788B0C14B1C78002002F066FA37
:10330000BF4B1B78012B00F03783E700022B00F046
:103310007E83BC4B0FCB08AD05E90F00BA4BDB7BBE
:10332000012B00F09781022B00F09681002B00F01A
:103330006281B649002900F09181B54D284605F01B
:1033400015FA0021084602F09DFB0122AB492846F0
:1033500002F08AFBAF4B1B88B3F57A7F80F0808147
:10336000AD4A2021284605F05DF9A94E3046FEF70A
:10337000D3FB4FEA54080021404602F091FB0122A2
:103380009E49304602F070FBA24B1D88B5F5967F32
:1033900094BF0025012520220021304604F0C1F908
:1033A00005EB0512984B03EB820393F87430002B66
:1033B00000F066814F22964B1A7005EB0515924B73
:1033C00003EB850595F8FC30002B00F05B8153235F
:1033D0008F4E7370A5B2A4EBC4007F30002180B281
:1033E00002F050FB01228549304602F03DFBA80067
:1033F000C0F17F00002180B202F044FB874B1B68C4
:10340000002B40F04181804B5B7C13F0010F00F0FA
:10341000418101227949824802F026FB002304936E
:10342000804B1E78012E00F04F81022E00F0588153
:10343000002E00F03D8120220021754804F071F932
:10344000012E00F07281022E00F08881002E00F023
:1034500053812026DFF8B8914846FEF75DFB102126
:10346000002002F00FFB01226F49484602F0FCFAEF
:103470000121062002F014FB6A4B1B78012B00F09F
:103480009881022B00F0A781002B00F08081674B10
:103490001B78002B00F0BE8148225D4B1A70644BF4
:1034A0001B78002B00F0B8814823594E737000231D
:1034B000B370C5EB8530C5EB80007F30242180B22E
:1034C00002F0E0FA01224D49304602F0CDFA594BA4
:1034D0000FCB08AE06E90F00574B1B78012B00F00D
:1034E0009F81022B00F09E81002B00F097815349B1
:1034F000002900F09981464E304605F037F9680002
:10350000C0F17F00242180B202F0BCFA01223B49C5
:10351000304602F0A9FA434B1B78012B40F286811A
:10352000022B40F05382444B1B78012B00F01C828D
:10353000434B9B6E0493434904A8FEF76FFD054679
:10354000334E2023324604990420FFF7AFFD304666
:10355000FDF7D4FA202D01D035540130431C2C4EF8
:10356000482232544FF0000A06F803A03046FEF716
:10357000D3FADFF8889099F80150C5F13F05ADB254
:103580002946504602F07EFA01224946304602F0B2
:103590006BFA294B1B78012B00F0EA81284B9B6FBB
:1035A0000493294904A8FEF739FD06462946384602
:1035B00002F068FA114F01223946244802F054FA09
:1035C000134D20232A4604990320FFF76FFD284658
:1035D000FDF794FA431C2E540026EE542846FEF7BD
:1035E0009BFA3146404602F05BFA012239462846F2
:1035F00002F03AFAEAE116499CE600BF64C200080C
:10360000201F002000A800084C24002078C20008D9
:10361000182600201A000020A8C50008001F00205E
:10362000BCC50008180000205CC20008E33A002076
:10363000501E002010A800081426002088C2000890
:103640003C260020C4C50008D0C50008DCC5000821
:103650006CC20008AE496DE6AE496BE6AE496CE659
:103660001846FCF7EBFFAD49FDF73CF8FCF7D4FE3C
:10367000CDE90001AA4A2021AA4804F0D3FF74E64C
:103680002D2298E62D23A3E60122A749A74802F0A0
:10369000EBF9C3E6A34E20233246A549096E042068
:1036A000FFF704FD0122A049304602F0DDF9B5E63E
:1036B000A04B1B78012B03D09D4B9B6E0493BAE665
:1036C0009B4BD3F88430F9E79A4B1B78012B03D03E
:1036D000974B5B6E0493AEE6954BD3F88030F9E7D9
:1036E000944B1B78012B03D0914BDB6E0493A2E625
:1036F0008F4BD3F88830F9E78F4904A8FEF78EFC8A
:103700000646752806D02023864A04990420FFF730
:10371000CDFC9FE60498FCF77FFECDE90001874AC7
:103720002021804804F07EFF94E6854904A8FEF736
:1037300075FC0646702806D020237A4A0499042096
:10374000FFF7B4FC86E60498FCF766FECDE90001BD
:103750007A4A2021734804F065FF7BE6794904A882
:10376000FEF75CFC06466D2806D020236D4A0499BE
:103770000420FFF79BFC6DE60498FCF74DFECDE9B5
:1037800000016E4A2021674804F04CFF62E6202EBB
:103790000DD089F8006001235A1C62484821C154A9
:1037A000002383540122684902F05EF96FE600238A
:1037B000F2E7202E0DD05B4B1E7001235A1C594896
:1037C0004621C1540023835401225F4902F04CF981
:1037D0005DE60023F2E7202E13D10021032002F042
:1037E0005FF90DF10E0103A802F052F912230093C4
:1037F0000D23564ABDF80E10BDF80C0002F084F9F6
:1038000045E6484806700023437001224E4902F005
:103810002BF9E2E74C2240E64C2346E64C4967E6AA
:103820004C4965E64C4963E63B4964E6414B1B78ED
:10383000012B65D03E4B1B6F0493424904A8FEF751
:10384000EDFB8246DFF8E09099F80150C5F13F05A5
:10385000ADB22946002002F015F9012249463F4841
:1038600002F002F92F4E2023324604990320FFF77D
:103870001DFC3046FDF742F9431C06F800A04FF04E
:10388000000A06F803A03046FEF746F951464046C6
:1038900002F006F901224946304602F0E5F8254BD0
:1038A0001B78012B30D0224B9B6F04932C4904A82A
:1038B000FEF7B4FB06462946384602F0E3F81A4FF5
:1038C00001223946274802F0CFF8164D20232A4618
:1038D00004990320FFF7EAFB2846FDF70FF9431C84
:1038E0002E540026EE542846FEF716F9314640467F
:1038F00002F0D6F801223946284602F0B5F865E014
:103900000B4BD3F88C3097E7094BD3F89430CCE7C6
:1039100070C2000874C2000814C800086F12833A0D
:10392000ACC500081826002064C20008B4C5000811
:103930003C26002014260020C4C5000840C500080D
:10394000CCC50008D4C5000854C2000824C900082A
:103950007CC2000880C2000884C2000888C2000837
:10396000D0C50008DCC50008584BD3F88430E1E529
:10397000564BD3F8943013E6554B1B68554DC3F1A5
:103980000303554A2021284604F04CFE052100205F
:1039900002F078F801225149284602F065F8504BB0
:1039A0001B88B3F57A7F22D24E4A2021284604F0A4
:1039B00039FE484D2846FEF7AFF81F21002002F0DF
:1039C00061F801224549284602F04EF820220021E4
:1039D000404803F0A6FE444B1B7C012B6DD0022B0C
:1039E0006FD0002B4ED03B4B45221A704DE018464D
:1039F000FCF724FE3D49FCF775FEFCF70DFDCDE913
:103A000000013B4A2021334804F00CFED1E7304B43
:103A10001B68304DC3F10303364A2021284604F0C9
:103A200001FE0521002002F02DF801222B49284635
:103A300002F01AF82A4B1B88B3F57A7F12D2294A72
:103A40002021284604F0EEFD224D2846FEF764F8BA
:103A50001F21002002F016F801222049284602F01A
:103A600003F8B3E71846FCF7E9FD2049FCF73AFEF6
:103A7000FCF7D2FCCDE900011D4A2021154804F0D5
:103A8000D1FDE1E7134B20221A701B4D6978C1F17B
:103A90003F01C4F17F0089B280B201F0F3FF01223F
:103AA00029460C4801F0E0FF01F09EFE134A13681E
:103AB0000133136008B0BDE8F087064B41221A704D
:103AC000E3E7044B42221A70DFE700BF3C260020E8
:103AD0009C1E002018260020E0C5000854C20008E3
:103AE0001A000020ECC500084C2400206F12833A15
:103AF000F4C5000800C6000864C20008041F0020C6
:103B00007047000008B53F4A136823F0070343F0ED
:103B1000020313603B4B1B6803F00703022BF9D130
:103B2000394A136843F480331360374B1B6813F42E
:103B3000003FFAD0344A536A43F001035362324BD8
:103B40005B6A13F0020FFAD02F4A536823F47C13F8
:103B500043F4E8135360136843F0807313602A4BF7
:103B60001B6813F0007FFAD0274B5A6822F0F0024E
:103B70005A605A6822F4E06242F480625A605A68DD
:103B800022F460525A605A6822F0030242F00202A4
:103B90005A601D4B5B6803F00C03082BF9D11B48DE
:103BA000FDF7D6FE184A536823F4404343F400431C
:103BB0005360FDF7F7FA164B1868FDF7A3FE154B97
:103BC000DA68C2F30222C2F10703042B28BF0423E0
:103BD0001946131D062B13D9033A4FF0FF338B40C0
:103BE000DB4303F00F0393401B01DBB2094A82F869
:103BF00023304FF0E022136943F00203136108BD44
:103C00000022EAE7002002400010024000A24A041D
:103C10002000002000ED00E02DE9F04F8DB00023E2
:103C20000A930B93099304930593069307930893C0
:103C3000AB4A136823F001031360AA4B9A6942F060
:103C400004029A619A6902F004020392039A9A6943
:103C500042F400729A619A6902F400720292029A26
:103C6000A14C216840F2011595FAA5F2B2FA82F250
:103C700092000F2000FA02F221EA020295FAA5F55D
:103C8000226040F2022595FAA5F1B1FA81F189008E
:103C900000FA01F122EA010295FAA5F522609349A2
:103CA0008A6822F001028A6001F580618A6822F048
:103CB00001028A605A6942F001025A615B6903F0AD
:103CC00001030193019B8A4B9A6822F001029A60DA
:103CD0009A6822F4804222F010029A609A6822F4D4
:103CE000405242F400529A609A6842F020029A6070
:103CF0009A6822F040029A609A6842F080029A60C4
:103D00009A6822F4407242F400729A609A6822F42F
:103D1000406242F400629A60764A1A61764A5A61B9
:103D2000DA68120C120442F48072DA6001225A60DE
:103D30009A6842F008029A609A6842F004029A6017
:103D40009A6842F002029A606C4BDA68C2F302226F
:103D5000C2F10703042B28BF04231946131D062BA9
:103D600040F2BB80033A4FF0FF338B40DB4303F05C
:103D7000030393401B01DBB2614A82F80B334FF41B
:103D80000063136000240A940B94584E0AA930462D
:103D9000FDF7EEFB4FF48033099309A93046FDF798
:103DA000CBFB4FF4002304930594069407944FF43F
:103DB0008073089304A93046FDF7EEFB51494FF498
:103DC000407999FAA9F3B3FA83F34FF4007A2AFA07
:103DD00003F351F8232022F01F0241F82320203959
:103DE0004FF0007B9BFAABF3B3FA83F32BFA03F3A8
:103DF00051F823204FF0F87595FAA5F022F007024C
:103E000095FAA5F042F0060241F82320354B9A6955
:103E100042F480629A619B6903F480630093009B83
:103E20000A940B94384F0AA93846FDF7A1FB4FF4CA
:103E300060230493059406944FF00208CDF81C808B
:103E4000089404A93846FDF7A7FB304A99FAA9F966
:103E5000B9FA89F92AFA09F952F8293023F01F032F
:103E600043F0010342F8293029489BFAABF3B3FA37
:103E700083F32BFA03F350F8232095FAA5F1B1FA56
:103E800081F14FF4401424FA01F14FF0070C0CFAC1
:103E900001F122EA010295FAA5F5B5FA85F524FAB1
:103EA00005F5062404FA05F5154340F82350B368D8
:103EB00043F00103B360BB6843F00103BB604046BD
:103EC000FDF730FD134B1A68B36843F00403B36089
:103ED000BB6843F00403BB6024E0002243E700BF5B
:103EE000000400400010024000080140002401408E
:103EF000000002404C240140501A002000ED00E078
:103F000000E100E02C240140002801402C28014061
:103F10000C280140382600201C4B1B689B1A632B81
:103F20000AD830BF1A4B9B6813F0040FF4D1194B19
:103F30009B6813F0040FEFD10220FDF7F3FC154A44
:103F4000936823F001039360114B996821F00101FC
:103F500099601148816841F0010181606FF00201B0
:103F600011601960916841F001019160996841F018
:103F700001019960916841F4A00191609A6842F44E
:103F800080129A600DB0BDE8F08F00BF3826002087
:103F900000240140002801400000024030B589B0F3
:103FA0003E4A536943F001035361536903F001032F
:103FB0000293029B3A4C236B23F001032363236B90
:103FC00023F4804323F0100343F010032363236B97
:103FD00043F440532363236B43F020032363236B99
:103FE00023F040032363236B43F080032363236B9D
:103FF00023F4407343F480732363236B23F44063FF
:1040000043F480632363274BE363274BA363636B12
:104010001B0C1B0443F040036363002303930493CE
:10402000059306930793D36943F00203D361D369E1
:1040300003F002030193019B1C4B1A8891011C4B56
:104040005B6803EB4213B3FBF1F3013B0593194D9E
:1040500003A92846FDF7B8FB2B6843F080032B60CB
:10406000AB6823F4804323F00703AB606B6823F055
:10407000700343F020036B60AB6823F08003AB60F8
:10408000EB6843F48073EB60236B43F0010323631D
:104090002B6843F001032B6009B030BD00100240D3
:1040A00000000240942500200C0C01401A00002062
:1040B000241F00200004004030B591B00023099374
:1040C0000A930B930C930D930E930F930493059304
:1040D0000693079308936C4CA36943F48043A36150
:1040E000A36903F480430393039BA36943F0040390
:1040F000A361A36903F004030293029B634B04933F
:104100000923059302230693614D04A92846FDF770
:104110006EFA604B0493082305930123089304A9C6
:104120002846FDF764FA636943F00103636163693C
:1041300003F001030193019B574B5A6C22F00102DB
:104140005A645A6C22F4804222F0100242F01002AB
:104150005A645A6C22F440525A645A6C22F020027B
:104160005A645A6C22F040025A645A6C42F080023F
:104170005A645A6C22F440725A645A6C22F44062B7
:104180005A644FF480525A605A6C42F008025A64E2
:104190005A6C42F002025A64404BDA68C2F30222BF
:1041A000C2F10703042B28BF04231946131D062B55
:1041B00067D9033A4FF0FF338B40DB4303F0010331
:1041C00093401B01DBB2364A82F80E334FF4804332
:1041D0001360344B9B68099300230A930B930C9351
:1041E0000C220D920E930F932F4C09A92046FDF738
:1041F00023FB236923F490432361636923F02A039B
:1042000063612A4A52E8003F43F0800342E80031EC
:104210000029F6D1244B1A680092009A5A6800923D
:10422000009A6FF020021A60214951E8003F43F0E4
:10423000200341E800321146002AF5D1174BDA6815
:10424000C2F30222C2F10703042B28BF042318463D
:10425000131D062B00D9D11E4FF0FF338340DB43E3
:1042600003F001038B401B01DBB20D4A82F82533BA
:10427000202353600C4AD36843F40053D36011B039
:1042800030BD002296E700BF001002400200020489
:1042900000080140040004040000024000ED00E0BA
:1042A00000E100E04C2400200038014014380140B7
:1042B0000C3801402DE9F0418CB000260796089695
:1042C00009960A960B96564B9A6942F004029A6137
:1042D0009A6902F004020692069A9A6942F008026C
:1042E0009A619A6902F008020592059A9A6942F069
:1042F00010029A619A6902F010020492049A9A6973
:1043000042F020029A619B6903F020030393039B10
:10431000444D4FF00408C5F814804FF480736B616E
:1043200020236B6140236B6180236B613E4CFF2334
:10433000636101270897022309930B9740F2044316
:10434000079307A92846FDF752F9384B079307A9A9
:104350002846FDF74CF942F22003079307A92846A7
:10436000FDF745F944F24003079307A92846FDF7F6
:104370003EF948F28003079307A92846FDF737F96D
:10438000032309934FF6FF73079307A92046FDF710
:104390002EF90A9641F21003079307A92846FDF764
:1043A00026F9CDF8288040F60803079307A9284688
:1043B000FDF71DF9082308930B971D4B079307A9D9
:1043C0002046FDF714F91B4B079307A92046FDF77C
:1043D0000EF9194B079307A92046FDF708F94FF48A
:1043E0009033A3614FF40052A261A361A3690293C9
:1043F000029B4FF4A033A3614FF48042A261A361FA
:10440000A3690193019B4FF4C033A3614FF40042B1
:10441000A261A361A3690093009B0CB0BDE8F08189
:104420000010024000080140000C0140010001049E
:1044300020002004400040048000800408B54FF4B0
:104440009670FDF74FFB08B56420FDF74BFB08B5F0
:104450006420FDF747FB08B56420FDF743FB08B572
:104460006420FDF73FFB70477047704738B5FCF795
:1044700073FE444B1A6801321A601868002322E068
:10448000013A12B235E0002203EB4301CC003E4971
:1044900021440A81C96849B91D2A07DD3A4A2244E4
:1044A0000021117511615175D0600BE009B1002A2E
:1044B00025DD00293ED0411A03EB4302D400324AE5
:1044C000224411610133022B44D803EB4301CA009B
:1044D0002D498C58002CF5D02B4911440A894D6880
:1044E000A168C94301EA152189B20029C8D0013267
:1044F00012B2002AC7DB1E2AC6DD1E22C4E703EB68
:104500004302D400204A2244527D3AB11E4A22443A
:10451000002111611175D1605175D3E7411A03EB88
:104520004302D400184A224411610121117500216F
:10453000D160C7E703EB4302D100134A0A44527D1E
:10454000002ABFD0104A0A44002111611175D160C0
:104550005175B7E70D4B1B68002B03DD0B4A136841
:10456000013B13600A4BD3F80824D3F80834013315
:104570009A4205D2064AD2F808340133C2F8083408
:1045800038BD00BF38260020541E00201C0000202B
:104590003C1F002008B5124B1B6813F0080F02D017
:1045A0000F4B08225A600E4B1B6813F0040F05D105
:1045B0000B4B1B6813F0020F09D108BD4FF40071BB
:1045C0000848FEF723F9064B04225A60F0E74FF43F
:1045D00000710548FEF71AF9014B02225A60ECE718
:1045E00000000240501A0020501C00200A4B1B689B
:1045F00013F4004F04D1084B1B6813F4005F0AD07A
:10460000054B5A6C22F001025A644FF400425A6082
:104610004FF400525A6070470000024082B0124BC3
:10462000D3F8003407E0104AC2F800340021C2F881
:104630000814D2F804240D4A126812F0200F0AD090
:104640000A4A5268D2B20849CA540133B3F5806F9E
:10465000E9D30023E7E7054B1A680192019A5B68EA
:104660000193019B02B070473C1F002000380140BD
:1046700038B5864BDB689BB1844B5B6A83B1834B57
:10468000DB6B6BB9814B1B69B3F5487F69D37F4BFB
:104690009B6AB3F5487F64D3FDF7E2FAFDF708FAA9
:1046A0007B4B1B78002B50D1784BDB6833B1774BB9
:1046B0005B6A1BB9754BDB6B002B53D0734B1B7DB7
:1046C000002B6BD1714BDB6833B9704B5B6A1BB14C
:1046D0006E4BDB6B002B70D06C4B93F82C30002BA7
:1046E00040F08A80694BDB683BB9684B5B6A23B951
:1046F000664BDB6B002B40F09F80644B93F844309B
:104700007BB3624B93F845305BBB604B012283F86F
:104710004520604B00221A605F4A537C83F00103FE
:10472000537413F0010309D1927B0132D2B2022AF1
:1047300000D81346584A9373584A1370584B41F2A5
:1047400088321A60FEF7D4FD0BE0002307E003EB8C
:104750004302D1004D4A0A44012151750B44022BFA
:10476000F5D938BD494B1B69B3F5FA7FF9D3474BEF
:104770005B7D002BF5D10125444B5D750021454B38
:10478000196064242246474802F0CBFF404B1D705D
:104790002046FDF74BFDFEF7ABFDE2E73B4B5B7DB3
:1047A000002BDED1394B01225A753A4A136883F047
:1047B00001031360FEF79CFDD3E7344B9B6AB3F50E
:1047C000FA7FCED3314B93F82D30002BC9D12F4B2C
:1047D000012283F82D2000212E4B196064242246EB
:1047E000304802F09EFF2A4B02221A702046FDF745
:1047F0001DFDFEF77DFDB4E7244B93F82D3003F04B
:10480000FF02002BADD1214B012183F82D10214B4C
:1048100000211960204BDB7B0133DBB2022B00D877
:104820001A461D4BDA73204B1A701D4B41F2883229
:104830001A60FEF75DFD94E7144B1B6CB3F5FA7F2D
:104840008FD3124B93F84530002B8AD10F4B0122A6
:1048500083F845200F4B00221A600F4B9B89B3F55C
:104860007A7F0ED00C4B4FF47A729A810A4B98895A
:10487000FDF7DCFC0A4B41F288321A60FEF738FD86
:104880006FE7054B64229A81F0E700BF541E0020B9
:10489000201F0020001F00204C24002018000020B2
:1048A0001C0000209C1E002014260020F8B5274B79
:1048B0005F6C17F0010705D1254B1B7C012B02D043
:1048C000022B2AD0F8BD0A2003F088FC3D461BE0ED
:1048D00005EBC4121F4B53F82200FBF79DFD024667
:1048E0000B461D4803F062FC0134062CF0D905F597
:1048F0006075184B53F82500FBF78EFD02460B46FA
:10490000164803F053FC35467F2DDBD86E1C31462C
:10491000134803F04BFC3C46E7E7124D2C46124B84
:1049200044F8063B4FF4805632460A49204602F0CE
:10493000D0FE324621460020FDF736F8A88041F22D
:1049400006012846FDF72EF9BCE700BF0000024033
:104950004C240020480A002018C6000820C6000881
:1049600010C60008DC2A002096196219002800F001
:104970004E832DE9F0478AB00C460546002900F029
:104980003083002604E003F093FFC0B23870013694
:10499000A6420BD2AF19A85D0928F4D12020F5E773
:1049A000013C2246691C284602F0A1FE14B12B7876
:1049B000202BF5D93CB1631EEA5C202A03D80022E3
:1049C000EA541C46F6E7002C00F00B8300272F5515
:1049D000BC4204D9EB5D202B01D90137F8E7002355
:1049E000EB5507F10108A04502D8E41B013C00E0AB
:1049F00000240026B14600E0013606EB4603A44A37
:104A000052F8231099B102EB830393F808A0BAF18E
:104A1000000F0CD03A46284603F0B0FE0028EBD138
:104A2000B9F1000F01D1D146E6E74FF0000904B912
:104A3000B846A84409F1FF39B9F10E0F00F2E2823D
:104A4000DFE819F00F000F0041003A009700B200B4
:104A500003024902CD005401B401E002E002670202
:104A6000AA0200252C4600E0013404EB4403884AE6
:104A700052F8230048B102EB83031B7A2BB1FCF7F9
:104A80003DF8A842F0D90546EEE7824803F028FC3D
:104A9000002404EB44037E4A52F82320002A00F04D
:104AA000A08219467A4B03EB81035B6829467A485A
:104AB00003F07CFB0134ECE7784803F011FCFDF7D0
:104AC000CFF8FCF7F5FFF4B1002306930A2206A9FC
:104AD000404603F0E3FE044602F0F8FB0368002BB7
:104AE00019DC069B434516D0B4F5E13F13DBB4F562
:104AF000612F10DCB4F5612FA8BF4FF46124684B1F
:104B00009B68A3420CD1664B9968664803F04EFB44
:104B1000FEF7EEFB65E24146634803F047FB60E2C7
:104B20005F4B9C60614BDB6803EB830303EB830308
:104B3000A400B3FBF4F35E48A0FB032149090A017A
:104B400092B2642404FB11331B013233A0FB031324
:104B5000C3F34F1303F0F0010A4492B203F00F03C2
:104B600013449BB2534A9360534B41F288321A600C
:104B7000C9E7524B1B789BB9514803F0B1FB0021A8
:104B8000504B1960642422464F4802F0CAFD4B4B3B
:104B900001221A702046FDF749FBFEF7A9FB20E22F
:104BA0004A4803F09DFB1CE2444B1B789BB94848E4
:104BB00003F096FB0021434B1960642422464248CF
:104BC00002F0AFFD3D4B02221A702046FDF72EFB8E
:104BD000FEF78EFB05E23D4803F082FB01E2A4B93B
:104BE0002F4B9B89B3F57A7F41D23A4A20213A482C
:104BF00003F018FD384C2046FCF78EFF214637485D
:104C000003F0D4FAFEF774FBEBE1002306930A22CB
:104C100006A9404603F042FE044602F057FB036833
:104C2000002B1CDC069B434519D0632C17DD42F298
:104C300010739C4213DC42F21070A042A8BF2046C1
:104C400080B2174B9B898342CAD0154B98811B4B6E
:104C50001B784BB1184B41F288321A60C0E74146CD
:104C60001F4803F0A3FABCE1FDF7E0FAF2E71846AB
:104C7000FBF7E4FC1B49FBF735FDFBF7CDFBCDE96A
:104C80000001194A2021144803F0CCFCB2E700BF10
:104C90004CC9000880C60008BCC60008C8C6000889
:104CA0004C24002000C70008E0C60008241F002094
:104CB0001F85EB51003801401C000020201F002000
:104CC00018C70008001F00209C1E002010C7000805
:104CD00034C7000874C70008182600207CC70008E5
:104CE00054C700086F12833AF4C500089CB12246ED
:104CF0008A49404603F042FD08BB894B02229A7361
:104D0000874B9A7B874B1A70874B41F288321A6027
:104D1000864B00221A60864B0FCB0AAC04E90F00C9
:104D20007F4B9B7B012B33D0022B33D0002B39D010
:104D300001237B4A93737B4A13707E492BE0224602
:104D40007C49404603F01AFD28B122467A49404684
:104D500003F014FD18B9724B00229A73D0E7224673
:104D60007649404603F00AFD18B96D4B01229A734B
:104D7000C6E722467249404603F000FD18B9684B69
:104D800003229A73BCE741466E4803F00FFA28E10C
:104D90006A4900E0614939B16B4803F007FAFEF750
:104DA000A7FA1EE16349F6E76849F5E79CB1224698
:104DB0006749404603F0E2FC00BB594B0022DA731E
:104DC000574BDA7B634B1A70574B41F288321A60AB
:104DD000564B00221A60604B0FCB0AAC04E90F005F
:104DE0004F4BDB7B012B22D0022B22D04BB3002375
:104DF0004B4AD373574A137055491BE02246574913
:104E0000404603F0BBFC18B9454B0122DA73D7E7E3
:104E100022464B49404603F0B1FC18B9404B0222F0
:104E2000DA73CDE741464E4803F0C0F9D9E04B496B
:104E300000E0434939B14B4803F0B8F9FEF758FA9E
:104E4000CFE04349F6E74149F5E764B122464649D8
:104E5000404603F093FCB8B9314B00221A74324B30
:104E600041F288321A60414B0FCB0AAC04E90F00C3
:104E70002B4B1B7C012B20D0022B20D03BB3284B8B
:104E800000221A7438491BE022463949404603F093
:104E900075FC18B9224B01221A74E0E72246354905
:104EA000404603F06BFC18B91D4B02221A74D6E77A
:104EB0004146314803F07AF993E02D4900E02D494D
:104EC00039B12E4803F072F9FEF712FA89E026494B
:104ED000F6E71E49F5E72A4B1B7893B9134C236874
:104EE00083F001032360274803F060F9002002F0FB
:104EF000B1FA23684BB1244803F0F2F9FEF7F8F950
:104F00006FE0224803F0ECF96BE0214803F0E8F988
:104F1000F4E7204803F0E4F9FCF7CAFDA4C2000856
:104F20004C240020180000201C000020001F00203E
:104F300020A800088CC2000898C7000898C2000882
:104F4000B0C20008A0C70008C0C7000814C8000805
:104F5000B8C200081426002030A80008C0C200080B
:104F6000D0C70008ECC70008E4C3000840A8000848
:104F7000D4C20008DCC20008FCC7000818C800083A
:104F8000201F002028C8000834C8000810C70008E7
:104F90003CC8000844C800081D4B1B7823B31D4AB9
:104FA0001B4B5B7813B31C4B1949897801B31B4920
:104FB0001748C078F0B11A48154C2479E4B1194C5F
:104FC000134D6D79D5B1184D114EB679C6B1174E46
:104FD000049603950294019000911549154803F039
:104FE000E5F80AB0BDE8F087134AD9E7134BDBE7D1
:104FF0001349DDE71348DFE7134CE1E7134DE3E71F
:10500000134EE5E72946134803F0D0F8E9E7704767
:10501000341F00202CC6000834C600083CC6000817
:1050200048C6000858C6000868C6000878C60008C8
:105030006CC5000854C8000828C6000830C600081F
:1050400038C6000840C6000850C6000860C6000800
:1050500070C6000880C800082DE9F0413C4BD3F829
:105060000054D3F80444D3F8082440F6B7339A42E6
:1050700005D9A54209D1364BD3F80C352BB9A54239
:1050800009D0334BD3F80C651FE0314BC3F80454FF
:105090000022C3F80C25BDE8F081C4F5806318E058
:1050A0002B4BC3F804540022C3F80C25F3E78B42C2
:1050B0003DD9274B0022C3F8082403F20C43C91A38
:1050C0003CD10026224BC3F80C65AC42E3D0E4D8B7
:1050D0002B1B002BDFD0C6F580779F4228BF1F46D1
:1050E000002FDDD0DFF8688006F5816040443A4645
:1050F00008EB0401043002F0ECFA3E44C8F80C65F9
:105100003C44B4F5806F00D300241149C1F8044435
:1051100001F20C410F4B33448B42C8D90A780D2A57
:10512000C5D00A2AC3D0002AC1D00131F2E7FE2E31
:10513000CBD90026064BC3F80C65C6E7A3F20C409A
:10514000431883F80C2400F20C40FFF70FFCB8E77B
:105150003C1F0020482300202DE9F041A74B1B787D
:10516000012B04D0022B00F0A580BDE8F0810024C3
:105170000BE0A34B03EB8403A24D05EB84055968B8
:105180006868FBF7A7F968600134072CF1D900259E
:105190001DE005F108029A4B03EB82039A49586817
:1051A000FBF7A0FA064600F0ADFE01462B1D954C1C
:1051B00004EBC3046068FBF78DF96060304600F0D3
:1051C00019FF0146A068FBF785F9A0600135072D9E
:1051D000DFD98E4B41F288321A608A4B1F68013743
:1051E0001F60032FC1DD8A4B1D88B5F5967F94BFE4
:1051F000002401240026072E15D8824B03EB8603DA
:10520000D3F804803846FBF719FA01464046FBF70D
:105210001DFB04EB041333440C337E4A02EB83037F
:1052200058600136E7E7002613E0331D754A02EBAC
:10523000C3033946986800F017FF7749FBF752FA25
:1052400004EB041333441433724A02EB83035860B3
:105250000136072E0CD8331D6A4A02EBC3035F6880
:1052600000213846FBF7D2FB0028DED06B48E7E789
:1052700004EB0414674B03EB8404012384F87430BB
:10528000B5F5967F0BD8642200215E4802F049FAFA
:105290004FF47A70FCF7CAFFFEF72AF865E760481A
:1052A00003F01EF85B4B9889FCF7C0FF534B0022BC
:1052B0001A70F1E700240BE0514B03EB8403514DCE
:1052C00005EB840559686868FBF704F968600134E8
:1052D000072CF1D900251DE005F10802484B03EB2E
:1052E000820349495868FBF7FDF9064600F00AFEBB
:1052F00001462B1D434C04EBC3046068FBF7EAF83E
:105300006060304600F076FE0146A068FBF7E2F8E8
:10531000A0600135072DDFD93C4B41F288321A607D
:10532000384B1F6801371F60032F7FF71EAF384BC4
:105330001D88B5F5967F94BF002401240026072E12
:1053400015D8304B03EB8603D3F804803846FBF7BF
:1053500075F901464046FBF779FA04EB0413334430
:105360002E332C4A02EB830358600136E7E7002610
:1053700013E0331D234A02EBC3033946986800F05B
:1053800073FE2549FBF7AEF904EB041333443633BF
:10539000204A02EB830358600136072E0CD8331DD8
:1053A000184A02EBC3035F6800213846FBF72EFB67
:1053B0000028DED01948E7E704EB0414154B03EB93
:1053C0008404012384F8FC30B5F5967F0BD8642261
:1053D00000210C4802F0A5F94FF47A70FCF726FF83
:1053E000FDF786FFC1E60F4802F07AFF094B988966
:1053F000FCF71CFF014B00221A70F1E7201F002070
:105400003C2600209C1E002035FA8E3C1C0000200B
:105410001A0000204C240020E12E65420000C07FCD
:10542000A0C80008C0C8000870B588B0964A936943
:1054300043F001039361936903F001030793079B12
:10544000D36943F08053D361D36903F0805306934B
:10545000069B8E494B6823F0E06343F000734B607A
:105460008B4B596841F480715960596841F400715F
:105470005960596841F480615960596841F400618C
:105480005960596841F480515960596841F400519C
:105490005960596841F400415960596841F48031BC
:1054A0005960596841F4804159607A48C16821F4D3
:1054B000E0610904090C784B0B43C360516AC1F3E6
:1054C000C061764B1970516AC1F380615970516A9D
:1054D000C1F300719970516AC1F34071D970516A7A
:1054E000C1F380711971516AC90F5971916801F046
:1054F00001019971536A43F080735362684BA2F5BE
:1055000082321A60674959609A6101F12011D961AC
:105510001A63654A5A63654C654B63604FF46123B7
:10552000A3604FF47A73A3810123A3730223E3736F
:1055300000232374FCF758FAFBF7FCFDFEF7E2FAB0
:105540005C48FCF731F9FEF7B5FEFEF7B5FD4FF00C
:1055500072515948FCF748FDFCF7D6FBA368B3F538
:10556000E13F4CD3B3F5612F28BF4FF461234F4C7B
:10557000A36061684FF07E50FBF768F94F4B1860ED
:10558000A27B4F4B1A70E27B4E4B1A704E4B1B782E
:10559000DBB24E4AD05C4E4B1860FCF741FBA08951
:1055A000FCF744FEFDF720FEFDF72EFE3B4B1B787B
:1055B000002B27D0474A394B5B782BB3464B3749F2
:1055C000897819B345493548C07808B34448334C05
:1055D0002479FCB1434C314D6D79EDB1424D2F4EE4
:1055E000B679DEB1414E0496039502940190009184
:1055F0003F49404802F0DAFD3F4B1C6822E04FF47F
:10560000E133B4E73D4AD6E73D4BD8E73D49DAE719
:105610003D48DCE73D4CDEE73D4DE0E73D4EE2E74F
:105620000133022B0AD803EB43021D4901EBC202EE
:10563000128912B2002AF3DD0446F1E7001BB0F52F
:105640007A7F04D230BF2C4B18680023E9E7002191
:105650000BE001EB4102124B03EBC20300225A752F
:105660001A81DA601A751A6101310229F1D9FEF73F
:10567000D3FAFEF793FC4FF47A70FCF753F9264BFC
:1056800000221A704DE000BF0010024000000140EF
:10569000002004E000ED00E00003FA05341F0020C4
:1056A000541E002020002004800080044C24002090
:1056B00000007A44241F0020101F00201400002046
:1056C0001800002014260020E23A002048C90008F3
:1056D0003C2600202CC6000834C600083CC6000842
:1056E00048C6000858C6000868C6000878C6000802
:1056F0006CC50008E0C800083826002028C600084D
:1057000030C6000838C6000840C6000850C6000869
:1057100060C6000870C60008100000201A4B1B6805
:105720001BB3BFF34F8F30BFFEF7A2FFFFF794FC10
:10573000FDF7DAF9154A1378DBB21549C95C154B48
:1057400019601378DBB2032BE8D9FDF771FAFFF784
:1057500003FDFDF7CDFDFFF7A9F80F4A13680133EC
:1057600013600A4B00221A70D8E7FCF7DFFA002812
:1057700001DAFCF7DBFA044B4FF0FF321A600748FE
:1057800002F0AEFDCDE700BF1C000020E23A002091
:1057900048C900083C260020081F002014C9000842
:1057A00008B54FF6FF710120FCF766F908BD10B58A
:1057B00082B000248DF804408DF80500022201A972
:1057C000782000F023FB204602B010BD08B530B9A8
:1057D00000214FF48062034801F0A3FF08BDFF21C0
:1057E000F7E700BFEC3A002010B5A2B040238DF8D7
:1057F0000430002418E0A4F15000C0B2FFF7D7FF36
:105800000020FFF7D4FF1020FFF7D1FF80220849C6
:1058100001EBC4110DF1050001F05BFF812201A92C
:10582000782000F0F3FA0134072CE4DD22B010BD3B
:10583000EC3A002010B50023494A53710CE0DA0815
:10584000D201484921F8132003F0070101228A40C0
:105850004549CA5401339BB23F2BF0D96420FBF772
:105860008DFCAE20FFF7A3FF04462020FFF79FFF2B
:1058700004441020FFF79BFF0444B020FFF797FF7C
:105880000444C820FFF793FF04440020FFF78FFF74
:1058900004441020FFF78BFF04444020FFF787FFEC
:1058A00004448120FFF783FF0444FF20FFF77FFFBC
:1058B0000444A120FFF77BFF0444A620FFF777FFF5
:1058C0000444A820FFF773FF04443F20FFF76FFF55
:1058D0000444A420FFF76BFF0444D320FFF767FFC5
:1058E00004440020FFF763FF0444D520FFF75FFF67
:1058F0000444F020FFF75BFF0444D920FFF757FF73
:1059000004442220FFF753FF0444DA20FFF74FFF3F
:1059100004441220FFF74BFF0444DB20FFF747FF4E
:1059200004442020FFF743FF04448D20FFF73FFF8E
:1059300004441420FFF73BFF0444AF20FFF737FF78
:10594000E04201D0012010BD0020FFF73FFFFFF72C
:105950004BFF034B00201880588001225A71F2E758
:10596000E43A0020EC3E00206C3F00200F4B5B79B6
:10597000B3B17F2814D83F2912D80C4B1B7913B12F
:10598000B2FA82F252090A4B33F811301844094B2B
:105990005B5C012A05D008490A5C22EA03030B5428
:1059A0007047054A115C0B4313547047E43A0020DA
:1059B000EC3E00206C3F0020EC3A00202DE9F04F37
:1059C00083B004460190274B5879002840D089467F
:1059D00016461B880F783B447F2B38DC214B5B88B5
:1059E00091F801A053443F2B35DC8B78A34234D887
:1059F000CA78A24233D3E31A0AFB03FB002514E062
:105A00003246FFF7B3FF0134BC420DD2154B188864
:105A100020445988294408FA04F313F4004FEFD1C5
:105A2000B6FA86F25209ECE70135554507D2D9F8A6
:105A3000043005EB0B0233F812800024E4E799F8F8
:105A40000030084A11880B441380019800E00020C0
:105A500003B0BDE8F08F0020FAE70020F8E700204F
:105A6000F6E700BFE43A002070B504460E4615463E
:105A700004E001342A463146FFF7A0FF20780028D1
:105A8000F7D170BD014B188059807047E43A00206F
:105A9000024B1A8802805B880B807047E43A002032
:105AA0000C4B1B881844002810DD8028A8BF8020DC
:105AB00080B2084B18805B881944002908DD402912
:105AC000A8BF402189B2034B598070470020F0E7FE
:105AD0000021F8E7E43A00202DE9F04104460D46A4
