:020000040800F2
:1000000000500020BD5700087D42000887420008CC
:100010008F420008974200089F420008000000003D
:10002000000000000000000000000000A7420008DF
:10003000A942000800000000AB420008AD420008E1
:10004000055800080558000805580008055800081C
:10005000055800080558000805580008055800080C
:10006000055800080558000805580008DD43000839
:1000700005580008055800082D44000805580008D8
:1000800005580008055800080558000805580008DC
:1000900005580008055800080558000805580008CC
:1000A00005580008055800080558000805580008BC
:1000B00005580008055800080558000805580008AC
:1000C000055800080558000805580008055800089C
:1000D0000558000865440008055800080558000840
:1000E00005580008055800080558000800000000E1
:1000F0000000000000000000000000000000000000
:0C01000000000000000000005FF808F1A3
:1001100010B5054C237833B9044B13B10448AFF341
:1001200000800123237010BD0002002000000000A9
:10013000A49F000808B5034B1BB103490348AFF364
:10014000008008BD0000000004020020A49F0008F9
:1001500081F0004102E000BF83F0004330B54FEA78
:1001600041044FEA430594EA050F08BF90EA020FE5
:100170001FBF54EA000C55EA020C7FEA645C7FEA78
:10018000655C00F0E2804FEA5454D4EB5555B8BF9B
:100190006D420CDD2C4480EA020281EA030382EA0C
:1001A000000083EA010180EA020281EA0303362D9E
:1001B00088BF30BD11F0004F4FEA01314FF4801C71
:1001C0004CEA113102D0404261EB410113F0004F83
:1001D0004FEA03334CEA133302D0524263EB43033A
:1001E00094EA050F00F0A780A4F10104D5F1200ED8
:1001F0000DDB02FA0EFC22FA05F2801841F1000133
:1002000003FA0EF2801843FA05F359410EE0A5F106
:1002100020050EF1200E012A03FA0EFC28BF4CF037
:10022000020C43FA05F3C01851EBE37101F00045ED
:1002300007D54FF0000EDCF1000C7EEB00006EEBFA
:100240000101B1F5801F1BD3B1F5001F0CD3490884
:100250005FEA30004FEA3C0C04F101044FEA4452DB
:1002600012F5800F80F09A80BCF1004F08BF5FEA62
:10027000500C50F1000041EB045141EA050130BD42
:100280005FEA4C0C404141EB010111F4801FA4F1E5
:100290000104E9D191F0000F04BF01460020B1FA3A
:1002A00081F308BF2033A3F10B03B3F120020CDA72
:1002B0000C3208DD02F1140CC2F10C0201FA0CF050
:1002C00021FA02F10CE002F11402D8BFC2F1200CB5
:1002D00001FA02F120FA0CFCDCBF41EA0C0190406B
:1002E000E41AA2BF01EB0451294330BD6FEA0404B4
:1002F0001F3C1CDA0C340EDC04F11404C4F120029F
:1003000020FA04F001FA02F340EA030021FA04F3B0
:1003100045EA030130BDC4F10C04C4F1200220FA07
:1003200002F001FA04F340EA0300294630BD21FA45
:1003300004F0294630BD94F0000F83F4801306BF0B
:1003400081F480110134013D4EE77FEA645C18BFFF
:100350007FEA655C29D094EA050F08BF90EA020F96
:1003600005D054EA000C04BF1946104630BD91EA8E
:10037000030F1EBF0021002030BD5FEA545C05D191
:100380004000494128BF41F0004130BD14F58004D0
:100390003CBF01F5801130BD01F0004545F0FE4144
:1003A00041F470014FF0000030BD7FEA645C1ABF79
:1003B000194610467FEA655C1CBF0B46024650EAB0
:1003C000013406BF52EA033591EA030F41F40021DC
:1003D00030BD00BF90F0000F04BF0021704730B562
:1003E0004FF4806404F132044FF000054FF0000137
:1003F00050E700BF90F0000F04BF0021704730B5F8
:100400004FF4806404F1320410F0004548BF4042CC
:100410004FF000013EE700BF42004FEAE2014FEA21
:1004200031014FEA02701FBF12F07F4393F07F4FFC
:1004300081F06051704732F07F4208BF704793F0FF
:100440007F4F04BF41F40021704730B54FF4607412
:1004500001F0004521F000411CE700BF50EA010215
:1004600008BF704730B54FF000050AE050EA0102BE
:1004700008BF704730B511F0004502D5404261EB2E
:1004800041014FF4806404F132045FEA915C3FF46F
:10049000D8AE4FF003025FEADC0C18BF03325FEA0C
:1004A000DC0C18BF033202EBDC02C2F1200300FABD
:1004B00003FC20FA02F001FA03FE40EA0E0021FAE2
:1004C00002F11444BDE600BF80F0004002E000BF2E
:1004D00081F0004142001FBF5FEA410392EA030F2F
:1004E0007FEA226C7FEA236C6AD04FEA1262D2EB79
:1004F0001363C1BFD218414048404140B8BF5B427E
:10050000192B88BF704710F0004F40F4000020F016
:100510007F4018BF404211F0004F41F4000121F02C
:100520007F4118BF494292EA030F3FD0A2F1010276
:1005300041FA03FC10EB0C00C3F1200301FA03F1B4
:1005400000F0004302D5494260EB4000B0F5000FD7
:1005500013D3B0F1807F06D340084FEA310102F196
:100560000102FE2A51D2B1F1004F40EBC25008BF48
:1005700020F0010040EA03007047490040EB000012
:1005800010F4000FA2F10102EDD1B0FA80FCACF141
:10059000080CB2EB0C0200FA0CF0AABF00EBC25040
:1005A00052421843BCBFD0401843704792F0000F2E
:1005B00081F4000106BF80F400000132013BB5E781
:1005C0004FEA41037FEA226C18BF7FEA236C21D0F7
:1005D00092EA030F04D092F0000F08BF084670475C
:1005E00090EA010F1CBF0020704712F07F4F04D12A
:1005F000400028BF40F00040704712F100723CBF3D
:1006000000F50000704700F0004343F0FE4040F466
:10061000000070477FEA226216BF08467FEA236324
:100620000146420206BF5FEA412390EA010F40F40F
:10063000800070474FF0000304E000BF10F000435B
:1006400048BF40425FEA000C08BF704743F0964342
:1006500001464FF000001CE050EA010208BF70475D
:100660004FF000030AE000BF50EA010208BF7047E4
:1006700011F0004302D5404261EB41015FEA010CF9
:1006800002BF84460146002043F0B64308BFA3F1F1
:100690008053A3F50003BCFA8CF2083AA3EBC253D3
:1006A00010DB01FA02FC634400FA02FCC2F12002F2
:1006B000BCF1004F20FA02F243EB020008BF20F029
:1006C0000100704702F1200201FA02FCC2F120028F
:1006D00050EA4C0021FA02F243EB020008BF20EA84
:1006E000DC7070474FF0FF0C1CEAD0521EBF1CEAB2
:1006F000D15392EA0C0F93EA0C0F6FD01A4480EAA0
:10070000010C400218BF5FEA41211ED04FF0006388
:1007100043EA501043EA5111A0FB01310CF00040B4
:10072000B1F5000F3EBF490041EAD3715B0040EADA
:10073000010062F17F02FD2A1DD8B3F1004F40EBAA
:10074000C25008BF20F00100704790F0000F0CF07D
:10075000004C08BF49024CEA502040EA51207F3A41
:10076000C2BFD2F1FF0340EAC250704740F400001C
:100770004FF00003013A5DDC12F1190FDCBF00F00D
:1007800000407047C2F10002410021FA02F1C2F1BB
:10079000200200FA02FC5FEA310040F1000053EA57
:1007A0004C0308BF20EADC70704792F0000F00F0A5
:1007B000004C02BF400010F4000F013AF9D040EAAB
:1007C0000C0093F0000F01F0004C02BF490011F43F
:1007D000000F013BF9D041EA0C018FE70CEAD1533D
:1007E00092EA0C0F18BF93EA0C0F0AD030F0004CBD
:1007F00018BF31F0004CD8D180EA010000F0004071
:10080000704790F0000F17BF90F0004F084691F02E
:10081000000F91F0004F14D092EA0C0F01D1420268
:100820000FD193EA0C0F03D14B0218BF084608D131
:1008300080EA010000F0004040F0FE4040F400007B
:10084000704740F0FE4040F4400070474FF0FF0C0E
:100850001CEAD0521EBF1CEAD15392EA0C0F93EA55
:100860000C0F69D0A2EB030280EA010C49024FEAA7
:10087000402037D04FF0805343EA111143EA101360
:100880000CF000408B4238BF5B0042F17D024FF418
:10089000000C8B4224BF5B1A40EA0C00B3EB510FF3
:1008A00024BFA3EB510340EA5C00B3EB910F24BFDC
:1008B000A3EB910340EA9C00B3EBD10F24BFA3EB61
:1008C000D10340EADC001B0118BF5FEA1C1CE0D129
:1008D000FD2A3FF650AF8B4240EBC25008BF20F0DC
:1008E000010070470CF0004C4CEA50207F32C2BF30
:1008F000D2F1FF0340EAC250704740F400004FF0CD
:100900000003013A37E792F0000F00F0004C02BFFD
:10091000400010F4000F013AF9D040EA0C0093F0C7
:10092000000F01F0004C02BF490011F4000F013B21
:10093000F9D041EA0C0195E70CEAD15392EA0C0F89
:1009400008D142027FF47DAF93EA0C0F7FF470AFC1
:10095000084676E793EA0C0F04D14B023FF44CAF04
:1009600008466EE730F0004C18BF31F0004CCAD199
:1009700030F000427FF45CAF31F000437FF43CAFD5
:100980005FE700BF4FF0FF3C06E000BF4FF0010CF7
:1009900002E000BF4FF0010C4DF804CD4FEA4002D9
:1009A0004FEA41037FEA226C18BF7FEA236C11D023
:1009B00001B052EA530C18BF90EA010F58BFB2EBD6
:1009C000030088BFC81738BF6FEAE17018BF40F056
:1009D000010070477FEA226C02D15FEA402C05D10A
:1009E0007FEA236CE4D15FEA412CE1D05DF8040B8F
:1009F000704700BF844608466146FFE70FB5FFF722
:100A0000C9FF002848BF10F1000F0FBD4DF808EDD9
:100A1000FFF7F4FF0CBF012000205DF808FB00BFCA
:100A20004DF808EDFFF7EAFF34BF012000205DF824
:100A300008FB00BF4DF808EDFFF7E0FF94BF012071
:100A400000205DF808FB00BF4DF808EDFFF7D2FF6E
:100A500094BF012000205DF808FB00BF4DF808EDB1
:100A6000FFF7C8FF34BF012000205DF808FB00BF7E
:100A70004FEA4002B2F1FE4F0FD34FF09E03B3EBAB
:100A800012620DD94FEA002343F0004310F0004FEB
:100A900023FA02F018BF404270474FF00000704741
:100AA00012F1610F01D1420205D110F0004008BFE0
:100AB0006FF0004070474FF00000704742000ED2C8
:100AC000B2F1FE4F0BD34FF09E03B3EB126209D489
:100AD0004FEA002343F0004323FA02F070474FF03F
:100AE0000000704712F1610F01D1420202D14FF0B4
:100AF000FF3070474FF00000704700BF10F8012B27
:100B000011F8013B012A28BF9A42F7D0D01A70474A
:100B1000034613F8012B002AFBD1181A013870473D
:100B200070B54FF0FF0C4CF4E06C1CEA11541DBF83
:100B30001CEA135594EA0C0F95EA0C0F00F0DEF84E
:100B40002C4481EA030621EA4C5123EA4C5350EA33
:100B5000013518BF52EA033541F4801143F4801384
:100B600038D0A0FB02CE4FF00005E1FB02E506F015
:100B70000042E0FB03E54FF00006E1FB03569CF06A
:100B8000000F18BF4EF0010EA4F1FF04B6F5007F70
:100B900064F5407404D25FEA4E0E6D4146EB0606E2
:100BA00042EAC62141EA55514FEAC52040EA5E506B
:100BB0004FEACE2EB4F1FD0C88BFBCF5E06F1ED815
:100BC000BEF1004F08BF5FEA500E50F1000041EB4C
:100BD000045170BD06F0004646EA010140EA0200F9
:100BE00081EA0301B4EB5C04C2BFD4EB0C0541EA1B
:100BF000045170BD41F480114FF0000E013C00F330
:100C0000AB8014F1360FDEBF002001F0004170BD53
:100C1000C4F10004203C35DA0C341BDC04F114046C
:100C2000C4F1200500FA05F320FA04F001FA05F2F8
:100C300040EA020001F0004221F0004110EBD370C5
:100C400021FA04F642EB06015EEA430E08BF20EAF1
:100C5000D37070BDC4F10C04C4F1200500FA04F394
:100C600020FA05F001FA04F240EA020001F0004126
:100C700010EBD37041F100015EEA430E08BF20EA99
:100C8000D37070BDC4F1200500FA05F24EEA020EE1
:100C900020FA04F301FA05F243EA020321FA04F010
:100CA00001F0004121FA04F220EA020000EBD370C7
:100CB0005EEA430E08BF20EAD37070BD94F0000FC7
:100CC0000FD101F00046400041EB010111F4801FFB
:100CD00008BF013CF7D041EA060195F0000F18BFAC
:100CE000704703F00046520043EB030313F4801FE8
:100CF00008BF013DF7D043EA0603704794EA0C0FA2
:100D00000CEA135518BF95EA0C0F0CD050EA4106B7
:100D100018BF52EA4306D1D181EA030101F0004134
:100D20004FF0000070BD50EA410606BF104619465C
:100D300052EA430619D094EA0C0F02D150EA013668
:100D400013D195EA0C0F05D152EA03361CBF1046A9
:100D500019460AD181EA030101F0004141F0FE4148
:100D600041F470014FF0000070BD41F0FE4141F4CC
:100D7000780170BD70B54FF0FF0C4CF4E06C1CEACC
:100D800011541DBF1CEA135594EA0C0F95EA0C0F81
:100D900000F0A7F8A4EB050481EA030E52EA03353C
:100DA0004FEA013100F088804FEA03334FF080555D
:100DB00045EA131343EA12634FEA022245EA11158A
:100DC00045EA10654FEA00260EF000419D4208BF3B
:100DD000964244F1FD0404F5407402D25B084FEAE8
:100DE0003202B61A65EB03055B084FEA32024FF494
:100DF00080104FF4002CB6EB020E75EB030E22BFF1
:100E0000B61A754640EA0C005B084FEA3202B6EBB0
:100E1000020E75EB030E22BFB61A754640EA5C005F
:100E20005B084FEA3202B6EB020E75EB030E22BFEF
:100E3000B61A754640EA9C005B084FEA3202B6EBF0
:100E4000020E75EB030E22BFB61A754640EADC00AF
:100E500055EA060E18D04FEA051545EA16754FEA11
:100E600006164FEAC30343EA52734FEAC2025FEA2F
:100E70001C1CC0D111F4801F0BD141EA00014FF0BE
:100E800000004FF0004CB6E711F4801F04BF01438F
:100E90000020B4F1FD0C88BFBCF5E06F3FF6AFAEAB
:100EA000B5EB030C04BFB6EB020C5FEA500C50F13B
:100EB000000041EB045170BD0EF0004E4EEA1131BE
:100EC00014EB5C04C2BFD4EB0C0541EA045170BDC5
:100ED00041F480114FF0000E013C90E645EA060E09
:100EE0008DE60CEA135594EA0C0F08BF95EA0C0F37
:100EF0003FF43BAF94EA0C0F0AD150EA01347FF47F
:100F000034AF95EA0C0F7FF425AF104619462CE755
:100F100095EA0C0F06D152EA03353FF4FDAE1046B8
:100F2000194622E750EA410618BF52EA43067FF409
:100F3000C5AE50EA41047FF40DAF52EA43057FF499
:100F4000EBAE12E74FF0FF3C06E000BF4FF0010CA4
:100F500002E000BF4FF0010C4DF804CD4FEA410C08
:100F60007FEA6C5C4FEA430C18BF7FEA6C5C1BD0D5
:100F700001B050EA410C0CBF52EA430C91EA030F56
:100F800002BF90EA020F0020704710F1000F91EAB3
:100F9000030F58BF994208BF90422CBFD8176FEA81
:100FA000E37040F0010070474FEA410C7FEA6C5C4F
:100FB00002D150EA013C07D14FEA430C7FEA6C5C56
:100FC000D6D152EA033CD3D05DF8040B704700BF82
:100FD0008446104662468C461946634600E000BFD0
:100FE00001B5FFF7B7FF002848BF10F1000F01BDA2
:100FF0004DF808EDFFF7F4FF0CBF012000205DF86D
:1010000008FB00BF4DF808EDFFF7EAFF34BF0120F1
:1010100000205DF808FB00BF4DF808EDFFF7E0FF8A
:1010200094BF012000205DF808FB00BF4DF808EDDB
:10103000FFF7CEFF94BF012000205DF808FB00BF42
:101040004DF808EDFFF7C4FF34BF012000205DF824
:1010500008FB00BF4FEA410C7FEA6C5C02D150EA0A
:10106000013C0AD14FEA430C7FEA6C5C02D152EAA0
:10107000033C02D14FF0000070474FF00100704771
:101080004FEA410212F5001215D211D56FF47873B0
:10109000B3EB625212D94FEAC12343F0004343EA53
:1010A000505311F0004F23FA02F018BF404270472E
:1010B0004FF00000704750EA013005D111F00040B8
:1010C00008BF6FF0004070474FF00000704700BF4E
:1010D0004FEA4102B2F1E04324BFB3F5001CDCF15A
:1010E000FE5C0DD901F0004C4FEAC0024CEA507092
:1010F000B2F1004F40EB830008BF20F001007047C1
:1011000011F0804F21D113F13872BCBF01F00040C3
:10111000704741F480114FEA5252C2F11802C2F1F5
:10112000200C10FA0CF320FA02F018BF40F0010076
:101130004FEAC1234FEAD32303FA0CFC40EA0C0028
:1011400023FA02F34FEA4303CCE77FEA625307D165
:1011500050EA01331EBF4FF0FE4040F4400070479C
:1011600001F0004040F0FE4040F40000704700BF36
:101170004FEA40024FEA41037FEA226C02D15FEA64
:10118000402C08D17FEA236C02D15FEA412C02D1C6
:101190004FF0000070474FF00100704710B5044653
:1011A0000E4B18784FF47A73B3FBF0F30C4A1068C7
:1011B000B0FBF3F000F09EF868B90F2C01D90120C4
:1011C0000AE0002221464FF0FF3000F05FF8054BA7
:1011D0001C60002000E0012010BD00BF00000020C6
:1011E000280000200400002008B5074A136843F0D7
:1011F00010031360032000F037F80F20FFF7CEFF35
:1012000002F09AFB002008BD00200240034A11684A
:10121000034B1B780B441360704700BF94390020C8
:1012200000000020014B1868704700BF943900206F
:1012300038B50446FFF7F6FF0546B4F1FF3F02D08C
:10124000044B1B781C44FFF7EDFF401BA042FAD370
:1012500038BD00BF00000020024A136823F00203DB
:101260001360704710E000E0074AD36823F4E0639E
:101270001B041B0C000200F4E060184340F0BF6048
:1012800040F40030D060704700ED00E030B4174B00
:10129000DB68C3F30223C3F10704042C28BF042432
:1012A0001D1D062D18D9033B4FF0FF3505FA04F438
:1012B00021EA0401994005FA03F322EA03031943E2
:1012C00000280BDB0901C9B200F1604000F5614064
:1012D00080F8001330BC70470023E5E700F00F00F2
:1012E0000901C9B2024B1954F4E700BF00ED00E058
:1012F00014ED00E00138B0F1807F0AD2064B58604F
:10130000064AF02182F823100020986007221A6014
:1013100070470120704700BF10E000E000ED00E0E2
:10132000044B0022DA61044A136943F0010313619C
:101330000180704798390020002002401A4BDB687A
:1013400013F0100F27D0194AD36943F00203D36179
:101350001023154AD26812F0040F06D01349CA6947
:1013600042F00102CA6143F004030F4AD26912F04D
:10137000010F09D00D49CA6942F00402CA610A4945
:10138000CA6922F00102CA6140F20112934204D0FC
:10139000054AD36070470023DBE7034AD36923F093
:1013A0000103D361704700BF00200240983900203C
:1013B0000A4B1B6913F0800F0DD0084B084A5A6086
:1013C00002F188325A601B6913F0800F01D00120AE
:1013D0007047002070470020704700BF0020024087
:1013E00023016745034A136943F08003136100201A
:1013F000704700BF0020024038B50446FFF712FFD7
:101400000546174BDB6813F0010F0AD0B4F1FF3F1C
:10141000F7D00CB3FFF706FF401BA042F1D9032021
:1014200019E00F4BDB6813F0200F02D00C4B202289
:10143000DA600B4BDB6813F0100F09D1084BDB6946
:1014400013F0010F04D1064BDB6813F0040F05D035
:10145000FFF774FF012038BD0320FCE70020FAE706
:10146000002002402DE9F843234C247E012C41D07A
:101470001E4690460F4604461F4B01221A764CF238
:101480005030FFF7B9FF034670BB012C29D0022C66
:1014900024D04FF0040900244C4525D22101C1F18C
:1014A0002002A1F1200328FA01F106FA02F2114309
:1014B00026FA03F3194389B207EB4400FFF730FF24
:1014C0004CF25030FFF798FF0C4B1D6925F00105D9
:1014D0001D61034640B90134E4B2DDE74FF0020973
:1014E000D9E74FF00109D6E7034A002111761846E3
:1014F000BDE8F8830223FAE7983900200020024073
:10150000064B0022DA61064B1A6942F004021A61A6
:101510001A6942F040021A61704700BF98390020F2
:1015200000200240064B0022DA61064B1A6942F0A5
:1015300002021A6158611A6942F040021A6170474A
:101540009839002000200240264B1B7E012B46D0FC
:1015500070B50E460446234B01221A760368022B0F
:1015600020D04CF25030FFF747FF90BB4FF0FF33D5
:101570003360A5680122E168A36803EB8123AB42D5
:1015800028D92846FFF7CEFF4CF25030FFF734FF42
:10159000154A136923F0020313610246B8B905F531
:1015A0008065E8E74CF25030FFF726FF08B10122D2
:1015B00010E00120FFF7A4FF4CF25030FFF71CFFB2
:1015C000024609490B6923F004030B6102E0356010
:1015D00000E00122034B00211976104670BD022263
:1015E0001046704798390020002002400C4B9A6842
:1015F00003F580639B68134313F0010F0ED10B6852
:101600002BB9436823F4702343600020704742687D
:1016100022F470221343436000207047012070477A
:1016200000240140836813F0010F0DD1436823F4B7
:1016300080734A6813434360836823F400630A6835
:101640001343836000207047012070474B68826815
:1016500012F0010F23D110B4DBB1426822F46842CA
:101660008C68234313434360836823F4602323F48B
:1016700081730A68CC6822430C6922431343836058
:101680004B68C26A22F470021343C362002010BC8C
:101690007047426822F4684213434360E4E7012044
:1016A0007047F0B50E68C6F30F2696FAA6F5B5FAA0
:1016B00085F540E0A5F108024FF00113934043F097
:1016C000806344E00C69C7681A0A27EA020792FAA5
:1016D000A2F2B2FA82F204FA02F23A43C26039E0AC
:1016E0008C6893FAA3F7B7FA87F7BF004FF0030EA1
:1016F0000EFA07F722EA070293FAA3F7B7FA87F779
:10170000BF00BC40224340F80C20CC6893FAA3F7FA
:10171000B7FA87F7BF004FF0040E0EFA07F722EA78
:10172000070293FAA3F3B3FA83F39B009C4022438E
:1017300040F80C20013536FA05F32BD00123AB40DD
:101740003342F7D0072DB5D840F20113AB404A68B9
:10175000082AB7D04F684FEA136C50F80C4093FA40
:10176000A3F2B2FA82F292004FF00F0E0EFA02F2DA
:1017700024EA020493FAA3F2B2FA82F2920007FA80
:1017800002F2224340F80C204C68012CA8D0092C0E
:10179000D0D1A5E70020F0BD034B5B68C3F3031372
:1017A000024AD35CD84070470010024008BF0008CE
:1017B000034B5B68C3F30223024AD35CD8407047F3
:1017C0000010024018BF0008034B5B68C3F3C2233C
:1017D000024AD35CD84070470010024018BF00088E
:1017E0000B4B5B6803F480337BB1094B5868C0F343
:1017F00040400130074BB3FBF0F0054B5B68C3F38F
:101800008343023300FB03F070470348F5E700BF52
:101810000010024000127A0000093D0008B5054B97
:101820005B6803F00C03082B02D1FFF7D9FF08BD5A
:101830000148FCE70010024000127A0010B504468F
:10184000FFF7ECFF2060FFF7A7FF6060FFF7B0FF36
:10185000A0606068FFF7B8FFE06010BD03681A4A37
:1018600090420AD0B0F1804F07D0A2F59432904256
:1018700003D002F58062904203D123F070034A68DE
:101880001343114A90420AD0B0F1804F07D0A2F51D
:101890009432904203D002F58062904203D123F447
:1018A0004073CA68134303608B68C3620B8883620A
:1018B000054B984205D0436943F001034361002082
:1018C00070470B690363F6E7002C0140C36813F40B
:1018D000005F01D00120704730B585B00D46044649
:1018E000C36823F4B05323F00C034A68C9680A4361
:1018F00029690A431343C360AB68026922F440526A
:10190000134303616B69426922F4407213434361DC
:101910006846FFF793FF1C4B9C4208D01B4B9C4230
:101920002AD01B4B9C4229D0012005B030BD039B1F
:1019300033B32A6832B303EB830303EB83039200D0
:10194000B3FBF2F3134DA5FB03204009020191B252
:10195000642202FB103213013233A5FB0323C3F3CD
:101960004F1303F0F0020A4492B203F00F03134442
:101970009BB2A3600020D8E7029BD9E7029BD7E780
:101980000120D2E70120D0E70038014000440040A8
:10199000004800401F85EB51054BA3FB0030800938
:1019A0000138044B586000229A6005221A60704783
:1019B000D34D621010E000E082B0094B1B68019328
:1019C000019BB0F1FF3F00D0013030B1044B1B68E8
:1019D00013F4803FF9D00138F7E702B0704700BF39
:1019E00010E000E0014B1860704700BF28000020A5
:1019F000104B1B78EBB9002112E041F2210080EA84
:101A000043039BB20132072A05D813F4004FF4D1E7
:101A10005B009BB2F6E7084A22F81130013189B227
:101A2000FF2903D80B029BB20022ECE7014B0122F5
:101A30001A7070471C020020B839002070B50546A6
:101A40000E4614460A4B1B786BB9FFF7D1FF0AE02C
:101A5000337883EA1523074931F9130080EA05201A
:101A600085B201361446621E002CF1DC284670BD9A
:101A70001C020020B83900200D4BDA6822F0807279
:101A8000DA60DA6842F08072DA600A4B1A6822F093
:101A900001021A601A6842F001021A6000225A60BC
:101AA00000BF00BF00BF5868B0FA80F0400970471F
:101AB000F0ED00E0001000E008B509680068FEF7EE
:101AC00007FDFEF7D5FF08BD012800D070474FF68F
:101AD000FF739942FAD1094B00225A629A62DA6284
:101AE0001A635A639A63DA631A645A649A64DA640A
:101AF0001A655A659A65DA651A66E7E7981C002048
:101B000072B6BFF34F8F084B20221A61BFF34F8F7D
:101B10000649CA6802F4E062054B1343CB60BFF389
:101B20004F8F00BFFDE700BF0008014000ED00E05F
:101B30000400FA0572B6BFF34F8F40B94FF49670A8
:101B400005E0134B20225A61124B596898B9104B8B
:101B500020221A610A220F4B59680F4B1B68A3FB06
:101B6000023423FA02F242EA84520A4B5B685B1A9F
:101B70009342FAD3E5E7084B1B68A3FB00349A0AAB
:101B800042EA8452034B5B685B1A9342FAD3DEE766
:101B900000080140001000E028000020024600B9C3
:101BA000C822074B1968074B1B6813F0010F06D0BA
:101BB000034B1B685B1A934201D230BFF3E77047B7
:101BC00054240020440002400246E8B1F9B1144B0D
:101BD000DB6813F4005F1DD0124B1B6813F0010F7C
:101BE0001BD1114B4FF4805058604433DA600F4AD8
:101BF0009A605A68120C1204114359601A6842F034
:101C000001021A60002070474FF0FF3070474FF01C
:101C1000FF3070476FF0010070476FF002007047AF
:101C200000380140440002400000024004380140F6
:101C300010B5084614461146FFF7C6FF0020FFF70F
:101C4000ADFF204610BD000002280FD0032813D09E
:101C5000012805D00B4B80225A6140221A6170473F
:101C6000084B80221A6140221A617047054B80227E
:101C70005A6140225A617047024B80221A61402209
:101C80005A6170470008014000B587B000230593F2
:101C9000019302930C4B039304230493FFF788FBF7
:101CA00078B905A901A8FFF74FFC28B9FFF79AFBFF
:101CB000002007B05DF804FBFFF794FB6FF0010014
:101CC000F7E74FF0FF30F4E700F00008F8B5002721
:101CD000124C04F5A276124B9E421DD8114D4FF4C2
:101CE000A2722146284605F0C2F92A680E4B9A4294
:101CF00004D00434EDE727463446EAE72946B5F830
:101D000042510020A1F842014FF4A272FFF796FE63
:101D10008542F0D00434DCE73846F8BD00F0000816
:101D200000000108200200206219961908B5FFF78B
:101D3000CDFF38B101464FF4A272044805F097F97F
:101D4000002008BD4FF0FF30FBE700BF90220020CD
:101D500070B586B0002002900390494B0493042391
:101D600005930190474C484B2360A4F842014FF47F
:101D7000A2722146FFF762FEA4F84201FFF718FBAA
:101D8000002879D1FFF7A2FF0446E0B14FF4A27218
:101D90003C4905F05DF9054668B104F5A27604F505
:101DA00022743A4B9C420FD901A902A8FFF7CCFB41
:101DB00020B9334E08E0FFF715FB42E0FFF712FBB6
:101DC0006FF001053DE02E4E33460022B2F5A27FB2
:101DD00014D2981C1B889BB24FF6FF718B4220D007
:101DE00006F5A272134606F5227628498E4215D9C9
:101DF00001A902A8FFF7A8FBB0B9214E0024214B8E
:101E0000B4F5A27F20D29D1C1A880023311901202D
:101E1000FFF728FB68B902342B46F1E7164600228B
:101E2000D4E702320346D1E7FFF7DCFA6FF0020590
:101E300007E001A902A8FFF787FBFFF7D3FA6FF0CD
:101E40000305284606B070BD4FF4A2720D49304616
:101E500005F0FEF8054630B9FFF7C4FA0C4B4FF019
:101E6000FF321A60EDE701A902A8FFF76DFBFFF74B
:101E7000B9FA6FF00405E4E74FF0FF35E1E700BF82
:101E800000F0000890220020621996190000010855
:101E9000240000202DE9F047894690460D46002693
:101EA00034469DB1071DD0F800A02146D8F80400A3
:101EB000FEF718FC01465046FEF70CFB3146FEF7D4
:101EC00007FB013D264604463846EAE72146D8F896
:101ED0000C00FEF707FC3146FEF7FAFA064604F15D
:101EE0000040D8F80810FEF7FDFB05464846FEF70F
:101EF000A1FB01464FF08040FEF7A8FC04460146D6
:101F00003046FEF7EFFBC8F8100021462846FEF7E2
:101F1000E9FBC8F81400BDE8F08700002DE9F04F98
:101F200085B00546029193469A46DDF838901846EA
:101F3000FEF780FB01464FF08040FEF787FC0390E0
:101F400000274AE00136009B01930090564512D2CB
:101F500055F824800099D9F80400FEF7C3FB014628
:101F60004046FEF7B7FA0199FEF7B2FA0134A345ED
:101F7000E8D80024E6E7009C2146D9F80C00FEF7DB
:101F8000B1FB0199FEF7A4FA064604F10040D9F826
:101F90000810FEF7A7FB8046029B03EBC7043146FF
:101FA000039E3046FEF79EFB029B43F837004146F6
:101FB0003046FEF797FB60600023022B0CD803EB42
:101FC0004302D1000E4A0A44D26882B90C4A0A443C
:101FD000127D8AB90133F0E701375F4505D23C46EF
:101FE0000026002301930093B0E7002001E04FF0AA
:101FF000FF3005B0BDE8F08F4FF0FF30F9E700BFCC
:10200000501C0020F8B504460E460C493046FEF739
:1020100069FB074603F096FD0546384603F012FEBD
:102020000746266029462846FEF754FA6060E560B8
:10203000A760002323616361F8BD00BFDB0FC940C7
:1020400070B50546046800212046FEF7E9FC00282B
:102050003BD1012624F0004448492046FEF7E0FC2D
:10206000002835D146492046FEF7DAFC00283DD14C
:1020700044492046FEF7D4FC002845D14FF07E515C
:102080002046FEF7CDFC00284CD13F492046FEF704
:10209000C7FC002870D13D492046FEF7C1FC00284E
:1020A0004ED13B492046FEF7BBFC002856D13349B0
:1020B0002046FEF717FB04463046FEF7BFFA2146DE
:1020C000FEF710FB286047200FE04FF0FF36C1E716
:1020D00030492046FEF706FB04463046FEF7AEFACE
:1020E0002146FEF7FFFA2860702070BD284920467F
:1020F000FEF7F8FA04463046FEF7A0FA2146FEF74E
:10210000F1FA28606E20F0E720492046FEF7EAFA4F
:1021100004463046FEF792FA2146FEF7E3FA2860BD
:102120007520E2E718492046FEF7DCFA04463046FF
:10213000FEF784FA2146FEF7D5FA28606D20D4E731
:1021400010492046FEF7CEFA04463046FEF776FAEE
:102150002146FEF7C7FA28606B20C6E708492046EB
:10216000FEF7C0FA04463046FEF768FA2146FEF74D
:10217000B9FA28604D20B8E72020B6E75F708930B3
:10218000BD3786356F12833A00007A4400247449C3
:10219000286B6E4EA5D4685338B564282ED0244BD6
:1021A0004FF47A721A80234B4FF07E521A60224904
:1021B000204B1868FEF796FA054600243F2C24D8D9
:1021C0002046FEF737FA1D49FEF78CFA03F03AFD78
:1021D0004FF07E51FEF77EF92946FEF783FA4FF065
:1021E0007C51FEF777F903F0E9FCFEF767FC60F03D
:1021F000FF00134B23F814000134DFE70C4B64227B
:102200001A800C4B0F4A1A60D1E7094B1A886AB141
:1022100092010D4B5B680D48816A0131B3FBF1F30C
:1022200003EB5203B3FBF2F3013BC36238BD00BFC3
:10223000180000201C0000200000FF42DB0FC93DF9
:10224000D42300209A99593F681D002000040040C3
:102250002DE9F04184B004AC04E90300694681E84B
:102260000C00029E009C21463046FEF73BFA804659
:10227000039D019F39462846FEF734FA0146404641
:10228000FEF728F9804639463046FEF72BFA064617
:1022900029462046FEF726FA01463046FEF718F991
:1022A000044600214046FEF7B1FB18B1054804B0D2
:1022B000BDE8F0814146204603F002FD0249FEF7E9
:1022C00011FAF4E70000C07FE12E654270B584B0DA
:1022D0000C461249FEF706FA054610492046FEF75D
:1022E00001FA0446284603F02DFC0646284603F072
:1022F000A9FC00960190204603F024FC05462046E8
:1023000003F0A0FC0295039004AB13E90C006946AE
:1023100003C9FFF79DFF04B070BD00BF35FA8E3CC6
:102320002DE9F04385B0694B01221A704FF0000887
:102330009BE0674B9B78002B34D0664B03EB48291E
:10234000654B009380231A4664494846FFF7E6FD33
:102350000028C0F2B880002400267F2C69D85F4B8B
:1023600003EBC40393E8030004AB03E90300029DFD
:1023700029462846FEF7B6F9074603990846FEF7B0
:10238000B1F901463846FEF7A5F801463046FEF79A
:10239000A1F8064649F824500134DEE74C4BDB78BF
:1023A000002BCAD14B4E06EB4826002400257F2C7B
:1023B00015D856F824100846FEF794F90146284629
:1023C000FEF788F805460134F1E7414B9B78002B76
:1023D000E8D1B2E73E4BDB78002BAED0E2E74FF01E
:1023E00070512846FEF77EF903F0CAFC3C4B43F8D7
:1023F0002800394C224680213046FFF74BFD2469E6
:1024000000212046FEF702FB20B13648364B43F848
:10241000280028E02146304B586903F051FC33492D
:10242000FEF760F93249FEF755F8324903F04AFCED
:10243000ECE74FF070513046FEF754F903F0A0FC82
:10244000274B43F82800244C224680214846FFF7BA
:1024500021FD246900212046FEF7D8FAF0B1214879
:10246000214B43F8280008F10108B8F1070F24D8E0
:102470004FEA5803204A1278002A7FF45EAF032BFC
:102480003FF65BAF01A252F823F000BF33230008F0
:102490009D230008CB230008D523000821460E4BBE
:1024A000586903F00DFC1149FEF71CF91049FEF7BD
:1024B00011F8104903F006FCD2E70020034B187016
:1024C00005B0BDE8F0834FF0FF30F9E7B4280020F5
:1024D00028180020280800200C1D0020B42400200B
:1024E000241D00200000C07F481D0020E12E654211
:1024F000000087430000B443441D00202DE9F04351
:1025000083B081468846002600960196002427461F
:1025100022E0314B9B78F3B1651C304B53F825100A
:102520003046FDF7D7FF06462D492E4B53F82500C0
:10253000FEF7D8F8054603F005FB01460098FDF7C5
:10254000C9FF0090284603F07DFB01460198FDF786
:10255000C1FF019001370234072C20D8224B1B7891
:10256000002BD9D16308032BD6D801A252F823F04F
:1025700013250008812500088B25000895250008F3
:10258000154BDB78002BC7D1E5E7134B9B78002B6D
:10259000C2D0E0E7104BDB78002BBDD0DBE738463C
:1025A000FEF748F801463046FEF750F9C9F800003A
:1025B000009C00212046FEF729FA28B10B48C8F8F4
:1025C000000003B0BDE8F0832146019803F078FBDA
:1025D0000749FEF787F8F2E72C180020241D002099
:1025E00035FA8E3C481D0020441D00200000C07FAD
:1025F000E12E65422DE9F04385B0444B1E68002E64
:1026000059D1434B1B68002B55DB354617E0414B36
:10261000042203210DEB020005F058FA3946029816
:10262000FDF758FF3C4B43F82500394A1368013346
:102630001360022B02DD134600221A600135072DBC
:1026400061D8DFF8CC80D8F80020DFF8D89059F8AE
:102650002510324B05EB4504224443F8221001AF0C
:1026600003EB840393E8070087E80700294B042263
:102670000321384605F02AFA029B49F82530264BFB
:1026800053F82570D8F800301C44254B43F82470CB
:102690003446022CBBD805EB45032344204A52F8AC
:1026A00023103846FFF712FE04AB03EB840343F814
:1026B0000C0C0134EDE70021154B196000E00131ED
:1026C00007290DD8174B53F821400023022BF6D8C9
:1026D00001EB41021A44114840F822400133F5E76A
:1026E000002100E0013107290DD80B4B53F82140A0
:1026F0000023022BF6D801EB41021A44084840F8A7
:1027000022400133F5E705B0BDE8F083081D002045
:1027100008000020B91A0008481D002064030020AA
:10272000C4030020241D00206A4B1B6803B17047BE
:102730002DE9F04F87B0FFF7F3FD0028C0F2D581F7
:1027400005A904A8FFF7DAFE049A634B5A60DA6021
:102750005A61DA61059A614B5A60DA605A61DA614E
:102760005F4B1B78002B00F0A6805E4BD3F80090E7
:102770004FEA8905584B53F825806F1C53F827A062
:10278000594A1468A200901C033253F822B0574AE9
:102790001668314653F82000FDF7A4FF019031463A
:1027A0005846FDF79FFF0290514B19684FF07E503D
:1027B000FEF74CF80390B9F1000F7FD08146002C52
:1027C0007FD0DDF80CB049464046FDF78BFF8046D0
:1027D000484C606049465046FDF784FFA06059466A
:1027E0000198FDF77FFF8146E06059460298FDF7AA
:1027F00079FF206149464046FEF728F8804660612F
:10280000374B1B78002B40F093803B4B1C88643C7B
:1028100018BF0124394B93F87090B9F1000F53D0D1
:102820002201224491000B44D3F830A0996C304629
:10283000FDF758FF0399FDF755FF01465046FEF797
:1028400005F801902D4B93F8F8B0BBF1000F3ED086
:102850004FEA041A0AEB04029300284A134403992E
:10286000D3F8C800FDF73EFF02905444A300234A6A
:102870001344D3F8C0103046FDF734FF01460298E8
:10288000FDF7E4FFB9F1000F3AD0BBF1000F37D0EC
:102890004146FDF71DFE0446019E31464046FDF7C8
:1028A00017FE01462046FDF7D1FF3146FDF71AFF1E
:1028B000104B586137E0FFF79DFE56E74FF07E5909
:1028C0007DE74FF07E5B7EE700230193BAE70020AF
:1028D000D8E700BFFC1C0020241D0020481D00205C
:1028E000441D0020C4380020301C002014000020AB
:1028F0000C00002058240020180000209022002006
:10290000B9F1000F0FD0019E31464046FDF7EAFEB7
:10291000044641463046FDF7DBFD01462046FDF703
:1029200095FF764B5861754A536923F00043536114
:10293000734E56F8271056F82500FFF7C7FC6F4C6A
:10294000A061704B1B689B009A1C033356F8231040
:1029500056F82200FFF7BAFC0146E061A069FFF7D4
:10296000B5FC05462062684B1B78002B40F0BD800B
:10297000664B1888FDF762FE6549FDF7B3FE064613
:1029800064492846FDF7AEFE054603F0DBF8044631
:10299000284603F057F90546584B5F6921463846EB
:1029A000FDF7A0FE044625F000413846FDF79AFEEB
:1029B000054600212046FEF729F8002840F09580C2
:1029C00000212846FEF722F8002840F08E800021E2
:1029D0003046FEF71BF8002840F087803146284635
:1029E000FDF734FF814631462846FDF77BFE014660
:1029F0004FF07E50FDF72AFF824629462046FDF71C
:102A000025FF019021462846FDF720FF0290214630
:102A10002046FDF767FE074629462846FDF762FE79
:102A200001463846FDF756FD80462146FDF70EFF6C
:102A3000074629464046FDF709FF83463146FDF724
:102A400005FF804659463046FDF74CFE01464FF0E3
:102A50007E50FDF7FBFE064659463846FDF7F6FE6A
:102A6000039039465846FDF7F1FE244B1C63019A4A
:102A70005A63029A9A63DD63DF64039A1A655865A4
:102A8000C3F858B024494846FDF7E8FF08B1DFF81D
:102A900088901A4BC3F8289000215046FDF7C0FFDC
:102AA00030BB164BC3F824A01C492046FDF7D6FFC7
:102AB00000B11A4C114BDC6217494046FDF7CEFFBE
:102AC00008B1DFF854800D4BC3F844800021304634
:102AD000FDF7A6FF78B9094B1E6410493846FDF78B
:102AE000BDFF00B10D4F054B9F6407B0BDE8F08FEF
:102AF0004FF0000AD5E70026EDE700BF582400207C
:102B0000481D0020301C0020441D0020180000201B
:102B1000DB0FC94035FA8E3C00007A4420BCBE4C25
:102B200008B50A4B1B7833B9094B1B781BB9094B05
:102B30001B68032B00D908BD01464FF400720648FC
:102B400004F095FA024B01221A70F4E710000020FD
:102B5000B4280020C0380020B4240020A04B1B78EB
:102B6000002B00F007822DE9F04F95B09D4B1F68B8
:102B7000032F1CD89C4B53F8278017B99B4B1B681D
:102B8000DBB19A4B1D68092D79D9B8F1010F21D01D
:102B9000B8F1030F1BD00124B8F1010F40F2898076
:102BA0004122002103A804F086FA00221EE08C4B8B
:102BB00000221A7015B0BDE8F08F4046FFF744F8C8
:102BC0008B4B00221A608B4B20221A61D9E74FF001
:102BD000FF34E1E74FF0FF34DEE714A901EB5313B4
:102BE00013F8441C013103F8441C01327F2A1ED81B
:102BF000814B03EB820133F92230A3F5006303FB21
:102C000004F31BB2B1F802C0ACF5006C0FFA8CFCF7
:102C10007A4951F832601E4441F8326001EBC2013A
:102C2000486860444860002BD7DADB43D5E72C21A5
:102C300000221346144610E02346824202D3161A9D
:102C4000F6B200E02646082B03D8082E02D901244C
:102C500000E00124013113460246402909D844B955
:102C600014A8084410F8440C9342E5D8D31ADBB2F8
:102C7000E3E75F4B13F80820144303F80840584B70
:102C800000221A705E4B1B78002B3BD15D4B1B68FA
:102C9000002B7ED1564B13F80830002B7BD1B8F1B6
:102CA000010F27D9584BDB7B13F0040F75D180231C
:102CB00029E000237F2B18D84F4A02EB830632F914
:102CC0002310A1F500614D4A52F8330001FB0401C5
:102CD00042F83310B6F90210A1F5006002EBC3020E
:102CE0005168014451600133E4E7414B002203F88D
:102CF0000820C4E708F10203444AD35C002BD1D179
:102D0000012300E08023424A1288C82A05D8022BFA
:102D100003D9404AA2FB03235B080135334A1560FF
:102D20000A339D42FFF446AF7B1C1A4600932E4B9C
:102D300053F82200FEF788FF4FEA4803364C04EBB5
:102D40008825013304EB4324284B18680A38FDF723
:102D500071FC01464FF07E50FDF778FD824600265B
:102D60007F2E1CD8254F57F83600FDF767FC5146DB
:102D7000FDF7B8FC45F8260007EBC609D9F80400B2
:102D8000FDF75CFC5146FDF7ADFC44F8260001362A
:102D9000E6E70823B7E70123B5E71023B3E71F4BA6
:102DA0001B68032B0ED81E4B1F46114B13F80890BF
:102DB000B9F1000F09D0124B1B78002B6FD0002601
:102DC000002004E0174B1F46EFE7002600207F2E6F
:102DD0002AD855F82610FDF77DFB0136F7E700BF2E
:102DE000B4280020C038002074BB0008240800204C
:102DF0002C18002000080140B424002024040020E6
:102E0000441D0020FC1C00209022002028180020D7
:102E100018000020ABAAAAAA28080020041D002040
:102E20006666663F9A99993E4FF07051FDF75AFCDD
:102E30000646B9F1000F17D139464FF07E50FDF725
:102E400047FBDFF838A108F1040B5AF82B10FDF707
:102E500049FC019031463846FDF744FC0146019893
:102E6000FDF738FB4AF82B00434BD3F800A0BAF12A
:102E7000000F14D1B9F1000F04D108F104033F4A47
:102E800052F82360BAF17F0F09D8314655F82A006D
:102E9000FDF71EFB45F82A000AF1010AF2E70025BA
:102EA00000207F2D05D854F82510FDF713FB0135C0
:102EB000F7E74FF07051FDF715FC824639464FF0A9
:102EC0007E50FDF705FB2D4D08F1080955F8291036
:102ED000FDF708FC064651463846FDF703FC01465F
:102EE0003046FDF7F7FA064645F82900224B1D68E3
:102EF00055B97F2D08D8314654F82500FDF7E8FA7A
:102F000044F825000135F4E74FF4806200211C48A5
:102F100004F0D1F81B4B00221A601B4BC3F8008051
:102F20001A4B009A1A60032A7FF644AE042218490D
:102F3000184804F08DF8D8B10122174B1A60144BD1
:102F40001A6814490A60002119600B4B1B685BB9B1
:102F500012F47F0F08BF0121104B1960130E0CBF34
:102F6000012200220E4B1A600E4B20225A6121E6EC
:102F70000022E2E7704700BFFC1C002090220020E6
:102F8000240400202408002020000020C038002055
:102F90002C18002028180020081D0020C43800200C
:102FA000301C002000080140F0B583B00C461646E6
:102FB0001F4621F0004502281ED0032838D0424980
:102FC0002846FDF72DFD00285DD140492846FDF734
:102FD00027FD002862D13E492846FDF721FD002843
:102FE00067D12046FDF718FACDE90001394A394684
:102FF000304604F093FE0EE033492846FDF710FDFD
:1030000058B12046FDF708FACDE90001324A3946A9
:10301000304604F083FE03B0F0BD2046FDF7FCF916
:10302000CDE900012B4A3946304604F077FEF2E73D
:1030300025492846FDF7F4FC78B924492846FDF7D0
:10304000EFFCA8B12046FDF7E7F9CDE90001224ADF
:103050003946304604F062FEDDE72046FDF7DCF934
:10306000CDE900011D4A3946304604F057FED2E74B
:103070002046FDF7D1F9CDE90001164A3946304620
:1030800004F04CFEC7E72046FDF7C6F9CDE9000184
:10309000134A3946304604F041FEBCE72046FDF7AE
:1030A000BBF9CDE900010D4A3946304604F036FE41
:1030B000B1E72046FDF7B0F9CDE90001064A3946EF
:1030C000304604F02BFEA6E7000020410000C84275
:1030D00000007A4414B800080CB800081CB80008B6
:1030E00024B800082DE9F84F8146884693461F46CC
:1030F000DDF828A0002611E0012202F097FA640012
:10310000A4B20135BD4208D205EB090006EB080167
:1031100014F4004FF0D10022EFE70136564507D2F4
:103120003BF81640C7F110039C40A4B20025E9E724
:10313000BDE8F88F08B502F067FB02F0DDF9012069
:1031400002F0A6F902F0B2F94FF4FA70FEF734FC7F
:1031500008BD00000000000070B582B0002002F041
:1031600097F90021084602F0EBFA2D4D012229467D
:103170002C4802F0D3FA2C4E2C4B9A682C4930463E
:1031800004F000FE2C78002104EB840002F0D8FA51
:1031900001222946304602F0C1FA1FA3D3E90023D9
:1031A0002449304604F0EEFD3046FDF7B1FC00FB4B
:1031B00004F0C0F17F00002180B202F0C1FA0122C8
:1031C0002946304602F0AAFA0E21102002F0B8FA81
:1031D00001221949194802F0A1FA012400941F2381
:1031E00003227F21002002F0D5FA2621052002F0DB
:1031F000A7FA22462946124802F090FA3421052007
:1032000002F09EFA224629460E4802F087FA02F0A2
:103210004DF902B070BD00BFE17A14AE47E1DA3F6C
:10322000A4B700082CB80008341C0020902200200D
:1032300034B8000838B8000894B7000840B800084F
:103240004CB800085CB800082DE9F04184B0BA4BD6
:10325000DC7B002002F01CF9B84B1B78012B00F03E
:10326000A58204F00204022B00F00483002108462A
:1032700002F066FA002C00F01A81B148B14D01222B
:10328000294602F04BFA2D78002105EB850002F06B
:1032900057FAAD4B1B88B3F57A7F80F00A81AB4AB1
:1032A0001A21AB4804F03AFD0122A649A84802F0D1
:1032B00035FAA14A9389643B18BF012319011944C7
:1032C0008800024492F87020002A00F0FC804F2110
:1032D0009F4A11701A0113449A00974B134493F8B4
:1032E000F830002B00F0F1805323994F7B700026BB
:1032F000BE7005EB85035800314602F021FA012229
:103300009049384602F00AFAA800C0F17F00314621
:1033100080B202F015FA8F4B1B68002B40F0D7806B
:10332000854BDB7B13F0040F00F0D7800122854929
:10333000894802F0F3F9002303937F4B9B7B012B19
:1033400000F0E480002B00F0D680022B00F0E98032
:103350001A21002002F0F4F901227A497C4802F097
:10336000DDF903A8FEF76CFE0546734B9B7B012B32
:1033700000F02B81002B00F00381022B00F039813B
:103380006FF00601042002F0E9F901227349704848
:1033900002F0C4F90121062002F0E0F9664B9B7BA4
:1033A000012B00F06681002B00F05181022B00F010
:1033B00072816B4B1B68002B00F091814822644B9B
:1033C0001A70684B1B68002B00F08B814823604DFE
:1033D0006B700023AB705B4E30784000C0F17F0013
:1033E000282180B202F0ACF901223146284602F0D1
:1033F00095F9514B9B7B012B40F27581022B40F0DC
:10340000FB81002C00F0CC81574B5B6C04A840F88A
:10341000043DFEF715FE07464A4B5978C1F13F01BE
:103420008DB22946002002F08BF9494E1A2332460C
:1034300003990420FFF7B8FD3046FDF769FB03460A
:10344000202F01D0375401335A1C41484821C15420
:103450000023835401223B4902F060F9002C00F064
:10346000A281414B5B6D04A840F8043DFEF7E8FDE6
:10347000064629463E2002F063F9324D01222946D4
:103480003A4802F04BF9324C1A23224603990320A2
:10349000FFF78AFD2046FDF73BFB431C2654002224
:1034A000E25401222946204602F038F9A4E13048CE
:1034B000E4E6304AA2FB03239B092F4A1A21244841
:1034C00004F02CFCF0E62D2102E72D230DE701226C
:1034D0001C492A4802F022F92DE71D4D1A232A46DD
:1034E0002149096A0320FFF75FFD0122154928469B
:1034F00002F014F91FE734B11B4B5B6C0393144BC0
:103500004C221A8024E7184B9B6AF7E734B1164B1C
:103510001B6C03930E4B43221A8019E7124B5B6A14
:10352000F7E734B1104B9B6C0393094B52221A807E
:103530000EE70D4BDB6AF7E790220020441D0020C8
:10354000ACB70008A4B7000818000020BCB70008FA
:10355000341C0020FC1C0020D0B700089CB70008D9
:10356000C4380020301C002058240020DCB700089C
:10357000B0B70008D34D6210C0B70008C8B7000844
:1035800070280AD06E2819D075280CD01A23A64AA4
:1035900003990420FFF708FDF2E6A4490398FDF71C
:1035A000A1F8039075250398FCF736FFCDE90001DB
:1035B0009F4A1A219C4804F0B1FBE1E69D4903981B
:1035C000FDF790F803907525EDE7702806D01A23D3
:1035D000954A03990420FFF7E7FCD1E60398FCF72E
:1035E0001BFFCDE90001924A1A218F4804F096FB97
:1035F000C6E670280CD06E281BD0752820D06D2808
:103600000CD01A23884A03990420FFF7CDFCB7E6B3
:1036100089490398FDF766F803906D250398FCF738
:10362000FBFECDE90001824A1A217F4804F076FBB7
:10363000A6E67E490398FDF755F803906D25EDE762
:103640007C490398FDF74EF803906D25E6E7202DA1
:103650000DD0754B1D7001235A1C73484821C1546D
:10366000002383540122754902F058F8A1E6002393
:10367000F2E7202D0DD06C4B1D7001235A1C6A48B7
:103680004621C1540023835401226C4902F046F8BC
:103690008FE60023F2E7202D1CD06348057000233D
:1036A00043700122654902F039F86FF003010320ED
:1036B00002F054F80DF10A0102A802F047F8BDF833
:1036C0000A10BDF80800122300930B235C4AFFF791
:1036D00009FD6EE60021042002F040F8E5E74C22E7
:1036E0006DE64C2373E6002C54D0564BDB6C04A8DB
:1036F00040F8043DFEF7A4FC8046534F7D78C5F1A9
:103700003F05ADB22946002002F01AF801223946E1
:103710004E4802F003F82946142002F011F8424EF8
:103720001A23324603990320FFF73EFC3046FDF78B
:10373000EFF9431C06F800800022F25401223946BA
:10374000304601F0EBFF44B33E4B5B6D04A840F8FC
:10375000043DFEF775FC064629463E2001F0F0FFC9
:10376000394D012229463A4801F0D8FF2E4C1A2340
:10377000224603990320FFF717FC2046FDF7C8F9FE
:10378000431C26540022E25401222946204601F01F
:10379000C5FF31E02B4B1B6BA9E72A4B9B6BD5E791
:1037A000284B9B6A32E6274B9B6B5CE6294B1B68D8
:1037B0001D4CC3F10203284A1A21204604F0AEFA38
:1037C0000521002001F0BCFF01221C49204601F028
:1037D000A5FF224B1B88B3F57A7F1BD2204A1A2102
:1037E000204604F09BFA2321002001F0A9FF0122CA
:1037F00012490D4801F092FF1A4BDB7B13F0010FC9
:1038000069D101F053FE184A13680133136004B004
:10381000BDE8F081154AA2FB03239B09144A1A2133
:10382000014804F07BFADEE7341C0020BD37863502
:103830000CB800086F12833A5F70893094B70008A3
:1038400050BB000858240020A4B70008D8B70008CF
:10385000DCB70008981C0020E0B700081800002022
:10386000ECB7000890220020001D0020D34D62100C
:10387000F4B70008244B1B68244CC3F10203244A0C
:103880001A21204604F04AFA0521002001F058FFD1
:1038900001222049204601F041FF1F4B1B88B3F550
:1038A0007A7F0ED21D4A1A21204604F037FA2321CE
:1038B000002001F045FF01221649144801F02EFFB7
:1038C0009AE7174AA2FB03239B09164A1A210F48BD
:1038D00004F024FAEBE7144B18785978C1F13F0152
:1038E000C0F17F0089B280B201F02AFF0F4BDB7B71
:1038F00013F0080F05D00E4801220B4901F00EFF0E
:103900007FE70C48F8E700BF981C0020341C00201B
:10391000FCB7000894B7000818000020ECB70008B6
:10392000D34D6210F4B70008A4B70008902200201D
:10393000B4B70008B8B700087047000008B53F4AA0
:10394000136823F0070343F0020313603B4B1B682B
:1039500003F00703022BF9D1394A136843F480338B
:103960001360374B1B6813F4003FFAD0344A536A94
:1039700043F001035362324B5B6A13F0020FFAD03B
:103980002F4A536823F47C1343F4E81353601368FD
:1039900043F0807313602A4B1B6813F0007FFAD04A
:1039A000274B5A6822F0F0025A605A6822F4E0620B
:1039B00042F480625A605A6822F460525A605A682F
:1039C00022F0030242F002025A601D4B5B6803F0D2
:1039D0000C03082BF9D11B48FEF704F8184A53686A
:1039E00023F4404343F400435360FDF735FC164B8A
:1039F0001868FDF7D1FF154BDA68C2F30222C2F155
:103A00000703042B28BF04231946131D062B13D9C3
:103A1000033A4FF0FF338B40DB4303F00F03934037
:103A20001B01DBB2094A82F82330A2F54F6213680A
:103A300043F00203136008BD0022EAE700200240C1
:103A40000010024000A24A042800002000ED00E01F
:103A50002DE9F04F8DB000230A930B930993049343
:103A60000593069307930893AB4A136823F0010369
:103A70001360AA4B9A6942F004029A619A6902F0B3
:103A800004020392039A9A6942F400729A619A6955
:103A900002F400720292029AA14C216840F20115D0
:103AA00095FAA5F2B2FA82F292000F2000FA02F221
:103AB00021EA020295FAA5F540F2022595FAA5F150
:103AC000B1FA81F1890000FA01F122EA010295FAC6
:103AD000A5F5226093498A6822F001028A6001F507
:103AE00080618A6822F001028A605A6942F001020C
:103AF0005A615B6903F001030193019B8A4B1A68C9
:103B000022F001021A601A6822F4804222F01002A8
:103B10001A601A6822F4405242F400521A601A687D
:103B200042F020021A601A6822F040021A601A68F5
:103B300042F080021A601A6822F4407242F4007265
:103B40001A601A6822F4406242F400621A60774AEE
:103B50009A60774ADA605A68120C120442F4807252
:103B60005A60744A012151601A6842F008021A60D2
:103B70001A6842F004021A601A6842F002021A60DF
:103B80006D4BDA68C2F30222C2F10703042B28BF8F
:103B900004231946131D062B01D9033A00E0002225
:103BA0004FF0FF338B40DB4303F0030393401B01D3
:103BB000DBB2624A82F80B334FF4006313600024D7
:103BC0000A940B94574E0AA93046FDF72BFD0CA919
:103BD0004FF4803341F80C3D3046FDF707FD4FF4BC
:103BE000002304930594069407944FF4807308937C
:103BF00004A93046FDF72AFD51494FF4407999FA5E
:103C0000A9F3B3FA83F34FF4007A2AFA03F351F8D5
:103C1000232022F01F0241F8232020394FF0007B9F
:103C20009BFAABF3B3FA83F32BFA03F351F8232097
:103C30004FF0F87595FAA5F022F0070295FAA5F075
:103C400042F0060241F82320344B9A6942F4806224
:103C50009A619B6903F480630093009B0A940B9420
:103C6000384F0AA93846FDF7DDFC4FF46023049372
:103C7000059406944FF00208CDF81C80089404A91E
:103C80003846FDF7E3FC304A99FAA9F9B9FA89F9FF
:103C90002AFA09F952F8293023F01F0343F00103EF
:103CA00042F8293029489BFAABF3B3FA83F32BFA95
:103CB00003F350F8232095FAA5F1B1FA81F14FF4FE
:103CC000401424FA01F14FF0070C0CFA01F122EA3A
:103CD000010295FAA5F5B5FA85F524FA05F506244D
:103CE00004FA05F5154340F82350B36843F0010387
:103CF000B360BB6843F00103BB604046FDF75CFE68
:103D0000134B1A68B36843F00403B360BB6843F015
:103D10000403BB6024E000BF000400400010024028
:103D20000008014000240140080002404C240140EA
:103D3000301800200000024000ED00E000E100E04B
:103D40002C240140002801402C2801400C2801406F
:103D5000542400201C4B1B689B1A632B0AD830BFCD
:103D60001A4B9B6813F0040FF4D1194B9B6813F0A6
:103D7000040FEFD10220FDF71FFE154A936823F0D0
:103D800001039360114B996821F00101996011487A
:103D9000016841F0010101606FF0020111601960DA
:103DA000916841F001019160996841F001019960C9
:103DB000916841F4A00191609A6842F480129A607F
:103DC0000DB0BDE8F08F00BF542400200024014056
:103DD000002801400800024030B589B03E4A5369CE
:103DE00043F001035361536903F001030293029B03
:103DF0003A4C236823F001032360236823F48043B3
:103E000023F0100343F010032360236843F440536E
:103E10002360236843F020032360236823F04003DA
:103E20002360236843F080032360236823F44073F6
:103E300043F480732360236823F4406343F4806376
:103E40002360274BE360274BA36063681B0C1B04B4
:103E500043F04003636000230393049305930693A8
:103E60000793D36943F00203D361D36903F00203DC
:103E70000193019B1C4B1B889A011C4B5B6803EB55
:103E80005203B3FBF2F3013B0593194D03A92846F6
:103E9000FDF7E4FC2B6843F080032B60AB6823F450
:103EA000804323F00703AB606B6823F0700343F09B
:103EB00020036B60AB6823F08003AB60EB6843F4D6
:103EC0008073EB60236843F0010323602B6843F0A9
:103ED00001032B6009B030BD0010024030000240E9
:103EE000D42300200C0C014018000020681D002085
:103EF0000004004030B591B0002309930A930B935E
:103F00000C930D930E930F93079308936C4CA36936
:103F100043F48043A361A36903F480430393039BA9
:103F2000A36943F00403A361A36903F004030293AC
:103F3000029B644B04930923059302230693624D6D
:103F400004A92846FDF7ADFB604B049308230593B5
:103F50000123089304A92846FDF7A3FB636943F0F6
:103F600001036361636903F001030193019B584BF3
:103F70001A6822F001021A601A6822F4804222F0C4
:103F8000100242F010021A601A6822F440521A60BD
:103F90001A6822F020021A601A6822F040021A60A1
:103FA0001A6842F080021A601A6822F440721A609D
:103FB0001A6822F440621A60464A4FF480515160F8
:103FC0001A6842F008021A601A6842F002021A6087
:103FD000414BDA68C2F30222C2F10703042B28BF67
:103FE00004231946131D062B66D9033A4FF0FF33FD
:103FF0008B40DB4303F0010393401B01DBB2374AE4
:1040000082F80E334FF480431360354B9B6809935D
:1040100000230A930B930C930C220D920E930F9393
:10402000304C09A92046FDF751FC236923F4904345
:104030002361636923F02A0363612B4A52E8003F3E
:1040400043F0800342E800310029F6D1254B1A687D
:104050000092009A5A680092009A6FF020021A604B
:10406000224A52E8003F43F0200342E80031002991
:10407000F6D1194BDA68C2F30222C2F10703042B0E
:1040800028BF04231946131D062B17D9033A4FF0F6
:10409000FF338B40DB4303F0010393401B01DBB292
:1040A0000E4A82F82533202353600E4AD36843F426
:1040B0000053D36011B030BD002297E70022E6E73D
:1040C0000010024002000204000801400400040441
:1040D000440002400000024000ED00E000E100E08A
:1040E0009022002000380140143801400C38014073
:1040F0002DE9F0438DB04FF00008CDF82880584BE3
:104100009A6942F004029A619A6902F004020692E6
:10411000069A9A6942F008029A619A6902F00802C6
:104120000592059A9A6942F010029A619A6902F022
:1041300010020492049A9A6942F020029A619B69E3
:1041400003F020030393039B464E4FF00409C6F887
:1041500014904FF480737361202373614023736163
:1041600080237361404CFF2363610127089702237A
:1041700009930B970CAD40F2044345F8143D2946D2
:104180003046FDF78EFA394B079329463046FDF746
:1041900088FA42F22003079329463046FDF781FA58
:1041A00044F24003079329463046FDF77AFA48F275
:1041B0008003079329463046FDF773FA03230993DA
:1041C0004FF6FF73079329462046FDF76AFACDF8AC
:1041D000288041F21003079329463046FDF761FA23
:1041E000CDF8289040F60803079329463046FDF79E
:1041F00058FA082308930B971D4B0793294620462E
:10420000FDF74FFA1B4B079329462046FDF749FA65
:10421000194B079329462046FDF743FA4FF4903394
:10422000A3614FF40052A261A361A3690293029BB0
:104230004FF4A033A3614FF48042A261A361A3694C
:104240000193019B4FF4C033A3614FF40042A2617C
:10425000A361A3690093009B0DB0BDE8F08300BF8C
:104260000010024000080140000C01400100010460
:1042700020002004400040048000800408B54FF472
:104280009670FDF757FC08B56420FDF753FC08B5A0
:104290006420FDF74FFC08B56420FDF74BFC08B522
:1042A0006420FDF747FC70477047704738B5FCF74E
:1042B000ADFF464B1A6801321A601C68002322E0E9
:1042C000013A12B237E0002258001844C5004049B4
:1042D00029440A81C96849B91D2A07DD3C4A2A4494
:1042E0000021117511615175D4600BE009B1002AEC
:1042F00027DD002940D0611A03EB4302D000344A85
:10430000024411610133022B49D803EB4301CA0077
:104310002F4988580028F5D05A001A44D50029445E
:104320000A894D688168C94301EA152189B20029CB
:10433000C6D0013212B2002AC5DB1E2AC4DD1E22FD
:10434000C2E703EB4302D000214A0244527D3AB156
:104350001F4A0244002111611175D1605175D1E7E6
:10436000611A58001844C500194A2A4411610121F4
:1043700011750021D160C5E703EB4302D100144A57
:104380000A44527D002ABDD059001944C800104A81
:104390000244002111611175D1605175B2E70D4BD6
:1043A0001B68002B03DD0B4A1368013B13600A4BAB
:1043B000D3F80824D3F8083401339A4205D2064AC8
:1043C000D2F808340133C2F8083438BD5424002030
:1043D000501C002024000020801D002008B5104B38
:1043E0001B6813F0080F02D00D4B08225A600C4BCB
:1043F0001B6813F0040F05D1094B1B6813F0020F63
:1044000007D108BD0748FEF78BFB054B04225A6015
:10441000F2E70548FEF784FB014B02225A60F0E701
:104420000000024030180020301A00200B4B1B689F
:1044300013F4004F04D1094B1B6813F4005F0BD039
:10444000074A136823F001031360044B4FF4004242
:104450005A604FF400525A60704700BF000002409B
:104460004400024082B0124BD3F8043407E0104AF3
:10447000C2F804340021C2F80814D2F800240D4A0E
:10448000126812F0200F0AD00A4A5268D2B20849C4
:10449000CA540133B3F5806FE9D30023E7E7054B36
:1044A0001A680192019A5B680193019B02B0704700
:1044B000801D00200038014038B5814BDB68ABB16E
:1044C0007F4B5B6A93B17E4BDB6B7BB97C4B1B698B
:1044D000B3F5487FC0F08880794B9B6AB3F5487F7D
:1044E000C0F08280FDF7D0FBFDF70AFB754B1B780F
:1044F000002B4FD1724BDB6833B1714B5B6A1BB938
:104500006F4BDB6B002B51D06D4B1B7D002B68D1AB
:104510006B4BDB6833B96A4B5B6A1BB1684BDB6B77
:10452000002B6DD0664B93F82C30002B40F0878029
:10453000634BDB683BB9624B5B6A23B9604BDB6B57
:10454000002B40F094805E4B93F84430002B4BD00E
:104550005B4B93F84530002B46D1594B012283F831
:104560004520594B00221A60584AD37B83F004033C
:10457000D37313F0040F06D1937B0133022B00D9C0
:104580000023524A9373524B41F288321A60FEF76D
:104590005BFE29E00023022B26D803EB4302D10067
:1045A000474A0A44012151750B44F4E7444B1B6907
:1045B000B3F5FA7F18D3424B5B7DABB90125404B75
:1045C0005D750021404B196064242246414802F089
:1045D00072FD3C4B1D702046FDF7DEFDFEF734FEFC
:1045E00002E0374B5B7D03B138BD354B01225A7574
:1045F000354A136883F001031360FEF725FEF3E7E5
:104600002F4B9B6AB3F5FA7FEED32D4B93F82D30E9
:10461000002BE9D12A4B012283F82D2000212A4BBF
:104620001960642422462B4802F045FD254B0222E6
:104630001A702046FDF7B0FDFEF706FED4E7204BCA
:1046400093F82D30002BCFD11D4B012283F82D2064
:104650001D4B00221A601D4AD37B83F00203D373E3
:104660001B4B41F288321A60FEF7EEFDBCE7144B9B
:104670001B6CB3F5FA7FB7D3114B93F84530002B81
:10468000B2D10F4B012283F845200F4B00221A6054
:104690000E4B9B89B3F57A7F0ED00C4B4FF47A7298
:1046A0009A810A4B9889FDF777FD094B41F28832D0
:1046B0001A60FEF7C9FD97E7044B64229A81F0E780
:1046C000501C0020441D0020FC1C002090220020D3
:1046D00024000020981C0020264BDB7B13F0010FE8
:1046E00047D0254A126812F0010F42D170B513F07D
:1046F000080F01D1002524E0204D2C46204B44F822
:10470000063B4FF4805632461E49204602F0AFFC6D
:10471000324621460020FDF791F9A88041F20601BA
:104720002846FDF751FA70BD05F56075154B53F835
:104730002500FBF771FE02460B46134803F012F901
:1047400035467F2DEFD86E1C3146104803F00AF92C
:104750000024062CE8D805EBC4120A4B53F82200BB
:10476000FBF75AFE02460B46094803F0FBF80134FA
:10477000EFE770479022002044000240B828002054
:10478000961962192808002048BB000838BB0008A9
:1047900040BB000800000000002800F083822DE9E3
:1047A000F0438BB00C460546002900F094800026AB
:1047B00004E003F0ABFBC0B238700136A64205D26C
:1047C000AF19A85D0928F4D12020F5E74CB12B786A
:1047D000202B06D8013C2246691C284602F052FCD8
:1047E000F4E73CB1631EEA5C202A03D80022EA54B5
:1047F0001C46F6E7002C6ED000272F55BC4204D98A
:10480000EB5D202B01D90137F8E70023EB5507F1C9
:104810000108A04504D8E41B013C0026B14602E093
:104820000024FAE7013606EB46029300A04AD1586D
:1048300091B13A46284603F0C5FA0028F2D1B9F101
:10484000000F07D106EB46039A00994B134493F8E7
:104850000890E7E74FF0000904B147462F4409F1FB
:10486000FF39B9F10C0F00F21882DFE819F00D00E2
:104870000D003E0037009B00B6000C019201D100F4
:10488000AA01C101D801DD0100252C4600E0013458
:1048900004EB44029300864AD05828B1FCF738F95B
:1048A0008542F4D20546F2E7824803F0CFF80024AF
:1048B0000AE004EB440399007D4B0B445B682946F6
:1048C0007D4803F04FF8013404EB44029300784A2A
:1048D000D258002AEDD10BB0BDE8F083774803F041
:1048E000B5F8FDF7D1F9FDF70BF9002C49D00AA96D
:1048F000002341F8043D0A22384603F0F1FA044649
:1049000002F07CFB0368002B41D1099BBB423ED0E7
:10491000B4F5E13F40DA4FF4E134694B9B68A342C0
:1049200029D0674B9C60674BDB6803EB830303EB89
:104930008303A400B3FBF4F46348A0FB04314909EA
:104940000A0192B2642303FB11431B013233A0FB23
:104950000313C3F34F1303F0F0010A4492B203F0C0
:104960000F0313449BB2594A9360594B41F288326A
:104970001A60FEF769FC524B9968564802F0F2FF44
:10498000A9E74F4B9968534802F0ECFFA3E739467B
:10499000514802F0E7FF9EE7B4F5612FA8BF4FF43E
:1049A0006124BAE74D4B1B789BB94D4803F04EF894
:1049B00000214C4B1960642422464B4802F07BFBDB
:1049C000464B01221A702046FDF7E6FBFEF73CFC41
:1049D00081E7464803F03AF87DE7404B1B789BB9E6
:1049E000434803F033F800213E4B1960642422460B
:1049F0003D4802F060FB394B02221A702046FDF759
:104A0000CBFBFEF721FC66E7384803F01FF862E7AE
:104A100044B30AA9002341F8043D0A22384603F0B2
:104A20005FFA044602F0EAFA03680BBB099BBB423B
:104A30001ED0B4F5967F20DC6420214B9B898342F5
:104A40000AD01F4B9881254B1B78CBB1204B41F2EC
:104A500088321A60FEF7F8FB194B9989254802F055
:104A600081FF38E7164B9989224802F07BFF32E735
:104A70003946214802F076FF2DE74FF47A70DCE7E3
:104A8000FDF78AFBE2E7002C40D10D4BDB7B13F0F6
:104A9000010F07D113F0080F08D11849184802F088
:104AA00061FF18E7174802F0D1FF14E71649F5E750
:104AB00084BB000818B9000854B9000860B90008A0
:104AC00090220020681D00201F85EB510038014016
:104AD0002400002078B9000888B90008441D00208F
:104AE000A8B90008FC1C0020981C0020C4B90008CC
:104AF000CCB90008ECB900080CBA0008B8B8000836
:104B00003CBA00082CBA0008B0B80008684938461A
:104B1000FBF7F4FFD0B167493846FBF7EFFF20B34E
:104B200065493846FBF7EAFF70BB644AD37B03F064
:104B3000F70343F00103D373614B41F288321A60EB
:104B4000FEF782FB5F4802F081FFC4E65B4AD37B3D
:104B500023F00103D3735A4B41F288321A60FEF7F7
:104B600073FB594802F072FFB5E6544AD37B43F019
:104B70000903D373524B41F288321A60FEF764FB8B
:104B8000524802F063FFA6E63946514802F0EAFEB9
:104B9000A1E6504B1B7883B94F4C236883F0010387
:104BA0002360FEF751FB23681BB14C4802F04EFF17
:104BB00091E64B4802F04AFF8DE64A4802F046FF74
:104BC00089E63E4BDB7B13F0020F03D1464802F02F
:104BD0003DFF80E6404A0021116023F00203374A7E
:104BE000D373374B41F288321A60FEF72DFBEDE7A5
:104BF000324BDB7B13F0020F03D03C4802F026FF60
:104C000069E6354A0021116043F002032B4AD37351
:104C10002B4B41F288321A60FEF716FBEDE7344861
:104C200002F014FFFCF76CFF324B1B78002B26D0F0
:104C3000314A304B5B7823B330492E4B9B7813B30A
:104C40002F482C4BDB7803B32E4C2A4B1B79F3B146
:104C50002D4D284B5B79E3B12C4E264B9B79D3B974
:104C60002B4B0693059604950394029001910092B4
:104C70000DA3D3E90023274802F074FE2BE6264A51
:104C8000D7E72649D9E72648DBE7264CDDE7264D5E
:104C9000DFE7264EE1E7264BE3E72946254802F009
:104CA00061FE18E6704700BFE17A14AE47E1DA3FD3
:104CB00080BD00084CBA000864BA000890220020A9
:104CC0002400002068BA00082CBA000850BA000876
:104CD0007CBA0008441D0020FC1C002098BA000883
:104CE000A8BA0008C4B90008B8BA0008C8BA0008D1
:104CF000D8BA0008781D0020C0B80008C8B800085D
:104D0000D0B80008D8B80008E8B80008F8B800081B
:104D100010B90008E8BA0008C4B80008CCB8000808
:104D2000D4B80008E0B80008F0B8000800B90008DE
:104D300008B9000818BB00082DE9F0413D4BD3F835
:104D40000454D3F80044D3F8082440F6B7339A4209
:104D50000ED9A54207D0374BC3F800540022C3F840
:104D60000C25BDE8F081334BD3F80C35002BF2D184
:104D7000A542F6D02F4BD3F80C6517E0C4F580633D
:104D800018E02C4BC3F800540022C3F80C25E8E7C8
:104D90008B423DD9274B0022C3F8082403F20C4371
:104DA000C91A3CD10026234BC3F80C65AC42D8D0BD
:104DB000E4D82B1B002BD4D0C6F580779F4228BFA8
:104DC0001F46002FDDD0DFF86C8006F5816040447F
:104DD0003A4608EB0401043002F049F93E44C8F8B1
:104DE0000C653C44B4F5806F00D300241149C1F830
:104DF000004401F20C41104B33448B42C8D90A786D
:104E00000D2AC5D00A2AC3D0002AC1D00131F2E749
:104E1000FE2ECBD90026074BC3F80C65C6E7A3F2DC
:104E20000C40431883F80C2400F20C40FFF7B4FC4C
:104E3000B8E700BF801D00208C2100202DE9F04143
:104E40009F4B1B78012B04D0022B00F09D80BDE806
:104E5000F0810024072C0BD89A4D05EB84059A4B62
:104E600053F824106868FBF735FB68600134F1E7FC
:104E70000025072D1BD89549954B53F82500FBF7C6
:104E800031FC064600F05EFE2B1D8E4C04EBC30485
:104E900001466068FBF71EFB6060304600F0D2FE02
:104EA0000146A068FBF716FBA0600135E1E7894BDE
:104EB00041F288321A60834B1F6801371F60022F4E
:104EC000C5DD854B1D88B5F1640418BF012400269B
:104ED000072E14D87B4B03EB8603D3F804803846A7
:104EE000FBF7ACFB01464046FBF7B0FC2301234433
:104EF00033440C33794A42F823000136E8E70026B0
:104F000012E0331D6F4A02EBC3033946986800F084
:104F1000D7FE7349FBF7E6FB2301234433441433E4
:104F20006E4A42F823000136072E0CD8331D654A1D
:104F300002EBC3035F6800213846FBF767FD0028DA
:104F4000DFD06848E8E723011C44A200634B134408
:104F5000012283F87020642D0CD0634802F076FDA6
:104F60005E4B9889FDF718F9554B00221A70FEF731
:104F70006BF96CE764220021524802F09CF84FF470
:104F80007A70FDF709F9F2E70024072C0BD84D4D94
:104F900005EB84054C4B53F824106868FBF79AFA2C
:104FA00068600134F1E70025072D1BD84749484BBD
:104FB00053F82500FBF796FB064600F0C3FD2B1DBA
:104FC000404C04EBC30401466068FBF783FA606061
:104FD000304600F037FE0146A068FBF77BFAA06080
:104FE0000135E1E73B4B41F288321A60354B1F68CF
:104FF00001371F60022F7FF72AAF374B1D88B5F1AD
:10500000640418BF01240026072E14D82D4B03EB8F
:105010008603D3F804803846FBF710FB0146404670
:10502000FBF714FC2301234433442E332B4A42F86C
:1050300023000136E8E7002612E0331D214A02EB87
:10504000C3033946986800F03BFE2549FBF74AFB4D
:105050002301234433443633204A42F823000136E7
:10506000072E0CD8331D174A02EBC3035F680021DB
:105070003846FBF7CBFC0028DFD01A48E8E72301CD
:105080001C44A200154B1344012283F8F820642D20
:105090000CD0164802F0DAFC104B9889FDF77CF82A
:1050A000074B00221A70FEF7CFF8D0E664220021E9
:1050B000044802F000F84FF47A70FDF76DF8F2E75B
:1050C000441D0020981C0020241D002035FA8E3C31
:1050D000481D0020240000201800002090220020FD
:1050E000E12E65420000C07F70B8000890B800084B
:1050F00070B58AB0984A936943F00103936193694C
:1051000003F001030993099BD36943F08053D361F2
:10511000D36903F080530893089B90494B6823F0B0
:10512000E06343F000734B608D4B596841F480712C
:105130005960596841F400715960596841F48061BF
:105140005960596841F400615960596841F48051CF
:105150005960596841F400515960596841F400415F
:105160005960596841F480315960596841F480416F
:1051700059607C48C16821F4E0610904090C7A4B4C
:105180000B43C360516AC1F3C061784B1970516A17
:10519000C1F380615970516AC1F300719970516A0D
:1051A000C1F34071D970516AC1F380711971516AAC
:1051B000C90F5971916801F001019971536A43F067
:1051C000807353626A4BA2F582321A606949596052
:1051D0009A6101F12011D9611A63674A5A63674CD9
:1051E000674B63604FF46123A3604FF47A73A3812C
:1051F0000123A373E37B43F00903E373FCF73CFC57
:10520000FBF7F2FFFEF79AFB5E48FCF717FBFEF791
:105210006FFFFEF76FFE4FF072515B48FCF7F2FE36
:10522000FCF784FDA368B3F5E13F4CD3B3F5612FE0
:1052300028BF4FF46123514CA36061684FF07E504A
:10524000FBF704FB514B1860514B1A68514B53F854
:105250002200514B1860FCF7F7FCA089FCF79CFF7B
:10526000FDF768FFFDF778FF404B1B78002B2DD032
:105270004A4B3E4A5278002A2AD0494A3B4989780B
:10528000002927D047493948C07828B34648374CC9
:1052900024791CB3454C354D6D790DB3444D334ED7
:1052A000B679FEB1434E069605950494039002919B
:1052B0000192009326A3D3E900233F4802F052FB5A
:1052C0003E4B186822E04FF4E133B4E73C4BD0E7A3
:1052D0003C4AD3E73C49D6E73C48D8E73C4CDAE7C0
:1052E0003C4DDCE73C4EDEE70133022B0AD803EBF2
:1052F0004301CC001E492144098909B20029F3DD8C
:105300001046F1E7121AB2F57A7F04D230BF2B4B68
:105310001A680023E9E70022022A0CD8530013443C
:10532000D900134B0B44002159751981D9601975A7
:1053300019610132F0E7FEF78BFBFEF74DFD4FF4EC
:105340007A70FCF739FB254B00221A704BE000BF46
:10535000E17A14AE47E1DA3F00100240000001405C
:10536000002004E000ED00E00003FA05781D0020B5
:10537000501C002020002004800080049022002087
:1053800000007A44681D00200C1D0020140000203D
:10539000C038002074BB000858240020C0B80008A2
:1053A000C8B80008D0B80008D8B80008E8B80008A5
:1053B000F8B8000808B900082CBC000854240020E4
:1053C000C4B80008CCB80008D4B80008E0B8000899
:1053D000F0B8000800B9000810B90008100000205B
:1053E0001A4B1B6813B3BFF34F8F30BFFFF764F83E
:1053F000FFF7A2FCFDF7B2FB154B1968154A52F8EE
:105400002110154A11601B68032BE9D9FDF78CF9AF
:10541000FFF714FDFDF718FFFFF75EF90F4A136859
:10542000013313600A4B00221A60D9E7FCF790FCA5
:10543000002807DB054B4FF0FF321A60084802F0E6
:1054400005FBD0E7FCF784FCF4E700BF2400002054
:10545000C038002074BB000858240020041D002020
:1054600064BC000808B54FF6FF710120FCF72CFB67
:1054700008BD10B582B000248DF804408DF80500F9
:10548000022201A9782000F0F3FA204602B010BDF4
:1054900008B530B1FF214FF48062034801F00BFEE4
:1054A00008BD0021F7E700BFC03B002010B5A2B047
:1054B00040238DF80430002418E0A4F15000C0B25D
:1054C000FFF7D7FF0020FFF7D4FF1020FFF7D1FF31
:1054D0008022084901EBC4110DF1050001F0C7FD60
:1054E000812201A9782000F0C3FA0134072CE4DD01
:1054F00022B010BDC03B002010B500230CE0DA083C
:10550000D201474921F8132003F0070101228A4004
:105510004449CA5401339BB23F2BF0D96420FBF7B6
:1055200087FEAE20FFF7A5FF04462020FFF7A1FF6E
:1055300004441020FFF79DFF0444B020FFF799FFBB
:105540000444C820FFF795FF04440020FFF791FFB3
:1055500004441020FFF78DFF04444020FFF789FF2B
:1055600004448120FFF785FF0444FF20FFF781FFFB
:105570000444A120FFF77DFF0444A620FFF779FF34
:105580000444A820FFF775FF04443F20FFF771FF94
:105590000444A420FFF76DFF0444D320FFF769FF04
:1055A00004440020FFF765FF0444D520FFF761FFA6
:1055B0000444F020FFF75DFF0444D920FFF759FFB2
:1055C00004442220FFF755FF0444DA20FFF751FF7F
:1055D00004441220FFF74DFF0444DB20FFF749FF8E
:1055E00004442020FFF745FF04448D20FFF741FFCE
:1055F00004441420FFF73DFF0444AF20FFF739FFB8
:10560000E04201D0012010BD0020FFF741FFFFF76D
:105610004DFF054B00201880588001225A71F2E797
:10562000C838002048390020B83B00207F2814D813
:105630003F2912D80C4B1B7913B1B2FA82F25209EE
:105640000A4B33F811301844094B595C012A05D034
:10565000084A135C23EA010313547047054A135C9C
:105660000B431354704700BFB83B0020C8380020DC
:1056700048390020C03B00202DE9F04F83B0264B75
:105680001B880D782B447F2B3CDC234B5B8891F8E7
:1056900001A053443F2B39DC8B78834238D8CC7837
:1056A000844237D3174688460190D346C31A0AFB73
:1056B00003FA002614E03A46FFF7B8FF0134AC4283
:1056C0000DD2154B188820445988314409FA04F347
:1056D00013F4004FEFD1B7FA87F25209ECE7013625
:1056E0005E4507D2D8F8043006EB0A0233F8129070
:1056F0000024E4E798F80030074A11880B4413802F
:10570000019800E0002003B0BDE8F08F0020FAE728
:105710000020F8E70020F6E7B83B002070B504460B
:105720000E46154623784BB12A4631461846FFF7F8
:10573000A3FF2378984201D10134F3E7184670BDE6
:10574000014B188059807047B83B0020024B1A88E3
:1057500002805B880B807047B83B00200C4B1B8895
:105760001844002810DD8028A8BF802080B2084B94
:1057700018805B881944002908DD4029A8BF402112
:1057800089B2034B598070470020F0E70021F8E709
:10579000B83B00202DE9F04104460D4690461F46D7
:1057A0009DF8186005E0324639462046FFF73EFF77
:1057B0004444AC42F7D9BDE8F081000000F0C0F9E4
:1057C0000B480C490C4A002302E0D458C45004335F
:1057D000C4188C42F9D3094A094C002301E0136034
:1057E0000432A242FBD301F00FFCFFF781FC7047AB
:1057F0000000002000020020FCC50008000200207C
:10580000C43F0020FEE70000F0B587B0104C08232D
:1058100023611023236101260296032703970423A3
:105820000493059606AD40F6080345F8143D294655
:105830002046FBF736FF029603970023049341F2BC
:105840001003019329462046FBF72BFF07B0F0BD5C
:1058500000080140174B10221A610821196100BF8E
:1058600000BF00BF00BF00BF00BF00BF00BF00BF40
:1058700000BF00BF00BF00BF00BF00BF00BF596135
:1058800000BF00BF00BF00BF00BF00BF00BF00BF20
:1058900000BF00BF00BF00BF00BF00BF00BF00BF10
:1058A0005A6100BF00BF00BF00BF00BF00BF00BF04
:1058B00000BF704700080140174B08225A6100BF23
:1058C00000BF00BF00BF00BF00BF00BF00BF00BFE0
:1058D00000BF00BF00BF00BF00BF00BF00BF10215E
:1058E000196100BF00BF00BF00BF00BF00BF00BF05
:1058F00000BF00BF00BF00BF00BF00BF00BF00BFB0
:1059000000BF1A6100BF00BF00BF00BF00BF00BFE3
:1059100000BF00BF704700BF00080140002837D11A
:105920001D4B08225A6100BF00BF00BF00BF00BF6F
:1059300000BF00BF00BF184B10221A6100BF00BF9C
:1059400000BF00BF00BF00BF00BF00BF00BF00BF5F
:1059500000BF00BF00BF00BF00BF00BF00BF00BF4F
:1059600000BF00BF00BF00BF00BF00BF00BF00BF3F
:1059700000BF00BF00BF00BF00BF00BF00BF00BF2F
:1059800000BF00BF00BF00BF00BF00BF5A6170472B
:10599000014B08221A61C6E7000801401A4B082291
:1059A0001A6100BF00BF00BF00BF00BF00BF00BF43
:1059B00000BF00BF00BF00BF00BF00BF00BF00BFEF
:1059C00000BF10221A6100BF00BF00BF00BF00BFB0
:1059D00000BF00BF00BF00BF00BF00BF00BF00BFCF
:1059E00000BF00BF00BF00BF00BF00BF00BF00BFBF
:1059F00000BF00BF00BF9868C043C00880F001002E
:105A00005A6100F0010070470008014038B50446B3
:105A1000154639BB04F08000FFF780FF04F040001A
:105A2000FFF77CFF04F02000FFF778FF04F0100080
:105A3000FFF774FF04F00800FFF770FF04F00400A4
:105A4000FFF76CFF04F00200FFF768FF04F00100AD
:105A5000FFF764FFFFF7A2FF044635B9B4FA84F0FC
:105A6000400938BDFFF7F6FED4E7FFF725FFF5E75D
:105A700029B370B50E460AB9002070BD1546002244
:105A80000121FFF7C3FFB0B1002406E00022114658
:105A9000305DFFF7BBFF70B10134A5420BD96B1E1F
:105AA000A342F3D801220021305DFFF7AFFF0028A9
:105AB000F2D00120E1E7FFF7FFFE0020DDE7002044
:105AC000704770B50D461646002404E0AFF3008021
:105AD000287001340135B442F8DB304670BD4FF018
