:020000040800F2
:1000000000500020A5510008B9400008C340000876
:10001000CB400008D3400008DB400008000000008F
:10002000000000000000000000000000E3400008A5
:10003000E540000800000000E7400008E940000833
:10004000ED510008ED510008ED510008ED51000898
:10005000ED510008ED510008ED510008ED51000888
:10006000ED510008ED510008ED510008194200085B
:10007000ED510008ED51000869420008ED510008FB
:10008000ED510008ED5100088D420008ED510008C7
:10009000ED510008ED510008ED510008ED51000848
:1000A000ED510008ED510008ED510008ED51000838
:1000B000ED51000891420008ED510008ED51000893
:1000C000ED510008ED510008ED510008ED51000818
:1000D000ED510008D5420008ED510008ED5100082F
:1000E000ED510008ED510008ED510008000000003E
:1000F0000000000000000000000000000000000000
:0C01000000000000000000005FF808F1A3
:1001100010B5054C237833B9044B13B10448AFF341
:1001200000800123237010BD0002002000000000A9
:10013000D494000808B5034B1BB103490348AFF33F
:10014000008008BD0000000004020020D4940008D4
:1001500081F0004102E000BF83F0004330B54FEA78
:1001600041044FEA430594EA050F08BF90EA020FE5
:100170001FBF54EA000C55EA020C7FEA645C7FEA78
:10018000655C00F0E2804FEA5454D4EB5555B8BF9B
:100190006D420CDD2C4480EA020281EA030382EA0C
:1001A000000083EA010180EA020281EA0303362D9E
:1001B00088BF30BD11F0004F4FEA01314FF4801C71
:1001C0004CEA113102D0404261EB410113F0004F83
:1001D0004FEA03334CEA133302D0524263EB43033A
:1001E00094EA050F00F0A780A4F10104D5F1200ED8
:1001F0000DDB02FA0EFC22FA05F2801841F1000133
:1002000003FA0EF2801843FA05F359410EE0A5F106
:1002100020050EF1200E012A03FA0EFC28BF4CF037
:10022000020C43FA05F3C01851EBE37101F00045ED
:1002300007D54FF0000EDCF1000C7EEB00006EEBFA
:100240000101B1F5801F1BD3B1F5001F0CD3490884
:100250005FEA30004FEA3C0C04F101044FEA4452DB
:1002600012F5800F80F09A80BCF1004F08BF5FEA62
:10027000500C50F1000041EB045141EA050130BD42
:100280005FEA4C0C404141EB010111F4801FA4F1E5
:100290000104E9D191F0000F04BF01460020B1FA3A
:1002A00081F308BF2033A3F10B03B3F120020CDA72
:1002B0000C3208DD02F1140CC2F10C0201FA0CF050
:1002C00021FA02F10CE002F11402D8BFC2F1200CB5
:1002D00001FA02F120FA0CFCDCBF41EA0C0190406B
:1002E000E41AA2BF01EB0451294330BD6FEA0404B4
:1002F0001F3C1CDA0C340EDC04F11404C4F120029F
:1003000020FA04F001FA02F340EA030021FA04F3B0
:1003100045EA030130BDC4F10C04C4F1200220FA07
:1003200002F001FA04F340EA0300294630BD21FA45
:1003300004F0294630BD94F0000F83F4801306BF0B
:1003400081F480110134013D4EE77FEA645C18BFFF
:100350007FEA655C29D094EA050F08BF90EA020F96
:1003600005D054EA000C04BF1946104630BD91EA8E
:10037000030F1EBF0021002030BD5FEA545C05D191
:100380004000494128BF41F0004130BD14F58004D0
:100390003CBF01F5801130BD01F0004545F0FE4144
:1003A00041F470014FF0000030BD7FEA645C1ABF79
:1003B000194610467FEA655C1CBF0B46024650EAB0
:1003C000013406BF52EA033591EA030F41F40021DC
:1003D00030BD00BF90F0000F04BF0021704730B562
:1003E0004FF4806404F132044FF000054FF0000137
:1003F00050E700BF90F0000F04BF0021704730B5F8
:100400004FF4806404F1320410F0004548BF4042CC
:100410004FF000013EE700BF42004FEAE2014FEA21
:1004200031014FEA02701FBF12F07F4393F07F4FFC
:1004300081F06051704732F07F4208BF704793F0FF
:100440007F4F04BF41F40021704730B54FF4607412
:1004500001F0004521F000411CE700BF50EA010215
:1004600008BF704730B54FF000050AE050EA0102BE
:1004700008BF704730B511F0004502D5404261EB2E
:1004800041014FF4806404F132045FEA915C3FF46F
:10049000D8AE4FF003025FEADC0C18BF03325FEA0C
:1004A000DC0C18BF033202EBDC02C2F1200300FABD
:1004B00003FC20FA02F001FA03FE40EA0E0021FAE2
:1004C00002F11444BDE600BF80F0004002E000BF2E
:1004D00081F0004142001FBF5FEA410392EA030F2F
:1004E0007FEA226C7FEA236C6AD04FEA1262D2EB79
:1004F0001363C1BFD218414048404140B8BF5B427E
:10050000192B88BF704710F0004F40F4000020F016
:100510007F4018BF404211F0004F41F4000121F02C
:100520007F4118BF494292EA030F3FD0A2F1010276
:1005300041FA03FC10EB0C00C3F1200301FA03F1B4
:1005400000F0004302D5494260EB4000B0F5000FD7
:1005500013D3B0F1807F06D340084FEA310102F196
:100560000102FE2A51D2B1F1004F40EBC25008BF48
:1005700020F0010040EA03007047490040EB000012
:1005800010F4000FA2F10102EDD1B0FA80FCACF141
:10059000080CB2EB0C0200FA0CF0AABF00EBC25040
:1005A00052421843BCBFD0401843704792F0000F2E
:1005B00081F4000106BF80F400000132013BB5E781
:1005C0004FEA41037FEA226C18BF7FEA236C21D0F7
:1005D00092EA030F04D092F0000F08BF084670475C
:1005E00090EA010F1CBF0020704712F07F4F04D12A
:1005F000400028BF40F00040704712F100723CBF3D
:1006000000F50000704700F0004343F0FE4040F466
:10061000000070477FEA226216BF08467FEA236324
:100620000146420206BF5FEA412390EA010F40F40F
:10063000800070474FF0000304E000BF10F000435B
:1006400048BF40425FEA000C08BF704743F0964342
:1006500001464FF000001CE050EA010208BF70475D
:100660004FF000030AE000BF50EA010208BF7047E4
:1006700011F0004302D5404261EB41015FEA010CF9
:1006800002BF84460146002043F0B64308BFA3F1F1
:100690008053A3F50003BCFA8CF2083AA3EBC253D3
:1006A00010DB01FA02FC634400FA02FCC2F12002F2
:1006B000BCF1004F20FA02F243EB020008BF20F029
:1006C0000100704702F1200201FA02FCC2F120028F
:1006D00050EA4C0021FA02F243EB020008BF20EA84
:1006E000DC7070474FF0FF0C1CEAD0521EBF1CEAB2
:1006F000D15392EA0C0F93EA0C0F6FD01A4480EAA0
:10070000010C400218BF5FEA41211ED04FF0006388
:1007100043EA501043EA5111A0FB01310CF00040B4
:10072000B1F5000F3EBF490041EAD3715B0040EADA
:10073000010062F17F02FD2A1DD8B3F1004F40EBAA
:10074000C25008BF20F00100704790F0000F0CF07D
:10075000004C08BF49024CEA502040EA51207F3A41
:10076000C2BFD2F1FF0340EAC250704740F400001C
:100770004FF00003013A5DDC12F1190FDCBF00F00D
:1007800000407047C2F10002410021FA02F1C2F1BB
:10079000200200FA02FC5FEA310040F1000053EA57
:1007A0004C0308BF20EADC70704792F0000F00F0A5
:1007B000004C02BF400010F4000F013AF9D040EAAB
:1007C0000C0093F0000F01F0004C02BF490011F43F
:1007D000000F013BF9D041EA0C018FE70CEAD1533D
:1007E00092EA0C0F18BF93EA0C0F0AD030F0004CBD
:1007F00018BF31F0004CD8D180EA010000F0004071
:10080000704790F0000F17BF90F0004F084691F02E
:10081000000F91F0004F14D092EA0C0F01D1420268
:100820000FD193EA0C0F03D14B0218BF084608D131
:1008300080EA010000F0004040F0FE4040F400007B
:10084000704740F0FE4040F4400070474FF0FF0C0E
:100850001CEAD0521EBF1CEAD15392EA0C0F93EA55
:100860000C0F69D0A2EB030280EA010C49024FEAA7
:10087000402037D04FF0805343EA111143EA101360
:100880000CF000408B4238BF5B0042F17D024FF418
:10089000000C8B4224BF5B1A40EA0C00B3EB510FF3
:1008A00024BFA3EB510340EA5C00B3EB910F24BFDC
:1008B000A3EB910340EA9C00B3EBD10F24BFA3EB61
:1008C000D10340EADC001B0118BF5FEA1C1CE0D129
:1008D000FD2A3FF650AF8B4240EBC25008BF20F0DC
:1008E000010070470CF0004C4CEA50207F32C2BF30
:1008F000D2F1FF0340EAC250704740F400004FF0CD
:100900000003013A37E792F0000F00F0004C02BFFD
:10091000400010F4000F013AF9D040EA0C0093F0C7
:10092000000F01F0004C02BF490011F4000F013B21
:10093000F9D041EA0C0195E70CEAD15392EA0C0F89
:1009400008D142027FF47DAF93EA0C0F7FF470AFC1
:10095000084676E793EA0C0F04D14B023FF44CAF04
:1009600008466EE730F0004C18BF31F0004CCAD199
:1009700030F000427FF45CAF31F000437FF43CAFD5
:100980005FE700BF4FF0FF3C06E000BF4FF0010CF7
:1009900002E000BF4FF0010C4DF804CD4FEA4002D9
:1009A0004FEA41037FEA226C18BF7FEA236C11D023
:1009B00001B052EA530C18BF90EA010F58BFB2EBD6
:1009C000030088BFC81738BF6FEAE17018BF40F056
:1009D000010070477FEA226C02D15FEA402C05D10A
:1009E0007FEA236CE4D15FEA412CE1D05DF8040B8F
:1009F000704700BF844608466146FFE70FB5FFF722
:100A0000C9FF002848BF10F1000F0FBD4DF808EDD9
:100A1000FFF7F4FF0CBF012000205DF808FB00BFCA
:100A20004DF808EDFFF7EAFF34BF012000205DF824
:100A300008FB00BF4DF808EDFFF7E0FF94BF012071
:100A400000205DF808FB00BF4DF808EDFFF7D2FF6E
:100A500094BF012000205DF808FB00BF4DF808EDB1
:100A6000FFF7C8FF34BF012000205DF808FB00BF7E
:100A70004FEA4002B2F1FE4F0FD34FF09E03B3EBAB
:100A800012620DD94FEA002343F0004310F0004FEB
:100A900023FA02F018BF404270474FF00000704741
:100AA00012F1610F01D1420205D110F0004008BFE0
:100AB0006FF0004070474FF00000704742000ED2C8
:100AC000B2F1FE4F0BD34FF09E03B3EB126209D489
:100AD0004FEA002343F0004323FA02F070474FF03F
:100AE0000000704712F1610F01D1420202D14FF0B4
:100AF000FF3070474FF00000704700BF10F8012B27
:100B000011F8013B012A28BF9A42F7D0D01A70474A
:100B1000034613F8012B002AFBD1181A013870473D
:100B200070B54FF0FF0C4CF4E06C1CEA11541DBF83
:100B30001CEA135594EA0C0F95EA0C0F00F0DEF84E
:100B40002C4481EA030621EA4C5123EA4C5350EA33
:100B5000013518BF52EA033541F4801143F4801384
:100B600038D0A0FB02CE4FF00005E1FB02E506F015
:100B70000042E0FB03E54FF00006E1FB03569CF06A
:100B8000000F18BF4EF0010EA4F1FF04B6F5007F70
:100B900064F5407404D25FEA4E0E6D4146EB0606E2
:100BA00042EAC62141EA55514FEAC52040EA5E506B
:100BB0004FEACE2EB4F1FD0C88BFBCF5E06F1ED815
:100BC000BEF1004F08BF5FEA500E50F1000041EB4C
:100BD000045170BD06F0004646EA010140EA0200F9
:100BE00081EA0301B4EB5C04C2BFD4EB0C0541EA1B
:100BF000045170BD41F480114FF0000E013C00F330
:100C0000AB8014F1360FDEBF002001F0004170BD53
:100C1000C4F10004203C35DA0C341BDC04F114046C
:100C2000C4F1200500FA05F320FA04F001FA05F2F8
:100C300040EA020001F0004221F0004110EBD370C5
:100C400021FA04F642EB06015EEA430E08BF20EAF1
:100C5000D37070BDC4F10C04C4F1200500FA04F394
:100C600020FA05F001FA04F240EA020001F0004126
:100C700010EBD37041F100015EEA430E08BF20EA99
:100C8000D37070BDC4F1200500FA05F24EEA020EE1
:100C900020FA04F301FA05F243EA020321FA04F010
:100CA00001F0004121FA04F220EA020000EBD370C7
:100CB0005EEA430E08BF20EAD37070BD94F0000FC7
:100CC0000FD101F00046400041EB010111F4801FFB
:100CD00008BF013CF7D041EA060195F0000F18BFAC
:100CE000704703F00046520043EB030313F4801FE8
:100CF00008BF013DF7D043EA0603704794EA0C0FA2
:100D00000CEA135518BF95EA0C0F0CD050EA4106B7
:100D100018BF52EA4306D1D181EA030101F0004134
:100D20004FF0000070BD50EA410606BF104619465C
:100D300052EA430619D094EA0C0F02D150EA013668
:100D400013D195EA0C0F05D152EA03361CBF1046A9
:100D500019460AD181EA030101F0004141F0FE4148
:100D600041F470014FF0000070BD41F0FE4141F4CC
:100D7000780170BD70B54FF0FF0C4CF4E06C1CEACC
:100D800011541DBF1CEA135594EA0C0F95EA0C0F81
:100D900000F0A7F8A4EB050481EA030E52EA03353C
:100DA0004FEA013100F088804FEA03334FF080555D
:100DB00045EA131343EA12634FEA022245EA11158A
:100DC00045EA10654FEA00260EF000419D4208BF3B
:100DD000964244F1FD0404F5407402D25B084FEAE8
:100DE0003202B61A65EB03055B084FEA32024FF494
:100DF00080104FF4002CB6EB020E75EB030E22BFF1
:100E0000B61A754640EA0C005B084FEA3202B6EBB0
:100E1000020E75EB030E22BFB61A754640EA5C005F
:100E20005B084FEA3202B6EB020E75EB030E22BFEF
:100E3000B61A754640EA9C005B084FEA3202B6EBF0
:100E4000020E75EB030E22BFB61A754640EADC00AF
:100E500055EA060E18D04FEA051545EA16754FEA11
:100E600006164FEAC30343EA52734FEAC2025FEA2F
:100E70001C1CC0D111F4801F0BD141EA00014FF0BE
:100E800000004FF0004CB6E711F4801F04BF01438F
:100E90000020B4F1FD0C88BFBCF5E06F3FF6AFAEAB
:100EA000B5EB030C04BFB6EB020C5FEA500C50F13B
:100EB000000041EB045170BD0EF0004E4EEA1131BE
:100EC00014EB5C04C2BFD4EB0C0541EA045170BDC5
:100ED00041F480114FF0000E013C90E645EA060E09
:100EE0008DE60CEA135594EA0C0F08BF95EA0C0F37
:100EF0003FF43BAF94EA0C0F0AD150EA01347FF47F
:100F000034AF95EA0C0F7FF425AF104619462CE755
:100F100095EA0C0F06D152EA03353FF4FDAE1046B8
:100F2000194622E750EA410618BF52EA43067FF409
:100F3000C5AE50EA41047FF40DAF52EA43057FF499
:100F4000EBAE12E74FF0FF3C06E000BF4FF0010CA4
:100F500002E000BF4FF0010C4DF804CD4FEA410C08
:100F60007FEA6C5C4FEA430C18BF7FEA6C5C1BD0D5
:100F700001B050EA410C0CBF52EA430C91EA030F56
:100F800002BF90EA020F0020704710F1000F91EAB3
:100F9000030F58BF994208BF90422CBFD8176FEA81
:100FA000E37040F0010070474FEA410C7FEA6C5C4F
:100FB00002D150EA013C07D14FEA430C7FEA6C5C56
:100FC000D6D152EA033CD3D05DF8040B704700BF82
:100FD0008446104662468C461946634600E000BFD0
:100FE00001B5FFF7B7FF002848BF10F1000F01BDA2
:100FF0004DF808EDFFF7F4FF0CBF012000205DF86D
:1010000008FB00BF4DF808EDFFF7EAFF34BF0120F1
:1010100000205DF808FB00BF4DF808EDFFF7E0FF8A
:1010200094BF012000205DF808FB00BF4DF808EDDB
:10103000FFF7CEFF94BF012000205DF808FB00BF42
:101040004DF808EDFFF7C4FF34BF012000205DF824
:1010500008FB00BF4FEA410C7FEA6C5C02D150EA0A
:10106000013C0AD14FEA430C7FEA6C5C02D152EAA0
:10107000033C02D14FF0000070474FF00100704771
:101080004FEA410212F5001215D211D56FF47873B0
:10109000B3EB625212D94FEAC12343F0004343EA53
:1010A000505311F0004F23FA02F018BF404270472E
:1010B0004FF00000704750EA013005D111F00040B8
:1010C00008BF6FF0004070474FF00000704700BF4E
:1010D0004FEA4102B2F1E04324BFB3F5001CDCF15A
:1010E000FE5C0DD901F0004C4FEAC0024CEA507092
:1010F000B2F1004F40EB830008BF20F001007047C1
:1011000011F0804F21D113F13872BCBF01F00040C3
:10111000704741F480114FEA5252C2F11802C2F1F5
:10112000200C10FA0CF320FA02F018BF40F0010076
:101130004FEAC1234FEAD32303FA0CFC40EA0C0028
:1011400023FA02F34FEA4303CCE77FEA625307D165
:1011500050EA01331EBF4FF0FE4040F4400070479C
:1011600001F0004040F0FE4040F40000704700BF36
:101170004FEA40024FEA41037FEA226C02D15FEA64
:10118000402C08D17FEA236C02D15FEA412C02D1C6
:101190004FF0000070474FF00100704710B5044653
:1011A0000E4B18784FF47A73B3FBF0F30C4A1068C7
:1011B000B0FBF3F000F09EF868B90F2C01D90120C4
:1011C0000AE0002221464FF0FF3000F05FF8054BA7
:1011D0001C60002000E0012010BD00BF00000020C6
:1011E000280000200400002008B5074A136843F0D7
:1011F00010031360032000F037F80F20FFF7CEFF35
:1012000002F0E6FA002008BD00200240034A1168FF
:10121000034B1B780B441360704700BF483A002013
:1012200000000020014B1868704700BF483A0020BA
:1012300038B50446FFF7F6FF0546B4F1FF3F02D08C
:10124000044B1B781C44FFF7EDFF401BA042FAD370
:1012500038BD00BF00000020024A136823F00203DB
:101260001360704710E000E0074AD36823F4E0639E
:101270001B041B0C000200F4E060184340F0BF6048
:1012800040F40030D060704700ED00E030B4174B00
:10129000DB68C3F30223C3F10704042C28BF042432
:1012A0001D1D062D18D9033B4FF0FF3505FA04F438
:1012B00021EA0401994005FA03F322EA03031943E2
:1012C00000280BDB0901C9B200F1604000F5614064
:1012D00080F8001330BC70470023E5E700F00F00F2
:1012E0000901C9B2024B1954F4E700BF00ED00E058
:1012F00014ED00E00138B0F1807F0AD2064B58604F
:10130000064AF02182F823100020986007221A6014
:1013100070470120704700BF10E000E000ED00E0E2
:10132000044B0022DA61044A136943F0010313619C
:1013300001807047503A0020002002401A4BDB68C1
:1013400013F0100F27D0194AD36943F00203D36179
:101350001023154AD26812F0040F06D01349CA6947
:1013600042F00102CA6143F004030F4AD26912F04D
:10137000010F09D00D49CA6942F00402CA610A4945
:10138000CA6922F00102CA6140F20112934204D0FC
:10139000054AD36070470023DBE7034AD36923F093
:1013A0000103D361704700BF00200240503A002083
:1013B0000A4B1B6913F0800F0DD0084B084A5A6086
:1013C00002F188325A601B6913F0800F01D00120AE
:1013D0007047002070470020704700BF0020024087
:1013E00023016745034A136943F08003136100201A
:1013F000704700BF0020024038B50446FFF712FFD7
:101400000546174BDB6813F0010F0AD0B4F1FF3F1C
:10141000F7D00CB3FFF706FF401BA042F1D9032021
:1014200019E00F4BDB6813F0200F02D00C4B202289
:10143000DA600B4BDB6813F0100F09D1084BDB6946
:1014400013F0010F04D1064BDB6813F0040F05D035
:10145000FFF774FF012038BD0320FCE70020FAE706
:10146000002002402DE9F843234C247E012C41D07A
:101470001E4690460F4604461F4B01221A764CF238
:101480005030FFF7B9FF034670BB012C29D0022C66
:1014900024D04FF0040900244C4525D22101C1F18C
:1014A0002002A1F1200328FA01F106FA02F2114309
:1014B00026FA03F3194389B207EB4400FFF730FF24
:1014C0004CF25030FFF798FF0C4B1D6925F00105D9
:1014D0001D61034640B90134E4B2DDE74FF0020973
:1014E000D9E74FF00109D6E7034A002111761846E3
:1014F000BDE8F8830223FAE7503A002000200240BA
:10150000064B0022DA61064B1A6942F004021A61A6
:101510001A6942F040021A61704700BF503A002039
:1015200000200240064B0022DA61064B1A6942F0A5
:1015300002021A6158611A6942F040021A6170474A
:10154000503A002000200240264B1B7E012B46D043
:1015500070B50E460446234B01221A760368022B0F
:1015600020D04CF25030FFF747FF90BB4FF0FF33D5
:101570003360A5680122E168A36803EB8123AB42D5
:1015800028D92846FFF7CEFF4CF25030FFF734FF42
:10159000154A136923F0020313610246B8B905F531
:1015A0008065E8E74CF25030FFF726FF08B10122D2
:1015B00010E00120FFF7A4FF4CF25030FFF71CFFB2
:1015C000024609490B6923F004030B6102E0356010
:1015D00000E00122034B00211976104670BD022263
:1015E00010467047503A0020002002400C4B9A6889
:1015F00003F580639B68134313F0010F0ED10B6852
:101600002BB9436823F4702343600020704742687D
:1016100022F470221343436000207047012070477A
:1016200000240140836813F0010F0DD1436823F4B7
:1016300080734A6813434360836823F400630A6835
:101640001343836000207047012070474B68826815
:1016500012F0010F23D110B4DBB1426822F46842CA
:101660008C68234313434360836823F4602323F48B
:1016700081730A68CC6822430C6922431343836058
:101680004B68C26A22F470021343C362002010BC8C
:101690007047426822F4684213434360E4E7012044
:1016A0007047F0B50E68C6F30F2696FAA6F5B5FAA0
:1016B00085F540E0A5F108024FF00113934043F097
:1016C000806344E00C69C7681A0A27EA020792FAA5
:1016D000A2F2B2FA82F204FA02F23A43C26039E0AC
:1016E0008C6893FAA3F7B7FA87F7BF004FF0030EA1
:1016F0000EFA07F722EA070293FAA3F7B7FA87F779
:10170000BF00BC40224340F80C20CC6893FAA3F7FA
:10171000B7FA87F7BF004FF0040E0EFA07F722EA78
:10172000070293FAA3F3B3FA83F39B009C4022438E
:1017300040F80C20013536FA05F32BD00123AB40DD
:101740003342F7D0072DB5D840F20113AB404A68B9
:10175000082AB7D04F684FEA136C50F80C4093FA40
:10176000A3F2B2FA82F292004FF00F0E0EFA02F2DA
:1017700024EA020493FAA3F2B2FA82F2920007FA80
:1017800002F2224340F80C204C68012CA8D0092C0E
:10179000D0D1A5E70020F0BD034B5B68C3F3031372
:1017A000024AD35CD84070470010024098AC000851
:1017B000034B5B68C3F30223024AD35CD8407047F3
:1017C00000100240A8AC0008034B5B68C3F3C223BF
:1017D000024AD35CD840704700100240A8AC000811
:1017E0000B4B5B6803F480337BB1094B5868C0F343
:1017F00040400130074BB3FBF0F0054B5B68C3F38F
:101800008343023300FB03F070470348F5E700BF52
:101810000010024000127A0000093D0008B5054B97
:101820005B6803F00C03082B02D1FFF7D9FF08BD5A
:101830000148FCE70010024000127A0010B504468F
:10184000FFF7ECFF2060FFF7A7FF6060FFF7B0FF36
:10185000A0606068FFF7B8FFE06010BD03681A4A37
:1018600090420AD0B0F1804F07D0A2F59432904256
:1018700003D002F58062904203D123F070034A68DE
:101880001343114A90420AD0B0F1804F07D0A2F51D
:101890009432904203D002F58062904203D123F447
:1018A0004073CA68134303608B68C3620B8883620A
:1018B000054B984205D0436943F001034361002082
:1018C00070470B690363F6E7002C0140C36813F40B
:1018D000005F01D00120704730B585B00D46044649
:1018E000C36823F4B05323F00C034A68C9680A4361
:1018F00029690A431343C360AB68026922F440526A
:10190000134303616B69426922F4407213434361DC
:101910006846FFF793FF1C4B9C4208D01B4B9C4230
:101920002AD01B4B9C4229D0012005B030BD039B1F
:1019300033B32A6832B303EB830303EB83039200D0
:10194000B3FBF2F3134DA5FB03204009020191B252
:10195000642202FB103213013233A5FB0323C3F3CD
:101960004F1303F0F0020A4492B203F00F03134442
:101970009BB2A3600020D8E7029BD9E7029BD7E780
:101980000120D2E70120D0E70038014000440040A8
:10199000004800401F85EB51054BA3FB0030800938
:1019A0000138044B586000229A6005221A60704783
:1019B000D34D621010E000E082B0094B1B68019328
:1019C000019BB0F1FF3F00D0013030B1044B1B68E8
:1019D00013F4803FF9D00138F7E702B0704700BF39
:1019E00010E000E0014B1860704700BF28000020A5
:1019F000104B1B78EBB9002112E041F2210080EA84
:101A000043039BB20132072A05D813F4004FF4D1E7
:101A10005B009BB2F6E7084A22F81130013189B227
:101A2000FF2903D80B029BB20022ECE7014B0122F5
:101A30001A7070471C020020703A002070B50546ED
:101A40000E4614460A4B1B786BB9FFF7D1FF0AE02C
:101A5000337883EA1523074931F9130080EA05201A
:101A600085B201361446621E002CF1DC284670BD9A
:101A70001C020020703A00200D4BDA6822F08072C0
:101A8000DA60DA6842F08072DA600A4B1A6822F093
:101A900001021A601A6842F001021A6000225A60BC
:101AA00000BF00BF00BF5868B0FA80F0400970471F
:101AB000F0ED00E0001000E008B509680068FEF7EE
:101AC00007FDFEF7D5FF08BD012800D070474FF68F
:101AD000FF739942FAD10E4B00229A62DA621A63BE
:101AE0005A639A63DA631A645A649A64DA641A6508
:101AF0005A659A65DA651A665A667F22054B002A8E
:101B0000E4DB0021196059600833013AF7E700BFB0
:101B1000941C00206C25002072B6094B20221A610B
:101B2000BFF34F8FBFF34F8F0649CA6802F4E062DC
:101B3000054B1343CB60BFF34F8F00BFFDE700BFE2
:101B40000008014000ED00E00400FA0572B6BFF3A2
:101B50004F8F05E0134B20225A61134B596898B9F7
:101B6000104B20221A610A220F4B59680F4B1B6839
:101B7000A3FB023423FA02F242EA84520A4B5B6866
:101B80005B1A9342FAD3E5E7084B1B68A3FB0034CA
:101B90009A0A42EA8452044B5B685B1A9342FAD376
:101BA000DEE700BF00080140001000E02800002030
:101BB0000246E8B1F9B1144BDB6813F4005F1DD0A5
:101BC000124B1B6813F0010F1BD1114B4FF48050C7
:101BD00058604433DA600F4A9A605A68120C120453
:101BE000114359601A6842F001021A6000207047E0
:101BF0004FF0FF3070474FF0FF3070476FF001003B
:101C000070476FF002007047003801404400024006
:101C1000000002400438014070B50E461446084BDF
:101C20001D68074B1B685B1B632B07D8214630469A
:101C3000FFF7BEFF002801DA30BFF2E7204670BD93
:101C40001425002008B50449FEF74CFD4FF06651FD
:101C5000FEF748FD08BD00BF3333534002280FD0C4
:101C6000032813D0012805D00B4B80225A61402253
:101C70001A617047084B80221A6140221A6170472E
:101C8000054B80225A6140225A617047024B8022E4
:101C90001A6140225A6170470008014000B587B0C0
:101CA00000230593019302930C4B039304230493A5
:101CB000FFF77EFB78B905A901A8FFF745FC28B915
:101CC000FFF790FB002007B05DF804FBFFF78AFBED
:101CD0006FF00100F7E74FF0FF30F4E700F0000885
:101CE000F8B50027124C04F5A076124B9E421DD881
:101CF000114D4FF4A0722146284604F08EFF2A6849
:101D00000E4B9A4204D00434EDE727463446EAE706
:101D10002946B5F83E510020A1F83E014FF4A072CB
:101D2000FFF78CFE8542F0D00434DCE73846F8BD7E
:101D300000F0000800000108200200206219961936
:101D400008B5FFF7CDFF38B101464FF4A072044843
:101D500004F063FF002008BD4FF0FF30FBE700BF39
:101D60009023002070B586B0002002900390494B6C
:101D70000493042305930190474C484B2360A4F837
:101D80003E014FF4A0722146FFF758FEA4F83E0131
:101D9000FFF70EFB002879D1FFF7A2FF0446E0B160
:101DA0004FF4A0723C4904F029FF054668B104F5E0
:101DB000A07604F520743A4B9C420FD901A902A8E1
:101DC000FFF7C2FB20B9334E08E0FFF70BFB42E000
:101DD000FFF708FB6FF001053DE02E4E3346002271
:101DE000B2F5A07F14D2981C1B889BB24FF6FF71EE
:101DF0008B4220D006F5A072134606F520762849BE
:101E00008E4215D901A902A8FFF79EFBB0B9214E59
:101E10000024214BB4F5A07F20D29D1C1A880023FA
:101E200031190120FFF71EFB68B902342B46F1E798
:101E300016460022D4E702320346D1E7FFF7D2FA72
:101E40006FF0020507E001A902A8FFF77DFBFFF78D
:101E5000C9FA6FF00305284606B070BD4FF4A072B2
:101E60000D49304604F0CAFE054630B9FFF7BAFA0C
:101E70000C4B4FF0FF321A60EDE701A902A8FFF703
:101E800063FBFFF7AFFA6FF00405E4E74FF0FF35AF
:101E9000E1E700BF00F000089023002062199619C6
:101EA00000000108240000202DE9F04789469046F3
:101EB0000D46002634469DB1071DD0F800A02146EE
:101EC000D8F80400FEF70EFC01465046FEF702FB70
:101ED0003146FEF7FDFA013D264604463846EAE75C
:101EE0002146D8F80C00FEF7FDFB3146FEF7F0FA6C
:101EF000064604F10040D8F80810FEF7F3FB05464B
:101F00004846FEF797FB01464FF08040FEF79EFCE7
:101F1000044601463046FEF7E5FBC8F810002146AE
:101F20002846FEF7DFFBC8F81400BDE8F087000084
:101F30002DE9F04F85B00546029193469A46DDF8AB
:101F400038901846FEF776FB01464FF08040FEF7CA
:101F50007DFC039000274AE00136009B019300902E
:101F6000564512D255F824800099D9F80400FEF79E
:101F7000B9FB01464046FEF7ADFA0199FEF7A8FA13
:101F80000134A345E8D80024E6E7009C2146D9F8AF
:101F90000C00FEF7A7FB0199FEF79AFA064604F13A
:101FA0000040D9F80810FEF79DFB8046029B03EB2A
:101FB000C7043146039E3046FEF794FB029B43F86C
:101FC000370041463046FEF78DFB60600023022B50
:101FD0000CD803EB4302D1000E4A0A44D26882B9FE
:101FE0000C4A0A44127D8AB90133F0E701375F4594
:101FF00005D23C460026002301930093B0E7002061
:1020000001E04FF0FF3005B0BDE8F08F4FF0FF303A
:10201000F9E700BF4C1C0020F8B504460E460C49F9
:102020003046FEF75FFB074603F07EFA054638466A
:1020300003F0FAFA0746266029462846FEF74AFAD0
:102040006060E560A760002323616361F8BD00BFA5
:10205000DB0FC94070B50546046800212046FEF735
:10206000DFFC00283BD1012624F0004448492046EB
:10207000FEF7D6FC002835D146492046FEF7D0FCB5
:1020800000283DD144492046FEF7CAFC002845D12E
:102090004FF07E512046FEF7C3FC00284CD13F494B
:1020A0002046FEF7BDFC002870D13D492046FEF7D2
:1020B000B7FC00284ED13B492046FEF7B1FC002872
:1020C00056D133492046FEF70DFB04463046FEF755
:1020D000B5FA2146FEF706FB286047200FE04FF0D7
:1020E000FF36C1E730492046FEF7FCFA0446304689
:1020F000FEF7A4FA2146FEF7F5FA2860702070BDBD
:1021000028492046FEF7EEFA04463046FEF796FAD6
:102110002146FEF7E7FA28606E20F0E720492046C6
:10212000FEF7E0FA04463046FEF788FA2146FEF74D
:10213000D9FA28607520E2E718492046FEF7D2FA5E
:1021400004463046FEF77AFA2146FEF7CBFA2860BD
:102150006D20D4E710492046FEF7C4FA0446304605
:10216000FEF76CFA2146FEF7BDFA28606B20C6E741
:1021700008492046FEF7B6FA04463046FEF75EFAF6
:102180002146FEF7AFFA28604D20B8E72020B6E7D9
:102190005F708930BD3786356F12833A00007A440C
:1021A00000247449286B6E4EA5D4685338B5642852
:1021B00032D0B0F5967F36D0284B4FF47A721A8021
:1021C000274B4FF07E521A602649254B1868FEF7C0
:1021D00089FA4FF07C51FEF785FA054600243F2C22
:1021E00029D82046FEF726FA1F49FEF77BFA03F0AE
:1021F0001BFA4FF07E51FEF76DF92946FEF772FA91
:102200004FF07C51FEF766F903F0CAF9FEF756FC71
:10221000164B18550134E2E7104B64221A80104B1C
:10222000134A1A60D0E70D4B4FF496721A800C4B8C
:10223000104A1A60C8E7094B1A886AB192010E4B1E
:102240005B680E48816A0131B3FBF1F303EB520383
:10225000B3FBF2F3013BC36238BD00BF180000209E
:102260001C00002000007F43DB0FC93DD02400206C
:10227000B81E053FE17A143F681D002000040040AD
:102280002DE9F04184B004AC04E90300694681E81B
:102290000C00029E009C21463046FEF723FA804641
:1022A000039D019F39462846FEF71CFA0146404629
:1022B000FEF710F9804639463046FEF713FA064617
:1022C00029462046FEF70EFA01463046FEF700F991
:1022D000044600214046FEF799FB18B1054804B0BA
:1022E000BDE8F0814146204603F0DCF90249FEF7E3
:1022F000F9F9F4E70000C07FE12E654270B584B0C3
:102300000C461249FEF7EEF9054610492046FEF745
:10231000E9F90446284603F007F90646284603F083
:1023200083F900960190204603F0FEF8054620460A
:1023300003F07AF90295039004AB13E90C006946A7
:1023400003C9FFF79DFF04B070BD00BF35FA8E3C96
:102350002DE9F04385B04FF000089BE0644B9B787B
:10236000002B34D0634B03EB4829634B009380234D
:102370001A4662494846FFF7DBFD0028C0F2B580E7
:10238000002400267F2C69D85C4B03EBC40393E840
:10239000030004AB03E90300029D29462846FEF72B
:1023A000A1F9074603990846FEF79CF9014638460D
:1023B000FEF790F801463046FEF78CF8064649F8DD
:1023C00024500134DEE74A4BDB78002BCAD1494E5A
:1023D00006EB4826002400257F2C15D856F824103B
:1023E0000846FEF77FF901462846FEF773F80546D2
:1023F0000134F1E73E4B9B78002BE8D1B2E73C4B30
:10240000DB78002BAED0E2E74FF070512846FEF7A4
:1024100069F903F0A7F93A4B43F82800364C2246F5
:1024200080213046FFF740FD246900212046FEF759
:10243000EDFA20B13348344B43F8280028E0214618
:102440002D4B586903F02EF93049FEF74BF930490E
:10245000FEF740F82F4903F027F9ECE74FF07051F1
:102460003046FEF73FF903F07DF9254B43F828008D
:10247000214C224680214846FFF716FD24690021A1
:102480002046FEF7C3FAE8B11E481F4B43F8280068
:1024900008F10108B8F1070F23D84FEA58031E4A84
:1024A0001278002A7FF45EAF032B3FF65BAF01A2E8
:1024B00052F823F05D230008C7230008F523000825
:1024C000FF23000821460C4B586903F0EBF80F4935
:1024D000FEF708F90E49FDF7FDFF0E4903F0E4F899
:1024E000D3E7002005B0BDE8F0834FF0FF30F9E7F7
:1024F00024180020240800200C1D00206C2500203A
:10250000241D00200000C07F481D0020E12E6542F0
:10251000000087430000B443441D00202DE9F04330
:1025200083B08146884600260096019600242746FF
:1025300022E0314B9B78F3B1651C304B53F82510EA
:102540003046FDF7C7FF06462D492E4B53F82500B0
:10255000FEF7C8F8054602F0E7FF01460098FDF7D0
:10256000B9FF0090284603F05FF801460198FDF797
:10257000B1FF019001370234072C20D8224B1B7881
:10258000002BD9D16308032BD6D801A252F823F02F
:1025900033250008A1250008AB250008B525000853
:1025A000154BDB78002BC7D1E5E7134B9B78002B4D
:1025B000C2D0E0E7104BDB78002BBDD0DBE738461C
:1025C000FEF738F801463046FEF740F9C9F800003A
:1025D000009C00212046FEF719FA28B10B48C8F8E4
:1025E000000003B0BDE8F0832146019803F05AF8DB
:1025F0000749FEF777F8F2E728180020241D00208D
:1026000035FA8E3C481D0020441D00200000C07F8C
:10261000E12E65422DE9F04385B0444B1E68002E43
:1026200059D1434B1B68002B55DB354617E0414B16
:10263000042203210DEB020004F0FEFF394602984C
:10264000FDF748FF3C4B43F82500394A1368013336
:102650001360022B02DD134600221A600135072D9C
:1026600061D8DFF8CC80D8F80020DFF8D89059F88E
:102670002510324B05EB4504224443F8221001AFEC
:1026800003EB840393E8070087E80700294B042243
:102690000321384604F0D0FF029B49F82530264B31
:1026A00053F82570D8F800301C44254B43F82470AB
:1026B0003446022CBBD805EB45032344204A52F88C
:1026C00023103846FFF71AFE04AB03EB840343F8EC
:1026D0000C0C0134EDE70021154B196000E00131CD
:1026E00007290DD8174B53F821400023022BF6D8A9
:1026F00001EB41021A44114840F822400133F5E74A
:10270000002100E0013107290DD80B4B53F821407F
:102710000023022BF6D801EB41021A44084840F886
:1027200022400133F5E705B0BDE8F083081D002025
:1027300008000020B91A0008481D0020600300208E
:10274000C0030020241D0020A64B1B6803B1704766
:102750002DE9F04F87B0FFF7FBFD0028C0F23E8166
:1027600005A904A8FFF7DAFE049A9F4B5A60DA60C5
:102770005A61DA61059A9D4B5A60DA605A61DA61F2
:102780009B4B1B78002B00F049819A4BD3F80090AB
:102790004FEA8905944B53F825806F1C53F827A006
:1027A000954A1468A200901C033253F822B0934A51
:1027B0001668314653F82000FDF794FF019031462A
:1027C0005846FDF78FFF02908D4B19684FF07E50F1
:1027D000FEF73CF80390B9F1000F00F0228181462A
:1027E000002C00F02181DDF80CB049464046FDF791
:1027F00079FF8046834C606049465046FDF772FF82
:10280000A06059460198FDF76DFF8146E06059468A
:102810000298FDF767FF206149464046FEF716F82B
:1028200080466061724B1B7853BB774B93F86C30DA
:1028300033B3764B1B88B3F1640218BF012272498F
:1028400013019C18A0000844C46A416C3046FDF78F
:1028500049FF0399FDF746FF01462046FDF7F6FFC5
:10286000044601464046FDF73DFF064641462046E8
:10287000FDF72EFE01463046FDF7E8FF614B58613B
:102880005A4E56F8271056F82500FFF737FD5D4CD5
:10289000A061594B1B689B009A1C033356F8231008
:1028A00056F82200FFF72AFD0146E061A069FFF714
:1028B00025FD054620624E4B1B78002B40F08E8094
:1028C000534B1888FDF7BAFE5249FDF70BFF074638
:1028D00051492846FDF706FF044602F025FE05464D
:1028E000204602F0A1FE0646464B5C6925F00041F9
:1028F0002046FDF7F7FE054626F000412046FDF78D
:10290000F1FE064600212846FEF780F8002865D132
:1029100000213046FEF77AF800285FD100213846C2
:10292000FEF774F8002859D139463046FDF78EFF7E
:10293000834639463046FDF7D5FE01464FF07E50BE
:10294000FDF784FF824631462846FDF77FFF81462A
:1029500029463046FDF77AFF029029462846FDF7C2
:10296000C1FE804631463046FDF7BCFE014640467A
:10297000FDF7B0FD01902946FDF768FF804631461E
:102980000198FDF763FF01903946FDF75FFF0646AA
:1029900001993846FDF7A6FE01464FF07E50FDF73F
:1029A00055FF074601994046FDF750FF0390414609
:1029B0000198FDF74BFF134BC3F828B0C3F824A0D0
:1029C000DC621D63C3F83490029A9A631E64DF636D
:1029D0005C64C3F84880039ADA64186507B0BDE800
:1029E000F08F00BFFC1C0020241D0020481D00208B
:1029F000441D0020783900202C1C002014000020E9
:102A00000C0000201825002090230020941C00209A
:102A100018000020DB0FC94035FA8E3CFFF7FAFDA5
:102A2000B3E64FF07E59DBE64FF07E5BDDE600BF9C
:102A30002DE9F04F95B0BB4B1E78002E40F0CD80B5
:102A4000B94B1F68032F00F2C8800446B74B53F8F8
:102A500027804FEA480917B9B54B1B68B3B1B44B8F
:102A6000D3F800A0BAF1090F70D9B8F1010F1AD04C
:102A7000B8F1030F14D00125B8F1010F7DD941221F
:102A8000002103A804F0EDF8002218E04046FFF70B
:102A9000E5F8A84B00221A60A74B20221A61DEE756
:102AA0004FF0FF35E8E74FF0FF35E5E714A901EBFC
:102AB000531313F8441C013103F8441C01327F2ADC
:102AC0001DD804EB820134F92230A3F5006303FB27
:102AD00005F31BB2B1F802C0ACF5006C0FFA8CFC28
:102AE000964951F83200184441F8320001EBC20116
:102AF000486860444860002BD8DADB43D6E73246AA
:102B000033462C2110E03346824202D3141AE4B239
:102B100000E03446082B03D8082C02D9012600E037
:102B20000126013113460246402909D846B914A8A6
:102B3000084410F8440C9342E5D8D31ADBB2E3E71B
:102B40007C4B13F80820164303F808607C4B1B7875
:102B5000002B3AD17B4B1B68002B41D1754B13F8EE
:102B60000830002B3ED1B8F1010F26D9764BDB7A25
:102B700013F0040F38D1802228E000237F2B17D8D0
:102B800004EB830634F92310A1F500616B4A52F877
:102B9000330001FB050142F83310B6F90210A1F52C
:102BA000006002EBC3025168014451600133E5E764
:102BB000604B002203F80820C8E708F10203634ACB
:102BC000D35C002BD2D1012200E080220AF1010364
:102BD00057490B600A32934208D215B0BDE8F08F16
:102BE0000822F3E70122F1E71022EFE77B1C1A46E7
:102BF00001934E4B53F82200FFF730F8544C04EB8E
:102C0000492509F1010904EB4924494B18680A38A0
:102C1000FDF710FD01464FF07E50FDF717FE82468E
:102C200000267F2E16D8454F57F83600FDF706FDD3
:102C30005146FDF757FD45F8260007EBC609D9F8C0
:102C40000400FDF7FBFC5146FDF74CFD44F826005F
:102C50000136E6E73F4B1B68032B0ED8DFF8F890F0
:102C6000344B13F808A0BAF1000F09D0344B1B788D
:102C7000002B4CD00026002004E0DFF8E090EFE7C6
:102C8000002600207F2E05D855F82610FDF722FCDF
:102C90000136F7E74FF07051FDF724FD0646BAF113
:102CA000000F18D149464FF07E50FDF711FC08F196
:102CB0000203254A02EB830BDBF80410FDF712FD3B
:102CC000074631464846FDF70DFD01463846FDF7FB
:102CD00001FCCBF804001B4BD3F800B0BBF1000F94
:102CE00015D1BAF1000F05D108F10202164B03EB22
:102CF00082035E68BBF17F0F09D8314655F82B007F
:102D0000FDF7E6FB45F82B000BF1010BF2E7002580
:102D100000207F2D24D854F82510FDF7DBFB01356A
:102D2000F7E700BF1000002074390020E0AB000876
:102D3000200800202818002000080140200400205E
:102D4000441D0020FC1C002090230020241800209B
:102D500024080020041D00206666663F9A99993E6B
:102D60004FF07051FDF7BEFC064649464FF07E50CD
:102D7000FDF7AEFB08F106052A4B03EB85056968F4
:102D8000FDF7B0FC824631464846FDF7ABFC0146F4
:102D90005046FDF79FFB06466860234B1D6855B9FA
:102DA0007F2D08D8314654F82500FDF791FB44F8F3
:102DB00025000135F4E74FF4806200211B4803F041
:102DC00050FF1B4B00221A601A4BC3F800801A4BAD
:102DD000019A1A60032A7FF600AF042217491848A7
:102DE00003F00CFFD8B10122164B1A60134B1A687E
:102DF00013490A60002119600B4B1B685BB912F480
:102E00007F0F08BF0121104B1960130E0CBF012268
:102E100000220E4B1A600E4B20225A61DDE6002282
:102E2000E2E700BF90230020FC1C002020040020CB
:102E300020080020200000207439002028180020DD
:102E400024180020081D0020783900202C1C0020A8
:102E500000080140F0B583B00C4616461F4621F02D
:102E6000004502281ED0032838D042492846FDF7E5
:102E7000D7FD00285DD140492846FDF7D1FD002847
:102E800062D13E492846FDF7CBFD002867D1204698
:102E9000FDF7C2FACDE90001394A3946304604F05F
:102EA000B9FD0EE033492846FDF7BAFD58B120467A
:102EB000FDF7B2FACDE90001324A3946304604F056
:102EC000A9FD03B0F0BD2046FDF7A6FACDE900014B
:102ED0002B4A3946304604F09DFDF2E72549284645
:102EE000FDF79EFD78B924492846FDF799FDA8B164
:102EF0002046FDF791FACDE90001224A39463046D5
:102F000004F088FDDDE72046FDF786FACDE90001F3
:102F10001D4A3946304604F07DFDD2E72046FDF7D4
:102F20007BFACDE90001164A3946304604F072FDBD
:102F3000C7E72046FDF770FACDE90001134A39468C
:102F4000304604F067FDBCE72046FDF765FACDE9A1
:102F500000010D4A3946304604F05CFDB1E72046D9
:102F6000FDF75AFACDE90001064A3946304604F029
:102F700051FDA6E7000020410000C84200007A444D
:102F800034AA00082CAA00083CAA000844AA000899
:102F90002DE9F84F8146884693461F46DDF828A064
:102FA000002611E0012202F043F86400A4B20135CA
:102FB000BD4208D205EB090006EB080114F4004FEE
:102FC000F0D10022EFE70136564507D23BF8164014
:102FD000C7F110039C40A4B20025E9E7BDE8F88FD3
:102FE00008B502F005F901F089FF012001F052FF58
:102FF00001F05EFF4FF4FA70FEF7DEFC08BD000042
:1030000030B583B0002001F045FF0021084602F0F2
:103010008BF8254C01222146244802F073F8244DF8
:103020001FA3D3E900232349284604F027FD28469F
:10303000FDF76EFD237800FB03F0C0F17F00002157
:1030400080B202F071F801222146284602F05AF8B7
:103050000E21102002F068F801221749174802F0EB
:1030600051F8012500951F2303227F21002002F043
:1030700085F82621052002F057F82A4621461048F7
:1030800002F040F83421052002F04EF82A4621468D
:103090000C4802F037F801F00BFF03B030BD00BF61
:1030A0003D0AD7A3703DDA3FC0A900084CAA00082A
:1030B000301C002054AA0008B8A900085CAA000827
:1030C00068AA000878AA0008F0B585B0C24BDC7A7F
:1030D000002001F0DFFEC14B1B78012B00F0DC82E9
:1030E00004F00204022B00F026830021084602F0BF
:1030F0001BF8002C00F03A81B9480122B94902F0CE
:1031000001F80021232002F00FF8B74B1B88B3F51C
:103110007A7F80F02D81B54A1A21B54804F07AFCF7
:103120000122B049B24801F0EDFFB24B1B68002B01
:1031300040F02881A84BDB7A13F0040F40F0318176
:1031400000230393A44B9B7A012B00F06981002B91
:1031500000F03681022B00F06E811021002001F07A
:10316000E3FF0122A449A24801F0CCFF00210A207C
:1031700001F0E8FF03A8FEF76DFF0546964B9B7A2A
:10318000012B00F08881002B00F06081022B00F001
:10319000968101229849964801F0B4FF002106204B
:1031A00001F0D0FF8C4B9B7A012B00F0C881002BE3
:1031B00000F0B381022B00F0D481904B1B68002BF0
:1031C00000F0EE8148228A4B1A708D4B1B68002B51
:1031D00000F0E8814823864D6B700023AB70814E70
:1031E00030784000C0F17F00152180B201F09CFFD3
:1031F00001223146284601F085FF824B5D6800219F
:103200002846FDF721FC002800F0CE812846FEF775
:1032100019FD04AB43F8040D1846FEF71BFF0646E4
:103220002821002001F080FF714D1A232A460399BE
:103230000420FFF70FFE2846FDF76AFC0346202E08
:1032400001D02E5401335A1C69485621C154002321
:1032500083540122634901F055FF6A4BDD68002168
:103260002846FDF7F1FB002800F0A0812846FEF774
:10327000E9FC04AB43F8040D1846FEF7EBFE0646E6
:1032800028213E2001F050FF594D1A232A46039968
:103290000420FFF7DFFD2846FDF73AFC0346202E09
:1032A00001D02E5401335A1C51484121C1540023EE
:1032B000835401224B4901F025FF474B9B7A012B98
:1032C00040F27681022B40F00C82002C00F0C88185
:1032D0004C4B1B6C04A840F8043DFEF7BBFE0646B1
:1032E0003521002001F020FF414D1A232A46039981
:1032F0000420FFF7AFFD2846FDF70AFC0346202E09
:1033000001D02E5401335A1C39484821C15400239E
:1033100083540122334901F0F5FE002C00F0A38113
:10332000384B1B6D04A840F8043DFEF793FE06469B
:1033300035213E2001F0F8FE2A4D0122294632486F
:1033400001F0E0FE2A4C1A23224603990320FFF7DE
:1033500081FD2046FDF7DCFB431C26540022E2548D
:1033600001222946204601F0CDFEBAE12748C4E6F5
:10337000274AA2FB03239B09264A1A211C4804F072
:1033800049FBCDE6174D28788000C0F17F00002171
:1033900080B201F0C9FE012229461F4801F0B2FEA9
:1033A000CEE6104D28788000C0F17F00002180B269
:1033B00001F0BAFE01222946184801F0A3FEBFE63B
:1033C00034B1104B1B6C0393094B4C221A80C4E69A
:1033D0000C4B9B6AF7E700BF90230020441D0020A0
:1033E000C8A90008C0A9000818000020D8A9000832
:1033F000301C0020FC1C0020B8A9000878390020EF
:103400002C1C002018250020FCA90008CCA90008CD
:10341000D34D6210E0A90008E8A90008F0A900084F
:1034200034B1924BDB6B0393914B43221A8094E6A9
:103430008E4B5B6AF7E734B18C4B5B6C03938C4B20
:1034400052221A8089E6894BDB6AF7E770280AD096
:103450006E2819D075280CD01A23854A03990420A8
:10346000FFF7F8FC95E683490398FDF73BF90390D5
:1034700075250398FCF7D0FFCDE900017E4A1A219B
:103480007B4804F0C7FA84E67C490398FDF72AF9E3
:1034900003907525EDE7702806D01A23744A039926
:1034A0000420FFF7D7FC74E60398FCF7B5FFCDE9DD
:1034B0000001714A1A216E4804F0ACFA69E67028DE
:1034C0000CD06E281BD0752820D06D280CD01A2364
:1034D000674A03990420FFF7BDFC5AE66849039840
:1034E000FDF700F903906D250398FCF795FFCDE9F2
:1034F0000001614A1A215E4804F08CFA49E65D49F0
:103500000398FDF7EFF803906D25EDE75B4903980D
:10351000FDF7E8F803906D25E6E7202D0DD0544B1C
:103520001D7001235A1C52484821C1540023835462
:103530000122544901F0E6FD3FE60023F2E7202D89
:103540000DD04B4B1D7001235A1C49484621C154D4
:103550000023835401224B4901F0D4FD2DE60023C2
:10356000F2E7202D17D04248057000234370012256
:10357000444901F0C7FD0DF10A0102A801F0DAFD8E
:10358000BDF80800122300930B233F4A0D2102309F
:10359000FFF7FEFC11E60021042001F0D3FDEAE76D
:1035A0004C2210E64C2316E600252FE600255DE6AA
:1035B000002C4FD02D4B9B6C04A840F8043DFEF727
:1035C00049FD07463521002001F0AEFD2F4E0122B6
:1035D00031462F4801F096FD3521142001F0A4FD5D
:1035E000234D1A232A4603990320FFF733FC28466C
:1035F000FDF78EFA431C2F540022EA540122314673
:10360000284601F07FFD44B3184B1B6D04A840F819
:10361000043DFEF71FFD064635213E2001F084FDE6
:103620001A4D012229461B4801F06CFD104C1A234B
:10363000224603990320FFF70DFC2046FDF768FAA8
:10364000431C26540022E25401222946204601F060
:1036500059FD46E0054B1B6BAEE7044B9B6BD5E772
:10366000024B9B6A36E6014B9B6B5BE618250020FC
:10367000301C0020BD3786352CAA00086F12833A13
:103680005F708930B8A90008BCAB0008C0A9000869
:10369000F8A90008FCA90008404C6368404DC3F13C
:1036A0000203404A1A21284604F0B4F905210020FB
:1036B00001F03AFD01223C49284601F023FD238810
:1036C000B3F57A7F2DD2394A1A21284604F0A2F99F
:1036D0002321002001F028FD01223349304801F068
:1036E00011FD334B1878C0F17F00352180B201F015
:1036F0001BFD304BDB7A13F0010F4CD12E4A284CC6
:103700001A21204604F086F901222949204601F0B9
:10371000F9FC01F0CDFB294A13680133136005B0B1
:10372000F0BD274AA2FB03239B09264A1A211C4805
:1037300004F070F9CCE7194C6368194DC3F102032A
:10374000214A1A21284604F065F90521002001F0DC
:10375000EBFC01221449284601F0D4FC2388B3F580
:103760007A7F0ED2114A1A21284604F053F92321F8
:10377000002001F0D9FC01220B49094801F0C2FCEC
:10378000AFE70F4AA2FB03239B090E4A1A21044804
:1037900004F040F9EBE70D4AB1E700BF941C0020AC
:1037A000301C002000AA0008B8A900080CAA0008D4
:1037B000C0A9000890230020D4A90008001D002003
:1037C000D34D621014AA00081CAA0008D0A9000852
:1037D000704700002DE9F04F8DB000230A930B9342
:1037E000099304930593069307930893AB4A1368D0
:1037F00023F001031360AA4B9A6942F004029A6114
:103800009A6902F004020392039A5A6942F0010293
:103810005A615A6902F001020292029A9A6942F4CC
:1038200000729A619B6903F400730193019B9D4CA4
:10383000226840F2011090FAA0F3B3FA83F39B00E0
:103840000F2101FA03F322EA030390FAA0F040F2F9
:10385000022090FAA0F2B2FA82F2920001FA02F289
:1038600023EA020390FAA0F023608F4A936823F0C2
:103870000103936002F58062936823F00103936073
:103880008A4B1A6822F001021A601A6822F48042F8
:1038900022F010021A601A6822F4405242F40052D8
:1038A0001A601A6842F020021A601A6822F0400278
:1038B0001A601A6842F080021A601A6822F4407294
:1038C00042F400721A601A6822F4406242F4006204
:1038D0001A60774A9A60774ADA605A68120C1204C2
:1038E00042F480725A60744A012151601A6842F0B1
:1038F00008021A601A6842F004021A601A6842F05C
:1039000002021A606D4BDA68C2F30222C2F10703A9
:10391000042B28BF04231946131D062B01D9033A93
:1039200000E000224FF0FF338B40DB4303F0010344
:1039300093401B01DBB2624A82F80B334FF4006301
:10394000136000240A940B94574E0AA93046FDF7E1
:1039500069FE0CA94FF4803341F80C3D3046FDF769
:1039600045FE4FF4002304930594069407944FF406
:103970008073089304A93046FDF768FE51494FF45F
:10398000407999FAA9F3B3FA83F34FF4007A2AFA4B
:1039900003F351F8232022F01F0241F8232020399D
:1039A0004FF0007B9BFAABF3B3FA83F32BFA03F3EC
:1039B00051F823204FF0F87595FAA5F022F0070290
:1039C00095FAA5F042F0060241F82320344B9A699B
:1039D00042F480629A619B6903F480630093009BC8
:1039E0000A940B94384F0AA93846FDF71BFE4FF492
:1039F00060230493059406944FF00208CDF81C80D0
:103A0000089404A93846FDF721FE304A99FAA9F92D
:103A1000B9FA89F92AFA09F952F8293023F01F0373
:103A200043F0010342F8293029489BFAABF3B3FA7B
:103A300083F32BFA03F350F8232095FAA5F1B1FA9A
:103A400081F14FF4401424FA01F14FF0070C0CFA05
:103A500001F122EA010295FAA5F5B5FA85F524FAF5
:103A600005F5062404FA05F5154340F82350B3681C
:103A700043F00103B360BB6843F00103BB60404601
:103A8000FDF79AFF134B1A68B36843F00403B36061
:103A9000BB6843F00403BB6024E000BF00040040A7
:103AA00000100240000801400024014008000240CC
:103AB0004C2401402C1800200000024000ED00E0E2
:103AC00000E100E02C240140002801402C280140A6
:103AD0000C280140142500201C4B1B689B1A632BEB
:103AE0000AD830BF1A4B9B6813F0040FF4D1194B5E
:103AF0009B6813F0040FEFD10220FDF75DFF154A1C
:103B0000936823F001039360114B996821F0010140
:103B100099601148016841F0010101606FF00201F4
:103B200011601960916841F001019160996841F05C
:103B300001019960916841F4A00191609A6842F492
:103B400080129A600DB0BDE8F08F00BF14250020F0
:103B500000240140002801400800024030B587B031
:103B6000002501950295039504950595204BDA698A
:103B700042F00202DA61DB6903F002030093009B6A
:103B80001C4B5B6803F5FA431B4AA2FB03231B0B88
:103B9000013B0393194C01A92046FDF75FFE236802
:103BA00043F080032360A36823F4804323F00703DA
:103BB000A360636823F0700343F020036360A3688D
:103BC00023F08003A3606FF001032361E36843F0F7
:103BD0000103E3600A4BDB680A4B83F81D534FF087
:103BE00000521A60236843F00103236007B030BD20
:103BF00000100240681D0020D34D621000040040F8
:103C000000ED00E000E100E030B591B00023099341
:103C10000A930B930C930D930E930F9304930593B8
:103C20000693079308936D4A916941F4804191612D
:103C3000916901F4804103910399916941F0040174
:103C40009161916901F0040102910299516941F079
:103C500001015161526902F001020192019A604C26
:103C6000226822F0010222605E4A04920922059233
:103C70000222069207935C4D04A92846FDF711FD28
:103C80005A4B0493082305930123089304A928465B
:103C9000FDF707FD236823F4804323F0100343F06E
:103CA00010032360236823F440532360236823F028
:103CB00020032360236823F040032360236843F03C
:103CC00080032360236823F440732360236823F474
:103CD00040632360464B4FF480525A60236843F0A0
:103CE00008032360236843F002032360414BDA6832
:103CF000C2F30222C2F10703042B28BF0423194692
:103D0000131D062B66D9033A4FF0FF338B40DB437C
:103D100003F00A0393401B01DBB2374A82F80E33EB
:103D20004FF4804313604FF46123099300230A93F7
:103D30000B930C930C220D920E930F932F4C09A909
:103D40002046FDF7C3FD236923F490432361636993
:103D500023F02A0363612A4A52E8003F43F08003BC
:103D600042E800310029F6D1244B1A680092009AEB
:103D70005A680092009A6FF020021A60214A52E8B5
:103D8000003F43F0200342E800310029F6D1194BEF
:103D9000DA68C2F30222C2F10703042B28BF04230E
:103DA0001946131D062B17D9033A4FF0FF338B40EA
:103DB000DB4303F00A0393401B01DBB20E4A82F897
:103DC0002533202353600D4AD36843F40053D36056
:103DD00011B030BD002297E70022E6E70010024054
:103DE00044000240020002040008014004000404F0
:103DF0000000024000ED00E000E100E0003801407A
:103E0000143801400C3801402DE9F0418AB04FF0E0
:103E10000008CDF82080CDF82480404B9A6942F00C
:103E200004029A619A6902F004020492049A9A695F
:103E300042F008029A619A6902F008020392039A1A
:103E40009A6942F010029A619A6902F01002029295
:103E5000029A9A6942F020029A619B6903F020035A
:103E60000193019B2E4D04236B614FF480736B61B2
:103E700020236B6140236B6180236B61294EFF23FC
:103E8000736101270697022307930AAC40F20443AB
:103E900044F8143D21462846FDF703FC224B0593C8
:103EA00021462846FDF7FDFB42F2200305932146FB
:103EB0002846FDF7F6FB44F24003059321462846C9
:103EC000FDF7EFFB48F28003059321462846FDF7F6
:103ED000E8FB4FF6FF730593069703230793CDF88E
:103EE000208021463046FDF7DCFB08230693099726
:103EF0000E4B059321463046FDF7D3FB0C4B059343
:103F000021463046FDF7CDFB0A4B0593214630464E
:103F1000FDF7C7FB0AB0BDE8F08100BF001002400A
:103F200000080140000C01400100010420002004B1
:103F3000400040048000800482B0124BD3F8043467
:103F400007E0104AC2F804340021C2F80814D2F87D
:103F500000240D4A126812F0200F0AD00A4A526853
:103F6000D2B20849CA540133B3F5806FE9D30023B4
:103F7000E7E7054B1A680192019A5B680193019B80
:103F800002B07047801D00200038014008B54FF492
:103F9000C870FDF7DBFD000008B5424A136823F046
:103FA000070343F0020313603E4B1B6803F0070353
:103FB000022BF9D13C4A136843F4803313603A4B27
:103FC0001B6813F4003FFAD0374A536A43F00103E9
:103FD0005362354B5B6A13F0020FFAD0324A5368D2
:103FE00023F47C1343F4E8135360136843F08073A5
:103FF00013602D4B1B6813F0007FFAD02A4B5A68D0
:1040000022F0F0025A605A6822F4E06242F48062C0
:104010005A605A6822F460525A605A6822F00302C9
:1040200042F002025A60204B5B6803F00C03082B3D
:10403000F9D11E48FDF7D6FC0F20FDF7AFF868BB9D
:10404000194A536823F4404343F400435360FDF797
:1040500003F9174B1868FDF79FFC164BDA68C2F39B
:104060000222C2F10703042B28BF04231946131DA3
:10407000062B15D9033A4FF0FF338B40DB4303F097
:104080000F0393401B01DBB20A4A82F82330A2F5EA
:104090004F62136843F00203136008BDFFF776FF19
:1040A0000022E8E7002002400010024000A24A047B
:1040B0002800002000ED00E008B54FF49670FDF7F1
:1040C00045FD08B56420FDF741FD08B56420FDF706
:1040D0003DFD08B56420FDF739FD08B56420FDF706
:1040E00035FD70477047704738B5FDF78FF8464B80
:1040F0001A6801321A601C68002322E0013A12B2E9
:1041000037E0002258001844C500404929440A817C
:10411000C96849B91D2A07DD3C4A2A4400211175A6
:1041200011615175D4600BE009B1002A27DD002927
:1041300040D0611A03EB4302D000344A02441161BB
:104140000133022B49D803EB4301CA002F49885899
:104150000028F5D05A001A44D50029440A894D6830
:104160008168C94301EA152189B20029C6D001320C
:1041700012B2002AC5DB1E2AC4DD1E22C2E703EBF1
:104180004302D000214A0244527D3AB11F4A024400
:10419000002111611175D1605175D1E7611A580084
:1041A0001844C500194A2A441161012111750021E2
:1041B000D160C5E703EB4302D100144A0A44527DA3
:1041C000002ABDD059001944C800104A02440021F9
:1041D00011611175D1605175B2E70D4B1B68002B51
:1041E00003DD0B4A1368013B13600A4BD3F8082424
:1041F000D3F8083401339A4205D2064AD2F808347B
:104200000133C2F8083438BD142500204C1C0020AE
:1042100024000020801D002008B5104B1B6813F0FF
:10422000080F02D00D4B08225A600C4B1B6813F08C
:10423000040F05D1094B1B6813F0020F07D108BD0D
:104240000748FEF7F5FB054B04225A60F2E70548E4
:10425000FEF7EEFB014B02225A60F0E7000002403D
:104260002C1800202C1A0020064A136823F00103A2
:104270001360054B4FF400425A604FF400525A60ED
:10428000704700BF44000240000002407047000039
:104290000C4B1B6913F0010F13D00A4B6FF0010296
:1042A0001A61094B1B68094AD25C0948C16821F0B0
:1042B000FF010A43C26001333F2B00D90023024AA9
:1042C000136070470004004010250020D024002017
:1042D000000C014008B5FFF72FFE08BD38B5804B34
:1042E000DB68ABB17E4B5B6A93B17D4BDB6B7BB91B
:1042F0007B4B1B69B3F5487FC0F08780784B9B6A86
:10430000B3F5487FC0F08180FDF7C8FCFDF704FCE1
:10431000744B1B78002B4FD1714BDB6833B1704B62
:104320005B6A1BB96E4BDB6B002B51D06C4B1B7D5A
:10433000002B67D16A4BDB6833B9694B5B6A1BB1F1
:10434000674BDB6B002B6CD0654B93F82C30002B4C
:1043500040F08580624BDB683BB9614B5B6A23B9F7
:104360005F4BDB6B002B40F092805D4B93F8443049
:10437000002B4AD05A4B93F84530002B45D1584B6F
:10438000012283F84520584B00221A60574AD37AFD
:1043900083F00403D37213F0040F06D1937A013330
:1043A000022B00D90023514A9372514B41F28832BB
:1043B0001A60FEF789FE28E00023022B25D803EBC4
:1043C0004302D100464A0A44012151750B44F4E7E7
:1043D000434B1B69B3F5FA7F17D3414B5B7DA3B900
:1043E00001243F4B5C7500213F4B1960414D662213
:1043F000A81C02F036FC64232B803A4B1C70FEF79D
:1044000063FE02E0364B5B7D03B138BD344B0122C5
:104410005A75354A136883F001031360FEF754FEA2
:10442000F3E72F4B9B6AB3F5FA7FEED32C4B93F84F
:104430002D30002BE9D12A4B012283F82D200021B9
:10444000294B19602B4C6622A01C02F00AFC642345
:104450002380244B02221A70FEF736FED5E7204B4C
:1044600093F82D30002BD0D11D4B012283F82D2045
:104470001D4B00221A601D4AD37A83F00203D372C7
:104480001B4B41F288321A60FEF71EFEBDE7144B4B
:104490001B6CB3F5FA7FB8D3114B93F84530002B62
:1044A000B3D10F4B012283F845200F4B00221A6035
:1044B0000E4B1B89B3F57A7F0ED00C4B4FF47A72FA
:1044C0001A810A4B1889FDF771FE094B41F28832B7
:1044D0001A60FEF7F9FD98E7044B64221A81F0E7B1
:1044E0004C1C0020441D0020FC1C002090230020B8
:1044F00024000020941C00200F4BDB7A13F0010FE6
:1045000000D1704770B50D4D2C460D4B44F8063B5D
:104510004FF4805632460B49204602F07EFB32466D
:1045200021460020FDF78AFAA88041F206012846BC
:10453000FDF73EFB70BD00BF902300206C290020DA
:104540009619621924080020002800F0B18038B5BF
:104550000C460546002900F087804CB12B78202BB3
:1045600006D8013C2246691C284602F061FBF4E7AC
:10457000002C79D0002300E001339C420BD9E818CD
:10458000EA5C202A07D0A2F14101C9B21929F3D867
:10459000203A0270F0E79C4201D90022EA542946F1
:1045A0004448FCF7ABFA002830D029464248FCF7D3
:1045B000A5FA002832D029464048FCF79FFA002887
:1045C0003FD029463E48FCF799FA002839D02946C1
:1045D0003C48FCF793FA002847D029463A48FCF7B4
:1045E0008DFA002850D029463848FCF787FA002871
:1045F0003AD1374A136883F001031360002B52D07D
:10460000344902F0EDF9FEF75FFD2DE0324902F08A
:10461000E7F96420FDF7D0F9FDF77EFA2F4902F0A3
:10462000DFF900212A4B19602D4C6622A01C02F0F4
:1046300018FB642323802B4B01221A70FEF744FDE4
:1046400012E02949002002F0CBF90021204B19602B
:10465000234C6622A01C02F004FB64232380214B20
:1046600002221A70FEF730FD38BD204AD37A23F0BB
:104670000103D3721E4902F0B3F91E4B4FF4FA62E4
:104680001A60FEF721FDEFE7184AD37A43F00103E1
:10469000D372194902F0A4F9164B4FF4FA621A606A
:1046A000FEF712FDE0E71549002002F099F9AAE7AC
:1046B000704700BFD0AA0008ECAA000814AB00089D
:1046C00020AB000850AB000870AB000890AB0008AE
:1046D000FC1C002098AB0008D8AA0008F4AA000827
:1046E000941C0020441D00202CAB000890230020C7
:1046F00058AB00082400002078AB0008ACAB0008E1
:1047000070B54A4BD3F8082440F6B7339A420ED915
:10471000464BD3F80424D3F800349A420FD0434BCD
:10472000D3F80424C3F800240022C3F80C263F4B1E
:10473000D3F80044D3F80434A3421AD170BD3B4BE4
:10474000D3F80C36002BF2D0E9E7C4F580651BE006
:10475000364BD3F80C2603F20C4313448B424CD94E
:10476000324B0022C3F8082403F20C43C91A9142C9
:104770004EDC2E4BD3F80434A342DFD02B4BD3F8BE
:104780000454AC42E1D82D1B002DD7D0274BD3F8D1
:104790000C36C3F50073AB4204D2244BD3F80C564D
:1047A000C5F50075214ED6F80C0600F58160304441
:1047B0002A463119043002F030FAD6F80C362B4470
:1047C000C6F80C362C44B4F5806F00D3002417498A
:1047D000C1F8004401F20C41144BD3F80C2603F24B
:1047E0000C4313448B42B3D90B780D2BB0D00A2B5A
:1047F000AED0002BACD00131EEE70C4BD3F80C3629
:10480000B3F5FF7FB5D9094B0022C3F80C26B0E7FA
:10481000A3F20C456B18164683F80C2405F20C40E5
:10482000FFF792FEC5F80C66A3E700BF801D0020CD
:104830002DE9F041A24B1B78012B04D0022B00F094
:10484000A080BDE8F0810024072C0CD89D4DA61C4B
:104850009D4B53F8241055F82600FBF73BFE45F816
:1048600026000134F0E70025072D1DD89749984B05
:1048700053F82500FBF736FF074600F055FE914C34
:104880006E1D014654F83600FBF724FE44F836004E
:10489000384600F0C9FE04EBC60401466068FBF729
:1048A00019FE60600135DFE78A4B41F288321A60F9
:1048B000844B5F6801375F60022FC2DD1D88B5F150
:1048C000640418BF01240026072E14D8B21C7D4BA7
:1048D00053F822803846FBF7B1FE01464046FBF70D
:1048E000B5FF2301234433440A337B4A02EB83039D
:1048F00058600136E8E7002613E0731D714A02EBA9
:10490000C3033946586800F0CDFE7449FBF7EAFE50
:1049100023012344334412336F4A02EB830358606C
:104920000136072E0BD8731D664A52F833700021EA
:104930003846FCF76BF80028DFD06948E8E7230128
:104940001C44A200644B1344012283F86C20642DA4
:104950000DD06449002002F043F85F4B1889FDF741
:1049600025FC574B00221A70FEF7AEFB69E7554C49
:1049700066220021A01C02F074F94FF47A732380A0
:10498000F2E70024072C0CD84E4DA61C4E4B53F8D2
:10499000241055F82600FBF79DFD45F8260001344C
:1049A000F0E70025072D1DD84849494B53F825004D
:1049B000FBF798FE074600F0B7FD424C6E1D01461E
:1049C00054F83600FBF786FD44F83600384600F010
:1049D0002BFE04EBC60401466068FBF77BFD6060BC
:1049E0000135DFE73B4B41F288321A60354B5F6897
:1049F00001375F60022F7FF724AF1D88B5F1640493
:104A000018BF01240026072E14D8B21C2D4B53F8D2
:104A100022803846FBF712FE01464046FBF716FFA0
:104A20002301234433442C332B4A02EB8303586085
:104A30000136E8E7002613E0731D224A02EBC303A8
:104A40003946586800F02EFE2449FBF74BFE23013F
:104A5000234433443433204A02EB83035860013645
:104A6000072E0BD8731D174A52F8337000213846B1
:104A7000FBF7CCFF0028DFD01948E8E723011C44EE
:104A8000A200154B1344012283F8F420642D0DD0AD
:104A90001549002001F0A4FF0F4B1889FDF786FB94
:104AA000074B00221A70FEF70FFBCAE6054C662280
:104AB0000021A01C02F0D5F84FF47A732380F2E7AE
:104AC000441D0020941C0020241D002035FA8E3C3B
:104AD000481D00202400002090230020E12E654284
:104AE0000000C07F8CAA0008ACAA000800000000EB
:104AF00070B58AB0984A936943F001039361936952
:104B000003F001030993099BD36943F08053D361F8
:104B1000D36903F080530893089B90494B6823F0B6
:104B2000E06343F000734B608D4B596841F4807132
:104B30005960596841F400715960596841F48061C5
:104B40005960596841F400615960596841F48051D5
:104B50005960596841F400515960596841F4004165
:104B60005960596841F480315960596841F4804175
:104B700059607C48C16821F4E0610904090C7A4B52
:104B80000B43C360536AC3F3C063784C2370536A0A
:104B9000C3F380636370536AC3F30073A370536AF3
:104BA000C3F34073E370536AC3F380732371536A92
:104BB000DB0F6371936803F00103A371536A43F041
:104BC000807353626A4D2B680021586802F06CFEB6
:104BD0002B680021986802F067FE2B680021D868D6
:104BE00002F062FE634B644A1A60644959609A613C
:104BF00001F12011D9611A63614A5A63614D624B18
:104C00006B604FF47A732B810123AB72EB7A43F024
:104C10000103EB72FCF730FFFCF7E6FAFFF7BCF993
:104C20005A48FCF70BFEFFF7EFF8FEF7EDFF4FF0E9
:104C300072515748FDF7F0F9FDF782F869684FF0B7
:104C40007E50FBF703FE534B1860534B1A68534BCF
:104C500053F82200524B1860FDF700F82889FDF741
:104C6000A5FAFEF7BDF9FEF7CBF92378002B2FD07C
:104C70004C4B3E4A5278002A2CD04B4A3B4989780B
:104C8000002929D049493948C07838B34848374CB9
:104C900024792CB3474C354D6D791DB3464D334EB9
:104CA000B6790EB3454E069605950494039002918D
:104CB0000192009326A3D3E900234149002001F08B
:104CC0008FFEFEF787FDFEF749FF3E4B18681FE099
:104CD0003D4BCEE73D4AD1E73D49D4E73D48D6E7D5
:104CE0003D4CD8E73D4DDAE73D4EDCE70133022B82
:104CF0000AD803EB4301CC001E492144098909B2BB
:104D00000029F3DD1046F1E7121AB2F57A7F04D2DA
:104D100030BF2C4B1A680023E9E70022022A0CD886
:104D200053001344D900134B0B44002159751981CA
:104D3000D960197519610132F0E74FF47A70FCF708
:104D40003BFE284B00221A7051E000BFAFF30080F9
:104D50003D0AD7A3703DDA3F001002400000014039
:104D6000002004E000ED00E00003FA05781D0020BB
:104D7000300000204C1C0020000C014020002004CA
:104D8000800080049023002000007A44681D0020E9
:104D90000C1D00201400002074390020E0AB000836
:104DA00018250020F0AB0008F8AB000800AC0008A4
:104DB00008AC000818AC000828AC000838AC0008A3
:104DC00048AC000814250020F4AB0008FCAB000838
:104DD00004AC000810AC000820AC000830AC00089F
:104DE00040AC000810000020194B1B6803B3BFF350
:104DF0004F8F30BFFFF772FAFFF782FC154B19682F
:104E0000154A52F82110154A11601B68032BEBD983
:104E1000FDF79AFCFFF70CFDFEF756F9FFF76CFB68
:104E20000F4A1368013313600A4B00221A60DBE754
:104E30000C49002001F0D4FDFCF794FF002804DBAE
:104E4000034B4FF0FF321A60D1E7FCF78BFFF7E717
:104E50002400002074390020E0AB00081825002051
:104E6000041D002080AC000808B54FF6FF7101203A
:104E7000FCF72AFE08BD10B582B000248DF804406E
:104E80008DF80500022201A9782000F0E5FA2046FD
:104E900002B010BD08B530B1FF214FF48062034865
:104EA00001F0DFFE08BD0021F7E700BF783C0020DD
:104EB00010B5A2B040238DF80430002418E0A4F10E
:104EC0005000C0B2FFF7D7FF0020FFF7D4FF10203B
:104ED000FFF7D1FF8022084901EBC4110DF1050055
:104EE00001F09BFE812201A9782000F0B5FA01347F
:104EF000072CE4DD22B010BD783C002010B5002363
:104F00000CE0DA08D201474921F8132003F0070129
:104F100001228A404449CA5401339BB23F2BF0D945
:104F20006420FCF785F9AE20FFF7A5FF044620209A
:104F3000FFF7A1FF04441020FFF79DFF0444B020B9
:104F4000FFF799FF0444C820FFF795FF04440020B1
:104F5000FFF791FF04441020FFF78DFF0444402029
:104F6000FFF789FF04448120FFF785FF0444FF20F9
:104F7000FFF781FF0444A120FFF77DFF0444A62032
:104F8000FFF779FF0444A820FFF775FF04443F2092
:104F9000FFF771FF0444A420FFF76DFF0444D32002
:104FA000FFF769FF04440020FFF765FF0444D520A4
:104FB000FFF761FF0444F020FFF75DFF0444D920B0
:104FC000FFF759FF04442220FFF755FF0444DA207D
:104FD000FFF751FF04441220FFF74DFF0444DB208C
:104FE000FFF749FF04442020FFF745FF04448D20CC
:104FF000FFF741FF04441420FFF73DFF0444AF20B6
:10500000FFF739FFE04201D0012010BD0020FFF77B
:1050100041FFFFF74DFF054B00201880588001220B
:105020005A71F2E77C390020FC390020703C0020E6
:105030007F2814D83F2912D80C4B1B7913B1B2FA30
:1050400082F252090A4B33F811301844094B595C6B
:10505000012A05D0084A135C23EA01031354704760
:10506000054A135C0B431354704700BF703C00208B
:105070007C390020FC390020783C00202DE9F843E1
:105080001F4B1B880C7823447F2B33DC1C4B5B8825
:105090004C7823443F2B30DC90460D468146002659
:1050A00015E04246FFF7C4FF01342B78A3420DD927
:1050B000134B188820445988314407FA04F313F439
:1050C000004FEED1B8FA88F25209EBE701366A7860
:1050D000B24208D96968A9F1200302FB036331F8E1
:1050E00013700024E1E72B78054A11880B441380E4
:1050F000484600E00020BDE8F8830020FBE700BF41
:10510000703C002070B504460E46154623784BB11E
:105110002A4631461846FFF7B1FF2378984201D15D
:105120000134F3E7184670BD014B18805980704771
:10513000703C0020024B1A8802805B880B8070470D
:10514000703C00200C4B1B881844002810DD802880
:10515000A8BF802080B2084B18805B8819440029C2
:1051600008DD4029A8BF402189B2034B5980704710
:105170000020F0E70021F8E7703C00202DE9F04125
:1051800004460D4690461F469DF8186005E03246DD
:1051900039462046FFF74CFF4444AC42F7D9BDE8FE
:1051A000F081000000F0BEF90B480C490C4A0023C6
:1051B00002E0D458C4500433C4188C42F9D3094ACD
:1051C000094C002301E013600432A242FBD301F03A
:1051D000F1FCFFF78DFC704700000020000200206A
:1051E00084B30008000200207C400020FEE700009D
:1051F000F0B587B0104C08232361102323610126EA
:1052000002960327039704230493059606AD40F600
:10521000080345F8143D29462046FCF742FA029659
:1052200003970023049341F210030193294620467B
:10523000FCF737FA07B0F0BD00080140174B102209
:105240001A610821196100BF00BF00BF00BF00BF85
:1052500000BF00BF00BF00BF00BF00BF00BF00BF56
:1052600000BF00BF00BF596100BF00BF00BF00BF4B
:1052700000BF00BF00BF00BF00BF00BF00BF00BF36
:1052800000BF00BF00BF00BF5A6100BF00BF00BF2A
:1052900000BF00BF00BF00BF00BF70470008014053
:1052A000174B08225A6100BF00BF00BF00BF00BFFC
:1052B00000BF00BF00BF00BF00BF00BF00BF00BFF6
:1052C00000BF00BF00BF1021196100BF00BF00BFB9
:1052D00000BF00BF00BF00BF00BF00BF00BF00BFD6
:1052E00000BF00BF00BF00BF00BF1A6100BF00BF0A
:1052F00000BF00BF00BF00BF00BF00BF704700BFBE
:1053000000080140002837D11D4B08225A6100BF18
:1053100000BF00BF00BF00BF00BF00BF00BF184BF1
:1053200010221A6100BF00BF00BF00BF00BF00BF56
:1053300000BF00BF00BF00BF00BF00BF00BF00BF75
:1053400000BF00BF00BF00BF00BF00BF00BF00BF65
:1053500000BF00BF00BF00BF00BF00BF00BF00BF55
:1053600000BF00BF00BF00BF00BF00BF00BF00BF45
:1053700000BF00BF5A617047014B08221A61C6E79F
:10538000000801401A4B08221A6100BF00BF00BF8D
:1053900000BF00BF00BF00BF00BF00BF00BF00BF15
:1053A00000BF00BF00BF00BF00BF10221A6100BFD6
:1053B00000BF00BF00BF00BF00BF00BF00BF00BFF5
:1053C00000BF00BF00BF00BF00BF00BF00BF00BFE5
:1053D00000BF00BF00BF00BF00BF00BF00BF986894
:1053E000C043C00880F001005A6100F0010070471E
:1053F0000008014038B50446154639BB04F080006A
:10540000FFF780FF04F04000FFF77CFF04F020006E
:10541000FFF778FF04F01000FFF774FF04F00800B6
:10542000FFF770FF04F00400FFF76CFF04F00200C8
:10543000FFF768FF04F00100FFF764FFFFF7A2FF2A
:10544000044635B9B4FA84F0400938BDFFF7F6FEDA
:10545000D4E7FFF725FFF5E729B370B50E460AB983
:10546000002070BD154600220121FFF7C3FFB0B137
:10547000002406E000221146305DFFF7BBFF70B14B
:105480000134A5420BD96B1EA342F3D8012200219F
:10549000305DFFF7AFFF0028F2D00120E1E7FFF712
:1054A000FFFE0020DDE70020704770B50D46164670
:1054B000002404E0AFF30080287001340135B442C9
:1054C000F8DB304670BD4FF0FF3070474FF40053AB
:1054D0004B600020704700207047000010B5034665
:1054E0000C4A0D490D48006840B10C48006803445F
:1054F000521A934206D8094A136010BD0748084C57
:105500000460F2E701F086FA0C2303604FF0FF30ED
:10551000F3E700BF00500020000400003C3A0020E8
:105520007C4000207047000000B51C4A20F000437A
:10553000934283B018DDB3F1FF4F05DB0146FAF764
:10554000C7FF03B05DF804FB694600F075FA00F090
:105550000302012A0ED0022A18D092B10122019929
:10556000009801F055F8ECE7002100F02BFC03B0A7
:105570005DF804FB0199009801F04AF800F1004041
:10558000DFE70199009800F01DFCDAE70199009827
:1055900000F018FC00F10040D3E700BFD80F493FEE
:1055A0002DE9F04120F00047FC0D7F3C162C05460C
:1055B00018DC002C804620DB184F2741384214D0DD
:1055C0001749FAF787FF0021FBF748FA68B1002D69
:1055D00004DA4FF4000343FA04F4A04428EA070075
:1055E000BDE8F081B7F1FF4F02D22846BDE8F08157
:1055F0000146FAF76FFFBDE8F0810949FAF76AFF43
:105600000021FBF72BFA0028EFD0002D01DB002052
:10561000ECE7002FE9D00348E8E700BFFFFF7F0079
:10562000CAF24971000080BF00B51D4A20F0004356
:10563000934283B019DDB3F1FF4F05DB0146FAF762
:1056400047FF03B05DF804FB694600F0F5F900F090
:105650000300012810D0022819D090B101990098B8
:1056600000F0B0FB00F10040EBE70022002100F069
:10567000CFFF03B05DF804FB0199009800F0A2FB96
:10568000DFE701220199009800F0C2FFD9E701226B
:105690000199009800F0BCFF00F10040D1E700BF85
:1056A000D80F493F00F0AEB82DE9F0438BB0054666
:1056B0000C4600F037F9294B074693F90060731C3C
:1056C00038D021462046FBF753FD002832D1294629
:1056D0002846FBF74DFD804660BB00212046FBF7C6
:1056E00095F938B301221E4B2846CDF82080CDE92C
:1056F0000023FAF791FE804689462046CDE90289CB
:10570000FAF78AFECDE90401C6B100220023104653
:105710001946FBF72FFB022ECDE9060110D101F04F
:1057200079F921230360089B93B9DDE90601FBF7B2
:10573000CFFC074638460BB0BDE8F083CDE90689BB
:10574000684600F0DBFF0028E9D0089B002BECD076
:1057500001F060F9089B0360E7E700BF2C00002020
:10576000B0AC0008F0B58BB0044600F0D7FA234B7C
:10577000064693F900506B1C0AD021462046FBF7E1
:10578000F7FC074620B900212046FBF749F910B97C
:1057900030460BB0F0BD0122194B2046CDE9002365
:1057A0000897FAF739FE0022CDE90401CDE902019C
:1057B0000023ADB110461946FBF7DCFA022DCDE906
:1057C00006010FD101F026F921230360089B7BB964
:1057D000DDE90601FBF77CFC064630460BB0F0BD68
:1057E000CDE90623684600F089FF0028EED1E9E7FD
:1057F00001F010F9089B0360EAE700BF2C000020CD
:10580000B8AC0008F8B521F00044B4F1FF4F0A46E7
:10581000034614DC20F00045B5F1FF4F07460EDCCF
:10582000B1F17E5F31D08E1706F0020646EAD076DF
:1058300055B9022E3AD0032E00D13148F8BD194691
:105840001046FAF747FEF8BDDCB1B4F1FF4F20D0A7
:10585000B5F1FF4F15D02C1BE4153C2C28DC00299A
:1058600028DA3C3426DA0020012E34D0022E2AD049
:10587000002EE3D02349FAF72DFE2349FAF728FE3C
:10588000F8BD002F10DB2148F8BDBDE8F84000F05E
:1058900037BFB5F1FF4F21D0022E07D0032ECCD059
:1058A000012E23D00020F8BD1948F8BD1648F8BDD8
:1058B0001648D9E711461846FAF7C8FF01F02EF846
:1058C00000F01EFFD0E70F49FAF704FE01460E482C
:1058D000FAF7FEFDF8BD00F10040F8BD022E0CD035
:1058E000032E08D0012E04D00A48F8BD4FF0004026
:1058F000F8BD0948F8BD0948F8BD0948F8BD00BF22
:10590000DB0F49C02EBDBB33DB0F4940DB0FC93F66
:10591000DB0FC9BFDB0F493FDB0F49BFE4CB16C02C
:10592000E4CB1640F8B531F0004436D020F0004208
:10593000B2F1FF4F054630DAB4F1FF4F2DDCA24241
:1059400030DB00F000472ED00B4639498A422FDD6C
:10595000D1157F39B4F5000F56DA6FF07D062002BD
:10596000400006F1FF36FBD511F17E0F47DBC5F392
:10597000160242F4000216F17E0F3BDBC3F316035E
:1059800043F40004891B02E00DD05A000139131BB7
:10599000C1B1002BF8DA5200F8E7FAF7A3FE01468E
:1059A000FAF754FFF8BD234BF80F53F82000F8BD69
:1059B000100233D06FF07D014000002801F1FF316B
:1059C000FADCC7E733EA230328BF1346002BEAD0EB
:1059D000174A934204DC5B00934206F1FF36FADD7E
:1059E00016F17E0F13DA6FF07D00801B43FA00F092
:1059F0003843F8BD6FF07D039B1B9C40C2E76FF0FE
:105A00007D00401A8240B6E7E6157F3EACE7A3F57D
:105A1000000038437F3640EAC650F8BD8C4204DDB2
:105A2000E6157F3E6FF07D01A1E76FF07D0194E701
:105A3000FFFF7F00C0AC00082DE9F04FAA4A20F01C
:105A40000044944289B06FDDA84A064694420D4650
:105A50001CDC002824F00F04A5496DDDFAF738FDA1
:105A6000A44B06469C4200F0E980A349FAF730FDBA
:105A7000014630462960FAF72BFD9F49FAF728FDC9
:105A800001276860384609B0BDE8F08F9B4A944210
:105A900068DDB4F1FF4F80F2CA80E715863FA4EBC2
:105AA000C7542046FAF7E4FFFAF7C8FD034620463C
:105AB00019460593FAF70CFD4FF08741FAF712FEED
:105AC0008046FAF7D5FFFAF7B9FD0446404621466D
:105AD0000694FAF7FDFC4FF08741FAF703FE002128
