:020000040800F2
:10000000005000203D5D0008C1450008CB450008B8
:10001000D3450008DB450008E34500080000000068
:10002000000000000000000000000000EB45000898
:10003000ED45000800000000EF450008F14500080C
:10004000855D0008855D0008855D0008855D000808
:10005000855D0008855D0008855D0008855D0008F8
:10006000855D0008855D0008855D0008194700086A
:10007000855D0008855D000871470008855D000802
:10008000855D0008855D0008855D0008855D0008C8
:10009000855D0008855D0008855D0008855D0008B8
:1000A000855D0008855D0008855D0008855D0008A8
:1000B000855D0008855D0008855D0008855D000898
:1000C000855D0008855D0008855D0008855D000888
:1000D000855D0008A1470008855D0008855D000872
:1000E000855D0008855D0008855D00080000000052
:1000F0000000000000000000000000000000000000
:0C01000000000000000000005FF808F1A3
:1001100010B5054C237833B9044B13B10448AFF341
:1001200000800123237010BDF801002000000000B2
:10013000D8A9000808B5034B1BB103490348AFF326
:10014000008008BD00000000FC010020D8A90008C4
:1001500081F0004102E000BF83F0004330B54FEA78
:1001600041044FEA430594EA050F08BF90EA020FE5
:100170001FBF54EA000C55EA020C7FEA645C7FEA78
:10018000655C00F0E2804FEA5454D4EB5555B8BF9B
:100190006D420CDD2C4480EA020281EA030382EA0C
:1001A000000083EA010180EA020281EA0303362D9E
:1001B00088BF30BD11F0004F4FEA01314FF4801C71
:1001C0004CEA113102D0404261EB410113F0004F83
:1001D0004FEA03334CEA133302D0524263EB43033A
:1001E00094EA050F00F0A780A4F10104D5F1200ED8
:1001F0000DDB02FA0EFC22FA05F2801841F1000133
:1002000003FA0EF2801843FA05F359410EE0A5F106
:1002100020050EF1200E012A03FA0EFC28BF4CF037
:10022000020C43FA05F3C01851EBE37101F00045ED
:1002300007D54FF0000EDCF1000C7EEB00006EEBFA
:100240000101B1F5801F1BD3B1F5001F0CD3490884
:100250005FEA30004FEA3C0C04F101044FEA4452DB
:1002600012F5800F80F09A80BCF1004F08BF5FEA62
:10027000500C50F1000041EB045141EA050130BD42
:100280005FEA4C0C404141EB0101013C28BFB1F554
:10029000801FE9D291F0000F04BF01460020B1FA9F
:1002A00081F308BF2033A3F10B03B3F120020CDA72
:1002B0000C3208DD02F1140CC2F10C0201FA0CF050
:1002C00021FA02F10CE002F11402D8BFC2F1200CB5
:1002D00001FA02F120FA0CFCDCBF41EA0C0190406B
:1002E000E41AA2BF01EB0451294330BD6FEA0404B4
:1002F0001F3C1CDA0C340EDC04F11404C4F120029F
:1003000020FA04F001FA02F340EA030021FA04F3B0
:1003100045EA030130BDC4F10C04C4F1200220FA07
:1003200002F001FA04F340EA0300294630BD21FA45
:1003300004F0294630BD94F0000F83F4801306BF0B
:1003400081F480110134013D4EE77FEA645C18BFFF
:100350007FEA655C29D094EA050F08BF90EA020F96
:1003600005D054EA000C04BF1946104630BD91EA8E
:10037000030F1EBF0021002030BD5FEA545C05D191
:100380004000494128BF41F0004130BD14F58004D0
:100390003CBF01F5801130BD01F0004545F0FE4144
:1003A00041F470014FF0000030BD7FEA645C1ABF79
:1003B000194610467FEA655C1CBF0B46024650EAB0
:1003C000013406BF52EA033591EA030F41F40021DC
:1003D00030BD00BF90F0000F04BF0021704730B562
:1003E0004FF4806404F132044FF000054FF0000137
:1003F00050E700BF90F0000F04BF0021704730B5F8
:100400004FF4806404F1320410F0004548BF4042CC
:100410004FF000013EE700BF42004FEAE2014FEA21
:1004200031014FEA02701FBF12F07F4393F07F4FFC
:1004300081F06051704732F07F4208BF704793F0FF
:100440007F4F04BF41F40021704730B54FF4607412
:1004500001F0004521F000411CE700BF50EA010215
:1004600008BF704730B54FF000050AE050EA0102BE
:1004700008BF704730B511F0004502D5404261EB2E
:1004800041014FF4806404F132045FEA915C3FF46F
:10049000D8AE4FF003025FEADC0C18BF03325FEA0C
:1004A000DC0C18BF033202EBDC02C2F1200300FABD
:1004B00003FC20FA02F001FA03FE40EA0E0021FAE2
:1004C00002F11444BDE600BF80F0004002E000BF2E
:1004D00081F0004142001FBF5FEA410392EA030F2F
:1004E0007FEA226C7FEA236C6AD04FEA1262D2EB79
:1004F0001363C1BFD218414048404140B8BF5B427E
:10050000192B88BF704710F0004F40F4000020F016
:100510007F4018BF404211F0004F41F4000121F02C
:100520007F4118BF494292EA030F3FD0A2F1010276
:1005300041FA03FC10EB0C00C3F1200301FA03F1B4
:1005400000F0004302D5494260EB4000B0F5000FD7
:1005500013D3B0F1807F06D340084FEA310102F196
:100560000102FE2A51D2B1F1004F40EBC25008BF48
:1005700020F0010040EA03007047490040EB000012
:10058000013A28BFB0F5000FEDD2B0FA80FCACF113
:10059000080CB2EB0C0200FA0CF0AABF00EBC25040
:1005A00052421843BCBFD0401843704792F0000F2E
:1005B00081F4000106BF80F400000132013BB5E781
:1005C0004FEA41037FEA226C18BF7FEA236C21D0F7
:1005D00092EA030F04D092F0000F08BF084670475C
:1005E00090EA010F1CBF0020704712F07F4F04D12A
:1005F000400028BF40F00040704712F100723CBF3D
:1006000000F50000704700F0004343F0FE4040F466
:10061000000070477FEA226216BF08467FEA236324
:100620000146420206BF5FEA412390EA010F40F40F
:10063000800070474FF0000304E000BF10F000435B
:1006400048BF40425FEA000C08BF704743F0964342
:1006500001464FF000001CE050EA010208BF70475D
:100660004FF000030AE000BF50EA010208BF7047E4
:1006700011F0004302D5404261EB41015FEA010CF9
:1006800002BF84460146002043F0B64308BFA3F1F1
:100690008053A3F50003BCFA8CF2083AA3EBC253D3
:1006A00010DB01FA02FC634400FA02FCC2F12002F2
:1006B000BCF1004F20FA02F243EB020008BF20F029
:1006C0000100704702F1200201FA02FCC2F120028F
:1006D00050EA4C0021FA02F243EB020008BF20EA84
:1006E000DC7070474FF0FF0C1CEAD0521EBF1CEAB2
:1006F000D15392EA0C0F93EA0C0F6FD01A4480EAA0
:10070000010C400218BF5FEA41211ED04FF0006388
:1007100043EA501043EA5111A0FB01310CF00040B4
:10072000B1F5000F3EBF490041EAD3715B0040EADA
:10073000010062F17F02FD2A1DD8B3F1004F40EBAA
:10074000C25008BF20F00100704790F0000F0CF07D
:10075000004C08BF49024CEA502040EA51207F3A41
:10076000C2BFD2F1FF0340EAC250704740F400001C
:100770004FF00003013A5DDC12F1190FDCBF00F00D
:1007800000407047C2F10002410021FA02F1C2F1BB
:10079000200200FA02FC5FEA310040F1000053EA57
:1007A0004C0308BF20EADC70704792F0000F00F0A5
:1007B000004C02BF400010F4000F013AF9D040EAAB
:1007C0000C0093F0000F01F0004C02BF490011F43F
:1007D000000F013BF9D041EA0C018FE70CEAD1533D
:1007E00092EA0C0F18BF93EA0C0F0AD030F0004CBD
:1007F00018BF31F0004CD8D180EA010000F0004071
:10080000704790F0000F17BF90F0004F084691F02E
:10081000000F91F0004F14D092EA0C0F01D1420268
:100820000FD193EA0C0F03D14B0218BF084608D131
:1008300080EA010000F0004040F0FE4040F400007B
:10084000704740F0FE4040F4400070474FF0FF0C0E
:100850001CEAD0521EBF1CEAD15392EA0C0F93EA55
:100860000C0F69D0A2EB030280EA010C49024FEAA7
:10087000402037D04FF0805343EA111143EA101360
:100880000CF000408B4238BF5B0042F17D024FF418
:10089000000C8B4224BF5B1A40EA0C00B3EB510FF3
:1008A00024BFA3EB510340EA5C00B3EB910F24BFDC
:1008B000A3EB910340EA9C00B3EBD10F24BFA3EB61
:1008C000D10340EADC001B0118BF5FEA1C1CE0D129
:1008D000FD2A3FF650AF8B4240EBC25008BF20F0DC
:1008E000010070470CF0004C4CEA50207F32C2BF30
:1008F000D2F1FF0340EAC250704740F400004FF0CD
:100900000003013A37E792F0000F00F0004C02BFFD
:10091000400010F4000F013AF9D040EA0C0093F0C7
:10092000000F01F0004C02BF490011F4000F013B21
:10093000F9D041EA0C0195E70CEAD15392EA0C0F89
:1009400008D142027FF47DAF93EA0C0F7FF470AFC1
:10095000084676E793EA0C0F04D14B023FF44CAF04
:1009600008466EE730F0004C18BF31F0004CCAD199
:1009700030F000427FF45CAF31F000437FF43CAFD5
:100980005FE700BF4FF0FF3C06E000BF4FF0010CF7
:1009900002E000BF4FF0010C4DF804CD4FEA4002D9
:1009A0004FEA41037FEA226C18BF7FEA236C11D023
:1009B00001B052EA530C18BF90EA010F58BFB2EBD6
:1009C000030088BFC81738BF6FEAE17018BF40F056
:1009D000010070477FEA226C02D15FEA402C05D10A
:1009E0007FEA236CE4D15FEA412CE1D05DF8040B8F
:1009F000704700BF844608466146FFE70FB5FFF722
:100A0000C9FF002848BF10F1000F0FBD4DF808EDD9
:100A1000FFF7F4FF0CBF012000205DF808FB00BFCA
:100A20004DF808EDFFF7EAFF34BF012000205DF824
:100A300008FB00BF4DF808EDFFF7E0FF94BF012071
:100A400000205DF808FB00BF4DF808EDFFF7D2FF6E
:100A500094BF012000205DF808FB00BF4DF808EDB1
:100A6000FFF7C8FF34BF012000205DF808FB00BF7E
:100A70004FEA4002B2F1FE4F0FD34FF09E03B3EBAB
:100A800012620DD94FEA002343F0004310F0004FEB
:100A900023FA02F018BF404270474FF00000704741
:100AA00012F1610F01D1420205D110F0004008BFE0
:100AB0006FF0004070474FF00000704742000ED2C8
:100AC000B2F1FE4F0BD34FF09E03B3EB126209D489
:100AD0004FEA002343F0004323FA02F070474FF03F
:100AE0000000704712F1610F01D1420202D14FF0B4
:100AF000FF3070474FF00000704700BF034613F807
:100B0000012B002AFBD1181A0138704770B54FF03D
:100B1000FF0C4CF4E06C1CEA11541DBF1CEA135589
:100B200094EA0C0F95EA0C0F00F0DEF82C4481EAF1
:100B3000030621EA4C5123EA4C5350EA013518BF11
:100B400052EA033541F4801143F4801338D0A0FBFE
:100B500002CE4FF00005E1FB02E506F00042E0FBAB
:100B600003E54FF00006E1FB03569CF0000F18BFB1
:100B70004EF0010EA4F1FF04B6F5007F64F5407459
:100B800004D25FEA4E0E6D4146EB060642EAC621EC
:100B900041EA55514FEAC52040EA5E504FEACE2E59
:100BA000B4F1FD0C88BFBCF5E06F1ED8BEF1004F5C
:100BB00008BF5FEA500E50F1000041EB045170BDD8
:100BC00006F0004646EA010140EA020081EA03011C
:100BD000B4EB5C04C2BFD4EB0C0541EA045170BD18
:100BE00041F480114FF0000E013C00F3AB8014F192
:100BF000360FDEBF002001F0004170BDC4F10004DB
:100C0000203C35DA0C341BDC04F11404C4F120055B
:100C100000FA05F320FA04F001FA05F240EA0200B6
:100C200001F0004221F0004110EBD37021FA04F6EC
:100C300042EB06015EEA430E08BF20EAD37070BDA6
:100C4000C4F10C04C4F1200500FA04F320FA05F005
:100C500001FA04F240EA020001F0004110EBD37007
:100C600041F100015EEA430E08BF20EAD37070BD77
:100C7000C4F1200500FA05F24EEA020E20FA04F350
:100C800001FA05F243EA020321FA04F001F00041FF
:100C900021FA04F220EA020000EBD3705EEA430E70
:100CA00008BF20EAD37070BD94F0000F0FD101F09F
:100CB0000046400041EB010111F4801F08BF013CD8
:100CC000F7D041EA060195F0000F18BF704703F016
:100CD0000046520043EB030313F4801F08BF013D9D
:100CE000F7D043EA0603704794EA0C0F0CEA135559
:100CF00018BF95EA0C0F0CD050EA410618BF52EA13
:100D00004306D1D181EA030101F000414FF0000018
:100D100070BD50EA410606BF1046194652EA430626
:100D200019D094EA0C0F02D150EA013613D195EA9A
:100D30000C0F05D152EA03361CBF104619460AD1E2
:100D400081EA030101F0004141F0FE4141F47001EC
:100D50004FF0000070BD41F0FE4141F4780170BDDC
:100D600070B54FF0FF0C4CF4E06C1CEA11541DBF41
:100D70001CEA135594EA0C0F95EA0C0F00F0A7F843
:100D8000A4EB050481EA030E52EA03354FEA013170
:100D900000F088804FEA03334FF0805545EA131383
:100DA00043EA12634FEA022245EA111545EA10654B
:100DB0004FEA00260EF000419D4208BF964244F1E2
:100DC000FD0404F5407402D25B084FEA3202B61A01
:100DD00065EB03055B084FEA32024FF480104FF4D5
:100DE000002CB6EB020E75EB030E22BFB61A754649
:100DF00040EA0C005B084FEA3202B6EB020E75EBDC
:100E0000030E22BFB61A754640EA5C005B084FEA43
:100E10003202B6EB020E75EB030E22BFB61A754610
:100E200040EA9C005B084FEA3202B6EB020E75EB1B
:100E3000030E22BFB61A754640EADC0055EA060EDC
:100E400018D04FEA051545EA16754FEA06164FEA1F
:100E5000C30343EA52734FEAC2025FEA1C1CC0D1CB
:100E600011F4801F0BD141EA00014FF000004FF058
:100E7000004CB6E711F4801F04BF01430020B4F119
:100E8000FD0C88BFBCF5E06F3FF6AFAEB5EB030CD1
:100E900004BFB6EB020C5FEA500C50F1000041EBCE
:100EA000045170BD0EF0004E4EEA113114EB5C049B
:100EB000C2BFD4EB0C0541EA045170BD41F480116E
:100EC0004FF0000E013C90E645EA060E8DE60CEA76
:100ED000135594EA0C0F08BF95EA0C0F3FF43BAF93
:100EE00094EA0C0F0AD150EA01347FF434AF95EA4A
:100EF0000C0F7FF425AF104619462CE795EA0C0F2E
:100F000006D152EA03353FF4FDAE1046194622E7FA
:100F100050EA410618BF52EA43067FF4C5AE50EAD4
:100F200041047FF40DAF52EA43057FF4EBAE12E7C4
:100F30004FF0FF3C06E000BF4FF0010C02E000BFA5
:100F40004FF0010C4DF804CD4FEA410C7FEA6C5C88
:100F50004FEA430C18BF7FEA6C5C1BD001B050EA2B
:100F6000410C0CBF52EA430C91EA030F02BF90EA16
:100F7000020F0020704710F1000F91EA030F58BFD5
:100F8000994208BF90422CBFD8176FEAE37040F037
:100F9000010070474FEA410C7FEA6C5C02D150EAD5
:100FA000013C07D14FEA430C7FEA6C5CD6D152EA90
:100FB000033CD3D05DF8040B704700BF8446104655
:100FC00062468C461946634600E000BF01B5FFF754
:100FD000B7FF002848BF10F1000F01BD4DF808ED24
:100FE000FFF7F4FF0CBF012000205DF808FB00BFF5
:100FF0004DF808EDFFF7EAFF34BF012000205DF84F
:1010000008FB00BF4DF808EDFFF7E0FF94BF01209B
:1010100000205DF808FB00BF4DF808EDFFF7CEFF9C
:1010200094BF012000205DF808FB00BF4DF808EDDB
:10103000FFF7C4FF34BF012000205DF808FB00BFAC
:101040004FEA410C7FEA6C5C02D150EA013C0AD1C4
:101050004FEA430C7FEA6C5C02D152EA033C02D1B6
:101060004FF0000070474FF0010070474FEA410217
:1010700012F5001215D211D56FF47873B3EB6252EA
:1010800012D94FEAC12343F0004343EA505311F011
:10109000004F23FA02F018BF404270474FF00000A3
:1010A000704750EA013005D111F0004008BF6FF0E1
:1010B000004070474FF00000704700BF4FEA400209
:1010C0004FEA41037FEA226C02D15FEA402C08D14B
:1010D0007FEA236C02D15FEA412C02D14FF000007D
:1010E00070474FF00100704710B504460E4B18785A
:1010F0004FF47A73B3FBF0F30C4A1068B0FBF3F0D3
:1011000000F0A2F868B90F2C01D901200AE00022F2
:1011100021464FF0FF3000F05FF8054B1C600020C7
:1011200000E0012010BD00BF0000002020000020D2
:101130000400002008B5074A136843F01003136049
:10114000032000F037F80F20FFF7CEFF02F09AFDE2
:10115000002008BD00200240034A1168034B1B78A1
:101160000B441360704700BF1402002000000020F1
:10117000014B1868704700BF1402002038B50446C0
:10118000FFF7F6FF0546B4F1FF3F02D0044B1B7892
:101190001C44FFF7EDFF401BA042FAD338BD00BF4F
:1011A000000000204FF0E022136923F002031361D6
:1011B00070470000074AD36823F4E0631B041B0C4C
:1011C000000200F4E060034343F0BF6343F40033E4
:1011D000D360704700ED00E000B5194BDB68C3F346
:1011E0000223C3F1070CBCF1040F28BF4FF0040C1D
:1011F00003F1040EBEF1060F18D9033B4FF0FF3E7A
:101200000EFA0CFC21EA0C0199400EFA03F322EAD3
:101210000303194300280BDB0901C9B200F1604048
:1012200000F5614080F800135DF804FB0023E5E75A
:1012300000F00F000901C9B2024B1954F4E700BFD6
:1012400000ED00E014ED00E00138B0F1807F0BD23A
:101250004FF0E0235861054AF02182F82310002066
:10126000986107221A6170470120704700ED00E085
:10127000044B0022DA61044A136943F0010313614D
:10128000018070471802002000200240194BDB68E3
:1012900013F0100305D0184AD36943F00203D36159
:1012A0001023144AD26812F0040F06D01249CA69FA
:1012B00042F00102CA6143F004030E4AD26912F0FF
:1012C000010F09D00C49CA6942F00402CA610949F8
:1012D000CA6922F00102CA6140F20112934202D0AF
:1012E000044AD3607047034AD36923F00103D361F2
:1012F000704700BF00200240180200200A4B1B6903
:1013000013F0800F0BD0084B084A5A6002F1883264
:101310005A601B6913F0800F03D100207047002032
:1013200070470120704700BF00200240230167453D
:10133000034A136943F0800313610020704700BF24
:101340000020024038B50446FFF712FF0546164B51
:10135000DB6813F0010F0AD0B4F1FF3FF7D024B1DE
:10136000FFF706FF401BA042F1D903201BE00E4B04
:10137000DB6813F0200F02D00B4B2022DA600A4BFF
:10138000DB6813F0100F0BD1074BDB6913F0010F73
:1013900006D1054BDB6813F0040F01D1002002E0F9
:1013A000FFF774FF012038BD002002402DE9F8430B
:1013B0001E46244B1B7E012B41D004460F4690460F
:1013C000204B01221A764CF25030FFF7BBFF034648
:1013D00078BB012C08D0022C03D04FF004091C4626
:1013E00007E04FF00209FAE74FF00109F7E701348F
:1013F000E4B24C451DD22101C1F12002A1F120032C
:1014000028FA01F106FA02F2114326FA03F319430E
:1014100089B207EB4400FFF72BFF4CF25030FFF787
:1014200091FF094B1D6925F001051D610346002848
:10143000DDD0044A002111761846BDE8F883022366
:10144000FAE700BF1802002000200240064B0022ED
:10145000DA61064B1A6942F004021A611A6942F015
:1014600040021A61704700BF1802002000200240AD
:10147000064B0022DA61064B1A6942F002021A6139
:1014800058611A6942F040021A6170471802002040
:1014900000200240264B1B7E012B46D070B505462E
:1014A0000E46234B01221A760368022B20D04CF201
:1014B0005030FFF747FF90BB4FF0FF333360AC680D
:1014C0000121EA68AB6803EB8223A34228D92046B6
:1014D000FFF7CEFF4CF25030FFF734FF154A136987
:1014E00023F0020313610146B8B904F58064E8E70C
:1014F0004CF25030FFF726FF08B1012110E0012027
:10150000FFF7A4FF4CF25030FFF71CFF0146094AD9
:10151000136923F00403136102E0346000E0012149
:10152000034B00221A76084670BD02210846704718
:1015300018020020002002400C4B9A6803F58063DB
:101540009B68134313F0010F0ED10B6833B142684F
:1015500022F470221343436000207047436823F451
:101560007023436000207047012070470024014031
:10157000836813F0010F0DD1436823F480734A6828
:1015800013434360836823F400630A681343836052
:1015900000207047012070474B68826812F0010FED
:1015A00023D110B4DBB1426822F468428C68234333
:1015B00013434360836823F4602323F481730A6830
:1015C000CC6822430C692243134383604B68C26A90
:1015D00022F470021343C362002010BC70474268BB
:1015E00022F4684213434360E4E7012070470B682C
:1015F000C3F30F2C9CFAACF2B2FA82F276E0A2F1BD
:1016000008044FF00113A34043F080634C68082C9A
:101610002CD01D0E93FAA3F4B4FA84F4A4004FF076
:101620000F0E0EFA04F4465926EA040493FAA3FEB8
:10163000BEFA8EFE4FEA8E0E4E6806FA0EFE44EAA1
:101640000E0444514C68012C1ED0092C1CD00132D0
:101650003CFA02F347D00123934013EA0C0FF6D073
:10166000072ACCD840F201139340CFE70D69C66832
:101670001C0A26EA132694FAA4F4B4FA84F405FAB0
:1016800004F43443C460C4E74FEA136E50F80E40CC
:1016900093FAA3F5B5FA85F5AD00032606FA05F52C
:1016A00024EA050493FAA3F5B5FA85F5AD008E6832
:1016B00006FA05F5254340F80E50CC6893FAA3F6D8
:1016C000B6FA86F6B600042707FA06F625EA0605F6
:1016D00093FAA3F3B3FA83F39B0004FA03F32B43C7
:1016E00040F80E30B3E70020F0BD01323CFA02F3BF
:1016F00006D00123934013EA0C0FF6D0F0B5AFE704
:1017000000207047034B5B68C3F30313024AD35CAA
:10171000D840704700100240E8CB0008034B5B68DC
:10172000C3F30223024AD35CD84070470010024042
:10173000F8CB0008034B5B68C3F3C223024AD35CB7
:10174000D840704700100240F8CB00080B4B5B6894
:1017500003F4803343B90A48084B5B68C3F38343FF
:10176000023303FB00F07047044B5868C0F340405D
:10177000431C0448B0FBF3F0EEE700BF001002404A
:1017800000093D0000127A0008B5054B5B6803F0C4
:101790000C03082B01D0034808BDFFF7D7FFFBE778
:1017A0000010024000127A0010B50446FFF7ECFF6B
:1017B0002060FFF7A7FF6060FFF7B0FFA0606068E0
:1017C000FFF7B8FFE06010BD03681A4A90420AD0E4
:1017D000B0F1804F07D0A2F59432904203D002F5C9
:1017E0008062904203D123F070034A681343114A88
:1017F00090420AD0B0F1804F07D0A2F594329042C7
:1018000003D002F58062904203D123F44073CA688A
:10181000134303608B68C3620B888362054B984255
:1018200005D0436943F001034361002070470B6911
:101830000363F6E7002C0140C36813F4005F01D096
:101840000120704730B585B004460D46C36823F4C7
:10185000B05323F00C034A68C9680A4329690A4354
:101860001343C360AB68026922F44052134303611F
:101870006B69426922F44072134343616846FFF783
:1018800093FF1C4B9C4208D01B4B9C420BD01B4B24
:101890009C420AD0012005B030BD039B43B32A68A7
:1018A0002AB90120F7E7029BF8E7029BF6E703EB72
:1018B000830303EB83039200B3FBF2F31048A0FB16
:1018C000032149090A0192B2642505FB11331B016A
:1018D0003233A0FB0313C3F34F1303F0F0010A44A8
:1018E00092B203F00F0313449BB2A3600020D2E72F
:1018F0000120D0E70038014000440040004800408B
:101900001F85EB51064BA3FB00239B09013B4FF0C6
:10191000E02253610023936105231361704700BFE8
:10192000D34D621082B04FF0E0231B690193019BFD
:10193000B0F1FF3F00D0013038B14FF0E0231B6918
:1019400013F4803FF8D00138F6E702B0704700008A
:10195000014B1860704700BF20000020104B1B781F
:10196000EBB9002112E041F2210080EA43039BB26F
:101970000132072A05D813F4004FF4D15B009BB263
:10198000F6E7084A22F81130013189B2FF2903D85D
:101990000B029BB20022ECE7014B01221A70704748
:1019A000380400203802002070B506460C46154663
:1019B0000B4B1B787BB9FFF7D1FF0CE0214611F8E8
:1019C000013B83EA1623074830F9130080EA06201A
:1019D00086B20C4615466A1E002DEFDC304670BDFF
:1019E0003804002038020020104BD3F8FC2022F0ED
:1019F0008072C3F8FC20D3F8FC2042F08072C3F858
:101A0000FC20A3F55D431A6822F001021A601A68EF
:101A100042F001021A6000225A6000BF00BF00BFFE
:101A20005868B0FA80F04009704700BF00ED00E050
:101A300082B001900A4B5968019B73B1019A094B1E
:101A40001B68A3FB02329B0A43EA82530193044BB7
:101A50005B685B1A019A9342F9D302B0704700BFEA
:101A6000001000E02000002008B509680068FEF7BB
:101A70002FFDFEF7FDFF08BD012800D070474FF68F
:101A8000FF739942FAD1094B00229A62DA621A6313
:101A90005A639A63DA631A645A649A64DA641A6558
:101AA0005A659A65DA651A665A66E7E79C1E002051
:101AB00072B6BFF34F8F084B20221A61BFF34F8FCE
:101AC0000649CA6802F4E062054B1343CB60BFF3DA
:101AD0004F8F00BFFDE700BF0008014000ED00E0B0
:101AE0000400FA0508B572B6BFF34F8F70B119281C
:101AF00038BF19200646074C202525610A20FFF72C
:101B000097FF65613046FFF793FFF4E74FF4967651
:101B1000F1E700BF0008014068B310B504462E216C
:101B200006F00DFFE0B12046FEF7E8FF8446B8B1AD
:101B3000421E32B1A35C303BDBB2092B01D9013A22
:101B4000F7E76AB1511C134623B1E05C302801D19C
:101B5000013BF9E7E05C2E2803D0581C814202D8F3
:101B600010BD013BF9E79A1A624401322144204436
:101B700005F0B3FEF4E77047024600B9C822074BF0
:101B8000196800E030BF064B5B6C13F0010F04D006
:101B9000024B1B685B1A9342F4D370473C2600202B
:101BA000000002400246E0B1F1B1144BDB6813F4CF
:101BB000005F1CD0124B5B6C13F0010F1AD1104B5D
:101BC0004FF4805058601A650E4ADA649A6C120C11
:101BD0001204114399645A6C42F001025A640020C5
:101BE00070474FF0FF3070474FF0FF3070476FF095
:101BF000010070476FF00200704700BF00380140DD
:101C0000000002400438014010B508461446114651
:101C1000FFF7C8FF0020FFF7AFFF204610BD000010
:101C200002280FD0032813D0012805D00B4B8022A7
:101C30005A6140221A617047084B80221A61402283
:101C40001A617047054B80225A6140225A617047E1
:101C5000024B80221A6140225A61704700080140FD
:101C600000B587B000230593019302930393049377
:101C70000C4B039304230493FFF740FB78B905A9A9
:101C800001A8FFF707FC28B9FFF752FB002007B0B7
:101C90005DF804FBFFF74CFB6FF00100F7E74FF036
:101CA000FF30F4E700F00008F8B50027124C0FE011
:101CB000274634460CE02946B5F846510020A1F8E5
:101CC00046014FF4A472FFF76FFE8542F0D0043452
:101CD00004F5A476094B9E420CD8094D4FF4A4722A
:101CE0002146284605F0EBFD2A68064B9A42E2D0D1
:101CF0000434EDE73846F8BD00F0000800000108A4
:101D00003C0400206219961908B5FFF7CDFF38B1E1
:101D100001464FF4A472044805F0D1FD002008BD2F
:101D20004FF0FF30FBE700BF5024002070B586B0B5
:101D300000200290039004900590484B04930423E4
:101D400005930190464C474B2360A4F846014FF49D
:101D5000A4722146FFF728FEA4F84601FFF7CEFA49
:101D6000002877D1FFF7A0FF0446E0B14FF4A4723A
:101D70003B4905F094FD054668B104F5A47604F5E9
:101D80002474394B9C420FD901A902A8FFF782FBAA
:101D900020B9324E08E0FFF7CBFA40E0FFF7C8FA6F
:101DA0006FF001053BE02D4E33460021B1F5A47FD5
:101DB00014D233F8022B92B24FF6FF7082421FD03A
:101DC00006F5A472134606F5247627498E4214D9E7
:101DD00001A902A8FFF75EFBA0B9204E0025204C08
:101DE000B5F5A47F1ED234F8022B0023711901200F
:101DF000FFF7DCFA58B90235F2E716460021D5E7BD
:101E00000231D3E7FFF794FA6FF0020507E001A96A
:101E100002A8FFF73FFBFFF78BFA6FF00305284698
:101E200006B070BD4FF4A4720D49304605F037FD81
:101E3000054630B9FFF77CFA0C4B4FF0FF321A60C1
:101E4000EDE701A902A8FFF725FBFFF771FA6FF094
:101E50000405E4E74FF0FF35E1E700BF00F00008BC
:101E60005024002062199619000001081C0000206F
:101E70002DE9F84F80460C4691461F4616464FF016
:101E8000000A55460FE054F804BB29467868FEF76F
:101E900029FC01465846FEF71DFB5146FEF718FB8C
:101EA000013EAA460546002EEDD12946F868FEF708
:101EB00019FC5146FEF70CFB064605F10040B968D7
:101EC000FEF710FC07464846FEF7B4FB01464FF00C
:101ED0008040FEF7BBFC044601463046FEF702FC9C
:101EE000054621463846FEF7FDFBC8F80050C8F805
:101EF00004004046BDE8F88F2DE9F04F85B0009012
:101F0000039193469A46DDF838901846FEF792FB07
:101F100001464FF08040FEF799FC029000230193A8
:101F20004EE001362F460546564513D2009B53F826
:101F300024802946D9F80400FEF7D4FB0146404628
:101F4000FEF7C8FA3946FEF7C3FA0134A345E8D8CC
:101F50000024E6E72946D9F80C00FEF7C3FB394612
:101F6000FEF7B6FA064605F10040D9F80810FEF76C
:101F7000B9FB0446039FDDF8048007EBC805314632
:101F8000029E3046FEF7AEFB47F838002146304649
:101F9000FEF7A8FB68600023022B0ED803EB430278
:101FA000104901EBC202D268A2B903EB430201EB74
:101FB000C202127D9AB90133EEE7019B013301930E
:101FC000019B5B4504D21C46002600273D46ABE73B
:101FD000002001E04FF0FF3005B0BDE8F08F4FF07A
:101FE000FF30F9E7541E0020F8B504460E460A49B2
:101FF0003046FEF777FB074604F07AF80546384688
:1020000004F0EEF80746266029462846FEF762FAF5
:102010006060E560A760F8BDDB0FC940F8B5054614
:102020000E46046800212046FEF7FAFCD0B90127CD
:1020300024F0004474492046FEF7F2FCA8B1662162
:10204000304606F07CFC80B170492046FEF74AFB22
:1020500004463846FEF7F2FA2146FEF743FB2860B5
:102060006620F8BD4FF0FF37E2E769492046FEF7EA
:10207000D7FC90B17021304606F061FC68B165492B
:102080002046FEF72FFB04463846FEF7D7FA2146D6
:10209000FEF728FB28607020E3E75F492046FEF743
:1020A000BFFC90B16E21304606F049FC68B15B4937
:1020B0002046FEF717FB04463846FEF7BFFA2146D6
:1020C000FEF710FB28606E20CBE755492046FEF74F
:1020D000A7FC90B17521304606F031FC68B151493A
:1020E0002046FEF7FFFA04463846FEF7A7FA2146D7
:1020F000FEF7F8FA28607520B3E74FF07E512046CE
:10210000FEF78EFCE8B948492046FEF789FC002816
:1021100073D144492046FEF783FC30B36B2130462F
:1021200006F00DFC08B33E492046FEF7DBFA0446F4
:102130003846FEF783FA2146FEF7D4FA28606B2072
:102140008FE76D21304606F0FAFB0028DBD03649D8
:102150002046FEF7C7FA04463846FEF76FFA2146D6
:10216000FEF7C0FA28606D207BE72C492046FEF779
:1021700057FC90B14D21304606F0E1FB68B126498D
:102180002046FEF7AFFA04463846FEF757FA2146D6
:10219000FEF7A8FA28604D2063E71E492046FEF7A7
:1021A0003FFC90B14721304606F0C9FB68B11849A1
:1021B0002046FEF797FA04463846FEF73FFA2146D6
:1021C000FEF790FA28604D204BE710492046FEF7B5
:1021D00027FCA0B15421304606F0B1FB88B10A4972
:1021E0002046FEF77FFA04463846FEF727FA2146D6
:1021F000FEF778FA2860542033E7202031E72020CA
:102200002FE720202DE700BFCCBC8C2BA95F6358A3
:102210005F708930A5D46853BD378635286B6E4E04
:102220006F12833A0024744900007A4438B5632859
:1022300020D942F21073984228BF184680B22B4B27
:102240001880FEF7F7F92A49FEF700FB04F022F8A0
:1022500004F020F804F01EF804462649FEF7E0FBDF
:1022600050B94FF07E512046FEF7F8FB28B14FF0F1
:102270007E5402E06420E2E71E4C1F492046FEF730
:1022800031FA054600241CE02046FEF7D3F91B492D
:10229000FEF728FA03F0A4FF4FF07E51FEF71AF97B
:1022A0002946FEF71FFA4FF07C51FEF713F903F0B1
:1022B00057FFFEF703FC60F0FF00114B23F81400FA
:1022C00001343F2CE0D9094B1A886AB194010D4BB7
:1022D0005B680D48816A0131B3FBF1F303EB4213F4
:1022E000B3FBF4F3013BC36238BD00BF1A0000200A
:1022F00000007A44CDCC4C3F0000FF42DB0FC93DCB
:1023000098250020281F00200004004008B56822FE
:102310000021054805F0FBFA044B01221A706420E5
:10232000FFF784FF08BD00BF9C1E0020241F002073
:1023300008B568220021054805F0E9FA044B02229D
:102340001A706420FFF772FF08BD00BF9C1E0020BA
:10235000241F00202DE9F04186B002AC84E8030080
:10236000694681E80C00029D009E31462846FEF732
:10237000B9F90446039FDDF8048041463846FEF76C
:10238000B1F901462046FEF7A5F804464146284625
:10239000FEF7A8F9054639463046FEF7A3F901468F
:1023A0002846FEF795F8054604940590002120463E
:1023B000FEF72CFB18B1064806B0BDE8F0812146B7
:1023C000284603F047FF0349FEF78CF9F4E700BF06
:1023D0000000C07FE12E654270B584B00C46124902
:1023E000FEF780F9054610492046FEF77BF90446C2
:1023F000284603F07DFE0646284603F0F1FE0096CF
:102400000190204603F074FE0546204603F0E8FEE6
:102410000295039004AB13E90C00694603C9FFF76A
:1024200099FF04B070BD00BF35FA8E3C2DE9F04332
:1024300085B06C4B01221A604FF00009A2E06A4B94
:102440009B78A3B1694B03EB4928694B0093802328
:102450001A4668494046FFF74FFD0028C0F2BE808B
:10246000002400256CE0604BDB78002BEAD15F4E46
:1024700006EB4926002400257F2C15D856F82400A9
:102480000146FEF72FF901462846FEF723F80546D8
:102490000134F1E7544B9B78002BE8D1D2E7524B43
:1024A000DB78002BCED0E2E74FF070512846FEF7E4
:1024B00019F903F0EFFE504B03EB890358604C4BC6
:1024C0008022314602A8FFF7D3FC029C002120465F
:1024D000FEF79CFA38B1494909F10802464B03EB73
:1024E000820359604CE02146039803F0B3FE44494F
:1024F000FEF7F8F84349FDF7EDFF434903F0ACFE62
:102500000146E9E73B4B03EBC40393E8030004AB4C
:1025100003E90300029E31463046FEF7E3F8074622
:1025200003980146FEF7DEF801463846FDF7D2FF74
:1025300001462846FDF7CEFF054648F824600134E1
:102540007F2CDFD94FF070512846FEF7CBF803F00F
:10255000A1FE294B03EB89035860254B802241469D
:1025600002A8FFF785FC029C00212046FEF74EFAE8
:1025700000B3224809F108031F4A02EB83035860A5
:1025800009F10109B9F1070F22D84FEA59031F4A8F
:102590001278002A7FF456AF032B3FF653AF01A207
:1025A00052F823F03F24000867240008952400080F
:1025B0009F2400082146039803F04CFE1049FEF7C3
:1025C00091F81049FDF786FF0F4903F045FED1E76A
:1025D0000020044B186005B0BDE8F0834FF0FF30D9
:1025E000F9E700BFDC2A0020481A0020480A002032
:1025F000141F0020DC260020402600200000C07FA1
:10260000E12E6542000087430000B443241F0020F0
:102610002DE9F04383B08146884600250095019559
:102620000024274625E0334B9B780BB3631C324EC6
:1026300006EB830359682846FDF74CFF054604F175
:10264000090306EB83062D497068FEF74BF8064632
:1026500003F04EFD01460098FDF73CFF0090304628
:1026600003F0BEFD01460198FDF734FF01900137EC
:102670000234072C21D8224B1B78002BD6D16308BB
:10268000032BD3D801A252F823F000BF272600085D
:102690009D260008A7260008B1260008154BDB7808
:1026A000002BC3D1E4E7134B9B78002BBED0DFE7B0
:1026B000104BDB78002BB9D0DAE73846FDF7BAFFCC
:1026C00001462846FEF7C2F8C9F80000009C002128
:1026D0002046FEF79BF928B10A48C8F8000003B06D
:1026E000BDE8F0832146019803F0B4FD0649FDF7EB
:1026F000F9FFF2E74C1A00204026002035FA8E3C04
:10270000241F00200000C07FE12E65422DE9F0412A
:1027100084B04A4B1B78002B60D1494B1B68002BBF
:102720005CDB00252BE005EB45032344454A52F8CA
:1027300023103046FFF750FE04AB03EB840343F84D
:102740000C0C0134022CEED93F4B042203210DEB7B
:10275000020005F0FBFE31460298FDF7BBFE05F1D5
:1027600008033A4A02EB83035860354A1368013381
:102770001360022B02DD134600221A600135072D7B
:1027800058D82F4F3B68314E06EB8508D8F8041017
:102790002F4A05EB4504234442F8231002EB840C36
:1027A00001AB52F82400DCF80410DCF8082007C361
:1027B000254B042203210DEB020005F0C7FE029B0E
:1027C000C8F8043005F1080306EB830676683B6819
:1027D0001C441C4B43F824600024B3E70021184B31
:1027E000196009E001EB41021A44194840F82240FF
:1027F0000133022BF6D90131072905D8134B03EB1E
:1028000081035C680023F4E7002109E001EB410249
:102810001A440C4840F822400133022BF6D901310A
:10282000072907D801F10803084A02EB83035C6813
:102830000023F2E704B0BDE8F08100BF101F0020C4
:1028400008000020E4050020691A00084026002046
:1028500084050020D0B108B5034651B10C4A127866
:102860003AB90C4A126822B90B4A1278D2B2032A3A
:1028700000D908BD094A202010610A4619460848B7
:1028800005F01DF8034B01221A60F2E7704700BF04
:1028900010000020DC2A0020E63A00200008014059
:1028A000DC260020344B1B688B4263D330B50128F3
:1028B0000CD0032807D04FF0010E012809D94FF0A2
:1028C000000C64462BE04FF0FF3EF6E74FF0FF3E72
:1028D000F3E7002317E0294A02EB830532F92310BE
:1028E000A1F50064264A52F833100EFB041142F899
:1028F0003310B5F90210A1F5006402EBC302516870
:102900002144516001337F2BE5D91E4B00221A541C
:102910002DE0A34238BF23469CB20CF1010CBCF160
:102920007F0F1CD8154B03EB8C0133F92C20A2F53B
:10293000006202FB0EF213B24988A1F5006109B2F0
:102940000F4A52F83C501D4442F83C5002EBCC0276
:10295000556829445160002BDBDADB43D9E7B4F535
:10296000FA6F05D30123074A115C0B43135430BDA2
:102970000023F8E7704700BF440A0020DC2600204F
:10298000440600204C1A00202DE9F84F074643006A
:102990005D4E06EB8028013306EB43265B4B18683F
:1029A000401AFDF747FE01464FF07E50FDF74EFFFF
:1029B0008146002414E0564D55F83400FDF73EFEE4
:1029C0004946FDF78FFE48F8240005EBC40568680A
:1029D000FDF734FE4946FDF785FE46F82400013434
:1029E0007F2CE8D94B4B1B68032B0DD84A4D4B4B22
:1029F00013F80790B9F1000F08D0494B1B78002B52
:102A000043D00024002003E0464DF0E700240020DE
:102A10007F2C05D858F82410FDF75CFD0134F7E74A
:102A20004FF07051FDF75EFE8246B9F1000F15D1EF
:102A300029464FF07E50FDF74BFD3B1D3A4C04EB11
:102A400083046168FDF74EFE834651462846FDF734
:102A500049FE01465846FDF73DFD6060334B1C685A
:102A60009CB9B9F1000F05D13A1D2F4B03EB82033E
:102A7000D3F804A07F2C08D8514658F82400FDF75D
:102A800027FD48F824000134F4E70024002004E086
:102A900056F82410FDF71EFD01347F2CF8D94FF0B5
:102AA0007051FDF71FFE804629464FF07E50FDF71E
:102AB0000FFD08371C4B03EB87077968FDF712FE03
:102AC000044641462846FDF70DFE01462046FDF727
:102AD00001FD05467860154B1C6854B97F2C08D859
:102AE000294656F82400FDF7F3FC46F8240001348B
:102AF000F4E74FF480620021054804F008FF034B1F
:102B000000221A60BDE8F88F480A0020440A00201D
:102B1000440600200C1F00206666663F4C1A002009
:102B2000241F00209A99993E50240020041F002061
:102B3000F8B5434B1B68002B61D0424B1C78E4B2C4
:102B4000032C59D8404B1E5D1CB9404B1B68002B11
:102B500056D03F4B1D8805EB85056D0A00D1012538
:102B600029463046FFF79EFE354B00221A60384B4F
:102B70001B88DB08374A127822B9374A1268002AC4
:102B800045D01B01002B57D0344A202151612F49D9
:102B90000A6801320A602B449A4230D3671C2A4BE0
:102BA000D85DFFF73DF829463046FFF7EDFEFCB251
:102BB000244B1C70032F22D904222949294804F0F0
:102BC0006EFE00283AD00122274B1A70244A13685F
:102BD00024490B60002111601F4A12687AB913F46E
:102BE0007F0F08BF0121214A11701B0E0CBF01226B
:102BF00000221F4B1A7002E0114B00221A60F8BD30
:102C00003046FFF70DF8164B00221A60A1E7144A70
:102C1000925D7AB9012E06D9164A527C12F0010F44
:102C2000B0D0DB00AEE7B21C0E498A5C002AF3D1BB
:102C30000123A9E70123A7E70123A5E70022C3E7B2
:102C4000DC2A0020E63A00203CCB0008440A0020A1
:102C50001A000020241F0020041F0020000801404B
:102C60004C1A0020481A0020101F0020E73A0020CC
:102C7000501E002050240020734B1B6803B1704786
:102C80002DE9F04F87B0FFF7D1FB0028C0F2FE819D
:102C900005A904A8FFF7BCFC049A6C4B9A601A6162
:102CA0009A611A62059A9A621A639A631A64684B67
:102CB0001B78002B00F08280664B1E78B700634CB7
:102CC00004EB0613D3F80490C4F844907D1C04EB85
:102CD0008503D3F80480C4F848805F4B93F800A0C4
:102CE0004FEA8A039A1C04EB82025068E0640333C3
:102CF00004EB8303D3F804B0C4F850B0574B1B68FF
:102D000000931946FDF7EEFC0190E06400995846E7
:102D1000FDF7E8FC83462065514B19684FF07E5063
:102D2000FDF794FD0290002E4BD00346BAF1000F40
:102D30004AD0029C9A4619464846FDF7D3FC814684
:102D4000424E706451464046FDF7CCFCB0642146CB
:102D50000198FDF7C7FC8046F06421465846FDF710
:102D6000C1FC306541464846FDF770FD044670657C
:102D7000374B1B78002B40F090803A4B1E88B6F5FD
:102D8000967F94BF00260126374B93F87480B8F1E4
:102D9000000F1CD006EB0613334A02EB8303D3F873
:102DA0003490D96C0098FDF79DFC0299FDF79AFCD0
:102DB00001464846FDF74AFD81460AE0FFF7A6FCBA
:102DC0007AE74FF07E53B1E74FF07E54B2E74FF011
:102DD0000009254B93F8FCA0BAF1000F1AD09B46CE
:102DE0003301019306EB06130BEB83030299D3F82F
:102DF000CC00FDF777FC0290019B1E440BEB860B89
:102E0000DBF8C4100098FDF76DFC01460298FDF751
:102E10001DFD00E00020B8F1000F27D0BAF1000F2F
:102E200024D02146FDF754FB064649462046FDF7CF
:102E30004FFB01463046FDF709FD4946FDF752FCC0
:102E4000024B586524E000BF041F002040260020EC
:102E5000241F0020E73A0020501E0020140000200C
:102E60000C0000201A00002050240020B8F1000FB0
:102E70000ED049462046FDF735FC06462146484619
:102E8000FDF726FB01463046FDF7E0FC8D4B58650B
:102E90008C4A536D23F0004353658A4C083504EB8C
:102EA000850507F1080304EB830369685868FFF799
:102EB00093FAA065844B1B789B0003F10B0204EB93
:102EC00082020A3304EB830351685868FFF784FADF
:102ED0000146E065A06DFFF77FFA054620667B4B53
:102EE0001888FDF7ABFB7A49FDF7FCFB06467949EC
:102EF0002846FDF7F7FB054603F0FAF8804628461A
:102F000003F06EF90546676D41463846FDF7EAFB6A
:102F1000044625F000413846FDF7E4FB0546002154
:102F20002046FDF773FD002840F0B08000212846C0
:102F3000FDF76CFD002840F0A98000213046FDF728
:102F400065FD002840F0A28031462846FDF77EFC52
:102F5000834629463046FDF7C5FB01464FF07E50BB
:102F6000FDF774FC009029462046FDF76FFC0190A8
:102F700021462846FDF76AFC029021462046FDF7CF
:102F8000B1FB804629462846FDF7ACFB014640468A
:102F9000FDF7A0FA81462146FDF758FC80462946F8
:102FA0004846FDF753FC81463146FDF74FFC82460B
:102FB00049463046FDF796FB01464FF07E50FDF73F
:102FC00045FC064649464046FDF740FC0390414615
:102FD0004846FDF73BFC3B4BC3F868B0009A5A6685
:102FE000DC661C67019A5A67029A9A67DD67C3F824
:102FF00084A0C3F88060C3F88880C3F88C80039AEB
:10300000C3F89020C3F89400C3F89890324B1D7811
:103010001DB9324BDB7B022B3BD0002D36D1304922
:103020005846FDF71BFD08B1DFF8B4B0254BC3F8D7
:1030300068B000210098FDF7F3FC00283CD1214B3B
:10304000009A5A6627492046FDF708FD00B1254C35
:103050001C4BDC6622495046FDF700FD08B1DFF845
:1030600080A0184BC3F884A000213046FDF7D8FC9F
:1030700028BB144BC3F880601A494046FDF7EEFCAC
:1030800008B1DFF860800F4BC3F8888007B0BDE857
:10309000F08F13493846FDF7CDFC18B1124B0022D2
:1030A0001A70BAE711493846FDF7CEFC0028B4D0B3
:1030B0000D4B01221A70B0E700230093BFE70026F2
:1030C000D7E700BF40260020501E00201A00002035
:1030D000DB0FC94035FA8E3C241F0020502400200D
:1030E00000007A4420BCBE4C1826002000401C463C
:1030F000F0B583B00C4617461E4621F00045022865
:103100001ED0032838D042492846FDF789FC002804
:103110005DD140492846FDF783FC002862D13E4935
:103120002846FDF77DFC002867D02046FDF774F99E
:10313000CDE90001394A3146384605F069FB0EE019
:1031400033492846FDF76CFC58B12046FDF764F979
:10315000CDE90001314A3146384605F059FB03B04C
:10316000F0BD2046FDF758F9CDE900012C4A314663
:10317000384605F04DFBF2E725492846FDF750FC9F
:1031800078B924492846FDF74BFCA8B12046FDF745
:1031900043F9CDE90001214A3146384605F038FBB4
:1031A000DDE72046FDF738F9CDE900011D4A31463B
:1031B000384605F02DFBD2E72046FDF72DF9CDE985
:1031C0000001174A3146384605F022FBC7E7204682
:1031D000FDF722F9CDE90001134A3146384605F0E2
:1031E00017FBBCE72046FDF717F9CDE900010D4AB2
:1031F0003146384605F00CFBB1E72046FDF70CF9E7
:10320000CDE90001064A3146384605F001FBA6E744
:10321000000020410000C84200007A4430C7000886
:1032200038C7000840C7000848C7000808B502F0C2
:10323000ABFD02F007FC012002F0D0FB02F0DCFB4A
:103240004FF44870FEF76EFB08BD000038B5002053
:1032500002F0C4FB0021084602F022FD264C0122A8
:103260002146264802F00EFD254D264B9A68264938
:10327000284605F001FB0021042002F01FFD012279
:103280002146284602F0FEFC204A2149284605F046
:10329000F3FA2846FDF732FC237803FB00F0C0F177
:1032A0008000002180B202F0FBFC0122214628466A
:1032B00002F0E8FC0F210D2002F0F2FC012215497A
:1032C000154802F0DFFC2321002002F0E9FC012276
:1032D0002146124802F0D6FC6178C1F13F0189B263
:1032E000002002F0DDFC012221460D4802F0CAFC5C
:1032F00002F082FB38BD00BF54C4000850C700086C
:103300001C2600205024002058C700085CC7000875
:1033100064C7000844C4000868C7000874C70008F0
:1033200080C7000838B50C4C0C4B1B680C4A202198
:10333000204605F06DFA0B4D2878C0F18000002181
:1033400080B202F0ADFC01222946204602F09AFC30
:1033500002F052FB38BD00BF1C2600204026002092
:1033600090C7000854C400082DE9F04788B0C34B4B
:103370001C78E600002002F031FBC14B1B78002BCB
:1033800040F03E83BF4B0FCB08AD05E90F00BE4BAD
:10339000DB7B012B00F09E81022B00F09D81002B36
:1033A00000F06A81B949002900F09881B84D28469B
:1033B00005F0D2FA0021084602F072FC0122AF4962
:1033C000284602F05FFCB34B1B88B3F57A7F80F090
:1033D0008781B14A2021284605F01AFADFF8B08229
:1033E0004046FEF799FB67080021384602F066FC6C
:1033F0000122A249404602F045FCA64B1D88B5F5C6
:10340000967F94BF0025012520220021404604F02C
:103410007EFA05EB05129C4B03EB820393F87430A4
:10342000002B00F06D814F22994B1A7005EB0515AA
:10343000954B03EB850595F8FC30002B00F062817D
:103440005323934D6B701FFA84F8A4EBC4008030B3
:10345000002180B202F024FC01228849284602F0B3
:1034600011FCC4F12000800080B2002102F018FCA1
:103470008A4B1B68002B40F04781834B5B7C13F029
:10348000010F00F0478101227C49854802F0FAFBD8
:1034900000230493834B1D78012D00F05581022DEC
:1034A00000F05E81002D00F0438120220021784849
:1034B00004F02DFA012D00F07881022D00F08E81AC
:1034C000002D00F059812025DFF8C4914846FEF711
:1034D00023FB1021002002F0E3FB01227249484641
:1034E00002F0D0FB0121062002F0E8FB6D4B1B78B7
:1034F000012B00F09E81022B00F0AD81002B00F02B
:1035000086816A4B1B78002B00F0C4814822604BF7
:103510001A70674B1B78002B00F0BE8148235C4D6E
:103520006B700023AB70C8EB8830C8EB8000803034
:10353000242180B202F0B4FB01225049284602F057
:10354000A1FB5C4B0FCB08AD05E90F005A4B1B7874
:10355000012B00F0A581022B00F0A481002B00F0CC
:103560009D815649002900F09F81494D284605F06C
:10357000F3F9C4F14000400080B2242102F090FB36
:1035800001223E49284602F07DFB464B1B78012B69
:1035900040F28C81022B40F03782474B1B78012B85
:1035A00000F02682464B9B6E0493464904A8FEF722
:1035B00035FD0546DFF8D8802023424604990420D3
:1035C000FFF796FD4046FDF799FA202D02D008F846
:1035D00000500130431CDFF8B880482208F8002072
:1035E0004FF0000A08F803A04046FEF795FADFF80E
:1035F0008C9099F80150C5F13F05ADB2294650466F
:1036000002F04EFB01224946404602F03BFB2A4BAA
:103610001B78012B00F0F081294B9B6F04932A4902
:1036200004A8FEF7FBFC80462946304602F038FB32
:10363000124E01223146254802F024FB144D20236E
:103640002A4604990320FFF753FD2846FDF756FA52
:10365000431C05F800804FF0000805F80380284659
:10366000FEF75AFA4146384602F028FB012231465D
:10367000284602F007FBC7E1154994E654C4000848
:10368000241F0020F0A900085024002068C400086E
:103690001C2600201A00002090C70008041F0020EC
:1036A000A4C70008180000204CC40008E73A002016
:1036B000501E002000AA00081826002078C4000828
:1036C00040260020ACC70008B8C70008C4C70008DF
:1036D0005CC40008B04966E6B04964E6B04965E6F6
:1036E0001846FCF7ABFFAF49FCF7FCFFFCF794FE74
:1036F000CDE90001AC4A2021AC4805F089F86DE61F
:103700002D2291E62D239CE60122A949A94802F029
:10371000B9FABDE6A54D20232A46A749096E042023
:10372000FFF7E6FC0122A249284602F0ABFAAFE619
:10373000A24B1B78012B03D09F4B9B6E0493B4E6E6
:103740009D4BD3F88430F9E79C4B1B78012B03D0B9
:10375000994B5B6E0493A8E6974BD3F88030F9E75A
:10376000964B1B78012B03D0934BDB6E04939CE6A6
:10377000914BD3F88830F9E7914904A8FEF74EFC45
:103780000546752806D02023884A04990420FFF7AF
:10379000AFFC99E60498FCF73FFECDE90001894AA9
:1037A0002021824805F034F88EE6874904A8FEF708
:1037B00035FC0546702806D020237C4A0499042055
:1037C000FFF796FC80E60498FCF726FECDE90001A1
:1037D0007C4A2021754805F01BF875E67B4904A852
:1037E000FEF71CFC05466D2806D020236F4A04997D
:1037F0000420FFF77DFC67E60498FCF70DFECDE999
:103800000001704A2021694805F002F85CE6202D8D
:103810000DD089F8005001235A1C64484821C15436
:103820000023835401226A4902F02CFA69E600233E
:10383000F2E7202D0DD05D4B1D7001235A1C5B4813
:103840004621C154002383540122614902F01AFA2F
:1038500057E60023F2E7202D13D10021032002F0C8
:103860002DFA03A90DF10A0002F020FA12230093A9
:103870000D23584ABDF80C10BDF80A0002F03AFAC0
:103880003FE64A480570002343700122504902F088
:10389000F9F9E2E74C223AE64C2340E64E4961E66C
:1038A0004E495FE64E495DE63D495EE6434B1B7877
:1038B000012B69D0404B1B6F0493444904A8FEF7C9
:1038C000ADFB8246DFF8E89099F80150C5F13F055D
:1038D000ADB22946002002F0E3F9012249464148F1
:1038E00002F0D0F9DFF8C480202342460499032077
:1038F000FFF7FEFB4046FDF701F9431C08F800A066
:103900004FF0000A08F803A04046FEF705F95146BB
:10391000384602F0D3F901224946404602F0B2F996
:10392000264B1B78012B33D0234B9B6F04932E49DE
:1039300004A8FEF773FB80462946304602F0B0F932
:103940001B4E01223146294802F09CF9174D2023D5
:103950002A4604990320FFF7CBFB2846FDF7CEF853
:10396000431C05F800804FF0000805F80380284646
:10397000FEF7D2F84146384602F0A0F9012231465E
:10398000284602F07FF93FE00B4BD3F88C3093E7E9
:10399000094BD3F89430C9E760C4000864C4000838
:1039A00004CA00086F12833A94C700081C2600203E
:1039B00054C400089CC70008402600201826002098
:1039C000ACC7000830C70008B4C70008BCC700086F
:1039D00044C4000814CB00086CC4000870C400087C
:1039E00074C4000878C40008B8C70008C4C7000839
:1039F000904BD3F88430D7E58E4BD3F894300DE656
:103A00005A1ED2B2012A13D9202200218A4803F07B
:103A10007EFF8A4B1B7C012B00F00481022B00F0FF
:103A20000581002B00F0E380834B45221A70E1E012
:103A3000012B34D0824B5B68C3F10303814A202100
:103A40007D4804F0E5FE0021084602F029F9012234
:103A50007D49794802F016F9764B5F6C00213846B3
:103A6000FCF7F2FF28B30397724BDD6C0021284668
:103A7000FCF7EAFFF8B10495744B93F80080B8F1B5
:103A8000010F1AD072493846FCF7E8FF38BB4FF0F7
:103A90007E512846FCF7C4FFF8B9012320E0684BAB
:103AA0005B68C3F103036B4A2021634804F0B0FE56
:103AB000C9E70027D7E70025DDE767493846FCF767
:103AC000AFFF30B965492846FCF7C8FF18B100239D
:103AD00006E0002304E0012302E0002300E00023CD
:103AE000002B76D05E4B1B88B3F57A7F61D25D4A9E
:103AF0002021514804F08CFE4F48FEF70DF8524D3E
:103B000069780831002002F0CBF84B4F012229469A
:103B1000384602F0B7F8544903A8FEF77FFA054685
:103B200020233A4603990420FFF7E2FA3846FCF7CF
:103B3000E5FF202D01D03D5401303F4F4FF00008EC
:103B400007F800803846FDF7E7FFDFF8209199F885
:103B50000150C5F13F05ADB22946404602F0A0F83C
:103B600001224946384602F08DF8414904A8FEF783
:103B700055FA804620233A4604990420FFF7B8FA04
:103B80003846FCF7BBFFB8F1200F02D007F80080E1
:103B90000130294F00233B543846FDF7BDFF29462D
:103BA000304602F07DF801223049384602F06AF8CA
:103BB0002AE71846FCF742FD2E49FCF793FDFCF777
:103BC0002BFCCDE900012C4A20211B4804F020FEEB
:103BD00092E7B8F1010F07D0FEF7AAFB164B274A70
:103BE00007CA83E807008AE7FEF790FBF6E7124B67
:103BF00020221A701D4D6978C1F13F01C4F1800087
:103C000089B280B202F04CF8012229460A4802F03B
:103C100039F801F0F1FE1A4A13680133136008B055
:103C2000BDE8F087044B41221A70E3E7024B4222C1
:103C30001A70DFE7402600201C26002050240020B8
:103C40009C1E0020D4C7000844C40008241F002084
:103C5000CDCCCC3EC8C7000800007A4417B7513815
:103C60001A000020E4C70008BCC7000854C40008BC
:103C7000ACC700086F12833AECC70008F8C7000809
:103C8000081F00207047000008B53F4A136823F062
:103C9000070343F0020313603B4B1B6803F0070369
:103CA000022BF9D1394A136843F480331360374B40
:103CB0001B6813F4003FFAD0344A536A43F00103FF
:103CC0005362324B5B6A13F0020FFAD02F4A5368EB
:103CD00023F47C1343F4E8135360136843F08073B8
:103CE00013602A4B1B6813F0007FFAD0274B5A68E9
:103CF00022F0F0025A605A6822F4E06242F48062D4
:103D00005A605A6822F460525A605A6822F00302DC
:103D100042F002025A601D4B5B6803F00C03082B53
:103D2000F9D11B48FDF714FE184A536823F44043A9
:103D300043F400435360FDF735FA164B1868FDF75E
:103D4000E1FD154BDA68C2F30222C2F10703042B2E
:103D500028BF04231946131D062B13D9033A4FF02D
:103D6000FF338B40DB4303F00F0393401B01DBB2B7
:103D7000094A82F823304FF0E022136943F002032E
:103D8000136108BD0022EAE7002002400010024053
:103D900000A24A042000002000ED00E02DE9F04FD1
:103DA0008DB000230A930B93099304930593069314
:103DB00007930893AB4A136823F001031360AA4BDF
:103DC0009A6942F004029A619A6902F0040203922D
:103DD000039A9A6942F400729A619A6902F4007235
:103DE0000292029AA14C216840F2011595FAA5F2BF
:103DF000B2FA82F292000F2000FA02F221EA0202E5
:103E000095FAA5F5226040F2022595FAA5F1B1FADE
:103E100081F1890000FA01F122EA010295FAA5F583
:103E2000226093498A6822F001028A6001F580616C
:103E30008A6822F001028A605A6942F001025A61DE
:103E40005B6903F001030193019B8A4B9A6822F09E
:103E500001029A609A6822F4804222F010029A606D
:103E60009A6822F4405242F400529A609A6842F0F2
:103E700020029A609A6822F040029A609A6842F0A2
:103E800080029A609A6822F4407242F400729A604A
:103E90009A6822F4406242F400629A60764A1A619B
:103EA000764A5A61DA68120C120442F48072DA60BF
:103EB00001225A609A6842F008029A609A6842F0B9
:103EC00004029A609A6842F002029A606C4BDA68C7
:103ED000C2F30222C2F10703042B28BF04231946B0
:103EE000131D062B40F2BB80033A4FF0FF338B408B
:103EF000DB4303F0030393401B01DBB2614A82F80A
:103F00000B334FF40063136000240A940B94584E53
:103F10000AA93046FDF72CFB4FF48033099309A919
:103F20003046FDF709FB4FF40023049305940694F3
:103F300007944FF48073089304A93046FDF72CFBD7
:103F400051494FF4407999FAA9F3B3FA83F34FF446
:103F5000007A2AFA03F351F8232022F01F0241F8D5
:103F6000232020394FF0007B9BFAABF3B3FA83F3A5
:103F70002BFA03F351F823204FF0F87595FAA5F0CA
:103F800022F0070295FAA5F042F0060241F823203C
:103F9000354B9A6942F480629A619B6903F48063AD
:103FA0000093009B0A940B94384F0AA93846FDF7FA
:103FB000DFFA4FF460230493059406944FF002084F
:103FC000CDF81C80089404A93846FDF7E5FA304A7C
:103FD00099FAA9F9B9FA89F92AFA09F952F82930AE
:103FE00023F01F0343F0010342F8293029489BFACC
:103FF000ABF3B3FA83F32BFA03F350F8232095FACB
:10400000A5F1B1FA81F14FF4401424FA01F14FF017
:10401000070C0CFA01F122EA010295FAA5F5B5FAAE
:1040200085F524FA05F5062404FA05F5154340F84C
:104030002350B36843F00103B360BB6843F001034E
:10404000BB604046FDF76EFC134B1A68B36843F043
:104050000403B360BB6843F00403BB6024E00022A8
:1040600043E700BF00040040001002400008014088
:1040700000240140000002404C240140501A00205E
:1040800000ED00E000E100E02C24014000280140A8
:104090002C2801400C2801403C2600201C4B1B68AA
:1040A0009B1A632B0AD830BF1A4B9B6813F0040F7E
:1040B000F4D1194B9B6813F0040FEFD10220FDF7E8
:1040C00031FC154A936823F001039360114B996802
:1040D00021F0010199601148816841F0010181607E
:1040E0006FF0020111601960916841F00101916067
:1040F000996841F001019960916841F4A0019160D3
:104100009A6842F480129A600DB0BDE8F08F00BF4B
:104110003C2600200024014000280140000002400D
:1041200030B589B03E4A536943F001035361536986
:1041300003F001030293029B3A4C236B23F001032B
:104140002363236B23F4804323F0100343F0100315
:104150002363236B43F440532363236B43F0200317
:104160002363236B23F040032363236B43F080031B
:104170002363236B23F4407343F480732363236B23
:1041800023F4406343F480632363274BE363274BAB
:10419000A363636B1B0C1B0443F0400363630023A6
:1041A00003930493059306930793D36943F00203A3
:1041B000D361D36903F002030193019B1C4B1A885E
:1041C00091011C4B5B6803EB4213B3FBF1F3013B22
:1041D0000593194D03A92846FDF7F6FA2B6843F01D
:1041E00080032B60AB6823F4804323F00703AB60AC
:1041F0006B6823F0700343F020036B60AB6823F01F
:104200008003AB60EB6843F48073EB60236B43F097
:10421000010323632B6843F001032B6009B030BD19
:104220000010024000000240982500200C0C0140C4
:104230001A000020281F00200004004030B591B073
:10424000002309930A930B930C930D930E930F93F2
:10425000049305930693079308936C4CA36943F466
:104260008043A361A36903F480430393039BA36981
:1042700043F00403A361A36903F004030293029BC8
:10428000634B04930923059302230693614D04A90C
:104290002846FDF7ACF9604B0493082305930123EE
:1042A000089304A92846FDF7A2F9636943F00103C6
:1042B0006361636903F001030193019B574B5A6CDF
:1042C00022F001025A645A6C22F4804222F0100259
:1042D00042F010025A645A6C22F440525A645A6CEA
:1042E00022F020025A645A6C22F040025A645A6C3E
:1042F00042F080025A645A6C22F440725A645A6C3A
:1043000022F440625A644FF480525A605A6C42F070
:1043100008025A645A6C42F002025A64404BDA684E
:10432000C2F30222C2F10703042B28BF042319465B
:10433000131D062B67D9033A4FF0FF338B40DB4345
:1043400003F0010393401B01DBB2364A82F80E33BF
:104350004FF480431360344B9B68099300230A9306
:104360000B930C930C220D920E930F932F4C09A9D3
:104370002046FDF761FA236923F4904323616369C2
:1043800023F02A0363612A4A52E8003F43F0800386
:1043900042E800310029F6D1244B1A680092009AB5
:1043A0005A680092009A6FF020021A60214951E881
:1043B000003F43F0200341E800321146002AF5D1C6
:1043C000174BDA68C2F30222C2F10703042B28BF9D
:1043D00004231846131D062B00D9D11E4FF0FF33BE
:1043E0008340DB4303F001038B401B01DBB20D4A2A
:1043F00082F82533202353600C4AD36843F40053DA
:10440000D36011B030BD002296E700BF001002401B
:1044100002000204000801400400040400000240FD
:1044200000ED00E000E100E05024002000380140F1
:10443000143801400C3801402DE9F0418CB00026C1
:104440000796089609960A960B96564B9A6942F07B
:1044500004029A619A6902F004020692069A9A6925
:1044600042F008029A619A6902F008020592059AE0
:104470009A6942F010029A619A6902F0100204925D
:10448000049A9A6942F020029A619B6903F0200322
:104490000393039B444D4FF00408C5F814804FF478
:1044A00080736B6120236B6140236B6180236B61A0
:1044B0003E4CFF23636101270897022309930B9762
:1044C00040F20443079307A92846FDF790F8384BBC
:1044D000079307A92846FDF78AF842F220030793BD
:1044E00007A92846FDF783F844F24003079307A97C
:1044F0002846FDF77CF848F28003079307A9284671
:10450000FDF775F8032309934FF6FF73079307A987
:104510002046FDF76CF80A9641F21003079307A9AD
:104520002846FDF764F8CDF8288040F60803079385
:1045300007A92846FDF75BF8082308930B971D4B46
:10454000079307A92046FDF752F81B4B079307A9CD
:104550002046FDF74CF8194B079307A92046FDF7B5
:1045600046F84FF49033A3614FF40052A261A36167
:10457000A3690293029B4FF4A033A3614FF48042DE
:10458000A261A361A3690193019B4FF4C033A361AE
:104590004FF40042A261A361A3690093009B0CB099
:1045A000BDE8F0810010024000080140000C01400D
:1045B0000100010420002004400040048000800429
:1045C00008B54FF49670FDF78DFA08B56420FDF735
:1045D00089FA08B56420FDF785FA08B56420FDF76F
:1045E00081FA08B56420FDF77DFA7047704770477F
:1045F00038B5FCF7B1FD444B1A6801321A601868EF
:10460000002322E0013A12B235E0002203EB43011D
:10461000CC003E4921440A81C96849B91D2A07DDF9
:104620003A4A22440021117511615175D0600BE0A6
:1046300009B1002A25DD00293ED0411A03EB4302CF
:10464000D400324A224411610133022B44D803EBD7
:104650004301CA002D498C58002CF5D02B49114438
:104660000A894D68A168C94301EA152189B2002968
:10467000C8D0013212B2002AC7DB1E2AC6DD1E22B4
:10468000C4E703EB4302D400204A2244527D3AB1EE
:104690001E4A2244002111611175D1605175D3E782
:1046A000411A03EB4302D400184A2244116101214C
:1046B00011750021D160C7E703EB4302D100134A13
:1046C0000A44527D002ABFD0104A0A4400211161D9
:1046D0001175D1605175B7E70D4B1B68002B03DDD9
:1046E0000B4A1368013B13600A4BD3F80824D3F834
:1046F000083401339A4205D2064AD2F8083401330D
:10470000C2F8083438BD00BF3C260020541E0020EB
:104710001C000020401F002008B5124B1B6813F03E
:10472000080F02D00F4B08225A600E4B1B6813F083
:10473000040F05D10B4B1B6813F0020F09D108BD04
:104740004FF400710848FEF785F8064B04225A60C2
:10475000F0E74FF400710548FEF77CF8014B0222A8
:104760005A60ECE700000240501A0020501C002064
:104770000A4B1B6813F4004F04D1084B1B6813F459
:10478000005F0AD0054B5A6C22F001025A644FF4C4
:1047900000425A604FF400525A60704700000240D5
:1047A00082B0124BD3F8003407E0104AC2F800344C
:1047B0000021C2F80814D2F804240D4A126812F03D
:1047C000200F0AD00A4A5268D2B20849CA540133AB
:1047D000B3F5806FE9D30023E7E7054B1A68019230
:1047E000019A5B680193019B02B07047401F002053
:1047F0000038014010B4154B1C6810E00133022B47
:104800000AD803EB4302D100114A0A44128912B2BA
:10481000002AF3DD0446F1E7001BC72804D830BFA7
:104820000A4B18680023EAE7002102290CD801EBA3
:104830004103DA00064B134400225A751A81DA60EC
:104840001A751A610131F0E710BC70473C26002050
:10485000541E002008B57D4BDB689BB17B4B5B6A27
:1048600083B17A4BDB6B6BB9784B1B69B3F5487F2F
:1048700068D3764B9B6AB3F5487F63D3FDF7F0F9B5
:10488000FDF716F9724B1B78002B4FD16F4BDB688D
:1048900033B16E4B5B6A1BB96C4BDB6B002B52D098
:1048A0006A4B1B7D002B62D1684BDB6833B9674BC9
:1048B0005B6A1BB1654BDB6B002B67D0634B93F8D6
:1048C0002C30002B78D1614BDB683BB95F4B5B6AC6
:1048D00023B95E4BDB6B002B40F08E805B4B93F873
:1048E00044307BB3594B93F845305BBB574B0122A7
:1048F00083F84520574B00221A60574A537C83F0B7
:104900000103537413F0010309D1927B0132D2B237
:10491000022A00D81346504A9373504A1370504BE2
:1049200041F288321A60FEF71FFD0BE0002307E01A
:1049300003EB4302D100454A0A44012151750B445F
:10494000022BF5D908BD414B1B69B3F5FA7FF9D3AA
:104950003E4B5B7D002BF5D13C4B01225A75FDF798
:10496000D5FC3C4B00221A60FEF7FEFCEAE7374B11
:104970005B7D002BE6D1354B01225A75354A136811
:1049800083F001031360FEF7EFFCDBE72F4B9B6A1C
:10499000B3F5FA7FD6D32D4B93F82D30002BD1D120
:1049A0002A4B012283F82D20FDF7C2FC294B00225F
:1049B0001A60FEF7D9FCC5E7244B93F82D3003F0BD
:1049C000FF02002BBED1214B012183F82D10214B7A
:1049D00000211960204BDB7B0133DBB2022B00D8B6
:1049E0001A461D4BDA731F4B1A701D4B41F2883269
:1049F0001A60FEF7B9FCA5E7144B1B6CB3F5FA7F00
:104A0000A0D3124B93F84530002B9BD10F4B0122C2
:104A100083F845200F4B00221A600F4B9B89B3F59A
:104A20007A7F0ED00C4B4FF47A729A810A4B988998
:104A3000FDF7FCFB0A4B41F288321A60FEF794FC4A
:104A400080E7054B64229A81F0E700BF541E0020E6
:104A5000241F0020041F00205024002018000020E4
:104A60001C00002018260020F8B5274B5F6C17F0BB
:104A7000010705D1254B1B7C012B02D0022B2AD02C
:104A8000F8BD0A2003F0A0FC3D461BE005EBC41274
:104A90001F4B53F82200FBF7BFFC02460B461D4894
:104AA00003F07AFC0134062CF0D905F56075184B3B
:104AB00053F82500FBF7B0FC02460B46164803F0FE
:104AC0006BFC35467F2DDBD86E1C3146134803F056
:104AD00063FC3C46E7E7124C2546124B45F8063B83
:104AE0004FF4805632460A49284602F0E8FE00207C
:104AF000A08032462946FCF757FFA08041F206010C
:104B00002046FDF74FF8BBE700000240502400208C
:104B1000480A002008C8000810C8000804C8000897
:104B2000E02A002096196219002800F03A832DE946
:104B3000F0478AB00C460546002900F01C83002689
:104B400004E003F0ABFFC0B238700136A6420BD2CE
:104B5000AF19A85D0928F4D12020F5E7013C2246D1
:104B6000691C284602F0B9FE14B12B78202BF5D928
:104B70003CB1631EEA5C202A03D80022EA541C469A
:104B8000F6E7002C00F0F78200272F55BC4204D92D
:104B9000EB5D202B01D90137F8E70023EB5507F136
:104BA0000108A04502D8E41B013C00E000240026D7
:104BB000B14600E0013606EB46039B4A52F823104B
:104BC00099B102EB830393F808A0BAF1000F0CD05F
:104BD0003A46284603F0C8FE0028EBD1B9F1000F91
:104BE00001D1D146E6E74FF0000904B9B846A84420
:104BF00009F1FF39B9F10E0F00F2CE82DFE819F0AA
:104C00000F000F0041003A009700A900EF013502A4
:104C1000BB004001A001CC02CC0253029602002549
:104C20002C4600E0013404EB44037F4A52F8230091
:104C300048B102EB83031B7A2BB1FBF75FFFA8425D
:104C4000F0D90546EEE7794803F040FC002404EB78
:104C50004403754A52F82320002A00F08C8219463A
:104C6000714B03EB81035B682946714803F094FBA9
:104C70000134ECE76F4803F029FCFCF7F1FFFCF787
:104C800017FFF4B1002306930A2206A9404603F059
:104C9000FBFE044602F010FC0368002B19DC069BA7
:104CA000434516D0B4F5E13F13DBB4F5612F10DCBA
:104CB000B4F5612FA8BF4FF461245F4B9B68A342FA
:104CC0000CD15D4B99685D4803F066FBFEF74CFB29
:104CD00051E241465A4803F05FFB4CE2564B9C6060
:104CE000584BDB6803EB830303EB8303A400B3FBA4
:104CF000F4F35548A0FB032149090A0192B2642448
:104D000004FB11331B013233A0FB0313C3F34F1316
:104D100003F0F0010A4492B203F00F0313449BB274
:104D20004A4A93604A4B41F288321A60C9E7494BBC
:104D30001B7853B9484803F0C9FBFDF7E7FA474B26
:104D400000221A60FEF710FB15E2454803F0BEFB97
:104D500011E2404B1B7853B9424803F0B7FBFDF713
:104D6000E7FA3E4B00221A60FEF7FEFA03E23C48E7
:104D700003F0ACFBFFE1A4B92F4B9B89B3F57A7F1D
:104D800041D2394A2021394803F042FD374C2046B0
:104D9000FCF7C2FE2146364803F0FEFAFEF7E4FABD
:104DA000E9E1002306930A2206A9404603F06CFEBF
:104DB000044602F081FB0368002B1CDC069B434584
:104DC00019D0632C17DD42F210739C4213DC42F2BF
:104DD0001070A042A8BF204680B2174B9B89834227
:104DE000CAD0154B98811B4B1B784BB1184B41F225
:104DF00088321A60C0E741461E4803F0CDFABAE196
:104E0000FDF714FAF2E71846FBF718FC1A49FBF70E
:104E100069FCFBF701FBCDE90001184A202113488A
:104E200003F0F6FCB2E700BF40CB000870C80008F2
:104E3000ACC80008B8C8000850240020F0C800081A
:104E4000D0C80008281F00201F85EB510038014002
:104E50001C000020241F002008C90008041F002097
:104E600000C9000824C9000864C900081C260020E5
:104E70006CC9000844C900086F12833AECC70008E7
:104E80009CB122468A49404603F06EFD08BB894B1F
:104E900002229A73874B9A7B874B1A70874B41F299
:104EA00088321A60864B00221A60864B0FCB0AAC00
:104EB00004E90F007F4B9B7B012B33D0022B33D0B7
:104EC000002B39D001237B4A93737B4A13707E49B0
:104ED0002BE022467C49404603F046FD28B122469D
:104EE0007A49404603F040FD18B9724B00229A738C
:104EF000D0E722467649404603F036FD18B96D4B9F
:104F000001229A73C6E722467249404603F02CFDFF
:104F100018B9684B03229A73BCE741466E4803F008
:104F20003BFA28E16A4900E0614939B16B4803F076
:104F300033FAFEF719FA1EE16349F6E76849F5E727
:104F40009CB122466749404603F00EFD00BB594B19
:104F50000022DA73574BDA7B634B1A70574B41F2DE
:104F600088321A60564B00221A60604B0FCB0AAC95
:104F700004E90F004F4BDB7B012B22D0022B22D008
:104F80004BB300234B4AD373574A137055491BE068
:104F900022465749404603F0E7FC18B9454B012229
:104FA000DA73D7E722464B49404603F0DDFC18B9D7
:104FB000404B0222DA73CDE741464E4803F0ECF94C
:104FC000D9E04B4900E0434939B14B4803F0E4F9DB
:104FD000FEF7CAF9CFE04349F6E74149F5E764B186
:104FE00022464649404603F0BFFCB8B9314B002287
:104FF0001A74324B41F288321A60414B0FCB0AAC23
:1050000004E90F002B4B1B7C012B20D0022B20D05E
:105010003BB3284B00221A7438491BE02246394919
:10502000404603F0A1FC18B9224B01221A74E0E7B4
:1050300022463549404603F097FC18B91D4B022221
:105040001A74D6E74146314803F0A6F993E02D499A
:1050500000E02D4939B12E4803F09EF9FEF784F99E
:1050600089E02649F6E71E49F5E72A4B1B7893B9F4
:10507000134C236883F001032360274803F08CF965
:10508000002002F0DDFA23684BB1244803F01EFA39
:10509000FEF76AF96FE0224803F018FA6BE0214846
:1050A00003F014FAF4E7204803F010FAFCF700FDCF
:1050B00094C4000850240020180000201C00002088
:1050C000041F002010AA00087CC4000888C900083A
:1050D00088C40008A0C4000890C90008B0C900082E
:1050E00004CA0008A8C400081826002020AA000846
:1050F000B0C40008C0C90008DCC90008D4C5000855
:1051000030AA0008C4C40008CCC40008ECC90008D8
:1051100008CA0008241F002018CA000824CA000872
:1051200000C900082CCA000834CA00081D4B1B78AF
:1051300023B31D4A1B4B5B7813B31C4B1949897869
:1051400001B31B491748C078F0B11A48154C2479AF
:10515000E4B1194C134D6D79D5B1184D114EB67996
:10516000C6B1174E0496039502940190009115491B
:10517000154803F011F90AB0BDE8F087134AD9E7E2
:10518000134BDBE71349DDE71348DFE7134CE1E797
:10519000134DE3E7134EE5E72946134803F0FCF807
:1051A000E9E77047381F00201CC8000824C8000821
:1051B0002CC8000838C8000848C8000858C80008AB
:1051C00068C800085CC7000844CA000818C800087E
:1051D00020C8000828C8000830C8000840C80008D7
:1051E00050C8000860C8000870CA00082DE9F041E6
:1051F0003C4BD3F80054D3F80444D3F8082440F6C9
:10520000B7339A4205D9A54209D1364BD3F80C35AC
:105210002BB9A54209D0334BD3F80C651FE0314BB5
:10522000C3F804540022C3F80C25BDE8F081C4F58E
:10523000806318E02B4BC3F804540022C3F80C25FC
:10524000F3E78B423DD9274B0022C3F8082403F231
:105250000C43C91A3CD10026224BC3F80C65AC4262
:10526000E3D0E4D82B1B002BDFD0C6F580779F421C
:1052700028BF1F46002FDDD0DFF8688006F581606B
:1052800040443A4608EB0401043002F018FB3E4467
:10529000C8F80C653C44B4F5806F00D30024114974
:1052A000C1F8044401F20C410F4B33448B42C8D97E
:1052B0000A780D2AC5D00A2AC3D0002AC1D00131EC
:1052C000F2E7FE2ECBD90026064BC3F80C65C6E7E5
:1052D000A3F20C40431883F80C2400F20C40FFF7B3
:1052E00023FCB8E7401F00204C230020F8B5A94B51
:1052F0005C6C00212046FBF7A7FB70B1A54BDD6C71
:1053000000212846FBF7A0FB48B1A34B1B78012BDB
:1053100007D0022B00F0B280F8BD0024EEE7002594
:10532000F3E79E492046FBF77BFB0028F4D19C491C
:105330002846FBF793FB0028EED10024072C0DD85C
:10534000944B03EB8403974DA61C596855F826002F
:10535000FBF7C0F845F826000134EFE70025072DDC
:1053600020D805F108028B4B03EB82038E49586865
:10537000FBF7B8F9074600F0BBFE0146894C6E1DED
:1053800054F83600FBF7A6F844F83600384600F02B
:1053900027FF014604EBC6046068FBF79BF86060DA
:1053A0000135DCE7814B41F288321A607D4B5E6843
:1053B00001365E60032EAFDD1D68002413E0A21CE1
:1053C000784B53F822703046FBF738F901463846DF
:1053D000FBF73CFA05EB051323440C33744A02EB4C
:1053E000830358600134072CE9D9002413E0631DBE
:1053F0006C4A02EBC3033146586800F02BFF6D493D
:10540000FBF770F905EB051323441433684A02EBEC
:10541000830358600134072C0BD8631D614A52F88E
:10542000336000213046FBF7F1FA0028DFD06248F4
:10543000E8E705EB05125E4B03EB8203012283F8DC
:105440007420154495420CD95C4803F03FF8584B42
:105450009889FCF7EBFE504B00221A70FDF784FF91
:105460005AE7504C68220021204602F050FA25608D
:10547000534B33F81500FCF7D9FEEFE751492046AE
:10548000FBF7ECFA00287FF447AF4FF07E51284637
:10549000FBF7C6FA00287FF43FAF0024072C0DD895
:1054A0003C4B03EB84033F4DA61C596855F826007E
:1054B000FBF710F845F826000134EFE70025072D2B
:1054C00020D805F10802334B03EB820336495868B4
:1054D000FBF708F9074600F00BFE0146314C6E1D44
:1054E00054F83600FAF7F6FF44F83600384600F074
:1054F00077FE014604EBC6046068FAF7EBFF6060D4
:105500000135DCE7294B41F288321A60254B5E6891
:1055100001365E60032E7FF7FFAE1D680024072C66
:1055200014D8A21C1F4B53F822703046FBF786F8A4
:1055300001463846FBF78AF905EB051323442E3361
:105540001B4A02EB830358600134E8E7002413E0B0
:10555000631D144A02EBC3033146586800F07AFE1B
:105560001449FBF7BFF805EB051323443633104A03
:1055700002EB830358600134072C25D8631D094AC8
:1055800052F8336000213046FBF740FA0028DFD0A4
:105590000948E8E740260020241F002000007A4444
:1055A00017B751389C1E002035FA8E3C1C00002095
:1055B00050240020E12E65420000C07F90CA000800
:1055C00038CB0008CDCCCC3E05EB0512114B03EBDC
:1055D0008203012283F8FC20154495420CD90E4821
:1055E00002F074FF0B4B9889FCF720FE0B4B002256
:1055F0001A70FDF7B9FE8FE6094C6822002120469B
:1056000002F085F92560074B33F81500FCF70EFE14
:10561000EFE700BF50240020B0CA0008241F00207C
:105620009C1E002038CB000870B588B0964A93695C
:1056300043F001039361936903F001030793079B10
:10564000D36943F08053D361D36903F08053069349
:10565000069B8E494B6823F0E06343F000734B6078
:105660008B4B596841F480715960596841F400715D
:105670005960596841F480615960596841F400618A
:105680005960596841F480515960596841F400519A
:105690005960596841F400415960596841F48031BA
:1056A0005960596841F4804159607A48C16821F4D1
:1056B000E0610904090C784B0B43C360516AC1F3E4
:1056C000C061764B1970516AC1F380615970516A9B
:1056D000C1F300719970516AC1F34071D970516A78
:1056E000C1F380711971516AC90F5971916801F044
:1056F00001019971536A43F080735362684BA2F5BC
:1057000082321A60674959609A6101F12011D961AA
:105710001A63654A5A63654C654B63604FF46123B5
:10572000A3604FF47A73A3810123A3730223E3736D
:1057300000232374FCF758F9FBF7FCFCFEF7A4FAEE
:105740005C48FCF731F8FEF777FEFEF777FD4FF087
:1057500072515948FCF748FCFCF7D6FAA368B3F538
:10576000E13F5FD3B3F5612F28BF4FF461234F4C66
:10577000A36061684FF07E50FBF768F84F4B1860EC
:10578000A27B4F4B1A70E27B4E4B1A704E4B1B782C
:10579000DBB24E4AD05C4E4B1860FCF741FAA08950
:1057A000FCF744FD3D4B1B78002B3ED0494A3B4B58
:1057B0005B78002B3BD0484B38498978002938D09A
:1057C00046493648C078002835D04548334C2479BE
:1057D000002C32D0434C314D6D79002D2FD0424DED
:1057E0002E4EB6796EB3414E049603950294019005
:1057F00000913F493F4802F0CFFDFDF717FDFEF74E
:10580000F9FFFDF723FDFEF7C9FAFEF789FC002436
:10581000272C34D8224B1B7DABB96420FCF782F8CF
:105820000134F5E74FF4E133A1E7334ABFE7334BE7
:10583000C2E73349C5E73348C8E7334CCBE7334DBC
:10584000CEE7334ED0E7164B01225A75FEF7D2FF52
:10585000134B1B7D73B930BF2E49CB681A0402F479
:105860000012DB4303F0200313430B616420FCF7B9
:1058700059F8EDE70A4B01225A75FEF7BBFF264B9C
:1058800000221A705CE000BF0010024000000140DE
:10589000002004E000ED00E00003FA05381F0020BE
:1058A000541E00202000200480008004502400208A
:1058B00000007A44281F0020141F0020140000203C
:1058C0001800002018260020E63A00203CCB0008F3
:1058D000402600201CC8000824C800082CC8000866
:1058E00038C8000848C8000858C8000868C8000838
:1058F0005CC70008D0CA000818C8000820C8000803
:1059000028C8000830C8000840C8000850C800086F
:1059100060C800080008014010000020FDF7ACF945
:10592000FFF7E4FCFDF720FDFFF79EF8194A136826
:1059300001331360184B00221A70184B1B68EBB12F
:10594000BFF34F8F30BFFEF785FFFFF74FFCFDF72A
:10595000EFF813490C68104A1378DBB21148C05CA9
:1059600008601378DBB2032BD8D8A042E5D00E4BE9
:105970001B78002BE1D0FDF7D5FCDEE7FCF7D6F96C
:105980000028DDDB054B4FF0FF321A60074802F0BC
:105990009DFDD5E70C1F0020E63A00201C000020EA
:1059A000402600203CCB0008241F002004CB000828
:1059B00008B54FF6FF710120FCF75EF808BD10B581
:1059C00082B000248DF804408DF80500022201A960
:1059D000782000F011FB204602B010BD08B530B9A8
:1059E00000214FF48062034801F091FF08BDFF21C0
:1059F000F7E700BFF03A002010B5A2B040238DF8C1
:105A00000430002418E0A4F15000C0B2FFF7D7FF23
:105A10000020FFF7D4FF1020FFF7D1FF80220849B4
:105A200001EBC4110DF1050001F049FF812201A92C
:105A3000782000F0E1FA0134072CE4DD22B010BD3B
:105A4000F03A002010B50023494A53710CE0DA08FF
:105A5000D201484921F8132003F0070101228A40AE
:105A60004549CA5401339BB23F2BF0D96420FBF760
:105A700085FBAE20FFF7A3FF04462020FFF79FFF22
:105A800004441020FFF79BFF0444B020FFF797FF6A
:105A90000444C820FFF793FF04440020FFF78FFF62
:105AA00004441020FFF78BFF04444020FFF787FFDA
:105AB00004448120FFF783FF0444FF20FFF77FFFAA
:105AC0000444A120FFF77BFF0444A620FFF777FFE3
:105AD0000444A820FFF773FF04443F20FFF76FFF43
