:020000040800F2
:1000000000500020F15D0008CD4B0008D14B0008E6
:10001000354C0008994C0008FD4C00080000000019
:10002000000000000000000000000000614D00081A
:10003000634D000800000000654D0008694D000890
:10004000395E0008395E0008395E0008395E000834
:10005000395E0008395E0008395E0008395E000824
:10006000395E0008395E0008395E0008294E000834
:10007000395E0008395E0008394E0008395E000814
:10008000395E0008395E0008395E0008395E0008F4
:10009000395E0008395E0008395E0008395E0008E4
:1000A000395E0008395E0008395E0008395E0008D4
:1000B000395E0008494E0008395E0008395E0008C4
:1000C000395E0008395E0008395E0008395E0008B4
:1000D000395E0008854E0008395E0008395E000868
:1000E000395E0008395E0008395E00080000000033
:1000F0000000000000000000000000000000000000
:0C01000000000000000000005FF808F1A3
:1001100010B5054C237833B9044B13B10448AFF341
:1001200000800123237010BDF801002000000000B2
:1001300030A1000808B5034B1BB103490348AFF3D6
:10014000008008BD00000000FC01002030A1000874
:10015000034613F8012B002AFBD1181A0138704707
:1001600081F0004102E000BF83F0004330B54FEA68
:1001700041044FEA430594EA050F08BF90EA020FD5
:100180001FBF54EA000C55EA020C7FEA645C7FEA68
:10019000655C00F0E2804FEA5454D4EB5555B8BF8B
:1001A0006D420CDD2C4480EA020281EA030382EAFC
:1001B000000083EA010180EA020281EA0303362D8E
:1001C00088BF30BD11F0004F4FEA01314FF4801C61
:1001D0004CEA113102D0404261EB410113F0004F73
:1001E0004FEA03334CEA133302D0524263EB43032A
:1001F00094EA050F00F0A780A4F10104D5F1200EC8
:100200000DDB02FA0EFC22FA05F2801841F1000122
:1002100003FA0EF2801843FA05F359410EE0A5F1F6
:1002200020050EF1200E012A03FA0EFC28BF4CF027
:10023000020C43FA05F3C01851EBE37101F00045DD
:1002400007D54FF0000EDCF1000C7EEB00006EEBEA
:100250000101B1F5801F1BD3B1F5001F0CD3490874
:100260005FEA30004FEA3C0C04F101044FEA4452CB
:1002700012F5800F80F09A80BCF1004F08BF5FEA52
:10028000500C50F1000041EB045141EA050130BD32
:100290005FEA4C0C404141EB010111F4801FA4F1D5
:1002A0000104E9D191F0000F04BF01460020B1FA2A
:1002B00081F308BF2033A3F10B03B3F120020CDA62
:1002C0000C3208DD02F1140CC2F10C0201FA0CF040
:1002D00021FA02F10CE002F11402D8BFC2F1200CA5
:1002E00001FA02F120FA0CFCDCBF41EA0C0190405B
:1002F000E41AA2BF01EB0451294330BD6FEA0404A4
:100300001F3C1CDA0C340EDC04F11404C4F120028E
:1003100020FA04F001FA02F340EA030021FA04F3A0
:1003200045EA030130BDC4F10C04C4F1200220FAF7
:1003300002F001FA04F340EA0300294630BD21FA35
:1003400004F0294630BD94F0000F83F4801306BFFB
:1003500081F480110134013D4EE77FEA645C18BFEF
:100360007FEA655C29D094EA050F08BF90EA020F86
:1003700005D054EA000C04BF1946104630BD91EA7E
:10038000030F1EBF0021002030BD5FEA545C05D181
:100390004000494128BF41F0004130BD14F58004C0
:1003A0003CBF01F5801130BD01F0004545F0FE4134
:1003B00041F470014FF0000030BD7FEA645C1ABF69
:1003C000194610467FEA655C1CBF0B46024650EAA0
:1003D000013406BF52EA033591EA030F41F40021CC
:1003E00030BD00BF90F0000F04BF0021704730B552
:1003F0004FF4806404F132044FF000054FF0000127
:1004000050E700BF90F0000F04BF0021704730B5E7
:100410004FF4806404F1320410F0004548BF4042BC
:100420004FF000013EE700BF42004FEAE2014FEA11
:1004300031014FEA02701FBF12F07F4393F07F4FEC
:1004400081F06051704732F07F4208BF704793F0EF
:100450007F4F04BF41F40021704730B54FF4607402
:1004600001F0004521F000411CE700BF50EA010205
:1004700008BF704730B54FF000050AE050EA0102AE
:1004800008BF704730B511F0004502D5404261EB1E
:1004900041014FF4806404F132045FEA915C3FF45F
:1004A000D8AE4FF003025FEADC0C18BF03325FEAFC
:1004B000DC0C18BF033202EBDC02C2F1200300FAAD
:1004C00003FC20FA02F001FA03FE40EA0E0021FAD2
:1004D00002F11444BDE600BF70B54FF0FF0C4CF4C0
:1004E000E06C1CEA11541DBF1CEA135594EA0C0F72
:1004F00095EA0C0F00F0DEF82C4481EA030621EAAD
:100500004C5123EA4C5350EA013518BF52EA0335E7
:1005100041F4801143F4801338D0A0FB02CE4FF099
:100520000005E1FB02E506F00042E0FB03E54FF0C9
:100530000006E1FB03569CF0000F18BF4EF0010EC1
:10054000A4F1FF04B6F5007F64F5407404D25FEABD
:100550004E0E6D4146EB060642EAC62141EA555170
:100560004FEAC52040EA5E504FEACE2EB4F1FD0CB2
:1005700088BFBCF5E06F1ED8BEF1004F08BF5FEA30
:10058000500E50F1000041EB045170BD06F00046E2
:1005900046EA010140EA020081EA0301B4EB5C048F
:1005A000C2BFD4EB0C0541EA045170BD41F4801187
:1005B0004FF0000E013C00F3AB8014F1360FDEBFAC
:1005C000002001F0004170BDC4F10004203C35DA88
:1005D0000C341BDC04F11404C4F1200500FA05F30B
:1005E00020FA04F001FA05F240EA020001F00042AC
:1005F00021F0004110EBD37021FA04F642EB060122
:100600005EEA430E08BF20EAD37070BDC4F10C044B
:10061000C4F1200500FA04F320FA05F001FA04F20F
:1006200040EA020001F0004110EBD37041F10001FB
:100630005EEA430E08BF20EAD37070BDC4F1200506
:1006400000FA05F24EEA020E20FA04F301FA05F26E
:1006500043EA020321FA04F001F0004121FA04F216
:1006600020EA020000EBD3705EEA430E08BF20EAE6
:10067000D37070BD94F0000F0FD101F00046400020
:1006800041EB010111F4801F08BF013CF7D041EAA2
:10069000060195F0000F18BF704703F000465200A6
:1006A00043EB030313F4801F08BF013DF7D043EA77
:1006B0000603704794EA0C0F0CEA135518BF95EA2D
:1006C0000C0F0CD050EA410618BF52EA4306D1D1B4
:1006D00081EA030101F000414FF0000070BD50EAD3
:1006E000410606BF1046194652EA430619D094EA5D
:1006F0000C0F02D150EA013613D195EA0C0F05D147
:1007000052EA03361CBF104619460AD181EA03019A
:1007100001F0004141F0FE4141F470014FF0000052
:1007200070BD41F0FE4141F4780170BD70B54FF0ED
:10073000FF0C4CF4E06C1CEA11541DBF1CEA13556D
:1007400094EA0C0F95EA0C0F00F0A7F8A4EB05044F
:1007500081EA030E52EA03354FEA013100F0888046
:100760004FEA03334FF0805545EA131343EA12630F
:100770004FEA022245EA111545EA10654FEA0026C4
:100780000EF000419D4208BF964244F1FD0404F57D
:10079000407402D25B084FEA3202B61A65EB0305D9
:1007A0005B084FEA32024FF480104FF4002CB6EB96
:1007B000020E75EB030E22BFB61A754640EA0C0016
:1007C0005B084FEA3202B6EB020E75EB030E22BF56
:1007D000B61A754640EA5C005B084FEA3202B6EB97
:1007E000020E75EB030E22BFB61A754640EA9C0056
:1007F0005B084FEA3202B6EB020E75EB030E22BF26
:10080000B61A754640EADC0055EA060E18D04FEAE3
:10081000051545EA16754FEA06164FEAC30343EA83
:1008200052734FEAC2025FEA1C1CC0D111F4801F50
:100830000BD141EA00014FF000004FF0004CB6E749
:1008400011F4801F04BF01430020B4F1FD0C88BFE8
:10085000BCF5E06F3FF6AFAEB5EB030C04BFB6EBF3
:10086000020C5FEA500C50F1000041EB045170BDE6
:100870000EF0004E4EEA113114EB5C04C2BFD4EB13
:100880000C0541EA045170BD41F480114FF0000E97
:10089000013C90E645EA060E8DE60CEA135594EA13
:1008A0000C0F08BF95EA0C0F3FF43BAF94EA0C0F16
:1008B0000AD150EA01347FF434AF95EA0C0F7FF48B
:1008C00025AF104619462CE795EA0C0F06D152EADF
:1008D00003353FF4FDAE1046194622E750EA4106C3
:1008E00018BF52EA43067FF4C5AE50EA41047FF4D4
:1008F0000DAF52EA43057FF4EBAE12E74FF0FF3C39
:1009000006E000BF4FF0010C02E000BF4FF0010C09
:100910004DF804CD4FEA410C7FEA6C5C4FEA430C82
:1009200018BF7FEA6C5C1BD001B050EA410C0CBFD1
:1009300052EA430C91EA030F02BF90EA020F002033
:10094000704710F1000F91EA030F58BF994208BF9A
:1009500090422CBFD8176FEAE37040F00100704757
:100960004FEA410C7FEA6C5C02D150EA013C07D1AE
:100970004FEA430C7FEA6C5CD6D152EA033CD3D0F9
:100980005DF8040B704700BF8446104662468C46F3
:100990001946634600E000BF01B5FFF7B7FF002826
:1009A00048BF10F1000F01BD4DF808EDFFF7F4FF4F
:1009B0000CBF012000205DF808FB00BF4DF808EDDA
:1009C000FFF7EAFF34BF012000205DF808FB00BFFD
:1009D0004DF808EDFFF7E0FF94BF012000205DF81F
:1009E00008FB00BF4DF808EDFFF7CEFF94BF0120D4
:1009F00000205DF808FB00BF4DF808EDFFF7C4FFCD
:100A000034BF012000205DF808FB00BF4FEA410C15
:100A10007FEA6C5C02D150EA013C0AD14FEA430CF8
:100A20007FEA6C5C02D152EA033C02D14FF0000035
:100A300070474FF0010070474FEA410212F5001273
:100A400015D211D56FF47873B3EB625212D94FEA15
:100A5000C12343F0004343EA505311F0004F23FAFF
:100A600002F018BF404270474FF00000704750EA54
:100A7000013005D111F0004008BF6FF00040704711
:100A80004FF00000704700BF80F0004002E000BF60
:100A900081F0004142001FBF5FEA410392EA030F69
:100AA0007FEA226C7FEA236C6AD04FEA1262D2EBB3
:100AB0001363C1BFD218414048404140B8BF5B42B8
:100AC000192B88BF704710F0004F40F4000020F051
:100AD0007F4018BF404211F0004F41F4000121F067
:100AE0007F4118BF494292EA030F3FD0A2F10102B1
:100AF00041FA03FC10EB0C00C3F1200301FA03F1EF
:100B000000F0004302D5494260EB4000B0F5000F11
:100B100013D3B0F1807F06D340084FEA310102F1D0
:100B20000102FE2A51D2B1F1004F40EBC25008BF82
:100B300020F0010040EA03007047490040EB00004C
:100B400010F4000FA2F10102EDD1B0FA80FCACF17B
:100B5000080CB2EB0C0200FA0CF0AABF00EBC2507A
:100B600052421843BCBFD0401843704792F0000F68
:100B700081F4000106BF80F400000132013BB5E7BB
:100B80004FEA41037FEA226C18BF7FEA236C21D031
:100B900092EA030F04D092F0000F08BF0846704796
:100BA00090EA010F1CBF0020704712F07F4F04D164
:100BB000400028BF40F00040704712F100723CBF77
:100BC00000F50000704700F0004343F0FE4040F4A1
:100BD000000070477FEA226216BF08467FEA23635F
:100BE0000146420206BF5FEA412390EA010F40F44A
:100BF000800070474FF0000304E000BF10F0004396
:100C000048BF40425FEA000C08BF704743F096437C
:100C100001464FF000001CE050EA010208BF704797
:100C20004FF000030AE000BF50EA010208BF70471E
:100C300011F0004302D5404261EB41015FEA010C33
:100C400002BF84460146002043F0B64308BFA3F12B
:100C50008053A3F50003BCFA8CF2083AA3EBC2530D
:100C600010DB01FA02FC634400FA02FCC2F120022C
:100C7000BCF1004F20FA02F243EB020008BF20F063
:100C80000100704702F1200201FA02FCC2F12002C9
:100C900050EA4C0021FA02F243EB020008BF20EABE
:100CA000DC7070474FF0FF0C1CEAD0521EBF1CEAEC
:100CB000D15392EA0C0F93EA0C0F6FD01A4480EADA
:100CC000010C400218BF5FEA41211ED04FF00063C3
:100CD00043EA501043EA5111A0FB01310CF00040EF
:100CE000B1F5000F3EBF490041EAD3715B0040EA15
:100CF000010062F17F02FD2A1DD8B3F1004F40EBE5
:100D0000C25008BF20F00100704790F0000F0CF0B7
:100D1000004C08BF49024CEA502040EA51207F3A7B
:100D2000C2BFD2F1FF0340EAC250704740F4000056
:100D30004FF00003013A5DDC12F1190FDCBF00F047
:100D400000407047C2F10002410021FA02F1C2F1F5
:100D5000200200FA02FC5FEA310040F1000053EA91
:100D60004C0308BF20EADC70704792F0000F00F0DF
:100D7000004C02BF400010F4000F013AF9D040EAE5
:100D80000C0093F0000F01F0004C02BF490011F479
:100D9000000F013BF9D041EA0C018FE70CEAD15377
:100DA00092EA0C0F18BF93EA0C0F0AD030F0004CF7
:100DB00018BF31F0004CD8D180EA010000F00040AB
:100DC000704790F0000F17BF90F0004F084691F069
:100DD000000F91F0004F14D092EA0C0F01D14202A3
:100DE0000FD193EA0C0F03D14B0218BF084608D16C
:100DF00080EA010000F0004040F0FE4040F40000B6
:100E0000704740F0FE4040F4400070474FF0FF0C48
:100E10001CEAD0521EBF1CEAD15392EA0C0F93EA8F
:100E20000C0F69D0A2EB030280EA010C49024FEAE1
:100E3000402037D04FF0805343EA111143EA10139A
:100E40000CF000408B4238BF5B0042F17D024FF452
:100E5000000C8B4224BF5B1A40EA0C00B3EB510F2D
:100E600024BFA3EB510340EA5C00B3EB910F24BF16
:100E7000A3EB910340EA9C00B3EBD10F24BFA3EB9B
:100E8000D10340EADC001B0118BF5FEA1C1CE0D163
:100E9000FD2A3FF650AF8B4240EBC25008BF20F016
:100EA000010070470CF0004C4CEA50207F32C2BF6A
:100EB000D2F1FF0340EAC250704740F400004FF007
:100EC0000003013A37E792F0000F00F0004C02BF38
:100ED000400010F4000F013AF9D040EA0C0093F002
:100EE000000F01F0004C02BF490011F4000F013B5C
:100EF000F9D041EA0C0195E70CEAD15392EA0C0FC4
:100F000008D142027FF47DAF93EA0C0F7FF470AFFB
:100F1000084676E793EA0C0F04D14B023FF44CAF3E
:100F200008466EE730F0004C18BF31F0004CCAD1D3
:100F300030F000427FF45CAF31F000437FF43CAF0F
:100F40005FE700BF4FF0FF3C06E000BF4FF0010C31
:100F500002E000BF4FF0010C4DF804CD4FEA400213
:100F60004FEA41037FEA226C18BF7FEA236C11D05D
:100F700001B052EA530C18BF90EA010F58BFB2EB10
:100F8000030088BFC81738BF6FEAE17018BF40F090
:100F9000010070477FEA226C02D15FEA402C05D144
:100FA0007FEA236CE4D15FEA412CE1D05DF8040BC9
:100FB000704700BF844608466146FFE70FB5FFF75C
:100FC000C9FF002848BF10F1000F0FBD4DF808ED14
:100FD000FFF7F4FF0CBF012000205DF808FB00BF05
:100FE0004DF808EDFFF7EAFF34BF012000205DF85F
:100FF00008FB00BF4DF808EDFFF7E0FF94BF0120AC
:1010000000205DF808FB00BF4DF808EDFFF7D2FFA8
:1010100094BF012000205DF808FB00BF4DF808EDEB
:10102000FFF7C8FF34BF012000205DF808FB00BFB8
:1010300042000ED2B2F1FE4F0BD34FF09E03B3EB42
:10104000126209D44FEA002343F0004323FA02F06E
:1010500070474FF00000704712F1610F01D142025A
:1010600002D14FF0FF3070474FF00000704700BFD3
:101070004FEA4102B2F1E04324BFB3F5001CDCF1BA
:10108000FE5C0DD901F0004C4FEAC0024CEA5070F2
:10109000B2F1004F40EB830008BF20F00100704721
:1010A00011F0804F21D113F13872BCBF01F0004024
:1010B000704741F480114FEA5252C2F11802C2F156
:1010C000200C10FA0CF320FA02F018BF40F00100D7
:1010D0004FEAC1234FEAD32303FA0CFC40EA0C0089
:1010E00023FA02F34FEA4303CCE77FEA625307D1C6
:1010F00050EA01331EBF4FF0FE4040F440007047FD
:1011000001F0004040F0FE4040F40000704700BF96
:101110004FEA40024FEA41037FEA226C02D15FEAC4
:10112000402C08D17FEA236C02D15FEA412C02D126
:101130004FF0000070474FF0010070474FEA400247
:10114000B2F1FE4F0FD34FF09E03B3EB12620DD9F5
:101150004FEA002343F0004310F0004F23FA02F05F
:1011600018BF404270474FF00000704712F1610F06
:1011700001D1420205D110F0004008BF6FF00040DD
:1011800070474FF00000704710B504460E4B1878BA
:101190004FF47A73B3FBF0F30C4A1068B0FBF3F032
:1011A00000F028FC68B90F2C01D901200AE00022C8
:1011B00021464FF0FF3000F0C9FB054B1C600020BA
:1011C00000E0012010BD00BF000000202000002032
:1011D0000400002008B5074A136843F010031360A9
:1011E000032000F0A1FB0F20FFF7CEFF03F06EFEFF
:1011F000002008BD00200240034A1168034B1B7801
:101200000B441360704700BFA41C002000000020A6
:10121000014B1868704700BFA41C002038B5044675
:10122000FFF7F6FF0546B4F1FF3F02D0044B1B78F1
:101230001C44FFF7EDFF401BA042FAD338BD00BFAE
:101240000000002008B5436A9A6A12F0500F03D0DC
:101250001B6A1B6B984708BD9A6A42F400729A6237
:101260001A68926802F46022B2F5602F03D0184623
:1012700003F01EFEEFE71A7B002AF8D19A6A22F4E7
:1012800080729A629A6A12F4805FF0D19A6A42F090
:1012900001029A62EBE708B5406A03F0FBFD08BD66
:1012A000704708B5406A836A43F040038362C36AAB
:1012B00043F00403C362FFF7F3FF08BD30B482B00C
:1012C0000023019390F82430012B00F08B8002461C
:1012D000012380F824304B68062B29D80568686BF9
:1012E00003EB8303053B1F249C4020EA04000C68A9
:1012F00004FA03F303436B630B68092B38D91568B1
:10130000E86803EB43031E3B07249C4020EA0400EB
:101310008C6804FA03F30343EB600B68103B012B6A
:1013200034D90020002382F8243002B030BC70474A
:101330000C2B0ED80568286B03EB8303233B1F247B
:101340009C4020EA04000C6804FA03F303432B6377
:10135000D2E70568E86A03EB8303413B1F249C4006
:1013600020EA04000C6804FA03F30343EB62C3E7CA
:101370001568286903EB430307249C4020EA040016
:101380008C6804FA03F303432B61C6E7136816481D
:10139000834205D0936A43F0200393620120C1E7A2
:1013A000986810F4000F1BD1986840F40000986012
:1013B0000B68102B01D00020B4E70C4B1B680C49C4
:1013C000A1FB03139B0C03EB83035900019102E083
:1013D000019B013B0193019B002BF9D10020A1E768
:1013E00000209FE70220A0E7002401402000002009
:1013F00083DE1B4330B583B00023019303689A68F2
:1014000012F0010F33D19A6842F001029A60194B31
:101410001B68194AA2FB03239B0C019302E0019B6A
:10142000013B0193019B002BF9D10446FFF7F0FE2D
:10143000054623689B6813F0010F16D1FFF7E8FEFD
:10144000401B0228F5D923689B6813F0010FF0D1E7
:10145000A36A43F01003A362E36A43F00103E3626B
:10146000002384F82430012002E0002000E0002066
:1014700003B030BD2000002083DE1B4390F82430F1
:10148000012B6AD010B50446012380F82430FFF701
:10149000B1FF024600285BD1A36A23F4407323F016
:1014A000010343F48073A36223682D498B4227D044
:1014B000A16A21F48011A162596811F4806F05D0EE
:1014C000A16A21F4405141F48051A162A16A11F452
:1014D000805F2BD0E16A21F00601E162002184F8EF
:1014E00024106FF0020119602368996801F46021EB
:1014F000B1F5602F1DD0996841F4801199602AE000
:10150000A1F58061496811F4702FD1D0A16A41F42E
:101510008011A1621349496811F4806FD6D0A16A85
:1015200021F4405141F48051A162CFE70021E162F2
:10153000D4E70B498B4204D0996841F4A00199602B
:1015400009E0A1F58061496811F4702FD3D1F3E768
:10155000002384F82430104610BD02221046704744
:10156000002801400024014038B503689A6812F051
:10157000010F01D1002038BD04469A6822F0010213
:101580009A60FFF745FE054623689B6813F0010F3C
:1015900013D0FFF73DFE401B0228F5D923689B6856
:1015A00013F0010FF0D0A36A43F01003A362E36AC3
:1015B00043F00103E3620120DDE70020DBE70000E8
:1015C00000287FD038B50446836A002B33D02046EC
:1015D000FFF7CAFFA36A13F010036DD100286BD187
:1015E000A26A22F4885222F0020242F00202A262AF
:1015F0006268E1690A43257B42EA4502A168B1F5C8
:10160000807F21D001291CD0217D01291FD0256890
:10161000696821F469410B436B6021688D682A4B2E
:101620002B4013438B60A368B3F5807F20D0012B40
:101630001ED000211FE0C36280F8243003F068FC54
:10164000C5E74FF48073DFE74FF48073DCE735B90B
:10165000A169013943EA413343F40063D7E7A16A42
:1016600041F02001A162E16A41F00101E162CEE7AF
:101670002369013B19052568EB6A23F470030B43CA
:10168000EB6223689968114B0B409A420BD0A36A16
:1016900023F0120343F01003A362E36A43F0010353
:1016A000E36201200DE00023E362A36A23F0030359
:1016B00043F00103A36204E0A36A43F01003A362B2
:1016C000012038BD01207047FDF7E1FFFE0E1FFF2E
:1016D00070B582B00023019390F82430012B72D0B2
:1016E0000446012380F82430FFF73EFF2046FFF731
:1016F00081FE054628B1002384F82430284602B034
:1017000070BDA36A23F4885323F0020343F002035D
:10171000A3622E4B1E68022001F020F9B6FBF0F008
:101720004000019002E0019B013B0193019B002BD3
:10173000F9D12268936843F008039360FFF768FDCE
:10174000064623689A6812F0080F14D0FFF760FD70
:10175000801B0A28F5D923689B6813F0080FF0D086
:10176000A36A23F0120343F01003A362002384F85A
:1017700024300125C2E79A6842F004029A60FFF71C
:1017800047FD064623689B6813F0040F14D0FFF74B
:101790003FFD801B0A28F5D923689B6813F0040FCE
:1017A000F0D0A36A23F0120343F01003A3620023D6
:1017B00084F824300125A1E7A36A23F0030343F052
:1017C0000103A36297E7022598E700BF20000020ED
:1017D000F0B58DB004460E4617463022002168460B
:1017E00004F088FC94F82430012B65D0012384F8A0
:1017F0002430324B00939B6803F46023B3F5602FD1
:101800000AD0A36A43F02003A362002384F82430A3
:10181000012528460DB0F0BD2046FFF7EBFD05463B
:1018200000283BD0002D43D1A26A254B134043F43E
:101830008073A36223685B6813F4806F05D0A36A8A
:1018400023F4405343F48053A362002384F82430EC
:10185000E362236A1B4A9A62236A1B4ADA62236A9A
:101860001A4A1A6323686FF002021A6022689368AA
:1018700043F48073936021683B4632464C31206AC2
:1018800000F01AF92268936803F46023B3F5602F1F
:1018900009D0936843F480139360BAE76846FFF772
:1018A000A9FD0546BEE7936843F4A0039360B0E743
:1018B000002384F82430ACE70225AAE70028014081
:1018C000FEFCEFFF4512000897120008A312000863
:1018D000034690F82420012A20D0012280F82420F9
:1018E0000268906810F0010F07D10D48806810F071
:1018F000010F02D10B48824208D09A6A42F02002BE
:101900009A620120002283F824207047506820F456
:1019100070200968014351600020F3E702207047FE
:101920000028014000240140074AD36823F4E06303
:101930001B041B0C000200F4E060184340F0BF6081
:1019400040F40030D060704700ED00E030B4174B39
:10195000DB68C3F30223C3F10704042C28BF04246B
:101960001D1D062D18D9033B4FF0FF3505FA04F471
:1019700021EA0401994005FA03F322EA030319431B
:1019800000280BDB0901C9B200F1604000F561409D
:1019900080F8001330BC70470023E5E700F00F002B
:1019A0000901C9B2024B1954F4E700BF00ED00E091
:1019B00014ED00E0002807DB00F01F0240090123BE
:1019C0009340024A42F82030704700BF00E100E037
:1019D000BFF34F8F0549CA6802F4E062044B13431A
:1019E000CB60BFF34F8F00BFFDE700BF00ED00E00D
:1019F0000400FA050138B0F1807F0AD2064B586026
:101A0000064AF02182F823100020986007221A600D
:101A100070470120704700BF10E000E000ED00E0DB
:101A200070B4066CC56B0124B4406C6004686360DC
:101A30004368102B05D0036899600368DA6070BCB6
:101A4000704703689A600368D960F8E760B310B420
:101A500002460168154B0B441548A0FB03031B0904
:101A60009B001364134BD363022382F82130086870
:101A700020F47F5020F03000536894682343D468EA
:101A80002343146923435469234394692343D4694A
:101A9000234303430B6000209063012382F821302D
:101AA00082F8200010BC704701207047F8FFFDBF8E
:101AB000CDCCCCCC0000024038B590F82040012CB1
:101AC00033D0012480F8204090F82140E4B2012C6A
:101AD00004D0002380F82030022038BD04460220C4
:101AE00084F821000020A0632568286820F0010008
:101AF00028602046FFF794FFE36A5BB12268136811
:101B000043F00E0313602268136843F0010313606F
:101B10000020E2E72268136823F0040313602268C0
:101B2000136843F00A031360EDE70220D5E790F84D
:101B30002130DBB2022B06D004238363002380F81C
:101B40002030012070470268136823F00E031360F1
:101B50000268136823F001031360036CC16B012258
:101B600002FA03F34B6080F82120002380F8203034
:101B70001846704708B590F82130DBB2022B03D02D
:101B800004238363012008BD0268136823F00E0359
:101B900013600268136823F0010313600368194A95
:101BA000934214D0143293421FD0143293421ED069
:101BB000143293421ED0143293421ED014329342F8
:101BC00002D04FF0807203E04FF4801200E0012257
:101BD0000D4B5A60012380F82130002380F820301B
:101BE000436B6BB198470020CDE71022F0E74FF42C
:101BF0008072EDE74FF48052EAE74FF48032E7E776
:101C00000020C0E7080002400000024038B5C36B66
:101C10001A6804682568016C04238B40134235D090
:101C200015F0040F32D0236813F0200F03D123687E
:101C300023F0040323600368434A934214D0143210
:101C4000934218D01432934217D01432934217D0D3
:101C50001432934217D01432934202D04FF0806274
:101C600003E04FF4800200E00422384B5A60C36A5C
:101C700003B1984738BD4022F7E74FF48062F4E79C
:101C80004FF48042F1E74FF48022EEE702238B40CD
:101C900013423CD015F0020F39D0236813F0200F07
:101CA00006D1236823F00A032360012380F8213042
:101CB0000368254A934214D0143293421CD0143244
:101CC00093421BD0143293421BD0143293421BD048
:101CD0001432934202D04FF0007203E04FF400122E
:101CE00000E00222194B5A60002380F82030836AFA
:101CF000002BBFD09847BDE72022F3E74FF40072D6
:101D0000F0E74FF40052EDE74FF40032EAE7082322
:101D100003FA01F11142ADD015F0080FAAD02368E3
:101D200023F00E032360026CC16B012303FA02F25D
:101D30004A60836380F82130002380F82030036BF1
:101D4000002B97D0984795E708000240000002401A
:101D5000044B0022DA61044A136943F00103136162
:101D600001807047A81C0020002002401A4BDB684D
:101D700013F0100F27D0194AD36943F00203D3613F
:101D80001023154AD26812F0040F06D01349CA690D
:101D900042F00102CA6143F004030F4AD26912F013
:101DA000010F09D00D49CA6942F00402CA610A490B
:101DB000CA6922F00102CA6140F20112934204D0C2
:101DC000054AD36070470023DBE7034AD36923F059
:101DD0000103D361704700BF00200240A81C00200F
:101DE0000A4B1B6913F0800F0DD0084B084A5A604C
:101DF00002F188325A601B6913F0800F01D0012074
:101E00007047002070470020704700BF002002404C
:101E100023016745034A136943F0800313610020DF
:101E2000704700BF0020024038B50446FFF7F0F9C4
:101E30000546174BDB6813F0010F0AD0B4F1FF3FE2
:101E4000F7D00CB3FFF7E4F9401BA042F1D903200F
:101E500019E00F4BDB6813F0200F02D00C4B20224F
:101E6000DA600B4BDB6813F0100F09D1084BDB690C
:101E700013F0010F04D1064BDB6813F0040F05D0FB
:101E8000FFF774FF012038BD0320FCE70020FAE7CC
:101E9000002002402DE9F843224C247E012C3FD043
:101EA0001E4690460F4604461E4B01221A765020CD
:101EB000FFF7BAFF034668BB012C28D0022C23D0C1
:101EC0004FF0040900244C4524D22101C1F1200225
:101ED000A1F1200328FA01F106FA02F2114326FAD1
:101EE00003F3194389B207EB4400FFF731FF502099
:101EF000FFF79AFF0C4B1D6925F001051D61034694
:101F000040B90134E4B2DEE74FF00209DAE74FF0FE
:101F10000109D7E7034A002111761846BDE8F88386
:101F20000223FAE7A81C002000200240064B0022F2
:101F3000DA61064B1A6942F004021A611A6942F02A
:101F400040021A61704700BFA81C00200020024018
:101F5000064B0022DA61064B1A6942F002021A614E
:101F600058611A6942F040021A617047A81C0020AB
:101F700000200240244B1B7E012B42D070B50E4640
:101F80000446214B01221A760368022B1ED05020F2
:101F9000FFF74AFF78BB4FF0FF333360A56801229B
:101FA000E168A36803EB8123AB4225D92846FFF7FC
:101FB000CFFF5020FFF738FF144A136923F00203C4
:101FC00013610246A8B905F58065E9E75020FFF7DF
:101FD0002BFF08B101220FE00120FFF7A7FF5020DF
:101FE000FFF722FF024609490B6923F004030B6146
:101FF00002E0356000E00122034B00211976104613
:1020000070BD022210467047A81C0020002002402C
:10201000F0B482B000263246A2E0002D5AD0012D45
:1020200000D1CE68FF2B69D88446FF2B69D8950074
:10203000DCF800400F27AF4024EA070406FA05F554
:102040002C43CCF800404C6814F0805F00F087808F
:102050005F4CA56945F00105A561A46904F0010480
:102060000194019C9508AF1C5A4C54F8274002F08B
:102070000307BF004FF00F0C0CFA07FC24EA0C0C0E
:10208000554CA04243D004F58064A04200F081800A
:1020900004F58064A0427ED004F58064A04234D070
:1020A000042435E04D4FBD4214D00BD94C4FBD42F6
:1020B00010D007F58037BD420CD0A7F58017BD4280
:1020C000B0D107E0A7F58017BD4203D007F58037F0
:1020D000BD42A7D18D687DB1012D08D0446108268D
:1020E000A0E7CE6808369DE7CE680C369AE7046113
:1020F000082697E7002695E7042693E700F1040CED
:1021000093E7A2F10805AD0092E7032400E0002464
:10211000BC4044EA0C0402352E4F47F825404C6879
:1021200014F4801F39D02F4DAC681C43AC604C6850
:1021300014F4001F37D02B4DEC681C43EC604C6846
:1021400014F4003F35D0274D6C681C436C604C681C
:1021500014F4803F33D0234D2C6823432B6001328D
:102160000B6833FA02F430D00124944023409C429F
:10217000F5D14D68122DB7D094D8022DB1D07FF68D
:102180004CAF032DB6D0112D7FF44CAFCE68043682
:1021900048E70124BCE70224BAE7124DAC6824EA00
:1021A0000304AC60C3E70F4DEC6824EA0304EC6061
:1021B000C5E70C4D6C6824EA03046C60C7E7094D61
:1021C0002C6824EA03032B60C9E702B0F0BC704717
:1021D00000100240000001400008014000002110F2
:1021E00000003110000401408368194201D1002031
:1021F00070470120704712B90904016170470161FD
:102200007047000082B0084B1B68084AA2FB0323FA
:102210005B0A00FB03F0019000BF019B5A1E019274
:10222000002BF9D102B0704720000020D34D62107E
:10223000002800F0F58170B582B00446036813F001
:10224000010F2CD0AB4B5B6803F00C03042B1DD0AB
:10225000A84B5B6803F00C03082B12D06368B3F53E
:10226000803F41D0002B55D103F1804303F5043367
:102270001A6822F480321A601A6822F480221A60E6
:1022800037E09C4B5B6813F4803FE7D0994B1B68A9
:1022900013F4003F03D06368002B00F0C381236870
:1022A00013F0020F76D0934B5B6813F00C0F5FD0E6
:1022B000904B5B6803F00C03082B54D02369002B70
:1022C00000F08A808C4B01221A60FEF7A1FF0546C0
:1022D000884B1B6813F0020F75D1FEF799FF401B66
:1022E0000228F5D90320A0E1824A136843F4803321
:1022F0001360636843B3FEF78BFF05467D4B1B6895
:1023000013F4003FCBD1FEF783FF401B6428F5D9BF
:1023100003208AE1B3F5A02F09D0764B1A6822F486
:1023200080321A601A6822F480221A60E1E703F111
:102330008043A3F53C331A6842F480221A601A687D
:1023400042F480321A60D4E7FEF762FF0546694B1B
:102350001B6813F4003FA2D0FEF75AFF401B64280D
:10236000F5D9032061E1634B5B6813F4803FA5D18D
:10237000604B1B6813F0020F04D02369012B01D0BE
:10238000012052E15B4A136823F0F803616943EAD4
:10239000C1031360236813F0080F32D0A369002B28
:1023A0005BD0564B01221A60FEF732FF0546514BB7
:1023B0005B6A13F0020F21D1FEF72AFF401B0228AF
:1023C000F5D9032031E14B4A136823F0F803616922
:1023D00043EAC1031360DDE7474B00221A60FEF7B2
:1023E00017FF0546434B1B6813F0020FD2D0FEF7D0
:1023F0000FFF401B0228F5D9032016E10120FFF74B
:1024000001FF236813F0040F00F09880394BDB695B
:1024100013F0805F33D1374BDA6942F08052DA61D2
:10242000DB6903F080530193019B0125344B1B684A
:1024300013F4807F25D0E368012B36D0002B4CD1DC
:1024400003F1804303F504331A6A22F001021A6291
:102450001A6A22F004021A622CE0284B00221A6049
:10246000FEF7D6FE0546234B5B6A13F0020FC8D079
:10247000FEF7CEFE401B0228F5D90320D5E000254B
:10248000D4E71F4A136843F480731360FEF7C0FE5D
:1024900006461B4B1B6813F4807FCCD1FEF7B8FEB9
:1024A000801B6428F5D90320BFE0124A136A43F069
:1024B00001031362E3687BB3FEF7AAFE06460D4BE9
:1024C0001B6A13F0020F38D1FEF7A2FE801B41F207
:1024D00088339842F3D90320A7E0052B12D0054B8F
:1024E0001A6A22F001021A621A6A22F004021A62BF
:1024F000E0E700BF00100240000042428004424278
:10250000007000404C4B1A6A42F004021A621A6AC8
:1025100042F001021A62CDE7FEF77AFE0646464B0C
:102520001B6A13F0020F08D0FEF772FE801B41F207
:1025300088339842F3D9032077E0E5B9E369002BAB
:1025400072D03D4A526802F00C02082A56D0022B83
:1025500017D03A4B00221A60FEF75AFE0446364B5B
:102560001B6813F0007F47D0FEF752FE001B0228C5
:10257000F5D9032059E0304AD36923F08053D36161
:10258000DCE72E4B00221A60FEF742FE05462A4B7E
:102590001B6813F0007F06D0FEF73AFE401B0228AE
:1025A000F5D9032041E0236AB3F5803F1AD02249D0
:1025B0004B6823F47413226A606A024313434B602E
:1025C0001E4B01221A60FEF723FE04461A4B1B68BD
:1025D00013F0007F0ED1FEF71BFE001B0228F5D979
:1025E000032022E0144A536823F40033A1680B430C
:1025F0005360DCE7002018E0002016E0012B16D025
:102600000D4B5B6803F48031226A914201D00120B6
:102610000BE003F47013626A93420AD0012004E0D5
:1026200001207047012000E0002002B070BD0120B1
:10263000FBE70020F9E700BF0010024060004242C3
:102640000F4B5B6803F00C02082A16D1C3F38342D8
:102650000C498A5C13F4803F03D10B4800FB02F065
:102660007047074B5B68C3F340430849CB5C08489D
:1026700000FB02F0B0FBF3F070470548704700BF65
:102680000010024048A1000800093D0058A10008C0
:1026900000127A00002800F0A38070B50446524B67
:1026A0001B6803F007038B420CD24F4A136823F0D8
:1026B00007030B431360136803F007038B4201D039
:1026C000012070BD236813F0020F17D013F0040F20
:1026D00004D0464A536843F4E0635360236813F020
:1026E000080F04D0414A536843F4605353603F4A93
:1026F000536823F0F003A068034353600D4623683A
:1027000013F0010F31D06368012B20D0022B25D0AC
:10271000364A126812F0020F64D034494A6822F037
:10272000030213434B60FEF773FD06462F4B5B68B5
:1027300003F00C036268B3EB820F16D0FEF768FD5E
:10274000801B41F288339842F0D90320B9E7274A29
:10275000126812F4003FE0D10120B2E7234A126868
:1027600012F0007FD9D10120ABE71F4B1B6803F0AB
:102770000703AB420CD91C4A136823F007032B4311
:102780001360136803F00703AB4201D0012098E700
:10279000236813F0040F06D0144A536823F4E0634F
:1027A000E1680B435360236813F0080F07D00F4A0A
:1027B000536823F46053216943EAC1035360FFF770
:1027C0003FFF0A4B5B68C3F30313094AD35CD8404D
:1027D000084B1860084B1868FEF7D6FC002070E71D
:1027E0000120704701206CE70020024000100240E9
:1027F000A4B700082000002004000020014B186846
:10280000704700BF2000002008B5FFF7F7FF044B1A
:102810005B68C3F30223034AD35CD84008BD00BF02
:1028200000100240B4B7000808B5FFF7E7FF044BFB
:102830005B68C3F3C223034AD35CD84008BD00BF22
:1028400000100240B4B7000870B582B004460368B7
:1028500013F0010F34D03E4BDB6913F0805F48D199
:102860003B4BDA6942F08052DA61DB6903F0805356
:102870000193019B0125374B1B6813F4807F3AD0ED
:10288000334B1B6A13F4407311D0626802F4407238
:102890009A420CD02E4A136A23F440702E49012626
:1028A0000E6000260E60106213F0010F37D1284A27
:1028B000136A23F4407361680B431362002D3FD108
:1028C000236813F0020F06D0214A536823F44043D3
:1028D000A1680B435360236813F0100F35D01C4AD6
:1028E000536823F48003E1680B435360002002B077
:1028F00070BD0025BFE7174A136843F48073136067
:10290000FEF786FC0646134B1B6813F4807FB7D195
:10291000FEF77EFC801B6428F5D90320E7E7FEF76D
:1029200077FC06460A4B1B6A13F0020FBFD1FEF775
:102930006FFC801B41F288339842F3D90320D6E71D
:10294000D36923F08053D361BAE70020CFE700BFFB
:1029500000100240007000404004424208B50228C6
:102960004DD0102803D0012828D0002051E02D4B55
:102970005A681B6813F0807F4CD0C2F383432A4906
:10298000C85C12F4803F15D0264B5B68C3F340430C
:10299000264AD25C264BB3FBF2F300FB03F0214B3B
:1029A0005B6813F4800F34D14000224BA3FB00304E
:1029B00040082EE0204B03FB00F0F0E7194B1B6AA8
:1029C00040F202321A40B2F5817F25D003F4407301
:1029D000B3F5007F04D0B3F5407F09D0002018E0A4
:1029E000104A526A12F0020FF5D049F6404010E04A
:1029F0000C4B1B6813F4003F11D1002009E0FFF7D6
:102A000013FF084B5B68C3F3813301335B00B0FBFA
:102A1000F3F008BD0020FCE74FF40040F9E74FF267
:102A20002440F6E7001002405CA100086CA10008F9
:102A300000127A00ABAAAAAA00093D0010B4036AEA
:102A4000046A24F001040462846924F0F00444EA76
:102A5000021223F00A030B438261036210BC704729
:102A600010B4036A046A24F010040462846924F434
:102A7000704444EA023223F0A00343EA0113826166
:102A8000036210BC7047836823F07003194341F060
:102A9000070181607047000090F83D30DBB2012BE8
:102AA00001D001207047022380F83D300268D368CE
:102AB00043F00103D3600368104A934210D0B3F18E
:102AC000804F0DD0A2F59432934209D002F5806276
:102AD000934205D01A6842F001021A600020704744
:102AE0009A6802F00702062A05D01A6842F001022D
:102AF0001A60002070470020704700BF002C014082
:102B00007047704770477047704770B50546036857
:102B1000DE681C6914F0020F10D016F0020F0DD001
:102B20006FF002021A610123037703689B6913F0B7
:102B3000030F5ED0FFF7E6FF00232B7714F0040F9E
:102B400012D016F0040F0FD02B686FF004021A6138
:102B500002232B772B689B6913F4407F4FD02846C4
:102B6000FFF7D0FF00232B7714F0080F12D016F0D8
:102B7000080F0FD02B686FF008021A6104232B771F
:102B80002B68DB6913F0030F40D02846FFF7BAFF2C
:102B900000232B7714F0100F12D016F0100F0FD067
:102BA0002B686FF010021A6108232B772B68DB6902
:102BB00013F4407F31D02846FFF7A4FF00232B7782
:102BC00014F0010F02D016F0010F2DD114F0800F78
:102BD00002D016F0800F2FD114F0400F02D016F063
:102BE000400F31D114F0200F02D016F0200F33D156
:102BF00070BDFFF786FF2846FFF785FF9CE7284654
:102C0000FFF77FFF2846FFF77EFFABE72846FFF779
:102C100078FF2846FFF777FFBAE72846FFF771FFEE
:102C20002846FFF770FFC9E72B686FF001021A61B1
:102C30002846FFF765FFC9E72B686FF080021A612D
:102C4000284600F038F9C7E72B686FF040021A6198
:102C50002846FFF759FFC5E72B686FF020021A617D
:102C6000284600F027F9C3E703681F4A90420AD0BC
:102C7000B0F1804F07D0A2F59432904203D002F514
:102C80008062904203D123F070034A681343164ACE
:102C900090420AD0B0F1804F07D0A2F59432904212
:102CA00003D002F58062904203D123F44073CA68D6
:102CB000134323F080034A69134303608B68C362A4
:102CC0000B688362084B98420AD001234361036971
:102CD00013F0010F03D0036923F001030361704770
:102CE0000B690363F1E700BF002C014038B310B556
:102CF000044690F83D30EBB1022384F83D30211DAD
:102D00002068FFF7B1FF012384F8463084F83E3095
:102D100084F83F3084F8403084F8413084F8423001
:102D200084F8433084F8443084F8453084F83D30EA
:102D3000002010BD80F83C3002F052F9DCE70120A1
:102D4000704710B4846824F47F4442EA03230B43A1
:102D50002343836010BC704790F83C30012B73D044
:102D600010B50446012380F83C30022380F83D3042
:102D70000268936823F47F4323F0770393600B6822
:102D8000402B56D011D9702B3BD01FD8502B45D09B
:102D9000602B19D1CA6849680068FFF761FE60219D
:102DA0002068FFF770FE002024E0102B04D009D922
:102DB000202B01D0302B07D119462068FFF763FE86
:102DC000002017E0002BF7D0012013E0B3F5805F5F
:102DD0000FD0B3F5005FF7D1CB684A688968006807
:102DE000FFF7AFFF2268936843F4804393600020AD
:102DF00000E00020012384F83D30002384F83C30BB
:102E000010BDCB684A6889680068FFF79AFF22689E
:102E1000936843F0770393600020EBE7CA68496842
:102E20000068FFF70BFE50212068FFF72CFE002002
:102E3000E0E7CA6849680068FFF700FE40212068A3
:102E4000FFF721FE0020D5E70220704790F83C30C4
:102E5000012B2BD030B4012380F83C30022380F8C2
:102E60003D3003685C689D6824F070040A68224362
:102E70005A6003680E4A93420AD0B3F1804F07D0DC
:102E8000A2F59432934203D002F58062934204D1BA
:102E900025F080054A6815439D60012380F83D3088
:102EA000002380F83C30184630BC70470220704741
:102EB000002C014070477047026802F10C0353E890
:102EC000003F23F0C0030C3242E800310029F3D167
:102ED000202380F841307047026802F10C0353E868
:102EE000003F23F490730C3242E800310029F3D103
:102EF000026802F1140353E8003F23F00103143287
:102F000042E800310029F3D1036B012B05D02023C7
:102F100080F84230002303637047026802F10C031B
:102F200053E8003F23F010030C3242E8003100293F
:102F3000F3D1ECE790F84130DBB2212B27D1836845
:102F4000B3F5805F16D0036A5A1C02621A780368D0
:102F50005A60C38C013B9BB2C384D3B90268D36867
:102F600023F08003D3600268D36843F04003D3604A
:102F7000002070470369002BE5D1036A1B880268B3
:102F8000C3F308035360036A02330362E1E70220DC
:102F9000704700207047000038B504460268136986
:102FA00023F44053C1680B431361836802691343E0
:102FB00042691A430168CB6823F4B05323F00C0331
:102FC0001343CB600268536923F4407381690B4358
:102FD00053610268124B9A421FD0FFF715FC00EBB9
:102FE000800000EB800063689B00B0FBF3F00D4DA8
:102FF000A5FB00325109642202FB11021301323396
:10300000A5FB03235B0903F0F00202EB011203F0BE
:103010000F03216813448B6038BDFFF705FCDEE722
:10302000003801401F85EB5160B310B5044690F89D
:10303000413013B3242384F841302268D36823F449
:103040000053D3602046FFF7A7FF2268136923F4DB
:10305000904313612268536923F02A035361226865
:10306000D36843F40053D36000206064202384F8C5
:10307000413084F84230606310BD80F8403001F088
:10308000CFFFD7E70120704738B590F84150EDB237
:10309000202D30D1002930D00AB901202CE0134670
:1030A00004460162A284E28400224264212084F862
:1030B0004100A06B124D8562A06B124DC562A06BE2
:1030C000114D0563A06B426322680432A06BFEF7CA
:1030D000F3FC23686FF040021A60226802F11403C7
:1030E00053E8003F43F08003143242E800310029E6
:1030F000F3D1002000E0022038BD0120FCE700BF32
:103100000F3100087731000885310008704708B595
:10311000416A03681B6813F0200F1AD10023CB8487
:103120000A6802F1140353E8003F23F080031432CD
:1031300042E800300028F3D10A6802F10C0353E89A
:10314000003F43F040030C3242E800300028F3D146
:1031500008BD0846FFF7DAFFFAE708B50168CB6853
:1031600023F04003CB60202380F84130FFF7CEFFEF
:10317000002008BD704708B5406AFFF7FBFF08BD97
:103180007047704710B5446A23685A6994F8413013
:10319000DBB2212B10D023685A6902F0400294F868
:1031A0004230DBB2222B11D0636C43F01003636416
:1031B0002046FFF7E6FF10BD02F08002002AEAD0A9
:1031C0000023E3842046FFF777FEE4E7002AEBD0F4
:1031D0000023E3852046FFF77FFEE5E708B5406A58
:1031E0000023C385C384FFF7CCFF08BD704790F868
:1031F0004230DBB2222B69D18368B3F5805F4ED0B9
:10320000826AB3F5805F04D0002B55D10369002B8F
:1032100052D103685B681370836A01338362C38D84
:10322000013B9BB2C385002B52D100B583B002682D
:10323000D36823F02003D3600268D36823F480733B
:10324000D3600268536923F001035361202380F89F
:10325000423000234363036B012B33D1002303630C
:10326000026802F10C0353E8003F23F010030C3214
:1032700042E800310029F3D103681A6812F0100FF8
:1032800006D0002201921A6801925B680193019BAB
:10329000818DFFF7ABFF002003B05DF804FB0269EE
:1032A000002AADD1826A03685B68C3F30803138008
:1032B000836A02338362B2E703685B6803F07F03CB
:1032C0001370A9E7FFF75CFF0020E5E702207047D5
:1032D0000020704730B583B0044602681368D06898
:1032E000516913F00F0505D113F0200F02D010F033
:1032F000200F5ED1002D72D011F0010102D110F427
:10330000907F6CD013F0010F06D010F4807F03D0B3
:10331000626C42F00102626413F0040F04D019B130
:10332000626C42F00202626413F0020F04D019B121
:10333000626C42F00402626413F0080F07D010F0D0
:10334000200F00D119B1626C42F008026264626C15
:10335000002A55D013F0200F02D010F0200F2CD1EE
:1033600023685B6903F04003626C12F0080F00D120
:103370007BB32046FFF7B0FD23685B6913F0400F75
:1033800023D0226802F1140353E8003F23F04003E6
:10339000143242E800310029F3D1E36B8BB16A4A61
:1033A0005A63E06BFEF7E6FB50B3E06B436B984764
:1033B00026E02046FFF71BFF22E02046FFF717FF1D
:1033C000CEE72046FFF7DDFE1AE02046FFF7D9FEE4
:1033D00016E02046FFF7D5FE0023636410E0216B62
:1033E00001290FD013F0800F03D010F0800F40F0B0
:1033F000A28013F0400F03D010F0400F40F09F80E8
:1034000003B030BD13F0100FECD010F0100FE9D066
:10341000002301931368019353680193019B53693F
:1034200013F0400F4ED0E26B13685B689BB2002B29
:10343000E6D0A18D9942E3D9E3859369202B37D05B
:10344000226802F10C0353E8003F23F480730C322E
:1034500042E800310029F3D1226802F1140353E855
:10346000003F23F00103143242E800310029F3D178
:10347000226802F1140353E8003F23F040031432A2
:1034800042E800310029F3D1202384F842300023A0
:103490002363226802F10C0353E8003F23F010037A
:1034A0000C3242E800310029F3D1E06BFEF73FFB1C
:1034B00002236363A18DE38DC91A89B22046FFF709
:1034C00095FE9DE7A18DE38DC91A89B2E38D9BB26C
:1034D000002B95D0002993D0226802F10C0353E809
:1034E000003F23F490730C3242E800300028F3D1FF
:1034F000226802F1140353E8003F23F00103143261
:1035000042E800300028F3D1202384F84230002321
:103510002363226802F10C0353E8003F23F01003F9
:103520000C3242E800300028F3D1022363632046C6
:10353000FFF75CFE64E72046FFF7FCFC60E72046EF
:10354000FFF70BFE5CE700BFDD31000890F841306B
:1035500090F8420018437047104B1B78EBB90021DC
:1035600012E041F2210080EA43039BB20132072AB4
:1035700005D813F4004FF4D15B009BB2F6E7084A7C
:1035800022F81130013189B2FF2903D80B029BB216
:103590000022ECE7014B01221A7070471402002050
:1035A000C81C002070B505460E4614460A4B1B7811
:1035B0006BB9FFF7D1FF0AE0337883EA1523074997
:1035C00031F9130080EA052085B201361446621EE7
:1035D000002CF1DC284670BD14020020C81C00201D
:1035E0000D4BDA6822F08072DA60DA6842F080729D
:1035F000DA600A4B1A6822F001021A601A6842F077
:1036000001021A6000225A6000BF00BF00BF586864
:10361000B0FA80F040097047F0ED00E0001000E0E3
:1036200008B50449FDF73EFB4FF06651FDF73AFB44
:1036300008BD00BF3333534010B502281BD0032808
:1036400025D001280BD0184C002280212046FEF7FF
:10365000D2FD012240212046FEF7CDFD10BD124CC7
:10366000012280212046FEF7C6FD0122402120468E
:10367000FEF7C1FDF2E70C4C002280212046FEF748
:10368000BAFD002240212046FEF7B5FDE6E7064CD4
:10369000012280212046FEF7AEFD00224021204677
:1036A000FEF7A9FDDAE700BF0008014008B572B6D1
:1036B000012220210248FEF79EFDFEF789F9FEE770
:1036C0000008014008B50648FDF7D8FE4FF48072A7
:1036D00004490548FEF77CF80448FFF7DDF908BD0A
:1036E0007C170020D03200204C1700203418002016
:1036F00000B587B000230593019302930C4B03930D
:1037000004230493FEF76CFB78B905A901A8FEF722
:1037100031FC28B9FEF77EFB002007B05DF804FB02
:10372000FEF778FB6FF00100F7E74FF0FF30F4E7AA
:1037300000F00008F8B50027124C04F58E76124B05
:103740009E421DD8114D4FF48E722146284602F03C
:10375000C6FC2A680E4B9A4201D00434EDE7294694
:10376000B5F81A510020A1F81A014FF48E72FFF734
:1037700019FF854201D00434DFE727463446DCE7F1
:103780003846F8BD00F0000800000108B41A002017
:103790006219961908B5FFF7CDFF38B101464FF40D
:1037A0008E72044802F09BFC002008BD4FF0FF30F1
:1037B000FBE700BF1019002070B586B00020029012
:1037C0000390494B0493042305930190474C484BC5
:1037D0002360A4F81A014FF48E722146FFF7E2FE2F
:1037E000A4F81A01FEF7FCFA002879D1FFF7A2FF2E
:1037F0000446E0B14FF48E723C4902F061FC05468C
:1038000068B104F58E7604F50E743A4B9C420FD9DC
:1038100001A902A8FEF7AEFB20B9334E08E0FEF77F
:10382000F9FA42E0FEF7F6FA6FF001053DE02E4EA0
:1038300033460022B2F58E7F14D2981C1B889BB2AF
:103840004FF6FF718B421DD006F58E72134606F5BA
:103850000E7628498E421DD901A902A8FEF78AFBDF
:1038600098B9214E0024214BB4F58E7F20D29D1CA7
:103870001A88002331190120FEF70CFB68B90234C5
:103880002B46F1E702320346D4E7FEF7C3FA6FF0A6
:1038900002050AE016460022CCE701A902A8FEF7BD
:1038A00069FBFEF7B7FA6FF00305284606B070BD56
:1038B0004FF48E720D49304602F002FC054630B9D5
:1038C000FEF7A8FA0C4B4FF0FF321A60EDE701A9A2
:1038D00002A8FEF74FFBFEF79DFA6FF00405E4E740
:1038E0004FF0FF35E1E700BF00F00008101900209D
:1038F00062199619000001081C0000202DE9F0470C
:10390000894690460D460026344612E0071DD0F841
:1039100000A02146D8F80400FDF7C4F9014650463E
:10392000FDF7B8F83146FDF7B3F8013D26460446E9
:103930003846002DEAD12146D8F80C00FDF7B2F93F
:103940003146FDF7A5F8064604F10040D8F8081006
:10395000FDF7A8F905464846FDF74CF901464FF03A
:103960008040FDF753FA044601463046FDF79AF9C8
:10397000C8F8100021462846FDF794F9C8F814004D
:10398000BDE8F0872DE9F04F85B0054602919346DA
:103990009A46DDF838901846FDF72CF901464FF0AD
:1039A0008040FDF733FA039000273AE00136009B90
:1039B00001930090564512D255F824800099D9F809
:1039C0000400FDF76FF901464046FDF763F80199E1
:1039D000FDF75EF80134A345E8D80024E6E7009C33
:1039E0002146D9F80C00FDF75DF90199FDF750F873
:1039F000064604F10040D9F80810FDF753F9804657
:103A0000029B03EBC7043146039E3046FDF74AF99B
:103A1000029B43F8370041463046FDF743F96060AA
:103A200001375F4505D23C460026002301930093F1
:103A3000C0E705B0BDE8F08FF8B504460E460C4966
:103A40003046FDF72FF9074605F016F905463846CA
:103A500005F092F90746266029462846FDF71AF830
:103A60006060E560A760002323616361F8BD00BF6B
:103A7000DB0FC94038B50546046800212046FDF734
:103A8000A5FA002868D136492046FDF7A9FA002892
:103A900031D134492046FDF7A3FA002832D132490A
:103AA0002046FDF79DFA002833D130492046FDF726
:103AB00097FA002834D14FF07E512046FDF790FA56
:103AC000002834D12A492046FDF78AFA002845D13A
:103AD00028492046FDF784FA00282FD126492046A0
:103AE000FDF77EFA002830D11E492046FDF7DAF8AE
:103AF0002860472031E021492046FDF7D3F82860AF
:103B000066202AE01E492046FDF7CCF82860702088
:103B100023E019492046FDF7C5F8286070201CE015
:103B200014492046FDF7BEF82860752015E01049BD
:103B30002046FDF7B7F828606D200EE00B492046BF
:103B4000FDF7B0F828606B2007E007492046FDF735
:103B5000A9F828604D2000E0202038BD2020FCE797
:103B6000CCBC8C2B5F708930BD3786356F12833AA1
:103B700000007A4400247449286B6E4EA95F635894
:103B8000A5D4685338B5642816D0B0F5967F1AD0FE
:103B9000294B4FF47A721A80284B4FF07E521A60EC
:103BA0002749264B1868FDF77DF84FF07C51FDF74B
:103BB00079F80546002428E01F4B64221A801F4B29
:103BC000204A1A60ECE71C4B4FF496721A801B4B8C
:103BD0001D4A1A60E4E72046FDF70CF81B49FDF783
:103BE00061F805F0C9F84FF07E51FCF753FF294604
:103BF000FDF758F84FF07C51FCF74CFF05F078F8D2
:103C0000FDF716FA124B185501343F2CE3D90A4B35
:103C10001C8804B938BDA401FEF7F0FD0D4A5368B5
:103C20000133B0FBF3F303EB5403B3FBF4F3013BB9
:103C30001168CB62D360EDE7100000201400002073
:103C400000007F43B81E053FE17A143FDB0FC93DFA
:103C50002C1A0020341800202DE9F0410D4621498E
:103C6000FDF720F8044605F007F80646204605F063
:103C700083F804461B492846FDF714F8074604F06C
:103C8000FBFF0546384605F077F8074629463046DB
:103C9000FDF708F8804639462046FDF703F801464F
:103CA0004046FCF7F7FE804639463046FCF7FAFFFF
:103CB000064629462046FCF7F5FF01463046FCF74C
:103CC000E7FE044600214046FDF780F910B10648A2
:103CD000BDE8F0814146204605F08CF80349FCF729
:103CE000E1FFF5E735FA8E3C0000C07FE12E65422A
:103CF0002DE9F04784B0714B1B68042B03D94FF0BA
:103D00007C5700267CE06E4FFBE76E4B03EB4629A9
:103D10006D4C224680214846FFF7F0FD24690021C2
:103D20002046FDF753F9002800F087806748684B6C
:103D300043F82600644B009380231A4665494846A1
:103D4000FFF720FE00244FF00008A3E055F82410F0
:103D5000FCF7A0FE01347F2CF8D94FF07051FCF72E
:103D6000A1FF814639464FF07E50FCF791FE5A4C38
:103D700054F83610FCF796FF804649463846FCF763
:103D800091FF01464046FCF785FE804644F8360028
:103D9000002407E0414655F82400FCF779FE45F879
:103DA000240001347F2CF5D900244FF000080AE0EC
:103DB00055F824100846FCF775FF01464046FCF70D
:103DC00069FE804601347F2CF2D94FF07051404695
:103DD000FCF768FF05F06EF8404B43F826003A4CBC
:103DE000224680212846FFF789FD246900212046CC
:103DF000FDF7ECF890B13548354B43F82600013615
:103E0000072E54D87308364AD35C002B3FF47DAF9D
:103E10002C4D05EB4625002400209CE721462A4B2B
:103E2000586904F0E7FF2F49FCF73CFF2E49FCF7E7
:103E300031FE2E4904F0E0FFDEE72146224B5869AF
:103E400004F0D8FF2749FCF72DFF2749FCF722FE95
:103E5000264904F0D1FF6AE71E4B03EBC40393E845
:103E6000030004AB03E90300029D29462846FCF742
:103E700019FF824603990846FCF714FF0146504695
:103E8000FCF708FE01464046FCF704FE804649F870
:103E9000245001347F2CDFD94FF070514046FCF79D
:103EA00001FF05F007F80D4B43F82600A7E7034A8A
:103EB00013680133136004B0BDE8F0876816002072
:103EC0006666663F24060020341700200000C07F8D
:103ED000E8180020C81E002028160020C418002062
:103EE00024160020E12E6542000087430000B44301
:103EF0002DE9F04F83B0FFF7FBFE794B9888FCF774
:103F00007DFE01247749FDF775F800B90024A0462D
:103F1000754B1C60724BD888FCF770FE0124714908
:103F2000FDF768F800B90024A346704B1C604FEA07
:103F300088066F4D55F82600FFF772FB8246771C06
:103F400055F82700FFF76CFB8146A400A31C55F829
:103F50002300FFF765FB6749FCF7A4FE00900334DC
:103F600055F82400FFF75CFB6249FCF79BFE0190CB
:103F7000614B19684FF07E50FCF748FF0446B8F1DA
:103F8000000F00F0A9800546BBF1000F01D14FF0F2
:103F90007E5429465046FCF785FE8246DFF86C8148
:103FA000C8F8040029464846FCF77CFEC8F808001B
:103FB00021460098FCF776FE0546C8F80C0021461D
:103FC0000198FCF76FFEC8F8100029465046FCF730
:103FD0001DFFC8F81400494C54F8271054F8260067
:103FE000FFF73AFEC8F81800404B1B689B009A1C6C
:103FF000033354F8231054F82200FFF72DFE014636
:10400000C8F81C00D8F81800FFF726FE0446C8F8C8
:1040100020003B4B1888FCF7F1FD3A49FCF742FEC3
:10402000054639492046FCF73DFE064604F024FECD
:104030000446304604F0A0FE0746D8F8146024F089
:1040400000413046FCF72EFE044627F00041304682
:10405000FCF728FE82462946FCF7D8FE81465146E9
:104060002846FCF71FFE01464FF07E50FCF7CEFEBF
:104070000746CDF800A051462046FCF7C7FE834610
:1040800049462846FCF70EFE2146FCF7BFFE824655
:1040900039462846FCF706FE2146FCF703FE01469A
:1040A0004FF07E50FCF7B2FE054621460098FCF723
:1040B000ADFEC8F82890C8F82470C8F82C60C8F87D
:1040C0003040C8F834B0C8F838A0C8F83C50C8F838
:1040D000400003B0BDE8F08F4FF07E5554E700BFBD
:1040E000180200200080BB44D41B00206C16002066
:1040F000C41800206F12833A0C000020E81800203A
:1041000010000020DB0FC94035FA8E3C701A0020E9
:104110002DE9F0475D4B1D68032D60D804465C4BCC
:1041200053F825604FEA460815B95A4B1B686BB126
:10413000584B1F68092F42D916F0010F15D04FF0C8
:10414000FF3E554B33F816C0002233E03046FFF7F0
:1041500073FA514A002313605360504A13600122DE
:1041600020214F48FEF747F8E2E74FF0010EE8E75D
:1041700004EB820134F92230A3F5006303FB0EF354
:104180001BB2B1F80290A9F500690FFA89F9454907
:1041900051F83200184441F8320001EBC20148687E
:1041A00048444860002BB8BF5B429BB29C4538BF77
:1041B0009C4601327F2ADBD9374B23F816C0B31E49
:1041C000012B0ED90023DBB2344A9355B3B9364BD9
:1041D0001B6801372F4A17600A339F4210D2BDE88F
:1041E000F0872D4B33F81600FCF708FD2F49FCF73C
:1041F0000BFF08B90023E6E70123E4E70123E8E722
:104200000135234B53F82500FFF716FA214B1868A8
:104210000A38FCF7EFFC01464FF07E50FCF7F6FD44
:104220008146234B03EB482A08F1010803EB482899
:10423000002414E01B4F57F83400FCF7DFFC49461C
:10424000FCF730FD4AF8240007EBC4077868FCF758
:10425000D5FC4946FCF726FD48F8240001347F2CA4
:10426000E8D94FF4806200210E4801F043FF094B6A
:1042700000221A600F4B1E60044B1D60032DAED947
:1042800020210748FDF7B7FFA9E700BFD01B00209A
:1042900094B70008200600201802002024160020F1
:1042A0000008014020020020080000200080BB44DC
:1042B0002406002018000020F0B583B00D461646F5
:1042C0001F4621F00044022830D003284AD06D490F
:1042D0002046FCF785FE002840F097804FF07E5185
:1042E0002046FCF77DFE002840F09D806649204670
:1042F000FCF776FE002840F0A48064492046FCF7D5
:104300006FFE002840F0A88061492046FCF768FE57
:10431000002840F0AC802846FCF786F8CDE9000183
:104320005C4A3946304602F00BFC0EE05649204606
:10433000FCF756FE58B12846FCF776F8CDE90001A7
:10434000554A3946304602F0FBFB03B0F0BD284623
:10435000FCF76AF8CDE90001504A3946304602F0D0
:10436000EFFBF2E747492046FCF73AFED8B94FF099
:104370007E512046FCF734FE18BB43492046FCF72B
:104380002FFE60BB41492046FCF72AFE002831D0B1
:104390002846FCF749F8CDE90001414A3946304644
:1043A00002F0CEFBD1E73F492846FCF77BFCFCF747
:1043B0003BF8CDE900013C4A3946304602F0C0FBEB
:1043C000C3E733492846FCF76DFCFCF72DF8CDE92F
:1043D0000001364A3946304602F0B2FBB5E72846BE
:1043E000FCF722F8CDE90001314A3946304602F0A7
:1043F000A7FBAAE72846FCF717F8CDE900012D4AEC
:104400003946304602F09CFB9FE726492846FCF7D8
:1044100049FCFCF709F8CDE90001274A3946304646
:1044200002F08EFB91E71A492846FCF73BFCFBF7AC
:10443000FBFFCDE90001214A3946304602F080FBFE
:1044400083E72846FBF7F0FFCDE900011C4A394617
:10445000304602F075FB78E72846FBF7E5FFCDE92B
:104460000001184A3946304602F06AFB6DE72846DB
:10447000FBF7DAFFCDE90001134A3946304602F076
:104480005FFB62E76F12833A000020410000C842E0
:1044900000007A448CB700082CB7000834B7000835
:1044A00054B70008002474493CB7000844B700081A
:1044B0004CB700085CB7000864B700086CB7000888
:1044C00074B700087CB7000884B700082DE9F84FDE
:1044D0008146884693461F46DDF828A000260CE05A
:1044E000E20B06EB080105EB090001F0BDFB6400DF
:1044F000A4B20135BD42F3D30136564507D23BF88D
:104500001640C7F110039C40A4B20025F2E7BDE8B5
:10451000F88F08B501F092FC01F00CFB012001F0CE
:10452000D5FA01F0E1FA4FF49670FCF777FE00201F
:1045300001F0CCFA01F0D8FA08BD000030B583B024
:104540000021084601F016FC204C012394E80600E7
:104550001F4801F0F7FB00215A2001F00BFC1D4D14
:1045600000221D4B1D49284602F01EFB012394E842
:104570000600284601F0E6FB0E21102001F0FAFBB0
:10458000174A012306CA174801F0DCFB01250095F4
:104590001F23032276210A2001F016FC2621052084
:1045A00001F0E8FB2B4694E806000F4801F0CAFB37
:1045B0003421052001F0DEFB2B4694E806000B4871
:1045C00001F0C0FB01F090FA03B030BD40B6000826
:1045D00048B60008701600200000D03F50B6000812
:1045E00038B6000858B6000864B6000874B600086B
:1045F000F0B585B0002001F069FABE4B1B68012BB5
:1046000000F01E82022B00F069820021084601F0B2
:10461000B1FBB94BDB7913F0020F00F01C81B748F6
:10462000B74A012306CA01F08DFB0021232001F0C7
:10463000A1FBB44B1B88B3F57A7F80F00E81B24AA0
:104640001A21B24802F07CFAAD4CB04D012394E837
:104650000600284601F076FB00215C2001F08AFB71
:104660001A232A46AA49096A0420FFF725FE0123D6
:1046700094E80600284601F065FB012300930C2313
:1046800003228021002001F09FFB002303939A4B1B
:104690009B79012B00F0F280002B00F0E880022BC8
:1046A00000F0F3801221002001F064FB994C974D3B
:1046B000012394E80600284601F044FB00210A206B
:1046C00001F066FB03A8FFF7D5F906461A232A4630
:1046D00003990420FFF7F0FD012394E80600284623
:1046E00001F030FB844B9B79012B00F0EC80002B18
:1046F00000F0D280022B00F01781854B5C6800210E
:104700002046FCF781FC002800F0328104A840F824
:10471000044DFFF7AFF905462821002001F02AFBE0
:104720007A4C1A23224603990420FFF7C5FD204640
:10473000FBF70EFD0346202D01D0255401335A1CF2
:1047400072485621C154002383546D4A012306CA7E
:1047500001F0F8FA6E4B1C6900212046FCF754FC6E
:10476000002800F0078104A840F8044DFFF782F903
:10477000054628213E2001F0FDFA644C1A2322460A
:1047800003990420FFF798FD2046FBF7E1FC034660
:10479000202D01D0255401335A1C5C484121C154BD
:1047A00000238354564A012306CA01F0CBFA524B28
:1047B0009B79012B40F2E080022B40F06881544B42
:1047C0009B6A04A840F8043DFFF754F905463521DB
:1047D000002001F0CFFA4D4C1A2322460399042001
:1047E000FFF76AFD2046FBF7B3FC202D01D02554CE
:1047F0000130431C454C482222540026E654404DCB
:10480000012395E80600204601F09CFA404B1B6C02
:1048100004A840F8043DFFF72DF9074635213E2056
:1048200001F0A8FA012395E806003B4801F08AFA56
:104830001A23224603990320FFF73EFD2046FBF78B
:1048400087FC431C2754E654012395E806002046C4
:1048500001F078FA1BE13148E2E6314AA2FB03237A
:104860009B09304A1A21294802F06AF9ECE6284BE4
:104870009B6A0393254B4C221A8013E7244B5B6AF7
:104880000393224B43221A800CE7214BDB6A0393EC
:104890001E4B52221A8005E70021062001F078FA0B
:1048A000202E0ED0194B1E7001235A1C1748482188
:1048B000C15400238354174A012306CA01F042FA67
:1048C0001BE70023F1E70021062001F061FA202E0A
:1048D0000ED00E4B1E7001235A1C0C484621C154A9
:1048E000002383540B4A012306CA01F02BFA04E784
:1048F0000023F1E7E41800201019002088B6000812
:1049000040B600081000002098B60008701600207D
:10491000701A002038B60008ACB600088CB6000843
:10492000D34D6210A0B60008202E1CD00021062016
:1049300001F02EFA8348067000234370824A012357
:1049400006CA01F0FFF90DF10A0102A801F018FAF8
:10495000BDF80800122300930B237C4A0F2102307C
:10496000FFF7B4FDC9E60021042001F011FAEAE7DF
:104970000024CBE60024F6E6754B1B6B04A840F838
:10498000043DFFF777F806463521002001F0F2F9E3
:10499000704D012395E806006F4801F0D3F93521E9
:1049A000142001F0E7F9674C1A23224603990320EB
:1049B000FFF782FC2046FBF7CBFB431C265400226A
:1049C000E254012395E80600204601F0BBF90023DC
:1049D0000393624B9B79012B2AD02BB3022B2BD054
:1049E00003A8FFF747F8064635213E2001F0C2F93B
:1049F000584D012395E80600594801F0A3F9514CA0
:104A00001A23224603990320FFF756FC2046FBF7A2
:104A10009FFB431C26540022E254012395E8060024
:104A2000204601F08FF932E0494B9B6B0393D7E7A7
:104A3000474BDB6B0393D3E7454B1B6C0393CFE7EB
:104A4000484C63683F4DC3F10903474A1A21284681
:104A500002F076F81221002001F08CF93D4A012382
:104A600006CA284601F06EF92388B3F57A7F2BD267
:104A70003E4A1A21284602F063F82021002001F066
:104A800079F9344A012306CA2E4801F05BF9352131
:104A9000782001F06FF9314BDB7913F0010F4FD122
:104AA000334A284C1A21204602F04AF8294A0123A9
:104AB00006CA204601F046F901F016F82D4A13689F
:104AC0000133136005B0F0BD2B4AA2FB03239B0901
:104AD0002A4A1A211B4802F033F8CEE7214C6368BA
:104AE000184DC3F10903264A1A21284602F028F876
:104AF0001221002001F03EF9164A012306CA284679
:104B000001F020F92388B3F57A7F0FD2174A1A21D2
:104B1000284602F015F82021002001F02BF90D4A5B
:104B2000012306CA074801F00DF9B0E7124AA2FBBB
:104B300003239B09114A1A21024802F001F8EAE70F
:104B4000104AAEE77016002038B6000808B7000813
:104B5000701A002040B60008A8B6000810190020FE
:104B6000ACB60008C8160020B0B60008C0B60008F1
:104B700094B6000830170020D34D6210C8B6000864
:104B8000D0B6000890B6000870B50D461446FCF784
:104B90003FFB064600E030BFA2B229460548FEF7BB
:104BA00073FA022804D1FCF733FB801B6328F2D987
:104BB000204670BD7C18002008B572B60122202165
:104BC0000148FDF718FBFEE700080140FEE7000082
:104BD00008B572B6012220211348FDF70CFB134CD7
:104BE000134B5D68FDF70AFEA4FB0034180D40EA84
:104BF00004340F4B5B685B1BA342FAD300222021D5
:104C00000948FDF7F8FA094C094B5D68FDF7F6FD18
:104C1000A4FB0034180D40EA0434054B5B685B1BB1
:104C2000A342FAD3D6E700BF00080140701101008B
:104C3000001000E008B572B6012220211348FDF7EC
:104C4000DAFA134C134B5D68FDF7D8FDA4FB003472
:104C5000180D40EA04340F4B5B685B1BA342FAD388
:104C6000002220210948FDF7C6FA094C094B5D686E
:104C7000FDF7C4FDA4FB0034180D40EA0434054BD5
:104C80005B685B1BA342FAD3D6E700BF0008014074
:104C9000A0860100001000E008B572B601222021B4
:104CA0001348FDF7A8FA134C134B5D68FDF7A6FDFA
:104CB000A4FB0034180D40EA04340F4B5B685B1B07
:104CC000A342FAD3002220210948FDF794FA094CA7
:104CD000094B5D68FDF792FDA4FB0034180D40EA16
:104CE0000434054B5B685B1BA342FAD3D6E700BFD5
:104CF00000080140A0860100001000E008B572B66F
:104D0000012220211348FDF776FA134C134B5D68FE
:104D1000FDF774FDA4FB0034180D40EA04340F4B7A
:104D20005B685B1BA342FAD3002220210948FDF7F0
:104D300062FA094C094B5D68FDF760FDA4FB003485
:104D4000180D40EA0434054B5B685B1BA342FAD3A1
:104D5000D6E700BF00080140A0860100001000E077
:104D6000704770477047000070B5FCF745FAFCF7D4
:104D70004FFA0646002410E06B1E1BB222E000230F
:104D800025E00AB1002B36DD32B1B21A04EB840300
:104D90009900234B0B441A610134022C37D804EBE1
:104DA000840293001E4AD0580028F5D019461C4BA7
:104DB0000B44B3F906509988FDF716FA0028DBD1A9
:104DC0006B1C1BB2002BDADB1E2BA8BF1E23A1001D
:104DD000214488000146124A0244D3809268002A86
:104DE000CFD11D2BCDDD0D460D4929440020087380
:104DF00008618E60C5E7B01AA10021448D00084B00
:104E00002B4418610121197300219960BCE7054BFF
:104E10001B68002B03DD034A1368013B136070BD60
:104E20008C1600201C00002008B50248FCF7EEFE9E
:104E300008BD00BFAC17002008B50248FCF7E6FE2D
:104E400008BD00BFF017002008B50A48FDF75DFE59
:104E5000094B1B68094AD25C0948C16821F0FF016F
:104E60000A43C26001333F2B00D90023024A13607A
:104E700008BD00BF341800206C1A00202C1A002036
:104E8000000C014008B50248FEF724FA08BD00BF37
:104E90007C18002008B50268034B9A4200D008BD78
:104EA0000248FFF735F9FAE700240140D03200202C
:104EB00008B50268034B9A4200D008BD0248FFF7CC
:104EC00027F9FAE700240140D034002082B00E4BCD
:104ED0009A6942F001029A619A6902F00102009215
:104EE000009ADA6942F08052DA61DB6903F080539C
:104EF0000193019B054A536823F0E06343F000737C
:104F0000536002B0704700BF001002400000014033
:104F100070B588B000230493059306930793036844
:104F2000294A934204D0294A934242D008B070BD26
:104F30000446274B9A6942F400729A619A6902F416
:104F400000720192019A9A6942F004029A619B6987
:104F500003F004030293029B0323059308AD01238E
:104F600045F8103D1B4E29463046FDF751F8022307
:104F7000049329463046FDF74BF81748174B03605A
:104F80000023436083608023C3604FF40073036198
:104F90004FF400634361202383614FF40053C361E6
:104FA000FCF754FD18B90C4B23625C62BEE7FFF7B7
:104FB00003FE074B9A6942F480629A619B6903F48D
:104FC00080630393039BB1E7002401400028014064
:104FD0000010024000080140AC1700200800024009
:104FE00002680E4B9A4200D0704700B583B003F5BB
:104FF0000333DA6942F00202DA61DB6903F002038B
:105000000193019B002211461D20FCF79FFC1D20EF
:10501000FCF7D0FC03B05DF804FB00BF00040040C7
:10502000F0B587B0002302930393049305930268BD
:10503000274B9A4201D007B0F0BD044603F5584310
:105040009A6942F480429A619A6902F4804200921D
:10505000009A9A6942F004029A619B6903F0040382
:105060000193019B02230393059306AE4FF4007353
:1050700046F8103D174F31463846FCF7C9FF00256A
:105080000395012304934FF480630293314638461D
:10509000FCF7BEFF1048114B03601023436085608E
:1050A0008023C360056145618561C561FCF7CEFC65
:1050B00058B9094BA3635C6200220A212520FCF742
:1050C00045FC2520FCF776FCB5E7FFF775FD00BF32
:1050D0000038014000080140F01700204400024061
:1050E00000B595B000230C930D930F931093059387
:1050F00006930793089309930193029303930493F0
:1051000001220A924FF480330B930E9202221192E5
:1051100012934FF4E01313930AA8FDF789F8C8B966
:105120000F23059302210691002307934FF4806219
:105130000892099305A8FDF7ADFA68B90223019317
:105140004FF40043039301A8FDF77EFB30B915B07F
:105150005DF804FBFFF730FDFFF72EFDFFF72CFD98
:1051600008B50A480A4B03604FF4612343600023EB
:105170008360C36003610C2242618361C361FDF7F8
:1051800053FF00B908BDFFF717FD00BF7C180020D2
:105190000038014070B584B000230193029303935B
:1051A0002C482D4A02608360037303754FF400227C
:1051B000C261436001230361FCF702FA00283BD17E
:1051C00004A94FF4C02341F8103D2248FCF780FBAE
:1051D000002833D106230393002301930123029374
:1051E00001A91C48FCF76AF850BB1C4E34461C4B06
:1051F00044F8043B1B4D0FCD0FC495E8070084E82D
:105200000700012333734FF46023F3613046FCF74A
:10521000D7F9B8B901230193029301A90F48FCF70C
:105220004DF888B90B48FCF753FA78B90B48FCF7EE
:105230004FFA68B904B070BDFFF7BEFCFFF7BCFCC5
:10524000FFF7BAFCFFF7B8FCFFF7B6FCFFF7B4FCBA
:10525000FFF7B2FC4C170020002401407C1700200F
:10526000002801405017002000B583B00E4B5A694A
:1052700042F001025A615B6903F001030193019B53
:10528000002201210B20FCF761FB0B20FCF792FBB5
:1052900000220A210E20FCF759FB0E20FCF78AFBA6
:1052A00003B05DF804FB00BF0010024010B586B0EB
:1052B00000230293039304930593009301931A4CE4
:1052C0001A4A2260A36023618022A2616360FDF715
:1052D00095FA63680133B0FBF3F303F5FA4314481E
:1052E000A0FB03231B0B013BE3602046FDF7FEFC04
:1052F00098B906A94FF4805341F8103D0A48FDF7CC
:105300002BFD60B9202300930023019369460648D2
:10531000FDF79CFD28B906B010BDFFF74DFCFFF767
:105320004BFCFFF749FC00BF34180020000400408C
:10533000D34D62102DE9F04F87B0002502950395FB
:1053400004950595554B9A6942F004029A619A6951
:1053500002F004020092009A9A6942F008029A61EF
:105360009B6903F008030193019B012220214C4813
:10537000FCF741FF2A4680214948FCF73CFF012207
:1053800040214748FCF737FF2A4604214448FCF7F0
:1053900032FF2A464FF480714148FCF72CFF414C04
:1053A000E36823F0FF03E3600127039704954FF0C0
:1053B000020BCDF814B04FF02009CDF8089002A9E7
:1053C0003748FCF725FE4FF04008CDF8088002A9C9
:1053D0003348FCF71DFE8026029602A93048FCF7F0
:1053E00017FE4FF0040ACDF808A002A92C48FCF7DC
:1053F0000FFE4FF48073029302A92948FCF708FEC0
:10540000039504974FF40053029302A92046FCF73A
:10541000FFFD4FF48043029302A92046FCF7F8FDFC
:105420004FF40043029302A92046FCF7F1FD0397D5
:10543000049503230593029702A92046FCF7E8FD93
:10544000CDF808B002A92046FCF7E2FDCDF808A08F
:1054500002A92046FCF7DCFD082302930DEB0301B3
:105460002046FCF7D5FD1023029302A92046FCF745
:10547000CFFDCDF8089002A92046FCF7C9FDCDF874
:10548000088002A92046FCF7C3FD029602A9204627
:10549000FCF7BEFD07B0BDE8F08F00BF0010024072
:1054A00000080140000C014010B5444B9B689BB1C3
:1054B000424BDB6983B1414B1B6B6BB93F4B1B69A3
:1054C000B3F5487F75D33D4B5B6AB3F5487F70D326
:1054D000FEF70EF9FEF7EAF8384B1B7B73B1374B3A
:1054E00000221A739A601B69B3F5487F20D2344AB0
:1054F000D37983F00103D371FFF77AF82F4B93F838
:105500002030002B3AD02D4B002283F82020DA6186
:105510005B6AB3F5487F17D2294B9B88642B1FD059
:10552000B3F57A7F46D0264B4FF47A729A801BE00F
:10553000244C66220021A01C00F0DCFD64232380A3
:10554000214B01221A60D7E71E4C66220021A01CC5
:1055500000F0D0FD642323801B4B02221A600BE075
:10556000174B4FF496729A80154B9888FEF70AFBFA
:10557000164B41F288321A60FFF73AF80F4B93F856
:105580003430B3B10D4B002283F834201A639B6B87
:10559000B3F5487F0BD20A4B9B790133022B00D91C
:1055A0001346074A9371094B41F288321A60FFF79C
:1055B0001FF810BD024B64229A80D5E78C1600209C
:1055C00010190020C8160020E41800201C0000203C
:1055D000154BDB7913F0010F00D1704770B51348FC
:1055E000FDF7B4FF202800D070BD114C6FF06903A7
:1055F0002370192363706222A270E370A51D4FF41B
:10560000805632460B49284600F069FD324629464D
:105610000020FDF7C7FFA08041F2060221460348A3
:10562000FDF732FDE0E700BF101900207C180020D4
:10563000C8220020240600202DE9F0419C4B1B6865
:10564000012B14D0022B00F0AA80BDE8F081994D07
:10565000A61C994B53F8241055F82600FBF71AFAAC
:1056600045F826000134072CF1D900251EE000245E
:10567000F9E79249924B53F82500FBF713FB0746D5
:1056800003F0FAFA8B4C6E1D014654F83600FBF716
:1056900001FA44F83600384603F06EFB04EBC6040A
:1056A00001466068FBF7F6F960600135072DE0D927
:1056B000844B41F288321A607E4B5F6801375F602D
:1056C000092FC2DD1D88B5F1640418BF012400262E
:1056D00012E0B21C774B53F822803846FBF78EFA63
:1056E00001464046FBF792FB230123443344023337
:1056F000754A42F823000136072EEAD9002612E047
:10570000731D6C4A02EBC3033946586803F072FB01
:105710006E49FBF7C7FA2301234433440A336A4A2C
:1057200042F823000136072E0BD8731D614A52F848
:10573000337000213846FBF749FC0028E0D064486C
:10574000E9E723011C44A2005F4B1344012283F8C4
:105750004820642D09D05C4B9888FEF713FA544B0F
:1057600000221A60FEF744FF6FE7524C66220021C8
:10577000A01C00F0BFFC4FF47A732380F2E74D4D7C
:10578000A61C4D4B53F8241055F82600FBF782F960
:1057900045F826000134072CF1D900251EE000242D
:1057A000F9E74649464B53F82500FBF77BFA0746D5
:1057B00003F062FA3F4C6E1D014654F83600FBF7C9
:1057C00069F944F83600384603F0D6FA04EBC6040B
:1057D00001466068FBF75EF960600135072DE0D98E
:1057E000384B41F288321A60324B5F6801375F6094
:1057F000092F7FF72AAF1D88B5F1640418BF012473
:10580000002612E0B21C2B4B53F822803846FBF7DF
:10581000F5F901464046FBF7F9FA230123443344E6
:105820002433294A42F823000136072EEAD90026FC
:1058300012E0731D1F4A02EBC3033946586803F098
:10584000D9FA2249FBF72EFA2301234433442C339F
:105850001D4A42F823000136072E0BD8731D154A46
:1058600052F8337000213846FBF7B0FB0028E0D037
:105870001748E9E723011C44A200134B13440122FB
:1058800083F8D020642D09D00F4B9888FEF77AF961
:10589000074B00221A60FEF7ABFED6E6054C6622E7
:1058A0000021A01C00F026FC4FF47A732380F2E75D
:1058B000E4180020C8160020C418002035FA8E3CD9
:1058C000E81800201C00002010190020E12E65427D
:1058D0000000C07F10B5674A516AC1F3C061664BD2
:1058E0001970516AC1F380615970516AC1F3007136
:1058F0009970516AC1F34071D970516AC1F38071D6
:105900001971516AC90F5971526AC2F340029A71F2
:105910005A4B01221A605A4C23680021586801F042
:1059200059F823680021986801F054F82368002191
:10593000D86801F04FF8534B534A1A604FF40051A6
:1059400099805A614FF4804119839A624FF4004262
:105950009A854E4C4FF47A73A3800223A371E379A6
:1059600043F00103E371FDF73BFEFBF733FCFFF768
:10597000B7FBFFF7DFFCFFF777FCFFF7F1FBFFF763
:1059800095FCFFF707FC4FF072514148FEF754F8C1
:10599000FDF700FF3F4B1A683F4B53F822003F4B87
:1059A0001860FDF749FEA088FEF7ECF8FEF7B1FDA0
:1059B000FEF7C4FD00223A4B3A4800F0F3FFFBF734
:1059C00027FC044611E00133022B0AD803EB8302C3
:1059D00091002C4A0A44B2F90620002AF3DD04465D
:1059E000F1E7001BB0F5FA7F04D230BFFBF710FCE3
:1059F0000023E9E70022022A0BD893001344990000
:105A0000204B0B440021D980996019731961013230
:105A1000F1E7FDF757FE4FF47A70FBF7FFFB02E06A
:105A2000214B1B68D3B1BFF34F8F30BFFFF73CFD55
:105A3000184B1968184A52F82110184A11601B684F
:105A4000032BEDD9FEF754FAFEF7D2FDFFF7C0FDA8
:105A5000FFF7F2FD0F4B00221A60E1E7FDF7ACFE05
:105A6000002804DB104B4FF0FF321A60DBE7FDF734
:105A7000A3FEF7E70010024008190020E0044242AC
:105A8000240000208C160020000C0140101900207A
:105A900034170020D01B002094B70008701A002093
:105AA0000000D03FE4B600081C00002010B582B012
:105AB00000248DF804408DF80500022201A9782009
:105AC00000F06BFA204602B010BD000008B530B1FE
:105AD000FF214FF48062034800F00CFB08BD002159
