:020000040800F2
:100000000050002061580008314200083B420008BF
:10001000434200084B420008534200080000000021
:100020000000000000000000000000005B4200082B
:100030005D420008000000005F42000861420008C5
:10004000A9580008A9580008A9580008A95800088C
:10005000A9580008A9580008A9580008A95800087C
:10006000A9580008A9580008A95800089143000899
:10007000A9580008A9580008E1430008A958000839
:10008000A9580008A9580008A9580008A95800084C
:10009000A9580008A9580008A9580008A95800083C
:1000A000A9580008A9580008A9580008A95800082C
:1000B000A9580008A9580008A9580008A95800081C
:1000C000A9580008A9580008A9580008A95800080C
:1000D000A958000819440008A9580008A9580008A0
:1000E000A9580008A9580008A958000800000000F5
:1000F0000000000000000000000000000000000000
:0C01000000000000000000005FF808F1A3
:1001100010B5054C237833B9044B13B10448AFF341
:1001200000800123237010BD0002002000000000A9
:100130006CA0000808B5034B1BB103490348AFF39B
:10014000008008BD00000000040200206CA0000830
:1001500081F0004102E000BF83F0004330B54FEA78
:1001600041044FEA430594EA050F08BF90EA020FE5
:100170001FBF54EA000C55EA020C7FEA645C7FEA78
:10018000655C00F0E2804FEA5454D4EB5555B8BF9B
:100190006D420CDD2C4480EA020281EA030382EA0C
:1001A000000083EA010180EA020281EA0303362D9E
:1001B00088BF30BD11F0004F4FEA01314FF4801C71
:1001C0004CEA113102D0404261EB410113F0004F83
:1001D0004FEA03334CEA133302D0524263EB43033A
:1001E00094EA050F00F0A780A4F10104D5F1200ED8
:1001F0000DDB02FA0EFC22FA05F2801841F1000133
:1002000003FA0EF2801843FA05F359410EE0A5F106
:1002100020050EF1200E012A03FA0EFC28BF4CF037
:10022000020C43FA05F3C01851EBE37101F00045ED
:1002300007D54FF0000EDCF1000C7EEB00006EEBFA
:100240000101B1F5801F1BD3B1F5001F0CD3490884
:100250005FEA30004FEA3C0C04F101044FEA4452DB
:1002600012F5800F80F09A80BCF1004F08BF5FEA62
:10027000500C50F1000041EB045141EA050130BD42
:100280005FEA4C0C404141EB010111F4801FA4F1E5
:100290000104E9D191F0000F04BF01460020B1FA3A
:1002A00081F308BF2033A3F10B03B3F120020CDA72
:1002B0000C3208DD02F1140CC2F10C0201FA0CF050
:1002C00021FA02F10CE002F11402D8BFC2F1200CB5
:1002D00001FA02F120FA0CFCDCBF41EA0C0190406B
:1002E000E41AA2BF01EB0451294330BD6FEA0404B4
:1002F0001F3C1CDA0C340EDC04F11404C4F120029F
:1003000020FA04F001FA02F340EA030021FA04F3B0
:1003100045EA030130BDC4F10C04C4F1200220FA07
:1003200002F001FA04F340EA0300294630BD21FA45
:1003300004F0294630BD94F0000F83F4801306BF0B
:1003400081F480110134013D4EE77FEA645C18BFFF
:100350007FEA655C29D094EA050F08BF90EA020F96
:1003600005D054EA000C04BF1946104630BD91EA8E
:10037000030F1EBF0021002030BD5FEA545C05D191
:100380004000494128BF41F0004130BD14F58004D0
:100390003CBF01F5801130BD01F0004545F0FE4144
:1003A00041F470014FF0000030BD7FEA645C1ABF79
:1003B000194610467FEA655C1CBF0B46024650EAB0
:1003C000013406BF52EA033591EA030F41F40021DC
:1003D00030BD00BF90F0000F04BF0021704730B562
:1003E0004FF4806404F132044FF000054FF0000137
:1003F00050E700BF90F0000F04BF0021704730B5F8
:100400004FF4806404F1320410F0004548BF4042CC
:100410004FF000013EE700BF42004FEAE2014FEA21
:1004200031014FEA02701FBF12F07F4393F07F4FFC
:1004300081F06051704732F07F4208BF704793F0FF
:100440007F4F04BF41F40021704730B54FF4607412
:1004500001F0004521F000411CE700BF50EA010215
:1004600008BF704730B54FF000050AE050EA0102BE
:1004700008BF704730B511F0004502D5404261EB2E
:1004800041014FF4806404F132045FEA915C3FF46F
:10049000D8AE4FF003025FEADC0C18BF03325FEA0C
:1004A000DC0C18BF033202EBDC02C2F1200300FABD
:1004B00003FC20FA02F001FA03FE40EA0E0021FAE2
:1004C00002F11444BDE600BF80F0004002E000BF2E
:1004D00081F0004142001FBF5FEA410392EA030F2F
:1004E0007FEA226C7FEA236C6AD04FEA1262D2EB79
:1004F0001363C1BFD218414048404140B8BF5B427E
:10050000192B88BF704710F0004F40F4000020F016
:100510007F4018BF404211F0004F41F4000121F02C
:100520007F4118BF494292EA030F3FD0A2F1010276
:1005300041FA03FC10EB0C00C3F1200301FA03F1B4
:1005400000F0004302D5494260EB4000B0F5000FD7
:1005500013D3B0F1807F06D340084FEA310102F196
:100560000102FE2A51D2B1F1004F40EBC25008BF48
:1005700020F0010040EA03007047490040EB000012
:1005800010F4000FA2F10102EDD1B0FA80FCACF141
:10059000080CB2EB0C0200FA0CF0AABF00EBC25040
:1005A00052421843BCBFD0401843704792F0000F2E
:1005B00081F4000106BF80F400000132013BB5E781
:1005C0004FEA41037FEA226C18BF7FEA236C21D0F7
:1005D00092EA030F04D092F0000F08BF084670475C
:1005E00090EA010F1CBF0020704712F07F4F04D12A
:1005F000400028BF40F00040704712F100723CBF3D
:1006000000F50000704700F0004343F0FE4040F466
:10061000000070477FEA226216BF08467FEA236324
:100620000146420206BF5FEA412390EA010F40F40F
:10063000800070474FF0000304E000BF10F000435B
:1006400048BF40425FEA000C08BF704743F0964342
:1006500001464FF000001CE050EA010208BF70475D
:100660004FF000030AE000BF50EA010208BF7047E4
:1006700011F0004302D5404261EB41015FEA010CF9
:1006800002BF84460146002043F0B64308BFA3F1F1
:100690008053A3F50003BCFA8CF2083AA3EBC253D3
:1006A00010DB01FA02FC634400FA02FCC2F12002F2
:1006B000BCF1004F20FA02F243EB020008BF20F029
:1006C0000100704702F1200201FA02FCC2F120028F
:1006D00050EA4C0021FA02F243EB020008BF20EA84
:1006E000DC7070474FF0FF0C1CEAD0521EBF1CEAB2
:1006F000D15392EA0C0F93EA0C0F6FD01A4480EAA0
:10070000010C400218BF5FEA41211ED04FF0006388
:1007100043EA501043EA5111A0FB01310CF00040B4
:10072000B1F5000F3EBF490041EAD3715B0040EADA
:10073000010062F17F02FD2A1DD8B3F1004F40EBAA
:10074000C25008BF20F00100704790F0000F0CF07D
:10075000004C08BF49024CEA502040EA51207F3A41
:10076000C2BFD2F1FF0340EAC250704740F400001C
:100770004FF00003013A5DDC12F1190FDCBF00F00D
:1007800000407047C2F10002410021FA02F1C2F1BB
:10079000200200FA02FC5FEA310040F1000053EA57
:1007A0004C0308BF20EADC70704792F0000F00F0A5
:1007B000004C02BF400010F4000F013AF9D040EAAB
:1007C0000C0093F0000F01F0004C02BF490011F43F
:1007D000000F013BF9D041EA0C018FE70CEAD1533D
:1007E00092EA0C0F18BF93EA0C0F0AD030F0004CBD
:1007F00018BF31F0004CD8D180EA010000F0004071
:10080000704790F0000F17BF90F0004F084691F02E
:10081000000F91F0004F14D092EA0C0F01D1420268
:100820000FD193EA0C0F03D14B0218BF084608D131
:1008300080EA010000F0004040F0FE4040F400007B
:10084000704740F0FE4040F4400070474FF0FF0C0E
:100850001CEAD0521EBF1CEAD15392EA0C0F93EA55
:100860000C0F69D0A2EB030280EA010C49024FEAA7
:10087000402037D04FF0805343EA111143EA101360
:100880000CF000408B4238BF5B0042F17D024FF418
:10089000000C8B4224BF5B1A40EA0C00B3EB510FF3
:1008A00024BFA3EB510340EA5C00B3EB910F24BFDC
:1008B000A3EB910340EA9C00B3EBD10F24BFA3EB61
:1008C000D10340EADC001B0118BF5FEA1C1CE0D129
:1008D000FD2A3FF650AF8B4240EBC25008BF20F0DC
:1008E000010070470CF0004C4CEA50207F32C2BF30
:1008F000D2F1FF0340EAC250704740F400004FF0CD
:100900000003013A37E792F0000F00F0004C02BFFD
:10091000400010F4000F013AF9D040EA0C0093F0C7
:10092000000F01F0004C02BF490011F4000F013B21
:10093000F9D041EA0C0195E70CEAD15392EA0C0F89
:1009400008D142027FF47DAF93EA0C0F7FF470AFC1
:10095000084676E793EA0C0F04D14B023FF44CAF04
:1009600008466EE730F0004C18BF31F0004CCAD199
:1009700030F000427FF45CAF31F000437FF43CAFD5
:100980005FE700BF4FF0FF3C06E000BF4FF0010CF7
:1009900002E000BF4FF0010C4DF804CD4FEA4002D9
:1009A0004FEA41037FEA226C18BF7FEA236C11D023
:1009B00001B052EA530C18BF90EA010F58BFB2EBD6
:1009C000030088BFC81738BF6FEAE17018BF40F056
:1009D000010070477FEA226C02D15FEA402C05D10A
:1009E0007FEA236CE4D15FEA412CE1D05DF8040B8F
:1009F000704700BF844608466146FFE70FB5FFF722
:100A0000C9FF002848BF10F1000F0FBD4DF808EDD9
:100A1000FFF7F4FF0CBF012000205DF808FB00BFCA
:100A20004DF808EDFFF7EAFF34BF012000205DF824
:100A300008FB00BF4DF808EDFFF7E0FF94BF012071
:100A400000205DF808FB00BF4DF808EDFFF7D2FF6E
:100A500094BF012000205DF808FB00BF4DF808EDB1
:100A6000FFF7C8FF34BF012000205DF808FB00BF7E
:100A70004FEA4002B2F1FE4F0FD34FF09E03B3EBAB
:100A800012620DD94FEA002343F0004310F0004FEB
:100A900023FA02F018BF404270474FF00000704741
:100AA00012F1610F01D1420205D110F0004008BFE0
:100AB0006FF0004070474FF00000704742000ED2C8
:100AC000B2F1FE4F0BD34FF09E03B3EB126209D489
:100AD0004FEA002343F0004323FA02F070474FF03F
:100AE0000000704712F1610F01D1420202D14FF0B4
:100AF000FF3070474FF00000704700BF034613F807
:100B0000012B002AFBD1181A0138704770B54FF03D
:100B1000FF0C4CF4E06C1CEA11541DBF1CEA135589
:100B200094EA0C0F95EA0C0F00F0DEF82C4481EAF1
:100B3000030621EA4C5123EA4C5350EA013518BF11
:100B400052EA033541F4801143F4801338D0A0FBFE
:100B500002CE4FF00005E1FB02E506F00042E0FBAB
:100B600003E54FF00006E1FB03569CF0000F18BFB1
:100B70004EF0010EA4F1FF04B6F5007F64F5407459
:100B800004D25FEA4E0E6D4146EB060642EAC621EC
:100B900041EA55514FEAC52040EA5E504FEACE2E59
:100BA000B4F1FD0C88BFBCF5E06F1ED8BEF1004F5C
:100BB00008BF5FEA500E50F1000041EB045170BDD8
:100BC00006F0004646EA010140EA020081EA03011C
:100BD000B4EB5C04C2BFD4EB0C0541EA045170BD18
:100BE00041F480114FF0000E013C00F3AB8014F192
:100BF000360FDEBF002001F0004170BDC4F10004DB
:100C0000203C35DA0C341BDC04F11404C4F120055B
:100C100000FA05F320FA04F001FA05F240EA0200B6
:100C200001F0004221F0004110EBD37021FA04F6EC
:100C300042EB06015EEA430E08BF20EAD37070BDA6
:100C4000C4F10C04C4F1200500FA04F320FA05F005
:100C500001FA04F240EA020001F0004110EBD37007
:100C600041F100015EEA430E08BF20EAD37070BD77
:100C7000C4F1200500FA05F24EEA020E20FA04F350
:100C800001FA05F243EA020321FA04F001F00041FF
:100C900021FA04F220EA020000EBD3705EEA430E70
:100CA00008BF20EAD37070BD94F0000F0FD101F09F
:100CB0000046400041EB010111F4801F08BF013CD8
:100CC000F7D041EA060195F0000F18BF704703F016
:100CD0000046520043EB030313F4801F08BF013D9D
:100CE000F7D043EA0603704794EA0C0F0CEA135559
:100CF00018BF95EA0C0F0CD050EA410618BF52EA13
:100D00004306D1D181EA030101F000414FF0000018
:100D100070BD50EA410606BF1046194652EA430626
:100D200019D094EA0C0F02D150EA013613D195EA9A
:100D30000C0F05D152EA03361CBF104619460AD1E2
:100D400081EA030101F0004141F0FE4141F47001EC
:100D50004FF0000070BD41F0FE4141F4780170BDDC
:100D600070B54FF0FF0C4CF4E06C1CEA11541DBF41
:100D70001CEA135594EA0C0F95EA0C0F00F0A7F843
:100D8000A4EB050481EA030E52EA03354FEA013170
:100D900000F088804FEA03334FF0805545EA131383
:100DA00043EA12634FEA022245EA111545EA10654B
:100DB0004FEA00260EF000419D4208BF964244F1E2
:100DC000FD0404F5407402D25B084FEA3202B61A01
:100DD00065EB03055B084FEA32024FF480104FF4D5
:100DE000002CB6EB020E75EB030E22BFB61A754649
:100DF00040EA0C005B084FEA3202B6EB020E75EBDC
:100E0000030E22BFB61A754640EA5C005B084FEA43
:100E10003202B6EB020E75EB030E22BFB61A754610
:100E200040EA9C005B084FEA3202B6EB020E75EB1B
:100E3000030E22BFB61A754640EADC0055EA060EDC
:100E400018D04FEA051545EA16754FEA06164FEA1F
:100E5000C30343EA52734FEAC2025FEA1C1CC0D1CB
:100E600011F4801F0BD141EA00014FF000004FF058
:100E7000004CB6E711F4801F04BF01430020B4F119
:100E8000FD0C88BFBCF5E06F3FF6AFAEB5EB030CD1
:100E900004BFB6EB020C5FEA500C50F1000041EBCE
:100EA000045170BD0EF0004E4EEA113114EB5C049B
:100EB000C2BFD4EB0C0541EA045170BD41F480116E
:100EC0004FF0000E013C90E645EA060E8DE60CEA76
:100ED000135594EA0C0F08BF95EA0C0F3FF43BAF93
:100EE00094EA0C0F0AD150EA01347FF434AF95EA4A
:100EF0000C0F7FF425AF104619462CE795EA0C0F2E
:100F000006D152EA03353FF4FDAE1046194622E7FA
:100F100050EA410618BF52EA43067FF4C5AE50EAD4
:100F200041047FF40DAF52EA43057FF4EBAE12E7C4
:100F30004FF0FF3C06E000BF4FF0010C02E000BFA5
:100F40004FF0010C4DF804CD4FEA410C7FEA6C5C88
:100F50004FEA430C18BF7FEA6C5C1BD001B050EA2B
:100F6000410C0CBF52EA430C91EA030F02BF90EA16
:100F7000020F0020704710F1000F91EA030F58BFD5
:100F8000994208BF90422CBFD8176FEAE37040F037
:100F9000010070474FEA410C7FEA6C5C02D150EAD5
:100FA000013C07D14FEA430C7FEA6C5CD6D152EA90
:100FB000033CD3D05DF8040B704700BF8446104655
:100FC00062468C461946634600E000BF01B5FFF754
:100FD000B7FF002848BF10F1000F01BD4DF808ED24
:100FE000FFF7F4FF0CBF012000205DF808FB00BFF5
:100FF0004DF808EDFFF7EAFF34BF012000205DF84F
:1010000008FB00BF4DF808EDFFF7E0FF94BF01209B
:1010100000205DF808FB00BF4DF808EDFFF7CEFF9C
:1010200094BF012000205DF808FB00BF4DF808EDDB
:10103000FFF7C4FF34BF012000205DF808FB00BFAC
:101040004FEA410C7FEA6C5C02D150EA013C0AD1C4
:101050004FEA430C7FEA6C5C02D152EA033C02D1B6
:101060004FF0000070474FF0010070474FEA410217
:1010700012F5001215D211D56FF47873B3EB6252EA
:1010800012D94FEAC12343F0004343EA505311F011
:10109000004F23FA02F018BF404270474FF00000A3
:1010A000704750EA013005D111F0004008BF6FF0E1
:1010B000004070474FF00000704700BF4FEA410208
:1010C000B2F1E04324BFB3F5001CDCF1FE5C0DD9A6
:1010D00001F0004C4FEAC0024CEA5070B2F1004FF0
:1010E00040EB830008BF20F00100704711F0804FF3
:1010F00021D113F13872BCBF01F00040704741F4B8
:1011000080114FEA5252C2F11802C2F1200C10FABB
:101110000CF320FA02F018BF40F001004FEAC1239F
:101120004FEAD32303FA0CFC40EA0C0023FA02F343
:101130004FEA4303CCE77FEA625307D150EA013319
:101140001EBF4FF0FE4040F44000704701F00040E9
:1011500040F0FE4040F40000704700BF4FEA4002FC
:101160004FEA41037FEA226C02D15FEA402C08D1AA
:101170007FEA236C02D15FEA412C02D14FF00000DC
:1011800070474FF00100704710B504460E4B1878B9
:101190004FF47A73B3FBF0F30C4A1068B0FBF3F032
:1011A00000F09EF868B90F2C01D901200AE0002256
:1011B00021464FF0FF3000F05FF8054B1C60002027
:1011C00000E0012010BD00BF00000020280000202A
:1011D0000400002008B5074A136843F010031360A9
:1011E000032000F037F80F20FFF7CEFF02F07EFB60
:1011F000002008BD00200240034A1168034B1B7801
:101200000B441360704700BF943900200000002099
:10121000014B1868704700BF9439002038B5044668
:10122000FFF7F6FF0546B4F1FF3F02D0044B1B78F1
:101230001C44FFF7EDFF401BA042FAD338BD00BFAE
:1012400000000020024A136823F002031360704775
:1012500010E000E0074AD36823F4E0631B041B0C92
:10126000000200F4E060184340F0BF6040F400303A
:10127000D060704700ED00E030B4174BDB68C3F37B
:101280000223C3F10704042C28BF04241D1D062DCE
:1012900018D9033B4FF0FF3505FA04F421EA0401A5
:1012A000994005FA03F322EA0303194300280BDBF4
:1012B0000901C9B200F1604000F5614080F80013F7
:1012C00030BC70470023E5E700F00F000901C9B208
:1012D000024B1954F4E700BF00ED00E014ED00E00C
:1012E0000138B0F1807F0AD2064B5860064AF021DF
:1012F00082F823100020986007221A6070470120AE
:10130000704700BF10E000E000ED00E0044B002259
:10131000DA61044A136943F00103136101807047E5
:1013200098390020002002401A4BDB6813F0100FA0
:1013300027D0194AD36943F00203D3611023154A19
:10134000D26812F0040F06D01349CA6942F00102B4
:10135000CA6143F004030F4AD26912F0010F09D0A9
:101360000D49CA6942F00402CA610A49CA6922F0F9
:101370000102CA6140F20112934204D0054AD360CF
:1013800070470023DBE7034AD36923F00103D361ED
:10139000704700BF00200240983900200A4B1B69AB
:1013A00013F0800F0DD0084B084A5A6002F18832C2
:1013B0005A601B6913F0800F01D001207047002094
:1013C00070470020704700BF00200240230167459E
:1013D000034A136943F0800313610020704700BF84
:1013E0000020024038B50446FFF712FF0546174BB0
:1013F000DB6813F0010F0AD0B4F1FF3FF7D00CB354
:10140000FFF706FF401BA042F1D9032019E00F4B64
:10141000DB6813F0200F02D00C4B2022DA600B4B5C
:10142000DB6813F0100F09D1084BDB6913F0010FD3
:1014300004D1064BDB6813F0040F05D0FFF774FFEF
:10144000012038BD0320FCE70020FAE7002002401D
:101450002DE9F843234C247E012C41D01E469046B2
:101460000F4604461F4B01221A764CF25030FFF70C
:10147000B9FF034670BB012C29D0022C24D04FF0B9
:10148000040900244C4525D22101C1F12002A1F11B
:10149000200328FA01F106FA02F2114326FA03F3B7
:1014A000194389B207EB4400FFF730FF4CF250308C
:1014B000FFF798FF0C4B1D6925F001051D610346E0
:1014C00040B90134E4B2DDE74FF00209D9E74FF04B
:1014D0000109D6E7034A002111761846BDE8F883D2
:1014E0000223FAE79839002000200240064B002230
:1014F000DA61064B1A6942F004021A611A6942F075
:1015000040021A61704700BF983900200020024055
:10151000064B0022DA61064B1A6942F002021A6198
:1015200058611A6942F040021A61704798390020E8
:1015300000200240264B1B7E012B46D070B50E4684
:101540000446234B01221A760368022B20D04CF26A
:101550005030FFF747FF90BB4FF0FF333360A56873
:101560000122E168A36803EB8123AB4228D9284616
:10157000FFF7CEFF4CF25030FFF734FF154A1369E6
:1015800023F0020313610246B8B905F58065E8E768
:101590004CF25030FFF726FF08B1012210E0012085
:1015A000FFF7A4FF4CF25030FFF71CFF0246094939
:1015B0000B6923F004030B6102E0356000E00122B7
:1015C000034B00211976104670BD02221046704769
:1015D00098390020002002400C4B9A6803F5806384
:1015E0009B68134313F0010F0ED10B682BB94368AE
:1015F00023F47023436000207047426822F4702275
:1016000013434360002070470120704700240140CD
:10161000836813F0010F0DD1436823F480734A6887
:1016200013434360836823F400630A6813438360B1
:1016300000207047012070474B68826812F0010F4C
:1016400023D110B4DBB1426822F468428C68234392
:1016500013434360836823F4602323F481730A688F
:10166000CC6822430C692243134383604B68C26AEF
:1016700022F470021343C362002010BC704742681A
:1016800022F4684213434360E4E701207047F0B559
:101690000E68C6F30F2696FAA6F5B5FA85F540E072
:1016A000A5F108024FF00113934043F0806344E03A
:1016B0000C69C7681A0A27EA020792FAA2F2B2FA7C
:1016C00082F204FA02F23A43C26039E08C6893FA7B
:1016D000A3F7B7FA87F7BF004FF0030E0EFA07F72C
:1016E00022EA070293FAA3F7B7FA87F7BF00BC40D4
:1016F000224340F80C20CC6893FAA3F7B7FA87F797
:10170000BF004FF0040E0EFA07F722EA070293FA21
:10171000A3F3B3FA83F39B009C40224340F80C20D0
:10172000013536FA05F32BD00123AB403342F7D015
:10173000072DB5D840F20113AB404A68082AB7D04C
:101740004F684FEA136C50F80C4093FAA3F2B2FAC8
:1017500082F292004FF00F0E0EFA02F224EA020417
:1017600093FAA3F2B2FA82F2920007FA02F222434B
:1017700040F80C204C68012CA8D0092CD0D1A5E74A
:101780000020F0BD034B5B68C3F30313024AD35C34
:10179000D8407047001002406CC00008034B5B68E3
:1017A000C3F30223024AD35CD840704700100240C2
:1017B0007CC00008034B5B68C3F3C223024AD35CBE
:1017C000D8407047001002407CC000080B4B5B689B
:1017D00003F480337BB1094B5868C0F340400130BB
:1017E000074BB3FBF0F0054B5B68C3F38343023355
:1017F00000FB03F070470348F5E700BF001002400C
:1018000000127A0000093D0008B5054B5B6803F043
:101810000C03082B02D1FFF7D9FF08BD0148FCE7F4
:101820000010024000127A0010B50446FFF7ECFFEA
:101830002060FFF7A7FF6060FFF7B0FFA06060685F
:10184000FFF7B8FFE06010BD03681A4A90420AD063
:10185000B0F1804F07D0A2F59432904203D002F548
:101860008062904203D123F070034A681343114A07
:1018700090420AD0B0F1804F07D0A2F59432904246
:1018800003D002F58062904203D123F44073CA680A
:10189000134303608B68C3620B888362054B9842D5
:1018A00005D0436943F001034361002070470B6991
:1018B0000363F6E7002C0140C36813F4005F01D016
:1018C0000120704730B585B00D460446C36823F447
:1018D000B05323F00C034A68C9680A4329690A43D4
:1018E0001343C360AB68026922F44052134303619F
:1018F0006B69426922F44072134343616846FFF703
:1019000093FF1C4B9C4208D01B4B9C422AD01B4B84
:101910009C4229D0012005B030BD039B33B32A6817
:1019200032B303EB830303EB83039200B3FBF2F3C5
:10193000134DA5FB03204009020191B2642202FB72
:10194000103213013233A5FB0323C3F34F1303F00B
:10195000F0020A4492B203F00F0313449BB2A36057
:101960000020D8E7029BD9E7029BD7E70120D2E706
:101970000120D0E70038014000440040004800400A
:101980001F85EB51054BA3FB003080090138044B48
:10199000586000229A6005221A607047D34D621089
:1019A00010E000E082B0094B1B680193019BB0F18D
:1019B000FF3F00D0013030B1044B1B6813F4803F6F
:1019C000F9D00138F7E702B0704700BF10E000E03F
:1019D000014B1860704700BF28000020104B1B7897
:1019E000EBB9002112E041F2210080EA43039BB2EF
:1019F0000132072A05D813F4004FF4D15B009BB2E3
:101A0000F6E7084A22F81130013189B2FF2903D8DC
:101A10000B029BB20022ECE7014B01221A707047C7
:101A20001C020020B839002070B505460E46144649
:101A30000A4B1B786BB9FFF7D1FF0AE0337883EAD2
:101A40001523074931F9130080EA052085B20136D4
:101A50001446621E002CF1DC284670BD1C020020DA
:101A6000B83900200D4BDA6822F08072DA60DA684B
:101A700042F08072DA600A4B1A6822F001021A60A2
:101A80001A6842F001021A6000225A6000BF00BFCB
:101A900000BF5868B0FA80F040097047F0ED00E0F0
:101AA000001000E008B509680068FEF711FDFEF7B8
:101AB000DFFF08BD012800D070474FF6FF73994241
:101AC000FAD1094B00225A629A62DA621A635A63A7
:101AD0009A63DA631A645A649A64DA641A655A6516
:101AE0009A65DA651A66E7E7981C002072B6BFF3BC
:101AF0004F8F084B20221A61BFF34F8F0649CA68E7
:101B000002F4E062054B1343CB60BFF34F8F00BF7D
:101B1000FDE700BF0008014000ED00E00400FA0509
:101B200072B6BFF34F8F40B94FF4967005E0134B78
:101B300020225A61124B596898B9104B20221A6121
:101B40000A220F4B59680F4B1B68A3FB023423FA80
:101B500002F242EA84520A4B5B685B1A9342FAD360
:101B6000E5E7084B1B68A3FB00349A0A42EA84525B
:101B7000034B5B685B1A9342FAD3DEE7000801402F
:101B8000001000E028000020024600B9C822074BE0
:101B90001968074B1B6813F0010F06D0034B1B6835
:101BA0005B1A934201D230BFF3E770474C24002008
:101BB000440002400246E8B1F9B1144BDB6813F46B
:101BC000005F1DD0124B1B6813F0010F1BD1114B8E
:101BD0004FF4805058604433DA600F4A9A605A6874
:101BE000120C1204114359601A6842F001021A6083
:101BF000002070474FF0FF3070474FF0FF307047C4
:101C00006FF0010070476FF002007047003801402C
:101C100044000240000002400438014010B508466C
:101C200014461146FFF7C6FF0020FFF7ADFF204620
:101C300010BD000002280FD0032813D0012805D0C2
:101C40000B4B80225A6140221A617047084B802258
:101C50001A6140221A617047054B80225A61402266
:101C60005A617047024B80221A6140225A617047C4
:101C70000008014000B587B000230593019302934B
:101C80000C4B039304230493FFF788FB78B905A951
:101C900001A8FFF74FFC28B9FFF79AFB002007B017
:101CA0005DF804FBFFF794FB6FF00100F7E74FF0DE
:101CB000FF30F4E700F00008F8B50027124C04F5F7
:101CC000A276124B9E421DD8114D4FF4A2722146AE
:101CD000284605F0AAFB2A680E4B9A4204D0043429
:101CE000EDE727463446EAE72946B5F84251002099
:101CF000A1F842014FF4A272FFF796FE8542F0D0A0
:101D00000434DCE73846F8BD00F0000800000108A4
:101D1000200200206219961908B5FFF7CDFF38B1EF
:101D200001464FF4A272044805F07FFB002008BD75
:101D30004FF0FF30FBE700BF8822002070B586B06F
:101D4000002002900390494B0493042305930190D3
:101D5000474C484B2360A4F842014FF4A27221463D
:101D6000FFF762FEA4F84201FFF718FB002879D1C3
:101D7000FFF7A2FF0446E0B14FF4A2723C4905F020
:101D800045FB054668B104F5A27604F522743A4B8A
:101D90009C420FD901A902A8FFF7CCFB20B9334E12
:101DA00008E0FFF715FB42E0FFF712FB6FF00105BB
:101DB0003DE02E4E33460022B2F5A27F14D2981C8D
:101DC0001B889BB24FF6FF718B4220D006F5A272A2
:101DD000134606F5227628498E4215D901A902A894
:101DE000FFF7A8FBB0B9214E0024214BB4F5A27F28
:101DF00020D29D1C1A88002331190120FFF728FBEF
:101E000068B902342B46F1E716460022D4E70232C5
:101E10000346D1E7FFF7DCFA6FF0020507E001A9FE
:101E200002A8FFF787FBFFF7D3FA6FF003052846F8
:101E300006B070BD4FF4A2720D49304605F0E6FAC7
:101E4000054630B9FFF7C4FA0C4B4FF0FF321A6069
:101E5000EDE701A902A8FFF76DFBFFF7B9FA6FF0F4
:101E60000405E4E74FF0FF35E1E700BF00F00008AC
:101E70008822002062199619000001082400002021
:101E80002DE9F84F804691461F46154600263446F8
:101E90009DB101F1040AD1F800B021467868FEF73F
:101EA00021FC01465846FEF715FB3146FEF710FBB4
:101EB000013D264604465146EAE72146F868FEF70A
:101EC00011FC3146FEF704FB054604F10040B968F9
:101ED000FEF708FC06464846FEF7ACFB01464FF00D
:101EE0008040FEF7B3FC044601462846FEF7FAFBA5
:101EF000054621463046FEF7F5FBC8F80050C8F805
:101F000004004046BDE8F88F2DE9F04F85B0054646
:101F1000029193469A46DDF838901846FEF78AFB00
:101F200001464FF08040FEF791FC039000274AE005
:101F30000136009B01930090564512D255F824803B
:101F40000099D9F80400FEF7CDFB01464046FEF7A4
:101F5000C1FA0199FEF7BCFA0134A345E8D8002480
:101F6000E6E7009C2146D9F80C00FEF7BBFB01997F
:101F7000FEF7AEFA064604F10040D9F80810FEF765
:101F8000B1FB8046029B03EBC7043146039E3046FB
:101F9000FEF7A8FB029B43F8370041463046FEF7A8
:101FA000A1FB60600023022B0CD803EB4302D1009D
:101FB0000E4A0A44D26882B90C4A0A44127D8AB990
:101FC0000133F0E701375F4505D23C460026002388
:101FD00001930093B0E7002001E04FF0FF3005B01F
:101FE000BDE8F08F4FF0FF30F9E700BF501C002034
:101FF000F8B504460E460A493046FEF773FB07461D
:1020000003F0F2FD0546384603F06EFE07462660F3
:1020100029462846FEF75EFA6060E560A760F8BDD5
:10202000DB0FC94070B50546046800212046FEF765
:10203000F7FC00283BD1012624F000444849204603
:10204000FEF7EEFC002835D146492046FEF7E8FCB5
:1020500000283DD144492046FEF7E2FC002845D146
:102060004FF07E512046FEF7DBFC00284CD13F4963
:102070002046FEF7D5FC002870D13D492046FEF7EA
:10208000CFFC00284ED13B492046FEF7C9FC002872
:1020900056D133492046FEF725FB04463046FEF76D
:1020A000CDFA2146FEF71EFB286047200FE04FF0D7
:1020B000FF36C1E730492046FEF714FB04463046A0
:1020C000FEF7BCFA2146FEF70DFB2860702070BDBC
:1020D00028492046FEF706FB04463046FEF7AEFAD6
:1020E0002146FEF7FFFA28606E20F0E720492046DF
:1020F000FEF7F8FA04463046FEF7A0FA2146FEF74E
:10210000F1FA28607520E2E718492046FEF7EAFA5E
:1021100004463046FEF792FA2146FEF7E3FA2860BD
:102120006D20D4E710492046FEF7DCFA044630461D
:10213000FEF784FA2146FEF7D5FA28606B20C6E741
:1021400008492046FEF7CEFA04463046FEF776FAF6
:102150002146FEF7C7FA28604D20B8E72020B6E7F1
:102160005F708930BD3786356F12833A00007A443C
:1021700000247449286B6E4EA5D4685338B5642882
:102180002ED0244B4FF47A721A80234B4FF07E529C
:102190001A602249204B1868FEF7A4FA054600246D
:1021A0003F2C24D82046FEF745FA1D49FEF79AFA3F
:1021B00003F09AFD4FF07E51FEF78CF92946FEF7A9
:1021C00091FA4FF07C51FEF785F903F049FDFEF7D7
:1021D00075FC60F0FF00134B23F814000134DFE7B7
:1021E0000C4B64221A800C4B0F4A1A60D1E7094B42
:1021F0001A886AB192010D4B5B680D48816A013102
:10220000B3FBF1F303EB5203B3FBF2F3013BC36205
:1022100038BD00BF180000201C0000200000FF4255
:10222000DB0FC93DCC2300209A99593F601D002047
:10223000000400402DE9F04184B004AC04E903003F
:10224000694681E80C00029E009C21463046FEF75C
:1022500049FA8046039D019F39462846FEF742FA17
:1022600001464046FEF736F9804639463046FEF7CD
:1022700039FA064629462046FEF734FA014630462A
:10228000FEF726F9044600214046FEF7BFFB18B1D1
:10229000054804B0BDE8F0814146204603F062FDE8
:1022A0000249FEF71FFAF4E70000C07FE12E654205
:1022B00070B584B00C461249FEF714FA0546104971
:1022C0002046FEF70FFA0446284603F08DFC06462A
:1022D000284603F009FD00960190204603F084FC97
:1022E0000546204603F000FD0295039004AB13E978
:1022F0000C00694603C9FFF79DFF04B070BD00BF25
:1023000035FA8E3C2DE9F04385B0684B01221A70F6
:102310004FF000089AE0664B9B78002B34D0654B59
:1023200003EB4829644B009380231A4663494846CF
:10233000FFF7EAFD0028C0F2B580002400267F2CBC
:1023400068D85E4B03EBC40393E8030004AB03E9D6
:102350000300029D29462846FEF7C4F90746039963
:102360000846FEF7BFF901463846FEF7B3F80146C6
:102370003046FEF7AFF8064649F824500134DEE750
:102380004B4BDB78002BCAD14A4E06EB4826002483
:1023900000257F2C15D856F824100846FEF7A2F920
:1023A00001462846FEF796F805460134F1E7404B12
:1023B0009B78002BE8D1B2E73D4BDB78002BAED009
:1023C000E2E74FF070512846FEF78CF903F02AFD42
:1023D0003B4B43F82800384B8022314602A8FFF7D8
:1023E0004FFD029C00212046FEF710FB20B135482E
:1023F000354B43F8280027E02146039803F0B2FC50
:102400003249FEF76FF93249FEF764F8314903F0BB
:10241000ABFCEDE74FF070513046FEF763F903F087
:1024200001FD274B43F82800234B8022494602A890
:10243000FFF726FD029C00212046FEF7E7FAE8B1EF
:102440002048214B43F8280008F10108B8F1070F94
:1024500022D84FEA5803204A1278002A7FF45FAF4F
:10246000032B3FF65CAF01A252F823F017230008BC
:1024700081230008AF230008B923000821460398F0
:1024800003F070FC1149FEF72DF91149FEF722F80F
:10249000104903F069FCD4E70020044B187005B024
:1024A000BDE8F0834FF0FF30F9E700BFAC28002013
:1024B00028180020280800200C1D0020AC24002033
:1024C0001C1D00200000C07F401D0020E12E654241
:1024D000000087430000B4433C1D00202DE9F04379
:1024E00083B0814688460026009601960024274640
:1024F00022E0314B9B78F3B1651C304B53F825102B
:102500003046FDF7E7FF06462D492E4B53F82500D0
:10251000FEF7E8F8054603F067FB01460098FDF773
:10252000D9FF0090284603F0DFFB01460198FDF734
:10253000D1FF019001370234072C20D8224B1B78A1
:10254000002BD9D16308032BD6D801A252F823F06F
:10255000F3240008612500086B2500087525000894
:10256000154BDB78002BC7D1E5E7134B9B78002B8D
:10257000C2D0E0E7104BDB78002BBDD0DBE738465C
:10258000FEF758F801463046FEF760F9C9F800003A
:10259000009C00212046FEF739FA28B10B48C8F804
:1025A000000003B0BDE8F0832146019803F0DAFB98
:1025B0000749FEF797F8F2E72C1800201C1D0020B1
:1025C00035FA8E3C401D00203C1D00200000C07FDD
:1025D000E12E65422DE9F04385B0444B1E68002E84
:1025E00059D1434B1B68002B55DB354617E0414B57
:1025F000042203210DEB020005F0EEFC394602989F
:10260000FDF768FF3C4B43F82500394A1368013356
:102610001360022B02DD134600221A600135072DDC
:1026200061D8DFF8CC80D8F80020DFF8D89059F8CE
:102630002510324B05EB4504224443F8221001AF2C
:1026400003EB840393E8070087E80700294B042283
:102650000321384605F0C0FC029B49F82530264B83
:1026600053F82570D8F800301C44254B43F82470EB
:102670003446022CBBD805EB45032344204A52F8CC
:1026800023103846FFF714FE04AB03EB840343F832
:102690000C0C0134EDE70021154B196000E001310D
:1026A00007290DD8174B53F821400023022BF6D8E9
:1026B00001EB41021A44114840F822400133F5E78A
:1026C000002100E0013107290DD80B4B53F82140C0
:1026D0000023022BF6D801EB41021A44084840F8C7
:1026E00022400133F5E705B0BDE8F083081D002066
:1026F00008000020A51A0008401D002064030020E7
:10270000C40300201C1D00206A4B1B6803B17047E6
:102710002DE9F04F87B0FFF7F5FD0028C0F2D58115
:1027200005A904A8FFF7DAFE049A634B5A60DA6041
:102730005A61DA61059A614B5A60DA605A61DA616E
:102740005F4B1B78002B00F0A6805E4BD3F8009007
:102750004FEA8905584B53F825806F1C53F827A082
:10276000594A1468A200901C033253F822B0574A09
:102770001668314653F82000FDF7B4FF019031464A
:102780005846FDF7AFFF0290514B19684FF07E504D
:10279000FEF75CF80390B9F1000F7FD08146002C62
:1027A0007FD0DDF80CB049464046FDF79BFF8046E0
:1027B000484C606049465046FDF794FFA06059467A
:1027C0000198FDF78FFF8146E06059460298FDF7BA
:1027D00089FF206149464046FEF738F8804660612F
:1027E000374B1B78002B40F093803B4B1C88643C9C
:1027F00018BF0124394B93F87090B9F1000F53D0F2
:102800002201224491000B44D3F830A0996C304649
:10281000FDF768FF0399FDF765FF01465046FEF797
:1028200015F801902D4B93F8F8B0BBF1000F3ED096
:102830004FEA041A0AEB04029300284A134403994E
:10284000D3F8C800FDF74EFF02905444A300234A7A
:102850001344D3F8C0103046FDF744FF01460298F8
:10286000FDF7F4FFB9F1000F3AD0BBF1000F37D0FC
:102870004146FDF72DFE0446019E31464046FDF7D8
:1028800027FE01462046FDF7E1FF3146FDF72AFF0E
:10289000104B586137E0FFF79DFE56E74FF07E5929
:1028A0007DE74FF07E5B7EE700230193BAE70020CF
:1028B000D8E700BFFC1C00201C1D0020401D00208C
:1028C0003C1D0020BC380020301C002014000020DB
:1028D0000C00002050240020180000208822002036
:1028E000B9F1000F0FD0019E31464046FDF7FAFEC8
:1028F000044641463046FDF7EBFD01462046FDF714
:10290000A5FF764B5861754A536923F00043536124
:10291000734E56F8271056F82500FFF7C9FC6F4C88
:10292000A061704B1B689B009A1C033356F8231060
:1029300056F82200FFF7BCFC0146E061A069FFF7F2
:10294000B7FC05462062684B1B78002B40F0BD8029
:10295000664B1888FDF772FE6549FDF7C3FE064613
:1029600064492846FDF7BEFE054603F03DF90446DE
:10297000284603F0B9F90546584B5F6921463846A9
:10298000FDF7B0FE044625F000413846FDF7AAFEEB
:10299000054600212046FEF739F8002840F09580D2
:1029A00000212846FEF732F8002840F08E800021F2
:1029B0003046FEF72BF8002840F087803146284645
:1029C000FDF744FF814631462846FDF78BFE014660
:1029D0004FF07E50FDF73AFF824629462046FDF72C
:1029E00035FF019021462846FDF730FF0290214631
:1029F0002046FDF777FE074629462846FDF772FE7A
:102A000001463846FDF766FD80462146FDF71EFF6C
:102A1000074629464046FDF719FF83463146FDF734
:102A200015FF804659463046FDF75CFE01464FF0E3
:102A30007E50FDF70BFF064659463846FDF706FF68
:102A4000039039465846FDF701FF244B1C63019A59
:102A50005A63029A9A63DD63DF64039A1A655865C4
:102A6000C3F858B024494846FDF7F8FF08B1DFF82D
:102A700088901A4BC3F8289000215046FDF7D0FFEC
:102A800030BB164BC3F824A01C492046FDF7E6FFD7
:102A900000B11A4C114BDC6217494046FDF7DEFFCE
:102AA00008B1DFF854800D4BC3F844800021304654
:102AB000FDF7B6FF78B9094B1E6410493846FDF79B
:102AC000CDFF00B10D4F054B9F6407B0BDE8F08FFF
:102AD0004FF0000AD5E70026EDE700BF50240020A4
:102AE000401D0020301C00203C1D0020180000204C
:102AF000DB0FC94035FA8E3C00007A4420BCBE4C46
:102B000008B50C4B1B7833B90B4B1B781BB90B4B1F
:102B10001B68032B00D908BD0146094B20221A610E
:102B20004FF40072074804F080FC034B01221A7036
:102B3000F1E700BF10000020AC280020B8380020CA
:102B400000080140AC240020A04B1B78002B00F0B3
:102B500006822DE9F04F95B09D4B1F68032F1CD8BE
:102B60009C4B53F8278017B99B4B1B68DBB19A4BE2
:102B70001D68092D76D9B8F1010F1ED0B8F1030FE9
:102B800018D00124B8F1010F40F2878041220021C2
:102B900003A804F06EFC00221BE08C4B00221A708C
:102BA00015B0BDE8F08F4046FFF744F88B4B00228C
:102BB0001A60DCE74FF0FF34E4E74FF0FF34E1E761
:102BC00014A901EB531313F8441C013103F8441CFE
:102BD00001327F2A1ED8824B03EB820133F9223067
:102BE000A3F5006303FB04F31BB2B1F802C0ACF51C
:102BF000006C0FFA8CFC7B4951F832601E4441F89E
:102C0000326001EBC201486860444860002BD7DAAB
:102C1000DB43D5E72C2100221346144610E023465F
:102C2000824202D3161AF6B200E02646082B03D8D9
:102C3000082E02D9012400E0012401311346024686
:102C4000402909D844B914A8084410F8440C934208
:102C5000E5D8D31ADBB2E3E7604B13F8082014433E
:102C600003F80840594B00221A705F4B1B78002B69
:102C70003CD15E4B1B68002B40F08280574B13F811
:102C80000830002B7ED1B8F1010F27D9584BDB7BE0
:102C900013F0040F78D1802329E000237F2B18D86C
:102CA0004F4A02EB830632F92310A1F500614D4A29
:102CB00052F8330001FB040142F83310B6F9021058
:102CC000A1F5006002EBC302516801445160013379
:102CD000E4E7424B002203F80820C3E708F10203AF
:102CE000444AD35C002BD1D1012300E08023424A27
:102CF0001288C82A05D8022B03D9404AA2FB032315
:102D00005B083F4A202151610135334A15600A337F
:102D10009D42FFF445AF7B1C1A4600932D4B53F8A0
:102D20002200FEF787FF4FEA4803364C04EB882564
:102D3000013304EB4324284B18680A38FDF77AFC6A
:102D400001464FF07E50FDF781FD824600267F2E22
:102D50001CD8244F57F83600FDF770FC5146FDF79C
:102D6000C1FC45F8260007EBC609D9F80400FDF7B9
:102D700065FC5146FDF7B6FC44F826000136E6E74F
:102D80000823B4E70123B2E71023B0E71E4B1B680A
:102D9000032B0ED81D4B1F46104B13F80890B9F1AA
:102DA000000F09D0104B1B78002B6ED0002600209E
:102DB00004E0174B1F46EFE7002600207F2E29D89E
:102DC00055F82610FDF786FB0136F7E7AC28002002
:102DD000B838002098BC0008240800202C180020D7
:102DE000AC240020240400203C1D0020FC1C0020FA
:102DF000882200202818002018000020ABAAAAAAC8
:102E00000008014028080020041D00206666663F77
:102E10009A99993E4FF07051FDF764FC0646B9F15E
:102E2000000F17D139464FF07E50FDF751FBDFF808
:102E300034A108F1040B5AF82B10FDF753FC019054
:102E400031463846FDF74EFC01460198FDF742FB3E
:102E50004AF82B00424BD3F800A0BAF1000F14D16E
:102E6000B9F1000F04D108F104033E4A52F823607F
:102E7000BAF17F0F09D8314655F82A00FDF728FB33
:102E800045F82A000AF1010AF2E7002500207F2D0B
:102E900005D854F82510FDF71DFB0135F7E74FF075
:102EA0007051FDF71FFC824639464FF07E50FDF70A
:102EB0000FFB2C4D08F1080955F82910FDF712FCFD
:102EC000064651463846FDF70DFC01463046FDF7F3
:102ED00001FB064645F82900214B1D6855B97F2D99
:102EE00008D8314654F82500FDF7F2FA44F82500D9
:102EF0000135F4E74FF4806200211B4804F0B9FA71
:102F00001A4B00221A601A4BC3F80080194B009A22
:102F10001A60032A7FF644AE04221749174804F0CA
:102F200075FAD0B10122164B1A60134B1A68134977
:102F30000A60002119600A4B1B68002B7FF430AE39
:102F400012F47F0F08BF01210E4B1960130E0CBF46
:102F5000012200220C4B1A6022E60022E3E77047B0
:102F6000FC1C0020882200202404002024080020CB
:102F700020000020B83800202C180020281800203D
:102F8000081D0020BC380020301C0020F0B583B0A4
:102F90000C4616461F4621F0004502281ED0032885
:102FA00038D042492846FDF73BFD00285DD1404915
:102FB0002846FDF735FD002862D13E492846FDF739
:102FC0002FFD002867D12046FDF726FACDE9000144
:102FD000394A3946304605F037F90EE0334928467C
:102FE000FDF71EFD58B12046FDF716FACDE90001A8
:102FF000324A3946304605F027F903B0F0BD204685
:10300000FDF70AFACDE900012B4A3946304605F0B2
:103010001BF9F2E725492846FDF702FD78B9244956
:103020002846FDF7FDFCA8B12046FDF7F5F9CDE9EE
:103030000001224A3946304605F006F9DDE7204610
:10304000FDF7EAF9CDE900011D4A3946304605F0A1
:10305000FBF8D2E72046FDF7DFF9CDE90001164A7B
:103060003946304605F0F0F8C7E72046FDF7D4F9B9
:10307000CDE90001134A3946304605F0E5F8BCE7D2
:103080002046FDF7C9F9CDE900010D4A3946304621
:1030900005F0DAF8B1E72046FDF7BEF9CDE9000109
:1030A000064A3946304605F0CFF8A6E70000204131
:1030B0000000C84200007A44DCB80008D4B8000818
:1030C000E4B80008ECB800082DE9F84F81468846BE
:1030D00093461F46DDF828A0002611E0012202F0E9
:1030E000EBFA6400A4B20135BD4208D205EB090039
:1030F00006EB080114F4004FF0D10022EFE701368F
:10310000564507D23BF81640C7F110039C40A4B2C5
:103110000025E9E7BDE8F88F08B502F0C7FB02F02B
:103120002FFA012002F0F8F902F004FA4FF4FA70D5
:10313000FEF738FC08BD000070B582B0002002F038
:10314000EBF90021084602F049FB2D4D01222946EA
:103150002C4802F031FB2C4E2C4B9A682C493046FF
:1031600005F0A6F82C78002104EB840002F036FB71
:1031700001222946304602F01FFB1FA3D3E900239A
:103180002449304605F094F83046FDF7B7FC00FBC3
:1031900004F0C0F17F00002180B202F01FFB012289
:1031A0002946304602F008FB0E21102002F016FBE3
:1031B00001221949194802F0FFFA012400941F2343
:1031C00003227F21002002F033FB2621052002F09C
:1031D00005FB22462946124802F0EEFA342105206A
:1031E00002F0FCFA224629460E4802F0E5FA02F007
:1031F000A1F902B070BD00BFE17A14AE47E1DA3F39
:103200006CB80008F4B80008341C002088220020A4
:10321000FCB8000800B900085CB8000808B900084C
:1032200014B9000824B900082DE9F04184B0BA4B64
:10323000DC7B002002F070F9B84B1B78012B00F00A
:10324000978204F00204022B00F0D082002108468D
:1032500002F0C4FA002C00F01681B148B14D0122F1
:10326000294602F0A9FA2D78002105EB850002F02D
:10327000B5FAAD4B1B88B3F57A7F80F00681AB4A77
:103280001A21AB4804F0E0FF0122A649A84802F049
:1032900093FAA14A9389643B18BF01231901194489
:1032A0008800024492F87020002A00F0F8804F2134
:1032B0009F4A11701A0113449A00974B134493F8D4
:1032C000F830002B00F0ED805323994F7B700026DF
:1032D000BE7005EB85035800314602F07FFA0122EB
:1032E0009049384602F068FAA800C0F17F003146E4
:1032F00080B202F073FA8F4B1B68002B40F0D38032
:10330000854BDB7B13F0040F00F0D380012285494D
:10331000894802F051FA002303937F4B9B7B012BDA
:1033200000F0DD80002B00F0D280022B00F0DF8067
:103330001621002002F052FA03A8FEF773FE05469C
:10334000754B9B7B012B00F02381002B00F0D78075
:10335000022B00F031816FF00201042002F04CFAE0
:1033600001227649724802F027FA4FF0FF31062019
:1033700002F042FA684B9B7B012B00F05D81002B31
:1033800000F04881022B00F069816D4B1B68002B17
:1033900000F087814822664B1A706A4B1B68002B2D
:1033A00000F081814823624D6B700023AB705D4E4D
:1033B00030784000C0F17F00282180B202F00EFA80
:1033C00001223146284602F0F7F9534B9B7B012B33
:1033D00040F26B81022B40F0F181002C00F0C281A1
:1033E000594B5B6C04A840F8043DFEF71BFE0746F2
:1033F0004C4B5978C1F13F018DB22946002002F0B3
:10340000EDF94B4E1A23324603990420FFF7BEFD17
:103410003046FDF773FB0346202F01D037540133AC
:103420005A1C43484821C1540023835401223D497A
:1034300002F0C2F9002C00F09881434B5B6D04A8A8
:1034400040F8043DFEF7EEFD064629463E2002F018
:10345000C5F9344D012229463C4802F0ADF9344CFF
:103460001A23224603990320FFF790FD2046FDF71B
:1034700045FB431C26540022E254012229462046E3
:1034800002F09AF99AE13248E8E6324AA2FB0323B5
:103490009B09314A1A21264804F0D6FEF4E62D2174
:1034A00006E72D2311E701221E492C4802F084F97A
:1034B00031E71F4D1A232A462349096A0320FFF7E3
:1034C00065FD01221749284602F076F923E71CB171
:1034D0001D4B5B6C03932BE71B4B9B6AFAE71CB1FC
:1034E000194B1B6C039323E7174B5B6AFAE71CB17C
:1034F000154B9B6C03931BE7134BDB6AFAE77028B1
:103500002ED06E283DD0752830D01A23084A039952
:103510000420FFF73BFD1EE7882200203C1D002011
:1035200074B800086CB800081800002084B80008BF
:10353000341C0020FC1C002098B8000864B8000867
:10354000BC380020301C002050240020A4B8000803
:1035500078B80008D34D621088B8000890B8000809
:10356000B6490398FDF7BEF8039075250398FCF75C
:1035700053FFCDE90001B24A1A21B24804F064FEBB
:10358000E9E6B1490398FDF7ADF803907525EDE73D
:10359000702806D01A23AB4A03990420FFF7F6FCE3
:1035A000D9E60398FCF738FFCDE90001A44A1A21B7
:1035B000A44804F049FECEE670280CD06E281BD03B
:1035C000752820D06D280CD01A239E4A0399042018
:1035D000FFF7DCFCBFE69D490398FDF783F80390F5
:1035E0006D250398FCF718FFCDE90001944A1A21D4
:1035F000944804F029FEAEE690490398FDF772F86E
:1036000003906D25EDE790490398FDF76BF8039063
:103610006D25E6E7202D0DD08A4B1D7001235A1C25
:1036200088484821C154002383540122884902F06C
:10363000C3F8AAE60023F2E7202D0DD0814B1D70C0
:1036400001235A1C7F484621C15400238354012280
:103650007F4902F0B1F898E60023F2E7202D1BD055
:1036600078480570002343700122794902F0A4F8DC
:103670000021032002F0C0F80DF10A0102A802F0B7
:10368000B3F8BDF80A10BDF80800122300930D230B
:10369000704AFFF719FD78E60021042002F0ACF82B
:1036A000E6E74C2277E64C237DE6002C54D06A4BAB
:1036B000DB6C04A840F8043DFEF7B4FC8046674F7D
:1036C0007D78C5F13F05ADB22946002002F086F8AD
:1036D00001223946624802F06FF82946142002F0B0
:1036E0007DF8584E1A23324603990320FFF74EFC0B
:1036F0003046FDF703FA431C06F800800022F2541E
:1037000001223946304602F057F844B3524B5B6D04
:1037100004A840F8043DFEF785FC064629463E20F5
:1037200002F05CF84D4D012229464E4802F044F863
:10373000444C1A23224603990320FFF727FC204616
:10374000FDF7DCF9431C26540022E25401222946ED
:10375000204602F031F831E03F4B1B6BA9E73E4BAE
:103760009B6BD5E73C4B9B6A3CE63B4B9B6B66E611
:103770003D4B1B68334CC3F102033C4A1A212046DF
:1037800004F062FD0521002002F028F801223049F2
:10379000204602F011F8364B1B88B3F57A7F1BD216
:1037A000344A1A21204604F04FFD2321002002F064
:1037B00015F801222649234801F0FEFF2E4BDB7B42
:1037C00013F0010F6CD101F0B5FE2C4A13680133E0
:1037D000136004B0BDE8F081294AA2FB03239B09D2
:1037E000284A1A21174804F02FFDDEE71E4B1B68FC
:1037F000144CC3F10203244A1A21204604F024FD8C
:103800000521002001F0EAFF01221149204601F0C4
:10381000D3FF174B1B88B3F57A7F37D2154A1A218D
:10382000204604F011FD2321002001F0D7FF0122E2
:103830000749044801F0C0FFC0E700BFBD37863527
:10384000D4B80008341C00206F12833A5F708930AE
:103850005CB8000874BC0008502400206CB8000854
:10386000A0B80008A4B80008981C0020A8B8000858
:1038700018000020B4B8000888220020001D002095
:10388000D34D6210BCB80008C4B80008104AA2FBAF
:1038900003239B090F4A1A210F4804F0D5FCC2E705
:1038A0000E4B18785978C1F13F01C0F17F0089B201
:1038B00080B201F093FF0A4BDB7B13F0080F05D0B9
:1038C00008480122054901F077FF7CE70648F8E740
:1038D000D34D6210BCB80008341C00206CB800083E
:1038E000882200207CB8000880B8000870470000DB
:1038F00008B53F4A136823F0070343F0020313603F
:103900003B4B1B6803F00703022BF9D1394A1368BC
:1039100043F480331360374B1B6813F4003FFAD035
:10392000344A536A43F001035362324B5B6A13F02B
:10393000020FFAD02F4A536823F47C1343F4E813A0
:103940005360136843F0807313602A4B1B6813F0B5
:10395000007FFAD0274B5A6822F0F0025A605A686A
:1039600022F4E06242F480625A605A6822F46052A3
:103970005A605A6822F0030242F002025A601D4B5C
:103980005B6803F00C03082BF9D11B48FEF720F805
:10399000184A536823F4404343F400435360FDF74F
:1039A00051FC164B1868FDF7EDFF154BDA68C2F3B2
:1039B0000222C2F10703042B28BF04231946131D5A
:1039C000062B13D9033A4FF0FF338B40DB4303F050
:1039D0000F0393401B01DBB2094A82F82330A2F5A2
:1039E0004F62136843F00203136008BD0022EAE748
:1039F000002002400010024000A24A0428000020DB
:103A000000ED00E02DE9F04F8DB000230A930B93F9
:103A1000099304930593069307930893AB4A13689D
:103A200023F001031360AA4B9A6942F004029A61E1
:103A30009A6902F004020392039A9A6942F40072AE
:103A40009A619A6902F400720292029AA14C21686A
:103A500040F2011595FAA5F2B2FA82F292000F2017
:103A600000FA02F221EA020295FAA5F540F20225D7
:103A700095FAA5F1B1FA81F1890000FA01F122EA83
:103A8000010295FAA5F5226093498A6822F00102A5
:103A90008A6001F580618A6822F001028A605A69B1
:103AA00042F001025A615B6903F001030193019B3B
:103AB0008A4B1A6822F001021A601A6822F48042C6
:103AC00022F010021A601A6822F4405242F40052A6
:103AD0001A601A6842F020021A601A6822F0400246
:103AE0001A601A6842F080021A601A6822F4407262
:103AF00042F400721A601A6822F4406242F40062D2
:103B00001A60774A9A60774ADA605A68120C12048F
:103B100042F480725A60744A012151601A6842F07E
:103B200008021A601A6842F004021A601A6842F029
:103B300002021A606D4BDA68C2F30222C2F1070377
:103B4000042B28BF04231946131D062B01D9033A61
:103B500000E000224FF0FF338B40DB4303F0030310
:103B600093401B01DBB2624A82F80B334FF40063CF
:103B7000136000240A940B94574E0AA93046FDF7AF
:103B800047FD0CA94FF4803341F80C3D3046FDF75A
:103B900023FD4FF4002304930594069407944FF4F7
:103BA0008073089304A93046FDF746FD51494FF450
:103BB000407999FAA9F3B3FA83F34FF4007A2AFA19
:103BC00003F351F8232022F01F0241F8232020396B
:103BD0004FF0007B9BFAABF3B3FA83F32BFA03F3BA
:103BE00051F823204FF0F87595FAA5F022F007025E
:103BF00095FAA5F042F0060241F82320344B9A6969
:103C000042F480629A619B6903F480630093009B95
:103C10000A940B94384F0AA93846FDF7F9FC4FF483
:103C200060230493059406944FF00208CDF81C809D
:103C3000089404A93846FDF7FFFC304A99FAA9F91F
:103C4000B9FA89F92AFA09F952F8293023F01F0341
:103C500043F0010342F8293029489BFAABF3B3FA49
:103C600083F32BFA03F350F8232095FAA5F1B1FA68
:103C700081F14FF4401424FA01F14FF0070C0CFAD3
:103C800001F122EA010295FAA5F5B5FA85F524FAC3
:103C900005F5062404FA05F5154340F82350B368EA
:103CA00043F00103B360BB6843F00103BB604046CF
:103CB000FDF778FE134B1A68B36843F00403B36052
:103CC000BB6843F00403BB6024E000BF0004004075
:103CD000001002400008014000240140080002409A
:103CE0004C240140301800200000024000ED00E0AC
:103CF00000E100E02C240140002801402C28014074
:103D00000C2801404C2400201C4B1B689B1A632B81
:103D10000AD830BF1A4B9B6813F0040FF4D1194B2B
:103D20009B6813F0040FEFD10220FDF73BFE154A0C
:103D3000936823F001039360114B996821F001010E
:103D400099601148016841F0010101606FF00201C2
:103D500011601960916841F001019160996841F02A
:103D600001019960916841F4A00191609A6842F460
:103D700080129A600DB0BDE8F08F00BF4C24002087
:103D800000240140002801400800024030B589B0FD
:103D90003E4A536943F001035361536903F0010341
:103DA0000293029B3A4C236823F0010323602368AB
:103DB00023F4804323F0100343F0100323602368AF
:103DC00043F440532360236843F0200323602368B7
:103DD00023F040032360236843F0800323602368BB
:103DE00023F4407343F480732360236823F4406317
:103DF00043F480632360274BE360274BA360636831
:103E00001B0C1B0443F040036360002303930493E3
:103E1000059306930793D36943F00203D361D369F3
:103E200003F002030193019B1C4B1B889A011C4B5E
:103E30005B6803EB5203B3FBF2F3013B0593194DAF
:103E400003A92846FDF700FD2B6843F080032B6093
:103E5000AB6823F4804323F00703AB606B6823F067
:103E6000700343F020036B60AB6823F08003AB600A
:103E7000EB6843F48073EB60236843F00103236035
:103E80002B6843F001032B6009B030BD00100240E5
:103E900030000240CC2300200C0C01401800002010
:103EA000601D00200004004030B591B0002309934C
:103EB0000A930B930C930D930E930F930793089310
:103EC0006C4CA36943F48043A361A36903F480436A
:103ED0000393039BA36943F00403A361A36903F065
:103EE00004030293029B644B04930923059302236A
:103EF0000693624D04A92846FDF7C9FB604B049365
:103F0000082305930123089304A92846FDF7BFFB66
:103F1000636943F001036361636903F00103019383
:103F2000019B584B1A6822F001021A601A6822F4A9
:103F3000804222F0100242F010021A601A6822F445
:103F400040521A601A6822F020021A601A6822F0A1
:103F500040021A601A6842F080021A601A6822F45D
:103F600040721A601A6822F440621A60464A4FF49E
:103F7000805151601A6842F008021A601A6842F0D3
:103F800002021A60414BDA68C2F30222C2F107034F
:103F9000042B28BF04231946131D062B66D9033AA8
:103FA0004FF0FF338B40DB4303F0010393401B01D1
:103FB000DBB2374A82F80E334FF480431360354B3F
:103FC0009B68099300230A930B930C930C220D9288
:103FD0000E930F93304C09A92046FDF76DFC236921
:103FE00023F490432361636923F02A0363612B4A1E
:103FF00052E8003F43F0800342E800310029F6D147
:10400000254B1A680092009A5A680092009A6FF045
:1040100020021A60224A52E8003F43F0200342E89F
:1040200000310029F6D1194BDA68C2F30222C2F13D
:104030000703042B28BF04231946131D062B17D989
:10404000033A4FF0FF338B40DB4303F0010393400F
:104050001B01DBB20E4A82F82533202353600E4A3F
:10406000D36843F40053D36011B030BD002297E70A
:104070000022E6E7001002400200020400080140AE
:1040800004000404440002400000024000ED00E08F
:1040900000E100E08822002000380140143801408F
:1040A0000C3801402DE9F0438DB04FF00008CDF8F9
:1040B0002880584B9A6942F004029A619A6902F08A
:1040C00004020692069A9A6942F008029A619A6975
:1040D00002F008020592059A9A6942F010029A616C
:1040E0009A6902F010020492049A9A6942F020023E
:1040F0009A619B6903F020030393039B464E4FF0A4
:104100000409C6F814904FF480737361202373611F
:104110004023736180237361404CFF236361012757
:104120000897022309930B970CAD40F2044345F81E
:10413000143D29463046FDF7AAFA394B0793294624
:104140003046FDF7A4FA42F2200307932946304691
:10415000FDF79DFA44F24003079329463046FDF7E8
:1041600096FA48F28003079329463046FDF78FFA06
:10417000032309934FF6FF73079329462046FDF763
:1041800086FACDF8288041F210030793294630467D
:10419000FDF77DFACDF8289040F6080307932946ED
:1041A0003046FDF774FA082308930B971D4B0793CD
:1041B00029462046FDF76BFA1B4B079329462046FC
:1041C000FDF765FA194B079329462046FDF75FFA7C
:1041D0004FF49033A3614FF40052A261A361A3692D
:1041E0000293029B4FF4A033A3614FF48042A2617B
:1041F000A361A3690193019B4FF4C033A3614FF402
:104200000042A261A361A3690093009B0DB0BDE8C9
:10421000F08300BF0010024000080140000C014084
:1042200001000104200020044000400480008004BC
:1042300008B54FF49670FDF773FC08B56420FDF7E0
:104240006FFC08B56420FDF76BFC08B56420FDF732
:1042500067FC08B56420FDF763FC70477047704742
:1042600038B5FCF7C9FF464B1A6801321A601C6862
:10427000002322E0013A12B237E00022580018442D
:10428000C500404929440A81C96849B91D2A07DD8A
:104290003C4A2A440021117511615175D4600BE02C
:1042A00009B1002A27DD002940D0611A03EB43023F
:1042B000D000344A024411610133022B49D803EB88
:1042C0004301CA002F4988580028F5D05A001A44E3
:1042D000D50029440A894D688168C94301EA15213E
:1042E00089B20029C6D0013212B2002AC5DB1E2ACB
:1042F000C4DD1E22C2E703EB4302D000214A024480
:10430000527D3AB11F4A0244002111611175D160FA
:104310005175D1E7611A58001844C500194A2A445A
:104320001161012111750021D160C5E703EB430242
:10433000D100144A0A44527D002ABDD059001944C4
:10434000C800104A0244002111611175D1605175F5
:10435000B2E70D4B1B68002B03DD0B4A1368013BD2
:1043600013600A4BD3F80824D3F8083401339A4277
:1043700005D2064AD2F808340133C2F8083438BDF1
:104380004C240020501C002024000020781D002018
:1043900008B5104B1B6813F0080F02D00D4B082214
:1043A0005A600C4B1B6813F0040F05D1094B1B68B6
:1043B00013F0020F07D108BD0748FEF7A1FB054B1C
:1043C00004225A60F2E70548FEF79AFB014B0222ED
:1043D0005A60F0E70000024030180020301A002038
:1043E0000B4B1B6813F4004F04D1094B1B6813F4EB
:1043F000005F0BD0074A136823F001031360044BDE
:104400004FF400425A604FF400525A60704700BFA8
:10441000000002404400024082B0124BD3F8043442
:1044200007E0104AC2F804340021C2F80814D2F898
:1044300000240D4A126812F0200F0AD00A4A52686E
:10444000D2B20849CA540133B3F5806FE9D30023CF
:10445000E7E7054B1A680192019A5B680193019B9B
:1044600002B07047781D00200038014038B5814BFC
:10447000DB68ABB17F4B5B6A93B17E4BDB6B7BB987
:104480007C4B1B69B3F5487FC0F08880794B9B6AF1
:10449000B3F5487FC0F08280FDF7ECFBFDF726FB0B
:1044A000754B1B78002B4FD1724BDB6833B1714BCE
:1044B0005B6A1BB96F4BDB6B002B51D06D4B1B7DC7
:1044C000002B68D16B4BDB6833B96A4B5B6A1BB15D
:1044D000684BDB6B002B6DD0664B93F82C30002BB8
:1044E00040F08780634BDB683BB9624B5B6A23B962
:1044F000604BDB6B002B40F094805E4B93F84430B4
:10450000002B4BD05B4B93F84530002B46D1594BD9
:10451000012283F84520594B00221A60584AD37B68
:1045200083F00403D37313F0040F06D1937B01339C
:10453000022B00D90023524A9373524B41F2883226
:104540001A60FEF771FE29E00023022B26D803EB48
:104550004302D100474A0A44012151750B44F4E754
:10456000444B1B69B3F5FA7F18D3424B5B7DABB963
:104570000125404B5D750021404B196064242246A3
:10458000414802F076FF3C4B1D702046FDF7F6FDDA
:10459000FEF74AFE02E0374B5B7D03B138BD354B79
:1045A00001225A75354A136883F001031360FEF740
:1045B0003BFEF3E72F4B9B6AB3F5FA7FEED32D4B0F
:1045C00093F82D30002BE9D12A4B012283F82D20BE
:1045D00000212A4B1960642422462B4802F049FF2F
:1045E000254B02221A702046FDF7C8FDFEF71CFE7F
:1045F000D4E7204B93F82D30002BCFD11D4B012257
:1046000083F82D201D4B00221A601D4AD37B83F0B6
:104610000203D3731B4B41F288321A60FEF704FE8B
:10462000BCE7144B1B6CB3F5FA7FB7D3114B93F86F
:104630004530002BB2D10F4B012283F845200F4BA0
:1046400000221A600E4B9B89B3F57A7F0ED00C4B7B
:104650004FF47A729A810A4B9889FDF78FFD094BC6
:1046600041F288321A60FEF7DFFD97E7044B6422BF
:104670009A81F0E7501C00203C1D0020FC1C00200B
:104680008822002024000020981C0020264BDB7B81
:1046900013F0010F47D0254A126812F0010F42D1E2
:1046A00070B513F0080F01D1002524E0204D2C46F1
:1046B000204B44F8063B4FF4805632461E492046B4
:1046C00002F0B3FE324621460020FDF7ADF9A88086
:1046D00041F206012846FDF76DFA70BD05F56075DB
:1046E000154B53F82500FBF797FE02460B4613487F
:1046F00003F0BEFB35467F2DEFD86E1C31461048C7
:1047000003F0B6FB0024062CE8D805EBC4120A4BD4
:1047100053F82200FBF780FE02460B46094803F0DF
:10472000A7FB0134EFE770478822002044000240D5
:10473000B028002096196219280800206CBC0008D7
:104740005CBC000864BC0008002800F0D8822DE999
:10475000F0438BB00C460546002900F06582002628
:1047600004E003F0ABFEC0B238700136A64205D2B9
:10477000AF19A85D0928F4D12020F5E74CB12B78BA
:10478000202B06D8013C2246691C284602F058FE20
:10479000F4E73CB1631EEA5C202A03D80022EA5405
:1047A0001C46F6E7002C00F03F8200272F55BC4244
:1047B00004D9EB5D202B01D90137F8E70023EB5535
:1047C00007F10108A04504D8E41B013C0026B146CE
:1047D00002E00024FAE7013606EB46029300A84AFD
:1047E000D15891B13A46284603F0C5FD0028F2D1D0
:1047F000B9F1000F07D106EB46039A00A04B134412
:1048000093F80890E7E74FF0000904B147462F44BA
:1048100009F1FF39B9F10D0F00F26C82DFE819F0F0
:104820000E000E003D0036009400AF009301DE0143
:10483000CA001101FC0115022C02310200252C4690
:1048400000E0013404EB440293008D4AD05828B1B3
:10485000FCF754F98542F4D20546F2E7894803F0A3
:104860007BFB002404EB44029300854AD258002AC3
:1048700000F0DA8104EB44039900814B0B445B6840
:104880002946814803F0F4FA0134EBE77F4803F04E
:1048900063FBFDF7EFF9FDF729F9CCB10AA9002375
:1048A00041F8043D0A22384603F0F2FD044602F0C6
:1048B000F7FB0368002B11DC099BBB420ED0B4F55B
:1048C000E13F10DA4FF4E134714B9B68A34210D101
:1048D0006F4B99686F4803F0CBFAA5E139466E48F3
:1048E00003F0C6FAA0E1B4F5612FA8BF4FF461242C
:1048F000EAE7674B9C60694BDB6803EB830303EBE0
:104900008303A400B3FBF4F46548A0FB0431490918
:104910000A0192B2642303FB11431B013233A0FB53
:104920000313C3F34F1303F0F0010A4492B203F0F0
:104930000F0313449BB25B4A93605B4B41F2883296
:104940001A60FEF771FCC3E7584B1B781BB158483F
:1049500003F002FB68E1574803F0FEFA0021564BD2
:10496000196064242246554802F083FD4F4B012212
:104970001A702046FDF702FCFEF756FC54E14B4B43
:104980001B781BB14A4803F0E7FA4DE14C4803F0AD
:10499000E3FA0021484B196064242246474802F09C
:1049A00068FD424B02221A702046FDF7E7FBFEF736
:1049B0003BFC39E11CB30AA9002341F8043D0A225B
:1049C000384603F065FD044602F06AFB0368002BDD
:1049D00024DC099BBB4221D0B4F5967F23DC642004
:1049E0002B4B9B8983420AD0294B98812F4B1B78F4
:1049F000E3B12D4B41F288321A60FEF715FC3148C5
:104A000003F036FA002002F001FC214B9989B1F540
:104A10007A7F0ED22C4803F02BFA05E139462B4859
:104A200003F026FA00E14FF47A70D9E7FDF7A6FB10
:104A3000DFE7274BA3FB01318909264803F018FA69
:104A4000F2E07CB122462449384603F094FC002869
:104A500046D10F4B02229A73134B41F288321A60EF
:104A6000FEF7E2FB1D4803F003FA002002F0CEFB44
:104A7000074B9B7B032B62D8DFE803F05155595D50
:104A8000A8BC0008D0B900080CBA000818BA000881
:104A90008822002050BA000830BA0008601D0020AB
:104AA0001F85EB5100380140240000203C1D0020F0
:104AB00060BA000868BA0008FC1C0020981C00209E
:104AC00084BA0008C4BA0008DCBA0008A4BA000816
:104AD000D34D6210E4BA0008F0BA000838BB0008F1
:104AE00022468949384603F046FC28B122468749C8
:104AF000384603F040FC18B9854B00229A73ABE7A7
:104B000022468449384603F036FC18B9804B01220E
:104B10009A73A1E73946804803F0AAF984E07F48F8
:104B200003F01AFA80E07E4803F016FA7CE07D4834
:104B300003F012FA78E07C4803F00EFA74E07B4848
:104B400003F00AFA70E084B122467949384603F04E
:104B500012FCE0B96E4AD37B23F00103D373754B8B
:104B600041F288321A60FEF75FFB734803F080F968
:104B7000002002F04BFB664BDB7B13F0010F25D1CD
:104B800013F0080F26D06D4803F0E6F94CE02246FA
:104B90006B49384603F0EFFB28B95D4AD37B43F0FD
:104BA0000903D373DBE722466649384603F0E3FB8B
:104BB00038B9574AD37B23F0090343F00103D37379
:104BC000CDE73946604803F053F92DE05F4803F024
:104BD000C3F929E05E4803F0BFF925E05D4B1B787F
:104BE00093B95D4C236883F001032360FEF71CFB3F
:104BF0005A4803F03DF9002002F008FB23683BB15E
:104C0000574803F0A9F90FE0564803F0A5F90BE067
:104C1000554803F0A1F907E03D4BDB7B13F0020F91
:104C200005D1524803F098F90BB0BDE8F0834A4A29
:104C30000021116023F00203354AD3733D4B41F24A
:104C400088321A60FEF7F0FAEBE7314BDB7B13F0AA
:104C5000020F03D0464803F07FF9E5E73E4A002102
:104C6000116043F002032A4AD373324B41F2883277
:104C70001A60FEF7D9FAEDE73E4803F06DF9FCF74C
:104C800035FF3D4B1B78002B26D03C4B3A4A5278DF
:104C900022B33B4A3849897811B33A493648C0783B
:104CA00000B33948344C2479F4B1384C324D6D7925
:104CB000E5B1374D304EB679D6B9364E06960595E4
:104CC000049403900291019200930DA3D3E9002371
:104CD000314803F0CDF8A7E7304BD7E7304AD9E7A2
:104CE0003049DBE73048DDE7304CDFE7304DE1E7C6
:104CF000304EE3E72946304803F0BAF894E77047AE
:104D0000E17A14AE47E1DA3FFCBA000808BB0008BC
:104D10008822002010BB00081CBB000840BB000814
:104D20004CBB00085CBB000868BB000870BB0008F7
:104D3000B0BE0008240000209CBB0008B0BB0008E7
:104D400078BB00087CBB000880BB0008A8BB00083B
:104D5000B8BB00083C1D0020FC1C0020C0BB0008A4
:104D6000CCBB000860BA0008D4BB0008DCBB00085C
:104D7000ECBB0008FCBB0008701D002078B90008DF
:104D800080B9000888B9000890B90008A0B90008E7
:104D9000B0B90008C8B900080CBC00087CB900080C
:104DA00084B900088CB9000898B90008A8B90008AF
:104DB000B8B90008C0B900083CBC00082DE9F041B2
:104DC0003D4BD3F80454D3F80044D3F8082440F6FC
:104DD000B7339A420ED9A54207D0374BC3F80054D7
:104DE0000022C3F80C25BDE8F081334BD3F80C3515
:104DF000002BF2D1A542F6D02F4BD3F80C6517E06B
:104E0000C4F5806318E02C4BC3F800540022C3F8AB
:104E10000C25E8E78B423DD9274B0022C3F8082434
:104E200003F20C43C91A3CD10026234BC3F80C658E
:104E3000AC42D8D0E4D82B1B002BD4D0C6F5807759
:104E40009F4228BF1F46002FDDD0DFF86C8006F59B
:104E5000816040443A4608EB0401043002F0E5FA70
:104E60003E44C8F80C653C44B4F5806F00D3002480
:104E70001149C1F8004401F20C41104B33448B42FC
:104E8000C8D90A780D2AC5D00A2AC3D0002AC1D0B1
:104E90000131F2E7FE2ECBD90026074BC3F80C6593
:104EA000C6E7A3F20C40431883F80C2400F20C4030
:104EB000FFF74AFCB8E700BF781D002084210020DE
:104EC0002DE9F0419F4B1B78012B04D0022B00F001
:104ED0009D80BDE8F0810024072C0BD89A4D05EB8E
:104EE00084059A4B53F824106868FBF7F3FA68605E
:104EF0000134F1E70025072D1BD89549954B53F850
:104F00002500FBF7EFFB064600F06EFE2B1D8E4CD6
:104F100004EBC30401466068FBF7DCFA60603046CE
:104F200000F0E2FE0146A068FBF7D4FAA06001356C
:104F3000E1E7894B41F288321A60834B1F680137E1
:104F40001F60022FC5DD854B1D88B5F1640418BFB5
:104F500001240026072E14D87B4B03EB8603D3F8DD
:104F600004803846FBF76AFB01464046FBF76EFCBF
:104F70002301234433440C33794A42F82300013699
:104F8000E8E7002612E0331D6F4A02EBC3033946FF
:104F9000986800F0E7FE7349FBF7A4FB2301234464
:104FA000334414336E4A42F823000136072E0CD8DE
:104FB000331D654A02EBC3035F6800213846FBF7E7
:104FC00025FD0028DFD06848E8E723011C44A20043
:104FD000634B1344012283F87020642D0CD0634886
:104FE00002F0BAFF5E4B9889FDF7C8F8554B0022D6
:104FF0001A70FEF719F96CE764220021524802F09A
:1050000038FA4FF47A70FDF7B9F8F2E70024072C6C
:105010000BD84D4D05EB84054C4B53F824106868B4
:10502000FBF758FA68600134F1E70025072D1BD81B
:105030004749484B53F82500FBF754FB064600F060
:10504000D3FD2B1D404C04EBC30401466068FBF705
:1050500041FA6060304600F047FE0146A068FBF769
:1050600039FAA0600135E1E73B4B41F288321A6022
:10507000354B1F6801371F60022F7FF72AAF374B70
:105080001D88B5F1640418BF01240026072E14D82A
:105090002D4B03EB8603D3F804803846FBF7CEFA9A
:1050A00001464046FBF7D2FB2301234433442E3311
:1050B0002B4A42F823000136E8E7002612E0331DB0
:1050C000214A02EBC3033946986800F04BFE25499C
:1050D000FBF708FB2301234433443633204A42F8CC
:1050E00023000136072E0CD8331D174A02EBC303E9
:1050F0005F6800213846FBF789FC0028DFD01A489A
:10510000E8E723011C44A200154B1344012283F855
:10511000F820642D0CD0164802F01EFF104B988921
:10512000FDF72CF8074B00221A70FEF77DF8D0E649
:1051300064220021044802F09CF94FF47A70FDF7D4
:105140001DF8F2E73C1D0020981C00201C1D0020CB
:1051500035FA8E3C401D002024000020180000205D
:1051600088220020E12E65420000C07F38B9000887
:1051700058B900080000000070B58AB0984A9369D9
:1051800043F001039361936903F001030993099BC1
:10519000D36943F08053D361D36903F080530893FC
:1051A000089B90494B6823F0E06343F000734B6029
:1051B0008D4B596841F480715960596841F4007110
:1051C0005960596841F480615960596841F400613F
:1051D0005960596841F480515960596841F400514F
:1051E0005960596841F400415960596841F480316F
:1051F0005960596841F4804159607C48C16821F484
:10520000E0610904090C7A4B0B43C360516AC1F396
:10521000C061784B1970516AC1F380615970516A4D
:10522000C1F300719970516AC1F34071D970516A2C
:10523000C1F380711971516AC90F5971916801F0F8
:1052400001019971536A43F0807353626A4BA2F56E
:1052500082321A60694959609A6101F12011D9615D
:105260001A63674A5A63674C674B63604FF4612364
:10527000A3604FF47A73A3810123A373E37B43F00C
:105280000903E373FCF7EEFBFBF7A4FFFEF730FB2B
:105290005E48FCF7C9FAFEF705FFFEF705FE4FF082
:1052A00072515B48FCF7A4FEFCF736FDA368B3F52A
:1052B000E13F4CD3B3F5612F28BF4FF46123514C2C
:1052C000A36061684FF07E50FBF7C0FA514B186045
:1052D000514B1A68514B53F82200514B1860FCF7A0
:1052E000A9FCA089FCF74AFFFDF716FFFDF724FF94
:1052F000404B1B78002B2DD04A4B3E4A5278002A57
:105300002AD0494A3B498978002927D0474939485A
:10531000C07828B34648374C24791CB3454C354DEA
:105320006D790DB3444D334EB679FEB1434E0696BA
:1053300005950494039002910192009326A3D3E96A
:1053400000233F4802F094FD3E4B186822E04FF4E2
:10535000E133B4E73C4BD0E73C4AD3E73C49D6E7DE
:105360003C48D8E73C4CDAE73C4DDCE73C4EDEE716
:105370000133022B0AD803EB4301CC001E49214420
:10538000098909B20029F3DD1046F1E7121AB2F5D6
:105390007A7F04D230BF2B4B1A680023E9E7002242
:1053A000022A0CD853001344D900134B0B4400219C
:1053B00059751981D960197519610132F0E7FEF745
:1053C00021FBFEF7E3FC4FF47A70FCF7EBFA254B78
:1053D00000221A704BE000BFE17A14AE47E1DA3FD9
:1053E0000010024000000140002004E000ED00E059
:1053F0000003FA05701D0020501C0020200020042E
:10540000800080048822002000007A44601D002073
:105410000C1D002014000020B838002098BC0008A3
:105420005024002078B9000880B9000888B9000825
:1054300090B90008A0B90008B0B90008C0B90008C8
:105440005CBD00084C2400207CB9000884B9000829
:105450008CB9000898B90008A8B90008B8B90008C4
:10546000C8B90008100000201A4B1B6813B3BFF323
:105470004F8F30BFFEF7FAFFFFF7A0FCFDF764FB8C
:10548000154B1968154A52F82110154A11601B680E
:10549000032BE9D9FDF738F9FFF712FDFDF7C4FE3C
:1054A000FFF7F4F80F4A1368013313600A4B002228
:1054B0001A60D9E7FCF742FC002807DB054B4FF0E8
:1054C000FF321A60084802F047FDD0E7FCF736FCCF
:1054D000F4E700BF24000020B838002098BC000882
:1054E00050240020041D002094BD000808B54FF68C
:1054F000FF710120FCF7DEFA08BD10B582B0002470
:105500008DF804408DF80500022201A9782000F0F2
:1055100001FB204602B010BD08B530B1FF214FF4A9
:105520008062034801F0A5FF08BD0021F7E700BF36
:10553000B83B002010B5A2B040238DF80430002401
:1055400018E0A4F15000C0B2FFF7D7FF0020FFF72A
:10555000D4FF1020FFF7D1FF8022084901EBC411CE
:105560000DF1050001F061FF812201A9782000F012
:10557000D1FA0134072CE4DD22B010BDB83B002085
:1055800010B50023494A53710CE0DA08D2014849AA
:1055900021F8132003F0070101228A404549CA542B
:1055A00001339BB23F2BF0D96420FBF737FEAE20CE
:1055B000FFF7A3FF04462020FFF79FFF04441020BD
:1055C000FFF79BFF0444B020FFF797FF0444C82077
:1055D000FFF793FF04440020FFF78FFF04441020DF
:1055E000FFF78BFF04444020FFF787FF044481202E
:1055F000FFF783FF0444FF20FFF77FFF0444A1204F
:10560000FFF77BFF0444A620FFF777FF0444A820A0
:10561000FFF773FF04443F20FFF76FFF0444A4200B
:10562000FFF76BFF0444D320FFF767FF044400201B
:10563000FFF763FF0444D520FFF75FFF0444F02029
:10564000FFF75BFF0444D920FFF757FF04442220F3
:10565000FFF753FF0444DA20FFF74FFF0444122002
:10566000FFF74BFF0444DB20FFF747FF04442020F3
:10567000FFF743FF04448D20FFF73FFF044414204D
:10568000FFF73BFF0444AF20FFF737FFE04201D0B4
:10569000012010BD0020FFF73FFFFFF74BFF034B3A
:1056A00000201880588001225A71F2E7C03800208B
:1056B000C8380020483900200F4B5B79B3B17F28F0
:1056C00014D83F2912D80C4B1B7913B1B2FA82F2CD
:1056D00052090A4B33F811301844094B595C012A1E
:1056E00005D0084A135C23EA010313547047054AA6
:1056F000135C0B4313547047C0380020C838002097
:1057000048390020B83B00202A4B5B79002B4FD052
:105710002DE9F04F83B0274B1B880D782B447F2B4E
:105720003CDC244B5B8891F801A053443F2B39DCCF
:105730008B78834238D8CC78844237D31746884652
:105740000190D346C31A0AFB03FA002614E03A4636
:10575000FFF7B2FF0134AC420DD2164B188820443B
:105760005988314409FA04F313F4004FEFD1B7FA22
:1057700087F25209ECE701365E4507D2D8F80430CB
:1057800006EB0A0233F812900024E4E798F80030A0
:10579000084A11880B441380019800E0002003B0F0
:1057A000BDE8F08F0020FAE70020F8E70020F6E7D8
:1057B000704700BFC038002070B504460E4615463D
:1057C00023784BB12A4631461846FFF79DFF2378D0
:1057D000984201D10134F3E7184670BD014B18809F
:1057E00059807047C0380020024B1A8802805B88BD
:1057F0000B807047C03800200C4B1B8818440028D1
:1058000010DD8028A8BF802080B2084B18805B88FC
:105810001944002908DD4029A8BF402189B2034B63
:10582000598070470020F0E70021F8E7C0380020D9
:105830002DE9F04104460D4690461F469DF818603C
:10584000064B5B7933B907E0324639462046FFF70D
:1058500033FF4444AC42F7D9BDE8F081C0380020A2
:1058600000F0C0F90B480C490C4A002302E0D45860
:10587000C4500433C4188C42F9D3094A094C00239C
:1058800001E013600432A242FBD301F09BFDFFF75D
:1058900073FC704700000020000200205CC7000875
:1058A00000020020BC3F0020FEE70000F0B587B0FA
:1058B000104C08232361102323610126029603273D
:1058C000039704230493059606AD40F6080345F8B4
:1058D000143D29462046FBF7DAFE02960397002383
:1058E000049341F21003019329462046FBF7CFFEB3
:1058F00007B0F0BD00080140174B10221A610821C3
:10590000196100BF00BF00BF00BF00BF00BF00BFE4
:1059100000BF00BF00BF00BF00BF00BF00BF00BF8F
:1059200000BF596100BF00BF00BF00BF00BF00BF84
:1059300000BF00BF00BF00BF00BF00BF00BF00BF6F
:1059400000BF00BF5A6100BF00BF00BF00BF00BF63
:1059500000BF00BF00BF704700080140174B08227E
:105960005A6100BF00BF00BF00BF00BF00BF00BF43
:1059700000BF00BF00BF00BF00BF00BF00BF00BF2F
:1059800000BF1021196100BF00BF00BF00BF00BFF2
:1059900000BF00BF00BF00BF00BF00BF00BF00BF0F
:1059A00000BF00BF00BF1A6100BF00BF00BF00BF43
:1059B00000BF00BF00BF00BF704700BF000801402C
:1059C000002837D11D4B08225A6100BF00BF00BF1D
:1059D00000BF00BF00BF00BF00BF184B10221A61FC
:1059E00000BF00BF00BF00BF00BF00BF00BF00BFBF
:1059F00000BF00BF00BF00BF00BF00BF00BF00BFAF
:105A000000BF00BF00BF00BF00BF00BF00BF00BF9E
:105A100000BF00BF00BF00BF00BF00BF00BF00BF8E
:105A200000BF00BF00BF00BF00BF00BF00BF00BF7E
:105A30005A617047014B08221A61C6E7000801400D
:105A40001A4B08221A6100BF00BF00BF00BF00BF91
:105A500000BF00BF00BF00BF00BF00BF00BF00BF4E
:105A600000BF00BF00BF10221A6100BF00BF00BF0F
:105A700000BF00BF00BF00BF00BF00BF00BF00BF2E
:105A800000BF00BF00BF00BF00BF00BF00BF00BF1E
:105A900000BF00BF00BF00BF00BF9868C043C00880
:105AA00080F001005A6100F00100704700080140D9
:105AB00038B50446154639BB04F08000FFF780FF77
:105AC00004F04000FFF77CFF04F02000FFF778FFB0
:105AD00004F01000FFF774FF04F00800FFF770FFF8
