:020000040800F2
:100000000050002099680008214B00082D4B000883
:10001000354B00083D4B0008454B00080000000030
:100020000000000000000000000000004D4B000830
:10003000514B000800000000554B0008594B0008C8
:1000400041690008416900084169000841690008E8
:1000500041690008416900084169000841690008D8
:100060004169000841690008494D0008954C0008A5
:100070004169000841690008DD4C00084169000839
:1000800041690008416900084169000841690008A8
:100090004169000841690008416900084169000898
:1000A0004169000841690008416900084169000888
:1000B0004169000841690008416900084169000878
:1000C0004169000841690008416900084169000868
:1000D00041690008F54C00084169000841690008C1
:1000E00041690008416900084169000800000000FA
:1000F0000000000000000000000000000000000000
:0C01000000000000000000005FF808F1A3
:1001100010B5054C237833B9044B13B10448AFF341
:1001200000800123237010BD0002002000000000A9
:1001300078B4000808B5034B1BB103490348AFF37B
:10014000008008BD000000000402002078B4000810
:1001500081F0004102E000BF83F0004330B54FEA78
:1001600041044FEA430594EA050F08BF90EA020FE5
:100170001FBF54EA000C55EA020C7FEA645C7FEA78
:10018000655C00F0E2804FEA5454D4EB5555B8BF9B
:100190006D420CDD2C4480EA020281EA030382EA0C
:1001A000000083EA010180EA020281EA0303362D9E
:1001B00088BF30BD11F0004F4FEA01314FF4801C71
:1001C0004CEA113102D0404261EB410113F0004F83
:1001D0004FEA03334CEA133302D0524263EB43033A
:1001E00094EA050F00F0A780A4F10104D5F1200ED8
:1001F0000DDB02FA0EFC22FA05F2801841F1000133
:1002000003FA0EF2801843FA05F359410EE0A5F106
:1002100020050EF1200E012A03FA0EFC28BF4CF037
:10022000020C43FA05F3C01851EBE37101F00045ED
:1002300007D54FF0000EDCF1000C7EEB00006EEBFA
:100240000101B1F5801F1BD3B1F5001F0CD3490884
:100250005FEA30004FEA3C0C04F101044FEA4452DB
:1002600012F5800F80F09A80BCF1004F08BF5FEA62
:10027000500C50F1000041EB045141EA050130BD42
:100280005FEA4C0C404141EB0101013C28BFB1F554
:10029000801FE9D291F0000F04BF01460020B1FA9F
:1002A00081F308BF2033A3F10B03B3F120020CDA72
:1002B0000C3208DD02F1140CC2F10C0201FA0CF050
:1002C00021FA02F10CE002F11402D8BFC2F1200CB5
:1002D00001FA02F120FA0CFCDCBF41EA0C0190406B
:1002E000E41AA2BF01EB0451294330BD6FEA0404B4
:1002F0001F3C1CDA0C340EDC04F11404C4F120029F
:1003000020FA04F001FA02F340EA030021FA04F3B0
:1003100045EA030130BDC4F10C04C4F1200220FA07
:1003200002F001FA04F340EA0300294630BD21FA45
:1003300004F0294630BD94F0000F83F4801306BF0B
:1003400081F480110134013D4EE77FEA645C18BFFF
:100350007FEA655C29D094EA050F08BF90EA020F96
:1003600005D054EA000C04BF1946104630BD91EA8E
:10037000030F1EBF0021002030BD5FEA545C05D191
:100380004000494128BF41F0004130BD14F58004D0
:100390003CBF01F5801130BD01F0004545F0FE4144
:1003A00041F470014FF0000030BD7FEA645C1ABF79
:1003B000194610467FEA655C1CBF0B46024650EAB0
:1003C000013406BF52EA033591EA030F41F40021DC
:1003D00030BD00BF90F0000F04BF0021704730B562
:1003E0004FF4806404F132044FF000054FF0000137
:1003F00050E700BF90F0000F04BF0021704730B5F8
:100400004FF4806404F1320410F0004548BF4042CC
:100410004FF000013EE700BF42004FEAE2014FEA21
:1004200031014FEA02701FBF12F07F4393F07F4FFC
:1004300081F06051704732F07F4208BF704793F0FF
:100440007F4F04BF41F40021704730B54FF4607412
:1004500001F0004521F000411CE700BF50EA010215
:1004600008BF704730B54FF000050AE050EA0102BE
:1004700008BF704730B511F0004502D5404261EB2E
:1004800041014FF4806404F132045FEA915C3FF46F
:10049000D8AE4FF003025FEADC0C18BF03325FEA0C
:1004A000DC0C18BF033202EBDC02C2F1200300FABD
:1004B00003FC20FA02F001FA03FE40EA0E0021FAE2
:1004C00002F11444BDE600BF80F0004002E000BF2E
:1004D00081F0004142001FBF5FEA410392EA030F2F
:1004E0007FEA226C7FEA236C6AD04FEA1262D2EB79
:1004F0001363C1BFD218414048404140B8BF5B427E
:10050000192B88BF704710F0004F40F4000020F016
:100510007F4018BF404211F0004F41F4000121F02C
:100520007F4118BF494292EA030F3FD0A2F1010276
:1005300041FA03FC10EB0C00C3F1200301FA03F1B4
:1005400000F0004302D5494260EB4000B0F5000FD7
:1005500013D3B0F1807F06D340084FEA310102F196
:100560000102FE2A51D2B1F1004F40EBC25008BF48
:1005700020F0010040EA03007047490040EB000012
:10058000013A28BFB0F5000FEDD2B0FA80FCACF113
:10059000080CB2EB0C0200FA0CF0AABF00EBC25040
:1005A00052421843BCBFD0401843704792F0000F2E
:1005B00081F4000106BF80F400000132013BB5E781
:1005C0004FEA41037FEA226C18BF7FEA236C21D0F7
:1005D00092EA030F04D092F0000F08BF084670475C
:1005E00090EA010F1CBF0020704712F07F4F04D12A
:1005F000400028BF40F00040704712F100723CBF3D
:1006000000F50000704700F0004343F0FE4040F466
:10061000000070477FEA226216BF08467FEA236324
:100620000146420206BF5FEA412390EA010F40F40F
:10063000800070474FF0000304E000BF10F000435B
:1006400048BF40425FEA000C08BF704743F0964342
:1006500001464FF000001CE050EA010208BF70475D
:100660004FF000030AE000BF50EA010208BF7047E4
:1006700011F0004302D5404261EB41015FEA010CF9
:1006800002BF84460146002043F0B64308BFA3F1F1
:100690008053A3F50003BCFA8CF2083AA3EBC253D3
:1006A00010DB01FA02FC634400FA02FCC2F12002F2
:1006B000BCF1004F20FA02F243EB020008BF20F029
:1006C0000100704702F1200201FA02FCC2F120028F
:1006D00050EA4C0021FA02F243EB020008BF20EA84
:1006E000DC7070474FF0FF0C1CEAD0521EBF1CEAB2
:1006F000D15392EA0C0F93EA0C0F6FD01A4480EAA0
:10070000010C400218BF5FEA41211ED04FF0006388
:1007100043EA501043EA5111A0FB01310CF00040B4
:10072000B1F5000F3EBF490041EAD3715B0040EADA
:10073000010062F17F02FD2A1DD8B3F1004F40EBAA
:10074000C25008BF20F00100704790F0000F0CF07D
:10075000004C08BF49024CEA502040EA51207F3A41
:10076000C2BFD2F1FF0340EAC250704740F400001C
:100770004FF00003013A5DDC12F1190FDCBF00F00D
:1007800000407047C2F10002410021FA02F1C2F1BB
:10079000200200FA02FC5FEA310040F1000053EA57
:1007A0004C0308BF20EADC70704792F0000F00F0A5
:1007B000004C02BF400010F4000F013AF9D040EAAB
:1007C0000C0093F0000F01F0004C02BF490011F43F
:1007D000000F013BF9D041EA0C018FE70CEAD1533D
:1007E00092EA0C0F18BF93EA0C0F0AD030F0004CBD
:1007F00018BF31F0004CD8D180EA010000F0004071
:10080000704790F0000F17BF90F0004F084691F02E
:10081000000F91F0004F14D092EA0C0F01D1420268
:100820000FD193EA0C0F03D14B0218BF084608D131
:1008300080EA010000F0004040F0FE4040F400007B
:10084000704740F0FE4040F4400070474FF0FF0C0E
:100850001CEAD0521EBF1CEAD15392EA0C0F93EA55
:100860000C0F69D0A2EB030280EA010C49024FEAA7
:10087000402037D04FF0805343EA111143EA101360
:100880000CF000408B4238BF5B0042F17D024FF418
:10089000000C8B4224BF5B1A40EA0C00B3EB510FF3
:1008A00024BFA3EB510340EA5C00B3EB910F24BFDC
:1008B000A3EB910340EA9C00B3EBD10F24BFA3EB61
:1008C000D10340EADC001B0118BF5FEA1C1CE0D129
:1008D000FD2A3FF650AF8B4240EBC25008BF20F0DC
:1008E000010070470CF0004C4CEA50207F32C2BF30
:1008F000D2F1FF0340EAC250704740F400004FF0CD
:100900000003013A37E792F0000F00F0004C02BFFD
:10091000400010F4000F013AF9D040EA0C0093F0C7
:10092000000F01F0004C02BF490011F4000F013B21
:10093000F9D041EA0C0195E70CEAD15392EA0C0F89
:1009400008D142027FF47DAF93EA0C0F7FF470AFC1
:10095000084676E793EA0C0F04D14B023FF44CAF04
:1009600008466EE730F0004C18BF31F0004CCAD199
:1009700030F000427FF45CAF31F000437FF43CAFD5
:100980005FE700BF4FF0FF3C06E000BF4FF0010CF7
:1009900002E000BF4FF0010C4DF804CD4FEA4002D9
:1009A0004FEA41037FEA226C18BF7FEA236C11D023
:1009B00001B052EA530C18BF90EA010F58BFB2EBD6
:1009C000030088BFC81738BF6FEAE17018BF40F056
:1009D000010070477FEA226C02D15FEA402C05D10A
:1009E0007FEA236CE4D15FEA412CE1D05DF8040B8F
:1009F000704700BF844608466146FFE70FB5FFF722
:100A0000C9FF002848BF10F1000F0FBD4DF808EDD9
:100A1000FFF7F4FF0CBF012000205DF808FB00BFCA
:100A20004DF808EDFFF7EAFF34BF012000205DF824
:100A300008FB00BF4DF808EDFFF7E0FF94BF012071
:100A400000205DF808FB00BF4DF808EDFFF7D2FF6E
:100A500094BF012000205DF808FB00BF4DF808EDB1
:100A6000FFF7C8FF34BF012000205DF808FB00BF7E
:100A70004FEA4002B2F1FE4F0FD34FF09E03B3EBAB
:100A800012620DD94FEA002343F0004310F0004FEB
:100A900023FA02F018BF404270474FF00000704741
:100AA00012F1610F01D1420205D110F0004008BFE0
:100AB0006FF0004070474FF00000704742000ED2C8
:100AC000B2F1FE4F0BD34FF09E03B3EB126209D489
:100AD0004FEA002343F0004323FA02F070474FF03F
:100AE0000000704712F1610F01D1420202D14FF0B4
:100AF000FF3070474FF00000704700BF034613F807
:100B0000012B002AFBD1181A0138704770B54FF03D
:100B1000FF0C4CF4E06C1CEA11541DBF1CEA135589
:100B200094EA0C0F95EA0C0F00F0DEF82C4481EAF1
:100B3000030621EA4C5123EA4C5350EA013518BF11
:100B400052EA033541F4801143F4801338D0A0FBFE
:100B500002CE4FF00005E1FB02E506F00042E0FBAB
:100B600003E54FF00006E1FB03569CF0000F18BFB1
:100B70004EF0010EA4F1FF04B6F5007F64F5407459
:100B800004D25FEA4E0E6D4146EB060642EAC621EC
:100B900041EA55514FEAC52040EA5E504FEACE2E59
:100BA000B4F1FD0C88BFBCF5E06F1ED8BEF1004F5C
:100BB00008BF5FEA500E50F1000041EB045170BDD8
:100BC00006F0004646EA010140EA020081EA03011C
:100BD000B4EB5C04C2BFD4EB0C0541EA045170BD18
:100BE00041F480114FF0000E013C00F3AB8014F192
:100BF000360FDEBF002001F0004170BDC4F10004DB
:100C0000203C35DA0C341BDC04F11404C4F120055B
:100C100000FA05F320FA04F001FA05F240EA0200B6
:100C200001F0004221F0004110EBD37021FA04F6EC
:100C300042EB06015EEA430E08BF20EAD37070BDA6
:100C4000C4F10C04C4F1200500FA04F320FA05F005
:100C500001FA04F240EA020001F0004110EBD37007
:100C600041F100015EEA430E08BF20EAD37070BD77
:100C7000C4F1200500FA05F24EEA020E20FA04F350
:100C800001FA05F243EA020321FA04F001F00041FF
:100C900021FA04F220EA020000EBD3705EEA430E70
:100CA00008BF20EAD37070BD94F0000F0FD101F09F
:100CB0000046400041EB010111F4801F08BF013CD8
:100CC000F7D041EA060195F0000F18BF704703F016
:100CD0000046520043EB030313F4801F08BF013D9D
:100CE000F7D043EA0603704794EA0C0F0CEA135559
:100CF00018BF95EA0C0F0CD050EA410618BF52EA13
:100D00004306D1D181EA030101F000414FF0000018
:100D100070BD50EA410606BF1046194652EA430626
:100D200019D094EA0C0F02D150EA013613D195EA9A
:100D30000C0F05D152EA03361CBF104619460AD1E2
:100D400081EA030101F0004141F0FE4141F47001EC
:100D50004FF0000070BD41F0FE4141F4780170BDDC
:100D600070B54FF0FF0C4CF4E06C1CEA11541DBF41
:100D70001CEA135594EA0C0F95EA0C0F00F0A7F843
:100D8000A4EB050481EA030E52EA03354FEA013170
:100D900000F088804FEA03334FF0805545EA131383
:100DA00043EA12634FEA022245EA111545EA10654B
:100DB0004FEA00260EF000419D4208BF964244F1E2
:100DC000FD0404F5407402D25B084FEA3202B61A01
:100DD00065EB03055B084FEA32024FF480104FF4D5
:100DE000002CB6EB020E75EB030E22BFB61A754649
:100DF00040EA0C005B084FEA3202B6EB020E75EBDC
:100E0000030E22BFB61A754640EA5C005B084FEA43
:100E10003202B6EB020E75EB030E22BFB61A754610
:100E200040EA9C005B084FEA3202B6EB020E75EB1B
:100E3000030E22BFB61A754640EADC0055EA060EDC
:100E400018D04FEA051545EA16754FEA06164FEA1F
:100E5000C30343EA52734FEAC2025FEA1C1CC0D1CB
:100E600011F4801F0BD141EA00014FF000004FF058
:100E7000004CB6E711F4801F04BF01430020B4F119
:100E8000FD0C88BFBCF5E06F3FF6AFAEB5EB030CD1
:100E900004BFB6EB020C5FEA500C50F1000041EBCE
:100EA000045170BD0EF0004E4EEA113114EB5C049B
:100EB000C2BFD4EB0C0541EA045170BD41F480116E
:100EC0004FF0000E013C90E645EA060E8DE60CEA76
:100ED000135594EA0C0F08BF95EA0C0F3FF43BAF93
:100EE00094EA0C0F0AD150EA01347FF434AF95EA4A
:100EF0000C0F7FF425AF104619462CE795EA0C0F2E
:100F000006D152EA03353FF4FDAE1046194622E7FA
:100F100050EA410618BF52EA43067FF4C5AE50EAD4
:100F200041047FF40DAF52EA43057FF4EBAE12E7C4
:100F30004FF0FF3C06E000BF4FF0010C02E000BFA5
:100F40004FF0010C4DF804CD4FEA410C7FEA6C5C88
:100F50004FEA430C18BF7FEA6C5C1BD001B050EA2B
:100F6000410C0CBF52EA430C91EA030F02BF90EA16
:100F7000020F0020704710F1000F91EA030F58BFD5
:100F8000994208BF90422CBFD8176FEAE37040F037
:100F9000010070474FEA410C7FEA6C5C02D150EAD5
:100FA000013C07D14FEA430C7FEA6C5CD6D152EA90
:100FB000033CD3D05DF8040B704700BF8446104655
:100FC00062468C461946634600E000BF01B5FFF754
:100FD000B7FF002848BF10F1000F01BD4DF808ED24
:100FE000FFF7F4FF0CBF012000205DF808FB00BFF5
:100FF0004DF808EDFFF7EAFF34BF012000205DF84F
:1010000008FB00BF4DF808EDFFF7E0FF94BF01209B
:1010100000205DF808FB00BF4DF808EDFFF7CEFF9C
:1010200094BF012000205DF808FB00BF4DF808EDDB
:10103000FFF7C4FF34BF012000205DF808FB00BFAC
:101040004FEA410C7FEA6C5C02D150EA013C0AD1C4
:101050004FEA430C7FEA6C5C02D152EA033C02D1B6
:101060004FF0000070474FF0010070474FEA410217
:1010700012F5001215D211D56FF47873B3EB6252EA
:1010800012D94FEAC12343F0004343EA505311F011
:10109000004F23FA02F018BF404270474FF00000A3
:1010A000704750EA013005D111F0004008BF6FF0E1
:1010B000004070474FF00000704700BF4FEA400209
:1010C0004FEA41037FEA226C02D15FEA402C08D14B
:1010D0007FEA236C02D15FEA412C02D14FF000007D
:1010E00070474FF00100704710B504460E4B18785A
:1010F0004FF47A73B3FBF0F30C4A1068B0FBF3F0D3
:1011000000F0A2F868B90F2C01D901200AE00022F2
:1011100021464FF0FF3000F05FF8054B1C600020C7
:1011200000E0012010BD00BF0000002028000020CA
:101130000400002008B5074A136843F01003136049
:10114000032000F037F80F20FFF7CEFF03F060F820
:10115000002008BD00200240034A1168034B1B78A1
:101160000B441360704700BF1C02002000000020E9
:10117000014B1868704700BF1C02002038B50446B8
:10118000FFF7F6FF0546B4F1FF3F02D0044B1B7892
:101190001C44FFF7EDFF401BA042FAD338BD00BF4F
:1011A000000000204FF0E022136923F002031361D6
:1011B00070470000074AD36823F4E0631B041B0C4C
:1011C000000200F4E060034343F0BF6343F40033E4
:1011D000D360704700ED00E000B5194BDB68C3F346
:1011E0000223C3F1070CBCF1040F28BF4FF0040C1D
:1011F00003F1040EBEF1060F18D9033B4FF0FF3E7A
:101200000EFA0CFC21EA0C0199400EFA03F322EAD3
:101210000303194300280BDB0901C9B200F1604048
:1012200000F5614080F800135DF804FB0023E5E75A
:1012300000F00F000901C9B2024B1954F4E700BFD6
:1012400000ED00E014ED00E00138B0F1807F0BD23A
:101250004FF0E0235861054AF02182F82310002066
:10126000986107221A6170470120704700ED00E085
:10127000044B0022DA61044A136943F0010313614D
:10128000018070472002002000200240194BDB68DB
:1012900013F0100305D0184AD36943F00203D36159
:1012A0001023144AD26812F0040F06D01249CA69FA
:1012B00042F00102CA6143F004030E4AD26912F0FF
:1012C000010F09D00C49CA6942F00402CA610949F8
:1012D000CA6922F00102CA6140F20112934202D0AF
:1012E000044AD3607047034AD36923F00103D361F2
:1012F000704700BF00200240200200200A4B1B69FB
:1013000013F0800F0BD0084B084A5A6002F1883264
:101310005A601B6913F0800F03D100207047002032
:1013200070470120704700BF00200240230167453D
:10133000034A136943F0800313610020704700BF24
:101340000020024038B50446FFF712FF0546164B51
:10135000DB6813F0010F0AD0B4F1FF3FF7D024B1DE
:10136000FFF706FF401BA042F1D903201BE00E4B04
:10137000DB6813F0200F02D00B4B2022DA600A4BFF
:10138000DB6813F0100F0BD1074BDB6913F0010F73
:1013900006D1054BDB6813F0040F01D1002002E0F9
:1013A000FFF774FF012038BD002002402DE9F8430B
:1013B0001E46244B1B7E012B41D004460F4690460F
:1013C000204B01221A764CF25030FFF7BBFF034648
:1013D00078BB012C08D0022C03D04FF004091C4626
:1013E00007E04FF00209FAE74FF00109F7E701348F
:1013F000E4B24C451DD22101C1F12002A1F120032C
:1014000028FA01F106FA02F2114326FA03F319430E
:1014100089B207EB4400FFF72BFF4CF25030FFF787
:1014200091FF094B1D6925F001051D610346002848
:10143000DDD0044A002111761846BDE8F883022366
:10144000FAE700BF2002002000200240064B0022E5
:10145000DA61064B1A6942F004021A611A6942F015
:1014600040021A61704700BF2002002000200240A5
:10147000064B0022DA61064B1A6942F002021A6139
:1014800058611A6942F040021A6170472002002038
:1014900000200240264B1B7E012B46D070B505462E
:1014A0000E46234B01221A760368022B20D04CF201
:1014B0005030FFF747FF90BB4FF0FF333360AC680D
:1014C0000121EA68AB6803EB8223A34228D92046B6
:1014D000FFF7CEFF4CF25030FFF734FF154A136987
:1014E00023F0020313610146B8B904F58064E8E70C
:1014F0004CF25030FFF726FF08B1012110E0012027
:10150000FFF7A4FF4CF25030FFF71CFF0146094AD9
:10151000136923F00403136102E0346000E0012149
:10152000034B00221A76084670BD02210846704718
:1015300020020020002002400C4B9A6803F58063D3
:101540009B68134313F0010F0ED10B6833B142684F
:1015500022F470221343436000207047436823F451
:101560007023436000207047012070470024014031
:10157000836813F0010F0DD1436823F480734A6828
:1015800013434360836823F400630A681343836052
:1015900000207047012070474B68826812F0010FED
:1015A00023D110B4DBB1426822F468428C68234333
:1015B00013434360836823F4602323F481730A6830
:1015C000CC6822430C692243134383604B68C26A90
:1015D00022F470021343C362002010BC70474268BB
:1015E00022F4684213434360E4E7012070470B682C
:1015F000C3F30F2C9CFAACF2B2FA82F276E0A2F1BD
:1016000008044FF00113A34043F080634C68082C9A
:101610002CD01D0E93FAA3F4B4FA84F4A4004FF076
:101620000F0E0EFA04F4465926EA040493FAA3FEB8
:10163000BEFA8EFE4FEA8E0E4E6806FA0EFE44EAA1
:101640000E0444514C68012C1ED0092C1CD00132D0
:101650003CFA02F347D00123934013EA0C0FF6D073
:10166000072ACCD840F201139340CFE70D69C66832
:101670001C0A26EA132694FAA4F4B4FA84F405FAB0
:1016800004F43443C460C4E74FEA136E50F80E40CC
:1016900093FAA3F5B5FA85F5AD00032606FA05F52C
:1016A00024EA050493FAA3F5B5FA85F5AD008E6832
:1016B00006FA05F5254340F80E50CC6893FAA3F6D8
:1016C000B6FA86F6B600042707FA06F625EA0605F6
:1016D00093FAA3F3B3FA83F39B0004FA03F32B43C7
:1016E00040F80E30B3E70020F0BD01323CFA02F3BF
:1016F00006D00123934013EA0C0FF6D0F0B5AFE704
:1017000000207047034B5B68C3F30313024AD35CAA
:10171000D84070470010024080DB0008034B5B6834
:10172000C3F30223024AD35CD84070470010024042
:1017300090DB0008034B5B68C3F3C223024AD35C0F
:10174000D84070470010024090DB00080B4B5B68EC
:1017500003F4803343B90A48084B5B68C3F38343FF
:10176000023303FB00F07047044B5868C0F340405D
:10177000431C0448B0FBF3F0EEE700BF001002404A
:1017800000093D0000127A0008B5054B5B6803F0C4
:101790000C03082B01D0034808BDFFF7D7FFFBE778
:1017A0000010024000127A0010B50446FFF7ECFF6B
:1017B0002060FFF7A7FF6060FFF7B0FFA0606068E0
:1017C000FFF7B8FFE06010BD03681A4A90420AD0E4
:1017D000B0F1804F07D0A2F59432904203D002F5C9
:1017E0008062904203D123F070034A681343114A88
:1017F00090420AD0B0F1804F07D0A2F594329042C7
:1018000003D002F58062904203D123F44073CA688A
:10181000134303608B68C3620B888362054B984255
:1018200005D0436943F001034361002070470B6911
:101830000363F6E7002C0140C36813F4005F01D096
:101840000120704730B585B004460D46C36823F4C7
:10185000B05323F00C034A68C9680A4329690A4354
:101860001343C360AB68026922F44052134303611F
:101870006B69426922F44072134343616846FFF783
:1018800093FF1C4B9C4208D01B4B9C420BD01B4B24
:101890009C420AD0012005B030BD039B43B32A68A7
:1018A0002AB90120F7E7029BF8E7029BF6E703EB72
:1018B000830303EB83039200B3FBF2F31048A0FB16
:1018C000032149090A0192B2642505FB11331B016A
:1018D0003233A0FB0313C3F34F1303F0F0010A44A8
:1018E00092B203F00F0313449BB2A3600020D2E72F
:1018F0000120D0E70038014000440040004800408B
:101900001F85EB51064BA3FB00239B09013B4FF0C6
:10191000E02253610023936105231361704700BFE8
:10192000D34D621082B04FF0E0231B690193019BFD
:10193000B0F1FF3F00D0013038B14FF0E0231B6918
:1019400013F4803FF8D00138F6E702B0704700008A
:10195000014B1860704700BF28000020104B1B7817
:10196000EBB9002112E041F2210080EA43039BB26F
:101970000132072A05D813F4004FF4D15B009BB263
:10198000F6E7084A22F81130013189B2FF2903D85D
:101990000B029BB20022ECE7014B01221A70704748
:1019A000400400204002002070B506460C46154653
:1019B0000B4B1B787BB9FFF7D1FF0CE0214611F8E8
:1019C000013B83EA1623074830F9130080EA06201A
:1019D00086B20C4615466A1E002DEFDC304670BDFF
:1019E0004004002040020020104BD3F8FC2022F0DD
:1019F0008072C3F8FC20D3F8FC2042F08072C3F858
:101A0000FC20A3F55D431A6822F001021A601A68EF
:101A100042F001021A6000225A6000BF00BF00BFFE
:101A20005868B0FA80F04009704700BF00ED00E050
:101A300082B001900A4B5968019B73B1019A094B1E
:101A40001B68A3FB02329B0A43EA82530193044BB7
:101A50005B685B1A019A9342F9D302B0704700BFEA
:101A6000001000E028000020034B1B6830EA03034D
:101A70000CBF01200020704700040140024A136996
:101A800003431361704700BF00040140C1F30F21FD
:101A90000161704708B509680068FEF719FDFEF797
:101AA000E7FF08BD012800D070474FF6FF73994249
:101AB000FAD1094B00229A62DA621A635A639A6376
:101AC000DA631A645A649A64DA641A655A659A6524
:101AD000DA651A665A66E7E7D81D002001604260A1
:101AE000704700BF72B6BFF34F8F084B20221A61B8
:101AF000BFF34F8F0649CA6802F4E062054B1343F7
:101B0000CB60BFF34F8F00BFFDE700BF000801406F
:101B100000ED00E00400FA0508B572B6BFF34F8F80
:101B200070B1192838BF19200646074C20252561B9
:101B30000A20FFF77DFF65613046FFF779FFF4E784
:101B40004FF49676F1E700BF0008014038B504462F
:101B500030B10D46FEF7D2FF431C25540022E2545B
:101B6000204638BD00283DD038B50446FEF7C6FFF4
:101B70008446B0B30022624508D2A35C2D2B05D069
:101B8000303BDBB2092B01D90132F4E7624528D2A0
:101B9000A118A35C2D2B02D00025134607E00132CB
:101BA00020230B700125F8E720218EF800100CF19E
:101BB000FF3098420AD904EB030EE15C302905D1CD
:101BC0000133E15C3039C9B20929EDD94DB19042F8
:101BD00007D9A35C202B01D10132F8E7013A2D236C
:101BE000A35438BD704700BF68B310B504462E211A
:101BF00007F016F9E0B12046FEF780FF8446B8B141
:101C0000421E32B1A35C303BDBB2092B01D9013A51
:101C1000F7E76AB1511C134623B1E05C302801D1CB
:101C2000013BF9E7E05C2E2803D0581C814202D822
:101C300010BD013BF9E79A1A624401322144204465
:101C400006F0ECF9F4E77047024600B9C822074BEA
:101C5000196800E030BF064B5B6C13F0010F04D035
:101C6000024B1B685B1A9342F4D370470C2300208D
:101C700000000240E0B1F1B1134BDB6813F4005FE8
:101C80001CD0124B5B6C13F0010F1AD10F4B18656F
:101C90000F4ADA649A6C120C1204114399644FF4DF
:101CA00080525A605A6C42F001025A640020704718
:101CB0004FF0FF3070474FF0FF3070476FF001007A
:101CC00070476FF00200704700380140000002408A
:101CD0000438014010B5084614461146FFF7CAFF04
:101CE0000020FFF7B1FF204610BD00BF02280FD033
:101CF000032813D0012805D00B4B80225A614022C3
:101D00001A617047084B80221A6140221A6170479D
:101D1000054B80225A6140225A617047024B802253
:101D20001A6140225A6170470008014000B587B02F
:101D30000023059301930293039304930C4B0393A5
:101D400004230493FFF7DAFA78B905A901A8FFF78D
:101D5000A1FB28B9FFF7ECFA002007B05DF804FBFF
:101D6000FFF7E6FA6FF00100F7E74FF0FF30F4E716
:101D700000F00008F8B50027124C0FE02746344663
:101D80000CE02946B5F816510020A1F816014FF4D1
:101D90008C72FFF709FE8542F0D0043404F58C768E
:101DA000094B9E420CD8094D4FF48C7221462846AF
:101DB00006F026F92A68064B9A42E2D00434EDE791
:101DC0003846F8BD00F00008000001084404002077
:101DD0007856341208B5FFF7CDFF38B101464FF4FD
:101DE0008C72044806F00CF9002008BD4FF0FF305B
:101DF000FBE700BFD020002070B586B00020029025
:101E0000039004900590484B04930423059301909C
:101E1000464C474B2360A4F816014FF48C722146C0
:101E2000FFF7C2FDA4F81601FFF768FA002877D182
:101E3000FFF7A0FF0446E0B14FF48C723B4906F077
:101E4000CFF8054668B104F58C7604F50C74394B6F
:101E50009C420FD901A902A8FFF71CFB20B9324E02
:101E600008E0FFF765FA40E0FFF762FA6FF001055E
:101E70003BE02D4E33460021B1F58C7F14D233F870
:101E8000022B92B24FF6FF7082421FD006F58C7281
:101E9000134606F50C7627498E4214D901A902A8EB
:101EA000FFF7F8FAA0B9204E0025204CB5F58C7F3D
:101EB0001ED234F8022B002371190120FFF776FAA5
:101EC00058B90235F2E716460021D5E70231D3E7CB
:101ED000FFF72EFA6FF0020507E001A902A8FFF74D
:101EE000D9FAFFF725FA6FF00305284606B070BD52
:101EF0004FF48C720D49304606F072F8054630B941
:101F0000FFF716FA0C4B4FF0FF321A60EDE701A90C
:101F100002A8FFF7BFFAFFF70BFA6FF00405E4E73A
:101F20004FF0FF35E1E700BF00F00008D0200020AF
:101F30007856341200000108240000202DE9F04FEB
:101F400083B0824691460193002A3ED000260D467A
:101F5000934634465F6800E0044621463846FEF763
:101F6000C1FB8046314655F8040BFEF7B1FA4146F5
:101F7000FEF7B0FABBF1010B26468046ECD148468D
:101F8000FEF758FB01464FF08040FEF75FFC019FD3
:101F90000646B968FEF7A6FB4146FEF7A3FBF968C3
:101FA00005464046FEF79EFB2146FEF791FA314674
:101FB000FEF798FB05F1004501462A465046FFF71B
:101FC0008DFD504603B0BDE8F08F0024A046D6E753
:101FD0002DE9F04F814687B01846174603930291CA
:101FE000FEF728FB01464FF08040FEF72FFC0190E2
:101FF000002F5BD000230093039B002B5FD04FF09A
:10200000000B9A46109B5E46009CD3F8048000E0CB
:10201000064631464046FEF765FB5946FEF758FA3C
:1020200059F824100134FEF755FAA74298BF00244E
:10203000BAF1010AB346EBD10546109BDDF80480E6
:1020400099684046FEF74EFB2946FEF74BFB109B76
:102050000446D9682846FEF745FB3146FEF738FAB4
:102060004146FEF73FFB04F100440146224604A826
:10207000144CFFF733FD029B009DE26803EBC503A0
:1020800004A903C983E80300A2B9237D93B9636A55
:1020900083B994F82C306BB9E36B5BB994F8443096
:1020A00043B92B4601339F420093A5D1002007B0CE
:1020B000BDE8F08F4FF0FF3007B0BDE8F08F00268D
:1020C0003546BAE7901D0020F8B504460E460A4989
:1020D0003046FEF707FB074604F01CFE054638466F
:1020E00004F090FE0746266029462846FEF7F2F9DE
:1020F0006060E560A760F8BDDB0FC940F8B5054634
:102100000E46046800212046FEF78AFCD0B901275C
:1021100024F0004474492046FEF782FCA8B16621F1
:10212000304606F07DFE80B170492046FEF7DAFAAF
:1021300004463846FEF782FA2146FEF7D3FA2860B5
:102140006620F8BD4FF0FF37E2E769492046FEF709
:1021500067FC90B17021304606F062FE68B16549B7
:102160002046FEF7BFFA04463846FEF767FA2146D6
:10217000FEF7B8FA28607020E3E75F492046FEF7D3
:102180004FFC90B16E21304606F04AFE68B15B49C3
:102190002046FEF7A7FA04463846FEF74FFA2146D6
:1021A000FEF7A0FA28606E20CBE755492046FEF7DF
:1021B00037FC90B17521304606F032FE68B15149C6
:1021C0002046FEF78FFA04463846FEF737FA2146D6
:1021D000FEF788FA28607520B3E74FF07E5120465D
:1021E000FEF71EFCE8B948492046FEF719FC002816
:1021F00073D144492046FEF713FC30B36B213046BF
:1022000006F00EFE08B33E492046FEF76BFA044680
:102210003846FEF713FA2146FEF764FA28606B2071
:102220008FE76D21304606F0FBFD0028DBD03649F4
:102230002046FEF757FA04463846FEF7FFF92146D6
:10224000FEF750FA28606D207BE72C492046FEF708
:10225000E7FB90B14D21304606F0E2FD68B126491A
:102260002046FEF73FFA04463846FEF7E7F92146D6
:10227000FEF738FA28604D2063E71E492046FEF736
:10228000CFFB90B14721304606F0CAFD68B118492E
:102290002046FEF727FA04463846FEF7CFF92146D6
:1022A000FEF720FA28604D204BE710492046FEF744
:1022B000B7FBA0B15421304606F0B2FD88B10A49FF
:1022C0002046FEF70FFA04463846FEF7B7F92146D6
:1022D000FEF708FA2860542033E7202031E7202059
:1022E0002FE720202DE700BFCCBC8C2BA95F6358C3
:1022F0005F708930A5D46853BD378635286B6E4E24
:102300006F12833A0024744900007A442DE9F041A9
:1023100063281FD9B0F57A7F28BF4FF47A70844BB9
:102320001860FEF787F98349FEF790FA04F0A6FDDE
:1023300004F0A4FD04F0A2FD04467F49FEF770FB03
:1023400050B94FF07E512046FEF788FB28B14FF080
:102350007E5402E06420E2E7774C784B1E684FF031
:1023600086413046FEF7B4F820F000417448FEF78D
:10237000AFF82146FEF7B6F9054600241CE02046DA
:10238000FEF758F96F49FEF7ADF904F03BFD294619
:10239000FEF7A8F901463046FEF79CF84FF07C5155
:1023A000FEF798F804F0EEFCFEF788FB60F0FF0003
:1023B000654B23F8140001347F2CE0D9634B1B6874
:1023C00013F0010300D00123DCB2594B1868002838
:1023D00000F0A080C00164B15D4B5B685B498A6A14
:1023E0000132B3FBF2F303EB5003B3FBF0F3013B19
:1023F000CB62584B9B6813F0010F00F08B80564B5B
:102400009B6813F0010F00F08580FEF713F9054675
:102410005249FEF719FB28BB51492846FEF714FB29
:10242000002879D14F492846FEF70EFB002875D1C8
:102430004D492846FEF708FB002871D14B49284634
:10244000FEF702FB00286DD149492846FEF7FCFA49
:10245000002869D147492846FEF7F6FA002865D1D9
:10246000072300E0002324B138490A6822F0010262
:102470000A60384DAA6822F00102AA60364EB2689E
:1024800022F00102B260DFF8F0C04FF0007797FA57
:10249000A7F0B0FA80F027FA00F05CF820104FF0B7
:1024A000F87292FAA2FE21F0070192FAA2FE1943F5
:1024B0004CF82010DFF8C4E097FAA7F1B1FA81F1E7
:1024C00027FA01F15EF8210092FAA2FCBCFA8CFC1A
:1024D0004FF4401727FA0CFC4FF0070808FA0CFCE1
:1024E00020EA0C0092FAA2F2B2FA82F227FA02F281
:1024F000934003434EF82130B36843F00103B360C7
:10250000AB6843F00103AB6024B1104A136843F099
:1025100001031360BDE8F0810123A4E70223A2E7D1
:102520000323A0E704239EE705239CE706239AE7FD
:102530002000002000007A44CDCC4C3F0C0000204D
:102540000000FE42DB0F493DE8210020000400406E
:10255000281F0020002401400028014000290B49C9
:10256000002BDE4800298B4800F65148000426481D
:1025700000D6034800C82F470C2401400C28014016
:10258000094B18700023094A1360094A1370094A5D
:102590001370094A1360094A1360094A0121117036
:1025A000084A1370704700BF241F00205C090020F8
:1025B000B6370020AC270020481E0020881D0020D0
:1025C000080000201400002008B5054B01221A70F5
:1025D000044BD868FFF79AFE0020FFF7D1FF08BD33
:1025E00014000020D020002008B5074B01221A70EB
:1025F00068220021054805F02BFD6420FFF786FEC8
:102600000220FFF7BDFF08BD14000020D81D0020E8
:1026100008B5074B01221A7068220021054805F011
:1026200017FD6420FFF772FE0320FFF7A9FF08BD26
:1026300014000020D81D00202DE9F04186B002AC26
:1026400084E80300694681E80C00029D009E314643
:102650002846FEF747F80446039FDDF8048041460C
:102660003846FEF73FF801462046FDF733FF0446A3
:1026700041462846FEF736F8054639463046FEF70D
:1026800031F801462846FDF723FF054604940590DE
:1026900000212046FEF7BAF918B1064806B0BDE899
:1026A000F0812146284604F0E7FB0349FEF71AF8BB
:1026B000F4E700BF0000C07FE02E654270B584B033
:1026C0000C461249FEF70EF8054610492046FEF763
:1026D00009F80446284604F01DFB0646284604F087
:1026E00091FB00960190204604F014FB054620461D
:1026F00004F088FB0295039004AB13E90C006946D3
:1027000003C9FFF799FF04B070BD00BF35FA8E3CD6
:102710002DE9F04385B0674B01221A704FF0000994
:10272000A1E0654B9B789BB1644B03EB4928644B5C
:10273000009380231A4663494046FFF749FC00286E
:102740004BDB002400256CE05B4BDB78002BEBD1EE
:102750005A4E06EB4926002400257F2C15D856F842
:1027600024000146FDF7BEFF01462846FDF7B2FEF4
:1027700005460134F1E7504B9B78002BE8D1D3E7B5
:102780004D4BDB78002BCFD0E2E74FF0705128465D
:10279000FDF7A8FF04F072FB4B4B03EB8903586075
:1027A000474B8022314602A8FFF7C8FB029C00215C
:1027B0002046FEF72BF938B1444909F10802424B93
:1027C00003EB820359604CE02146039804F054FB6C
:1027D0003F49FDF787FF0146EFE7364B00221A70AD
:1027E0004FF0FF3063E0374B03EBC40393E8030083
:1027F00004AB03E90300029E31463046FDF772FF49
:10280000074603980146FDF76DFF01463846FDF780
:1028100061FE01462846FDF75DFE054648F8246046
:1028200001347F2CDFD94FF070512846FDF75AFF55
:1028300004F024FB244B03EB89035860204B8022D7
:10284000414602A8FFF77AFB029C00212046FEF7D2
:10285000DDF808B31D4809F108031B4A02EB8303A6
:10286000586009F10109B9F1070F1DD84FEA590362
:10287000184A1278002A7FF457AF032B3FF654AF63
:1028800001A252F823F000BF2327000849270008BF
:1028900077270008812700082146039804F0ECFA06
:1028A0000B49FDF71FFFD6E70020024B187005B05B
:1028B000BDE8F083AC2700206019002060090020EB
:1028C000501E0020AC230020102300200000C07FF9
:1028D000E02E6542241F00202DE9F04383B081469D
:1028E00088460025009501950024274625E0334BB6
:1028F0009B780BB3631C324E06EB83035968284662
:10290000FDF7E8FD054604F1090306EB83062D49B2
:102910007068FDF7E7FE064604F0FCF901460098F2
:10292000FDF7D8FD0090304604F06CFA014601989E
:10293000FDF7D0FD019001370234072C21D8224B3E
:102940001B78002BD6D16308032BD3D801A252F8F1
:1029500023F000BFEF280008652900086F29000850
:1029600079290008154BDB78002BC3D1E4E7134B22
:102970009B78002BBED0DFE7104BDB78002BB9D063
:10298000DAE73846FDF756FE01462846FDF75EFFBA
:10299000C9F80000009C00212046FEF737F828B156
:1029A0000A48C8F8000003B0BDE8F083214601984A
:1029B00004F062FA0649FDF795FEF2E7641900207B
:1029C0001023002035FA8E3C241F00200000C07F19
:1029D000E02E65422DE9F04184B04B4B1B78002B73
:1029E00063D14A4B1B68002B5FDB002524E005EB1D
:1029F000450323441833454A02EB830359683046A4
:102A0000FFF75CFE04AB03EB840343F80C0C0134CA
:102A1000022CECD93E4B042203210DEB020006F000
:102A200059F831460298FDF755FD05F10802394B7A
:102A300003EB820358600135072D2AD8334C2368F5
:102A4000344E06EB8508D8F8042005EB45073B44D7
:102A500004EB83035A6004EB870201AB5068916872
:102A6000D26807C32A4B042203210DEB020006F0B3
:102A700031F8029BC8F8043005F1080306EB830621
:102A8000766823681F44183704EB870466600024C7
:102A9000BEE71E4A136801331360022B02DD1346A2
:102AA00000221A6004B0BDE8F0810020174B1860C6
:102AB0000AE000EB4002D118144A02EB8102546094
:102AC0000133022BF5D90130072805D8114B03EB50
:102AD00080035C680023F4E700200BE000EB400378
:102AE00013441833094901EB83035C600132022A65
:102AF000F4D901300728D5D800F10803054A02EBC4
:102B000083035C680022F2E74C1E0020601E002058
:102B1000951A0008102300202DE9F04100283AD032
:102B2000294B2A4D1A782B78134334D1284B1B7824
:102B3000032B30D8274E80463378274C0BB12368BF
:102B40005BBB0023254842F220013370FEF79EFF55
:102B50002768234808F1080300EB870000F5807E12
:102B600033F8081C33F8048C33F8062C33F802CC05
:102B70004144C1F34E0120F8041B6244C2F34E02EB
:102B8000864520F8022C03F10803E9D140377F2F56
:102B90000AD8276006E0104C236840337F2B88BF9B
:102BA00000232360BDE8F081012300221020337050
:102BB00022602B70FEF758FF0028F3D0BDE8F041EB
:102BC0001020FEF75BBF00BF14000020AC270020E0
:102BD000B637002008000020881D002000080140B2
:102BE000AC230020384B1B688B4267D30128F0B51B
:102BF000044634D0032862D0012863D9012000257F
:102C00003249334A01F1040C02F5007E32F9043BEB
:102C10005CF8047CA3F5006300FB03F31BB21F44C4
:102C200032F8026C4CF8047C4F68A6F5006636B2A8
:102C30003E44002B4E6035DBAB4238BF2B4672451D
:102C400001F108010CF1080C9DB2DFD1214A135D9E
:102C5000B5F5FA6F28BF43F001031355F0BD4FF0EF
:102C6000FF371A4A1A4B111D03F5007EB3F90060B5
:102C700051F8040CA6F5006607FB0606B3F902003E
:102C800041F8046CA0F5006550680433284473458E
:102C9000506001F1080102F10802E7D100220D4B5A
:102CA0001A55F0BDDB43AB4238BF2B46724501F1EC
:102CB00008010CF1080C9DB2A8D1C7E770474FF688
:102CC000FF709CE70127CCE75C0900205C05002031
:102CD000AC230020641900202DE9F04F80465E4BA4
:102CE00085B01B685D4D581A4FEA480301930133C4
:102CF00005EB432605EB8824009303940296FDF729
:102D000099FC01464FF07E50FDF7A0FD251F341FB2
:102D10002646A9460746DFF848B10BF5806ADBF87E
:102D20000000FDF78BFC3946FDF7DCFC49F8040F89
:102D3000DBF80400FDF782FC3946FDF7D3FC0BF10C
:102D4000080BDA4546F8040FE9D1464B1F78012FEE
:102D500042D0454B1B68032B444B88BFDFF810A1C2
:102D600013F808308EBFDFF80CB1DFF80CA1DFF8E4
:102D70000CB1002B3CD0424BDFF808811B68039359
:102D80000026A1463046029B03F5FE7559F8041F44
:102D9000FDF7A0FB4D45F9D1DDF80090064658F847
:102DA00029105846FDF79EFC0346514630461E4604
:102DB000FDF798FC01463046FDF78CFB039B064669
:102DC00048F8290003B13FB154F8040F3146FDF72C
:102DD0007FFBA5422060F7D14FF48062002120489C
:102DE00005F036F900231C4A136005B0BDE8F08FEA
:102DF0004FF00009A8464846039B03F5FE7658F8B5
:102E0000041FFDF767FB4645F9D1019BDFF874808D
:102E1000814658F823105846FDF764FC0346514696
:102E200048469946FDF75EFC01464846FDF752FBD1
:102E3000134B019A1B688146039348F8220043B95B
:102E400055F8040F4946FDF743FBAE422860F7D121
:102E500096E7002F94D0F3E75C090020600900207A
:102E60005C050020241F0020481E0020641900205B
:102E70009A99193B3333333F6666E63BD0CCCC3D61
:102E8000401E002068190020714B1B68002B40F089
:102E90004382704B1B78002B40F03E826E4B1B78B8
:102EA000012B00F039822DE9F04F89B0FFF730FC9B
:102EB0000028C0F2F68107A906A8FFF70DFD069AC3
:102EC000664B9A601A619A611A62079A9A621A634B
:102ED0009A631A64604B1B78002B00F0AA80604B49
:102EE0001E78B20002925D4C04EB0613D3F80490F6
:102EF000C4F84490551C04EB8503D3F80480C4F84F
:102F00004880584B93F800A04FEA8A039A1C04EBC0
:102F100082025068E064033304EB8303D3F804B007
:102F2000C4F850B0504B1F683946FDF7DBFB0390E7
:102F3000E06439465846FDF7D5FB049020654B4BBD
:102F400019684FF07E50FDF781FC0190002E73D080
:102F50008346BAF1000F72D0019C59464846FDF7EE
:102F6000C1FB81463D4E706459464046FDF7BAFBB1
:102F7000B06421460398FDF7B5FB8046F064214616
:102F80000498FDF7AFFB306541464846FDF75EFC0F
:102F900004467065304B1B78002B40F08380344B27
:102FA0001B68B3F5967F94BF4FF000084FF00108FF
:102FB000304BDE7C16F0020A44D003EB8813D3F8C2
:102FC0001490D96A3846FDF78DFB0199FDF78AFB0D
:102FD00001464846FDF73AFC814616F0040F34D00E
:102FE000244B03EB88180199D8F8A400FDF77AFB6D
:102FF0008346D8F89C103846FDF774FB01465846C6
:10300000FDF724FC06F00606062E35D0BAF1000FB7
:1030100043D049462046FDF765FB06462146484613
:10302000FDF756FA01463046FDF710FC0B4B58658C
:1030300033E0FFF7CFFC52E74FF07E5B89E74FF0BC
:103040007E548AE74FF00009C7E70020DAE700BFA7
:10305000401E002014000020241F00201023002008
:10306000B73700208C1D0020180000201000002021
:1030700020000020D02000202146FDF729FA064636
:1030800049462046FDF724FA01463046FDF7DEFBAF
:103090004946FDF727FBA14B5865A04A536D23F025
:1030A000004353659D4C083504EB8505029B0833AE
:1030B00004EB830369685868FFF700FBA065984B31
:1030C0001B789B0003F10B0204EB82020A3304EB32
:1030D000830351685868FFF7F1FA0146E065A06D77
:1030E000FFF7ECFA064620668E4B1868FDF7A2FA49
:1030F0008D49FDF7F7FA07468C493046FDF7F2FA9D
:10310000054603F007FE8146284603F07BFE054690
:10311000D4F8548049464046FDF7E4FA044625F0C9
:1031200000414046FDF7DEFA054600212046FDF746
:103130006DFC002840F0B58000212846FDF766FCB4
:10314000002840F0AE8000213846FDF75FFC0028E3
:1031500040F0A78039462846FDF778FB01902946C4
:103160003846FDF7BFFA01464FF07E50FDF76EFB83
:10317000029029462046FDF769FB03902146284628
:10318000FDF764FB049021462046FDF7ABFA81462B
:1031900029462846FDF7A6FA01464846FDF79AF962
:1031A00082462146FDF752FB814629465046FDF7EF
:1031B0004DFB82463946FDF749FB8346514638466A
:1031C000FDF790FA01464FF07E50FDF73FFB0746B2
:1031D00051464846FDF73AFB059049465046FDF7F3
:1031E00035FB4E4B019A9A66029A5A66DC661C675A
:1031F000039A5A67049A9A67DD67C3F884B0C3F8E4
:103200008070C3F88890C3F88C90059AC3F890201A
:10321000C3F89400C3F898A0454B1D783DB9454BC1
:103220001B7C032B40D0434B5B7C022B52D0002DE8
:1032300037D141490198FDF711FC08B13E4B01938C
:10324000364B019A9A6600210298FDF7E9FB0028A7
:103250005DD1324B029A5A6638492046FDF7FEFB93
:1032600000B1364C2D4BDC6633495846FDF7F6FB72
:1032700008B1DFF8C4B0294BC3F884B00021384648
:10328000FDF7CEFB002845D1244BC3F880702B49B5
:103290004846FDF7E3FB08B1DFF8A0901F4BC3F8E9
:1032A000889009B0BDE8F08F25493046FDF7B8FB9E
:1032B00018B1244B00221A70B5E723493046FDF7B8
:1032C000CDFB18B11F4B01221A70ACE71D4B022237
:1032D0001A70A8E726F000401C49FDF7A1FB18B1C1
:1032E0001B4B00221A70A2E713494046FDF7A2FBD0
:1032F00018B1174B00221A7099E716494046FDF79E
:10330000A3FB002893D0124B01221A708FE70023F1
:1033100002939EE70027B7E7704700BF1023002005
:103320008C1D002020000020DB0FC94035FA8E3CA8
:10333000241F0020D020002000007A4420BCBE4C76
:10334000000020C01C000020000020400000A04021
:10335000E822002000401C462DE9F0414F4B1E782A
:10336000002E6BD14E4B1B78002B67D04D4B1C7839
:10337000E4B2032C5FD84C4B1F5D1CB94B4B1B6850
:10338000002B5DD04A4B1D6805EB8505C5F355251F
:1033900005B9012529463846FFF724FC404B002299
:1033A0001A70434B1B68D901C3F3D503414A127805
:1033B000002A65D1404A1268002A4ED08B0B002BA0
:1033C0006AD03E4A2021516138490A6801320A60B8
:1033D0002B449A4232D304F10108334B13F808000E
:1033E000FEF784FC29463846FFF776FC5FFA88F43E
:1033F0002C4B1C70B8F1030F20D9042230493148FE
:1034000004F0EEFD00B101262F4B1E702C4A13680C
:103410002C490B600021116013F47F0F08BF0121BC
:103420002A4A11701B0E0CBF01220022284B1A7071
:10343000FFF72AFD02E01A4B00221A70BDE8F08166
:103440003846FEF753FC4FF480620021214804F017
:10345000FFFD1B4B00221A6094E7194AD25DBAB9EE
:10346000012F06D91C4AD27C12F0010FA7D04B0BBA
:10347000A5E7BA1C1348825C002AF3D10123A0E718
:10348000012A07D00E4AD25D002A98D0012398E77E
:10349000012396E7082394E7012392E71400002014
:1034A000AC270020B63700208CDA00085C09002029
:1034B00020000020241F0020401E002000080140A2
:1034C00064190020601900204C1E0020B73700202E
:1034D0008C1D00205C050020D02000202DE9F0414B
:1034E00082B0884614461E469DF8205021F00047C1
:1034F000032842D0052800F08C8002281CD06C499B
:103500003846FDF78DFA002862D16A493846FDF742
:1035100087FA002867D168493846FDF781FA002804
:103520006CD04046FCF778FFCDE90001634A314694
:10353000204605F021FC0EE05D493846FDF770FAA3
:1035400080B14046FCF768FFCDE900015C4A314696
:10355000204605F011FC002D40F0A680204602B068
:10356000BDE8F0814046FCF757FFCDE90001554A20
:103570003146204605F000FCEDE74D493846FDF7A1
:103580004FFA78B94B493846FDF74AFAA8B1404698
:10359000FCF742FFCDE900014B4A3146204605F0D9
:1035A000EBFBD8E74046FCF737FFCDE90001474A7F
:1035B0003146204605F0E0FBCDE74046FCF72CFF06
:1035C000CDE90001424A3146204605F0D5FBC2E76D
:1035D0004046FCF721FFCDE900013E4A3146204636
:1035E00005F0CAFBB7E74046FCF716FFCDE900013E
:1035F000394A3146204605F0BFFBACE74046FCF7B0
:103600000BFFCDE90001354A3146204605F0B4FBF9
:10361000A1E727493846FDF703FAC8B925493846D6
:10362000FDF7FEF9F8B924493846FDF7F9F928BB4A
:103630002B493846FDF7F4F958B34046FCF7ECFE49
:10364000CDE90001274A3146204605F095FB82E787
:103650004046FCF7E1FECDE90001234A3146204611
:1036600005F08AFB77E74046FCF7D6FECDE900017E
:103670001E4A3146204605F07FFB6CE74046FCF7CA
:10368000CBFECDE900011A4A3146204605F074FB15
:1036900061E74046FCF7C0FECDE90001154A31461E
:1036A000204605F069FB56E72046FEF75BFA55E732
:1036B000000020410000C84200007A4440D50008C4
:1036C00008D5000810D5000820D5000818D5000836
:1036D00028D5000830D5000838D5000848D500089E
:1036E00000401C4668D5000850D5000858D5000891
:1036F00060D5000870D5000808B503F023F902F082
:10370000B7FF012002F08AFF02F096FF4FF44870E5
:10371000FEF708F908BD00BF38B5002002F07EFFB3
:103720000021084603F06AF8264C0122214626486B
:1037300003F056F8254D264B9A682649284605F091
:103740004FFB0021042003F067F8012221462846A0
:1037500003F046F8204A2149284605F041FB284657
:10376000FDF7CCF9237803FB00F0C0F180000021C5
:1037700080B203F043F801222146284603F030F8D6
:103780000F210D2003F03AF801221549154803F0E6
:1037900027F82321002003F031F8012221461248A6
:1037A00003F01EF86178C1F13F0189B2002003F0F7
:1037B00025F8012221460D4803F012F802F03CFFE3
:1037C00038BD00BFB0D1000878D50008EC22002039
:1037D000D020002080D5000884D500088CD50008B2
:1037E000A0D1000890D500089CD50008A8D50008F5
:1037F00038B50C4C0C4B1B680C4A2021204605F0B8
:10380000BBFA0B4D2878C0F180001C2180B202F079
:10381000F5FF01222946204602F0E2FF02F00CFFEC
:1038200038BD00BFEC22002010230020B8D50008CE
:10383000B0D100082DE9F0478AB0A74B1C7804EB03
:10384000C407002002F0EAFEA44B1B78002B40F0D6
:103850006C8304ADA24E0FCE0FC596E8030085E839
:103860000300A04B5B7C012B7FD0022B74D0002B7C
:1038700070D09D4D0021084602F0C0FFDFF858923D
:1038800001224946284602F0ABFF0021204602F003
:10389000C3FF964B1868FCF7CDFE0490944904A82A
:1038A000FEF72CFC0646934D4FF00108CDF8008042
:1038B00020232A4604990420FFF710FE2846FEF72D
:1038C00093F931462846FEF741F9424649462846D3
:1038D00002F086FF00232B70824BDB7C13F0020F7B
:1038E00047D04F218348FEF731F97E4BDB7C13F044
:1038F000040F40D053217F4E3046FEF727F9A5B282
:10390000A4EBC4008030002180B202F077FF0122D6
:103910007149304602F064FFC4F12000800080B29B
:10392000002102F06BFF744B1B6833B301226A491C
:10393000724802F055FF00230493714B1E7876B352
:10394000012E4FD06F4B1B78012B57D06E4BDB6E87
:1039500004932BE06D4D8DE76A4B1B783BB1012B37
:1039600001D06B4D86E76B4D84E76B4D82E76B4D65
:1039700080E72D21B6E72D21BDE75E4E4FF001080F
:10398000CDF80080202332465F49096E0420FFF7FE
:10399000A5FD42465049304602F022FFCBE7594B85
:1039A0001B78012B1AD0584B9B6E049320220021C8
:1039B000504804F04DFB2EB3012E67D0584904A89F
:1039C000FEF79CFB06466D287BD001230093202345
:1039D000484A04990420FFF781FD22E04A4BD3F8BE
:1039E0008430E2E7474B1B78012B03D0464B5B6EDC
:1039F0000493DBE7444BD3F88030F9E7424BD3F82C
:103A00008830A5E7474904A8FEF778FB06467528E5
:103A100031D0012300932023364A04990420FFF774
:103A20005DFD1021002002F0E9FE01223E493148EF
:103A300002F0D6FE0121062002F0EEFE304B1B788C
:103A4000002B79D0012B00F0B880202E40F0CA80E6
:103A50000021032002F0E0FE03A902A802F0D4FE38
:103A6000122300930D23314ABDF80C10BDF8080055
:103A700002F0EEFE6FE00498FCF7CEFCCDE9000109
:103A80002B4A20211B4805F077F9CAE7294904A8E9
:103A9000FEF734FB0646702808D00123009320234C
:103AA000144A04990420FFF719FDBAE70498FCF7BB
:103AB000B3FCCDE900011E4A20210E4805F05CF957
:103AC000AFE70498FCF7A8FCCDE90001184A2021D3
:103AD000084805F051F9A4E7B0D10008241F0020E0
:103AE00090B40008D0200020CCD100082000002095
:103AF000F4D50008EC220020401E0020D8D5000894
:103B00001C000020E822002010230020B8D100086B
:103B1000C8D10008C4D10008BCD10008C0D1000839
:103B2000F8D50008E0D50008A8D1000868DA000838
:103B3000E8D50008F0D50008944B00221A70202E1A
:103B400036D1924E48213046FEF700F801229049C6
:103B5000304602F045FE8D4B00221A708D4B1B78CB
:103B6000002B4ED048218948FDF7F0FF8A4B1B7887
:103B7000002B48D04821854E3046FDF7E7FFC5EBC6
:103B80008530C5EB80008030242180B202F036FE03
:103B900001228249304602F023FE814B1B7C032B1D
:103BA00000F2ED80DFE813F03100DF00E300E70012
:103BB00031461846FDF7CAFFC3E7744B00221A705E
:103BC000202E0AD1714E46213046FDF7BFFF01225B
:103BD0006F49304602F004FEBDE731461846FDF756
:103BE000B5FFEFE7DFF8A481002388F80030314605
:103BF0004046FDF7ABFF01226549404602F0F0FD6B
:103C000026E74C21AFE74C21B5E7604B4C221A70F8
:103C10005E4B00225A70624BDB7C13F0010F00F008
:103C2000B2804621594E3046FDF790FF3046FCF7F2
:103C300065FF05FB00F0C0F18000242180B202F096
:103C4000DDFD01225549304602F0CAFD554B1B7877
:103C5000012B40F2B780544B1E6E26F000405349B2
:103C6000FCF7DEFE002800F022814D4BDB7C13F0D8
:103C7000010F00F01A8110224D4B1B681A420CBF35
:103C800001230023002B40F028814A4B1B78012B95
:103C900000F01A81444B9B6E0493474904A8FEF739
:103CA0002DFA0546012300932023384A0499042065
:103CB000FFF714FC202D40F00B8148213348FDF71D
:103CC00045FF324E3046FDF78FFFDFF8D08098F881
:103CD0000150C5F13F05ADB22946002002F08EFD2E
:103CE00001224146304602F07BFD324B1B78012B0E
:103CF00000F017812C4B9B6F0493304904A8FEF70A
:103D0000FDF906462946384602F078FD234F012288
:103D100039462B4802F064FD1C4D4FF00108CDF8E8
:103D2000008020232A4604990320FFF7D7FB28466A
:103D3000FDF75AFF31462846FDF708FF002124FA17
:103D400008F002F069FD42463946284602F048FD77
:103D5000134B9B7C032B00F24082DFE813F00F0231
:103D6000320236023A02094B43221A7050E7074BDF
:103D700052221A704CE7054B41221A7048E7034B58
:103D80003F221A7044E720214CE700BFEC220020BC
:103D9000A0D10008B73700208C1D0020B0D100084A
:103DA000D02000201C000020102300200000204014
:103DB000481E0020E8220020E0D50008F4D50008C5
:103DC00004D600088F4B1B78012B66D08E4B1B6FDF
:103DD00004938E4904A8FEF791F98046DFF83092EB
:103DE00099F80150C5F13F05ADB22946002002F017
:103DF00005FD01224946874802F0F2FC864E4FF04D
:103E0000010ACDF800A02023324604990320FFF7D1
:103E100065FB3046FDF7E8FE41463046FDF796FE6D
:103E200024FA0AF80021404602F0F6FC52464946C0
:103E3000304602F0D5FC734B1B78534531D0724BA2
:103E40009B6F0493754904A8FEF758F90646294666
:103E5000384602F0D3FC6E4F01223946704802F01A
:103E6000BFFC6D4D4FF00109CDF8009020232A468C
:103E700004990320FFF732FB2846FDF7B5FE3146D3
:103E80002846FDF763FE0021404602F0C5FC4A4685
:103E90003946284602F0A4FC5AE75B4BD3F88C3035
:103EA00096E7594BD3F89430CBE70422E4E64FF081
:103EB000010500213046FCF7B3FD08B94FF00005BD
:103EC000EBB283F00103DDE64F4BD3F88430E3E639
:103ED00029465148FDF73AFEEFE64A4B1B78012B85
:103EE00016D0494B5B6E04934E4904A8FEF706F9C1
:103EF0000546012300932023474A04990420FFF735
:103F0000EDFA202D08D146214348FDF71FFED8E6E3
:103F10003D4BD3F88030E6E729463F48FDF716FED3
:103F2000F1E7394BD3F89430E6E6012B3ED09A1EE8
:103F3000D2B2012A3FF60CAF022B4BD03A4A3B4B90
:103F40005B68354DC3F103032021284604F014FFBC
:103F50000021084602F052FC01223549284602F0B1
:103F60003FFC294B5D6C00212846FCF76DFD0028C5
:103F700032D00295244BDE6C00213046FCF764FD04
:103F800060B303962B4B93F80080B8F1020F27D053
:103F900029492846FCF762FD002857D14FF07E5191
:103FA0003046FCF73DFD58BB012350E01F4B5B68DA
:103FB000194DC3F10303214A2021284604F0DCFEF9
:103FC0000021084602F01AFC01221949284602F095
:103FD00007FCBDE61A4AB2E70025CAE70026D0E78B
:103FE00018492846FCF71CFD30B917493046FCF744
:103FF00035FD18B100232AE0002328E0012326E044
:10400000002324E0E822002010230020F8D5000837
:10401000B0D1000800D60008EC220020F4D500083A
:1040200004D60008F0D50008BCD50008D81D002033
:10403000A0D10008241F0020CDCCCC3E08D600081B
:10404000CCD500080000614482A87B380023002BF7
:104050006CD1B8F1020F00F08480FEF7D9FA614B01
:10406000614A07CA83E80700604D6978083100207B
:1040700002F0C4FBDFF86C8101222946404602F0C1
:10408000AFFB5B4902A8FEF739F80646DFF86491FA
:1040900099F80150C5F13F05ADB22946002002F064
:1040A000ADFB01224946544802F09AFB01230093DC
:1040B0002023424602990320FFF710FA202E53D105
:1040C000DFF820814046FDF78FFD0021042002F03B
:1040D000A3FBDFF8209101224946404602F080FB15
:1040E000464903A8FEF70AF806462946384602F074
:1040F00085FB01224946424802F072FB01230093EE
:104100002023424603990320FFF7E8F9202E30D1FF
:10411000344D2846FDF768FD0021042002F07CFBA9
:1041200001223449284602F05BFB11E6354B186842
:10413000FCF780FA0490344904A8FDF7DFFF064637
:10414000284D0123009320232A4604990420FFF7D9
:10415000C5F92846FDF748FD31462846FDF7F6FC2F
:1041600082E7FEF741FA7AE731464046FDF7EEFC7A
:10417000A6E731464046FDF7E9FCC9E7194B202286
:104180001A70184D00236B702846FCF7B7FC194EC7
:104190007178C1F13F0104FB00F0C0F1810089B2E8
:1041A00080B202F02BFB01223146284602F018FBB8
:1041B00002F042FA154A1368013313600AB0BDE8F1
:1041C000F087084B41221A70DBE7064B42221A7037
:1041D000D7E7044B44221A70D3E7024B45221A70EA
:1041E000CFE700BFEC22002018D60008A0D10008BD
:1041F000F8D50008B0D1000824D60008E0D50008A2
:1042000028D6000820000020F4D50008441E002015
:10421000704700BF08B53F4A136823F0070343F017
:10422000020313603B4B1B6803F00703022BF9D119
:10423000394A136843F480331360374B1B6813F417
:10424000003FFAD0344A536A43F001035362324BC1
:104250005B6A13F0020FFAD02F4A536823F47C13E1
:1042600043F4E8135360136843F0807313602A4BE0
:104270001B6813F0007FFAD0274B5A6822F0F00237
:104280005A605A6822F4E06242F480625A605A68C6
:1042900022F460525A605A6822F0030242F002028D
:1042A0005A601D4B5B6803F00C03082BF9D11B48C7
:1042B000FDF74EFB184A536823F4404343F4004390
:1042C0005360FCF76FFF164B1868FDF71BFB154B8F
:1042D000DA68C2F30222C2F10703042B28BF0423C9
:1042E0001946131D062B13D9033A4FF0FF338B40A9
:1042F000DB4303F0040393401B01DBB2094A82F85D
:1043000023304FF0E022136943F00203136108BD2C
:104310000022EAE7002002400010024000A24A0406
:104320002800002000ED00E02DE9F0478AB0A74A00
:10433000136823F001031360A54B9A6942F004024D
:104340009A619A6902F004020492049A9A6942F40A
:1043500000729A619A6902F400720392039A9D4C6A
:10436000216840F2011595FAA5F2B2FA82F29200A4
:104370000F2000FA02F221EA020295FAA5F5226066
:1043800040F2022595FAA5F1B1FA81F1890000FA0F
:1043900001F122EA010295FAA5F522608E498A68A8
:1043A00022F001028A6001F580618A6822F0010230
:1043B0008A605A6942F001025A615B6903F00103A5
:1043C0000293029B854B9A6822F001029A609A68D8
:1043D00022F4804222F010029A609A6822F440523D
:1043E00042F400529A609A6842F020029A609A68F9
:1043F00022F040029A609A6842F080029A609A68BD
:1044000022F4407242F400729A609A6822F4406288
:1044100042F400629A60724A1A61724A5A61DA681A
:10442000120C120442F48072DA6001225A609A6817
:1044300042F008029A609A6842F004029A609A6810
:1044400042F002029A60684BDA68C2F30222C2F1BB
:104450000703042B28BF04231946131D062B40F223
:10446000B280033A4FF0FF338B40DB4303F003038A
:1044700093401B01DBB25D4A82F80B334FF40063BB
:104480001360002405940694534D05A92846FDF7B2
:104490006FF805944FF48033059305A92846FDF77E
:1044A0004BF8059406940794089409944FF400235C
:1044B00005934FF48073099305A92846FDF76CF81E
:1044C0004B494FF4407797FAA7F3B3FA83F34FF4CD
:1044D000007929FA03F351F8232022F01F0241F852
:1044E000232020394FF0007A9AFAAAF3B3FA83F323
:1044F0002AFA03F351F823204FF0F87898FAA8F03D
:1045000022F0070298FAA8F041F82320304B9A696C
:1045100042F480629A619B6903F480630193019B7A
:1045200005940694334E05A93046FDF721F805940D
:1045300006940794089409944FF460230593022489
:10454000089405A93046FDF727F82B4A97FAA7F7F4
:10455000B7FA87F729FA07F752F8273023F01F0335
:1045600043F0010342F82730244F9AFAAAF3B3FA32
:1045700083F32AFA03F357F8232098FAA8F0B0FA45
:1045800080F04FF4401121FA00F00721814022EA27
:10459000010298FAA8F847F82320AB6843F001031A
:1045A000AB60B36843F00103B3602046FDF7BAF98E
:1045B000134B1A68AB6843F00403AB60B36843F075
:1045C0000403B36024E000224CE700BF0004004075
:1045D0000010024000080140002401400000024099
:1045E0004C2401408819002000ED00E000E100E0CB
:1045F0002C240140002801402C2801400C280140B7
:104600000C2300201C4B1B689B1A632B0AD830BF5D
:104610001A4B9B6813F0040FF4D1194B9B6813F0ED
:10462000040FEFD10220FDF77DF9154A936823F0BE
:1046300001039360114B996821F0010199601148C1
:10464000816841F0010181606FF002011160196021
:10465000916841F001019160996841F00101996010
:10466000916841F4A00191609A6842F480129A60C6
:104670000AB0BDE8F08700BF0C23002000240140F1
:10468000002801400000024030B589B03E4A53691D
:1046900043F001035361536903F001030293029B4A
:1046A0003A4C236B23F001032363236B23F48043F1
:1046B00023F0100343F010032363236B43F44053B0
:1046C0002363236B43F020032363236B23F0400316
:1046D0002363236B43F080032363236B23F4407332
:1046E00043F480732363236B23F4406343F48063B8
:1046F0002363274BE363274BA363636B1B0C1B04F0
:1047000043F08003636300230393049305930693AC
:104710000793D36943F00203D361D36903F0020323
:104720000193019B1C4B1A68D2011C4B5B6803EB85
:104730005203B3FBF2F3013B0593194D03A928463D
:10474000FDF742F82B6843F080032B60AB6823F43D
:10475000804323F00703AB606B6823F0700343F0E2
:1047600020036B60AB6823F08003AB60EB6843F41D
:104770008073EB60236B43F0010323632B6843F0EA
:1047800001032B6009B030BD001002400000024060
:10479000E82100200C0C014020000020281F0020F0
:1047A0000004004030B58BB0704CA36943F48043E3
:1047B000A361A36903F480430293029BA36943F0BE
:1047C0000403A361A36903F004030193019B002385
:1047D00003930493059306930793654B039309236F
:1047E000049302230593634D03A92846FCF7FFFEBB
:1047F000614B0393082304930123079303A92846DD
:10480000FCF7F5FE636943F001036361636903F03C
:1048100001030093009B594B5A6C22F001025A6429
:104820005A6C22F4804222F0100242F010025A64C4
:104830005A6C22F440525A645A6C22F020025A6494
:104840005A6C22F040025A645A6C42F080025A6458
:104850005A6C22F440725A645A6C22F440625A64D0
:104860004FF480525A605A6C42F008025A645A6CF3
:1048700042F002025A64424BDA68C2F30222C2F1E9
:104880000703042B28BF04231946131D062B6AD9DE
:10489000033A4FF0FF338B40DB4303F002039340B6
:1048A0001B01DBB2374A82F80E334FF480431360AA
:1048B00000230393049305930693079308930993A6
:1048C000314B9B6803930C230793304C0DEB030192
:1048D0002046FCF7B1FF236923F490432361636909
:1048E00023F02A0363612A4A52E8003F43F0800321
:1048F00042E800310029F6D1244B1A680392039A4A
:104900005A680392039A6FF020021A60214951E815
:10491000003F43F0200341E800321146002AF5D160
:10492000174BDA68C2F30222C2F10703042B28BF37
:1049300004231846131D062B00D9D11E4FF0FF3358
:104940008340DB4303F001038B401B01DBB20D4AC4
:1049500082F82533202353600C4AD36843F4005374
:10496000D3600BB030BD002293E700BF00100240BF
:104970000200020400080140040004040000024098
:1049800000ED00E000E100E0D02000200038014010
:10499000143801400C3801402DE9F0418CB000265C
:1049A0000796089609960A960B96564B9A6942F016
:1049B00004029A619A6902F004020692069A9A69C0
:1049C00042F008029A619A6902F008020592059A7B
:1049D0009A6942F010029A619A6902F010020492F8
:1049E000049A9A6942F020029A619B6903F02003BD
:1049F0000393039B444D4FF00408C5F814804FF413
:104A000080736B6120236B6140236B6180236B613A
:104A10003E4CFF23636101270897022309930B97FC
:104A200040F20443079307A92846FCF7E0FD384B02
:104A3000079307A92846FCF7DAFD42F22003079303
:104A400007A92846FCF7D3FD44F24003079307A9C2
:104A50002846FCF7CCFD48F28003079307A92846B7
:104A6000FCF7C5FD032309934FF6FF73079307A9CE
:104A70002046FCF7BCFD0A9641F21003079307A9F4
:104A80002846FCF7B4FDCDF8288040F608030793CC
:104A900007A92846FCF7ABFD082308930B971D4B8D
:104AA000079307A92046FCF7A2FD1B4B079307A914
:104AB0002046FCF79CFD194B079307A92046FCF7FD
:104AC00096FD4FF49033A3614FF40052A261A361AD
:104AD000A3690293029B4FF4A033A3614FF4804279
:104AE000A261A361A3690193019B4FF4C033A36149
:104AF0004FF40042A261A361A3690093009B0CB034
:104B0000BDE8F0810010024000080140000C0140A7
:104B100001000104200020044000400480008004C3
:104B200008B54FF49670FCF7F7FF00BF08B5642096
:104B3000FCF7F2FF08B56420FCF7EEFF08B564202F
:104B4000FCF7EAFF08B56420FCF7E6FF704700BFFA
:104B5000704700BF704700BF10B5FCF7FDFA494B26
:104B60001A6801321A601868002328E003EB430238
:104B7000D100454A0A44926801323BE0002203EB2F
:104B800043014FEAC10C404961448A60C96849B990
:104B90001D2A07DD3C4A62440021117511615175DF
:104BA000D0600BE009B1002A2ADD002943D0411A68
:104BB00003EB4302D400344A224411610133022B37
:104BC00049D803EB4301CA002F4989580029F5D081
:104BD00003EB43024FEAC20C2B4A624454688A68D2
:104BE000D24302EA142292B2002ABFD1264A62447A
:104BF0009268013A002AC1DB1E2AC0DD1E22BEE7F0
:104C000003EB4302D400204A2244527D3AB11E4AAB
:104C10002244002111611175D1605175CEE7411A0E
:104C200003EB4302D400184A22441161012111759B
:104C30000021D160C2E703EB4302D100124A0A44CB
:104C4000527D002ABAD0104A0A4400211161117520
:104C5000D1605175B2E70D4B1B68002B03DD0B4A89
:104C60001368013B13600A4BD3F80821D3F80831CD
:104C700001339A4205D2064AD2F808310133C2F80C
:104C8000083110BD0C230020901D002024000020BE
:104C9000401F002008B50E4B1B6813F0040F08D10D
:104CA0000B4B1B6813F0020F0AD1094B01225A600B
:104CB00008BD074B04225A600648FDF72DFFEFE7B9
:104CC000034B02225A600448FDF726FFEDE700BFC0
:104CD0000000024088190020881B0020044B5A6CF9
:104CE00022F001025A644FF480525A60704700BFAC
:104CF0000000024082B0124BD3F8003107E0104AA6
:104D0000C2F800310021C2F80811D2F804210D4A7E
:104D1000126812F0200F09D00A4A5268D2B208492C
:104D2000CA540133FF2BEAD90023E8E7054B1A6880
:104D30000192019A5B680193019B02B0704700BF2A
:104D4000401F00200038014008B5FEF705FB024B6C
:104D500010225A6108BD00BF0004014010B41B4B73
:104D60001C681BE003EB4302D100194A0A440121ED
:104D7000517504460133022B0DD803EB4302D100D9
:104D8000134A0A44D268002AECD1114A0A44127D1F
:104D9000002AEFD0E6E7001BC72804D830BF0B4B32
:104DA00018680023E7E7002102290CD801EB410332
:104DB000DA00074B134400225A759A60DA601A75BC
:104DC0001A610131F0E710BC704700BF0C230020CE
:104DD000901D002008B5944BDB68ABB1924B5B6A29
:104DE00093B1914BDB6B7BB98F4B1B69B3F5487F5C
:104DF000C0F08A808C4B9B6AB3F5487FC0F08480FA
:104E0000FCF794FFFCF76EFE874BDB68002B5BD052
:104E1000864B1B78002B6BD1834BDB6833B1824B05
:104E20005B6A1BB9804BDB6B002B6ED07E4B1B7D0E
:104E3000002B7ED17C4BDB683BB97B4B5B6A23B19B
:104E4000794BDB6B002B00F08380774B93F82C3091
:104E5000002B40F09380744BDB683BB9724B5B6A6C
:104E600023B9714AD26B002A40F0AC806E4B93F8A4
:104E70004430002B48D06C4B93F84530002B43D185
:104E80000123694A82F84530694A1370694AD37C24
:104E900083F00103D37413F0010309D1127C0132B2
:104EA000D2B2032A00D81346624A1374624A1370BE
:104EB00000235F4A1370614A41F288311160604AF1
:104EC0001360FEF7B7FC1FE0574B5B6A002B9FD0C7
:104ED000554BDB6B002B9BD0534B9B6AB3F5487F44
:104EE00012D3514B1B6CB3F5487F0DD3FCF7FAFD81
:104EF000002307E003EB4302D1004B4A0A4401219F
:104F000051750B44022BF5D908BD474B1B69B3F50E
:104F1000FA7FF9D3444B5B7D002BF5D1424B012244
:104F20005A75FDF761FB464B00221A60FEF782FCC2
:104F3000EAE73D4B5B7D002BE6D13B4B01225A75E6
:104F40003F4A136883F001031360FEF773FCDBE74D
:104F5000354B9B6AB3F5FA7FD6D3334B93F82D309C
:104F6000002BD1D1304B012283F82D20FDF750FBCF
:104F7000334B00221A60FEF75DFCC5E72A4B93F81D
:104F80002D3003F0FF02002BBED10123264981F80A
:104F90002D3027490B70274B5B7C0133DBB2022B92
:104FA00000D81A46234B5A74264B1A700023204A05
:104FB0001370224A41F288311160214A1360FEF7D2
:104FC00039FCA1E7184A126CB2F5FA7F9CD3164A55
:104FD00092F84520002A97D10122134981F84520F3
:104FE00013490A70134AD068B0F57A7F0AD2012BB0
:104FF00009D8154A52F82320824201D9104602E00E
:105000000133F4E764200B4BD860FDF77FF90023F0
:10501000074A1370094A41F288311160084A136047
:10502000FEF708FC70E700BF901D0020241F002041
:1050300014000020D02000201C00002024000020AC
:10504000401E0020E82200205CDB000870B586B01E
:105050001A4B1B781BB31A4A184B5B780BB3194BCE
:1050600016498978F9B118491448C078E8B1174849
:10507000124C2479DCB1164C104D6D79CDB1154D23
:105080000E4EB679BEB1144E04960395029401906B
:1050900000911249124803F043FC06B070BD114A5A
:1050A000DAE7114BDCE71149DEE71148E0E7114C84
:1050B000E2E7114DE4E7114EE6E700BF381F00209C
:1050C00030D6000838D6000840D600084CD6000874
:1050D0005CD600086CD600087CD6000884D5000891
:1050E00084D600082CD6000834D600083CD6000828
:1050F00044D6000854D6000864D6000874D60008C8
:10510000F8B51A4B5F6C17F0010729D10A2003F09C
:105110001FFC3D461BE005EBC412154B53F8220063
:10512000FBF77AF902460B46124803F0F9FB01340B
:10513000062CF0D905F560750D4B53F82500FBF7EB
:105140006BF902460B460C4803F0EAFB35467F2D0F
:1051500009D86E1C3146094803F0E2FB3C46E7E7FC
:105160004FF0FF3000E00020F8BD00BF000002401B
:1051700060090020D4D60008DCD60008D0D600088C
:10518000F8B5114B5B6C13F0010F1AD10F4D2E4681
:105190000F4B46F8063B4FF480573A460D493046D0
:1051A00002F02EFF0024AC803A4631462046FCF740
:1051B000FBFBA88041F206012846FCF75BFD204678
:1051C000F8BD4FF0FF30FBE700000240B0270020A1
:1051D00096196219600900202DE9F04F87B0A04BA5
:1051E0005C6C14F0010440F08B829E4B00221A701C
:1051F0009D4A92E8030018609980090C997118463D
:10520000FBF77CFC0546994BDB7C13F0020F1FD0AB
:105210004F21974A117013F0040F1BD05322944B67
:105220005A7000229A708F4E2E44924AC5F58051D2
:105230000631304603F0A0FD3046FBF75FFC054425
:105240008D4B1B78032B23D8DFE803F006161A1EBC
:105250002D21DEE72D22E2E7854B4C221A70874B89
:105260001B78012B00F0D980022B00F0DA809BB173
:105270007F4B3F225A7012E07D4B43221A70EEE7BB
:105280007B4B52221A70EAE7794B41221A70E6E70B
:10529000774B3F221A70E2E7754B73225A70734BBB
:1052A000DB7C13F0010F00F0C0804623704FBB7011
:1052B0000023FB706B4E05EB060941F206083B46E6
:1052C0006F4AA8EB0501484603F056FD4846FBF738
:1052D00015FC05446B4B1B686B4A2021384603F0D4
:1052E0004BFD2E443B46694AA8EB0501304603F0CE
:1052F00043FD3046FBF702FC0544654B5E6C002124
:105300003046FBF7A1FB002800F091806149304650
:10531000FBF7E8F90590604905A8FCF7EFFE0746A2
:10532000DFF84C8101230093202342460599052094
:10533000FEF7D4F84B4E2E4400974346574AC5F526
:1053400080510631304603F017FD3046FBF7D6FB9F
:1053500046194F4BDD6C00212846FBF775FB0028F2
:1053600067D04C492846FBF7BDF905904C4905A884
:10537000FCF7C4FE81463E4F4FF0010BCDF800B064
:1053800020233A4605990520FEF7A8F8354D06EB8F
:10539000050A41F20608CDF800903B46414AA8EBC9
:1053A0000601504603F0E8FC5046FBF7A7FB064415
:1053B00006EB050ADFF8D890A8EB06030393D9F8AB
:1053C0006000FBF729F8CDE90001374A0399504600
:1053D00003F0D2FC5046FBF791FB0644D9F8543059
:1053E00005932D4905A8FCF789FE8146CDF800B04C
:1053F00020233A4605990520FEF770F83544CDF88C
:1054000000903B46294AA8EB0601284603F0B4FC6D
:105410002846FBF773FB06446FE0154B70225A7069
:105420003DE7134B61225A7039E720233EE7002005
:1054300070E7002099E74FF0730965E0144B9B6E0D
:1054400067E0134B5B6E8EE0114BDB6EB2E0104BEE
:105450001B6FD6E00E4B5B6FFAE00D4B9B6F1EE1AE
:1054600000000240B0270020E4D60008D020002031
:10547000EC220020ECD600081C000020E8220020CE
:10548000F8D600082000002080D5000804D70008C6
:10549000102300206740533AF8D5000810D70008C1
:1054A00020D7000828D7000838D700084CD70008B4
:1054B000954BDB6F0593954905A8FCF71FFE8046C9
:1054C000DFF84C920123009320234A4605990520DA
:1054D000FEF704F88F4F3744CDF80480CDF80090E4
:1054E0002B468D4AC6F580510631384603F044FC00
:1054F0003846FBF703FB06440134012C00F2F88028
:10550000002C98D04FF07009002C97D07E4BD3F828
:1055100084300593814905A8FCF7F0FD8046DFF84B
:10552000F0A1012300932023524605990520FDF7A1
:10553000D5FF784F37444D46CDF80480CDF800A014
:105540004B46774AC6F580510631384603F014FCC5
:105550003846FBF7D3FA00EB0609002C3FF471AF95
:10556000694BD3F8803005936E4905A8FCF7C6FD5A
:105570000646DFF89C8101230093202342460599CB
:105580000520FDF7ABFF634F4F440196CDF8008037
:105590002B46654AC9F580510631384603F0ECFBCD
:1055A0003846FBF7ABFA8144002C3FF44DAF564B25
:1055B000D3F888300593554905A8FCF79FFD0646AA
:1055C000DFF84C81012300932023424605990520F2
:1055D000FDF784FF4F4F4F440196CDF800802B46D6
:1055E000524AC9F580510631384603F0C5FB3846AA
:1055F000FBF784FA8144002C3FF429AF424BD3F8E7
:105600008C300593414905A8FCF778FD0646DFF884
:105610000081012300932023424605990520FDF7D0
:105620005DFF3C4F4F440196CDF800802B46404A29
:10563000C9F580510631384603F09EFB3846FBF72A
:105640005DFA8144002C3FF405AF2F4BD3F8903026
:1056500005932E4905A8FCF751FD0646DFF8B080FA
:10566000012300932023424605990520FDF736FFCC
:10567000284F4F440196CDF800802B462D4AC9F59E
:1056800080510631384603F077FB3846FBF736FA8F
:105690008144002C3FF4E1AE1B4BD3F894300593CA
:1056A000254905A8FCF72AFD0646DFF8648001239A
:1056B00000932023424605990520FDF70FFF154F63
:1056C0004F440196CDF800802B461C4AC9F5805105
:1056D0000631384603F050FB3846FBF70FFA00EB73
:1056E0000906002C3FF4E4AE074BD3F89830E1E60E
:1056F00031460848FCF7BEFA002007B0BDE8F08F3D
:105700004FF0FF30F9E700BF10230020F8D5000864
:10571000EC220020B0270020C4D7000858D700088A
:105720005CD700086CD7000874D7000884D700083D
:1057300094D70008A4D70008F4D50008B4D700080F
:1057400008B5094B9B7C022B07D0032B08D0012BFB
:1057500000D008BDFFF7D4FCFBE7FFF711FDF8E729
:10576000FFF73AFDF5E700BFD0200020002800F049
:1057700059832DE9F04788B00C460546002959D0D9
:10578000002604E003F0F4FBC0B238700136A642F4
:105790000BD2AF19A85D0928F4D12020F5E7013C10
:1057A0002246691C284602F039FC14B12B78202BC4
:1057B000F5D93CB1631EEA5C202A03D80022EA54E2
:1057C0001C46F6E700232B55A4B31F46BC4204D960
:1057D000EB5D202B01D90137F8E70023EB557B1C4B
:1057E000A34204D2E41B013C02D01F4600E0002487
:1057F00005EB07084CB90026B1461FE0013C2246E4
:1058000008F10101404602F009FC24B198F800308B
:10581000202BF3D9002408EB040218F80430202BC5
:1058200001D90134F7E700231370E4E72946AA48B9
:1058300003F076F808B0BDE8F087013606EB4603C2
:10584000A64A52F8231089B102EB830393F808A00B
:10585000BAF1000F0AD03A46284603F0EEFA0028C3
:10586000EBD1B9F1000FE1D1D146E6E709F1FF39FB
:10587000B9F1110F00F2D182DFE819F01200120025
:1058800043004F00A5003C00B200C4000D026102BD
:105890006E02D6005C01BE01CF02CF02C402C90273
:1058A00000252C4600E0013404EB44038B4A52F8F7
:1058B000230048B102EB83031B7A2BB1FBF71EF9DF
:1058C000A842F0D90546EEE7854803F0C3F8002466
:1058D00004EB4403814A52F82320002AAAD0194637
:1058E0007E4B03EB81035B6829467E4803F018F882
:1058F0000134EDE77C4803F0ADF8FCF717FAFCF74C
:10590000F1F84FF4FA70FCF79FF9FFF7F9FB002864
:1059100090DA764803F09EF88CE7F4B10023039305
:105920000A2203A9404603F019FB044602F02EFBAD
:105930000368002B19DC039B434516D0B4F5E13F07
:1059400013DBB4F5612F10DCB4F5612FA8BF4FF461
:105950006124674B9B68A3420CD1654B99686548ED
:1059600002F0DEFFFDF766FF64E74146624802F0A1
:10597000D7FF5FE75E4B9C60604BDB6803EB830304
:1059800003EB8303A400B3FBF4F35D48A0FB032106
:1059900049090A0192B2642404FB11331B0132331A
:1059A000A0FB0313C3F34F1303F0F0010A4492B2B8
:1059B00003F00F0313449BB2524A9360524B41F2DF
:1059C00088321A60C9E74FF4FA70FCF73DF9FFF727
:1059D000D7FB0028BFF62EAF444803F03BF829E779
:1059E0004A4B1B7853B94A4803F034F8FCF7FCFDE6
:1059F000484B00221A60FDF71DFF1BE73B4803F0F0
:105A000029F817E7414B1B7853B9434803F022F8B4
:105A1000FCF7FEFD3F4B00221A60FDF70BFF09E784
:105A2000324803F017F805E7A4B9314BDB68B3F54A
:105A30007A7F40D2394A2021394803F09DF9384C09
:105A40002046FCF7D1F82146364802F069FFFDF701
:105A5000F1FEEFE6002303930A2203A9404603F078
:105A60007DFA044602F092FA0368002B1BDC039BCC
:105A7000434518D0632C16DDB4F57A7F13DC20463D
:105A8000B4F57A7FA8BF4FF47A70194BDB68834274
:105A9000CBD0174BD8601D4B1B784BB11A4B41F242
:105AA00088321A60C1E741461F4802F039FFC1E65B
:105AB000FCF72CFCF2E71846FAF7BCFD1B49FAF795
:105AC00011FEFAF7A9FCCDE90001194A202114487A
:105AD00003F052F9B3E700BFE0D7000890DA0008FE
