:020000040800F2
:1000000000500020C9590008314300083B43000854
:10001000434300084B43000853430008000000001E
:100020000000000000000000000000005B4300082A
:100030005D430008000000005F43000861430008C2
:10004000115A0008115A0008115A0008115A0008E4
:10005000115A0008115A0008115A0008115A0008D4
:10006000115A0008115A0008115A0008914400085A
:10007000115A0008115A0008E1440008115A0008FA
:10008000115A0008115A0008115A0008115A0008A4
:10009000115A0008115A0008115A0008115A000894
:1000A000115A0008115A0008115A0008115A000884
:1000B000115A0008115A0008115A0008115A000874
:1000C000115A0008115A0008115A0008115A000864
:1000D000115A000819450008115A0008115A000861
:1000E000115A0008115A0008115A000800000000B7
:1000F0000000000000000000000000000000000000
:0C01000000000000000000005FF808F1A3
:1001100010B5054C237833B9044B13B10448AFF341
:1001200000800123237010BD0002002000000000A9
:10013000F4A1000808B5034B1BB103490348AFF312
:10014000008008BD0000000004020020F4A10008A7
:1001500081F0004102E000BF83F0004330B54FEA78
:1001600041044FEA430594EA050F08BF90EA020FE5
:100170001FBF54EA000C55EA020C7FEA645C7FEA78
:10018000655C00F0E2804FEA5454D4EB5555B8BF9B
:100190006D420CDD2C4480EA020281EA030382EA0C
:1001A000000083EA010180EA020281EA0303362D9E
:1001B00088BF30BD11F0004F4FEA01314FF4801C71
:1001C0004CEA113102D0404261EB410113F0004F83
:1001D0004FEA03334CEA133302D0524263EB43033A
:1001E00094EA050F00F0A780A4F10104D5F1200ED8
:1001F0000DDB02FA0EFC22FA05F2801841F1000133
:1002000003FA0EF2801843FA05F359410EE0A5F106
:1002100020050EF1200E012A03FA0EFC28BF4CF037
:10022000020C43FA05F3C01851EBE37101F00045ED
:1002300007D54FF0000EDCF1000C7EEB00006EEBFA
:100240000101B1F5801F1BD3B1F5001F0CD3490884
:100250005FEA30004FEA3C0C04F101044FEA4452DB
:1002600012F5800F80F09A80BCF1004F08BF5FEA62
:10027000500C50F1000041EB045141EA050130BD42
:100280005FEA4C0C404141EB010111F4801FA4F1E5
:100290000104E9D191F0000F04BF01460020B1FA3A
:1002A00081F308BF2033A3F10B03B3F120020CDA72
:1002B0000C3208DD02F1140CC2F10C0201FA0CF050
:1002C00021FA02F10CE002F11402D8BFC2F1200CB5
:1002D00001FA02F120FA0CFCDCBF41EA0C0190406B
:1002E000E41AA2BF01EB0451294330BD6FEA0404B4
:1002F0001F3C1CDA0C340EDC04F11404C4F120029F
:1003000020FA04F001FA02F340EA030021FA04F3B0
:1003100045EA030130BDC4F10C04C4F1200220FA07
:1003200002F001FA04F340EA0300294630BD21FA45
:1003300004F0294630BD94F0000F83F4801306BF0B
:1003400081F480110134013D4EE77FEA645C18BFFF
:100350007FEA655C29D094EA050F08BF90EA020F96
:1003600005D054EA000C04BF1946104630BD91EA8E
:10037000030F1EBF0021002030BD5FEA545C05D191
:100380004000494128BF41F0004130BD14F58004D0
:100390003CBF01F5801130BD01F0004545F0FE4144
:1003A00041F470014FF0000030BD7FEA645C1ABF79
:1003B000194610467FEA655C1CBF0B46024650EAB0
:1003C000013406BF52EA033591EA030F41F40021DC
:1003D00030BD00BF90F0000F04BF0021704730B562
:1003E0004FF4806404F132044FF000054FF0000137
:1003F00050E700BF90F0000F04BF0021704730B5F8
:100400004FF4806404F1320410F0004548BF4042CC
:100410004FF000013EE700BF42004FEAE2014FEA21
:1004200031014FEA02701FBF12F07F4393F07F4FFC
:1004300081F06051704732F07F4208BF704793F0FF
:100440007F4F04BF41F40021704730B54FF4607412
:1004500001F0004521F000411CE700BF50EA010215
:1004600008BF704730B54FF000050AE050EA0102BE
:1004700008BF704730B511F0004502D5404261EB2E
:1004800041014FF4806404F132045FEA915C3FF46F
:10049000D8AE4FF003025FEADC0C18BF03325FEA0C
:1004A000DC0C18BF033202EBDC02C2F1200300FABD
:1004B00003FC20FA02F001FA03FE40EA0E0021FAE2
:1004C00002F11444BDE600BF80F0004002E000BF2E
:1004D00081F0004142001FBF5FEA410392EA030F2F
:1004E0007FEA226C7FEA236C6AD04FEA1262D2EB79
:1004F0001363C1BFD218414048404140B8BF5B427E
:10050000192B88BF704710F0004F40F4000020F016
:100510007F4018BF404211F0004F41F4000121F02C
:100520007F4118BF494292EA030F3FD0A2F1010276
:1005300041FA03FC10EB0C00C3F1200301FA03F1B4
:1005400000F0004302D5494260EB4000B0F5000FD7
:1005500013D3B0F1807F06D340084FEA310102F196
:100560000102FE2A51D2B1F1004F40EBC25008BF48
:1005700020F0010040EA03007047490040EB000012
:1005800010F4000FA2F10102EDD1B0FA80FCACF141
:10059000080CB2EB0C0200FA0CF0AABF00EBC25040
:1005A00052421843BCBFD0401843704792F0000F2E
:1005B00081F4000106BF80F400000132013BB5E781
:1005C0004FEA41037FEA226C18BF7FEA236C21D0F7
:1005D00092EA030F04D092F0000F08BF084670475C
:1005E00090EA010F1CBF0020704712F07F4F04D12A
:1005F000400028BF40F00040704712F100723CBF3D
:1006000000F50000704700F0004343F0FE4040F466
:10061000000070477FEA226216BF08467FEA236324
:100620000146420206BF5FEA412390EA010F40F40F
:10063000800070474FF0000304E000BF10F000435B
:1006400048BF40425FEA000C08BF704743F0964342
:1006500001464FF000001CE050EA010208BF70475D
:100660004FF000030AE000BF50EA010208BF7047E4
:1006700011F0004302D5404261EB41015FEA010CF9
:1006800002BF84460146002043F0B64308BFA3F1F1
:100690008053A3F50003BCFA8CF2083AA3EBC253D3
:1006A00010DB01FA02FC634400FA02FCC2F12002F2
:1006B000BCF1004F20FA02F243EB020008BF20F029
:1006C0000100704702F1200201FA02FCC2F120028F
:1006D00050EA4C0021FA02F243EB020008BF20EA84
:1006E000DC7070474FF0FF0C1CEAD0521EBF1CEAB2
:1006F000D15392EA0C0F93EA0C0F6FD01A4480EAA0
:10070000010C400218BF5FEA41211ED04FF0006388
:1007100043EA501043EA5111A0FB01310CF00040B4
:10072000B1F5000F3EBF490041EAD3715B0040EADA
:10073000010062F17F02FD2A1DD8B3F1004F40EBAA
:10074000C25008BF20F00100704790F0000F0CF07D
:10075000004C08BF49024CEA502040EA51207F3A41
:10076000C2BFD2F1FF0340EAC250704740F400001C
:100770004FF00003013A5DDC12F1190FDCBF00F00D
:1007800000407047C2F10002410021FA02F1C2F1BB
:10079000200200FA02FC5FEA310040F1000053EA57
:1007A0004C0308BF20EADC70704792F0000F00F0A5
:1007B000004C02BF400010F4000F013AF9D040EAAB
:1007C0000C0093F0000F01F0004C02BF490011F43F
:1007D000000F013BF9D041EA0C018FE70CEAD1533D
:1007E00092EA0C0F18BF93EA0C0F0AD030F0004CBD
:1007F00018BF31F0004CD8D180EA010000F0004071
:10080000704790F0000F17BF90F0004F084691F02E
:10081000000F91F0004F14D092EA0C0F01D1420268
:100820000FD193EA0C0F03D14B0218BF084608D131
:1008300080EA010000F0004040F0FE4040F400007B
:10084000704740F0FE4040F4400070474FF0FF0C0E
:100850001CEAD0521EBF1CEAD15392EA0C0F93EA55
:100860000C0F69D0A2EB030280EA010C49024FEAA7
:10087000402037D04FF0805343EA111143EA101360
:100880000CF000408B4238BF5B0042F17D024FF418
:10089000000C8B4224BF5B1A40EA0C00B3EB510FF3
:1008A00024BFA3EB510340EA5C00B3EB910F24BFDC
:1008B000A3EB910340EA9C00B3EBD10F24BFA3EB61
:1008C000D10340EADC001B0118BF5FEA1C1CE0D129
:1008D000FD2A3FF650AF8B4240EBC25008BF20F0DC
:1008E000010070470CF0004C4CEA50207F32C2BF30
:1008F000D2F1FF0340EAC250704740F400004FF0CD
:100900000003013A37E792F0000F00F0004C02BFFD
:10091000400010F4000F013AF9D040EA0C0093F0C7
:10092000000F01F0004C02BF490011F4000F013B21
:10093000F9D041EA0C0195E70CEAD15392EA0C0F89
:1009400008D142027FF47DAF93EA0C0F7FF470AFC1
:10095000084676E793EA0C0F04D14B023FF44CAF04
:1009600008466EE730F0004C18BF31F0004CCAD199
:1009700030F000427FF45CAF31F000437FF43CAFD5
:100980005FE700BF4FF0FF3C06E000BF4FF0010CF7
:1009900002E000BF4FF0010C4DF804CD4FEA4002D9
:1009A0004FEA41037FEA226C18BF7FEA236C11D023
:1009B00001B052EA530C18BF90EA010F58BFB2EBD6
:1009C000030088BFC81738BF6FEAE17018BF40F056
:1009D000010070477FEA226C02D15FEA402C05D10A
:1009E0007FEA236CE4D15FEA412CE1D05DF8040B8F
:1009F000704700BF844608466146FFE70FB5FFF722
:100A0000C9FF002848BF10F1000F0FBD4DF808EDD9
:100A1000FFF7F4FF0CBF012000205DF808FB00BFCA
:100A20004DF808EDFFF7EAFF34BF012000205DF824
:100A300008FB00BF4DF808EDFFF7E0FF94BF012071
:100A400000205DF808FB00BF4DF808EDFFF7D2FF6E
:100A500094BF012000205DF808FB00BF4DF808EDB1
:100A6000FFF7C8FF34BF012000205DF808FB00BF7E
:100A70004FEA4002B2F1FE4F0FD34FF09E03B3EBAB
:100A800012620DD94FEA002343F0004310F0004FEB
:100A900023FA02F018BF404270474FF00000704741
:100AA00012F1610F01D1420205D110F0004008BFE0
:100AB0006FF0004070474FF00000704742000ED2C8
:100AC000B2F1FE4F0BD34FF09E03B3EB126209D489
:100AD0004FEA002343F0004323FA02F070474FF03F
:100AE0000000704712F1610F01D1420202D14FF0B4
:100AF000FF3070474FF00000704700BF034613F807
:100B0000012B002AFBD1181A0138704770B54FF03D
:100B1000FF0C4CF4E06C1CEA11541DBF1CEA135589
:100B200094EA0C0F95EA0C0F00F0DEF82C4481EAF1
:100B3000030621EA4C5123EA4C5350EA013518BF11
:100B400052EA033541F4801143F4801338D0A0FBFE
:100B500002CE4FF00005E1FB02E506F00042E0FBAB
:100B600003E54FF00006E1FB03569CF0000F18BFB1
:100B70004EF0010EA4F1FF04B6F5007F64F5407459
:100B800004D25FEA4E0E6D4146EB060642EAC621EC
:100B900041EA55514FEAC52040EA5E504FEACE2E59
:100BA000B4F1FD0C88BFBCF5E06F1ED8BEF1004F5C
:100BB00008BF5FEA500E50F1000041EB045170BDD8
:100BC00006F0004646EA010140EA020081EA03011C
:100BD000B4EB5C04C2BFD4EB0C0541EA045170BD18
:100BE00041F480114FF0000E013C00F3AB8014F192
:100BF000360FDEBF002001F0004170BDC4F10004DB
:100C0000203C35DA0C341BDC04F11404C4F120055B
:100C100000FA05F320FA04F001FA05F240EA0200B6
:100C200001F0004221F0004110EBD37021FA04F6EC
:100C300042EB06015EEA430E08BF20EAD37070BDA6
:100C4000C4F10C04C4F1200500FA04F320FA05F005
:100C500001FA04F240EA020001F0004110EBD37007
:100C600041F100015EEA430E08BF20EAD37070BD77
:100C7000C4F1200500FA05F24EEA020E20FA04F350
:100C800001FA05F243EA020321FA04F001F00041FF
:100C900021FA04F220EA020000EBD3705EEA430E70
:100CA00008BF20EAD37070BD94F0000F0FD101F09F
:100CB0000046400041EB010111F4801F08BF013CD8
:100CC000F7D041EA060195F0000F18BF704703F016
:100CD0000046520043EB030313F4801F08BF013D9D
:100CE000F7D043EA0603704794EA0C0F0CEA135559
:100CF00018BF95EA0C0F0CD050EA410618BF52EA13
:100D00004306D1D181EA030101F000414FF0000018
:100D100070BD50EA410606BF1046194652EA430626
:100D200019D094EA0C0F02D150EA013613D195EA9A
:100D30000C0F05D152EA03361CBF104619460AD1E2
:100D400081EA030101F0004141F0FE4141F47001EC
:100D50004FF0000070BD41F0FE4141F4780170BDDC
:100D600070B54FF0FF0C4CF4E06C1CEA11541DBF41
:100D70001CEA135594EA0C0F95EA0C0F00F0A7F843
:100D8000A4EB050481EA030E52EA03354FEA013170
:100D900000F088804FEA03334FF0805545EA131383
:100DA00043EA12634FEA022245EA111545EA10654B
:100DB0004FEA00260EF000419D4208BF964244F1E2
:100DC000FD0404F5407402D25B084FEA3202B61A01
:100DD00065EB03055B084FEA32024FF480104FF4D5
:100DE000002CB6EB020E75EB030E22BFB61A754649
:100DF00040EA0C005B084FEA3202B6EB020E75EBDC
:100E0000030E22BFB61A754640EA5C005B084FEA43
:100E10003202B6EB020E75EB030E22BFB61A754610
:100E200040EA9C005B084FEA3202B6EB020E75EB1B
:100E3000030E22BFB61A754640EADC0055EA060EDC
:100E400018D04FEA051545EA16754FEA06164FEA1F
:100E5000C30343EA52734FEAC2025FEA1C1CC0D1CB
:100E600011F4801F0BD141EA00014FF000004FF058
:100E7000004CB6E711F4801F04BF01430020B4F119
:100E8000FD0C88BFBCF5E06F3FF6AFAEB5EB030CD1
:100E900004BFB6EB020C5FEA500C50F1000041EBCE
:100EA000045170BD0EF0004E4EEA113114EB5C049B
:100EB000C2BFD4EB0C0541EA045170BD41F480116E
:100EC0004FF0000E013C90E645EA060E8DE60CEA76
:100ED000135594EA0C0F08BF95EA0C0F3FF43BAF93
:100EE00094EA0C0F0AD150EA01347FF434AF95EA4A
:100EF0000C0F7FF425AF104619462CE795EA0C0F2E
:100F000006D152EA03353FF4FDAE1046194622E7FA
:100F100050EA410618BF52EA43067FF4C5AE50EAD4
:100F200041047FF40DAF52EA43057FF4EBAE12E7C4
:100F30004FF0FF3C06E000BF4FF0010C02E000BFA5
:100F40004FF0010C4DF804CD4FEA410C7FEA6C5C88
:100F50004FEA430C18BF7FEA6C5C1BD001B050EA2B
:100F6000410C0CBF52EA430C91EA030F02BF90EA16
:100F7000020F0020704710F1000F91EA030F58BFD5
:100F8000994208BF90422CBFD8176FEAE37040F037
:100F9000010070474FEA410C7FEA6C5C02D150EAD5
:100FA000013C07D14FEA430C7FEA6C5CD6D152EA90
:100FB000033CD3D05DF8040B704700BF8446104655
:100FC00062468C461946634600E000BF01B5FFF754
:100FD000B7FF002848BF10F1000F01BD4DF808ED24
:100FE000FFF7F4FF0CBF012000205DF808FB00BFF5
:100FF0004DF808EDFFF7EAFF34BF012000205DF84F
:1010000008FB00BF4DF808EDFFF7E0FF94BF01209B
:1010100000205DF808FB00BF4DF808EDFFF7CEFF9C
:1010200094BF012000205DF808FB00BF4DF808EDDB
:10103000FFF7C4FF34BF012000205DF808FB00BFAC
:101040004FEA410C7FEA6C5C02D150EA013C0AD1C4
:101050004FEA430C7FEA6C5C02D152EA033C02D1B6
:101060004FF0000070474FF0010070474FEA410217
:1010700012F5001215D211D56FF47873B3EB6252EA
:1010800012D94FEAC12343F0004343EA505311F011
:10109000004F23FA02F018BF404270474FF00000A3
:1010A000704750EA013005D111F0004008BF6FF0E1
:1010B000004070474FF00000704700BF4FEA410208
:1010C000B2F1E04324BFB3F5001CDCF1FE5C0DD9A6
:1010D00001F0004C4FEAC0024CEA5070B2F1004FF0
:1010E00040EB830008BF20F00100704711F0804FF3
:1010F00021D113F13872BCBF01F00040704741F4B8
:1011000080114FEA5252C2F11802C2F1200C10FABB
:101110000CF320FA02F018BF40F001004FEAC1239F
:101120004FEAD32303FA0CFC40EA0C0023FA02F343
:101130004FEA4303CCE77FEA625307D150EA013319
:101140001EBF4FF0FE4040F44000704701F00040E9
:1011500040F0FE4040F40000704700BF4FEA4002FC
:101160004FEA41037FEA226C02D15FEA402C08D1AA
:101170007FEA236C02D15FEA412C02D14FF00000DC
:1011800070474FF00100704710B504460E4B1878B9
:101190004FF47A73B3FBF0F30C4A1068B0FBF3F032
:1011A00000F09EF868B90F2C01D901200AE0002256
:1011B00021464FF0FF3000F05FF8054B1C60002027
:1011C00000E0012010BD00BF00000020280000202A
:1011D0000400002008B5074A136843F010031360A9
:1011E000032000F037F80F20FFF7CEFF02F0FEFBE0
:1011F000002008BD00200240034A1168034B1B7801
:101200000B441360704700BF983900200000002095
:10121000014B1868704700BF9839002038B5044664
:10122000FFF7F6FF0546B4F1FF3F02D0044B1B78F1
:101230001C44FFF7EDFF401BA042FAD338BD00BFAE
:1012400000000020024A136823F002031360704775
:1012500010E000E0074AD36823F4E0631B041B0C92
:10126000000200F4E060184340F0BF6040F400303A
:10127000D060704700ED00E030B4174BDB68C3F37B
:101280000223C3F10704042C28BF04241D1D062DCE
:1012900018D9033B4FF0FF3505FA04F421EA0401A5
:1012A000994005FA03F322EA0303194300280BDBF4
:1012B0000901C9B200F1604000F5614080F80013F7
:1012C00030BC70470023E5E700F00F000901C9B208
:1012D000024B1954F4E700BF00ED00E014ED00E00C
:1012E0000138B0F1807F0AD2064B5860064AF021DF
:1012F00082F823100020986007221A6070470120AE
:10130000704700BF10E000E000ED00E0044B002259
:10131000DA61044A136943F00103136101807047E5
:10132000A0390020002002401A4BDB6813F0100F98
:1013300027D0194AD36943F00203D3611023154A19
:10134000D26812F0040F06D01349CA6942F00102B4
:10135000CA6143F004030F4AD26912F0010F09D0A9
:101360000D49CA6942F00402CA610A49CA6922F0F9
:101370000102CA6140F20112934204D0054AD360CF
:1013800070470023DBE7034AD36923F00103D361ED
:10139000704700BF00200240A03900200A4B1B69A3
:1013A00013F0800F0DD0084B084A5A6002F18832C2
:1013B0005A601B6913F0800F01D001207047002094
:1013C00070470020704700BF00200240230167459E
:1013D000034A136943F0800313610020704700BF84
:1013E0000020024038B50446FFF712FF0546174BB0
:1013F000DB6813F0010F0AD0B4F1FF3FF7D00CB354
:10140000FFF706FF401BA042F1D9032019E00F4B64
:10141000DB6813F0200F02D00C4B2022DA600B4B5C
:10142000DB6813F0100F09D1084BDB6913F0010FD3
:1014300004D1064BDB6813F0040F05D0FFF774FFEF
:10144000012038BD0320FCE70020FAE7002002401D
:101450002DE9F843234C247E012C41D01E469046B2
:101460000F4604461F4B01221A764CF25030FFF70C
:10147000B9FF034670BB012C29D0022C24D04FF0B9
:10148000040900244C4525D22101C1F12002A1F11B
:10149000200328FA01F106FA02F2114326FA03F3B7
:1014A000194389B207EB4400FFF730FF4CF250308C
:1014B000FFF798FF0C4B1D6925F001051D610346E0
:1014C00040B90134E4B2DDE74FF00209D9E74FF04B
:1014D0000109D6E7034A002111761846BDE8F883D2
:1014E0000223FAE7A039002000200240064B002228
:1014F000DA61064B1A6942F004021A611A6942F075
:1015000040021A61704700BFA0390020002002404D
:10151000064B0022DA61064B1A6942F002021A6198
:1015200058611A6942F040021A617047A0390020E0
:1015300000200240264B1B7E012B46D070B50E4684
:101540000446234B01221A760368022B20D04CF26A
:101550005030FFF747FF90BB4FF0FF333360A56873
:101560000122E168A36803EB8123AB4228D9284616
:10157000FFF7CEFF4CF25030FFF734FF154A1369E6
:1015800023F0020313610246B8B905F58065E8E768
:101590004CF25030FFF726FF08B1012210E0012085
:1015A000FFF7A4FF4CF25030FFF71CFF0246094939
:1015B0000B6923F004030B6102E0356000E00122B7
:1015C000034B00211976104670BD02221046704769
:1015D000A0390020002002400C4B9A6803F580637C
:1015E0009B68134313F0010F0ED10B682BB94368AE
:1015F00023F47023436000207047426822F4702275
:1016000013434360002070470120704700240140CD
:10161000836813F0010F0DD1436823F480734A6887
:1016200013434360836823F400630A6813438360B1
:1016300000207047012070474B68826812F0010F4C
:1016400023D110B4DBB1426822F468428C68234392
:1016500013434360836823F4602323F481730A688F
:10166000CC6822430C692243134383604B68C26AEF
:1016700022F470021343C362002010BC704742681A
:1016800022F4684213434360E4E701207047F0B559
:101690000E68C6F30F2696FAA6F5B5FA85F540E072
:1016A000A5F108024FF00113934043F0806344E03A
:1016B0000C69C7681A0A27EA020792FAA2F2B2FA7C
:1016C00082F204FA02F23A43C26039E08C6893FA7B
:1016D000A3F7B7FA87F7BF004FF0030E0EFA07F72C
:1016E00022EA070293FAA3F7B7FA87F7BF00BC40D4
:1016F000224340F80C20CC6893FAA3F7B7FA87F797
:10170000BF004FF0040E0EFA07F722EA070293FA21
:10171000A3F3B3FA83F39B009C40224340F80C20D0
:10172000013536FA05F32BD00123AB403342F7D015
:10173000072DB5D840F20113AB404A68082AB7D04C
:101740004F684FEA136C50F80C4093FAA3F2B2FAC8
:1017500082F292004FF00F0E0EFA02F224EA020417
:1017600093FAA3F2B2FA82F2920007FA02F222434B
:1017700040F80C204C68012CA8D0092CD0D1A5E74A
:101780000020F0BD034B5B68C3F30313024AD35C34
:10179000D840704700100240B0C10008034B5B689E
:1017A000C3F30223024AD35CD840704700100240C2
:1017B000C0C10008034B5B68C3F3C223024AD35C79
:1017C000D840704700100240C0C100080B4B5B6856
:1017D00003F480337BB1094B5868C0F340400130BB
:1017E000074BB3FBF0F0054B5B68C3F38343023355
:1017F00000FB03F070470348F5E700BF001002400C
:1018000000127A0000093D0008B5054B5B6803F043
:101810000C03082B02D1FFF7D9FF08BD0148FCE7F4
:101820000010024000127A0010B50446FFF7ECFFEA
:101830002060FFF7A7FF6060FFF7B0FFA06060685F
:10184000FFF7B8FFE06010BD03681A4A90420AD063
:10185000B0F1804F07D0A2F59432904203D002F548
:101860008062904203D123F070034A681343114A07
:1018700090420AD0B0F1804F07D0A2F59432904246
:1018800003D002F58062904203D123F44073CA680A
:10189000134303608B68C3620B888362054B9842D5
:1018A00005D0436943F001034361002070470B6991
:1018B0000363F6E7002C0140C36813F4005F01D016
:1018C0000120704730B585B00D460446C36823F447
:1018D000B05323F00C034A68C9680A4329690A43D4
:1018E0001343C360AB68026922F44052134303619F
:1018F0006B69426922F44072134343616846FFF703
:1019000093FF1C4B9C4208D01B4B9C422AD01B4B84
:101910009C4229D0012005B030BD039B33B32A6817
:1019200032B303EB830303EB83039200B3FBF2F3C5
:10193000134DA5FB03204009020191B2642202FB72
:10194000103213013233A5FB0323C3F34F1303F00B
:10195000F0020A4492B203F00F0313449BB2A36057
:101960000020D8E7029BD9E7029BD7E70120D2E706
:101970000120D0E70038014000440040004800400A
:101980001F85EB51054BA3FB003080090138044B48
:10199000586000229A6005221A607047D34D621089
:1019A00010E000E082B0094B1B680193019BB0F18D
:1019B000FF3F00D0013030B1044B1B6813F4803F6F
:1019C000F9D00138F7E702B0704700BF10E000E03F
:1019D000014B1860704700BF28000020104B1B7897
:1019E000EBB9002112E041F2210080EA43039BB2EF
:1019F0000132072A05D813F4004FF4D15B009BB2E3
:101A0000F6E7084A22F81130013189B2FF2903D8DC
:101A10000B029BB20022ECE7014B01221A707047C7
:101A20001C020020C039002070B505460E46144641
:101A30000A4B1B786BB9FFF7D1FF0AE0337883EAD2
:101A40001523074931F9130080EA052085B20136D4
:101A50001446621E002CF1DC284670BD1C020020DA
:101A6000C03900200D4BDA6822F08072DA60DA6843
:101A700042F08072DA600A4B1A6822F001021A60A2
:101A80001A6842F001021A6000225A6000BF00BFCB
:101A900000BF5868B0FA80F040097047F0ED00E0F0
:101AA000001000E008B509680068FEF711FDFEF7B8
:101AB000DFFF08BD012800D070474FF6FF73994241
:101AC000FAD1094B00225A629A62DA621A635A63A7
:101AD0009A63DA631A645A649A64DA641A655A6516
:101AE0009A65DA651A66E7E77C1C002072B6BFF3D8
:101AF0004F8F084B20221A61BFF34F8F0649CA68E7
:101B000002F4E062054B1343CB60BFF34F8F00BF7D
:101B1000FDE700BF0008014000ED00E00400FA0509
:101B200072B6BFF34F8F40B94FF4967005E0134B78
:101B300020225A61124B596898B9104B20221A6121
:101B40000A220F4B59680F4B1B68A3FB023423FA80
:101B500002F242EA84520A4B5B685B1A9342FAD360
:101B6000E5E7084B1B68A3FB00349A0A42EA84525B
:101B7000034B5B685B1A9342FAD3DEE7000801402F
:101B8000001000E02800002060B338B504462E2184
:101B900006F0A5FCD8B12046FEF7B0FF0546B0B16F
:101BA000431E33B1E25C303AD2B2092A01D9013B7B
:101BB000F7E763B1591C23B1E25C302A01D1013B44
:101BC000F9E7E25C2E2A03D00133994202D838BDEE
:101BD000013BF9E75A1A2A4401322144E01805F082
:101BE000E3FCF4E770470000024600B9C822074B47
:101BF0001968074B1B6813F0010F06D0034B1B68D5
:101C00005B1A934201D230BFF3E7704750240020A3
:101C1000440002400246E8B1F9B1144BDB6813F40A
:101C2000005F1DD0124B1B6813F0010F1BD1114B2D
:101C30004FF4805058604433DA600F4A9A605A6813
:101C4000120C1204114359601A6842F001021A6022
:101C5000002070474FF0FF3070474FF0FF30704763
:101C60006FF0010070476FF00200704700380140CC
:101C700044000240000002400438014010B508460C
:101C800014461146FFF7C6FF0020FFF7ADFF2046C0
:101C900010BD000002280FD0032813D0012805D062
:101CA0000B4B80225A6140221A617047084B8022F8
:101CB0001A6140221A617047054B80225A61402206
:101CC0005A617047024B80221A6140225A61704764
:101CD0000008014000B587B00023059301930293EB
:101CE0000C4B039304230493FFF758FB78B905A921
:101CF00001A8FFF71FFC28B9FFF76AFB002007B017
:101D00005DF804FBFFF764FB6FF00100F7E74FF0AD
:101D1000FF30F4E700F00008F8B50027124C04F596
:101D2000A276124B9E421DD8114D4FF4A27221464D
:101D3000284605F02EFC2A680E4B9A4204D0043443
:101D4000EDE727463446EAE72946B5F84251002038
:101D5000A1F842014FF4A272FFF766FE8542F0D06F
:101D60000434DCE73846F8BD00F000080000010844
:101D7000200200206219961908B5FFF7CDFF38B18F
:101D800001464FF4A272044805F003FC002008BD90
:101D90004FF0FF30FBE700BF6C22002070B586B02B
:101DA000002002900390494B049304230593019073
:101DB000474C484B2360A4F842014FF4A2722146DD
:101DC000FFF732FEA4F84201FFF7E8FA002879D1C4
:101DD000FFF7A2FF0446E0B14FF4A2723C4905F0C0
:101DE000C9FB054668B104F5A27604F522743A4BA6
:101DF0009C420FD901A902A8FFF79CFB20B9334EE2
:101E000008E0FFF7E5FA42E0FFF7E2FA6FF00105BC
:101E10003DE02E4E33460022B2F5A27F14D2981C2C
:101E20001B889BB24FF6FF718B4220D006F5A27241
:101E3000134606F5227628498E4215D901A902A833
:101E4000FFF778FBB0B9214E0024214BB4F5A27FF7
:101E500020D29D1C1A88002331190120FFF7F8FABF
:101E600068B902342B46F1E716460022D4E7023265
:101E70000346D1E7FFF7ACFA6FF0020507E001A9CE
:101E800002A8FFF757FBFFF7A3FA6FF003052846F8
:101E900006B070BD4FF4A2720D49304605F06AFBE2
:101EA000054630B9FFF794FA0C4B4FF0FF321A6039
:101EB000EDE701A902A8FFF73DFBFFF789FA6FF0F4
:101EC0000405E4E74FF0FF35E1E700BF00F000084C
:101ED0006C220020621996190000010824000020DD
:101EE0002DE9F84F804691461F4615460026344698
:101EF0009DB101F1040AD1F800B021467868FEF7DF
:101F0000F1FB01465846FEF7E5FA3146FEF7E0FAE6
:101F1000013D264604465146EAE72146F868FEF7A9
:101F2000E1FB3146FEF7D4FA054604F10040B968FA
:101F3000FEF7D8FB06464846FEF77CFB01464FF00D
:101F40008040FEF783FC044601462846FEF7CAFBA4
:101F5000054621463046FEF7C5FBC8F80050C8F8D4
:101F600004004046BDE8F88F2DE9F04F85B00546E6
:101F7000029193469A46DDF838901846FEF75AFBD0
:101F800001464FF08040FEF761FC039000274AE0D5
:101F90000136009B01930090564512D255F82480DB
:101FA0000099D9F80400FEF79DFB01464046FEF774
:101FB00091FA0199FEF78CFA0134A345E8D8002480
:101FC000E6E7009C2146D9F80C00FEF78BFB01994F
:101FD000FEF77EFA064604F10040D9F80810FEF735
:101FE00081FB8046029B03EBC7043146039E3046CB
:101FF000FEF778FB029B43F8370041463046FEF778
:1020000071FB60600023022B0CD803EB4302D1006C
:102010000E4A0A44D26882B90C4A0A44127D8AB92F
:102020000133F0E701375F4505D23C460026002327
:1020300001930093B0E7002001E04FF0FF3005B0BE
:10204000BDE8F08F4FF0FF30F9E700BF341C0020EF
:10205000F8B504460E460A493046FEF743FB0746EC
:1020600003F076FE0546384603F0F2FE074626608A
:1020700029462846FEF72EFA6060E560A760F8BDA5
:10208000DB0FC94070B50546046800212046FEF705
:10209000C7FC00283BD1012624F0004448492046D3
:1020A000FEF7BEFC002835D146492046FEF7B8FCB5
:1020B00000283DD144492046FEF7B2FC002845D116
:1020C0004FF07E512046FEF7ABFC00284CD13F4933
:1020D0002046FEF7A5FC002870D13D492046FEF7BA
:1020E0009FFC00284ED13B492046FEF799FC002872
:1020F00056D133492046FEF7F5FA04463046FEF73E
:102100009DFA2146FEF7EEFA286047200FE04FF0D7
:10211000FF36C1E730492046FEF7E4FA0446304670
:10212000FEF78CFA2146FEF7DDFA2860702070BDBC
:1021300028492046FEF7D6FA04463046FEF77EFAD6
:102140002146FEF7CFFA28606E20F0E720492046AE
:10215000FEF7C8FA04463046FEF770FA2146FEF74D
:10216000C1FA28607520E2E718492046FEF7BAFA5E
:1021700004463046FEF762FA2146FEF7B3FA2860BD
:102180006D20D4E710492046FEF7ACFA04463046ED
:10219000FEF754FA2146FEF7A5FA28606B20C6E741
:1021A00008492046FEF79EFA04463046FEF746FAF6
:1021B0002146FEF797FA28604D20B8E72020B6E7C1
:1021C0005F708930BD3786356F12833A00007A44DC
:1021D00000247449286B6E4EA5D4685338B5632823
:1021E00022D942F21073984228BF184680B22D4B74
:1021F0001880FEF71FFA2C49FEF728FB2B4B1860BE
:1022000003F0C4FE03F0C2FE03F0C0FE04462849FA
:10221000FEF706FC50B94FF07E512046FEF71EFC3B
:1022200028B14FF07E5402E06420E0E7204C1F4BC1
:102230001C6020492046FEF755FA054600243F2C35
:102240001DD82046FEF7F6F91B49FEF74BFA03F0BE
:10225000FFFD4FF07E51FEF73DF92946FEF742FAA9
:102260004FF07C51FEF736F903F0AEFDFEF726FC89
:1022700060F0FF00114B23F814000134DFE7094B35
:102280001A886AB192010E4B5B680E48816A01316F
:10229000B3FBF1F303EB5203B3FBF2F3013BC36275
:1022A00038BD00BF1800002000007A441C00002048
:1022B000CDCC4C3F0000FF42DB0FC93DB0230020D6
:1022C000441D0020000400402DE9F04184B004AC1E
:1022D00004E90300694681E80C00029E009C214647
:1022E0003046FEF7FFF98046039D019F3946284698
:1022F000FEF7F8F901464046FEF7ECF8804639460D
:102300003046FEF7EFF9064629462046FEF7EAF981
:1023100001463046FEF7DCF8044600214046FEF751
:1023200075FB18B1054804B0BDE8F0814146204670
:1023300003F0CCFD0249FEF7D5F9F4E70000C07FB9
:10234000E12E654270B584B00C461249FEF7CAF919
:10235000054610492046FEF7C5F90446284603F015
:10236000F7FC0646284603F073FD009601902046D0
:1023700003F0EEFC0546204603F06AFD029503904B
:1023800004AB13E90C00694603C9FFF79DFF04B0D5
:1023900070BD00BF35FA8E3C2DE9F04385B0684B27
:1023A00001221A704FF000089AE0664B9B78002BD0
:1023B00034D0654B03EB4829644B009380231A46C5
:1023C00063494846FFF7D0FD0028C0F2B5800024DD
:1023D00000267F2C68D85E4B03EBC40393E8030010
:1023E00004AB03E90300029D29462846FEF77AF96B
:1023F000074603990846FEF775F901463846FEF789
:1024000069F801463046FEF765F8064649F824505B
:102410000134DEE74B4BDB78002BCAD14A4E06EB8A
:102420004826002400257F2C15D856F8241008468D
:10243000FEF758F901462846FEF74CF805460134E8
:10244000F1E7404B9B78002BE8D1B2E73D4BDB78BE
:10245000002BAED0E2E74FF070512846FEF742F96C
:1024600003F094FD3B4B43F82800384B8022314663
:1024700002A8FFF735FD029C00212046FEF7C6FAB0
:1024800020B13548354B43F8280027E02146039812
:1024900003F01CFD3249FEF725F93249FEF71AF820
:1024A000314903F015FDEDE74FF070513046FEF76E
:1024B00019F903F06BFD274B43F82800234B8022CA
:1024C000494602A8FFF70CFD029C00212046FEF7BA
:1024D0009DFAE8B12048214B43F8280008F1010893
:1024E000B8F1070F22D84FEA5803204A1278002A81
:1024F0007FF45FAF032B3FF65CAF01A252F823F0ED
:10250000AB23000815240008432400084D240008CC
:102510002146039803F0DAFC1149FEF7E3F811496C
:10252000FDF7D8FF104903F0D3FCD4E70020044B9B
:10253000187005B0BDE8F0834FF0FF30F9E700BF39
:10254000B02800202818002028080020F01C0020B7
:10255000B0240020001D00200000C07F241D0020AA
:10256000E12E6542000087430000B443201D002097
:102570002DE9F04383B081468846002600960196F7
:102580000024274622E0314B9B78F3B1651C304B89
:1025900053F825103046FDF79DFF06462D492E4B7A
:1025A00053F82500FEF79EF8054603F0D1FB0146DF
:1025B0000098FDF78FFF0090284603F049FC014684
:1025C0000198FDF787FF019001370234072C20D8CE
:1025D000224B1B78002BD9D16308032BD6D801A23C
:1025E00052F823F087250008F5250008FF2500088C
:1025F00009260008154BDB78002BC7D1E5E7134B04
:102600009B78002BC2D0E0E7104BDB78002BBDD0CD
:10261000DBE73846FEF70EF801463046FEF716F9BE
:10262000C9F80000009C00212046FEF7EFF928B110
:102630000B48C8F8000003B0BDE8F08321460198BC
:1026400003F044FC0749FEF74DF8F2E72C18002090
:10265000001D002035FA8E3C241D0020201D002086
:102660000000C07FE12E65422DE9F04385B0444B68
:102670001E68002E59D1434B1B68002B55DB354695
:1026800017E0414B042203210DEB020005F058FD39
:1026900039460298FDF71EFF3C4B43F82500394AA6
:1026A000136801331360022B02DD134600221A6007
:1026B0000135072D61D8DFF8CC80D8F80020DFF88D
:1026C000D89059F82510324B05EB4504224443F8C5
:1026D000221001AF03EB840393E8070087E80700AB
:1026E000294B04220321384605F02AFD029B49F8B4
:1026F0002530264B53F82570D8F800301C44254B64
:1027000043F824703446022CBBD805EB4503234420
:10271000204A52F823103846FFF714FE04AB03EBAF
:10272000840343F80C0C0134EDE70021154B1960CC
:1027300000E0013107290DD8174B53F82140002341
:10274000022BF6D801EB41021A44114840F822400E
:102750000133F5E7002100E0013107290DD80B4BCB
:1027600053F821400023022BF6D801EB41021A4412
:10277000084840F822400133F5E705B0BDE8F08392
:10278000EC1C002008000020A51A0008241D0020D1
:1027900064030020C4030020001D00206C4B1B6854
:1027A00003B170472DE9F04F87B0FFF7F5FD002822
:1027B000C0F2D98105A904A8FFF7DAFE049A654B97
:1027C0005A60DA605A61DA61059A634B5A60DA60DE
:1027D0005A61DA61614B1B78002B00F0AA80604BD4
:1027E000D3F800904FEA89055A4B53F825806F1CA7
:1027F00053F827A05B4A1468A200901C033253F8D8
:1028000022B0594A1668314653F82000FDF76AFF96
:10281000019031465846FDF765FF0290534B196809
:102820004FF07E50FEF712F80390B9F1000F00F060
:1028300083808146002C00F08280DDF80CB0494690
:102840004046FDF74FFF8046494C60604946504680
:10285000FDF748FFA06059460198FDF743FF814608
:10286000E06059460298FDF73DFF20614946404629
:10287000FDF7ECFF80466061384B1B78002B40F081
:1028800095803C4B1C88B4F5967F94BF00240124AE
:10289000394B93F87090B9F1000F53D022012244C4
:1028A00091000B44D3F830A0996C3046FDF71AFF25
:1028B0000399FDF717FF01465046FDF7C7FF01904A
:1028C0002D4B93F8F8B0BBF1000F3ED04FEA041A3D
:1028D0000AEB04029300284A13440399D3F8C80072
:1028E000FDF700FF02905444A300234A1344D3F899
:1028F000C0103046FDF7F6FE01460298FDF7A6FF30
:10290000B9F1000F3AD0BBF1000F37D04146FDF7C7
:10291000DFFD0446019E31464046FDF7D9FD0146E4
:102920002046FDF793FF3146FDF7DCFE104B586162
:1029300037E0FFF799FE52E74FF07E597AE74FF004
:102940007E5B7CE700230193BAE70020D8E700BF55
:10295000E01C0020001D0020241D0020201D002060
:10296000C0380020301C0020140000200C00002083
:1029700054240020180000206C220020B9F1000F20
:102980000FD0019E31464046FDF7ACFE044641465D
:102990003046FDF79DFD01462046FDF757FF764B7B
:1029A0005861754A536923F000435361734E56F8DA
:1029B000271056F82500FFF7C5FC6F4CA061704B3F
:1029C0001B689B009A1C033356F8231056F822000C
:1029D000FFF7B8FC0146E061A069FFF7B3FC0546CC
:1029E0002062684B1B78002B40F0BD80664B188836
:1029F000FDF724FE6549FDF775FE06466449284645
:102A0000FDF770FE054603F0A3F90446284603F0DF
:102A10001FFA0546584B5F6921463846FDF762FEAE
:102A2000044625F000413846FDF75CFE05460021CE
:102A30002046FDF7EBFF002840F095800021284656
:102A4000FDF7E4FF002840F08E8000213046FDF7BE
:102A5000DDFF002840F0878031462846FDF7F6FE6E
:102A6000814631462846FDF73DFE01464FF07E5037
:102A7000FDF7ECFE824629462046FDF7E7FE019071
:102A800021462846FDF7E2FE029021462046FDF74A
:102A900029FE074629462846FDF724FE014638460A
:102AA000FDF718FD80462146FDF7D0FE0746294672
:102AB0004046FDF7CBFE83463146FDF7C7FE804614
:102AC00059463046FDF70EFE01464FF07E50FDF7A9
:102AD000BDFE064659463846FDF7B8FE0390394616
:102AE0005846FDF7B3FE244B1C63019A5A63029AC1
:102AF0009A63DD63DF64039A1A655865C3F858B0BA
:102B000024494846FDF7AAFF08B1DFF888901A4B20
:102B1000C3F8289000215046FDF782FF30BB164BCA
:102B2000C3F824A01C492046FDF798FF00B11A4CB9
:102B3000114BDC6217494046FDF790FF08B1DFF802
:102B400054800D4BC3F8448000213046FDF768FFE8
:102B500078B9094B1E6410493846FDF77FFF00B174
:102B60000D4F054B9F6407B0BDE8F08F4FF0000A92
:102B7000D5E70026EDE700BF54240020241D0020E7
:102B8000301C0020201D002018000020DB0FC94051
:102B900035FA8E3C00007A4420BCBE4C08B50C4B84
:102BA0001B7833B90B4B1B781BB90B4B1B68032BE2
:102BB00000D908BD0146094B20221A614FF400726A
:102BC000074804F0E6FC034B01221A70F1E700BF4E
:102BD00010000020B0280020BC3800200008014070
:102BE000B02400209B4B1B78002B00F0FA812DE9CC
:102BF000F04F95B0984B1F68032F1CD8974B53F894
:102C0000278017B9964B1B68DBB1954B1D68092DC2
:102C100076D9B8F1010F1ED0B8F1030F18D00124F6
:102C2000B8F1010F40F2BA804122002103A804F05C
:102C3000D4FC00221BE0874B00221A7015B0BDE8BF
:102C4000F08F4046FFF726F8864B00221A60DCE73B
:102C50004FF0FF34E4E74FF0FF34E1E714A901EB54
:102C6000531313F8441C013103F8441C01327F2A2A
:102C70001ED87D4B03EB820133F92230A3F50063AC
:102C800003FB04F31BB2B1F802C0ACF5006C0FFA01
:102C90008CFC764951F832601E4441F8326001EBF9
:102CA000C201486860444860002BD7DADB43D5E7AF
:102CB0002C2100221346144610E02346824202D300
:102CC000161AF6B200E02646082B03D8082E02D9C1
:102CD000012400E00124013113460246402909D8AD
:102CE00044B914A8084410F8440C9342E5D8D31A08
:102CF000DBB2E3E75B4B13F80820144303F808400A
:102D0000544B00221A705A4B1A88D3085949097833
:102D100021B959490968002961D0D309002B76D01F
:102D2000564A2021516101354D4A15600A339D42B2
:102D300084D37B1C1A460093484B53F82200FEF7BD
:102D4000A9FF4FEA48034E4C04EB8825013304EBFE
:102D50004324434B18680A38FDF76CFC01464FF0DA
:102D60007E50FDF773FD824600267F2E51D83F4FDF
:102D700057F83600FDF762FC5146FDF7B3FC45F805
:102D8000260007EBC609D9F80400FDF757FC5146A9
:102D9000FDF7A8FC44F826000136E6E700237F2B68
:102DA00018D8314A02EB830632F92310A1F50061ED
:102DB0002E4A52F8330001FB040142F83310B6F9F1
:102DC0000210A1F5006002EBC3025168014451609A
:102DD0000133E4E7234B002203F8082090E7214960
:102DE00011F8081089B9B8F1010F06D92549C97B36
:102DF00011F0040F92D0930990E708F102012248E4
:102E0000415C0029F2D101238AE7012388E70123ED
:102E100086E71E4B1B68032B0ED81D4B1F46114B1C
:102E200013F80890B9F1000F09D0124B1B78002B52
:102E30006DD00026002004E0164B1F46EFE7002669
:102E400000207F2E28D855F82610FDF743FB0136C9
:102E5000F7E700BFB0280020BC38002058BE0008AB
:102E6000240800202C180020B02400202404002076
:102E700018000020201D0020E01C00200008014058
:102E8000280800206C22002028180020E81C0020C0
:102E90006666663F9A99993E4FF07051FDF722FCA5
:102EA0000646B9F1000F17D139464FF07E50FDF7B5
:102EB0000FFBDFF834A108F1040B5AF82B10FDF7D3
:102EC00011FC019031463846FDF70CFC0146019893
:102ED000FDF700FB4AF82B00424BD3F800A0BAF1F3
:102EE000000F14D1B9F1000F04D108F104033E4AD8
:102EF00052F82360BAF17F0F09D8314655F82A00FD
:102F0000FDF7E6FA45F82A000AF1010AF2E7002582
:102F100000207F2D05D854F82510FDF7DBFA013588
:102F2000F7E74FF07051FDF7DDFB824639464FF071
:102F30007E50FDF7CDFA2C4D08F1080955F82910FF
:102F4000FDF7D0FB064651463846FDF7CBFB014660
:102F50003046FDF7BFFA064645F82900214B1D68AB
:102F600055B97F2D08D8314654F82500FDF7B0FA41
:102F700044F825000135F4E74FF4806200211B4836
:102F800004F02BFB1A4B00221A601A4BC3F8008086
:102F9000194B009A1A60032A7FF650AE0422174993
:102FA000174804F0E7FAD0B10122164B1A60134B10
:102FB0001A6813490A60002119600A4B1B68002B2C
:102FC0007FF43CAE12F47F0F08BF01210E4B196055
:102FD000130E0CBF012200220C4B1A602EE60022B9
:102FE000E3E77047E01C00206C220020240400204E
:102FF0002408002020000020BC3800202C180020CD
:1030000028180020EC1C0020C0380020301C0020B4
:10301000F0B583B00C4616461F4621F00045022845
:103020001ED0032838D042492846FDF7F9FC002875
:103030005DD140492846FDF7F3FC002862D13E49A6
:103040002846FDF7EDFC002867D12046FDF7E4F99E
:10305000CDE90001394A3946304605F0A9F90EE0BC
:1030600033492846FDF7DCFC58B12046FDF7D4F97A
:10307000CDE90001324A3946304605F099F903B0EE
:10308000F0BD2046FDF7C8F9CDE900012B4A3946CD
:10309000304605F08DF9F2E725492846FDF7C0FCDA
:1030A00078B924492846FDF7BBFCA8B12046FDF7B6
:1030B000B3F9CDE90001224A3946304605F078F9E6
:1030C000DDE72046FDF7A8F9CDE900011D4A3946A4
:1030D000304605F06DF9D2E72046FDF79DF9CDE9C0
:1030E0000001164A3946304605F062F9C7E7204626
:1030F000FDF792F9CDE90001134A3946304605F053
:1031000057F9BCE72046FDF787F9CDE900010D4AE4
:103110003946304605F04CF9B1E72046FDF77CF919
:10312000CDE90001064A3946304605F041F9A6E7E7
:10313000000020410000C84200007A446CBA000838
:1031400064BA000874BA00087CBA00082DE9F84F88
:103150008146884693461F46DDF828A0002611E0E8
:10316000012202F05DFB6400A4B20135BD4208D229
:1031700005EB090006EB080114F4004FF0D1002222
:10318000EFE70136564507D23BF81640C7F110036A
:103190009C40A4B20025E9E7BDE8F88F08B502F02D
:1031A00039FC02F0A1FA012002F06AFA02F076FA84
:1031B0004FF4FA70FEF7F6FB08BD000000000000B7
:1031C00070B582B0002002F05BFA0021084602F0E0
:1031D000B9FB2D4D012229462C4802F0A1FB2C4EB3
:1031E0002C4B9A682C49304605F016F92C780021B2
:1031F00004EB840002F0A6FB01222946304602F0CF
:103200008FFB1FA3D3E900232449304605F004F9BE
:103210003046FDF773FC00FB04F0C0F17F00002195
:1032200080B202F08FFB01222946304602F078FB83
:103230000E21102002F086FB01221949194802F0E4
:103240006FFB012400941F2303227F21002002F042
:10325000A3FB2621052002F075FB224629461248D1
:1032600002F05EFB3421052002F06CFB2246294669
:103270000E4802F055FB02F011FA02B070BD00BF1B
:10328000E17A14AE47E1DA3FF4B9000884BA0008E5
:10329000302400206C2200208CBA000890BA00086C
:1032A000E4B9000898BA0008A4BA0008B4BA000843
:1032B0002DE9F04184B0BF4BDC7B002002F0E0F947
:1032C000BD4B1B78012B00F0B88204F00204022BE6
:1032D00000F020830021084602F034FB002C00F0AF
:1032E0002681B6480122B64902F01AFBB54B1B886D
:1032F000B3F57A7F80F01D81B34A2021B34805F0F1
:1033000057F8B24E3046FEF73FFC0122AC4930463A
:1033100002F006FBAB4B1D88B5F5967F94BF0025E8
:1033200001251E220021B01C04F057F92B012B446B
:103330009A00A04B134493F87030002B00F00981E1
:103340004F22A24B1A702B011D44AA00994B134423
:1033500093F8F830002B00F0FE8053239B4E7370DF
:10336000974F3D7805EB8500002105EB400002F00A
:10337000E9FA01223946304602F0D2FAA800C0F13B
:103380007F00002180B202F0DDFA914B1B68002B18
:1033900040F0E380874BDB7B13F0040F00F0E38009
:1033A000012287498B4802F0BBFA00230393814B2B
:1033B0009B7B012B00F0F680002B00F0EB80022BB2
:1033C00000F01C811621002002F0BCFA03A8FEF7D1
:1033D00059FE0546774B9B7B012B00F03C81002B6F
:1033E00000F01481022B00F04A81784E3046FEF73F
:1033F000CBFB6FF00201042002F0B2FA0122764901
:10340000304602F08DFA4FF0FF31062002F0A8FAA4
:10341000684B9B7B012B00F07281002B00F05D81DB
:10342000022B00F07E816D4B1B68002B00F0988111
:103430004822664B1A706A4B1B68002B00F0928181
:103440004823624D6B700023AB705D4E30784000B6
:10345000C0F17F00282180B202F074FA01223146C7
:10346000284602F05DFA534B9B7B012B40F27C8196
:10347000022B40F00C82002C00F0D981594B5B6C80
:1034800004A840F8043DFEF7FDFD07464C4B597873
:10349000C1F13F018EB23146002002F053FA4B4D8C
:1034A00020232A4603990420FFF7B2FD2846FDF7A2
:1034B00025FB202F01D02F540130431C434D4822BF
:1034C0002A540022EA542846FEF75EFB01223C49BA
:1034D000284602F025FA002C00F0AC81414B5B6DD0
:1034E00004A840F8043DFEF7CDFD074631463E20D6
:1034F00002F028FA324D012229463B4802F010FA28
:10350000324C2023224603990320FFF781FD2046F9
:10351000FDF7F4FA431C27540022E2542046FEF73C
:1035200033FB01222946204602F0FAF9AFE12F4889
:10353000D8E61846FDF782F82D49FDF7D3F8FCF7D9
:103540006BFFCDE900012B4A2021204804F030FF19
:10355000D7E62D22F5E62D2300E70122394626483D
:1035600002F0DEF921E7194E202332461D49096A8F
:103570000420FFF74DFDC5EB8530C5EB80007F30A3
:10358000002180B202F0DEF901220D49304602F03E
:10359000C7F90AE71CB1134B5B6C039312E7114B9D
:1035A0009B6AFAE71CB10F4B1B6C03930AE70D4BA8
:1035B0005B6AFAE76C220020201D0020FCB900089D
:1035C000F4B900081800002008BB000830240020CF
:1035D000E01C002024BA0008ECB90008C038002024
:1035E000301C00205424002030BA000804BA00081F
:1035F0006F12833A14BA00081CBA00081CB1B34B0E
:103600009B6C0393DEE6B14BDB6AFAE770280AD0C5
:103610006E2819D075280CD02023AD4A03990420B8
:10362000FFF7F6FCE1E6AB490398FDF75BF8039082
:1036300075250398FCF7F0FECDE90001A64A20218C
:10364000A34804F0B5FED0E6A4490398FDF74AF874
:1036500003907525EDE7702806D020239C4A039936
:103660000420FFF7D5FCC0E60398FCF7D5FECDE9B2
:103670000001994A2021964804F09AFEB5E6702888
:103680000CD06E281BD0752820D06D280CD020239C
:103690008F4A03990420FFF7BBFCA6E690490398E4
:1036A000FDF720F803906D250398FCF7B5FECDE9F2
:1036B0000001894A2021864804F07AFE95E6854972
:1036C0000398FDF70FF803906D25EDE78349039804
:1036D000FDF708F803906D25E6E7202D0DD07C4B13
:1036E0001D7001235A1C7A484821C1540023835479
:1036F00001227C4902F014F995E60023F2E7202D1F
:103700000DD0734B1D7001235A1C71484621C154C2
:10371000002383540122734902F002F983E6002357
:10372000F2E7202D13D10021032002F019F90DF149
:103730000A0102A802F00CF9BDF80A10BDF8080051
:10374000122300930D23684AFFF700FD6BE66048E3
:103750000570002343700122624902F0E1F8E2E7BC
:103760004C2266E64C236CE6002C5AD0574BDB6C9F
:1037700004A840F8043DFEF785FC80465B4F7D7849
:10378000C5F13F05ADB22946002002F0DBF8012269
:103790003946574802F0C4F82946142002F0D2F8FE
:1037A0004B4E2023324603990320FFF731FC30466D
:1037B000FDF7A4F9431C06F800800022F2543046BD
:1037C000FEF7E2F901223946304602F0A9F85CB36F
:1037D0003E4B5B6D04A840F8043DFEF753FC0646E3
:1037E00029463E2002F0AEF8404D012229464148CC
:1037F00002F096F8364C2023224603990320FFF767
:1038000007FC2046FDF77AF9431C26540022E254B7
:103810002046FEF7B9F901222946204602F080F839
:1038200035E02A4B1B6BA3E7284B9B6BD2E7274B5A
:103830009B6A25E6254B9B6B52E62F4B1B68244C5D
:10384000C3F102032D4A2021204604F0B1FD0521D9
:10385000002002F077F801222249204602F060F8A9
:10386000274B1B88B3F57A7F1FD2264A202120469A
:1038700004F09EFD164C2046FEF786F92321002019
:1038800002F060F801221749204602F049F81E4B69
:10389000DB7B13F0010F78D101F000FF1B4A1368A6
:1038A0000133136004B0BDE8F0811846FCF7C6FE92
:1038B0000A49FCF717FFFCF7AFFDCDE90001144AF8
:1038C0002021034804F074FDD4E700BF54240020F5
:1038D00030240020BD37863564BA00086F12833A61
:1038E0005F708930E4B9000834BE0008F4B90008FC
:1038F0002CBA000830BA00087C1C002034BA00083A
:103900001800002040BA00086C220020E41C0020AF
:1039100048BA0008294B1B68294CC3F10203294A05
:103920002021204604F044FD0521002002F00AF881
:1039300001222549204601F0F3FF244B1B88B3F5F3
:103940007A7F12D2224A2021204604F031FD1C4CFD
:103950002046FEF719F92321002001F0F3FF012290
:103960001949204601F0DCFF91E71846FCF766FE96
:103970001849FCF7B7FEFCF74FFDCDE90001164AE8
:1039800020210F4804F014FDE1E7144B1878597812
:10399000C1F13F01C0F17F0089B280B201F0D2FFD6
:1039A0000F4BDB7B13F0080F05D00E4801220B49AB
:1039B00001F0B6FF70E70C48F8E700BF7C1C002060
:1039C0003024002054BA0008E4B900081800002090
:1039D00040BA00086F12833A48BA0008F4B90008E8
:1039E0006C2200200CBA000810BA000870470000D2
:1039F00008B53F4A136823F0070343F0020313603E
:103A00003B4B1B6803F00703022BF9D1394A1368BB
:103A100043F480331360374B1B6813F4003FFAD034
:103A2000344A536A43F001035362324B5B6A13F02A
:103A3000020FFAD02F4A536823F47C1343F4E8139F
:103A40005360136843F0807313602A4B1B6813F0B4
:103A5000007FFAD0274B5A6822F0F0025A605A6869
:103A600022F4E06242F480625A605A6822F46052A2
:103A70005A605A6822F0030242F002025A601D4B5B
:103A80005B6803F00C03082BF9D11B48FDF7A0FF7E
:103A9000184A536823F4404343F400435360FDF74E
:103AA000D1FB164B1868FDF76DFF154BDA68C2F3B2
:103AB0000222C2F10703042B28BF04231946131D59
:103AC000062B13D9033A4FF0FF338B40DB4303F04F
:103AD0000F0393401B01DBB2094A82F82330A2F5A1
:103AE0004F62136843F00203136008BD0022EAE747
:103AF000002002400010024000A24A0428000020DA
:103B000000ED00E02DE9F04F8DB000230A930B93F8
:103B1000099304930593069307930893AB4A13689C
:103B200023F001031360AA4B9A6942F004029A61E0
:103B30009A6902F004020392039A9A6942F40072AD
:103B40009A619A6902F400720292029AA14C216869
:103B500040F2011595FAA5F2B2FA82F292000F2016
:103B600000FA02F221EA020295FAA5F540F20225D6
:103B700095FAA5F1B1FA81F1890000FA01F122EA82
:103B8000010295FAA5F5226093498A6822F00102A4
:103B90008A6001F580618A6822F001028A605A69B0
:103BA00042F001025A615B6903F001030193019B3A
:103BB0008A4B1A6822F001021A601A6822F48042C5
:103BC00022F010021A601A6822F4405242F40052A5
:103BD0001A601A6842F020021A601A6822F0400245
:103BE0001A601A6842F080021A601A6822F4407261
:103BF00042F400721A601A6822F4406242F40062D1
:103C00001A60774A9A60774ADA605A68120C12048E
:103C100042F480725A60744A012151601A6842F07D
:103C200008021A601A6842F004021A601A6842F028
:103C300002021A606D4BDA68C2F30222C2F1070376
:103C4000042B28BF04231946131D062B01D9033A60
:103C500000E000224FF0FF338B40DB4303F003030F
:103C600093401B01DBB2624A82F80B334FF40063CE
:103C7000136000240A940B94574E0AA93046FDF7AE
:103C8000C7FC0CA94FF4803341F80C3D3046FDF7DA
:103C9000A3FC4FF4002304930594069407944FF477
:103CA0008073089304A93046FDF7C6FC51494FF4D0
:103CB000407999FAA9F3B3FA83F34FF4007A2AFA18
:103CC00003F351F8232022F01F0241F8232020396A
:103CD0004FF0007B9BFAABF3B3FA83F32BFA03F3B9
:103CE00051F823204FF0F87595FAA5F022F007025D
:103CF00095FAA5F042F0060241F82320344B9A6968
:103D000042F480629A619B6903F480630093009B94
:103D10000A940B94384F0AA93846FDF779FC4FF402
:103D200060230493059406944FF00208CDF81C809C
:103D3000089404A93846FDF77FFC304A99FAA9F99E
:103D4000B9FA89F92AFA09F952F8293023F01F0340
:103D500043F0010342F8293029489BFAABF3B3FA48
:103D600083F32BFA03F350F8232095FAA5F1B1FA67
:103D700081F14FF4401424FA01F14FF0070C0CFAD2
:103D800001F122EA010295FAA5F5B5FA85F524FAC2
:103D900005F5062404FA05F5154340F82350B368E9
:103DA00043F00103B360BB6843F00103BB604046CE
:103DB000FDF7F8FD134B1A68B36843F00403B360D2
:103DC000BB6843F00403BB6024E000BF0004004074
:103DD0000010024000080140002401400800024099
:103DE0004C240140301800200000024000ED00E0AB
:103DF00000E100E02C240140002801402C28014073
:103E00000C280140502400201C4B1B689B1A632B7C
:103E10000AD830BF1A4B9B6813F0040FF4D1194B2A
:103E20009B6813F0040FEFD10220FDF7BBFD154A8C
:103E3000936823F001039360114B996821F001010D
:103E400099601148016841F0010101606FF00201C1
:103E500011601960916841F001019160996841F029
:103E600001019960916841F4A00191609A6842F45F
:103E700080129A600DB0BDE8F08F00BF5024002082
:103E800000240140002801400800024030B589B0FC
:103E90003E4A536943F001035361536903F0010340
:103EA0000293029B3A4C236823F0010323602368AA
:103EB00023F4804323F0100343F0100323602368AE
:103EC00043F440532360236843F0200323602368B6
:103ED00023F040032360236843F0800323602368BA
:103EE00023F4407343F480732360236823F4406316
:103EF00043F480632360274BE360274BA360636830
:103F00001B0C1B0443F040036360002303930493E2
:103F1000059306930793D36943F00203D361D369F2
:103F200003F002030193019B1C4B1B889A011C4B5D
:103F30005B6803EB5203B3FBF2F3013B0593194DAE
:103F400003A92846FDF780FC2B6843F080032B6013
:103F5000AB6823F4804323F00703AB606B6823F066
:103F6000700343F020036B60AB6823F08003AB6009
:103F7000EB6843F48073EB60236843F00103236034
:103F80002B6843F001032B6009B030BD00100240E4
:103F900030000240B02300200C0C0140180000202B
:103FA000441D00200004004030B591B00023099367
:103FB0000A930B930C930D930E930F93079308930F
:103FC0006C4CA36943F48043A361A36903F4804369
:103FD0000393039BA36943F00403A361A36903F064
:103FE00004030293029B644B049309230593022369
:103FF0000693624D04A92846FDF749FB604B0493E4
:10400000082305930123089304A92846FDF73FFBE5
:10401000636943F001036361636903F00103019382
:10402000019B584B1A6822F001021A601A6822F4A8
:10403000804222F0100242F010021A601A6822F444
:1040400040521A601A6822F020021A601A6822F0A0
:1040500040021A601A6842F080021A601A6822F45C
:1040600040721A601A6822F440621A60464A4FF49D
:10407000805151601A6842F008021A601A6842F0D2
:1040800002021A60414BDA68C2F30222C2F107034E
:10409000042B28BF04231946131D062B66D9033AA7
:1040A0004FF0FF338B40DB4303F0010393401B01D0
:1040B000DBB2374A82F80E334FF480431360354B3E
:1040C0009B68099300230A930B930C930C220D9287
:1040D0000E930F93304C09A92046FDF7EDFB2369A1
:1040E00023F490432361636923F02A0363612B4A1D
:1040F00052E8003F43F0800342E800310029F6D146
:10410000254B1A680092009A5A680092009A6FF044
:1041100020021A60224A52E8003F43F0200342E89E
:1041200000310029F6D1194BDA68C2F30222C2F13C
:104130000703042B28BF04231946131D062B17D988
:10414000033A4FF0FF338B40DB4303F0010393400E
:104150001B01DBB20E4A82F82533202353600E4A3E
:10416000D36843F40053D36011B030BD002297E709
:104170000022E6E7001002400200020400080140AD
:1041800004000404440002400000024000ED00E08E
:1041900000E100E06C2200200038014014380140AA
:1041A0000C3801402DE9F0438DB04FF00008CDF8F8
:1041B0002880584B9A6942F004029A619A6902F089
:1041C00004020692069A9A6942F008029A619A6974
:1041D00002F008020592059A9A6942F010029A616B
:1041E0009A6902F010020492049A9A6942F020023D
:1041F0009A619B6903F020030393039B464E4FF0A3
:104200000409C6F814904FF480737361202373611E
:104210004023736180237361404CFF236361012756
:104220000897022309930B970CAD40F2044345F81D
:10423000143D29463046FDF72AFA394B07932946A3
:104240003046FDF724FA42F2200307932946304610
:10425000FDF71DFA44F24003079329463046FDF767
:1042600016FA48F28003079329463046FDF70FFA05
:10427000032309934FF6FF73079329462046FDF762
:1042800006FACDF8288041F21003079329463046FC
:10429000FDF7FDF9CDF8289040F60803079329466D
:1042A0003046FDF7F4F9082308930B971D4B07934D
:1042B00029462046FDF7EBF91B4B0793294620467C
:1042C000FDF7E5F9194B079329462046FDF7DFF97D
:1042D0004FF49033A3614FF40052A261A361A3692C
:1042E0000293029B4FF4A033A3614FF48042A2617A
:1042F000A361A3690193019B4FF4C033A3614FF401
:104300000042A261A361A3690093009B0DB0BDE8C8
:10431000F08300BF0010024000080140000C014083
:1043200001000104200020044000400480008004BB
:1043300008B54FF49670FDF7F3FB08B56420FDF760
:10434000EFFB08B56420FDF7EBFB08B56420FDF733
:10435000E7FB08B56420FDF7E3FB70477047704743
:1043600038B5FCF749FF464B1A6801321A601C68E1
:10437000002322E0013A12B237E00022580018442C
:10438000C500404929440A81C96849B91D2A07DD89
:104390003C4A2A440021117511615175D4600BE02B
:1043A00009B1002A27DD002940D0611A03EB43023E
:1043B000D000344A024411610133022B49D803EB87
:1043C0004301CA002F4988580028F5D05A001A44E2
:1043D000D50029440A894D688168C94301EA15213D
:1043E00089B20029C6D0013212B2002AC5DB1E2ACA
:1043F000C4DD1E22C2E703EB4302D000214A02447F
:10440000527D3AB11F4A0244002111611175D160F9
:104410005175D1E7611A58001844C500194A2A4459
:104420001161012111750021D160C5E703EB430241
:10443000D100144A0A44527D002ABDD059001944C3
:10444000C800104A0244002111611175D1605175F4
:10445000B2E70D4B1B68002B03DD0B4A1368013BD1
:1044600013600A4BD3F80824D3F8083401339A4276
:1044700005D2064AD2F808340133C2F8083438BDF0
:1044800050240020341C0020240000205C1D00204B
:1044900008B5104B1B6813F0080F02D00D4B082213
:1044A0005A600C4B1B6813F0040F05D1094B1B68B5
:1044B00013F0020F07D108BD0748FEF76FFB054B4D
:1044C00004225A60F2E70548FEF768FB014B02221E
:1044D0005A60F0E70000024030180020301A002037
:1044E0000B4B1B6813F4004F04D1094B1B6813F4EA
:1044F000005F0BD0074A136823F001031360044BDD
:104500004FF400425A604FF400525A60704700BFA7
:10451000000002404400024082B0124BD3F8043441
:1045200007E0104AC2F804340021C2F80814D2F897
:1045300000240D4A126812F0200F0AD00A4A52686D
:10454000D2B20849CA540133B3F5806FE9D30023CE
:10455000E7E7054B1A680192019A5B680193019B9A
:1045600002B070475C1D00200038014038B5814B17
:10457000DB68ABB17F4B5B6A93B17E4BDB6B7BB986
:104580007C4B1B69B3F5487FC0F08880794B9B6AF0
:10459000B3F5487FC0F08280FDF79CFBFDF7A6FADB
:1045A000754B1B78002B4FD1724BDB6833B1714BCD
:1045B0005B6A1BB96F4BDB6B002B51D06D4B1B7DC6
:1045C000002B68D16B4BDB6833B96A4B5B6A1BB15C
:1045D000684BDB6B002B6DD0664B93F82C30002BB7
:1045E00040F08780634BDB683BB9624B5B6A23B961
:1045F000604BDB6B002B40F094805E4B93F84430B3
:10460000002B4BD05B4B93F84530002B46D1594BD8
:10461000012283F84520594B00221A60584AD37B67
:1046200083F00403D37313F0040F06D1937B01339B
:10463000022B00D90023524A9373524B41F2883225
:104640001A60FEF735FE29E00023022B26D803EB83
:104650004302D100474A0A44012151750B44F4E753
:10466000444B1B69B3F5FA7F18D3424B5B7DABB962
:104670000125404B5D750021404B196064242246A2
:10468000414802F0AAFF3C4B1D702046FDF7A6FDF5
:10469000FEF70EFE02E0374B5B7D03B138BD354BB4
:1046A00001225A75354A136883F001031360FEF73F
:1046B000FFFDF3E72F4B9B6AB3F5FA7FEED32D4B4B
:1046C00093F82D30002BE9D12A4B012283F82D20BD
:1046D00000212A4B1960642422462B4802F07DFFFA
:1046E000254B02221A702046FDF778FDFEF7E0FD0B
:1046F000D4E7204B93F82D30002BCFD11D4B012256
:1047000083F82D201D4B00221A601D4AD37B83F0B5
:104710000203D3731B4B41F288321A60FEF7C8FDC7
:10472000BCE7144B1B6CB3F5FA7FB7D3114B93F86E
:104730004530002BB2D10F4B012283F845200F4B9F
:1047400000221A600E4B9B89B3F57A7F0ED00C4B7A
:104750004FF47A729A810A4B9889FDF73FFD094B15
:1047600041F288321A60FEF7A3FD97E7044B6422FA
:104770009A81F0E7341C0020201D0020E01C00205E
:104780006C220020240000207C1C0020264BDB7BB8
:1047900013F0010F47D0254A126812F0010F42D1E1
:1047A00070B513F0080F01D1002524E0204D2C46F0
:1047B000204B44F8063B4FF4805632461E492046B3
:1047C00002F0E7FE324621460020FDF72DF9A880D1
:1047D00041F206012846FDF71DFA70BD05F560752A
:1047E000154B53F82500FBF717FE02460B461348FE
:1047F00003F0F2FB35467F2DEFD86E1C3146104892
:1048000003F0EAFB0024062CE8D805EBC4120A4B9F
:1048100053F82200FBF700FE02460B46094803F05E
:10482000DBFB0134EFE770476C22002044000240BC
:10483000B428002096196219280800202CBE000810
:104840001CBE000824BE0008002800F062832DE989
:10485000F0478AB00C460546002900F0A1800026EA
:1048600004E003F0EDFEC0B238700136A64205D276
:10487000AF19A85D0928F4D12020F5E74CB12B78B9
:10488000202B06D8013C2246691C284602F08CFEEB
:10489000F4E73CB1631EEA5C202A03D80022EA5404
:1048A0001C46F6E7002C7BD000272F55BC4204D9CC
:1048B000EB5D202B01D90137F8E70023EB5507F119
:1048C0000108A04504D8E41B013C0026B14602E0E3
:1048D0000024FAE7013606EB46029300A64AD158B7
:1048E000B1B106EB46039A00A34B134493F808A01A
:1048F000BAF1000F0CD03A46284603F0FDFD00281F
:10490000E8D1B9F1000F01D1D146E3E74FF000093A
:1049100004B147462F4409F1FF39B9F10E0F00F2F7
:10492000F382DFE819F00F000F00470040009A0003
:10493000B500DF012A02D0005501A601F102F10203
:1049400048024D0200252C4600E0013404EB4402ED
:104950009300894AD05860B104EB44039A00864B17
:1049600013441B7A2BB1FCF7C9F88542EDD20546FA
:10497000EBE7824803F0A4FB00240AE004EB4403C5
:1049800099007D4B0B445B6829467D4803F024FB6E
:10499000013404EB44029300774AD258002AEDD147
:1049A0000AB0BDE8F087774803F08AFBFDF792F97B
:1049B000FDF79CF8FCB10AA9002341F8043D0A2246
:1049C000384603F027FE044602F01EFC0368002B65
:1049D00017DC099BBB4214D0B4F5E13F11DBB4F501
:1049E000612F0EDCB4F5612FA8BF4FF46124664B34
:1049F0009B68A3420AD1644B9968644803F0ECFABF
:104A0000CEE73946624803F0E7FAC9E75E4B9C609F
:104A1000604BDA68192303FB02F3A400B3FBF4F440
:104A20006421B4FBF1F31A0192B201FB13431B01A1
:104A30003233B3FBF1F39BB203F0F0010A4492B2BC
:104A400003F00F0313449BB2534A9360534B41F25C
:104A500088321A60FEF72CFCCDE7514B1B781BB156
:104A6000504803F02DFB9BE74F4803F029FB002142
:104A70004E4B1960642422464D4802F0AEFD484B6F
:104A800001221A702046FDF7A9FBFEF711FC87E70B
:104A9000434B1B781BB1434803F012FB80E74548AA
:104AA00003F00EFB0021414B19606424224640486C
:104AB00002F093FD3A4B02221A702046FDF78EFB5E
:104AC000FEF7F6FB6CE794B92F4B9B89B3F57A7F21
:104AD00041D2394A2021394803F06AFC374C20463C
:104AE000FDF752F82146364803F076FA58E70AA94E
:104AF000002341F8043D0A22384603F08BFD0446AA
:104B000002F082FB0368002B20DC099BBB421DD016
:104B1000632C1BDD42F210739C4217DC42F21070D2
:104B2000A042A8BF204680B2174B9B898342CBD0BE
:104B3000154B98811A4B1B780BB9FDF74FFB174BA0
:104B400041F288321A60FEF7B3FBBDE739461D48D3
:104B500003F042FA24E71846FBF770FD1A49FBF709
:104B6000C1FDFBF759FCCDE90001184A202113488B
:104B700003F01EFCB2E700BF68BE000864BB00087B
:104B8000A0BB0008ACBB00086C220020E4BB0008FE
:104B9000C4BB0008441D0020003801402400002050
:104BA000201D0020F4BB0008FCBB0008E01C002016
:104BB0007C1C002018BC000858BC000830240020D1
:104BC00060BC000838BC00086F12833A48BA00087D
:104BD00074B122469A49384603F08EFCB0B9994B1D
:104BE00002229A73984B41F288321A60FEF760FBFA
:104BF000964803F0F1F9002002F0BCFB914B9B7B3F
:104C0000032B32D8DFE803F02125292D22469049D5
:104C1000384603F071FC28B122468E49384603F02D
:104C20006BFC18B9874B00229A73DBE722468A494E
:104C3000384603F061FC18B9824B01229A73D1E720
:104C40003946864803F0C8F9AAE6854803F038FAE1
:104C5000A6E6844803F034FAA2E6834803F030FA6B
:104C60009EE6824803F02CFA9AE6814803F028FA7F
:104C700096E69CB122467F49384603F03DFCE0B9F8
:104C8000704AD37B23F00203D3737B4B00221A605C
:104C90006D4B41F288321A60FEF70AFB774803F049
:104CA0009BF9002002F066FB664BDB7B13F0020FE2
:104CB00014D0734803F004FA72E62246714938466C
:104CC00003F01AFC28B95F4AD37B43F00203D37385
:104CD000DBE739466C4803F07FF961E66B4803F087
:104CE000EFF95DE684B122466949384603F004FCD9
:104CF000E0B9544AD37B23F00103D373524B41F202
:104D000088321A60FEF7D4FA624803F065F9002091
:104D100002F030FB4B4BDB7B13F0010F25D113F07E
:104D2000080F26D05C4803F0CBF939E622465B49F0
:104D3000384603F0E1FB28B9424AD37B43F009032C
:104D4000D373DBE722465649384603F0D5FB38B922
:104D50003C4AD37B23F0090343F00103D373CDE72F
:104D60003946504803F038F91AE64F4803F0A8F9DD
:104D700016E64E4803F0A4F912E64D4B1B7893B9A2
:104D80003D4C236883F001032360FEF791FA494804
:104D900003F022F9002002F0EDFA23683BB1464807
:104DA00003F08EF9FCE5454803F08AF9F8E544483C
:104DB00003F086F9F4E5434803F082F9FCF796FE28
:104DC000414B1B78002B29D0404A3F4B5B78002B8E
:104DD00026D03F493C4B9B7823B33E483A4BDB7887
:104DE00013B33D4C384B1B7903B33C4D364B5B79C9
:104DF000F3B13B4E344B9B79002B40F08380394B11
:104E000006930596049503940290019100920AA3DB
:104E1000D3E90023344803F0DFF8C1E5334AD4E78F
:104E20003349D7E73348D9E7334CDBE7334DDDE788
:104E3000334EDFE7AFF30080E17A14AE47E1DA3FAB
:104E40007CBC00086C22002024000020C4BC0008A8
:104E500088BC000894BC00089CBC0008A8BC0008E2
:104E6000D0BC0008DCBC0008ECBC0008F8BC0008A2
:104E700000BD000808BD0008E01C002038BD000887
:104E800044BD000810BD00081CBD000850BD00084E
:104E900058C000087CBD000890BD000858BD00083F
:104EA0005CBD000860BD000888BD000898BD000812
:104EB000201D0020A0BD0008ACBD0008F4BB000808
:104EC000B4BD0008BCBD0008541D00200CBB000888
:104ED00014BB00081CBB000824BB000834BB00083E
:104EE00044BB00085CBB0008CCBD000810BB000838
:104EF00018BB000820BB00082CBB00083CBB000806
:104F00004CBB0008034B7BE72946034803F064F8D9
:104F100046E5704754BB0008FCBD00082DE9F04190
:104F20003D4BD3F80454D3F80044D3F8082440F69A
:104F3000B7339A420ED9A54207D0374BC3F8005475
:104F40000022C3F80C25BDE8F081334BD3F80C35B3
:104F5000002BF2D1A542F6D02F4BD3F80C6517E009
:104F6000C4F5806318E02C4BC3F800540022C3F84A
:104F70000C25E8E78B423DD9274B0022C3F80824D3
:104F800003F20C43C91A3CD10026234BC3F80C652D
:104F9000AC42D8D0E4D82B1B002BD4D0C6F58077F8
:104FA0009F4228BF1F46002FDDD0DFF86C8006F53A
:104FB000816040443A4608EB0401043002F0E9FA0B
:104FC0003E44C8F80C653C44B4F5806F00D300241F
:104FD0001149C1F8004401F20C41104B33448B429B
:104FE000C8D90A780D2AC5D00A2AC3D0002AC1D050
:104FF0000131F2E7FE2ECBD90026074BC3F80C6532
:10500000C6E7A3F20C40431883F80C2400F20C40CE
:10501000FFF71AFCB8E700BF5C1D002068210020E4
:105020002DE9F041A14B1B78012B04D0022B00F09D
:105030009F80BDE8F0810024072C0BD89C4D05EB28
:1050400084059C4B53F824106868FBF743FA6860AA
:105050000134F1E70025072D1BD89749974B53F8EA
:105060002500FBF73FFB064600F072FE2B1D904C1F
:1050700004EBC30401466068FBF72CFA606030461D
:1050800000F0E6FE0146A068FBF724FAA0600135B7
:10509000E1E78B4B41F288321A60854B1F6801377C
:1050A0001F60022FC5DD874B1D88B5F5967F94BF25
:1050B000002401240026072E14D87D4B03EB860321
:1050C000D3F804803846FBF7B9FA01464046FBF7AF
:1050D000BDFB2301234433440C337B4A42F82300B5
:1050E0000136E8E7002612E0331D714A02EBC303E4
:1050F0003946986800F0EAFE7449FBF7F3FA230199
:10510000234433441433704A42F823000136072EF7
:105110000CD8331D664A02EBC3035F680021384692
:10512000FBF774FC0028DFD06948E8E723011C4442
:10513000A200654B1344012283F87020B5F5967FD9
:105140000BD8642200215A4802F047FA4FF47A70D3
:10515000FDF744F8FEF7ACF86BE75E4802F0B0FFED
:10516000594B9889FDF73AF8504B00221A70F1E735
:105170000024072C0BD84E4D05EB84054D4B53F8FE
:1051800024106868FBF7A6F968600134F1E7002590
:10519000072D1BD84849494B53F82500FBF7A2FAC5
:1051A000064600F0D5FD2B1D414C04EBC30401461F
:1051B0006068FBF78FF96060304600F049FE0146F9
:1051C000A068FBF787F9A0600135E1E73C4B41F2AD
:1051D00088321A60364B1F6801371F60022F7FF735
:1051E00028AF384B1D88B5F5967F94BF0024012465
:1051F0000026072E14D82E4B03EB8603D3F8048029
:105200003846FBF71BFA01464046FBF71FFB23011C
:10521000234433442E332C4A42F823000136E8E776
:10522000002612E0331D224A02EBC3033946986878
:1052300000F04CFE2549FBF755FA23012344334483
:105240003633214A42F823000136072E0CD8331D8D
:10525000174A02EBC3035F6800213846FBF7D6FB11
:105260000028DFD01A48E8E723011C44A200164BAF
:105270001344012283F8F820B5F5967F0BD86422F9
:1052800000210B4802F0A9F94FF47A70FCF7A6FF51
:10529000FEF70EF8CDE6104802F012FF0A4B98898F
:1052A000FCF79CFF014B00221A70F1E7201D002043
:1052B0007C1C0020001D002035FA8E3C241D00209F
:1052C00024000020180000206C220020E12E6542FE
:1052D0000000C07FC8BA0008E8BA0008000000005B
:1052E00070B58AB0984A936943F00103936193695A
:1052F00003F001030993099BD36943F08053D36101
:10530000D36903F080530893089B90494B6823F0BE
:10531000E06343F000734B608D4B596841F480713A
:105320005960596841F400715960596841F48061CD
:105330005960596841F400615960596841F48051DD
:105340005960596841F400515960596841F400416D
:105350005960596841F480315960596841F480417D
:1053600059607C48C16821F4E0610904090C7A4B5A
:105370000B43C360516AC1F3C061784B1970516A25
:10538000C1F380615970516AC1F300719970516A1B
:10539000C1F34071D970516AC1F380711971516ABA
:1053A000C90F5971916801F001019971536A43F075
:1053B000807353626A4BA2F582321A606949596060
:1053C0009A6101F12011D9611A63674A5A63674CE7
:1053D000674B63604FF46123A3604FF47A73A3813A
:1053E0000123A373E37B43F00903E373FCF73AFB68
:1053F000FBF7F0FEFEF7FCFA5E48FCF715FAFEF745
:10540000D1FEFEF7D1FD4FF072515B48FCF720FE54
:10541000FCF7B2FCA368B3F5E13F4CD3B3F5612FC1
:1054200028BF4FF46123514CA36061684FF07E5058
:10543000FBF70CFA514B1860514B1A68514B53F85B
:105440002200514B1860FCF725FCA089FCF7C6FE32
:10545000FDF7A4FEFDF7B4FE404B1B78002B2DD0CA
:105460004A4B3E4A5278002A2AD0494A3B49897819
:10547000002927D047493948C07828B34648374CD7
:1054800024791CB3454C354D6D790DB3444D334EE5
:10549000B679FEB1434E06960595049403900291A9
:1054A0000192009326A3D3E900233F4802F094FD24
:1054B0003E4B186822E04FF4E133B4E73C4BD0E7B1
:1054C0003C4AD3E73C49D6E73C48D8E73C4CDAE7CE
:1054D0003C4DDCE73C4EDEE70133022B0AD803EB00
:1054E0004301CC001E492144098909B20029F3DD9A
:1054F0001046F1E7121AB2F57A7F04D230BF2B4B77
:105500001A680023E9E70022022A0CD8530013444A
:10551000D900134B0B44002159751981D9601975B5
:1055200019610132F0E7FEF7EDFAFEF7AFFC4FF438
:105530007A70FCF737FA254B00221A704BE000BF57
:10554000E17A14AE47E1DA3F00100240000001406A
:10555000002004E000ED00E00003FA05541D0020E7
:10556000341C002020002004800080046C220020D5
:1055700000007A44441D0020F01C0020140000208C
:10558000BC38002058BE0008542400200CBB000882
:1055900014BB00081CBB000824BB000834BB000877
:1055A00044BB000854BB000810BF00085024002072
:1055B00010BB000818BB000820BB00082CBB00086B
:1055C0003CBB00084CBB00085CBB0008100000207E
:1055D0001A4B1B6813B3BFF34F8F30BFFEF7C6FFE4
:1055E000FFF79CFCFDF7FEFA154B1968154A52F8B7
:1055F0002110154A11601B68032BE9D9FDF7CEF87D
:10560000FFF70EFDFDF754FEFFF7C0F80F4A1368D1
:10561000013313600A4B00221A60D9E7FCF7BEFB86
:10562000002807DB054B4FF0FF321A60084802F0F4
:1056300047FDD0E7FCF7B2FBF4E700BF24000020F1
:10564000BC38002058BE000854240020E81C00206C
:1056500048BF000808B54FF6FF710120FCF72AFA91
:1056600008BD10B582B000248DF804408DF8050007
:10567000022201A9782000F001FB204602B010BDF3
:1056800008B530B1FF214FF48062034801F0A5FF57
:1056900008BD0021F7E700BFC03B002010B5A2B055
:1056A00040238DF80430002418E0A4F15000C0B26B
:1056B000FFF7D7FF0020FFF7D4FF1020FFF7D1FF3F
:1056C0008022084901EBC4110DF1050001F061FFD2
:1056D000812201A9782000F0D1FA0134072CE4DD01
:1056E00022B010BDC03B002010B50023494A5371C1
:1056F0000CE0DA08D201484921F8132003F0070131
:1057000001228A404549CA5401339BB23F2BF0D94C
:105710006420FBF783FDAE20FFF7A3FF04462020A3
:10572000FFF79FFF04441020FFF79BFF0444B020C5
:10573000FFF797FF0444C820FFF793FF04440020BD
:10574000FFF78FFF04441020FFF78BFF0444402035
:10575000FFF787FF04448120FFF783FF0444FF2005
:10576000FFF77FFF0444A120FFF77BFF0444A6203E
:10577000FFF777FF0444A820FFF773FF04443F209E
:10578000FFF76FFF0444A420FFF76BFF0444D3200E
:10579000FFF767FF04440020FFF763FF0444D520B0
:1057A000FFF75FFF0444F020FFF75BFF0444D920BC
:1057B000FFF757FF04442220FFF753FF0444DA2089
:1057C000FFF74FFF04441220FFF74BFF0444DB2098
:1057D000FFF747FF04442020FFF743FF04448D20D8
:1057E000FFF73FFF04441420FFF73BFF0444AF20C2
:1057F000FFF737FFE04201D0012010BD0020FFF786
:105800003FFFFFF74BFF034B002018805880012219
:105810005A71F2E7C4380020CC3800204C390020FF
:105820000F4B5B79B3B17F2814D83F2912D80C4BAA
:105830001B7913B1B2FA82F252090A4B33F81130D4
:105840001844094B595C012A05D0084A135C23EA25
:10585000010313547047054A135C0B4313547047FC
:10586000C4380020CC3800204C390020C03B002038
:105870002A4B5B79002B4FD02DE9F04F83B0274B9B
:105880001B880D782B447F2B3CDC244B5B8891F8E4
:1058900001A053443F2B39DC8B78834238D8CC7835
:1058A000844237D3174688460190D346C31A0AFB71
:1058B00003FA002614E03A46FFF7B2FF0134AC4287
:1058C0000DD2164B188820445988314409FA04F344
:1058D00013F4004FEFD1B7FA87F25209ECE7013623
:1058E0005E4507D2D8F8043006EB0A0233F812906E
:1058F0000024E4E798F80030084A11880B4413802C
:10590000019800E0002003B0BDE8F08F0020FAE726
:105910000020F8E70020F6E7704700BFC4380020F9
:1059200070B504460E46154623784BB12A463146DB
:105930001846FFF79DFF2378984201D10134F3E721
:10594000184670BD014B188059807047C43800203C
:10595000024B1A8802805B880B807047C438002095
:105960000C4B1B881844002810DD8028A8BF80201D
:1059700080B2084B18805B881944002908DD402953
:10598000A8BF402189B2034B598070470020F0E73F
:105990000021F8E7C43800202DE9F04104460D4607
:1059A00090461F469DF81860064B5B7933B907E0B7
:1059B000324639462046FFF733FF4444AC42F7D91C
:1059C000BDE8F081C438002000F0C0F90B480C4954
:1059D0000C4A002302E0D458C4500433C4188C424B
:1059E000F9D3094A094C002301E013600432A242B2
:1059F000FBD301F09BFDFFF773FC70470000002014
:105A0000000200209CC8000800020020C43F0020C3
:105A1000FEE70000F0B587B0104C08232361102387
:105A20002361012602960327039704230493059616
:105A300006AD40F6080345F8143D29462046FBF71D
:105A400026FE029603970023049341F2100301936C
:105A500029462046FBF71BFE07B0F0BD00080140B9
:105A6000174B10221A610821196100BF00BF00BF47
:105A700000BF00BF00BF00BF00BF00BF00BF00BF2E
:105A800000BF00BF00BF00BF00BF596100BF00BF23
:105A900000BF00BF00BF00BF00BF00BF00BF00BF0E
:105AA00000BF00BF00BF00BF00BF00BF5A6100BF02
:105AB00000BF00BF00BF00BF00BF00BF00BF7047F6
:105AC00000080140174B08225A6100BF00BF00BF09
:105AD00000BF00BF00BF00BF00BF00BF00BF00BFCE
