:020000040800F2
:1000000000500020F1650008594A0008634A0008C2
:100010006B4A0008734A00087B4A00080000000091
:10002000000000000000000000000000834A0008FB
:10003000854A000800000000874A0008894A000835
:100040009966000899660008996600089966000894
:100050009966000899660008996600089966000884
:100060009966000899660008814C0008C54B000895
:100070009966000899660008154C00089966000802
:100080009966000899660008996600089966000854
:100090009966000899660008996600089966000844
:1000A0009966000899660008996600089966000834
:1000B0009966000899660008996600089966000824
:1000C0009966000899660008996600089966000814
:1000D000996600082D4C000899660008996600088A
:1000E00099660008996600089966000800000000FB
:1000F0000000000000000000000000000000000000
:0C01000000000000000000005FF808F1A3
:1001100010B5054C237833B9044B13B10448AFF341
:1001200000800123237010BDF801002000000000B2
:1001300068B1000808B5034B1BB103490348AFF38E
:10014000008008BD00000000FC01002068B100082C
:1001500081F0004102E000BF83F0004330B54FEA78
:1001600041044FEA430594EA050F08BF90EA020FE5
:100170001FBF54EA000C55EA020C7FEA645C7FEA78
:10018000655C00F0E2804FEA5454D4EB5555B8BF9B
:100190006D420CDD2C4480EA020281EA030382EA0C
:1001A000000083EA010180EA020281EA0303362D9E
:1001B00088BF30BD11F0004F4FEA01314FF4801C71
:1001C0004CEA113102D0404261EB410113F0004F83
:1001D0004FEA03334CEA133302D0524263EB43033A
:1001E00094EA050F00F0A780A4F10104D5F1200ED8
:1001F0000DDB02FA0EFC22FA05F2801841F1000133
:1002000003FA0EF2801843FA05F359410EE0A5F106
:1002100020050EF1200E012A03FA0EFC28BF4CF037
:10022000020C43FA05F3C01851EBE37101F00045ED
:1002300007D54FF0000EDCF1000C7EEB00006EEBFA
:100240000101B1F5801F1BD3B1F5001F0CD3490884
:100250005FEA30004FEA3C0C04F101044FEA4452DB
:1002600012F5800F80F09A80BCF1004F08BF5FEA62
:10027000500C50F1000041EB045141EA050130BD42
:100280005FEA4C0C404141EB0101013C28BFB1F554
:10029000801FE9D291F0000F04BF01460020B1FA9F
:1002A00081F308BF2033A3F10B03B3F120020CDA72
:1002B0000C3208DD02F1140CC2F10C0201FA0CF050
:1002C00021FA02F10CE002F11402D8BFC2F1200CB5
:1002D00001FA02F120FA0CFCDCBF41EA0C0190406B
:1002E000E41AA2BF01EB0451294330BD6FEA0404B4
:1002F0001F3C1CDA0C340EDC04F11404C4F120029F
:1003000020FA04F001FA02F340EA030021FA04F3B0
:1003100045EA030130BDC4F10C04C4F1200220FA07
:1003200002F001FA04F340EA0300294630BD21FA45
:1003300004F0294630BD94F0000F83F4801306BF0B
:1003400081F480110134013D4EE77FEA645C18BFFF
:100350007FEA655C29D094EA050F08BF90EA020F96
:1003600005D054EA000C04BF1946104630BD91EA8E
:10037000030F1EBF0021002030BD5FEA545C05D191
:100380004000494128BF41F0004130BD14F58004D0
:100390003CBF01F5801130BD01F0004545F0FE4144
:1003A00041F470014FF0000030BD7FEA645C1ABF79
:1003B000194610467FEA655C1CBF0B46024650EAB0
:1003C000013406BF52EA033591EA030F41F40021DC
:1003D00030BD00BF90F0000F04BF0021704730B562
:1003E0004FF4806404F132044FF000054FF0000137
:1003F00050E700BF90F0000F04BF0021704730B5F8
:100400004FF4806404F1320410F0004548BF4042CC
:100410004FF000013EE700BF42004FEAE2014FEA21
:1004200031014FEA02701FBF12F07F4393F07F4FFC
:1004300081F06051704732F07F4208BF704793F0FF
:100440007F4F04BF41F40021704730B54FF4607412
:1004500001F0004521F000411CE700BF50EA010215
:1004600008BF704730B54FF000050AE050EA0102BE
:1004700008BF704730B511F0004502D5404261EB2E
:1004800041014FF4806404F132045FEA915C3FF46F
:10049000D8AE4FF003025FEADC0C18BF03325FEA0C
:1004A000DC0C18BF033202EBDC02C2F1200300FABD
:1004B00003FC20FA02F001FA03FE40EA0E0021FAE2
:1004C00002F11444BDE600BF80F0004002E000BF2E
:1004D00081F0004142001FBF5FEA410392EA030F2F
:1004E0007FEA226C7FEA236C6AD04FEA1262D2EB79
:1004F0001363C1BFD218414048404140B8BF5B427E
:10050000192B88BF704710F0004F40F4000020F016
:100510007F4018BF404211F0004F41F4000121F02C
:100520007F4118BF494292EA030F3FD0A2F1010276
:1005300041FA03FC10EB0C00C3F1200301FA03F1B4
:1005400000F0004302D5494260EB4000B0F5000FD7
:1005500013D3B0F1807F06D340084FEA310102F196
:100560000102FE2A51D2B1F1004F40EBC25008BF48
:1005700020F0010040EA03007047490040EB000012
:10058000013A28BFB0F5000FEDD2B0FA80FCACF113
:10059000080CB2EB0C0200FA0CF0AABF00EBC25040
:1005A00052421843BCBFD0401843704792F0000F2E
:1005B00081F4000106BF80F400000132013BB5E781
:1005C0004FEA41037FEA226C18BF7FEA236C21D0F7
:1005D00092EA030F04D092F0000F08BF084670475C
:1005E00090EA010F1CBF0020704712F07F4F04D12A
:1005F000400028BF40F00040704712F100723CBF3D
:1006000000F50000704700F0004343F0FE4040F466
:10061000000070477FEA226216BF08467FEA236324
:100620000146420206BF5FEA412390EA010F40F40F
:10063000800070474FF0000304E000BF10F000435B
:1006400048BF40425FEA000C08BF704743F0964342
:1006500001464FF000001CE050EA010208BF70475D
:100660004FF000030AE000BF50EA010208BF7047E4
:1006700011F0004302D5404261EB41015FEA010CF9
:1006800002BF84460146002043F0B64308BFA3F1F1
:100690008053A3F50003BCFA8CF2083AA3EBC253D3
:1006A00010DB01FA02FC634400FA02FCC2F12002F2
:1006B000BCF1004F20FA02F243EB020008BF20F029
:1006C0000100704702F1200201FA02FCC2F120028F
:1006D00050EA4C0021FA02F243EB020008BF20EA84
:1006E000DC7070474FF0FF0C1CEAD0521EBF1CEAB2
:1006F000D15392EA0C0F93EA0C0F6FD01A4480EAA0
:10070000010C400218BF5FEA41211ED04FF0006388
:1007100043EA501043EA5111A0FB01310CF00040B4
:10072000B1F5000F3EBF490041EAD3715B0040EADA
:10073000010062F17F02FD2A1DD8B3F1004F40EBAA
:10074000C25008BF20F00100704790F0000F0CF07D
:10075000004C08BF49024CEA502040EA51207F3A41
:10076000C2BFD2F1FF0340EAC250704740F400001C
:100770004FF00003013A5DDC12F1190FDCBF00F00D
:1007800000407047C2F10002410021FA02F1C2F1BB
:10079000200200FA02FC5FEA310040F1000053EA57
:1007A0004C0308BF20EADC70704792F0000F00F0A5
:1007B000004C02BF400010F4000F013AF9D040EAAB
:1007C0000C0093F0000F01F0004C02BF490011F43F
:1007D000000F013BF9D041EA0C018FE70CEAD1533D
:1007E00092EA0C0F18BF93EA0C0F0AD030F0004CBD
:1007F00018BF31F0004CD8D180EA010000F0004071
:10080000704790F0000F17BF90F0004F084691F02E
:10081000000F91F0004F14D092EA0C0F01D1420268
:100820000FD193EA0C0F03D14B0218BF084608D131
:1008300080EA010000F0004040F0FE4040F400007B
:10084000704740F0FE4040F4400070474FF0FF0C0E
:100850001CEAD0521EBF1CEAD15392EA0C0F93EA55
:100860000C0F69D0A2EB030280EA010C49024FEAA7
:10087000402037D04FF0805343EA111143EA101360
:100880000CF000408B4238BF5B0042F17D024FF418
:10089000000C8B4224BF5B1A40EA0C00B3EB510FF3
:1008A00024BFA3EB510340EA5C00B3EB910F24BFDC
:1008B000A3EB910340EA9C00B3EBD10F24BFA3EB61
:1008C000D10340EADC001B0118BF5FEA1C1CE0D129
:1008D000FD2A3FF650AF8B4240EBC25008BF20F0DC
:1008E000010070470CF0004C4CEA50207F32C2BF30
:1008F000D2F1FF0340EAC250704740F400004FF0CD
:100900000003013A37E792F0000F00F0004C02BFFD
:10091000400010F4000F013AF9D040EA0C0093F0C7
:10092000000F01F0004C02BF490011F4000F013B21
:10093000F9D041EA0C0195E70CEAD15392EA0C0F89
:1009400008D142027FF47DAF93EA0C0F7FF470AFC1
:10095000084676E793EA0C0F04D14B023FF44CAF04
:1009600008466EE730F0004C18BF31F0004CCAD199
:1009700030F000427FF45CAF31F000437FF43CAFD5
:100980005FE700BF4FF0FF3C06E000BF4FF0010CF7
:1009900002E000BF4FF0010C4DF804CD4FEA4002D9
:1009A0004FEA41037FEA226C18BF7FEA236C11D023
:1009B00001B052EA530C18BF90EA010F58BFB2EBD6
:1009C000030088BFC81738BF6FEAE17018BF40F056
:1009D000010070477FEA226C02D15FEA402C05D10A
:1009E0007FEA236CE4D15FEA412CE1D05DF8040B8F
:1009F000704700BF844608466146FFE70FB5FFF722
:100A0000C9FF002848BF10F1000F0FBD4DF808EDD9
:100A1000FFF7F4FF0CBF012000205DF808FB00BFCA
:100A20004DF808EDFFF7EAFF34BF012000205DF824
:100A300008FB00BF4DF808EDFFF7E0FF94BF012071
:100A400000205DF808FB00BF4DF808EDFFF7D2FF6E
:100A500094BF012000205DF808FB00BF4DF808EDB1
:100A6000FFF7C8FF34BF012000205DF808FB00BF7E
:100A70004FEA4002B2F1FE4F0FD34FF09E03B3EBAB
:100A800012620DD94FEA002343F0004310F0004FEB
:100A900023FA02F018BF404270474FF00000704741
:100AA00012F1610F01D1420205D110F0004008BFE0
:100AB0006FF0004070474FF00000704742000ED2C8
:100AC000B2F1FE4F0BD34FF09E03B3EB126209D489
:100AD0004FEA002343F0004323FA02F070474FF03F
:100AE0000000704712F1610F01D1420202D14FF0B4
:100AF000FF3070474FF00000704700BF034613F807
:100B0000012B002AFBD1181A0138704770B54FF03D
:100B1000FF0C4CF4E06C1CEA11541DBF1CEA135589
:100B200094EA0C0F95EA0C0F00F0DEF82C4481EAF1
:100B3000030621EA4C5123EA4C5350EA013518BF11
:100B400052EA033541F4801143F4801338D0A0FBFE
:100B500002CE4FF00005E1FB02E506F00042E0FBAB
:100B600003E54FF00006E1FB03569CF0000F18BFB1
:100B70004EF0010EA4F1FF04B6F5007F64F5407459
:100B800004D25FEA4E0E6D4146EB060642EAC621EC
:100B900041EA55514FEAC52040EA5E504FEACE2E59
:100BA000B4F1FD0C88BFBCF5E06F1ED8BEF1004F5C
:100BB00008BF5FEA500E50F1000041EB045170BDD8
:100BC00006F0004646EA010140EA020081EA03011C
:100BD000B4EB5C04C2BFD4EB0C0541EA045170BD18
:100BE00041F480114FF0000E013C00F3AB8014F192
:100BF000360FDEBF002001F0004170BDC4F10004DB
:100C0000203C35DA0C341BDC04F11404C4F120055B
:100C100000FA05F320FA04F001FA05F240EA0200B6
:100C200001F0004221F0004110EBD37021FA04F6EC
:100C300042EB06015EEA430E08BF20EAD37070BDA6
:100C4000C4F10C04C4F1200500FA04F320FA05F005
:100C500001FA04F240EA020001F0004110EBD37007
:100C600041F100015EEA430E08BF20EAD37070BD77
:100C7000C4F1200500FA05F24EEA020E20FA04F350
:100C800001FA05F243EA020321FA04F001F00041FF
:100C900021FA04F220EA020000EBD3705EEA430E70
:100CA00008BF20EAD37070BD94F0000F0FD101F09F
:100CB0000046400041EB010111F4801F08BF013CD8
:100CC000F7D041EA060195F0000F18BF704703F016
:100CD0000046520043EB030313F4801F08BF013D9D
:100CE000F7D043EA0603704794EA0C0F0CEA135559
:100CF00018BF95EA0C0F0CD050EA410618BF52EA13
:100D00004306D1D181EA030101F000414FF0000018
:100D100070BD50EA410606BF1046194652EA430626
:100D200019D094EA0C0F02D150EA013613D195EA9A
:100D30000C0F05D152EA03361CBF104619460AD1E2
:100D400081EA030101F0004141F0FE4141F47001EC
:100D50004FF0000070BD41F0FE4141F4780170BDDC
:100D600070B54FF0FF0C4CF4E06C1CEA11541DBF41
:100D70001CEA135594EA0C0F95EA0C0F00F0A7F843
:100D8000A4EB050481EA030E52EA03354FEA013170
:100D900000F088804FEA03334FF0805545EA131383
:100DA00043EA12634FEA022245EA111545EA10654B
:100DB0004FEA00260EF000419D4208BF964244F1E2
:100DC000FD0404F5407402D25B084FEA3202B61A01
:100DD00065EB03055B084FEA32024FF480104FF4D5
:100DE000002CB6EB020E75EB030E22BFB61A754649
:100DF00040EA0C005B084FEA3202B6EB020E75EBDC
:100E0000030E22BFB61A754640EA5C005B084FEA43
:100E10003202B6EB020E75EB030E22BFB61A754610
:100E200040EA9C005B084FEA3202B6EB020E75EB1B
:100E3000030E22BFB61A754640EADC0055EA060EDC
:100E400018D04FEA051545EA16754FEA06164FEA1F
:100E5000C30343EA52734FEAC2025FEA1C1CC0D1CB
:100E600011F4801F0BD141EA00014FF000004FF058
:100E7000004CB6E711F4801F04BF01430020B4F119
:100E8000FD0C88BFBCF5E06F3FF6AFAEB5EB030CD1
:100E900004BFB6EB020C5FEA500C50F1000041EBCE
:100EA000045170BD0EF0004E4EEA113114EB5C049B
:100EB000C2BFD4EB0C0541EA045170BD41F480116E
:100EC0004FF0000E013C90E645EA060E8DE60CEA76
:100ED000135594EA0C0F08BF95EA0C0F3FF43BAF93
:100EE00094EA0C0F0AD150EA01347FF434AF95EA4A
:100EF0000C0F7FF425AF104619462CE795EA0C0F2E
:100F000006D152EA03353FF4FDAE1046194622E7FA
:100F100050EA410618BF52EA43067FF4C5AE50EAD4
:100F200041047FF40DAF52EA43057FF4EBAE12E7C4
:100F30004FF0FF3C06E000BF4FF0010C02E000BFA5
:100F40004FF0010C4DF804CD4FEA410C7FEA6C5C88
:100F50004FEA430C18BF7FEA6C5C1BD001B050EA2B
:100F6000410C0CBF52EA430C91EA030F02BF90EA16
:100F7000020F0020704710F1000F91EA030F58BFD5
:100F8000994208BF90422CBFD8176FEAE37040F037
:100F9000010070474FEA410C7FEA6C5C02D150EAD5
:100FA000013C07D14FEA430C7FEA6C5CD6D152EA90
:100FB000033CD3D05DF8040B704700BF8446104655
:100FC00062468C461946634600E000BF01B5FFF754
:100FD000B7FF002848BF10F1000F01BD4DF808ED24
:100FE000FFF7F4FF0CBF012000205DF808FB00BFF5
:100FF0004DF808EDFFF7EAFF34BF012000205DF84F
:1010000008FB00BF4DF808EDFFF7E0FF94BF01209B
:1010100000205DF808FB00BF4DF808EDFFF7CEFF9C
:1010200094BF012000205DF808FB00BF4DF808EDDB
:10103000FFF7C4FF34BF012000205DF808FB00BFAC
:101040004FEA410C7FEA6C5C02D150EA013C0AD1C4
:101050004FEA430C7FEA6C5C02D152EA033C02D1B6
:101060004FF0000070474FF0010070474FEA410217
:1010700012F5001215D211D56FF47873B3EB6252EA
:1010800012D94FEAC12343F0004343EA505311F011
:10109000004F23FA02F018BF404270474FF00000A3
:1010A000704750EA013005D111F0004008BF6FF0E1
:1010B000004070474FF00000704700BF4FEA400209
:1010C0004FEA41037FEA226C02D15FEA402C08D14B
:1010D0007FEA236C02D15FEA412C02D14FF000007D
:1010E00070474FF00100704710B504460E4B18785A
:1010F0004FF47A73B3FBF0F30C4A1068B0FBF3F0D3
:1011000000F0A2F868B90F2C01D901200AE00022F2
:1011100021464FF0FF3000F05FF8054B1C600020C7
:1011200000E0012010BD00BF0000002020000020D2
:101130000400002008B5074A136843F01003136049
:10114000032000F037F80F20FFF7CEFF02F0F0FF8A
:10115000002008BD00200240034A1168034B1B78A1
:101160000B441360704700BF1402002000000020F1
:10117000014B1868704700BF1402002038B50446C0
:10118000FFF7F6FF0546B4F1FF3F02D0044B1B7892
:101190001C44FFF7EDFF401BA042FAD338BD00BF4F
:1011A000000000204FF0E022136923F002031361D6
:1011B00070470000074AD36823F4E0631B041B0C4C
:1011C000000200F4E060034343F0BF6343F40033E4
:1011D000D360704700ED00E000B5194BDB68C3F346
:1011E0000223C3F1070CBCF1040F28BF4FF0040C1D
:1011F00003F1040EBEF1060F18D9033B4FF0FF3E7A
:101200000EFA0CFC21EA0C0199400EFA03F322EAD3
:101210000303194300280BDB0901C9B200F1604048
:1012200000F5614080F800135DF804FB0023E5E75A
:1012300000F00F000901C9B2024B1954F4E700BFD6
:1012400000ED00E014ED00E00138B0F1807F0BD23A
:101250004FF0E0235861054AF02182F82310002066
:10126000986107221A6170470120704700ED00E085
:10127000044B0022DA61044A136943F0010313614D
:10128000018070471802002000200240194BDB68E3
:1012900013F0100305D0184AD36943F00203D36159
:1012A0001023144AD26812F0040F06D01249CA69FA
:1012B00042F00102CA6143F004030E4AD26912F0FF
:1012C000010F09D00C49CA6942F00402CA610949F8
:1012D000CA6922F00102CA6140F20112934202D0AF
:1012E000044AD3607047034AD36923F00103D361F2
:1012F000704700BF00200240180200200A4B1B6903
:1013000013F0800F0BD0084B084A5A6002F1883264
:101310005A601B6913F0800F03D100207047002032
:1013200070470120704700BF00200240230167453D
:10133000034A136943F0800313610020704700BF24
:101340000020024038B50446FFF712FF0546164B51
:10135000DB6813F0010F0AD0B4F1FF3FF7D024B1DE
:10136000FFF706FF401BA042F1D903201BE00E4B04
:10137000DB6813F0200F02D00B4B2022DA600A4BFF
:10138000DB6813F0100F0BD1074BDB6913F0010F73
:1013900006D1054BDB6813F0040F01D1002002E0F9
:1013A000FFF774FF012038BD002002402DE9F8430B
:1013B0001E46244B1B7E012B41D004460F4690460F
:1013C000204B01221A764CF25030FFF7BBFF034648
:1013D00078BB012C08D0022C03D04FF004091C4626
:1013E00007E04FF00209FAE74FF00109F7E701348F
:1013F000E4B24C451DD22101C1F12002A1F120032C
:1014000028FA01F106FA02F2114326FA03F319430E
:1014100089B207EB4400FFF72BFF4CF25030FFF787
:1014200091FF094B1D6925F001051D610346002848
:10143000DDD0044A002111761846BDE8F883022366
:10144000FAE700BF1802002000200240064B0022ED
:10145000DA61064B1A6942F004021A611A6942F015
:1014600040021A61704700BF1802002000200240AD
:10147000064B0022DA61064B1A6942F002021A6139
:1014800058611A6942F040021A6170471802002040
:1014900000200240264B1B7E012B46D070B505462E
:1014A0000E46234B01221A760368022B20D04CF201
:1014B0005030FFF747FF90BB4FF0FF333360AC680D
:1014C0000121EA68AB6803EB8223A34228D92046B6
:1014D000FFF7CEFF4CF25030FFF734FF154A136987
:1014E00023F0020313610146B8B904F58064E8E70C
:1014F0004CF25030FFF726FF08B1012110E0012027
:10150000FFF7A4FF4CF25030FFF71CFF0146094AD9
:10151000136923F00403136102E0346000E0012149
:10152000034B00221A76084670BD02210846704718
:1015300018020020002002400C4B9A6803F58063DB
:101540009B68134313F0010F0ED10B6833B142684F
:1015500022F470221343436000207047436823F451
:101560007023436000207047012070470024014031
:10157000836813F0010F0DD1436823F480734A6828
:1015800013434360836823F400630A681343836052
:1015900000207047012070474B68826812F0010FED
:1015A00023D110B4DBB1426822F468428C68234333
:1015B00013434360836823F4602323F481730A6830
:1015C000CC6822430C692243134383604B68C26A90
:1015D00022F470021343C362002010BC70474268BB
:1015E00022F4684213434360E4E7012070470B682C
:1015F000C3F30F2C9CFAACF2B2FA82F276E0A2F1BD
:1016000008044FF00113A34043F080634C68082C9A
:101610002CD01D0E93FAA3F4B4FA84F4A4004FF076
:101620000F0E0EFA04F4465926EA040493FAA3FEB8
:10163000BEFA8EFE4FEA8E0E4E6806FA0EFE44EAA1
:101640000E0444514C68012C1ED0092C1CD00132D0
:101650003CFA02F347D00123934013EA0C0FF6D073
:10166000072ACCD840F201139340CFE70D69C66832
:101670001C0A26EA132694FAA4F4B4FA84F405FAB0
:1016800004F43443C460C4E74FEA136E50F80E40CC
:1016900093FAA3F5B5FA85F5AD00032606FA05F52C
:1016A00024EA050493FAA3F5B5FA85F5AD008E6832
:1016B00006FA05F5254340F80E50CC6893FAA3F6D8
:1016C000B6FA86F6B600042707FA06F625EA0605F6
:1016D00093FAA3F3B3FA83F39B0004FA03F32B43C7
:1016E00040F80E30B3E70020F0BD01323CFA02F3BF
:1016F00006D00123934013EA0C0FF6D0F0B5AFE704
:1017000000207047034B5B68C3F30313024AD35CAA
:10171000D8407047001002402CD80008034B5B688B
:10172000C3F30223024AD35CD84070470010024042
:101730003CD80008034B5B68C3F3C223024AD35C66
:10174000D8407047001002403CD800080B4B5B6843
:1017500003F4803343B90A48084B5B68C3F38343FF
:10176000023303FB00F07047044B5868C0F340405D
:10177000431C0448B0FBF3F0EEE700BF001002404A
:1017800000093D0000127A0008B5054B5B6803F0C4
:101790000C03082B01D0034808BDFFF7D7FFFBE778
:1017A0000010024000127A0010B50446FFF7ECFF6B
:1017B0002060FFF7A7FF6060FFF7B0FFA0606068E0
:1017C000FFF7B8FFE06010BD03681A4A90420AD0E4
:1017D000B0F1804F07D0A2F59432904203D002F5C9
:1017E0008062904203D123F070034A681343114A88
:1017F00090420AD0B0F1804F07D0A2F594329042C7
:1018000003D002F58062904203D123F44073CA688A
:10181000134303608B68C3620B888362054B984255
:1018200005D0436943F001034361002070470B6911
:101830000363F6E7002C0140C36813F4005F01D096
:101840000120704730B585B004460D46C36823F4C7
:10185000B05323F00C034A68C9680A4329690A4354
:101860001343C360AB68026922F44052134303611F
:101870006B69426922F44072134343616846FFF783
:1018800093FF1C4B9C4208D01B4B9C420BD01B4B24
:101890009C420AD0012005B030BD039B43B32A68A7
:1018A0002AB90120F7E7029BF8E7029BF6E703EB72
:1018B000830303EB83039200B3FBF2F31048A0FB16
:1018C000032149090A0192B2642505FB11331B016A
:1018D0003233A0FB0313C3F34F1303F0F0010A44A8
:1018E00092B203F00F0313449BB2A3600020D2E72F
:1018F0000120D0E70038014000440040004800408B
:101900001F85EB51064BA3FB00239B09013B4FF0C6
:10191000E02253610023936105231361704700BFE8
:10192000D34D621082B04FF0E0231B690193019BFD
:10193000B0F1FF3F00D0013038B14FF0E0231B6918
:1019400013F4803FF8D00138F6E702B0704700008A
:10195000014B1860704700BF20000020104B1B781F
:10196000EBB9002112E041F2210080EA43039BB26F
:101970000132072A05D813F4004FF4D15B009BB263
:10198000F6E7084A22F81130013189B2FF2903D85D
:101990000B029BB20022ECE7014B01221A70704748
:1019A000380400203802002070B506460C46154663
:1019B0000B4B1B787BB9FFF7D1FF0CE0214611F8E8
:1019C000013B83EA1623074830F9130080EA06201A
:1019D00086B20C4615466A1E002DEFDC304670BDFF
:1019E0003804002038020020104BD3F8FC2022F0ED
:1019F0008072C3F8FC20D3F8FC2042F08072C3F858
:101A0000FC20A3F55D431A6822F001021A601A68EF
:101A100042F001021A6000225A6000BF00BF00BFFE
:101A20005868B0FA80F04009704700BF00ED00E050
:101A300082B001900A4B5968019B73B1019A094B1E
:101A40001B68A3FB02329B0A43EA82530193044BB7
:101A50005B685B1A019A9342F9D302B0704700BFEA
:101A6000001000E02000002008B509680068FEF7BB
:101A70002FFDFEF7FDFF08BD012800D070474FF68F
:101A8000FF739942FAD1094B00229A62DA621A6313
:101A90005A639A63DA631A645A649A64DA641A6558
:101AA0005A659A65DA651A665A66E7E7CC2100201E
:101AB00072B6BFF34F8F084B20221A61BFF34F8FCE
:101AC0000649CA6802F4E062054B1343CB60BFF3DA
:101AD0004F8F00BFFDE700BF0008014000ED00E0B0
:101AE0000400FA0508B572B6BFF34F8F70B119281C
:101AF00038BF19200646074C202525610A20FFF72C
:101B000097FF65613046FFF793FFF4E74FF4967651
:101B1000F1E700BF0008014038B5044630B10D467A
:101B2000FEF7ECFF431C25540022E254204638BD4A
:101B300000283DD038B50446FEF7E0FF8446B0B338
:101B40000022624508D2A35C2D2B05D0303BDBB2CE
:101B5000092B01D90132F4E7624528D2A118A35C10
:101B60002D2B02D00025134607E0013220230B70F5
:101B70000125F8E720218EF800100CF1FF30984283
:101B80000AD904EB030EE15C302905D10133E15C95
:101B90003039C9B20929EDD94DB1904207D9A35CBA
:101BA000202B01D10132F8E7013A2D23A35438BD8F
:101BB000704768B310B504462E2106F0A9FFE0B1C6
:101BC0002046FEF79BFF8446B8B1421E32B1A35CAB
:101BD000303BDBB2092B01D9013AF7E76AB1511C5E
:101BE000134623B1E05C302801D1013BF9E7E05C0A
:101BF0002E2803D0581C814202D810BD013BF9E7C2
:101C00009A1A624401322144204406F07FF8F4E736
:101C100070470000024600B9C822074B196800E06F
:101C200030BF064B5B6C13F0010F04D0024B1B68F6
:101C30005B1A9342F4D37047002700200000024053
:101C4000E0B1F1B1134BDB6813F4005F1CD0124B11
:101C50005B6C13F0010F1AD10F4B18650F4ADA6451
:101C60009A6C120C1204114399644FF480525A601A
:101C70005A6C42F001025A64002070474FF0FF3066
:101C800070474FF0FF3070476FF0010070476FF002
:101C90000200704700380140000002400438014053
:101CA00010B5084614461146FFF7CAFF0020FFF79B
:101CB000B1FF204610BD000002280FD0032813D02A
:101CC000012805D00B4B80225A6140221A617047CF
:101CD000084B80221A6140221A617047054B80220E
:101CE0005A6140225A617047024B80221A61402299
:101CF0005A6170470008014000B587B00023059382
:101D000001930293039304930C4B039304230493D2
:101D1000FFF7F4FA78B905A901A8FFF7BBFB28B9CA
:101D2000FFF706FB002007B05DF804FBFFF700FBA0
:101D30006FF00100F7E74FF0FF30F4E700F0000824
:101D4000F8B50027124C0FE0274634460CE0294630
:101D5000B5F816510020A1F816014FF48C72FFF768
:101D600023FE8542F0D0043404F58C76094B9E4264
:101D70000CD8094D4FF48C722146284605F0B8FF67
:101D80002A68064B9A42E2D00434EDE73846F8BDA3
:101D900000F00008000001083C04002078563412CE
:101DA00008B5FFF7CDFF38B101464FF48C720448F7
:101DB00005F09EFF002008BD4FF0FF30FBE700BF9D
:101DC000C424002070B586B00020029003900490D7
:101DD0000590484B0493042305930190464C474BD0
:101DE0002360A4F816014FF48C722146FFF7DCFD46
:101DF000A4F81601FFF782FA002877D1FFF7A0FFB9
:101E00000446E0B14FF48C723B4905F061FF054692
:101E100068B104F58C7604F50C74394B9C420FD9EB
:101E200001A902A8FFF736FB20B9324E08E0FFF700
:101E30007FFA40E0FFF77CFA6FF001053BE02D4EA2
:101E400033460021B1F58C7F14D233F8022B92B2C5
:101E50004FF6FF7082421FD006F58C72134606F5CE
:101E60000C7627498E4214D901A902A8FFF712FB6C
:101E7000A0B9204E0025204CB5F58C7F1ED234F839
:101E8000022B002371190120FFF790FA58B902358F
:101E9000F2E716460021D5E70231D3E7FFF748FA0B
:101EA0006FF0020507E001A902A8FFF7F3FAFFF7B8
:101EB0003FFA6FF00305284606B070BD4FF48C72F0
:101EC0000D49304605F004FF054630B9FFF730FAFA
:101ED0000C4B4FF0FF321A60EDE701A902A8FFF7A3
:101EE000D9FAFFF725FA6FF00405E4E74FF0FF3564
:101EF000E1E700BF00F00008C42400207856341247
:101F0000000001081C0000202DE9F84F80460C4617
:101F100091461F4616464FF0000A55460FE054F80A
:101F200004BB29467868FEF7DDFB01465846FEF7FC
:101F3000D1FA5146FEF7CCFA013EAA460546002EDC
:101F4000EDD12946F868FEF7CDFB5146FEF7C0FA01
:101F5000064605F10040B968FEF7C4FB074648464F
:101F6000FEF768FB01464FF08040FEF76FFC044629
:101F700001463046FEF7B6FB054621463846FEF7D9
:101F8000B1FBC8F80050C8F804004046BDE8F88F1F
:101F90002DE9F04F87B08346029192460393DDF816
:101FA00040901846FEF746FB01464FF08040FEF792
:101FB0004DFC0190002300934FE0013C374606465C
:101FC00094B15BF825803146D9F80400FEF78AFB0E
:101FD00001464046FEF77EFA3946FEF779FA0135AA
:101FE000AA45EAD80025E8E73146D9F80C00FEF703
:101FF00079FB3946FEF76CFA054606F10040D9F840
:102000000810FEF76FFB06462946019F3846FEF78B
:1020100069FB054631463846FEF764FB049505909A
:10202000029B009A03EBC20306AA12E9030083E8AD
:102030000300022C0ED804EB4403114A02EBC30345
:10204000DB68A3B904EB440302EBC3031B7D9BB91C
:102050000134EEE7009B01330093009B534504D20B
:102060001D46039C00273E46AAE7002001E04FF0F2
:10207000FF3007B0BDE8F08F4FF0FF30F9E700BF49
:1020800084210020F8B504460E460A493046FEF782
:1020900029FB074604F0B6FC0546384604F02AFD45
:1020A0000746266029462846FEF714FA6060E56078
:1020B000A760F8BDDB0FC940F8B505460E460468B9
:1020C00000212046FEF7ACFCD0B9012724F00044E3
:1020D00074492046FEF7A4FCA8B16621304606F0FC
:1020E00017FD80B170492046FEF7FCFA04463846D9
:1020F000FEF7A4FA2146FEF7F5FA28606620F8BD3F
:102100004FF0FF37E2E769492046FEF789FC90B1BE
:102110007021304606F0FCFC68B165492046FEF7A8
:10212000E1FA04463846FEF789FA2146FEF7DAFA64
:1021300028607020E3E75F492046FEF771FC90B10C
:102140006E21304606F0E4FC68B15B492046FEF79C
:10215000C9FA04463846FEF771FA2146FEF7C2FA7C
:1021600028606E20CBE755492046FEF759FC90B118
:102170007521304606F0CCFC68B151492046FEF787
:10218000B1FA04463846FEF759FA2146FEF7AAFA94
:1021900028607520B3E74FF07E512046FEF740FCE3
:1021A000E8B948492046FEF73BFC002873D1444972
:1021B0002046FEF735FC30B36B21304606F0A8FC14
:1021C00008B33E492046FEF78DFA04463846FEF72E
:1021D00035FA2146FEF786FA28606B208FE76D21DD
:1021E000304606F095FC0028DBD036492046FEF745
:1021F00079FA04463846FEF721FA2146FEF772FACC
:1022000028606D207BE72C492046FEF709FC90B141
:102210004D21304606F07CFC68B126492046FEF789
:1022200061FA04463846FEF709FA2146FEF75AFAE3
:1022300028604D2063E71E492046FEF7F1FB90B170
:102240004721304606F064FC68B118492046FEF785
:1022500049FA04463846FEF7F1F92146FEF742FAFC
:1022600028604D204BE710492046FEF7D9FBA0B16E
:102270005421304606F04CFC88B10A492046FEF74E
:1022800031FA04463846FEF7D9F92146FEF72AFA14
:102290002860542033E7202031E720202FE720203A
:1022A0002DE700BFCCBC8C2BA95F63585F708930D1
:1022B000A5D46853BD378635286B6E4E6F12833AAE
:1022C0000024744900007A44F8B563281FD942F20B
:1022D0001073984228BF18466A4B1860FEF7AAF997
:1022E0006949FEF7B3FA04F041FC04F03FFC04F046
:1022F0003DFC04466549FEF793FB50B94FF07E5113
:102300002046FEF7ABFB28B14FF07E5402E064207C
:10231000E2E75E4C5E492046FEF7E4F905460024FC
:102320001CE02046FEF786F95A49FEF7DBF904F077
:10233000E1FB4FF07E51FEF7CDF82946FEF7D2F9CA
:102340004FF07C51FEF7C6F804F094FBFEF7B6FBA5
:1023500060F0FF00504B23F8140001347F2CE0D9CB
:10236000484B186800287FD0C0014C4B5B684C4933
:102370008A6A0132B3FBF2F303EB5003B3FBF0F3D1
:10238000013BCB62FEF756F904464649FEF75CFB7B
:1023900028BB45492046FEF757FB002865D1434935
:1023A0002046FEF751FB002861D141492046FEF747
:1023B0004BFB00285DD13F492046FEF745FB002836
:1023C00059D13D492046FEF73FFB002855D13B49F6
:1023D0002046FEF739FB002851D1072000E00020FD
:1023E000374F4FF0007595FAA5F4B4FA84F425FA46
:1023F00004F457F824604FF0F87393FAA3F2B2FA9A
:1024000082F24FF4401121FA02F24FF0070E0EFA59
:1024100002F226EA020693FAA3F2B2FA82F221FA53
:1024200002F200FA02F2324347F82420254E95FAD0
:10243000A5F2B2FA82F225FA02F256F8224093FA95
:10244000A3F5B5FA85F521FA05F50EFA05F524EAA6
:10245000050493FAA3F3B3FA83F321FA03F300FA22
:1024600003F3234346F82230F8BD0120B8E70220E9
:10247000B6E70320B4E70420B2E70520B0E7062062
:10248000AEE700BF1800002000007A44CDCC4C3FDE
:102490000000FF42DB0F493DDC2500201C2300200B
:1024A000000400400024F44800D8D64800D68348F1
:1024B0000050434800401C4800E8FD4700401C47CE
:1024C0000C2401400C28014038B50A4D01232B7023
:1024D0000024094B1C70094BD868FFF7F5FE084B28
:1024E0001C60084B1C70084B1C70084B1C602C7047
:1024F00038BD00BF0C00002018230020C424002099
:1025000054090020AA3B0020A02B00203C220020E0
:1025100038B50C4C01252570682200210A4805F0C9
:102520000FFC0A4B1D706420FFF7CEFE0023084A03
:102530001360084A1370084A1370084A1360237026
:1025400038BD00BF0C000020CC2100201823002043
:1025500054090020AA3B0020A02B00203C22002090
:1025600010B50C4C01232370682200210A4805F0A5
:10257000E7FB0A4B02221A706420FFF7A5FE002336
:10258000074A1360074A1370074A1370074A13601B
:10259000237010BD0C000020CC2100201823002047
:1025A00054090020AA3B0020A02B00203C22002040
:1025B0002DE9F04186B002AC84E80300694681E869
:1025C0000C00029D009E31462846FEF78BF804461B
:1025D000039FDDF8048041463846FEF783F8014644
:1025E0002046FDF777FF044641462846FEF77AF875
:1025F000054639463046FEF775F801462846FDF790
:1026000067FF05460494059000212046FEF7FEF979
:1026100018B1064806B0BDE8F0812146284604F00E
:10262000A3FA0349FEF75EF8F4E700BF0000C07F9D
:10263000E02E654270B584B00C461249FEF752F8A0
:10264000054610492046FEF74DF80446284604F09A
:10265000D9F90646284604F04DFA00960190204626
:1026600004F0D0F90546204604F044FA02950390A0
:1026700004AB13E90C00694603C9FFF799FF04B0E6
:1026800070BD00BF35FA8E3C2DE9F04385B0674B35
:1026900001221A704FF00009A1E0654B9B789BB1B5
:1026A000644B03EB4928644B009380231A4663492B
:1026B0004046FFF76DFC00284BDB002400256CE052
:1026C0005B4BDB78002BEBD15A4E06EB49260024FE
:1026D00000257F2C15D856F824000146FEF702F895
:1026E00001462846FDF7F6FE05460134F1E7504B5A
:1026F0009B78002BE8D1D3E74D4BDB78002BCFD074
:10270000E2E74FF070512846FDF7ECFF04F02EFA97
:102710004B4B03EB89035860474B8022314602A89C
:10272000FFF7F2FB029C00212046FEF76FF938B15B
:10273000444909F10802424B03EB820359604CE023
:102740002146039804F010FA3F49FDF7CBFF0146FC
:10275000EFE7364B00221A704FF0FF3063E0374B43
:1027600003EBC40393E8030004AB03E90300029EF8
:1027700031463046FDF7B6FF074603980146FDF7A0
:10278000B1FF01463846FDF7A5FE01462846FDF794
:10279000A1FE054648F8246001347F2CDFD94FF0B4
:1027A00070512846FDF79EFF04F0E0F9244B03EB3F
:1027B00089035860204B8022414602A8FFF7A4FB02
:1027C000029C00212046FEF721F908B31D4809F1BB
:1027D00008031B4A02EB8303586009F10109B9F1B0
:1027E000070F1DD84FEA5903184A1278002A7FF4C0
:1027F00057AF032B3FF654AF01A252F823F000BFAE
:102800009B260008C1260008EF260008F9260008CC
:102810002146039804F0A8F90B49FDF763FFD6E7BA
:102820000020024B187005B0BDE8F083A02B0020FB
:10283000581900205809002044220020A027002019
:10284000042700200000C07FE02E654218230020EE
:102850002DE9F04383B08146884600250095019517
:102860000024274625E0334B9B780BB3631C324E84
:1028700006EB830359682846FDF72CFE054604F154
:10288000090306EB83062D497068FDF72BFF06460A
:1028900004F0B8F801460098FDF71CFE00903046A1
:1028A00004F028F901460198FDF714FE0190013764
:1028B0000234072C21D8224B1B78002BD6D1630879
:1028C000032BD3D801A252F823F000BF67280008D9
:1028D000DD280008E7280008F1280008154BDB7800
:1028E000002BC3D1E4E7134B9B78002BBED0DFE76E
:1028F000104BDB78002BB9D0DAE73846FDF79AFEAB
:1029000001462846FDF7A2FFC9F80000009C0021FF
:102910002046FEF77BF828B10A48C8F8000003B04B
:10292000BDE8F0832146019804F01EF90649FDF741
:10293000D9FEF2E75C1900200427002035FA8E3C0E
:10294000182300200000C07FE02E65422DE9F041F1
:1029500084B04B4B1B78002B63D14A4B1B68002B78
:102960005FDB002524E005EB450323441833454A8B
:1029700002EB830359683046FFF75CFE04AB03EBC0
:10298000840343F80C0C0134022CECD93E4B042296
:1029900003210DEB020005F015FF31460298FDF70B
:1029A00099FD05F10802394B03EB820358600135AC
:1029B000072D2AD8334C2368344E06EB8508D8F807
:1029C000042005EB45073B4404EB83035A6004EB0A
:1029D000870201AB50689168D26807C32A4B042272
:1029E00003210DEB020005F0EDFE029BC8F8043058
:1029F00005F1080306EB8306766823681F44183741
:102A000004EB870466600024BEE71E4A13680133A6
:102A10001360022B02DD134600221A6004B0BDE8E9
:102A2000F0810020174B18600AE000EB4002D1183B
:102A3000144A02EB810254600133022BF5D90130B4
:102A4000072805D8114B03EB80035C680023F4E7EB
:102A500000200BE000EB400313441833094901EB5D
:102A600083035C600132022AF4D901300728D5D8EB
:102A700000F10803054A02EB83035C680022F2E7D9
:102A80004022002054220020691A00080427002058
:102A9000002857D030B583B00546002950D02A4BC6
:102AA0001B78002B4CD1294B1B78002B48D1284B8D
:102AB0001B78DBB2032B43D8264B20221A614FF040
:102AC000000E254CBEEB510F2DD20023ADF8043083
:102AD000ADF80630AC465CF8080B0090BDF800205D
:102AE000ADF80420BDF80230ADF8063068680090FB
:102AF000BDF80000024492B2ADF80420BDF8020017
:102B000003449BB2ADF806305208ADF804205B08D0
:102B1000ADF806302346019843F8040B0EF1010E80
:102B20001C466546CEE7094B01221A700B4B1B6809
:102B300013F0100F04D0094A136943F01003136116
:102B400003B030BD704700BF0C000020A02B002058
:102B5000AA3B002000080140A027002000040140FB
:102B6000364B1B688B4267D370B582B00446012890
:102B70000CD0032807D00125012C0AD90021DFF849
:102B8000C0C00E462BE04FF0FF35F5E74FF0FF35A4
:102B9000F2E700222A4917E051F8040B0190BDF931
:102BA0000400A0F50066274B53F8320005FB060031
:102BB00043F83200BDF90600A0F5006603EBC2033E
:102BC00058683044586001327F2AE5D91E4B0022F4
:102BD0001A552DE0B34238BF33469EB201317F29EA
:102BE0001ED85CF8040B0190BDF90430A3F5006316
:102BF00005FB03F31BB2BDF806E0AEF5006E0FFA5D
:102C00008EFE104A52F83100184442F8310002EBAF
:102C1000C102506870445060002BDBDADB43D9E717
:102C2000B6F5FA6F06D30123074A115D0B4313551E
:102C300002B070BD0023F7E7704700BF54090020C1
:102C4000A0270020540500205C1900202DE9F84F32
:102C500081464FEA40085E4E06EB802708F10103EB
:102C600006EB43265B4B1868401AFDF7E3FC014670
:102C70004FF07E50FDF7EAFD8246002414E0564DE9
:102C800055F83400FDF7DAFC5146FDF72BFD47F807
:102C9000240005EBC4056868FDF7D0FC5146FDF73C
:102CA00021FD46F8240001347F2CE8D94B4B1B68EA
:102CB000032B16D84A4C4B4B1B78A3B101254A4B2A
:102CC00013F80930002B42D14FF000090020B9F170
:102CD0007F0F0AD857F82910FDF7FCFB09F101090D
:102CE000F5E7424CE7E70025E9E74FF07051FDF7C3
:102CF000F9FC824621464FF07E50FDF7E9FBDFF8F4
:102D0000F0B05BF82810FDF7EDFC814651462046F7
:102D1000FDF7E8FC01464846FDF7DCFB82464BF830
:102D20002800344BD3F80090B9F1000F02D075B1F0
:102D30004FF00009B9F17F0F09D8514657F8290023
:102D4000FDF7C6FB47F8290009F10109F2E7002762
:102D5000002004E056F82710FDF7BCFB01377F2F59
:102D6000F8D94FF07051FDF7BDFC824621464FF077
:102D70007E50FDF7ADFBDFF8789059F82810FDF78D
:102D8000B1FC074651462046FDF7ACFC01463846EB
:102D9000FDF7A0FB074649F82800164B1C680CB14C
:102DA0005DB100247F2C08D8394656F82400FDF781
:102DB0008FFB46F824000134F4E74FF480620021D1
:102DC000054804F0BDFF034B00221A60BDE8F88FF0
:102DD0005809002054090020540500203C220020FE
:102DE0006666663F182300205C1900209A99993E78
:102DF00060190020342200206D4B1B6813B96D4B05
:102E00001B7803B170472DE9F04F89B0FFF73CFC08
:102E10000028C0F2F68107A906A8FFF719FD069A57
:102E2000654B9A601A619A611A62079A9A621A63EC
:102E30009A631A64614B1B78002B00F0AB80604BE7
:102E40001E78B7005C4C04EB0613D3F80490C4F86A
:102E500044907D1C04EB8503D3F80480C4F84880BB
:102E6000584B93F800A04FEA8A039A1C04EB8202A5
:102E70005068E064033304EB8303D3F804B0C4F870
:102E800050B0514B1B6801931946FDF72BFC029083
:102E9000E06401995846FDF725FC834620654B4BBD
:102EA00019684FF07E50FDF7D1FC0390002E74D0CE
:102EB0000346BAF1000F73D0039C9A461946484660
:102EC000FDF710FC81463C4E706451464046FDF7CC
:102ED00009FCB06421460298FDF704FC8046F064CA
:102EE00021465846FDF7FEFB306541464846FDF752
:102EF000ADFC04467065314B1B78002B40F082809E
:102F0000334B1B68B3F5967F94BF4FF000084FF02A
:102F10000108304BDE7C16F0020A44D003EB881324
:102F2000D3F81490D96A0198FDF7DCFB0399FDF7FB
:102F3000D9FB01464846FDF789FC814616F0040F8F
:102F400034D0244B03EB88180399D8F8A400FDF77C
:102F5000C9FB8346D8F89C100198FDF7C3FB0146D6
:102F60005846FDF773FC06F00606062E34D0BAF17B
:102F7000000F42D049462046FDF7B4FB06462146E5
:102F80004846FDF7A5FA01463046FDF75FFC0A4BBF
:102F9000586532E0FFF7DAFC51E74FF07E5388E7DF
:102FA0004FF07E5489E74FF00009C7E70020DAE7C9
:102FB000342200200C0000200427002018230020C9
:102FC000AB3B0020802100201000002008000020E2
:102FD00018000020C42400202146FDF779FA064697
:102FE00049462046FDF774FA01463046FDF72EFCAF
:102FF0004946FDF777FBA04B58659F4A536D23F078
:10300000004353659C4C083504EB850507F1080324
:1030100004EB830369685868FFF70CFBA065974BC6
:103020001B789B0003F10B0204EB82020A3304EBD2
:10303000830351685868FFF7FDFA0146E065A06D0B
:10304000FFF7F8FA064620668D4B1868FDF7F2FA8E
:103050008C49FDF747FB07468B493046FDF742FB9D
:10306000054603F0CFFC8146284603F043FD0546A4
:10307000D4F8548049464046FDF734FB044625F019
:1030800000414046FDF72EFB054600212046FDF796
:10309000BDFC002840F0B58000212846FDF7B6FCB5
:1030A000002840F0AE8000213846FDF7AFFC002834
:1030B00040F0A78039462846FDF7C8FB0190294615
:1030C0003846FDF70FFB01464FF07E50FDF7BEFB83
:1030D000029029462046FDF7B9FB03902146284679
:1030E000FDF7B4FB049021462046FDF7FBFA81462C
:1030F00029462846FDF7F6FA01464846FDF7EAF963
:1031000082462146FDF7A2FB814629465046FDF73F
:103110009DFB82463946FDF799FB8346514638466A
:10312000FDF7E0FA01464FF07E50FDF78FFB0746B2
:1031300051464846FDF78AFB059049465046FDF743
:1031400085FB4D4B019A9A66029A5A66DC661C67AB
:10315000039A5A67049A9A67DD67C3F884B0C3F884
:103160008070C3F88890C3F88C90059AC3F89020BB
:10317000C3F89400C3F898A0444B1D783DB9444B64
:103180001B7C032B40D0424B5B7C022B52D0002D8A
:1031900037D140490198FDF761FC08B13D4B0193DF
:1031A000354B019A9A6600210298FDF739FC0028F8
:1031B0005DD1314B029A5A6637492046FDF74EFCE5
:1031C00000B1354C2C4BDC6632495846FDF746FCC5
:1031D00008B1DFF8C0B0284BC3F884B000213846EE
:1031E000FDF71EFC002845D1234BC3F880702A4907
:1031F0004846FDF733FC08B1DFF89C901E4BC3F83E
:10320000889009B0BDE8F08F24493046FDF708FCEE
:1032100018B1234B00221A70B5E722493046FDF75A
:103220001DFC18B11E4B01221A70ACE71C4B022288
:103230001A70A8E726F000401B49FDF7F1FB18B112
:103240001A4B00221A70A2E712494046FDF7F2FB22
:1032500018B1164B00221A7099E715494046FDF740
:10326000F3FB002893D0114B01221A708FE7002343
:1032700002939EE70027B7E7042700208021002063
:1032800018000020DB0FC94035FA8E3C18230020BF
:10329000C424002000007A4420BCBE4C000020C0A2
:1032A00014000020000020400000A040DC26002088
:1032B00000401C462DE9F0414D4B1E78002E6BD18D
:1032C0004C4B1B78002B67D04B4B1C78E4B2032C83
:1032D0005FD84A4B1F5D1CB9494B1B68002B5DD062
:1032E000484B1D6805EB8505C5F3552505B9012536
:1032F00029463846FFF734FC3E4B00221A70414BFA
:103300001B68D901C3F3D5033F4A1278002A65D15F
:103310003E4A1268002A4ED08B0B002B66D03C4AE6
:103320002021516136490A6801320A602B449A42D1
:1033300032D304F10108314B13F80800FEF7BCFC4E
:1033400029463846FFF782FC5FFA88F42A4B1C7046
:10335000B8F1030F20D904222E492F4804F0B8FCFD
:1033600000B101262D4B1E702A4A13682A490B60B2
:103370000021116013F47F0F08BF0121284A11704A
:103380001B0E0CBF01220022264B1A70FFF734FDE2
:1033900002E0184B00221A70BDE8F0813846FEF7B3
:1033A0008BFC4FF4806200211F4804F0C9FC194BCC
:1033B00000221A6094E7174AD25DAAB9012F06D9F4
:1033C0001A4AD27C12F0010FA7D04B0BA5E7BA1C0A
:1033D0001148825C002AF3D10123A0E70D4AD25D97
:1033E000002A9AD001239AE7012398E7012396E760
:1033F0000C000020A02B0020AA3B002038D700089A
:103400005409002018000020182300203422002036
:10341000000801405C1900205819002040220020BB
:10342000AB3B00208021002054050020C424002054
:103430002DE9F04182B0884614461E469DF8205082
:1034400021F00047032842D0052800F08C80022894
:103450001CD06C493846FDF7E3FA002862D16A496E
:103460003846FDF7DDFA002867D168493846FDF790
:10347000D7FA00286CD04046FCF7CEFFCDE900011A
:10348000634A3146204605F0EFFA0EE05D493846C2
:10349000FDF7C6FA80B14046FCF7BEFFCDE900015A
:1034A0005C4A3146204605F0DFFA002D40F0A68048
:1034B000204602B0BDE8F0814046FCF7ADFFCDE903
:1034C0000001554A3146204605F0CEFAEDE74D4958
:1034D0003846FDF7A5FA78B94B493846FDF7A0FA0A
:1034E000A8B14046FCF798FFCDE900014B4A3146B0
:1034F000204605F0B9FAD8E74046FCF78DFFCDE944
:103500000001474A3146204605F0AEFACDE7404675
:10351000FCF782FFCDE90001424A3146204605F022
:10352000A3FAC2E74046FCF777FFCDE900013E4A27
:103530003146204605F098FAB7E74046FCF76CFFA5
:10354000CDE90001394A3146204605F08DFAACE755
:103550004046FCF761FFCDE90001354A314620467F
:1035600005F082FAA1E727493846FDF759FAC8B9AC
:1035700025493846FDF754FAF8B924493846FDF78D
:103580004FFA28BB2B493846FDF74AFA58B3404654
:10359000FCF742FFCDE90001274A3146204605F0FD
:1035A00063FA82E74046FCF737FFCDE90001234A82
:1035B0003146204605F058FA77E74046FCF72CFFE5
:1035C000CDE900011E4A3146204605F04DFA6CE770
:1035D0004046FCF721FFCDE900011A4A314620465A
:1035E00005F042FA61E74046FCF716FFCDE900011D
:1035F000154A3146204605F037FA56E72046FEF7D1
:1036000097FA55E7000020410000C84200007A44C4
:1036100034D20008FCD1000804D2000814D20008FB
:103620000CD200081CD2000824D200082CD20008BA
:103630003CD2000800401C465CD2000844D200087E
:103640004CD2000854D2000864D2000808B503F038
:1036500025F802F0B9FE012002F082FE02F08EFE93
:103660004FF44870FEF75EF908BD000038B5002041
:1036700002F076FE0021084602F06CFF264C012283
:103680002146264802F058FF254D264B9A682649C8
:10369000284605F01DFA0021042002F069FF0122EE
:1036A0002146284602F048FF204A2149284605F0D5
:1036B0000FFA2846FDF722FA237803FB00F0C0F149
:1036C0008000002180B202F045FF012221462846F9
:1036D00002F032FF0F210D2002F03CFF01221549BC
:1036E000154802F029FF2321002002F033FF0122B8
:1036F0002146124802F020FF6178C1F13F0189B2F2
:10370000002002F027FF012221460D4802F014FF9D
:1037100002F034FE38BD00BFA4CE00086CD2000811
:10372000E0260020C424002074D2000878D20008CB
:1037300080D2000894CE000884D2000890D20008FD
:103740009CD2000838B50C4C0C4B1B680C4A20214D
:10375000204605F089F90B4D2878C0F180001C2126
:1037600080B202F0F7FE01222946204602F0E4FE74
:1037700002F004FE38BD00BFE02600200427002030
:10378000ACD20008A4CE00082DE9F0478AB0A74BC0
:103790001C7804EBC407002002F0E2FDA44B1B7868
:1037A000002B40F06A8304ADA24E0FCE0FC596E801
:1037B000030085E80300A04B5B7C012B7FD0022B2C
:1037C00074D0002B70D09D4D0021084602F0C2FE3F
:1037D000DFF8589201224946284602F0ADFE00214A
:1037E000204602F0C5FE964B1868FCF723FF0490B4
:1037F000944904A8FEF760FC0646934D4FF001087B
:10380000CDF8008020232A4604990420FFF710FEFB
:103810002846FEF7CEF931462846FEF77DF94246A6
:103820004946284602F088FE00232B70824BDB7C41
:1038300013F0020F47D04F218348FEF76DF97E4BFE
:10384000DB7C13F0040F40D053217F4E3046FEF74F
:1038500063F9A5B2A4EBC4008030002180B202F06D
:1038600079FE01227149304602F066FEC4F1200063
:10387000800080B2002102F06DFE744B1B6833B3F0
:1038800001226A49724802F057FE00230493714BEB
:103890001E7876B3012E4FD06F4B1B78012B57D07B
:1038A0006E4BDB6E04932BE06D4D8DE76A4B1B78FE
:1038B0003BB1012B01D06B4D86E76B4D84E76B4D1F
:1038C00082E76B4D80E72D21B6E72D21BDE75E4EE7
:1038D0004FF00108CDF80080202332465F49096E81
:1038E0000420FFF7A5FD42465049304602F024FE71
:1038F000CBE7594B1B78012B1AD0584B9B6E049386
:1039000020220021504804F01BFA2EB3012E67D06C
:10391000584904A8FEF7D0FB06466D287BD001234A
:1039200000932023484A04990420FFF781FD22E0F8
:103930004A4BD3F88430E2E7474B1B78012B03D086
:10394000464B5B6E0493DBE7444BD3F88030F9E7DA
:10395000424BD3F88830A5E7474904A8FEF7ACFBF3
:103960000646752831D0012300932023364A049956
:103970000420FFF75DFD1021002002F0EBFD012285
:103980003E49314802F0D8FD0121062002F0F0FD49
:10399000304B1B78002B79D0012B00F0B880202E03
:1039A00040F0CA800021032002F0E2FD03A902A832
:1039B00002F0D6FD122300930D23314ABDF80C10FE
:1039C000BDF8080002F0F0FD6FE00498FCF724FD5C
:1039D000CDE900012B4A20211B4805F045F8CAE734
:1039E000294904A8FEF768FB0646702808D0012381
:1039F00000932023144A04990420FFF719FDBAE725
:103A00000498FCF709FDCDE900011E4A20210E486B
:103A100005F02AF8AFE70498FCF7FEFCCDE90001B9
:103A2000184A2021084805F01FF8A4E7A4CE000892
:103A30001823002080B10008C4240020C0CE000854
:103A400018000020E8D20008E026002034220020E0
:103A5000CCD2000814000020DC260020042700201F
:103A6000ACCE0008BCCE0008B8CE0008B0CE00082E
:103A7000B4CE0008ECD20008D4D200089CCE0008D6
:103A800014D70008DCD20008E4D20008944B0022CE
:103A90001A70202E36D1924E48213046FEF73CF85F
:103AA00001229049304602F047FD8D4B00221A70EA
:103AB0008D4B1B78002B4ED048218948FEF72CF8FF
:103AC0008A4B1B78002B48D04821854E3046FEF7A4
:103AD00023F8C5EB8530C5EB80008030242180B20F
:103AE00002F038FD01228249304602F025FD814B6B
:103AF0001B7C032B00F2ED80DFE813F03100DF00C8
:103B0000E300E70031461846FEF706F8C3E7744BBA
:103B100000221A70202E0AD1714E46213046FDF740
:103B2000FBFF01226F49304602F006FDBDE731463A
:103B30001846FDF7F1FFEFE7DFF8A481002388F8CE
:103B4000003031464046FDF7E7FF01226549404617
:103B500002F0F2FC26E74C21AFE74C21B5E7604BC1
:103B60004C221A705E4B00225A70624BDB7C13F0C1
:103B7000010F00F0B2804621594E3046FDF7CCFFD0
:103B80003046FCF7BBFF05FB00F0C0F180002421AC
:103B900080B202F0DFFC01225549304602F0CCFC35
:103BA000554B1B78012B40F2B780544B1E6E26F00C
:103BB00000405349FCF734FF002800F020814D4BB2
:103BC000DB7C13F0010F00F0188110224D4B1B68B5
:103BD0001A420CBF01230023002B40F026814A4BE0
:103BE0001B78012B00F01881444B9B6E04934749CE
:103BF00004A8FEF761FA0546012300932023384A02
:103C000004990420FFF714FC202D40F0098148217D
:103C10003348FDF781FF324E3046FDF7CAFFDFF82B
:103C2000D08098F80150C5F13F05ADB2294600207B
:103C300002F090FC01224146304602F07DFC324BFE
:103C40001B78012B00F015812C4B9B6F049330499E
:103C500004A8FEF731FA06462946384602F07AFCF7
:103C6000234F012239462B4802F066FC1C4D4FF0D1
:103C70000108CDF8008020232A4604990320FFF78D
:103C8000D7FB2846FDF795FF31462846FDF744FF50
:103C9000002124FA08F002F06BFC4246394628461F
:103CA00002F04AFC134B9B7C032B00F22682DFE8D8
:103CB00013F0F50118021C022002094B43221A706E
:103CC00050E7074B52221A704CE7054B41221A70FD
:103CD00048E7034B3F221A7044E720214CE700BF1E
:103CE000E026002094CE0008AB3B0020802100207D
:103CF000A4CE0008C42400201400002004270020C3
:103D0000000020403C220020DC260020D4D2000805
:103D1000E8D20008F8D20008834B1B78012B64D04E
:103D2000824B1B6F0493824904A8FEF7C5F98146B4
:103D3000DFF8008298F80160C6F13F06B6B231465E
:103D4000002002F007FC012241467B4802F0F4FB10
:103D50007A4D4FF0010ACDF800A020232A4604999D
:103D60000320FFF765FB2846FDF723FF4946284659
:103D7000FDF7D2FE24FA0AF90021484602F0F8FBCA
:103D800052464146284602F0D7FB674B1B78534505
:103D90002FD0664B9B6F0493694904A8FEF78CF9FA
:103DA00080463146384602F0D5FB624E012231464C
:103DB000644802F0C1FB614D0127009720232A4689
:103DC00004990320FFF734FB2846FDF7F2FE414635
:103DD0002846FDF7A1FE0021484602F0C9FB3A46FD
:103DE0003146284602F0A8FB5CE7504BD3F88C30F4
:103DF00098E74E4BD3F89430CDE70422E6E64FF037
:103E0000010500213046FCF70BFE08B94FF0000514
:103E1000EBB283F00103DFE6444BD3F88430E5E6F0
:103E200029464648FDF778FEF1E63F4B1B78012B0B
:103E300016D03E4B5B6E0493434904A8FEF73CF951
:103E400005460123009320233C4A04990420FFF7F0
:103E5000EFFA202D08D146213848FDF75DFEDAE65D
:103E6000324BD3F88030E6E729463448FDF754FE5C
:103E7000F1E72E4BD3F89430E8E65A1ED2B2012A6D
:103E80003FF610AF012B36D0304A314B5B682B4DDB
:103E9000C3F103032021284604F0E6FD0021084673
:103EA00002F058FB01222B49284602F045FB1F4B2C
:103EB0005D6C00212846FCF7C7FDF0B102951B4B55
:103EC000DE6C00213046FCF7BFFDC0B10396224BEB
:103ED00093F80080B8F1010F13D020492846FCF771
:103EE000BDFD002842D14FF07E513046FCF798FDD1
:103EF000B8B901233BE01A4AC7E70025DEE70026F0
:103F0000E4E718492846FCF78BFD30B916493046DE
:103F1000FCF7A4FD18B1002329E0002327E00123CA
:103F200025E0002323E000BFDC260020042700203A
:103F3000ECD20008A4CE0008F4D20008E02600204D
:103F4000E8D20008F8D20008E4D20008B0D2000895
:103F5000CC21002094CE000818230020CDCCCC3EEC
:103F6000C0D200080000614482A87B380023002BE7
:103F70006CD1B8F1010F00F08480FEF7F1FA614BCB
:103F8000614A07CA83E80700604D6978083100205C
:103F900002F0E0FADFF86C8101222946404602F087
:103FA000CBFA5B4902A8FEF787F80646DFF8649172
:103FB00099F80150C5F13F05ADB22946002002F045
:103FC000C9FA01224946544802F0B6FA0123009387
:103FD0002023424602990320FFF72AFA202E53D1CC
:103FE000DFF820814046FDF7E4FD0021042002F0C7
:103FF000BFFADFF8209101224946404602F09CFAC0
:10400000464903A8FEF758F806462946384602F006
:10401000A1FA01224946424802F08EFA0123009398
:104020002023424603990320FFF702FA202E30D1C5
:10403000344D2846FDF7BDFD0021042002F098FA1A
:1040400001223449284602F077FA2BE6354B1868EE
:10405000FCF7F0FA0490344904A8FEF72DF8064660
:10406000284D0123009320232A4604990420FFF7BA
:10407000DFF92846FDF79DFD31462846FDF74CFD4A
:1040800082E7FEF745FA7AE731464046FDF744FD00
:10409000A6E731464046FDF73FFDC9E7194B202210
:1040A0001A70184D00236B702846FCF727FD194E37
:1040B0007178C1F13F0104FB00F0C0F1810089B2C9
:1040C00080B202F047FA01223146284602F034FA63
:1040D00002F054F9154A1368013313600AB0BDE8C1
:1040E000F087084B41221A70DBE7064B42221A7018
:1040F000D7E7044B44221A70D3E7024B45221A70CB
:10410000CFE700BFE0260020FCD2000894CE0008D4
:10411000ECD20008A4CE000808D30008D4D20008CE
:104120000CD3000818000020E8D200083822002034
:104130007047000008B53F4A136823F0070343F0B7
:10414000020313603B4B1B6803F00703022BF9D1FA
:10415000394A136843F480331360374B1B6813F4F8
:10416000003FFAD0344A536A43F001035362324BA2
:104170005B6A13F0020FFAD02F4A536823F47C13C2
:1041800043F4E8135360136843F0807313602A4BC1
:104190001B6813F0007FFAD0274B5A6822F0F00218
:1041A0005A605A6822F4E06242F480625A605A68A7
:1041B00022F460525A605A6822F0030242F002026E
:1041C0005A601D4B5B6803F00C03082BF9D11B48A8
:1041D000FDF7BEFB184A536823F4404343F4004301
:1041E0005360FCF7DFFF164B1868FDF78BFB154B90
:1041F000DA68C2F30222C2F10703042B28BF0423AA
:104200001946131D062B13D9033A4FF0FF338B4089
:10421000DB4303F0040393401B01DBB2094A82F83D
:1042200023304FF0E022136943F00203136108BD0D
:104230000022EAE7002002400010024000A24A04E7
:104240002000002000ED00E02DE9F0478AB0AD4AE3
:10425000136823F001031360AB4B9A6942F0040228
:104260009A619A6902F004020492049A9A6942F4EB
:1042700000729A619A6902F400720392039AA34C45
:10428000216840F2011595FAA5F2B2FA82F2920085
:104290000F2000FA02F221EA020295FAA5F5226047
:1042A00040F2022595FAA5F1B1FA81F1890000FAF0
:1042B00001F122EA010295FAA5F5226094498A6883
:1042C00022F001028A6001F580618A6822F0010211
:1042D0008A605A6942F001025A615B6903F0010386
:1042E0000293029B8B4B9A6822F001029A609A68B3
:1042F00022F4804222F010029A609A6822F440521E
:1043000042F400529A609A6842F020029A609A68D9
:1043100022F040029A609A6842F080029A609A689D
:1043200022F4407242F400729A609A6822F4406269
:1043300042F400629A60784A1A61784A5A61DA68EF
:10434000120C120442F40072DA6001225A609A6878
:1043500042F008029A609A6842F004029A609A68F1
:1043600042F002029A606E4BDA68C2F30222C2F196
:104370000703042B28BF04231946131D062B40F204
:10438000BF80033A4FF0FF338B40DB4303F003035E
:1043900093401B01DBB2634A82F80B334FF4006396
:1043A0001360002405940694594E05A93046FDF784
:1043B000DFF805944FF48033059305A93046FDF7E7
:1043C000BBF8059406940794089409944FF40023CD
:1043D00005934FF48073099305A93046FDF7DCF887
:1043E00051494FF4407898FAA8F3B3FA83F34FF4A5
:1043F000007929FA03F351F8232022F01F0241F833
:10440000232020394FF0007A9AFAAAF3B3FA83F303
:104410002AFA03F351F823204FF0F87595FAA5F026
:1044200022F0070295FAA5F042F0060241F8232097
:10443000354B9A6942F480629A619B6903F4806308
:104440000193019B05940694384F05A93846FDF762
:104450008FF8059406940794089409944FF4602308
:1044600005930224089405A93846FDF795F8304ACB
:1044700098FAA8F8B8FA88F829FA08F852F8283013
:1044800023F01F0343F0010342F8283029489AFA29
:10449000AAF3B3FA83F32AFA03F350F8232095FA28
:1044A000A5F1B1FA81F14FF4401C2CFA01F14FF063
:1044B000070E0EFA01F122EA010295FAA5F5B5FA06
:1044C00085F52CFA05F54FF0060C0CFA05F51543A9
:1044D00040F82350B36843F00103B360BB6843F076
:1044E0000103BB602046FDF71DFA134B1A68B36841
:1044F00043F00403B360BB6843F00403BB6023E0F4
:1045000000223FE700040040001002400008014084
:1045100000240140000002404C240140801900208A
:1045200000ED00E000E100E02C2401400028014003
:104530002C2801400C280140002700201C4B1B6840
:104540009B1A632B0AD830BF1A4B9B6813F0040FD9
:10455000F4D1194B9B6813F0040FEFD10220FDF743
:10456000E1F9154A936823F001039360114B9968B0
:1045700021F0010199601148816841F001018160D9
:104580006FF0020111601960916841F001019160C2
:10459000996841F001019960916841F4A00191602E
:1045A0009A6842F480129A600AB0BDE8F08700BFB2
:1045B00000270020002401400028014000000240A4
:1045C00030B589B03E4A536943F0010353615369E2
:1045D00003F001030293029B3A4C236B23F0010387
:1045E0002363236B23F4804323F0100343F0100371
:1045F0002363236B43F440532363236B43F0200373
:104600002363236B23F040032363236B43F0800376
:104610002363236B23F4407343F480732363236B7E
:1046200023F4406343F480632363274BE363274B06
:10463000A363636B1B0C1B0443F0800363630023C1
:1046400003930493059306930793D36943F00203FE
:10465000D361D36903F002030193019B1C4B1A68D9
:10466000D2011C4B5B6803EB5203B3FBF2F3013B3B
:104670000593194D03A92846FDF7A6F82B6843F0CA
:1046800080032B60AB6823F4804323F00703AB6007
:104690006B6823F0700343F020036B60AB6823F07A
:1046A0008003AB60EB6843F48073EB60236B43F0F3
:1046B000010323632B6843F001032B6009B030BD75
:1046C0000010024000000240DC2500200C0C0140DC
:1046D000180000201C2300200004004030B58BB0DF
:1046E000704CA36943F48043A361A36903F480433E
:1046F0000293029BA36943F00403A361A36903F03F
:1047000004030193019B00230393049305930693F1
:104710000793654B03930923049302230593634D89
:1047200003A92846FCF763FF614B03930823049316
:104730000123079303A92846FCF759FF636943F057
:1047400001036361636903F001030093009B594B0C
:104750005A6C22F001025A645A6C22F4804222F010
:10476000100242F010025A645A6C22F440525A6409
:104770005A6C22F020025A645A6C22F040025A64A9
:104780005A6C42F080025A645A6C22F440725A64A5
:104790005A6C22F440625A644FF480525A605A6C48
:1047A00042F008025A645A6C42F002025A64424BC8
:1047B000DA68C2F30222C2F10703042B28BF0423E4
:1047C0001946131D062B6AD9033A4FF0FF338B406D
:1047D000DB4303F0020393401B01DBB2374A82F84C
:1047E0000E334FF480431360002303930493059327
:1047F0000693079308930993314B9B6803930C230B
:104800000793304C0DEB03012046FDF715F82369A3
:1048100023F490432361636923F02A0363612A4AE6
:1048200052E8003F43F0800342E800310029F6D10E
:10483000244B1A680392039A5A680392039A6FF002
:1048400020021A60214951E8003F43F0200341E86B
:1048500000321146002AF5D1174BDA68C2F3022262
:10486000C2F10703042B28BF04231846131D062B8F
:1048700000D9D11E4FF0FF338340DB4303F0010327
:104880008B401B01DBB20D4A82F825332023536095
:104890000C4AD36843F40053D3600BB030BD002200
:1048A00093E700BF0010024002000204000801402C
:1048B000040004040000024000ED00E000E100E01C
:1048C000C424002000380140143801400C38014055
:1048D0002DE9F0418CB000260796089609960A96B5
:1048E0000B96564B9A6942F004029A619A6902F05B
:1048F00004020692069A9A6942F008029A619A693D
:1049000002F008020592059A9A6942F010029A6133
:104910009A6902F010020492049A9A6942F0200205
:104920009A619B6903F020030393039B444D4FF06E
:104930000408C5F814804FF480736B6120236B6109
:1049400040236B6180236B613E4CFF236361012731
:104950000897022309930B9740F20443079307A992
:104960002846FCF744FE384B079307A92846FCF776
:104970003EFE42F22003079307A92846FCF737FEC4
:1049800044F24003079307A92846FCF730FE48F29B
:104990008003079307A92846FCF729FE0323099300
:1049A0004FF6FF73079307A92046FCF720FE0A96EF
:1049B00041F21003079307A92846FCF718FECDF82B
:1049C000288040F60803079307A92846FCF70FFE46
:1049D000082308930B971D4B079307A92046FCF764
:1049E00006FE1B4B079307A92046FCF700FE194B58
:1049F000079307A92046FCF7FAFD4FF49033A36113
:104A00004FF40052A261A361A3690293029B4FF489
:104A1000A033A3614FF48042A261A361A369019313
:104A2000019B4FF4C033A3614FF40042A261A36124
:104A3000A3690093009B0CB0BDE8F0810010024018
:104A400000080140000C0140010001042000200486
:104A5000400040048000800408B54FF49670FDF7D4
:104A600041F808B56420FDF73DF808B56420FDF76E
:104A700039F808B56420FDF735F808B56420FDF76E
:104A800031F870477047704710B5FCF765FB494B2C
:104A90001A6801321A601868002328E003EB430209
:104AA000D100454A0A44926801323BE0002203EB00
:104AB00043014FEAC10C404961448A60C96849B961
:104AC0001D2A07DD3C4A62440021117511615175B0
:104AD000D0600BE009B1002A2ADD002943D0411A39
:104AE00003EB4302D400344A224411610133022B08
:104AF00049D803EB4301CA002F4989580029F5D052
:104B000003EB43024FEAC20C2B4A624454688A68A2
:104B1000D24302EA142292B2002ABFD1264A62444A
:104B20009268013A002AC1DB1E2AC0DD1E22BEE7C0
:104B300003EB4302D400204A2244527D3AB11E4A7C
:104B40002244002111611175D1605175CEE7411ADF
:104B500003EB4302D400184A22441161012111756C
:104B60000021D160C2E703EB4302D100124A0A449C
:104B7000527D002ABAD0104A0A44002111611175F1
:104B8000D1605175B2E70D4B1B68002B03DD0B4A5A
:104B90001368013B13600A4BD3F80821D3F808319E
:104BA00001339A4205D2064AD2F808310133C2F8DD
:104BB000083110BD00270020842100201C000020A7
:104BC0003423002008B5104B1B6813F0040F08D1E4
:104BD0000D4B1B6813F0020F0CD10B4B01225A60D6
:104BE00008BD094B04225A604FF480710748FDF755
:104BF0004FFFEDE7044B02225A604FF480710448E6
:104C0000FDF746FFE9E700BF0000024080190020E1
:104C1000801D0020044B5A6C22F001025A644FF4AC
:104C200080525A60704700BF0000024082B0124BB1
:104C3000D3F8003107E0104AC2F800310021C2F871
:104C40000811D2F804210D4A126812F0200F09D081
:104C50000A4A5268D2B20849CA540133FF2BEAD932
:104C60000023E8E7054B1A680192019A5B680193FB
:104C7000019B02B0704700BF342300200038014080
:104C800008B5FEF717FB024B10225A6108BD00BFA2
:104C90000004014010B41B4B1C681BE003EB4302F3
:104CA000D100194A0A440121517504460133022BEF
:104CB0000DD803EB4302D100134A0A44D268002AFC
:104CC000ECD1114A0A44127D002AEFD0E6E7001B1E
:104CD000C72804D830BF0B4B18680023E7E7002132
:104CE00002290CD801EB4103DA00074B13440022E0
:104CF0005A759A60DA601A751A610131F0E710BCD2
:104D0000704700BF002700208421002008B5944B85
:104D1000DB68ABB1924B5B6A93B1914BDB6B7BB9B8
:104D20008F4B1B69B3F5487FC0F08A808C4B9B6A20
:104D3000B3F5487FC0F08480FCF7DEFFFCF7B8FED7
:104D4000874BDB68002B5BD0864B1B78002B6BD12D
:104D5000834BDB6833B1824B5B6A1BB9804BDB6BE7
:104D6000002B6ED07E4B1B7D002B7ED17C4BDB68F5
:104D70003BB97B4B5B6A23B1794BDB6B002B00F0BB
:104D80008380774B93F82C30002B40F09380744B4A
:104D9000DB683BB9724B5B6A23B9714AD26B002A5C
:104DA00040F0AC806E4B93F84430002B48D06C4BF5
:104DB00093F84530002B43D10123694A82F84530EE
:104DC000694A1370694AD37C83F00103D37413F0EA
:104DD000010309D1127C0132D2B2032A00D8134652
:104DE000624A1374624A137000235F4A1370614A67
:104DF00041F288311160604A1360FEF7C5FC1FE084
:104E0000574B5B6A002B9FD0554BDB6B002B9BD025
:104E1000534B9B6AB3F5487F12D3514B1B6CB3F5D0
:104E2000487F0DD3FCF744FE002307E003EB430269
:104E3000D1004B4A0A44012151750B44022BF5D98C
:104E400008BD474B1B69B3F5FA7FF9D3444B5B7D33
:104E5000002BF5D1424B01225A75FDF759FB464B09
:104E600000221A60FEF790FCEAE73D4B5B7D002BC9
:104E7000E6D13B4B01225A753F4A136883F0010388
:104E80001360FEF781FCDBE7354B9B6AB3F5FA7FD5
:104E9000D6D3334B93F82D30002BD1D1304B012298
:104EA00083F82D20FDF75CFB334B00221A60FEF7E0
:104EB0006BFCC5E72A4B93F82D3003F0FF02002B63
:104EC000BED10123264981F82D3027490B70274B8D
:104ED0005B7C0133DBB2022B00D81A46234B5A7499
:104EE000264B1A700023204A1370224A41F288315F
:104EF0001160214A1360FEF747FCA1E7184A126CC3
:104F0000B2F5FA7F9CD3164A92F84520002A97D131
:104F10000122134981F8452013490A70134AD068C9
:104F2000B0F57A7F0AD2012B09D8154A52F823200E
:104F3000824201D9104602E00133F4E764200B4BB2
:104F4000D860FDF7C1F90023074A1370094A41F2FE
:104F500088311160084A1360FEF716FC70E700BF45
:104F600084210020182300200C000020C4240020ED
:104F7000140000201C00002034220020DC26002029
:104F800008D8000870B586B01A4B1B781BB31A4AB4
:104F9000184B5B780BB3194B16498978F9B118494E
:104FA0001448C078E8B11748124C2479DCB1164C8B
:104FB000104D6D79CDB1154D0E4EB679BEB1144E72
:104FC000049603950294019000911249124803F04F
:104FD0001FFB06B070BD114ADAE7114BDCE711493F
:104FE000DEE71148E0E7114CE2E7114DE4E7114E2E
:104FF000E6E700BF2C23002014D300081CD30008D0
:1050000024D3000830D3000840D3000850D3000850
:1050100060D3000878D2000868D3000810D30008D5
:1050200018D3000820D3000828D3000838D300087C
:1050300048D3000858D30008F8B51A4B5F6C17F036
:10504000010729D10A2003F0FBFA3D461BE005EBDE
:10505000C412154B53F82200FBF7DEF902460B464B
:10506000124803F0D5FA0134062CF0D905F5607525
:105070000D4B53F82500FBF7CFF902460B460C48C1
:1050800003F0C6FA35467F2D09D86E1C3146094813
:1050900003F0BEFA3C46E7E74FF0FF3000E00020A7
:1050A000F8BD00BF0000024058090020B8D3000836
:1050B000C0D30008B4D30008F8B5114B5B6C13F0F3
:1050C000010F1AD10F4D2E460F4B46F8063B4FF4F9
:1050D00080573A460D49304602F00AFE0024AC8063
:1050E0003A4631462046FCF75FFCA88041F20601B3
:1050F0002846FCF7A5FD2046F8BD4FF0FF30FBE742
:1051000000000240A42B00209619621958090020C3
:105110002DE9F04FADB0744B5C6C14F0010440F01D
:10512000D581724B00221A70714B5D6C00212846AC
:10513000FBF78AFC002862D06E492846FBF7D2FABA
:105140001E906D491EA8FCF7B7FF0746684BDD6C43
:1051500000212846FBF778FC002852D065492846F4
:10516000FBF7C0FA2090654920A8FCF7A5FF804610
:105170005F4B5B6D2293604922A8FCF79DFF81463F
:10518000002526952795289529952A952B95012662
:105190000096082326AA1E990520FEF749F90096D5
:1051A000082328AA20990520FEF742F90096082333
:1051B0002AAA22990520FEF73BF9514B1B8BADF82B
:1051C00074308DF876504F4BDB7C13F0020F1AD001
:1051D0004F211DA8FCF7A0FC4A4BDB7C13F0040F09
:1051E00013D053211DA8FCF797FC00232493464BB2
:1051F0001B78032B25D8DFE803F00A181C200020B9
:105200009EE70020AEE72D21E3E72D21EAE74C23BE
:105210008DF890303D4B1B78012B49D0022B4BD0A1
:105220009BB13F238DF8913012E043238DF89030ED
:10523000F0E752238DF89030ECE741238DF8903061
:10524000E8E73F238DF89030E4E773238DF8913041
:105250002C4BDB7C13F0010F32D046210DF1900A6C
:105260005046FCF759FC214D2846FBF747FCC0F59A
:10527000805606360544CDF824902AAB08931C4B83
:10528000186EFBF7C9F8CDE90601CDF8148028ABFC
:105290000493039726AB02931D4B1B680193CDF833
:1052A00000A01DAB1B4A3146284603F0DDFBCCE0D5
:1052B00070238DF89130CBE761238DF89130C7E7EB
:1052C0002021CBE70A4B9B6EC7E0094B5B6ECBE01E
:1052D000074BDB6ECFE0064B1B6FD3E0044B5B6FDD
:1052E000D7E0034B9B6FDBE000000240A42B0020C3
:1052F000042700206740533AECD20008C8D30008C6
:1053000080B10008C424002014000020DC26002006
:1053100018000020D0D300086E4BDB6F1D936E4940
:1053200017A8FCF7C9FE14906C4918A8FCF7C4FE36
:1053300015906B4D294619A8FCF7BEFE0646294676
:105340001AA8FCF7B9FE074629461BA8FCF7B4FECD
:10535000804664491CA8FCF7AFFE814629461DA87B
:10536000FCF7AAFE824600231E931F9320932193ED
:105370002293239324932593269327932893299369
:105380002A932B930125009508231EAA179905201F
:10539000FEF74EF80095082320AA18990520FEF77D
:1053A00047F80095082322AA19990520FEF740F82E
:1053B0000095082324AA1A990520FEF739F80095CC
:1053C000082326AA1B990520FEF732F8009508232A
:1053D00028AA1C990520FEF72BF8009508232AAA75
:1053E0001D990520FEF724F8002C61D07025DFF808
:1053F000F8B05846FBF782FBCDF84CA02AAB1293CD
:105400001195CDF8409028AB0F930E95CDF83480D0
:1054100026AB0C930B950A9724AB09930895079636
:1054200022AB06930595159B049320AB039302953D
:10543000149B01931EAB00932B462C4AC0F5805160
:105440000631584403F010FB0134012C32D8002CF3
:105450003FF438AF1F4BD3F884301793002C3FF440
:1054600034AF1C4BD3F880301893002C3FF430AF8E
:10547000184BD3F888301993002C3FF42CAF154B00
:10548000D3F88C301A93002C3FF428AF114BD3F88B
:1054900090301B93002C3FF424AF0E4BD3F8943084
:1054A0001C93002C3FF438AF0A4BD3F8983035E703
:1054B00073259CE70C4C2046FBF720FB0146204659
:1054C000FCF7BEFB00202DB0BDE8F08F4FF0FF30A1
:1054D000F9E700BF042700202CD4000830D40008CE
:1054E000ECD20008E8D20008A42B002038D4000831
:1054F00008B5094B9B7C022B07D0032B08D0012B4E
:1055000000D008BDFFF798FDFBE7FFF7D5FDF8E7F2
:10551000FFF7FEFDF5E700BFC4240020002800F0DF
:1055200059832DE9F04788B00C460546002959D02B
:10553000002604E003F094FBC0B238700136A642A6
:105540000BD2AF19A85D0928F4D12020F5E7013C62
:105550002246691C284602F0D9FB14B12B78202B77
:10556000F5D93CB1631EEA5C202A03D80022EA5434
:105570001C46F6E700232B55A4B31F46BC4204D9B2
:10558000EB5D202B01D90137F8E70023EB557B1C9D
:10559000A34204D2E41B013C02D01F4600E00024D9
:1055A00005EB07084CB90026B1461FE0013C224636
:1055B00008F10101404602F0A9FB24B198F800303F
:1055C000202BF3D9002408EB040218F80430202B18
:1055D00001D90134F7E700231370E4E72946AA480C
:1055E00003F016F808B0BDE8F087013606EB460375
:1055F000A64A52F8231089B102EB830393F808A05E
:10560000BAF1000F0AD03A46284603F08EFA002875
:10561000EBD1B9F1000FE1D1D146E6E709F1FF394D
:10562000B9F1110F00F2D182DFE819F01200120077
:1056300043004F00A5003C00B200C4000D0261020F
:105640006E02D6005C01BE01CF02CF02C402C902C5
:1056500000252C4600E0013404EB44038B4A52F849
:10566000230048B102EB83031B7A2BB1FBF746FA08
:10567000A842F0D90546EEE7854803F063F8002418
:1056800004EB4403814A52F82320002AAAD0194689
:105690007E4B03EB81035B6829467E4802F0B8FF2E
:1056A0000134EDE77C4803F04DF8FCF725FBFCF7EF
:1056B000FFF94FF4FA70FCF7ADFAFFF7BDFC0028D4
:1056C00090DA764803F03EF88CE7F4B100230393B8
:1056D0000A2203A9404603F0B9FA044602F0CEFAC2
:1056E0000368002B19DC039B434516D0B4F5E13F5A
:1056F00013DBB4F5612F10DCB4F5612FA8BF4FF4B4
:105700006124674B9B68A3420CD1654B996865483F
:1057100002F07EFFFEF738F864E74146624802F087
:1057200077FF5FE75E4B9C60604BDB6803EB8303B6
:1057300003EB8303A400B3FBF4F35D48A0FB032158
:1057400049090A0192B2642404FB11331B0132336C
:10575000A0FB0313C3F34F1303F0F0010A4492B20A
:1057600003F00F0313449BB2524A9360524B41F231
:1057700088321A60C9E74FF4FA70FCF74BFAFFF76A
:105780009BFC0028BFF62EAF444802F0DBFF29E760
:105790004A4B1B7853B94A4802F0D4FFFCF7B8FED5
:1057A000484B00221A60FDF7EFFF1BE73B4802F071
:1057B000C9FF17E7414B1B7853B9434802F0C2FFBA
:1057C000FCF7CEFE3F4B00221A60FDF7DDFF09E734
:1057D000324802F0B7FF05E7A4B9314BDB68B3F5F7
:1057E0007A7F40D2394A2021394803F03DF9384CBC
:1057F0002046FCF7DEF92146364802F009FFFDF7A6
:10580000C3FFEFE6002303930A2203A9404603F0F7
:105810001DFA044602F032FA0368002B1BDC039BDE
:10582000434518D0632C16DD42F210739C4212DC03
:1058300042F21070A042A8BF2046194BDB68834299
:10584000CBD0174BD8601D4B1B784BB11A4B41F294
:1058500088321A60C1E741461F4802F0D9FEC1E60E
:10586000FCF732FDF2E71846FAF7E4FE1B49FAF7B7
:1058700039FFFAF7D1FDCDE90001194A202114487A
:1058800003F0F2F8B3E700BF9CD400083CD700084F
:10589000C8D4000804D5000810D5000828D5000891
:1058A000C424002050D5000830D500081C23002057
:1058B0001F85EB51003801401C00002018230020F8
:1058C00060D50008342200207CD50008BCD5000833
:1058D000E0260020D0D500089CD500086F12833A3E
:1058E000C4D500089CB122469349404603F01DF9F7
:1058F000D0B9924B02221A74904B1A7C904B1A70BA
:10590000904B41F288321A608F4B00221A6003AC30
:105910008E4B0FCB84E80F00884B1B7C032B34D8B5
:10592000DFE803F03E2B3A3C22468949404603F02B
:10593000FCF828B122468749404603F0F6F818B92A
:105940007E4B00221A74D7E722468349404603F073
:10595000ECF818B9794B01221A74CDE722467F4939
:10596000404603F0E2F818B9744B03221A74C3E7F7
:1059700041467B4802F04CFE34E6774991B17948C4
:1059800002F046FEFDF700FF2CE601236B4A13747C
:105990006B4A13706E49F1E76749EFE76F49EDE72E
:1059A0006B49EBE77049EAE79CB122466F494046F4
:1059B00003F0BBF800BB614B00225A745F4B5A7C6A
:1059C0006B4B1A705F4B41F288321A605E4B0022BB
:1059D0001A6003AC674B0FCB84E80F00574B5B7C1E
:1059E000012B22D0022B22D04BB30023534A5374F5
:1059F0005F4A13705D491BE022465F49404603F051
:105A000094F818B94D4B01225A74D7E722465349EE
:105A1000404603F08AF818B9484B02225A74CDE781
:105A20004146564802F0F4FDDCE5534900E04B499D
:105A300039B1534802F0ECFDFDF7A6FED2E54B4923
:105A4000F6E74949F5E764B122464E49404603F07E
:105A50006CF8A0B9394B00229A743A4B41F2883263
:105A60001A6003AC484D0FCD0FC42B682360334B35
:105A70009B7C032B2ED8DFE803F0362532342246F8
:105A80004249404603F051F818B92C4B01229A7450
:105A9000E3E722463E49404603F047F818B9274B52
:105AA00002229A74D9E722463A49404603F03DF86B
:105AB00018B9224B03229A74CFE74146364802F0C8
:105AC000A7FD8FE5314981B1344802F0A1FDFDF712
:105AD0005BFE87E5194B00229A742A49F3E72C49AB
